:020000040800F2
:1000000000500020E95D0108855E010829C4000850
:10001000855E0108855E0108855E0108000000001C
:10002000000000000000000000000000855E0108E4
:10003000855E010800000000855E01081F070108B9
:10004000855E0108855E0108855E0108855E010800
:10005000855E0108855E010821DC00082BDC0008B4
:1000600029DC000827DC000825DC0008C164000842
:10007000B1640008A164000891640008816400086C
:100080006D6400085B640008855E0108855E0108F8
:10009000855E0108855E0108855E010823DC000895
:1000A000855E010855CD0008855E010845CD000834
:1000B00035CD000825CD000815CD0008A76700083C
:1000C000AD6700089D670008A3670008855E01080A
:1000D000855E0108DD630008D3630008855E0108C2
:1000E0001FDC0008855E0108855E01080000000035
:1000F0000000000000000000000000000000000000
:0C01000000000000000000005FF808F1A3
:100110002DE9F04FB0F908300546D8B2522885B025
:100120000C4617460B8100F0308700F22D813428F1
:1001300000F0058500F2B680242800F07F8573D892
:10014000042800F0F68249D8022800F0D78200F295
:10015000E182012800F0C382F52895E8480041F0CB
:1001600075809E420FBFFF23591C296013F8021BA4
:10017000AE4A16BF2B6082F82F3082F82F1092F80B
:100180002F30FF2B4FF0000341F05A80A84A184649
:100190009046995801B108801433F02BF9D100260C
:1001A0004FF01409A34BA44D31463022A3481E70D2
:1001B0002E701AF042FC8DF80F60A04E9DF80F30A3
:1001C0000B2B41F2168023682A78591C21601A7083
:1001D000002F00F09D829A4B3B6099E20A2800F0C4
:1001E000E982222800F086840528B5D10023954DA8
:1001F0002268595D0133501C0B2B20601170F7D120
:100200000023914D2268595D0133501C082B20605A
:100210001170F7D10023194622680133501C072BB7
:1002200020601170F8D173E22C2800F04C8518D8AA
:10023000282800F029852A2800F03D8526288BD122
:10024000824D2046B5F8E41113F034F9B5F8E81101
:10025000204613F02FF9B5F8EC11204613F02AF9D7
:1002600056E2302800F0F285322800F0AF852E28C3
:100270007FF472AF754D05F14006B5F8CC132046FA
:1002800013F018F9236895F8CE23591C21601A70D1
:10029000236895F8CF230435591CAE4221601A70AB
:1002A000EBD135E2442800F09D8735D83B2800F09B
:1002B00017841AD8382800F0C7843A2800F09D83A4
:1002C00036287FF449AF614D614F05F120060023C8
:1002D00095F9DA22D957914201F0F4850C33302B8D
:1002E000F8D10835AE42F2D112E2402800F076850E
:1002F000422800F080853D287FF42EAF534B2268C2
:1003000093F8B212501C2060117093F8B122236848
:10031000591C21601A70FBE14B2800F023850ED890
:10032000462800F0E785C0F0378649287FF414AFEF
:10033000484B2046B3F8481013F0BCF8E8E14F28CA
:1003400000F00C86502800F0F0854D287FF404AFB3
:100350000026414D414F3B7802359E4280F2D881C4
:10036000236815F8022C591C21601A7015F8011C1D
:10037000204601EB810101EB810101F2EE2189B2FE
:1003800013F098F80136E6E7702800F08F8300F24A
:10039000AA80662800F05A822ED85E2800F0C8860F
:1003A0000ED85A2800F04D865C2800F08F8654281D
:1003B0007FF4D2AE0B685A1C0A6000221A70A7E1C3
:1003C000642800F0E18100F2058260287FF4C4AE69
:1003D0001E4B226893F81912501C2060117022687D
:1003E00093F82412501C2060117093F80F22236898
:1003F000591C21601A708BE16C2800F0E08231D822
:10040000682800F0C982C0F04F8269287FF4A4AE4A
:100410000025124E124F33789D4280F2798137F8D1
:100420001510204613F046F80135F4E7A405002026
:100430001C3000208A38002087380020A83A00208D
:10044000651C0108E6CB0108F2CB0108243B002023
:100450001C41002080120020A03D002050250020DB
:100460008C2600206E2800F0CD8240F2BB82B94D70
:100470002B681A780B68591C21601A702B689A78BF
:100480002368591C21601A7000232A681A44517984
:1004900022680133501C032B20601170F5D12B68AA
:1004A00020461A7A2368591C21601A702B68DA7862
:1004B0002368591C21601A702B681A792368591C0B
:1004C00021601A702B68598912F0F4FF2B685A7A50
:1004D0002368591C21601A702B685A782368591CAC
:1004E00021601A7014E17D2800F07C8500F28A807A
:1004F000752800F0EB8060D8732800F07B8300F251
:10050000498372287FF428AE934D2046B5F86A12CD
:1005100012F0D0FFB5F8CC10204612F0CBFFB5F8A2
:10052000CE10204612F0C6FFB5F8D010204612F0CB
:10053000C1FFB5F8B812204612F0BCFF2268531C68
:100540002360002313702268511C216013702268FD
:10055000511C21601370226895F84512501C2060D0
:100560001170226895F86712501C20601170226883
:100570002046511C216013700A23B5F90C1291FB1F
:10058000F3F189B212F096FF236895F83822591CCE
:1005900021601A70236895F83C22591C21601A705A
:1005A000236895F83B22591C21601A70236895F83E
:1005B0003D22591C21601A70AAE0782800F082813F
:1005C0007C2800F0FD8477287FF4C6AD00214FF031
:1005D0000C0C624D624805F1100700F1300E95F8E1
:1005E0002E30994280F294800022CE5D0CFB02F303
:1005F00013F80E80B04501F05C8401321F2AF5D15A
:100600000131ECE7A02800F009834AD87F2800F0E8
:100610002984C0F0018596287FF49EAD514B204679
:10062000B3F8581012F046FF4F4B2046198889B294
:1006300012F040FF4D4B20461968C1F3C003C1F3CF
:1006400080029B0043EA4203C1F340021343C1F31B
:10065000401243EAC20301F01001194312F02AFFCD
:1006600014F050F90146204612F010FF3A4B204694
:1006700093F820252368591C21601A703C4B198877
:100680006429A8BF642112F015FF23685A1C226058
:1006900002221A70374B1A782368591C21601A708D
:1006A00036E0F12800F04781FE2800F0AC82F02807
:1006B0007FF452AD284D2046B5F8221212F0FAFE12
:1006C000B5F82012204612F0F5FE21E02A4A12F871
:1006D000013FEBB12168481C20600B70F7E70B6805
:1006E0005A1C0A6000221A700B685A1C0A601870A3
:1006F0000B685A1C0A601F221A70F6E100231F4D76
:100700002268595D0133501C042B20601170F7D111
:100710000120EAE10B6801205A1C0A6003221A70CA
:100720000B685A1C0A6018700B681A180A600622B7
:10073000E2E70023124D2268595D0133501C042B5F
:1007400020601170F7D10F4B2046197812F0B2FEDD
:10075000DEE700BF60120020243B0020A40500203B
:1007600094AB010830000020203B0020E412002060
:100770005C230020F82F002093AB0108DCCB01089C
:10078000E1CB0108281300200B6820465A1C0A60A0
:10079000E7221A70B24B93F8B3220B68591C216000
:1007A0001A70236804215A1C226000221A7012F069
:1007B0006DFEADE7AB4814F069F90023A8499842F3
:1007C000A6DD5A1892F8D85522680133561C2660C7
:1007D0001570F4E7A44B2046B3F8581012F06AFEE7
:1007E000A24B2046198889B212F064FEA04B204625
:1007F0001968C1F3C003C1F380029B0043EA4203BE
:10080000C1F340021343C1F3401243EAC20301F0B3
:100810001001194312F04EFE14F074F80146204600
:1008200012F034FE8E4B204693F820252368591C85
:1008300021601A708F4B19886429A8BF642112F0B7
:1008400039FE0021204612F035FE61E78A4E002570
:100850003289B2F5007F94BF012704277319196B01
:10086000204691FBF7F1043589B212F023FE0C2DDE
:10087000F4D10025814EAB19B169D86C14F072FF28
:1008800017F010FE043581B2204612F013FE0C2D35
:10089000F1D100257A4EAB1999892046043512F022
:1008A00009FE0C2DF7D133E7764B0A6803F11001EE
:1008B00053F8040B8B4242F8040BF9D12368103330
:1008C000236025E7664D00262F464FF00E08B5F849
:1008D0007211204612F0EEFDB5F87411204612F0A8
:1008E000E9FDB5F87611204612F0E4FD236895F88D
:1008F0007821591C21601A70236895F87921591CB8
:1009000021601A70236895F87A21591C21601A70A9
:10091000236895F87B21591C21601A7008FB067327
:100920002046D3F87C11013612F0B0FD082E05F1F7
:100930000E05CCD1ECE64A4B03F17001226893F826
:100940000201551C25601070226893F80301551CA4
:1009500025601070226893F80401551C2560107002
:10096000226893F80501551C25601070226893F8E1
:100970000601551C25601070226893F80701551C6C
:1009800025601070226893F808010733551C9942BE
:1009900025601070D2D1BBE6002514263A4FDFF84F
:1009A000088106FB0573197B31B92046013512F029
:1009B00081FD082DF5D1ABE638F81510F5E7334D7C
:1009C0002046298812F076FD6988204612F072FDD3
:1009D0000A23B5F90410204691FBF3F189B212F015
:1009E00069FD95E62A4B2046196812F04FFD294B08
:1009F0002046198812F05EFD8AE60021204612F09A
:100A000045FD85E6244B0A681B88511CFF2BA8BFB7
:100A1000FF2321601370214B2046196881F31001D8
:100A200089B212F047FD1E4B2046198812F042FD94
:100A30000B4B93F845221B4B4AB10A211B682046F9
:100A4000594381F3100189B212F034FD60E6196850
:100A5000204601F30F0189B212F02CFD58E600BFC9
:100A6000243B0020FC40002030000020203B0020E0
:100A7000E41200205C230020E812002080120020F5
:100A800080130020A40500201C300020E622002056
:100A90005C42002074100020BC1E0020B81E002004
:100AA0007212002088100020802200200022BF49FE
:100AB0000B68985C23685D1C256018700B681344F4
:100AC000987A23685D1C256018700B681344187DA4
:100AD000236801325D1C0A2A25601870E8D117E6E8
:100AE00001200B685A1C0A601870608140B205B082
:100AF000BDE8F08F0C27AE4AAE4E02F1500192F8DD
:100B00002135043207FB036393F8380023685D1C2A
:100B100025601870236892F81E055D1C256018700A
:100B2000236892F81F055D1C25601870236892F8F1
:100B300020055D1C914225601870E0D1E8E59C4BD2
:100B400003F15A01226893F87605551C2560107050
:100B5000226893F87105551C25601070226893F87F
:100B60007205551C25601070226893F87305551C9A
:100B700025601070226893F87405551C256010706C
:100B8000226893F875050633551C9942256010704C
:100B9000D8D1BDE501264FF00C0B874FDFF814824A
:100BA00007F1100908F1300A002597F82E309D4210
:100BB00004DB002E3FF4ACAD0026F5E7002215F86B
:100BC00009100BFB02F313F80A00884201F064815C
:100BD00001321F2AF5D10135E7E7216813F801EB4F
:100BE00001F1010CC4F800C081F800E0991A8842B4
:100BF000F3DCF0E701232268511C216013700133FC
:100C0000092BF8D184E500256C4E36F815102046E6
:100C1000013512F04FFC042DF7D179E5684B2046E1
:100C2000196812F033FC674B2046196812F02EFC4D
:100C3000654B2046196812F029FC69E55C4B20469B
:100C4000996812F023FC63E5594B226893F8381237
:100C5000501C20601170226893F83C12501C2060D8
:100C60001170226893F83B12501C206011702268AA
:100C700093F83D12501C2060117093F83F222368B6
:100C8000591C21601A7043E5494D2046B5F84012C1
:100C900012F010FCB5F84212204612F00BFC23684B
:100CA00095F84422591C21601A70B5F84612204666
:100CB00012F000FC2CE53E4B93F8B3220B68591C54
:100CC00021601A7024E53A4D0B6895F85C22591C96
:100CD00021601A70B5F86E12204612F0EBFBB5F8E1
:100CE0006A12204612F0E6FBB5F86C12204612F0AC
:100CF000E1FB236895F86522591C21601A70B5F84C
:100D00007812204612F0D6FBB5F87A12204612F07F
:100D1000D1FB236895F87022591C21601A70236852
:100D200095F87222591C21601A70B5F87612204687
:100D300012F0C0FB236895F85F22591C21601A70DD
:100D4000D5F86012204612F0A1FB236895F86422C2
:100D5000591C21601A70236895F87322591C216070
:100D60001A70D5E4124D0B6895F8B622591C216013
:100D70001A70236895F8B722591C21601A70B5F8CB
:100D8000B812204612F096FB236895F8BA22591C37
:100D900021601A70B5F8BC12204612F08BFB236854
:100DA00095F8BE22591C21601A70B1E44C31002024
:100DB000243B002094AB0108A40500209A320020B7
:100DC000E8F7FF1FECF7FF1FF0F7FF1FBB4B93F88F
:100DD00067220B68591C21601A7099E40023B74DF3
:100DE0005A1992F8541222680133501C082B2060C3
:100DF0001170F5D18CE4B14D0B6895F8B322591CF4
:100E000021601A70A968204612F040FB236895F80B
:100E10005C22591C21601A70B5F8E411204612F0CA
:100E200049FBB5F8E811204612F044FBB5F8EC1187
:100E3000204612F03FFBB5F84012204612F03AFB74
:100E4000B5F84212204612F035FB61E400259B4EB6
:100E5000AB19D3F82C132046043512F017FBA02D44
:100E6000F6D155E4954D002306272846002107FBBF
:100E700003F6226802F1010EC4F800E01370226844
:100E800002F1010EC4F800E011708A192A4492F8A8
:100E90000CE42268013102F1010C0629C4F800C0FB
:100EA00082F800E0E5D10133062BDFD10022216872
:100EB0004D1C25600B7021684D1C25600A7081183F
:100EC00091F83054216801324E1C0B2A26600D70B7
:100ED000EDD123685A1C226007221A7023685A1C1D
:100EE000226000221A70236890F83C24591C21606B
:100EF0001A700DE410F09AFC00280CBF02220322A5
:100F000023686F4D591C21601A702988204612F001
:100F1000BDFAE968204612F0B9FA10F067FC014604
:100F2000204612F0B3FAFFF7F3BB01200B685A1CFE
:100F30000A601870614B226893F8CD15151825606A
:100F40001170226893F8CB1515182560117093F86D
:100F5000CC25236819182160FFF7CEBB00250B684C
:100F600020465A1C0A601D700B685A1C0A601D70CE
:100F70000B685A1C0A6029461D7012F087FA294630
:100F8000204612F083FAFFF7C3BB0B685A1C0A60B5
:100F900000221A70FFF7BCBB00234A4D2268595D3E
:100FA0000133501C0B2B20601170F7D1204600211B
:100FB00012F06CFA0021204612F068FAFFF7A8BB85
:100FC0003E4D2046B5F8E81012F074FAB5F8EA1074
:100FD000204612F06FFAB5F8EC10204612F06AFACB
:100FE000FFF796BB354B226893F84C12501C2060DB
:100FF0001170226893F84D12501C20601170226805
:1010000093F84E12501C20601170B3F8EE10204679
:1010100012F050FAFFF77CBB284B226893F8FC11C2
:10102000501C20601170226893F81812501C206028
:10103000117093F80E222368591C21601A70FFF773
:1010400067BB1E4D0B6895F8FF2162B35A1C0A60FE
:1010500008221A700B685A1C0A6001221A70236851
:1010600095F8D520591C21601A70236895F8D42072
:10107000591C21601A70B5F8D210204612F01AFAE5
:101080001149D5F8D80014F0B9FA17F00BFA81B26B
:10109000204612F00FFA236895F80322591C2160AC
:1010A0001A70FFF735BB95F8FE21591C21601A70A4
:1010B000236895F8F821591C2160CFE7243B0020D4
:1010C000DC020020E6CB01080000C8429E4E0B68FF
:1010D00096F801229D4D591C21601A702B682046FC
:1010E000198C12F0E7F92B682046598C12F0E2F9BE
:1010F000B6F80412204612F0DDF9B6F806122046C2
:1011000012F0D8F92B682046998C12F0D3F92B688D
:101110002046D98C12F0CEF9B6F80812204612F00B
:10112000C9F9B6F80A12204612F0C4F9FFF7F0BA6E
:10113000864D0021204612F0BDF90021204612F014
:10114000B9F92B682046598D12F0B4F923685A1C5E
:10115000226000221A702B6893F831102368581C03
:10116000206019702B6893F83C102368581C20608D
:1011700019702B6893F83D102368581C2060197073
:101180002368591C21601A702368591C21601A7049
:101190002368591C21601A702B686D49586C14F033
:1011A0002DFA17F07FF981B2204612F083F92B68EF
:1011B0006749186C14F022FA17F074F981B22046CE
:1011C00012F078F92B6893F833202368591C2160BA
:1011D0001A702B6893F834202368591C21601A7008
:1011E000FFF796BA002A3FF493AA5A4B1360FFF711
:1011F0008FBA9DF80F3009FB03831B7BC3B19DF8A9
:101200000F3009FB03831B6993B19DF80F304A210E
:1012100009FB038318692B7846F823000CF068FC5F
:101220002B7856F823000CF0CCFC2B7801332B7074
:101230009DF80F300133DBB28DF80F30FEF7BEBFE3
:101240002268511C21601370FFF762BA4728A6EB91
:10125000030648D1284612F0F3F8052E07463FD979
:10126000284612F003F90026054694E80C009B1A64
:10127000103B394AAB42A846B8BF9DB2D368394645
:10128000DB1B9D42204688BF9DB2914612F0FEF8BE
:101290003EB92946204612F00DF923685A1C2260F7
:1012A0001E70D9F80C307A199A42D4F800A088BF81
:1012B000DD1B10F091FB2A465146384610F0CAFB60
:1012C000236803442360002E3FF422AA00228045B5
:1012D0007FF71EAA23680130591C21601A70F6E7B7
:1012E00001268025C1E75B2800F0E78300F2198121
:1012F000352800F0A48200F2A280292800F0A584FD
:101300002CD8232800F07F8206D80B2800F0AD856A
:101310004FF0FF30FFF7E9BB252800F08B8427282A
:10132000F6D1284612F0A2F8074EC6F8E401284686
:1013300012F09CF8C6F8E801284612F097F8C6F8B3
:10134000EC01FFF7E5B900BF243B00204C31002041
:1013500000002041C5480108DC0200202F2800F0D1
:1013600056855ED82B2800F088842D28D0D15A1CB1
:101370002A601B78D04F284687F85C3212F076F846
:10138000A7F86E02284612F071F8A7F86A022846FC
:1013900012F06CF82B68A7F86C025A1C2A601B78B4
:1013A000082E87F865327FF6B3A9284612F05EF85A
:1013B000A7F87802284612F059F80C2EA7F87A02FE
:1013C0007FF6A6A92B6828465A1C2A601A4612F8EE
:1013D000021B87F870122A605B7887F8723212F06D
:1013E00045F8102EA7F876027FF692A92B682846BA
:1013F0005A1C2A601B7887F85F3212F021F82B689C
:10140000C7F860025A1C2A601A78162E87F86422E0
:101410007FF67EA99A1C2A605B7887F87332FFF703
:1014200077B9312800F00C8533287FF471AF5A1C4E
:101430002A601A78A04B83F86722FFF769B943281E
:1014400000F07E843FD83C283FF462A927D8372893
:1014500000F0A58439287FF45BAF19465A1C2A6036
:1014600011F8020B944A042E82F838022960597848
:1014700082F83C1203F103012960997882F83B124B
:1014800003F104012960D97882F83D127FF640A962
:10149000591D29601B7982F83F32FFF739B93E2880
:1014A00000F0888141287FF433AF002382482A6806
:1014B000511C296011781A180133082B82F8541234
:1014C000F5D1FFF725B94C2800F0DF830AD848286A
:1014D00000F0A5834A287FF41BAF284611F0C6FF11
:1014E000FFF716B94E2800F0F48351287FF410AFAF
:1014F000724A92F83020012A3FF60AA919465A1C6E
:101500002A6011F8020B6C4A82F8CD0529605978DF
:1015100082F8CB15D91C29609B7882F8CC35FFF76F
:10152000F7B8D22800F01A817ED8CA2800F050817E
:1015300052D85F2800F0FB8247D85D287FF4E8AEE0
:101540005A1C2A601B785E4FDFF86C812846D7F85A
:10155000009088F8013211F089FFA9F82000284690
:10156000D7F8009011F082FF052EA9F8220023D9A8
:10157000284611F07BFFA8F80402284611F076FFF8
:10158000A8F806022846D7F8009011F06FFFA9F8D6
:1015900024002846D7F8009011F068FF0D2EA9F816
:1015A000260009D9284611F061FFA8F8080228464C
:1015B00011F05CFFA8F80A020AF09CFF06F026FB77
:1015C000386806F0F5FFFFF7A3B8612800F008833C
:1015D000C8283FF49DA89BE6CE2800F0148310D8BD
:1015E000CC2800F05981CD287FF492AE354B1B7882
:1015F00059073FF58DA84FF4C872334B1A80FFF797
:1016000087B8CF2800F09181D0287FF481AE2D4B90
:101610001B7858073FF57CA80BF05CFB0CF0D2FC64
:101620000CF018FBFFF774B8DB2800F02D826BD8A4
:10163000D62800F0CC8149D8D32800F0A980D4283E
:101640007FF466AE0F2E7FF463AE5A1C2A601E78BC
:10165000072E3FF65DAE284611F008FF0E22164B0E
:1016600002FB0636A6F87201284611F0FFFEA6F826
:101670007401284611F0FAFE2B68A6F876015A1C70
:101680002A601A4612F8021B284686F878112A604A
:101690005A7886F87921DA1C2A609A7886F87A21B5
:1016A0001A1D2A60DB7886F87B3111F0C9FEC6F876
:1016B0007C01FFF72DB800BF243B0020A4050020CB
:1016C0004C310020E422002018100020D92800F01E
:1016D000C981DA287FF41CAE5A1C2A601A46C24E11
:1016E00012F8021B284686F84C122A605A7886F8AF
:1016F0004D22DA1C2A609B7886F84E3211F0B6FE35
:10170000A6F8EE00FFF704B8EF2846D015D8DC287D
:1017100000F0C081DD287FF4FBAD5A1C2A601A4618
:1017200012F8020B2A60DA1C59782A609A7808F0BD
:1017300083FA00287EF4ECAFEAE5F22800F060813D
:10174000FA287FF4E5ADA94B1B785B073FF5E0ADC8
:101750000CF038FC0CF07EFAFEF7DABF5A1C2A6057
:10176000187806060BD4A14B1B785D073EF5D0AF69
:10177000022828BF00200AF09FFEFEF7C9BF00F034
:101780007F00032828BF00200AF078FEFEF7C0BFC4
:10179000284611F06BFEFEF7BBBF284611F066FE2F
:1017A000914EA6F82202284611F060FEA6F820020B
:1017B000FEF7AEBF5A1C2A601A468B4912F8020B7C
:1017C00081F8B2022A605B7881F8B132FEF7A0BFDF
:1017D000874B1868431E00F109062A68511C2960CE
:1017E000114611F8027B03F8017F29605178B3425A
:1017F000997202F10301296092781A75EDD106F011
:1018000041FEFEF785BF5A1C2A601A78132A3FF65C
:101810007FAD00204FF00C0C991C296075495F7852
:1018200001F1300E0CFB00F60EEB060898F808806C
:10183000B84500F06A8301301F28F3D168E55A1CCF
:101840002A6019780E293FF663AD9A1C2A605A78EF
:10185000032A3FF65DAD0626634806FB010181F8C9
:101860007625DA1C2A609A7881F871251A1D2A607B
:10187000DA7881F872255A1D2A601A7981F8732561
:101880009A192A605A7981F87425DA1D2A609B79A1
:1018900081F87535FEF73CBF092E7FF639AD564805
:1018A0005A1C07682A601A4612F8021B80463970D3
:1018B0002A605B78791DBB700023022B14BF4FF0A8
:1018C000640E4FF0FF0E28680133421C2A60027834
:1018D0007245A8BF7246032B01F8012BEDD1831C82
:1018E0002B604378642B28BF64233B72C31C2B609E
:1018F0008378FB70031D2B60C37828463B7111F081
:10190000B5FD0A2E78810CD02B68D8F80020591C20
:10191000296019780B2E51721FBF991C29605B78C2
:10192000537013F081F8FEF7F3BE284611F09EFDC8
:101930002D4EA6F86A02284611F098FDA6F8CC00B4
:10194000284611F093FDA6F8CE00284611F08EFD32
:10195000A6F8D000284611F089FDA6F8B80228465E
:1019600011F08FFD284611F08CFD284611F089FDFD
:101970002B6828465A1C2A601A4612F8021B86F861
:1019800045122A605B7886F8673211F07AFD2846A6
:1019900011F06CFD2B6800EB80005A1C4000A6F88B
:1019A0000C022A601A4612F8021B86F838122A60C6
:1019B0005A7886F83C22DA1C2A609A7886F83B220C
:1019C0001A1D2A60DB7886F83D32FEF7A1BE00269C
:1019D0000A4F284611F04AFD27F816000136082E56
:1019E000F7D1FEF795BE00BF243B0020E422002083
:1019F0004C31002094AB010860120020FA2F002027
:101A00005A1C2A601A780F2A3FF682AC991C29606A
:101A1000C2485978C2EBC202024482F80211D91CB2
:101A20002960997882F80311191D2960D97882F804
:101A30000411591D2960197982F80511991D296031
:101A4000597982F80611D91D2960997982F8071110
:101A500003F108012960DB7982F8083106F0D0FC37
:101A6000FEF756BE284611F001FDAC4EA6F8E80080
:101A7000284611F0FBFCA6F8EA00284611F0F6FC17
:101A8000A6F8EC00FEF744BEA54B18680AF0DCFD92
:101A9000FEF73EBE19465A1C2A6011F8020B9F4AF7
:101AA00082F8FC012960597882F81812D91C296043
:101AB0009B7882F80E32FEF72BBE5A1C2A601A461B
:101AC000964F12F8021B284687F8FE112A605A78B2
:101AD00087F8F821DA1C2A609A7887F8D5201A1D31
:101AE0002A60DB78042BA8BF042387F8D43011F0D8
:101AF000BDFC072EA7F8D20009D9284611F0B6FC84
:101B000013F028FD874913F079FDC7F8D8002B683A
:101B10006A689A4207D05A1C2A601B78003318BFA3
:101B2000012387F803320AF0E5FCFEF7F1BD2846F1
:101B300011F09CFC7A4F284611F098FC2846D7F803
:101B4000008011F093FCA8F82A00284611F099FCB7
:101B50002B683A68591C2960194611F8020B82F863
:101B6000310029605978284682F83C10D91C296038
:101B70009B7882F83D3011F084FC284611F081FCFE
:101B8000284611F07EFC2846D7F8008011F06EFC44
:101B900013F0E0FC644913F031FDC8F84400284616
:101BA000D7F8008011F062FC13F0D4FC5E4913F00A
:101BB00025FD112EC8F840003B460CD92A6838682C
:101BC000511C2960114611F8026B80F833602960BE
:101BD000527880F83420186806F054FCFEF798BD5F
:101BE00019465A1C2A6011F8020B4C4A82F8190255
:101BF0002960597882F82412D91C29609B7882F8D0
:101C00000F32FEF785BD494B1B785A073EF580AD74
:101C1000474A137843F004031370FEF779BD0FF0C1
:101C200047FF0023434A1370434A1370434A13602B
:101C3000FEF76EBD0023394E2846B36011F000FC5C
:101C4000B3681843B060FEF763BD284611F00EFC80
:101C5000324EA6F84002284611F008FC2B68A6F880
:101C600042025A1C2A601B78284686F8443211F03A
:101C7000FDFBA6F84602FEF74BBD5A1C2A601A78F7
:101C8000264B83F8B322FEF743BD5A1C2A601A463E
:101C9000224E12F8021B284686F8B6122A605B789C
:101CA00086F8B73211F0E2FB2B68A6F8B8025A1C8E
:101CB0002A601B78284686F8BA3211F0D7FB2B68C9
:101CC000A6F8BC025A1C2A601B7886F8BE32FEF7C2
:101CD0001FBD5A1C2A601E78112E3FF619AB9A1CA4
:101CE0002A605A7806F59E730C4E284606EB43068A
:101CF000327111F0BBFB40F6CA039842A8BF1846E8
:101D000040F2EE239842B8BF18461923A0F2EE2005
:101D100090FBF3F07071FEF7FBBC00BF243B00208A
:101D20004C3100200AD7233CCDCCCC3DE42200200E
:101D3000F0220020443100204531002048310020AD
:101D40005A1C2A60824E1B78284686F8B33200233C
:101D5000B36011F075FBB36818432B68B0605A1C70
:101D60002A601B78284686F85C3211F07FFBC6F8A3
:101D7000E401284611F07AFBC6F8E801284611F084
:101D800075FBC6F8EC01284611F070FBA6F840027E
:101D9000284611F06BFBA6F84202FEF7B9BC0722F9
:101DA000B6FBF2F2C2EBC203F61A7FF4B1AA5FFAF5
:101DB00082F8F3B298453EF4ABAC2A680136531C66
:101DC0002B6092F90070384606F00EFA8146002822
:101DD0003FF49EAA8770284611F048FB2A68A9F8AC
:101DE00000001146531C2B6011F8023B89F80330A8
:101DF0002960537889F80430D31C2B60937889F8D4
:101E00000630131D2B60D37889F80530D1E7504E8A
:101E100006F14007284611F029FB2B68A6F8CC03F1
:101E20005A1C2A601A4612F8021B043686F8CA1396
:101E30002A605B7886F8CB33B742EBD1FEF768BCFB
:101E40005A1C2A601F78272F3FF662AA052E7FF4BE
:101E50005FAA284611F0F4FA3D4B03EB8703C3F861
:101E60002C0310F023FAFEF753BC0021112239484D
:101E700018F0E3FD102E4FF0000328BF1026344960
:101E8000B342BEF445AC2A68501C286010785A183A
:101E900082F8D8050133F3E743445A6B10460192A8
:101EA00012F0F4FD002E7EF496AE019A1346FEF772
:101EB0009DBE034493F8382023685E1C26601A7088
:101EC000FEF79EBB23682046591C21601A70B5F8A6
:101ED000D81211F0EFFA236895F8DB22591C216023
:101EE0001A70236895F8DC22591C21601A70236847
:101EF00095F8DE22591C21601A70236895F8DD22BE
:101F0000591C21601A70FEF7ECB902F5A470314437
:101F10000F4A91F8301002EB80025170D91C2960F1
:101F2000997800209170191D2960D978D170591DB8
:101F300029601B791371084B1A68084B1A6012F05C
:101F4000FEF9074B80F001001870FEF7E1BB00BFFF
:101F5000243B0020FC4000204C3100205410002085
:101F6000080000202DE9F04FB74BA5B01B78069074
:101F7000012B07D1B549B64A0968496A1180B549AC
:101F800009885180B44C22780592002A00F0C08460
:101F9000072B02D10EF06AFB0890B04E33685A0549
:101FA00004D5AF4883680BB1AE499847AE4BB3F93F
:101FB0000650AE4B1B685A89954280F2FE814FF065
:101FC0007E536360002240F2E63AA94BDFF8989214
:101FD00093F95042B3F86A02644293F84D8293F841
:101FE0004CC2A449A4B239F912704FEA420E3B1A0E
:101FF00003F2F31BD34502F22181002BB8BF5B42F1
:10200000022A02F02081634540F3EA81A3EB0C032E
:10201000874221F80E30C2F220810132032AE2D138
:10202000376817F4805700F0DD81B5F5FA6F2A465E
:10203000A8BF4FF4FA62B2F57A7FB8BF4FF47A7254
:10204000A2F57A724FF0640E92FBFEF38A4C03F114
:10205000010C34F9136034F91C406FF0630C0CFB75
:102060000323A41B5C4394FBFEFE7644B6B2CE80F1
:10207000AFB1824B1B68DB0011D5814BDB7873B9A4
:102080004FF47A73A6F57A7636B2360396FBF3F6FA
:10209000C0F5FA631BB25E4300EB2630C880794B73
:1020A000B3F8009019F0400F44D0774BB3F9040017
:1020B0000A2390FBF3F0754B1B88C01A00B213F093
:1020C00049FA734913F09AFA7249044613F08EF9EB
:1020D00011F00FFB8246204611F00BFB654C0646C3
:1020E000B4F9020013F036FA8046B4F9000013F098
:1020F00031FA5146834613F081FA41460790304643
:1021000013F07CFA079B0146184613F06DF913F0A3
:1021100051FC51462080404613F070FA59468046E3
:10212000304613F06BFA0146404613F05FF913F0A6
:1021300041FC6080584B484C1B684D4E13F0140F07
:1021400011D019F4027F0ED0544B4A49187810F080
:10215000100000F05D81524B4A8896F9B5021B6869
:1021600000FB03234B804F4B1B78ABB1B6F86C32AE
:10217000AB4211DB96F8B332012B01D0192B02D1FF
:1021800096F8FC2042B90E2B06D0082B04D0002272
:10219000384B9A800023A36196F836526DB319F03C
:1021A000030F2AD0404B4149D3F82080404613F01A
:1021B000CDFB002840F08481404616F0EBF9E16940
:1021C00013F01CFA16F06EF9B0F5617FA8BF4FF45A
:1021D000617013F0BFF9364913F010FA11F089FA63
:1021E0008046284613F0B6F9414613F007FA16F078
:1021F00059F9204BDA881044D8802E4B96F871821A
:1022000093F800B008F102085FFA88F8BBF1000FFC
:1022100000F08780284B4FF07E51D3F8F45044F6FD
:1022200020639D42A8BF1D46B5F57A7FB8BF4FF425
:102230007A75224BADB2D3F800A02584DAF8383095
:10224000184607933CE000BF98320020802600200B
:102250009A3200205C230020A00B002028250020BB
:1022600080120020A20B00208C260020601200208B
:10227000243B0020781000207E420020D01E002049
:10228000BC26002058380020E622002058100020EC
:1022900035FA8E3CDB0FC93FE4120020F02200200B
:1022A0007842002008000020A42200208FC2753C44
:1022B000D06D393A5A100020300000204C310020F7
:1022C00013F058FB68B34FF47A72B5FBF2F5642251
:1022D00092FBF5F5142DA8BF1425079B002F00F0E5
:1022E000F180BAF836004008616A7C4A4F1CB2F9A6
:1022F000062004EB4101AF420A85A8BF00216762B6
:10230000A8BF6162616A04EB4101098D521A12B2E1
:10231000002AB8BF52428242D8BF4FF07E53704A63
:10232000136096F87032002B40F0CF80B9F1000FA7
:1023300040F0D08000256B4BA3F852506A4B1B78BD
:10234000002B40F02B81694B1878002840F0D38295
:10235000674D2B681A0340F1CE82664C2378033B0D
:10236000052B19D8644B5F4E93F8CD35002B00F048
:102370008F82012B00F09182D6F8882096F88C305D
:102380001344B3F5807FA8BF4FF480738342D4BF5A
:10239000C6F88830C6F888002378023B092B00F283
:1023A0009B82DFE813F07F028C02360399029902C8
:1023B00079038C03280645065506B5F5FA6F187A99
:1023C000BFBFAB1A5843C2F5FA6290FBF2F0C0F1FE
:1023D000640013F0BFF8494913F010F96060F1E5AB
:1023E000002315E6444BB3F86C329D420EDBB5F585
:1023F000FA6F2C46A8BF4FF4FA644FF47A72E41ACD
:102400005443C3F5FA63B4FBF3F21BE61C46F4E74E
:10241000A3683B4A93F803E0B2F900209B78BEF131
:10242000000F2FD0A5EB020EBEF1000FB8BFCEF10A
:10243000000E9E450EDDDFF8E4E09542CEF8000088
:102440004FF00100C8BF5B422073C8889BB20344B1
:10245000CB8088E6237B33B12A4B2073D3F800E08E
:10246000294BC3F800E0294B1B681A44B2F5FA6FF8
:10247000A8BF4FF4FA62B2F57A7FB8BF4FF47A7210
:10248000CA8070E6A81A80EAE07CACEBE07C9C4550
:1024900009DD022390FBF3F01D4B186001231D485A
:1024A00023730370DFE7237B002BDCD0154B84F80C
:1024B0000CE01868144B1860164B83F800E0D2E764
:1024C000002096E6BAF936000EE7022B28D0032B3F
:1024D00000F0DF80104B5B8826E000BF7810002002
:1024E00000000020A00B00205A10002040310020E6
:1024F00028250020D4050020243B00200AD7233CB7
:102500005C1000205C4200206442002078420020E1
:102510006C4200207C4200205025002074420020A4
:10252000238C03F57A739BB2BBF1000F00F0CC80D3
:10253000724A1168724AB3FBF1F11278481C00B27A
:10254000092AA4F8500006D16E4D6F4A2E886D8876
:1025500016805580D38000236C4DB4F952C0DFF84B
:10256000A49105F108074345C0F29B80684BA3F88E
:102570005210674AB2F9520000287FF7DBAE002301
:102580001D4619465F4FB2F9506002F15C0E54329D
:102590004345C0F29F8000293FF4D0AE5D4B00263A
:1025A0001B78DFF89891002B18BF02255A4BD3F8FF
:1025B0000080534B1B780A9308F105030793AE4242
:1025C00040F3BE80554B93F8730200285DD0544B06
:1025D0001B689D0059D5534B1B88590655D44C4D4B
:1025E000514E95F87C30834212D085F87C0012F071
:1025F000B1FF4E4913F002F84D49074612F0F6FEBE
:1026000011F077F87060384611F073F8C5F8800063
:10261000D6F8048025694146284612F0EFFFA769E5
:10262000D4F8806081463146384612F0E7FF014613
:10263000484612F0D9FE3F49814613F087F908B9A0
:10264000DFF8F0903C49484613F08AF908B9DFF802
:10265000E89041463846C4F8109012F0CFFF31465A
:102660000746284612F0CAFF0146384612F0BEFE61
:102670003049054613F06AF900B92E4D2E49284617
:1026800013F06EF900B92C4DA5610022214B1A7090
:1026900059E696F87232C3EB431203EB8203DB0078
:1026A00041E735F9132039F913E00CFB02F292FBF4
:1026B000F0F237F8136027F813E0AEEB0606324469
:1026C00025F8132001334EE7B4F85230013BA4F84B
:1026D00052304EE732F913103EF81350414391FB4C
:1026E000F6F1022BA5EB01011D46B8BF022527F824
:1026F0001310EDB2013305994AE700BFF81F00201F
:1027000098320020781000209A320020F40B00202C
:10271000A00B00205A10002060120020243B002053
:10272000D01E0020583800200000002035FA8E3CD2
:10273000DB0FC93F00C0F94400C0F9C40AD7233CED
:10274000022E15BF98F8000098F8010098F802B022
:1027500098F809B012F0FEFE494612F04FFF4FF014
:102760008041074613F006F960B14FF080413846CA
:1027700012F03AFEB44912F041FF0146384612F019
:1027800035FE074673000593B04B33F9160012F07F
:10279000E1FEAF4912F032FF20F00043AD4A05934D
:1027A000059B42F826000C32824642F82630BBF1E7
:1027B000000F20D0584612F0CDFE494612F01EFF01
:1027C00083465146504612F019FF059912F016FF44
:1027D000594612F013FF59460C904FF07E5012F0FC
:1027E00003FE0C9A0146104612F000FE01465046C8
:1027F00012F004FF82469849384612F0FFFE514617
:1028000012F0FCFE079B074613F8010B079300B379
:1028100012F0A0FE494612F0F1FE059912F0EEFE0C
:102820008E49824613F0A6F868BB0021504613F08B
:1028300083F850BB51464FF07E5012F0D5FD014653
:102840004FF07E5012F08EFF0146384612F0D6FE51
:1028500007460A9B0C2B05D1384613F0ABF8804B8A
:10286000720098527F49384613F070F800B97D4FD6
:102870007D49384613F074F800B97B4F7B4BB200AA
:10288000D75001369BE64946DAE74FF07E51D7E74D
:10289000D6F884000AF0F5FE6EE50EF0B7FFC0F141
:1028A0007F0069E50022724BC3F88820C3F89020AE
:1028B000704A1268C3F89420032323700CE06D4B18
:1028C0006B4E1A68D6F894306433934204D2402099
:1028D0000FF076FE002874D00FF09EFE064600280A
:1028E00000F0388401232370614B93F8AD2012B1BE
:1028F000002283F8AD20604B1B78072B05D10DF02B
:10290000B5FE089BC01A564B98800022584B1A708F
:10291000594C2378072B02D10DF0A8FE0B90DFF85D
:102920006C91D9F810504F46002D32D1D9F80430AF
:102930004846984768B389F82550B9F81C30DFF845
:1029400050811BB2C8F80030B9F81E3099F8261033
:102950001BB2C8F80430B9F8203040461BB2C8F8A2
:10296000083005F04FFA454B1E88454B1B68002E7A
:1029700040F042849B79002B00F0B784EFF3128380
:10298000F02282F312883F4ADBB2C9F8102083F3A9
:102990001188394D2A78072A05D10DF067FE0B9B67
:1029A000C01A2F4B1880324B93F8FC201C4605921E
:1029B000002A00F07585013A83F8FC2025B0BDE8B7
:1029C000F08FDFF8D0804027C146D6F8903018F855
:1029D000030078B10FF08EFFD6F88830013F03F185
:1029E000FF33C6F88830D6F8903003F10103C6F8FB
:1029F0009030EAD1D6F8903019F80330002B7FF4EC
:102A00006BAFC6F890304FF0FF33C6F89430042314
:102A100053E71D4A5021A2F10C0301932623029291
:102A200000934920A2F10A03163A10F055FA002843
:102A30007FF452AF4FF0FF320D4BC3F89000C3F854
:102A40009420072339E700BFD7A3684178100020FE
:102A50006F12033B040C002000004843A4707D3F2C
:102A60009A32002000C0F94400C0F9C4B00B002025
:102A7000A00B0020B826002098320020161A002053
:102A80007C1200202D7F0008EEAD0108801200208E
:102A9000981E002078AD0108052300210093AA4B61
:102AA00002910191A3F10802532010F015FA0028B9
:102AB0007FF412AFA54BC3F890000823FDE6402039
:102AC0000FF07EFD00287FF407AF7023A0489F4ED3
:102AD00090F82015D6F8907003FB010292F8882434
:102AE000492F01F29F83DFE817F04A004F005D0095
:102AF000630066006C007000740078007E00820045
:102B00008E0098009C00A500A900AD00B100BA009D
:102B1000C300CC00D500DE00E700F000F90006019C
:102B200010011A01240185018F019901A301AD0152
:102B3000B301BD01C301C901CF01D501DB01E10131
:102B4000E701ED01F301F901FF0105020B0211029A
:102B500017021D022102250229022D02310237022D
:102B60003D0249024D025102550259025D026102C5
:102B7000650269026D02710275027F028302754966
:102B800075480FF081FE07E0744B754A0093754954
:102B9000754B76480FF078FED6F890300133C6F8C2
:102BA000903099E6724A734973480FF06DFEF3E76F
:102BB00072497348E5E790F8CC2590F8CB15714839
:102BC000F3E7B0F8CC107048DBE7B0F8CE106F48F0
:102BD000D7E74FF07E516E48D3E7B6F89820B6F8A5
:102BE0009A106C48E1E76C4B6C481989C9E7D6F834
:102BF0009C30DB0403D590F838126948C1E70C23F8
:102C0000C6F89030C8E790F83B3290F83D2290F833
:102C10003C1264480FF038FEBEE7B6F8A0106248D8
:102C2000AFE72B681F05B7D5B0F94022B0F94212C3
:102C30005E48BAE75E4B5F48996CA2E790F8FE11D8
:102C40005D489EE790F8F8115C489AE759430C23D9
:102C500003FB0211014491F88A14594891E7594342
:102C60000C2303FB0211014491F88C14554888E7AA
:102C700059430C2303FB0211014491F88B14524871
:102C80007FE759430C2303FB0211014491F893148D
:102C90004E4876E759430C2303FB0211014491F897
:102CA0008D144B486DE759430C2303FB021101447B
:102CB00091F88E14474864E759430C2303FB021133
:102CC000014491F8921444485BE759430C2303FBF9
:102CD00002110144B1F89414404852E759430C23BF
:102CE00003FB0211014491F8913491F890243C487F
:102CF00091F88F148EE703FB01013A4891F85434A0
:102D000091F84A2491F8401484E703FB0101364806
:102D100091F8553491F84B2491F841147AE703FB6C
:102D20000101324891F8563491F84C2491F842143C
:102D300070E703FB01012E4891F8573491F84D24B8
:102D400091F8431466E700BFA8AF0108A00B00206C
:102D5000243B002009CD010815CD010857CD0108FD
:102D600026CD01082CCD010879E9010837CD0108ED
:102D7000F2CB0108E6CB01085CCD0108FC40002045
:102D800070CD01087ECD01088FCD01089ECD0108D0
:102D9000ADCD0108BDCD0108E8120020CFCD01085E
:102DA000D9CD0108E6CD0108FFCD01080ACE010802
:102DB000801200201DCE010829CE01083CCE01085A
:102DC00051CE01085BCE010865CE010872CE010824
:102DD0007FCE010889CE010894CE0108A1CE01085A
:102DE000B3CE0108C2CE0108D3CE0108E5CE01085A
:102DF000F5CE010803FB0101A54891F8583491F87C
:102E00004E2491F8441405E703FB0101A14891F811
:102E1000593491F84F2491F84514FBE603FB010166
:102E20009D4891F85A3491F8502491F84614F1E6EF
:102E300003FB0101994891F85B3491F8512491F812
:102E40004714E7E603FB0101954891F8481498E61A
:102E500003FB0101934891F85D3491F8532491F8F4
:102E60004914D7E603FB01018F4891F85E1488E608
:102E700003FB01018D48B1F8601482E603FB0101F8
:102E80008B48B1F862147CE603FB01018948B1F874
:102E9000641476E603FB01018748B1F8661470E616
:102EA00003FB0101854891F868146AE603FB010100
:102EB0008348B1F86A1464E603FB0101814891F884
:102EC00070145EE603FB01017F4891F8711458E627
:102ED00003FB01017D4891F8721452E603FB0101E6
:102EE0007B48B1F876144CE603FB01017948D1F830
:102EF000781446E603FB0101774891F87C1440E61C
:102F000003FB0101754891F87D143AE603FB0101CA
:102F10007348D1F8801434E603FB01017148D1F8FD
:102F200084142EE690F84C126F482AE690F84D1261
:102F30006E4826E690F8FF116D4822E690F80012E0
:102F40006C481EE690F801126B481AE6B0F80822A9
:102F5000B0F80412694828E6B0F80A22B0F8061260
:102F6000674822E6B0F8160212F0F4FA654912F04A
:102F700045FB12F01FFD0146634802E690F8191266
:102F80006248FEE590F824126148FAE590F80F12C5
:102F90006048F6E590F8B0125F48F2E590F87012DC
:102FA0005E48EEE590F872125D48EAE5B0F87612F8
:102FB0005C48E6E590F85C125B48E2E590F8D510D5
:102FC0005A48DEE590F8D4105948DAE5B0F8D21046
:102FD0005848D6E54B49D0F8D80012F00FFB12F054
:102FE000E9FC01465448CCE590F8F9115348C8E58E
:102FF00081685348C5E5534B1B68990115D5524E5E
:10300000B6F8A4308BB9D6F8A83018A91893069B47
:103010000E2019930FF0B6FC4FF48053A6F8A2309F
:103020000A23237006980FF0F9FC0FF08DFC53E48F
:10303000454B93F8AC20002AF4D0424A1268920122
:10304000F0D493F8AD30002BECD109232370ECE7DA
:103050003E4B3D4E1A68D6F89430C833934211D295
:103060003B4B93F8CD755FB9D6F8840005F05EF858
:1030700096F8AE30C6F88470022B01D110F0E0FC57
:1030800001231AE415F002F80028E9D124E400BF76
:1030900005CF010815CF010826CF010837CF010859
:1030A00049CF010839CF010853CF010868CF010883
:1030B00078CF010886CF010898CF0108AECF01086C
:1030C000C9CF0108D8CF0108EFCF010808D0010807
:1030D0001CD0010836D001084BD0010861D001088E
:1030E00078D001088DD00108A3D001089FD0010835
:1030F000AFD00108BBD00108CDD00108E0D0010855
:10310000F4D001080000C8420CD101081AD101080E
:103110002AD101083BD101084BD1010864D1010833
:1031200078D1010895D10108B2D10108C7D10108B1
:10313000DCD10108F1D1010803D2010818D201083D
:1031400026D20108D01E0020A00B0020B8260020A7
:10315000243B0020A94991F8CE35002B3FF4CBAB9E
:103160002B68DF044FF000034CBFB1F8EC50B1F80E
:10317000D050A34F37F913200133AA420CBF304679
:1031800046F001000C2BC6B2F4D19E4D9E4BC6B149
:103190001B6803F59C530833C5F8B0302378012B26
:1031A0007FF4A9AB95F8AD30002B7FF4A4AB91F878
:1031B000CD35D3B10EF020F9012385F8AD30FFF7FE
:1031C0009ABB1A68D5F8B0309342E7D82378012B20
:1031D0003FF491AB95F8AD30002B3FF48CAB0EF083
:1031E000EDF885F8AD60FFF786BB802011F00AF995
:1031F00000287FF480ABDDE75B78D9F8482007939F
:103200004FF47A73B3FBF2F3AB46C3EB431203EB19
:103210008203DB009BB2059323787C4C0C937C4BA0
:1032200004F13C09B3F90630CDF820800693059BE4
:103230005B080E93059B4FEA850A9E4202BF00235E
:1032400049F825302361089B53F8250059F82530AB
:10325000034449F8253012F07DF9226902F1010892
:10326000B8F1010FC4F8108040F0A1800023606025
:103270002060A360089B012E1A464FF000034AF815
:1032800002304FF00002634B4AF8032040F0E28026
:103290002069012840F3AF80013812F05BF9014644
:1032A000E06812F05FFA15F0BDFB0C9B8046032B23
:1032B00005D115F0F7F84FF0010B03B20693079B09
:1032C000002B00F0BD80184612F044F9414612F080
:1032D00033FB002800F0B480BBF1000F03D04C4B4F
:1032E000BDF81820DA8004F07EFCDFF84C914FF036
:1032F000000BCA46DFF84481474C464B54F82B007C
:1033000053F82B304FEA8B05C01A44F82B0012F00B
:1033100021F9424B996912F071F999F80030014690
:10332000032B06D1059015F0BDF8394B059923F80C
:103330001B003B4A3B4BA8581B6898479AF8003043
:103340000146082B06D1059015F0ACF8304B0599D5
:1033500023F81B00344A354BA8581B689847344A59
:10336000344B01461B68A85898470BF1010BBBF181
:10337000030F48F8040FC0D1002E3FF40AABBD691B
:10338000F86C294612F0EEF915F08CF82946206009
:10339000386D12F0E7F915F085F829466060786D10
:1033A00012F0E0F915F07EF8A060FFF7F2BA22689B
:1033B000109011460F9212F017F80A90404612F042
:1033C000C9F801460A9812F0CDF90F9A114612F089
:1033D0000DF8109B014680466060184612F004F814
:1033E0000A9912F00BF9A16812F000F8C4F80080F5
:1033F000E060A0603EE7002055E700BF243B0020CE
:10340000FA2F0020A00B0020B8260020540C00202A
:103410009A320020A41E0020981E00208012002056
:10342000781A0020181A0020081E00201C1A0020FC
:10343000681E0020201A002098320020C8120020A8
:103440000E9A5AF809301344059A93FBF2F3104A86
:1034500042F80A300135032D04F114047FF4EAAE7A
:10346000BBF1000F03D00B4BBDF81820DA80012E02
:1034700008D10022084B30461B689A621A63DA6250
:1034800004F00CFF054A1388013B13802DE700BFB1
:10349000A41E00209A32002080260020161A002048
:1034A000A54B93F80122002A00F03E8193F8F831F1
:1034B000013BDBB284F8FC302B78072B02D10DF0F6
:1034C000D5F80D909D4B4FF07E501B6806936368B6
:1034D0000A93D4F800311946089311F085FF984BF0
:1034E000196812F08BF84FF07E51079012F02EFA07
:1034F00010B94FF07E53079300254FF0000B914B0E
:103500000B93914B914F53F8258059464046AC00A0
:1035100057F8256012F006FAD0B9F43757F825901D
:103520003046494611F060FF824620F00041404697
:1035300012F002FA58B15946504612F01BFA002810
:1035400000F0F4804946404611F050FF06463E51D7
:103550007F4BB3F8009019F0030F3DD0022D3BD004
:10356000069B93F8340011F0F5FF7A4BE15812F006
:1035700045F8069B804693F833A0CAF1000011F08D
:10358000E9FF07460146404612F0D6F940B95046D9
:1035900011F0DCFF4146074612F0D8F900B9474662
:1035A000654B03EB4503B3F920026B4B33F9153040
:1035B000184411F0CFFF694912F020F8014638464F
:1035C00011F012FF19F0010F074600F0EB80644B79
:1035D000196812F013F806460B9B304653F8049F07
:1035E00049460B9311F000FF82465E4B0A98E15862
:1035F00012F004F8514612F001F8022D804606D16F
:10360000594A5A4B01461B68106898478046584BE8
:103610004FF07E510898E75812F08EF9B0B1554B33
:103620001968554B186811F0E9FF079911F0E6FF8A
:10363000524BE15811F0E2FF514611F0DFFF014615
:10364000384611F0D3FE0746494BE050022D40F0BA
:10365000E3803946404611F0C9FE494EC6F81801CC
:10366000404612F0A7F9C6F82401384612F0A2F934
:103670000023C6F83001C6F83C31424B1B7813B921
:10368000414B44F803B00135032D7FF43AAF3F4C72
:103690002278072A05D10CF0E9FF0D9BC01A3C4B9C
:1036A00058802378364D012B40F021810CF0DEFF4D
:1036B0003849D5F84831364A0968C31A93805B1AED
:1036C0000990D380C5F848011C4B1C68324B1B681D
:1036D0000B9313F480530C93304B00F05883304A13
:1036E000D5F854111278C988560758BFD5F850211B
:1036F000B3F906305CBFD28AA5F84C21D5F8502129
:10370000D68A701A834200F31981B5F85811108BCC
:10371000B5F89A800791A5F84C31181A11F01AFFE4
:10372000D5F85C3107461BE10123C3E64146484614
:1037300011F05AFE0AE700BF243B00204C31002064
:10374000B01F0020C8120020A41F0020B00B0020D2
:1037500058380020040C0020E6220020CDCCCC3DBF
:10376000941F0020681F0020642200206022002097
:10377000FC0F002000000020A01F0020741F00206C
:10378000A00B002008100020B00C00209832002070
:103790009A320020F81F00202825002078100020F1
:1037A000E4220020554B5946D3F80080404612F0E1
:1037B000E1F860B3524BD3F870A0D3F8749051463F
:1037C000484612F0CDF800B9D1464146484611F0BE
:1037D00015FF4FF07E51804612F0CCF8B8B959462B
:1037E000404612F0A9F8A0B941464FF07E5011F0C2
:1037F000FBFD8046434B3846196811F0FFFE4146F9
:1038000011F0FCFE0146304611F0F0FDE3E6D8462B
:10381000F0E74FF07E58EDE73B4B1A68069B93F8B4
:103820003C30632B14D8394B0C92E158384B186854
:1038300011F0E4FE4FF07E51824612F087F80C9AA8
:1038400008B94FF07E5A1046514611F0D7FE024695
:103850001146304611F0D2FE494611F0C5FD2D4EFD
:103860008246A15911F0C0FD2B4B196811F07AFF67
:1038700081462A4B44F806A0E1580A9811F0BEFE92
:10388000494611F0BBFE264B06461B780B2B04D194
:1038900012F090F8234B23F81500234A234B3146AE
:1038A0001B68A0589847224A224B01461B68A05823
:1038B000984781463946404611F098FD494611F037
:1038C00095FD1D4E3051404612F074F806F10C0A79
:1038D0004AF80400384612F06DF806F1180848F866
:1038E0000400484612F066F824363051C5E6072B2E
:1038F0007FF4EAAE0CF0BAFE0990E5E69C1F0020CA
:10390000A00B0020981F00208C1F0020100C00200E
:10391000901F0020E00C0020A01F0020801F00202E
:10392000983200209A320020B81F0020B41F0020D7
:1039300000200020FC1F0020B00C002072189342D1
:10394000C0F21182981BB5F89820A5F84C31401AA6
:10395000079211F0FFFD0746B5F86081D5F8643194
:103960000893079BDFF840A3A3EB080011F0F2FDDA
:103970000023D4F82C900D9009F10045069315AE64
:10398000B04B069A514653F8220011F037FE2946F3
:10399000834611F0D1FF002840F00B82494658467B
:1039A00011F0D4FF00B9CB46069B46F823B0013393
:1039B000032B0693E4D1A44B1B6843B394F8312046
:1039C0002AB30B9A940722D5A04A1478FCB1D87870
:1039D00011F0BCFD0546204611F0BCFD014628460D
:1039E00011F00CFE9A4B0446188811F0AFFD014609
:1039F000204611F0B7FE9749044611F0A7FF00B921
:103A0000944C4FF07E51204611F0AAFF08B94FF0B8
:103A10007E544FF0000A0026D1468F4B8F4D1B7805
:103A200005F5B8750A93169B0DF1600B0E93159B67
:103A30000F93179B109355F8043C11930A9B9E42D9
:103A4000C0F2B9815146484611F0CEFC834B4FF08D
:103A50007E51C3F80001044611F08CFF002800F0ED
:103A6000F98121464FF07E5011F07CFE002406467D
:103A700018AD0A9BA34200F3E4814FF07C56002569
:103A8000774BDFF8EC91DB780E93764BB3F800A020
:103A9000754B0FFA8AFB1C78744B04F00404B3F9DD
:103AA00006706E4BD3F8502103F5B8730F930B9B40
:103AB000089203F010030B930A9B9D42C0F0F7811C
:103AC0002CB96B4B6B4A0A99A14200F22782634CD6
:103AD000D4F83032002B00F05D8394F83532192B86
:103AE00000F2938001229A40634B1340002B00F0B8
:103AF0008C80624B1B88D80540F11682604B1A8877
:103B0000ADF860205A889B88ADF86220ADF864302B
:103B10004FF47A724FF461615A48B0F9023003F5FC
:103B2000E163534393FBF1F3A3F5FA73ADF87830F7
:103B3000B0F9003003F5E1635A4392FBF1F24C4BCC
:103B4000A2F5FA721B88ADF87A20A3F2DC53474A3B
:103B5000ADF86630D4F850311188DB8AC91AADF857
:103B600068105188C91AADF86A109188C91AADF861
:103B70006C10D188C91AADF86E101189C91AADF848
:103B800070105189C91AADF872109189D289C91A79
:103B9000D31AADF876300023ADF8741019463A4ABE
:103BA00022F813100133082BFAD16427374B384A17
:103BB0001B68384C0793384BDFF8CC901B68089390
:103BC000364B1B78C3EBC30313440B930B9B9342FD
:103BD00040F0D88100254FF00E0964272E4B304E5F
:103BE000D3F8008009FB0583B6F9024093F906007B
:103BF000444394FBF7F4E8B2748004F029FC0135E7
:103C00002044082D26F8020FECD1264D224E2B68B9
:103C100013F0200F69D0002004F01AFC1A4C07465C
:103C20002080012004F014FC184B60801B681906EA
:103C30005BD50A4B1349D3F858321B78012B40F05F
:103C4000128233E0B00C0020B41E0020B01E002011
:103C5000BC1E0020713DAA3F78220020A00B00204E
:103C6000BC26002042310020E42200208C260020C7
:103C700080220020FA2F00203241300358380020E3
:103C800078100020E6220020A4050020D01E00208D
:103C9000EF1E0020D60D0020641F0020EE1E002025
:103CA000A2050020282500206F12833A326892F97D
:103CB000063092F91420C3F1000EB1F90230B1F9C7
:103CC000001003FB0EF34FF0320E51436FF0310240
:103CD00093FBFEF391FBF2F291FBFEF19BB21A44CF
:103CE000BA1A22800B44184460803368A24A03F158
:103CF0007004B2F90200B3F90010B3F902708842FF
:103D000003DB87423946A8BF01460E339C4222F8A6
:103D1000021FEED1994CD4F85C3293F90430002B99
:103D200040F0B68194F83532013B182B00F2048242
:103D3000DFE813F0F601020202025502020202025B
:103D400002024A02020202020202020202025C02B1
:103D50000202020202020202020255026902020289
:103D600002025C02F601B5F84C31984205DBB5F869
:103D70005831B5F89A800793D0E4B5F89830B5F883
:103D800060810793D5F8643100270893E9E5B3F91A
:103D90000600D5F850311B8BC01A11F0DBFBD5F8AB
:103DA000683107460893B5F89830B5F89A800793BC
:103DB000D7E5AB46F8E5119B93F90100404211F0BD
:103DC000C9FB109911F01AFCE96811F017FCA968F9
:103DD00013900E9811F012FC696812900F9811F070
:103DE0000DFC129A0146104611F000FB139B014690
:103DF000184611F0FBFA4FF07E511290204611F058
:103E0000B9FD129BB0B94BF826305BF82630494615
:103E10001846129311F0AEFD129B38B91946504660
:103E200011F094FD08B9129B9A464B4601361035A5
:103E3000994603E62146184611F0E0FB4BF82600B0
:103E4000E3E755F82400314611F0D8FB45F824008B
:103E500001340EE60899384611F084FC4FF07E518B
:103E6000054611F073FD08B94FF07E550021284634
:103E700011F076FD00B900254FF07C51204611F07D
:103E8000BDFB06460146284611F056FD00287FF48A
:103E9000F6AD31464FF07E5011F0A6FA294606469F
:103EA00011F054FD00287FF4EAAD2E46E7E50F9AA5
:103EB0002B019958304611F0A1FB18AB53F825108F
:103EC00011F094FA0D9911F099FB14F0EBFA0E9A97
:103ED000404400B26B0029F81500DAB1504504DB0C
:103EE000079A9042A8BF104600E050460B9A29F866
:103EF00003006AB164B10C9A52B910930DF0CEF977
:103F000030B9089B1A8B9742BCBF109B23F809B0AD
:103F10000135D1E58045E3DD4046E7E732F814108E
:103F200023F814100134CEE51549D4F8100111F02E
:103F300065FB11F03FFD1249ADF86000D4F81401A3
:103F400011F05CFB11F036FD0D49ADF86200D4F8BC
:103F5000180111F053FB11F02DFD0C9B00B2ADF8D0
:103F60006400002B3FF4D4AD089BDB8A9F42BCBFAA
:103F70004042ADF86400CBE5A2050020A00B002074
:103F80003333333F937933B10121153301FA03F30E
:103F900007990B4065D00E21089B92F800E092F93A
:103FA00004B001FB0E3CBCF90230BCF9001056789D
:103FB0005B1A9BB203FB0BFB9BFBF7FB92F9051013
:103FC0004FEA530A0A91D178ABEB0A0B0FFA8BFB3D
:103FD000750051BB24A90D4435F8301C2180012007
:103FE000DCF80A1000FA06F63142B4F9005092F9F2
:103FF000021018BF4FF0FF30694391FBF7F15945AC
:104000000ADB0A9D6B4393FBF7F3A3EB0A0B0FFA52
:104010008BFB8B45A8BF8B4639F81E3000FB0B3B52
:1040200029F81EB002340732D0E50DF1900845445E
:10403000B4F9000035F9305CA84208DA014488423E
:1040400003DC8D422846A8BF08462080C7E7C6DDAE
:10405000411AA94203DB8842A8BF084605462580CD
:10406000BDE72380DEE73368B1F9022093F906E06B
:1040700002FB0EF24FF0320E92FBFEF23A44228027
:1040800093F91420B1F90030534393FBFEF32AE671
:104090000023DFF8D881A4F8603204F51977B4F969
:1040A0006092B9F1070F3FF73DAE94F862327BB9E9
:1040B000D4F85C32588811F049FA01461C206A4B4A
:1040C00000FB09701A680FF017FC012384F86232B4
:1040D000B4F9609238F9190011F03CFA01461C203D
:1040E00000FB09700FF026F814F0DCF90E22B4F989
:1040F0006032316828F8190002FB031238F9130006
:10410000B2F90010B2F90220884203DB8242A8BF54
:104110000246114628F813100133A4F86032BEE7B6
:10412000D4F85C321B78002B48D0504B59890020C2
:1041300009F018FB012305932B689A0603D494F821
:104140003532052B0ED1494E0598318809F00AFB0E
:10415000059B7188581CC0B209F004FB059B023313
:10416000DBB205932B68DB0214D5D4F8443300246A
:104170001D783F4EE0B22B18DBB2112B0AD8059AFE
:104180002B19104436F81310C0B2013409F0EAFAC2
:104190000E2CEFD1374C94F834220AB104F0ECFA2B
:1041A000354B1B78072B05D10CF060FA099BC01A20
:1041B000324BD88001232370FEF700BC304B1978B6
:1041C00011F00401B1D1B2E7284E0020F18809F0C6
:1041D000C9FA3189012009F0C5FA0223ABE7234E61
:1041E0000020318909F0BEFA7189F3E702261F4FDA
:1041F000B01E37F81610C0B2013609F0B3FA082E17
:10420000F6D1062397E7194E069BD81E36F81310F1
:10421000C0B209F0A7FA069B0133072B0693F3D12E
:10422000042388E713F032FF00283EF455AB4FF427
:104230008053A6F8A2300A23FEF73FBB022A4FF4B0
:10424000FA737DF4E3AE9845ACBF0023A3EB0803FB
:10425000634387428B80BDF6E3AE31F80E305B429C
:1042600021F80E30FDF7D9BEF81F0020A40500206C
:104270008C260020A00B0020983200209A320020CB
:10428000E42200202DE9F04FAC4B00F59C4808F1EA
:104290002008C3F80080AA4B87B01D780746002D80
:1042A0006ED0A84A1268904201D9013D1D70A64BFC
:1042B0001A689B4612F4805F05D0A44B1B68D9078F
:1042C00001D408F093F8A24B1C68E07C002800F0B1
:1042D0008081A04A637D013832F910001BB1C0F51E
:1042E0003B60083000B2A0F57A70B0F57A7FA8BFC5
:1042F0004FF47A7020EAE07011F02CF9964911F031
:104300007DF911F07DFB954B1880DBF80030DFF86C
:1043100080A213F4807F00F0D981914BDFF8609286
:104320009F4205D999F8022012B9012289F802208A
:1043300099F80220002A00F0C981844999F8215097
:1043400008689AF8002000F08063012D02F004084C
:104350000093019100F0758112F0080F0CBF002747
:104360000227804C804E99F82020052A00F2AA816D
:10437000DFE812F06901CF01DA01FD010D02290227
:1043800006F084FB8146794C714EDFF8F8A1A9450F
:1043900046DC42F201024FF47A796B4BB7FBF9F934
:1043A0001B6813400193724B06D0724A12781A7040
:1043B000714A1178714A11701B78009323B16F4BC9
:1043C0001E7886F0010300930F230025DFF8C4B1A7
:1043D000DFF880A184F8243006F058FB85424DDBDD
:1043E00094F824305F4A0F2B0CBF0123002384F87C
:1043F000D230634B40F0D08054490968480100F145
:10440000CB801268D9689A60521AC82A02D9012250
:1044100083F8212094F8B830013384F8B83046E7A7
:10442000072DD8BF3368E9B25648D8BF595DDAF8CE
:1044300004309847032D1DDC326805F1130302EBAD
:10444000830E32F82310BEF8022098B1431A4FF4BD
:104450007A705843531A90FBF3F040F2EE2300F5C4
:104460007A709842B8BF184640F6CA039842A8BF6F
:10447000184680B224F81500013588E7009A6B00D1
:10448000DAB134F91500324A80B21268918C814257
:104490004FEA850103D8B2F826E0864520D23A4A91
:1044A000515889450BD23AF80300019AEAB92AF823
:1044B000030001350BF1060B8EE70098E3E7E8B245
:1044C000029306F0F9FA032D029BEEDC012101FABA
:1044D00005FE94F8241021EA0E0184F82410E4E784
:1044E000294E09F596727250DFE7032194F8B8C09F
:1044F00003EB050EBCFBF1F101EB4101ACEB01015B
:10450000C9B2714404EB4101C88494F8B91029B9C7
:10451000BCF1020FCBD9012184F8B910BBF800100F
:10452000BBF802000844BBF804100844174900B265
:10453000C852032190FBF1F080B2B8E75C2500205F
:10454000B4260020B026002028250020D01E002000
:10455000882600208C260020AAF1823F72120020BB
:10456000404B4C00B826002014230020EC0E002005
:104570001D250020242500202000002021000020EF
:10458000BC260020502500205C0F0020A60F002034
:10459000E4220020120F00200121964812680170C9
:1045A0009548DA60017099680025521A5968934E4F
:1045B0008A4284BF002283F8212006F067FA8542F0
:1045C000BFF628AFE8B206F077FA26F815000135F5
:1045D000F3E7DBF800301A047FF597AE884AD2F88B
:1045E000D430FB1A002BFFF690AE92F8E930C2F8F7
:1045F000D48002EB4303B3F8EC10237D89B291FB26
:10460000F3F192F8F430013303F00F0382F8F43041
:10461000134483F8F5100346F532995C01330844DE
:10462000102B00B2F9D190FBF3F000B2002806DBAA
:104630006428A8BF642010F08DFF72495FE6002057
:10464000F9E700278DE6B8F1000F32D06C4AB2F8D6
:104650000611D2F808010CF0E9FD012807D1642009
:1046600032682168D28800FB0212C9F81020009B32
:1046700063B1326812794AB104F058FD032289F817
:1046800020204FF47A72C9F81C206CE6012D19D055
:104690002268D9F81010914207D204F047FD032296
:1046A00089F8202040F6B832EDE7012289F8202071
:1046B00059E6009B4FF4806043B30CF083FD002269
:1046C000C9F8102017B1384603F0E8FD4E4D4C4CA8
:1046D000B5F8EE1005F515700CF0A8FD06460CF0C7
:1046E000DDFD002800F096809AF800305F0740F169
:1046F0009180464BB3F90620B5F876329A42C0F263
:104700008E81012384F80C31012397E00CF04AFDDF
:10471000D5E7012D01D10522C8E73268127A012AB6
:10472000BBD004F003FD1EE6012D04BF052289F86D
:104730002020B8F1000F0CD00327314AD2F808210D
:10474000B2F916102D4A1180518091803168498844
:10475000D1802268D9F81410914202D3B8F1000F29
:1047600043D147F23052C9F81C2003229EE79AF841
:10477000002042F002028AF8002007F037FE21688C
:10478000D9F81C200A44C9F8182004228EE7012D0C
:1047900012D12268D9F81810914293D21C4B1A7882
:1047A0001AB9019B1A68D3078CD49AF8002022F01A
:1047B00002028AF80020AEE72168D9F81C200A44DA
:1047C000C9F818207EE7642032682168D28800FB8F
:1047D0000212C9F8102000224FF4806089F82020CE
:1047E00089F803200CF0DEFCBDE5012D3FF4BBADE4
:1047F00068E700BF20000020210000208C26002058
:10480000EC0E002014AE2341243B00207810002041
:1048100008000020002384F80C31002E7FF474AFD0
:104820000023C4F81031C4F81431C4F81831B54B62
:104830001B6893F83230002B7FF466AF84F81C318C
:104840009AF80030580725D5DBF80030D90621D575
:10485000AD4A1278D2061DD4DF041BD40CF01EFD25
:10486000C0B9AA4B1B78002B00F0F48095F8B23247
:10487000002E40F0DD80002B00F0EE80A44B1A6883
:10488000D4F820319B1A002B80F2E68007F0AEFDB1
:1048900084F824610022134695F8B112B5F86CE251
:1048A000B5F86EC29B4830F912709B087745C4BFBB
:1048B00063F07F03DBB201326745B8BF43F04003CA
:1048C000042AF0D194F825219A4240F0CC8094F843
:1048D0002621F92A02D8013284F826218B4A84F84D
:1048E000253113788C4F904663B93A68D00740F170
:1048F000BC8084F827312EB99AF80030D90701D549
:1049000007F010FD94F82631142B21D198F80030CF
:104910005BB194F825315F2B07D19AF8003013F082
:10492000040600F0C28007F061FD9AF8003013F031
:1049300004020DD194F82531572B40F0BC8003F0D0
:1049400052F9764B1B685B0702D50A22744B1A801A
:10495000DBF80030580726D594F82A319BB19AF835
:10496000003059070FD56B4BB3F90620B5F86C3200
:104970009A4208DD3B6813F0010302BF322284F83B
:104980002A31A4F82E213B68DA0340F1128194F811
:1049900030312BB994F8283113B93223A4F82E31D1
:1049A000012384F8303100234FF001095D4E3B6054
:1049B00006F15008314616F8010C0CF011FC30B12C
:1049C00016F8023C3A6809FA03F313433B600436D5
:1049D0004645EFD1544B1F78002F00F0FA804E4E21
:1049E000DFF838813368514F13F0020F09D1DBF83B
:1049F0000030D80540F1CD824D4BDB78002B00F024
:104A0000C882D8F80030990740F1C3823B8813F080
:104A1000010902D101200CF0D5FB0023BDE2002EDC
:104A20007FF472AE94F80C31002B7FF46DAEF7E694
:104A30003BB14FF47A71364A126801FB0323C4F884
:104A4000203194F82431002B3FF424AF03F012FC02
:104A5000002305E0002EF4D1102003F01FFC0123F9
:104A600084F8243116E7002236E79AF800305A0716
:104A70007FF548AF2F4B1B78002B3FF443AF2C4BF7
:104A8000DB78002B7FF43EAF94F827310133DBB2A3
:104A9000032B84F827317FF635AF11B107F0A6FC60
:104AA00030E7002E7FF42EAFF8E70B2003F0F6FB83
:104AB00084F8266139E7DBF800104E0717D55A2B2A
:104AC00015D194F828312BB1012384F8282184F8DA
:104AD00029313DE794F82A3183F0010384F82A3123
:104AE0001BB10C2003F0DAFB32E70D20FAE75D2B57
:104AF00000F03B835B2B00F03F835E2B40F03E8356
:104B0000032033E34C310020F02200200800002075
:104B1000B82600208C260020D01E0020E4120020A1
:104B200040420020474000204031002058380020FB
:104B3000BC2600201D25002094F82531972B04D198
:104B40004FF4C873A4F82C3102E7A72B05D1BC4A57
:104B5000137843F004031370FAE60022BB2B05928E
:104B600016D10223ADF81630B5F82032BDF8142066
:104B70001344A5F82032BDF81620B5F822321344AC
:104B8000A5F8223207F0ACFC002384F82631DFE6DA
:104B9000B72B02D14FF6FE73E4E7BE2B03D10223FD
:104BA000ADF81430E0E7BD2B7FF4D2AE4FF6FE73C4
:104BB000F6E794F82831002B3FF4F5AE9AF8003070
:104BC00013F0040302BF84F82831012384F829314B
:104BD000E9E64FF00C099B4E06F15A08314616F8EB
:104BE000010C0CF0FDFAE8B13179B37809FB014012
:104BF000954A013B03EB43031344D0F8382196F860
:104C000003E093420ED0C0F83831012303FA01F1DA
:104C100094F8643180F834E123EA0101C0F83C7172
:104C200084F864110636B045D8D1884BDFF82C9251
:104C30001E68874B1B680193864B1B7802930023E9
:104C40000093D9F80420002A6BD01778002F68D081
:104C5000D9F808300199CB1A002B0DDB01F5FA7356
:104C60000121C9F80830009B01FA03F394F864119C
:104C700021EA030384F86431029B002B51D099F898
:104C8000003051780433DBB2002940F05181724981
:104C900031F91310B5F86A3203F1C80081422ADDF8
:104CA00092F80280009B94F864211A41D30738D40B
:104CB000B8F1000FCCBF0220012003F087FB7A1E61
:104CC000162A41D8DFE812F035004E00580068007F
:104CD0007F008600A100CC00E800F4000001400045
:104CE000680075008600A100CC009500B000DC00D3
:104CF0000C0118012601C83B994203DA9178C1F1F1
:104D00000008CFE70122009B02FA03F394F8642124
:104D100022EA030384F86431019B03F5FA73C9F8AE
:104D20000830009B09F10C090133042B009388D152
:104D300055E6317801204144FA29A8BFFA2121EA39
:104D4000E17131700CF096FAD4F8680103F09AFB27
:104D50000122009B02FA03F394F86421134384F8C0
:104D60006431DEE7B178022041446429A8BF6421A0
:104D700021EAE171B170E5E731798844B8F1640F57
:104D8000A8BF4FF0640828EAE87886F804800FF09E
:104D90004BFE41460320D5E7B1790D2041446429FB
:104DA000A8BF642121EAE171B1710CF063FA0D2F03
:104DB000CAD071790E2041446429A8BF642121EA38
:104DC000E1717171BEE7F1790520414481F3080179
:104DD000F171B7E7D4F868210F2051784144C82910
:104DE000A8BFC82121EAE17151700CF043FA0F2FDE
:104DF000AAD0D4F86821122011784144C829A8BF4C
:104E0000C82121EAE17111709CE7D4F868211020D3
:104E1000D17A4144C829A8BFC82121EAE171D172E1
:104E20000CF028FA102F8FD0D4F868211320917A33
:104E30004144C829A8BFC82121EAE171917281E7E4
:104E4000F022002096400020C8AF01086012002028
:104E5000B82600201D2500208C26002020100020D0
:104E6000D4F868211120517D4144C829A8BFC82128
:104E700021EAE17151750CF0FDF9112F3FF464AF97
:104E8000D4F868211420117D4144C829A8BFC82145
:104E900021EAE171117555E7D4F86821092091786C
:104EA0004144C829A8BFC82121EAE171917049E7AE
:104EB000D4F868210A20117B4144C829A8BFC82121
:104EC00021EAE17111733DE7D4F868210B20917D4F
:104ED0004144C829A8BFC82121EAE171917531E791
:104EE000717815204144B1F5967FA8BF4FF49671B3
:104EF00021EAE171717025E7D4F86821162092F853
:104F00003D104144FE29A8BFFE2121EAE17182F84B
:104F10003D1017E7D4F86821172092F83C1041445F
:104F20006429A8BF642121EAE17182F83C1009E7F5
:104F300001297FF40DAF0C2F7FF40AAF98494FF48D
:104F4000966031F9133040F633018B42A8BF0B460F
:104F50009278B3F5617FB8BF4FF4617390FBF2F0C4
:104F6000A3F5617393FBF0F38E4ADBB212789A4299
:104F70003FF4EEAE1846039307F080FA039B3846E1
:104F800019460CF077F9039B581CC0B203F01EFAC7
:104F9000DEE601200CF006F90123326852076BD5DA
:104FA000002B69D001200CF0FDF83B88980702D453
:104FB00002200CF007F93988012011F0030118BF15
:104FC000012108F00DFED8F8003013F00A0F1CD0B4
:104FD0003368D90654D53B885A0702D404200CF014
:104FE000F1F833689B064FD53B88580602D4402021
:104FF0000CF0E8F83368590607D50A226A4BB3F972
:10500000043093FBF2F3A4F86C3133684FF48070F2
:105010001A053DD50CF0D6F895F8B332082B01D01F
:105020000E2B02D140200CF0BDF8DBF800305B0500
:105030000BD595F8FC3273BB9AF8003013F0040FCF
:1050400033D03C200FF0DEF948BB01219AF8003044
:1050500084F86E1158072DD5002008F0C1FDD8F84E
:1050600000305A077ED533681B0768D4082007B084
:10507000BDE8F04F0CF096B802200CF093F89AE7D8
:1050800004200CF08FF8ACE740200CF08BF8B1E76F
:105090000CF088F8C0E7336813F4002FD0E705F070
:1050A0005DFD3C200FF07BF9CEE704F0C9FC0EF06B
:1050B000C7FCCAE73268D20702D594F86F211AB14B
:1050C00043F001038AF80030384B394A1B781D073A
:1050D0005EBF9AF8003023F001038AF80030D8F858
:1050E000003013F0040F02D03249098871B9B4F8C6
:1050F0002C1109B1980709D42F4B1B88003318BF16
:1051000001231BB92D490988642911D90223137081
:105110009AF8003023F001038AF800300BF0A6FA69
:10512000274B1B68C01A002899DB0EF0C3FC96E7DA
:105130009AF80010C90758BF02231370EEE73D88A4
:1051400015F008050ED108200CF03CF81D4B1A682C
:105150001D4B1A60124BDB88A4F870311B4B1D608D
:105160001B4B1D6007B0BDE8F08F01200138C0B2B5
:1051700007F0A2F9FFF7ECBB0220F7E7562B01D1AD
:1051800007F0AEF998F80030002B3FF4D5AC94F856
:1051900025316F2B7FF4D0AC07F0C4F8FFF7D8BBF4
:1051A0008C260020F82F0020E6220020F02200208C
:1051B000E53A002040420020161A00205C2300201F
:1051C000E83A00205C420020644200207442002043
:1051D000784200202DE9F04F85B0804604F030FC85
:1051E000CD4B1E78002E40F05D84CC4D2B685905C8
:1051F00040F15884CA4CCB4F637A002B00F05381A6
:105200003A68E368D31A7C2B40F24D814FF02409B1
:10521000C54BDFF844A3B3F8EE30E2600093237C83
:10522000AAF12C0B01332374484604F0EFFB5AF823
:10523000040F10F08FF90190BBF8080010F08AF904
:10524000019A0146104610F08DFAB84910F0D6F9CF
:1052500010F0B0FB09F1010900B25FFA89F904F01E
:10526000C3FBB9F1270FDFD1302004F0CFFBB4F935
:10527000140004F0B9FB04F0C1FB237C9A0735D17C
:1052800041F28833E2689A421DD94FF06409DFF891
:10529000A4B2102004F0BAFBDBF8180090FBF9F080
:1052A00000B204F0A1FB212004F0B0FBDBF81830C1
:1052B00093FBF9F009FB103383EAE370A0EBE37092
:1052C00000B204F091FB142004F0A0FB984BB3F95A
:1052D00004000A2390FBF3F004F086FB1C2004F08A
:1052E00095FB002004F080FB04F088FB237C5B0727
:1052F00040F0B180022004F089FB8E4BD869642312
:10530000323090FBF3F000B204F06EFB032004F0A7
:105310007DFB894B1B78580740F15F8100998748D6
:105320000BF084FF0522B4F91E3093FBF2F39BB21D
:1053300020B92A6812F0100F18BF002318B204F029
:1053400053FB2B687E4A1A4253D0DFF810B29BF809
:105350000020002A4DD04FF06409DFF8F4A10620A8
:10536000BAF8003009FB03235200B3FBF2F3B4F8A0
:1053700020904FEA09191FFA89F949EA03291FFA0F
:1053800089F9C3F3032349EA030904F03FFB0FFA49
:1053900089F004F029FB238C9BF8002001339BB299
:1053A00093FBF2F102FB1133616A23848B7B012BA7
:1053B00040F01B81392004F029FBBAF9000004F009
:1053C00013FB282004F022FB0A23A06A90FBF3F0D1
:1053D00000B204F009FB042004F018FB594B1B68D1
:1053E000DB89002B00F0278102F0FCFD00B204F005
:1053F000FBFA02A9544804F0CDFA132004F006FB8E
:10540000BDF9080004F0F0FA1B2004F0FFFABDF922
:105410000A0004F0E9FA232004F0F8FA4E2004F020
:10542000E3FA02A9484804F0B5FA122004F0EEFAB3
:10543000BDF9080004F0D8FA1A2004F0E7FABDF923
:105440000A0004F0D1FA222004F0E0FA452004F02A
:10545000CBFA04F0D3FA237C282B24D10023172085
:10546000D7F80090237404F0D1FA4EF660204FF084
:105470003C0AB9FBF0F3B3FBFAF00AFB1030000270
:1054800000B204F0B1FA182004F0C0FA4FF47A70B8
:10549000B9FBF0F9B9FBFAF00AFB109000B204F086
:1054A000A3FA04F0ABFA94F82C30002B7CD0236BD9
:1054B000264AA8EB0303934262D9002384F83630CE
:1054C00084F83830224B1B88DAB21B0A84F8522049
:1054D00084F8533084F8482084F849303A68236EC1
:1054E000D21A636E197C4FF47A734B439A420DD3F0
:1054F0003B68236605F0F0F90138C0B201289FBF70
:10550000102384F83630022384F838300A21114BF6
:10551000A26A1B6824E000BF40310020282500203B
:1055200060100020B8260020243B002000007A44B0
:10553000E6220020C4130020E4220020783D002051
:1055400002000008B41E0020809698003F0D030062
:10555000BC1E0020B81E002014130020B01E002026
:1055600092FBF1F293FBF1F384F8502084F854306D
:1055700012121B1284F8512084F85530C4F8308080
:1055800094F868A0BAF1000F00F05C84606F58B125
:1055900094F86830002B7AD040F6B732E36FA8EB6E
:1055A0000303934200F28B8094F88630D7F8009082
:1055B000002B00F0DB81D4F88830002B00F0D6817E
:1055C00094F88C30013B012B00F2D081DFF820836E
:1055D0004FF0010B4FF0000AB7E0C04B1B68D889B1
:1055E0000523B0FBF3F000B2A9E66E23BAF8000081
:1055F000C97B4343152093FBF0F311B19BB293FB9E
:10560000F2F34FF0640B1FFA83F93A2004F0FEF92D
:10561000B9FBFBFA0FFA8AF004F0E6F93B2004F03C
:10562000F5F90BFB1A904FF00A0980B2053090FB98
:10563000F9F000B2C3E6AA4B186880F31000D5E673
:1056400099F8003023B1C4F86C8089F800A09DE778
:10565000E36EA8EB0303B3F57A6F97D30123206FB2
:1056600089F8003008F00AF88146206F08F006F843
:1056700019F07F0F8AD18E2888D194F86830002BDA
:1056800084D1984B63672D2384F878307EE701231B
:1056900084F86830D4F880309B78022B0AD8206FC9
:1056A0000221043004F052F9002384F88430C4F855
:1056B0007C8079E70221206F07F0DAFFF4E794F8A5
:1056C0007830A3B9636784F86830D4F880309B7869
:1056D000022B07D8206F0121043004F037F904F0C1
:1056E0004BF9E4E70121206F07F0C2FFF7E7013B28
:1056F000DBB284F8783094F8841094F885204BB9A4
:105700004B1C013284F8843084F88520206F07F028
:10571000BEFFCCE7034613F801EB01320EEB0100AC
:1057200084F88400636784F885207146EEE7D4F836
:10573000880007F0A3FF83B27E2B3A6822D184F859
:105740008DA084F88EA088F801A0D4F8880007F016
:105750009BFF01460028EAD194F89330002B00F01B
:105760009180637884F89300302B40F08B80A3788D
:105770004FEA531EBEF1010F4AD084F8940004F0A2
:105780009DF87FE098F80120002ADED194F88D1072
:1057900089B91B2B07D1D4F8880007F075FF40BBEF
:1057A00084F88EB0D1E70D2B23D184F88DB023700F
:1057B000A4F89010C9E77D2B02D184F892B0C4E719
:1057C00094F892E0BEF1000F04D080F02000C3B244
:1057D00084F892204A1CD2B2092A84F88D2063549E
:1057E0000AD1B4F89020C2F1FF02934201D184F8AB
:1057F00093B088F801B0A8E7082AA6D8B4F89000BA
:10580000034403EB132303F0FF03A4F890309CE759
:1058100003F00F0013F0100328D0334B94F803C0AB
:105820002279A4F8A210A4F8A02003EB0C0182EACC
:105830000C02C4F89830C4F89C1084F8E42084F872
:1058400094E09F3B4FF0000894F8E410DFF8A4C008
:10585000D4F898E0D4F89C2072451FD1B8F1000F1D
:105860002AD163452DD184F8E5000BE094F894200B
:1058700042B194F8E520013202F00F0282421ED0BC
:1058800084F894304FF00008DFF86CA094F88EE0B4
:1058900094F8F4B194F8F53100228DE113F8012B5E
:1058A0000EF101086345C4F8988081EA02018EF880
:1058B00000204FF00108CBD384F8E410D1E70B4B64
:1058C000C0E71A7894F8E4309A424FF0000284F866
:1058D000942013D0B4F9A010012050E7B41E00208A
:1058E000B81E002094100020041100206310002036
:1058F00009000020681000200EB00108B348D4F859
:10590000983000F15008C4F89C30C4F8980000F5B5
:10591000A87300F144010C38C4F8EC30C4F8E880F6
:10592000A4F8F020A4F8F220FAF7F2FB0130434685
:1059300006D1D4F8E820511CC4F8E81002211170F7
:10594000D4F8E820C4F8E8300123C4F8EC2084F847
:10595000F43197E73968A1EB0901012940F2A580EC
:105960000AB184F8F531002384F88E3094F80432BB
:10597000002B00F09780D4F80832002B00F09280C2
:105980003D68D4F80C32EB1A632B40F28B800A2767
:10599000DFF85482412003F078FFB8F9020090FB51
:1059A000F7F080B203F068FFB8F9000090FBF7F061
:1059B00080B203F061FFB8F9040090FBF7F080B209
:1059C00003F05AFF03F03AFF94F81032D80745D499
:1059D0007F4B1B88D90513D4DA0600F129829F0674
:1059E00000F12882580600F12782190700F126826B
:1059F000DA0700F1258213F0020F0CBF01260326FF
:105A0000744B1F78744BC7F38007DB780BB147F0FA
:105A10000207532003F039FF704B188800EB800019
:105A200000EB8000800080B203F026FF002003F02E
:105A300023FFFE20B4F81232584340F2FF3390FBAC
:105A4000F3F0C0B203F006FF002003F003FF47EAC3
:105A50008600C0B203F0FEFE03F0F0FE94F81032B0
:105A60009BB94F2003F011FF00F0EEFE00F0ECFEBA
:105A700000F0EAFE012003F0EDFE594B187800F02B
:105A8000010003F0E7FE03F0D9FE0A2194F810327A
:105A9000C4F80C520133DBB2B3FBF1F201FB123359
:105AA00084F8103205B0BDE8F08FBBF1000F67D06D
:105AB0000AB184F8F531D4F8E8304A4A934294F8B0
:105AC000F6313BD1591C84F8F611B4F9F21003F009
:105AD0000F0343F010030029B8BF43F020038DF8F3
