:020000040800F2
:100000000050002091A401082DA50108B55D01084C
:100010002DA501082DA501082DA50108000000004F
:100020000000000000000000000000002DA50108F5
:100030002DA50108000000002DA50108BD22010822
:100040002DA501082DA501082DA501082DA5010844
:100050002DA501082DA50108154001081F40010824
:100060001D4001081B400108194001089D6D000852
:100070008D6D00087D6D00086D6D00085D6D0008D8
:10008000496D0008376D00082DA501082DA5010850
:100090002DA501082DA501082DA50108174001086F
:1000A0002DA50108950301082DA501088503010868
:1000B00075030108650301085503010883700008F2
:1000C00089700008797000087F7000082DA501086C
:1000D0002DA50108FD6A0008F56A00082DA5010894
:1000E000134001082DA501082DA5010800000000FE
:1000F0000000000000000000000000000000000000
:0C01000000000000000000005FF808F1A3
:100110002DE9F04FB0F908300546D8B2522885B025
:100120000C4617460B8100F0298700F22D813428F8
:1001300000F0018500F2B680242800F07B8573D89A
:10014000042800F0F58249D8022800F0D78200F296
:10015000E182012800F0C382F52895E8480041F0CB
:100160006F809E420FBFFF23591C296013F8021BAA
:10017000AE4A16BF2B6082F8313082F8311092F807
:100180003130FF2B4FF0000341F05480A84A18464D
:100190009046995801B108801433F02BF9D100260C
:1001A0004FF01409A34BA44D31463022A3481E70D2
:1001B0002E7018F09FFC8DF80F60A04E9DF80F3048
:1001C0000B2B41F2108023682A78591C21601A7089
:1001D000002F00F09D829A4B3B6099E20A2800F0C4
:1001E000E582222800F082840528B5D10023954DB0
:1001F0002268595D0133501C0B2B20601170F7D120
:100200000023914D2268595D0133501C082B20605A
:100210001170F7D10023194622680133501C072BB7
:1002200020601170F8D173E22C2800F0488518D8AE
:10023000282800F025852A2800F0398526288BD12A
:10024000824D2046B5F8E41109F07EF9B5F8E811C1
:10025000204609F079F9B5F8EC11204609F074F957
:1002600056E2302800F0EE85322800F0AB852E28CB
:100270007FF472AF754D05F14006B5F89413204632
:1002800009F062F9236895F89623591C21601A70C9
:10029000236895F897230435591CAE4221601A70E3
:1002A000EBD135E2442800F0978735D83B2800F0A1
:1002B00013841AD8382800F0C3843A2800F09983B0
:1002C00036287FF449AF614D614F05F120060023C8
:1002D00095F9C222D957914201F0EE850C33302BAB
:1002E000F8D10835AE42F2D112E2402800F0728512
:1002F000422800F07C853D287FF42EAF534B2268C6
:1003000093F8B212501C2060117093F8B122236848
:10031000591C21601A70FBE14B2800F01F850ED894
:10032000462800F0E385C0F0308649287FF414AFFA
:10033000484B2046B3F8481009F006F9E8E14F2889
:1003400000F00586502800F0EC854D287FF404AFBE
:100350000026414D414F3B7802359E4280F2D881C4
:10036000236815F8022C591C21601A7015F8011C1D
:10037000204601EB810101EB810101F2EE2189B2FE
:1003800009F0E2F80136E6E7702800F08B8300F20E
:10039000AA80662800F056822ED85E2800F0C28619
:1003A0000ED85A2800F046865C2800F0898654282A
:1003B0007FF4D2AE0B685A1C0A6000221A70A7E1C3
:1003C000642800F0DD8100F2018260287FF4C4AE71
:1003D0001E4B226893F81912501C2060117022687D
:1003E00093F82412501C2060117093F80F22236898
:1003F000591C21601A708BE16C2800F0DC8231D826
:10040000682800F0C582C0F04B8269287FF4A4AE52
:100410000025124E124F33789D4280F2798137F8D1
:100420001510204609F090F80135F4E7400400204B
:10043000BC2A0020EA240020E9240020543D0020AA
:1004400055D1000862CC01086ECC0108802D002037
:100450004033002058180020FC2F00201C210020D1
:100460000C2200206E2800F0C98240F2B782B84DFD
:100470002B681A780B68591C21601A702B689A78BF
:100480002368591C21601A7000232A681A44517984
:1004900022680133501C032B20601170F5D12B68AA
:1004A00020461A7A2368591C21601A702B68DA7862
:1004B0002368591C21601A702B681A792368591C0B
:1004C00021601A702B68598909F03EF82B685A7A16
:1004D0002368591C21601A702B685A782368591CAC
:1004E00021601A7014E17D2800F0758500F28A8081
:1004F000752800F0EB8060D8732800F0778300F255
:10050000458372287FF428AE924D2046B5F86A12D2
:1005100009F01AF8B5F8CC10204609F015F8B5F82E
:10052000CE10204609F010F8B5F8D010204609F09A
:100530000BF8B5F8B812204609F006F82268531CEB
:100540002360002313702268511C216013702268FD
:10055000511C21601370226895F84512501C2060D0
:100560001170226895F86712501C20601170226883
:100570002046511C216013700A23B5F90C1291FB1F
:10058000F3F189B208F0E0FF236895F83822591C8E
:1005900021601A70236895F83C22591C21601A705A
:1005A000236895F83B22591C21601A70236895F83E
:1005B0003D22591C21601A70AAE0782800F07E8143
:1005C0007C2800F0F68477287FF4C6AD00214FF038
:1005D0000C0C614D614805F1120700F1300E95F8E1
:1005E0003030994280F294800022CE5D0CFB02F301
:1005F00013F80E80B04501F0568401321F2AF5D160
:100600000131ECE7A02800F005834AD87F2800F0EC
:100610002584C0F0FA8496287FF49EAD504B204686
:10062000B3F8581008F090FF4E4B2046198889B255
:1006300008F08AFF4C4B20461968C1F3C003C1F390
:1006400080029B0043EA4203C1F340021343C1F31B
:10065000401243EAC20301F01001194308F074FF8D
:1006600015F0F2FB0146204608F05AFF394B2046B0
:1006700093F8E8242368591C21601A703B4B1988B1
:100680006429A8BF642108F05FFF23685A1C226018
:1006900002221A70364B1A782368591C21601A708E
:1006A00036E0F12800F04381FE2800F0A882F0280F
:1006B0007FF452AD274D2046B5F8221208F044FFD2
:1006C000B5F82012204608F03FFF21E0294A12F831
:1006D000013FEBB12168481C20600B70F7E70B6805
:1006E0005A1C0A6000221A700B685A1C0A601870A3
:1006F0000B685A1C0A601F221A70F2E100231E4D7B
:100700002268595D0133501C042B20601170F7D111
:100710000120E6E10B6801205A1C0A6003221A70CE
:100720000B68591C21601870236819182160E3E7D1
:100730000023124D2268595D0133501C042B2060A8
:100740001170F7D1044B2046197808F0FDFEDFE761
:100750004C120020802D002040040020FCA601083F
:100760001C0000207C2D0020A03C002068120020EE
:10077000982A0020FBA6010858CC01085DCC01088E
:100780000B6820465A1C0A60E7221A70B24B93F895
:10079000B3220B68591C21601A70236804215A1C6B
:1007A000226000221A7008F0BBFEB1E7AB4818F0D7
:1007B00005FB0023A8499842AADD5A1892F8A055D3
:1007C00022680133561C26601570F4E7A44B2046BE
:1007D000B3F8581008F0B8FEA24B2046198889B229
:1007E00008F0B2FEA04B20461968C1F3C003C1F364
:1007F00080029B0043EA4203C1F340021343C1F36A
:10080000401243EAC20301F01001194308F09CFEB4
:1008100015F01AFB0146204608F082FE8E4B20465A
:1008200093F8E8242368591C21601A708F4B1988AB
:100830006429A8BF642108F087FE0021204608F043
:1008400083FE65E78A4E00253289B2F5007F94BFAA
:10085000012704277319196B204691FBF7F1043522
:1008600089B208F071FE0C2DF4D10025814EAB1930
:10087000B169D86C19F08AFC15F008FE043581B214
:10088000204608F061FE0C2DF1D100257A4EAB19FF
:1008900099892046043508F057FE0C2DF7D137E72B
:1008A000764B0A6803F1100153F8040B8B4242F8AF
:1008B000040BF9D123681033236029E7664D002625
:1008C0002F464FF00E08B5F87211204608F03CFE96
:1008D000B5F87411204608F037FEB5F876112046B9
:1008E00008F032FE236895F87821591C21601A70AF
:1008F000236895F87921591C21601A70236895F8AE
:100900007A21591C21601A70236895F87B21591CA3
:1009100021601A7008FB06732046D3F87C1101365B
:1009200008F0FEFD082E05F10E05CCD1F0E64A4B8D
:1009300003F17001226893F80201551C25601070C4
:10094000226893F80301551C25601070226893F803
:100950000401551C25601070226893F80501551C90
:1009600025601070226893F80601551C25601070F0
:10097000226893F80701551C25601070226893F8CF
:1009800008010733551C994225601070D2D1BFE68B
:10099000002514263A4FDFF8088106FB0573197B02
:1009A00031B92046013508F0CFFD082DF5D1AFE66D
:1009B00038F81510F5E7334D2046298808F0C4FDB6
:1009C0006988204608F0C0FD0A23B5F904102046C6
:1009D00091FBF3F189B208F0B7FD99E62A4B204666
:1009E000196808F09DFD294B2046198808F0ACFDD8
:1009F0008EE60021204608F093FD89E6244B0A6824
:100A00001B88511CFF2BA8BFFF2321601370214BB3
:100A10002046196881F3100189B208F095FD1E4B3C
:100A20002046198808F090FD0B4B93F845221B4B8C
:100A30004AB10A211B682046594381F3100189B24B
:100A400008F082FD64E61968204601F30F0189B2BF
:100A500008F07AFD5CE600BF802D002020330020E6
:100A60001C0000207C2D0020A03C002068120020EB
:100A7000A43C002058180020E83C0020420400203C
:100A8000BC2A00201E3D00203C3F002040100020DA
:100A9000581D0020541D00205E12002074100020FC
:100AA000583C00200022BF490B68985C23685D1CFD
:100AB000256018700B681344987A23685D1C2560C4
:100AC00018700B681344187D236801325D1C0A2AD4
:100AD00025601870E8D11BE601200B685A1C0A60DB
:100AE0001870608140B205B0BDE8F08F0C27AE4AA7
:100AF000AE4E02F1500192F8E934043207FB036371
:100B000093F8380023685D1C25601870236892F8FC
:100B1000E6045D1C25601870236892F8E7045D1CEC
:100B200025601870236892F8E8045D1C8A422560ED
:100B30001870E0D1ECE59C4B03F15A01226893F860
:100B40003E05551C25601070226893F83905551C28
:100B500025601070226893F83A05551C25601070C6
:100B6000226893F83B05551C25601070226893F8A5
:100B70003C05551C25601070226893F83D0506332E
:100B8000551C994225601070D8D1C1E501264FF05F
:100B90000C0B874FDFF8148207F1120908F1300AB5
:100BA000002597F830309D4204DB002E3FF4B0ADB5
:100BB0000026F5E7002215F809100BFB02F313F8E5
:100BC0000A00884201F0628101321F2AF5D1013505
:100BD000E7E7216813F801EB01F1010CC4F800C04C
:100BE00081F800E0991A8142F3DBF0E701232268E3
:100BF000511C216013700133092BF8D188E50025C1
:100C00006C4E36F815102046013508F09DFC042D79
:100C1000F7D17DE5684B2046196808F081FC674BE9
:100C20002046196808F07CFC654B2046196808F0DE
:100C300077FC6DE55C4B2046996808F071FC67E530
:100C4000594B226893F83812501C206011702268AA
:100C500093F83C12501C20601170226893F83B12EC
:100C6000501C20601170226893F83D12501C2060C7
:100C7000117093F83F222368591C21601A7047E5D0
:100C8000494D2046B5F8401208F05EFCB5F8421216
:100C9000204608F059FC236895F84422591C21602D
:100CA0001A70B5F84612204608F04EFC30E53E4B6F
:100CB00093F8B3220B68591C21601A7028E53A4D4D
:100CC0000B6895F85C22591C21601A70B5F86E12F9
:100CD000204608F039FCB5F86A12204608F034FCCA
:100CE000B5F86C12204608F02FFC236895F86522B1
:100CF000591C21601A70B5F87812204608F024FCBF
:100D0000B5F87A12204608F01FFC236895F8702287
:100D1000591C21601A70236895F87222591C2160B1
:100D20001A70B5F87612204608F00EFC236895F884
:100D30005E22591C21601A70D5F86012204608F016
:100D4000EFFB236895F86422591C21601A70236810
:100D500095F87322591C21601A70D9E4124D0B6862
:100D600095F8B622591C21601A70236895F8B722AD
:100D7000591C21601A70B5F8B812204608F0E4FB3F
:100D8000236895F8BA22591C21601A70B5F8BC1274
:100D9000204608F0D9FB236895F8BE22591C216033
:100DA0001A70B5E4102D0020802D0020FCA601084B
:100DB0004004002096330020E8F7FF1FECF7FF1FE8
:100DC000F0F7FF1FBA4B93F867220B68591C21609C
:100DD0001A709DE40023B64D5A1992F854122268F5
:100DE0000133501C082B20601170F5D190E4B04DF8
:100DF0000B6895F8B322591C21601A70A968204627
:100E000008F08EFB236895F85C22591C21601A704B
:100E1000B5F8E411204608F097FBB5F8E811204634
:100E200008F092FBB5F8EC11204608F08DFBB5F800
:100E30004012204608F088FBB5F84212204608F020
:100E400083FB65E400259A4EAB19D3F814132046B2
:100E5000043508F065FB802DF6D159E4944D00234C
:100E600006272846002107FB03F6226802F1010E3F
:100E7000C4F800E01370226802F1010EC4F800E02B
:100E800011708A192A4492F8D4E32268013102F1E0
:100E9000010C0629C4F800C082F800E0E5D1013356
:100EA000062BDFD1002221684D1C25600B702168C4
:100EB0004D1C25600A70811891F8F85321680132A1
:100EC0004E1C0B2A26600D70EDD123685A1C22603F
:100ED00007221A7023685A1C226000221A702368A5
:100EE00090F80424591C21601A7011E411F0A8FE36
:100EF00000280CBF0222032223686E4D591C21607A
:100F00001A702988204608F00BFBE968204608F093
:100F100007FB11F075FE0146204608F001FBFFF7C4
:100F2000F7BB01200B685A1C0A601870604B2268DE
:100F300093F89515151825601170226893F893158C
:100F400015182560117093F89425FFF7EDBB002567
:100F50000B6820465A1C0A601D700B685A1C0A60F8
:100F60001D700B685A1C0A6029461D7008F0D8FADB
:100F70002946204608F0D4FAFFF7CABB0B685A1C72
:100F80000A6000221A70FFF7C3BB00234A4D226893
:100F9000595D0133501C0B2B20601170F7D1204696
:100FA000002108F0BDFA0021204608F0B9FAFFF749
:100FB000AFBB3F4D2046B5F8E81008F0C5FAB5F8CC
:100FC000EA10204608F0C0FAB5F8EC10204608F008
:100FD000BBFAFFF79DBB364B226893F84C12501CAE
:100FE00020601170226893F84D12501C206011701F
:100FF000226893F84E12501C20601170B3F8EE1066
:10100000204608F0A1FAFFF783BB294B226893F82A
:10101000FC11501C20601170226893F81812501CAB
:101020002060117093F80E222368591C21601A70F9
:10103000FFF76EBB1E4D0B6895F8FF2162B35A1C7B
:101040000A6008221A700B685A1C0A6001221A7082
:10105000236895F8D520591C21601A70236895F8EB
:10106000D420591C21601A70B5F8D210204608F01F
:101070006BFA1249D5F8D80018F0D4FF15F006FA2B
:1010800081B2204608F060FA236895F80322591CC3
:1010900021601A70FFF73CBB95F8FE21591C2160B6
:1010A0001A70236895F8F821591C2160CFE700BF1A
:1010B000802D0020D802002062CC01080000C84228
:1010C0009E4E0B6896F801229D4D591C21601A70A6
:1010D0002B682046198C08F037FA2B682046598C6B
:1010E00008F032FAB6F80412204608F02DFAB6F8E5
:1010F0000612204608F028FA2B682046998C08F042
:1011000023FA2B682046D98C08F01EFAB6F808128C
:10111000204608F019FAB6F80A12204608F014FA28
:10112000FFF7F6BA864D0021204608F00DFA00219F
:10113000204608F009FA2B682046598D08F004FA79
:1011400023685A1C226000221A702B6893F8311011
:101150002368581C206019702B6893F83E10236890
:10116000581C206019702B6893F83F102368581C96
:10117000206019702368591C21601A702368591C5B
:1011800021601A702368591C21601A702B686D4900
:10119000586C18F047FF15F079F981B2204608F035
:1011A000D3F92B686749186C18F03CFF15F06EF9FD
:1011B00081B2204608F0C8F92B6893F833202368E1
:1011C000591C21601A702B6893F834202368591C2D
:1011D00021601A70FFF79CBA002A3FF499AA5A4B73
:1011E0001360FFF795BA9DF80F3009FB03831B7B53
:1011F000C3B19DF80F3009FB03831B6993B19DF8C0
:101200000F304A2109FB038318692B7846F8230025
:1012100012F068FE2B7856F8230012F0CCFE2B78E3
:1012200001332B709DF80F300133DBB28DF80F3096
:10123000FEF7C4BF2268511C21601370FFF768BA23
:101240004728A6EB030648D1284608F043F9052EA7
:1012500007463FD9284608F053F90026054694E88A
:101260000C009B1A103B394AAB42A846B8BF9DB24E
:10127000D3683946DB1B9D42204688BF9DB291460C
:1012800008F04EF93EB92946204608F05DF923687A
:101290005A1C22601E70D9F80C307A199A42D4F880
:1012A00000A088BFDD1B11F0A1FD2A46514638463B
:1012B00011F0DAFD236803442360002E3FF428AACE
:1012C000002280457FF724AA23680130591C216041
:1012D0001A70F6E701268025C1E75B2800F0E78356
:1012E00000F21981352800F0A48200F2A28029289A
:1012F00000F0A5842CD8232800F07F8206D80B2884
:1013000000F0AD854FF0FF30FFF7EBBB252800F074
:101310008B842728F6D1284608F0F2F8074EC6F845
:10132000E401284608F0ECF8C6F8E801284608F081
:10133000E7F8C6F8EC01FFF7EBB900BF802D0020FD
:10134000102D002000002041095E0108D802002075
:101350002F2800F056855ED82B2800F088842D2891
:10136000D0D15A1C2A601B78D04F284687F85C32AF
:1013700008F0C6F8A7F86E02284608F0C1F8A7F8EA
:101380006A02284608F0BCF82B68A7F86C025A1CC1
:101390002A601B78082E87F865327FF6B9A928469F
:1013A00008F0AEF8A7F87802284608F0A9F80C2E45
:1013B000A7F87A027FF6ACA92B6828465A1C2A6047
:1013C0001A4612F8021B87F870122A605B7887F8B9
:1013D000723208F095F8102EA7F876027FF698A9D9
:1013E0002B6828465A1C2A601B7887F85E3208F062
:1013F00071F82B68C7F860025A1C2A601A78162EFA
:1014000087F864227FF684A99A1C2A605B7887F8A3
:101410007332FFF77DB9312800F00C8533287FF453
:1014200071AF5A1C2A601A78A04B83F86722FFF725
:101430006FB9432800F07E843FD83C283FF468A968
:1014400027D8372800F0A58439287FF45BAF1946E8
:101450005A1C2A6011F8020B944A042E82F83802B2
:101460002960597882F83C1203F1030129609978C8
:1014700082F83B1203F104012960D97882F83D1209
:101480007FF646A9591D29601B7982F83F32FFF784
:101490003FB93E2800F0888141287FF433AF002314
:1014A00082482A68511C296011781A180133082BC8
:1014B00082F85412F5D1FFF72BB94C2800F0DF83E6
:1014C0000AD8482800F0A5834A287FF41BAF284695
:1014D00008F016F8FFF71CB94E2800F0F4835128E5
:1014E0007FF410AF724A92F83220012A3FF610A919
:1014F00019465A1C2A6011F8020B6C4A82F89505AD
:101500002960597882F89315D91C29609B7882F854
:101510009435FFF7FDB8D22800F01A817ED8CA288A
:1015200000F0508152D85F2800F0FB8247D85D2838
:101530007FF4E8AE5A1C2A601B785E4FDFF86C819E
:101540002846D7F8009088F8013207F0D9FFA9F8AB
:1015500020002846D7F8009007F0D2FF052EA9F802
:10156000220023D9284607F0CBFFA8F8040228461A
:1015700007F0C6FFA8F806022846D7F8009007F043
:10158000BFFFA9F824002846D7F8009007F0B8FF5D
:101590000D2EA9F8260009D9284607F0B1FFA8F8B2
:1015A0000802284607F0ACFFA8F80A020EF010FB6C
:1015B00008F0F4FD386812F061FDFFF7A9B8612862
:1015C00000F00883C8283FF4A3A89BE6CE2800F0CB
:1015D000148310D8CC2800F05981CD287FF492AE26
:1015E000354B1B7859073FF593A84FF4C872334B1E
:1015F0001A80FFF78DB8CF2800F09181D0287FF4B2
:1016000081AE2D4B1B7858073FF582A80EF082FE65
:1016100007F0A6FD07F0FCFBFFF77AB8DB2800F027
:101620002D826BD8D62800F0CC8149D8D32800F081
:10163000A980D4287FF466AE0F2E7FF463AE5A1CC7
:101640002A601E78072E3FF65DAE284607F058FF49
:101650000E22164B02FB0636A6F87201284607F04A
:101660004FFFA6F87401284607F04AFF2B68A6F83A
:1016700076015A1C2A601A4612F8021B284686F880
:1016800078112A605A7886F87921DA1C2A609A78CB
:1016900086F87A211A1D2A60DB7886F87B3107F0FC
:1016A00019FFC6F87C01FFF733B800BF802D00207A
:1016B00040040020102D00201C3D0020E80F0020D9
:1016C000D92800F0C981DA287FF41CAE5A1C2A60A0
:1016D0001A46C24E12F8021B284686F84C122A609F
:1016E0005A7886F84D22DA1C2A609B7886F84E32AA
:1016F00007F006FFA6F8EE00FFF70AB8EF2846D07D
:1017000015D8DC2800F0C081DD287FF4FBAD5A1C21
:101710002A601A4612F8020B2A60DA1C59782A60ED
:101720009A780FF079FB00287EF4F2AFEAE5F22810
:1017300000F06081FA287FF4E5ADA94B1B785B07C8
:101740003FF5E0AD07F00CFD07F062FBFEF7E0BFF0
:101750005A1C2A60187806060BD4A14B1B785D072B
:101760003EF5D6AF022828BF00200EF013FAFEF790
:10177000CFBF00F07F00032828BF00200EF0EEF955
:10178000FEF7C6BF284607F0BBFEFEF7C1BF2846DE
:1017900007F0B6FE914EA6F82202284607F0B0FEEA
:1017A000A6F82002FEF7B4BF5A1C2A601A468B49DD
:1017B00012F8020B81F8B2022A605B7881F8B1322C
:1017C000FEF7A6BF874B1868431E00F109062A687A
:1017D000511C2960114611F8027B03F8017F296032
:1017E0005178B342997202F10301296092781A7517
:1017F000EDD10CF063F8FEF78BBF5A1C2A601A7803
:10180000132A3FF67FAD00204FF00C0C991C296085
:1018100075495F7801F1300E0CFB00F60EEB0608FF
:1018200098F80880B84500F06A8301301F28F3D18A
:1018300068E55A1C2A6019780E293FF663AD9A1C98
:101840002A605A78032A3FF65DAD0626634806FBF8
:10185000010181F83E25DA1C2A609A7881F8392541
:101860001A1D2A60DA7881F83A255A1D2A601A79F9
:1018700081F83B259A192A605A7981F83C25DA1DAE
:101880002A609B7981F83D35FEF742BF092E7FF62D
:1018900039AD56485A1C07682A601A4612F8021BCE
:1018A000804639702A605B78791DBB700023022B5B
:1018B00014BF4FF0640E4FF0FF0E28680133421C36
:1018C0002A6002787245A8BF7246032B01F8012BEB
:1018D000EDD1831C2B604378642B28BF64233B72BB
:1018E000C31C2B608378FB70031D2B60C3782846D4
:1018F0003B7107F005FE0A2E78813EF409AF2B6894
:10190000D8F80020591C296019780B2E51723EF42A
:10191000FFAE991C29605B785370FEF7F9BE28462C
:1019200007F0EEFD2D4EA6F86A02284607F0E8FD06
:10193000A6F8CC00284607F0E3FDA6F8CE0028461E
:1019400007F0DEFDA6F8D000284607F0D9FDA6F87E
:10195000B802284607F0DFFD284607F0DCFD2846E0
:1019600007F0D9FD2B6828465A1C2A601A4612F83F
:10197000021B86F845122A605B7886F8673207F00A
:10198000CAFD284607F0BCFD2B6800EB80005A1CFE
:101990004000A6F80C022A601A4612F8021B86F8CC
:1019A00038122A605A7886F83C22DA1C2A609A7823
:1019B00086F83B221A1D2A60DB7886F83D32FEF756
:1019C000A7BE00260A4F284607F09AFD27F8160002
:1019D0000136082EF7D1FEF79BBE00BF802D0020F8
:1019E0001C3D0020102D0020FCA601084C120020F8
:1019F0009A2A00205A1C2A601A780F2A3FF682ACD5
:101A0000991C2960C2485978C2EBC202024482F88C
:101A10000211D91C2960997882F80311191D2960D7
:101A2000D97882F80411591D2960197982F80511B5
:101A3000991D2960597982F80611D91D2960997973
:101A400082F8071103F108012960DB7982F8083177
:101A50000BF0F2FEFEF75CBE284607F051FDAC4EDF
:101A6000A6F8E800284607F04BFDA6F8EA0028464D
:101A700007F046FDA6F8EC00FEF74ABEA54B186835
:101A80000EF042F9FEF744BE19465A1C2A6011F8BE
:101A9000020B9F4A82F8FC012960597882F81812DB
:101AA000D91C29609B7882F80E32FEF731BE5A1C91
:101AB0002A601A46964F12F8021B284687F8FE1134
:101AC0002A605A7887F8F821DA1C2A609A7887F811
:101AD000D5201A1D2A60DB78042BA8BF042387F8C1
:101AE000D43007F00DFD072EA7F8D20009D92846FB
:101AF00007F006FD18F042FA874918F093FAC7F884
:101B0000D8002B686A689A4207D05A1C2A601B7852
:101B1000003318BF012387F803320EF059F8FEF79F
:101B2000F7BD284607F0ECFC7A4F284607F0E8FCA2
:101B30002846D7F8008007F0E3FCA8F82A002846DA
:101B400007F0E9FC2B683A68591C2960194611F81E
:101B5000020B82F8310029605978284682F83E103D
:101B6000D91C29609B7882F83F3007F0D4FC2846C6
:101B700007F0D1FC284607F0CEFC2846D7F80080B5
:101B800007F0BEFC18F0FAF9644918F04BFAC8F8EF
:101B900044002846D7F8008007F0B2FC18F0EEF9B0
:101BA0005E4918F03FFA112EC8F840003B460CD9A8
:101BB0002A683868511C2960114611F8026B80F8B8
:101BC00033602960527880F8342018680BF076FE74
:101BD000FEF79EBD19465A1C2A6011F8020B4C4AAA
:101BE00082F819022960597882F82412D91C2960D8
:101BF0009B7882F80F32FEF78BBD494B1B785A0752
:101C00003EF586AD474A137843F004031370FEF7A0
:101C10007FBD11F057F90023434A1370434A1370F4
:101C2000434A1360FEF774BD0023394E2846B36063
:101C300007F050FCB3681843B060FEF769BD284652
:101C400007F05EFC324EA6F84002284607F058FC2A
:101C50002B68A6F842025A1C2A601B78284686F890
:101C6000443207F04DFCA6F84602FEF751BD5A1C5F
:101C70002A601A78264B83F8B322FEF749BD5A1C16
:101C80002A601A46224E12F8021B284686F8B6121F
:101C90002A605B7886F8B73207F032FC2B68A6F82A
:101CA000B8025A1C2A601B78284686F8BA3207F018
:101CB00027FC2B68A6F8BC025A1C2A601B7886F801
:101CC000BE32FEF725BD5A1C2A601E78112E3FF643
:101CD00019AB9A1C2A605A7806F59E730C4E28465A
:101CE00006EB4306327107F00BFC40F6CA0398423C
:101CF000A8BF184640F2EE239842B8BF18461923F1
:101D0000A0F2EE2090FBF3F07071FEF701BD00BF72
:101D1000802D0020102D00200AD7233CCDCCCC3DB7
:101D20001C3D0020283D0020E42B0020E52B002056
:101D3000E82B00205A1C2A60824E1B78284686F821
:101D4000B3320023B36007F0C5FBB36818432B68B8
:101D5000B0605A1C2A601B78284686F85C3207F06F
:101D6000CFFBC6F8E401284607F0CAFBC6F8E80135
:101D7000284607F0C5FBC6F8EC01284607F0C0FB73
:101D8000A6F84002284607F0BBFBA6F84202FEF781
:101D9000BFBC0722B6FBF2F2C2EBC203F61A7FF415
:101DA000B1AA5FFA82F8F3B243453EF4B1AC2A68B7
:101DB0000136531C2B6092F9007038460BF070F915
:101DC000814600283FF49EAA8770284607F098FBBA
:101DD0002A68A9F800001146531C2B6011F8023B39
:101DE00089F803302960537889F80430D31C2B60BC
:101DF000937889F80630131D2B60D37889F8053065
:101E0000D1E7504E06F14007284607F079FB2B68D2
:101E1000A6F894035A1C2A601A4612F8021B0436CC
:101E200086F892132A605B7886F89333BE42EBD132
:101E3000FEF76EBC5A1C2A601F781F2F3FF662AA5D
:101E4000052E7FF45FAA284607F044FB3D4B03EBC9
:101E50008703C3F814030CF08BF9FEF759BC00217B
:101E60001122394816F046FE102E4FF0000328BF0D
:101E700010263449B342BEF44BAC2A68501C28608B
:101E800010785A1882F8A0050133F3E743445A6BDF
:101E90001046019216F092FF002E7EF498AE019A41
:101EA0001346FEF79FBE034493F8382023685E1C58
:101EB00026601A70FEF7A4BB23682046591C2160D7
:101EC0001A70B5F8C01207F03FFB236895F8C322DB
:101ED000591C21601A70236895F8C422591C21608E
:101EE0001A70236895F8C622591C21601A7023685D
:101EF00095F8C522591C21601A70FEF7F2B902F557
:101F00009D7031440F4A91F8301002EB80025170FD
:101F1000D91C2960997800209170191D2960D97801
:101F2000D170591D29601B791371084B1A68084B31
:101F30001A600FF030F9074B80F001001870FEF7BF
:101F4000E7BB00BF802D002020330020102D002093
:101F500024100020100000202DE9F04F0A4B0B4CFC
:101F60000B4A2360002310680A499BB088426360D3
:101F700016D1136062B6084B186808F0FBF8074BDF
:101F80001B689847FEE700BFA98D00087804002071
:101F9000F04F0020EFBEADDE00F0FF1F04F0FF1F8A
:101FA0000A930B930C934FF4E013C04D0D932B68E1
:101FB00043F480332B60AB6943F01003AB612B68B3
:101FC00003F400330B930A9B01330A930B9B1BB959
:101FD0000A9BB3F5A06FF2D12B6813F4003300F025
:101FE000858202230C93B24BB24F1A6842F0100262
:101FF0001A601A6822F003021A601A6842F002029C
:102000001A606B686B606B686B606B6843F480632D
:102010006B60A94B1A68043B22F070425A60A74AD1
:102020003A606A6822F47C126A605A6842F00042A0
:102030005A60DA6822F40042DA609B68180449BFEB
:102040009F4B4FF4E0133B604FF480130D930C9BB8
:10205000012B00F06382022B05D10D9B6A681343AC
:1020600043F480336B602B6843F080732B602B68E4
:102070009901FCD56B6823F003036B606B6843F038
:1020800002036B606B6803F00C03082BFAD16B68DA
:10209000DFF8688203F00C03042B00F04382082B66
:1020A00000F04282854BC8F800306B68DFF8509230
:1020B000C3F3031319F80320D8F80030DFF844B253
:1020C000D340C8F800307F4B4FF6FF72CBF80C308E
:1020D000AB690DF1680A43F00103AB616B6A7A4E9C
:1020E000A3606B6A304643F080736B62AB6943F068
:1020F0001C03AB614FF000032AF82C2D51468DF8DC
:102100003E3004F0DDFD5146704804F0D9FD5146E3
:102110006F4804F0D5FD10228DF83A2002228DF888
:102120003B204FF400721AA921F8302D304632615D
:1021300004F0C6FD674950464A6842F000724A60A2
:1021400007F0FDFE0F9B644A3046B3FBF2F34FF4F9
:102150007A72E360D8F800304E46B3FBF2F35F4A80
:10216000013B5360F0238BF8233000239360072357
:102170004FF001081360DFF890C1594A09F10E01D0
:10218000002331F802EF4EFA03F919F0010F18BFDE
:1021900008FA03F903F101031EBF1060A2F80490CE
:1021A0000832102BEFD100F580606045E8D13B6824
:1021B000424A934240F0CA8101224A4B1A7006F00B
:1021C000F9FD18B90EF0A6F806F0CAFF06F020FED9
:1021D0000021454FDFF834B13B789BF8F92143F0FB
:1021E00001033B70414BDFF828911A70DBF808308F
:1021F0000846C9F8003011F0EDFE0021012011F071
:10220000E9FE4FF0010804974F464FF005099BF88F
:10221000FB32DFF800A123740BEB080393F8F702FD
:10222000002800F0998111F039FECAF8000080F80A
:10223000069080F807801221DAF8000011F052FEB3
:1022400008F10108B8F1040F0AF1040AE4D10021F1
:10225000084611F0BFFE0021012011F0BBFEAB6962
:10226000402243F00103AB610021214816F042FCFB
:102270004FF0FF331F4A2366C2F803303B681B0749
:102280000AD59BF85C32012B06D8A5689BF865320D
:1022900015F0805501F02A8764200EF096F9A022EF
:1022A0000021154816F026FC002535E000100240FC
:1022B00000200240140000200410014000127A00A7
:1022C000001BB7000005FA0500080140000C0140A2
:1022D000001001400000014040420F0010E000E00B
:1022E000F82B0020400400205E3F002094330020A3
:1022F00098040020D8040020E4040020D402002028
:10230000A0A8010800ED00E000140140802D00208D
:10231000F42000208C040020DFF83483DFF83493AD
:10232000002355F8080059F83320D900904240F0B6
:1023300040817318187F10350EF0ACFDE02DEFD101
:102340000425A74BA74ADFF810931A60002130221A
:10235000A5483E6889F8005016F0CCFB00234FF0EA
:10236000FF0C18462946DFF8F4E29F4D06F04008BE
:102370001EF9012F03EB050A5A55B8F1000F09D1D8
:102380001E3AD2B2012A9FBF012001F1FF318AF823
:1023900000C0C9B20C33302BEAD108B189F8001063
:1023A0009249934AC4F80C119BF8B3A2914916F4D0
:1023B000805382F800A0039214BF0A68D4F8102159
:1023C000DFF89C8292888C4CA8F800208B4A0593F9
:1023D000D2F810010292058825804488884804803C
:1023E0000C68884960880880208887490880874968
:1023F0000D68B5F81890C9F5FA6017F0BFFD84496B
:10240000ED8AE4880860A5EB0900001B17F0B6FD13
:1024100080490860C5F5FA60001B17F0AFFD7E49E2
:10242000029A08607D487E49144608607D497E48CE
:102430003140002940F0C3807C4A02EBCA035B783C
:10244000036040F2DC510023794A22F81310013373
:10245000082BFAD1BBF8D0300293059B13B1BBF81F
:10246000EC3002939BF8D430042B05D14FF480500C
:1024700011F0E2FD002302930026039B6D4D1A78B4
:102480002E70A2F11703022B00F2EC804FF0000A2D
:10249000D4F80C215146905902EB060917F056FF6B
:1024A000002800F08E803B68DE0400F1FC800023F1
:1024B000B8F90010604A22F8131001330C2BFAD13E
:1024C0002B78F02200215D48069316F013FB9BF851
:1024D000D4209BF8D5105A4B042A00F20981DFE87A
:1024E00012F0B0010701140118011C012A6842F022
:1024F00001022A600A932B6803F002030B930A9BE4
:1025000001330A930B9B1BB90A9BB3F5A06FF2D161
:102510002B689E0701D5012364E5FEE76B6843F451
:1025200060139FE53B68BEE56B686A68C3F383434D
:10253000D20303F1020302D4424A5343B3E56A686B
:1025400012F4003F3A6818BF5208F6E73E4A934239
:102550007FF435AE022230E6CAF8000070E60021B2
:10256000084611F037FD0021A06E11F029FD7820FA
:102570000EF020F80121002011F02CFD0121A06EA9
:1025800011F01EFD78200EF015F801359BF865322C
:102590009D42E4DB9BF86632012B7FF47DAEA3689D
:1025A00013F080537FF478AE8BF865320DF006FBA4
:1025B00072E60133042B7FF4B6AE0020BBE60123A4
:1025C0003EE7224B06EB030E99E80F008EE80F0062
:1025D0002B7810360133C02E2B707FF459AF62E791
:1025E0003C33002040300020403300208C2D002060
:1025F000A10D0020C00C0020060C00207804002053
:10260000040C0020CC0C0020C40C0020BC0C0020CA
:10261000D40C0020C80C0020D00C0020822E0020FA
:1026200080250020200010009C0D0020E4B6010849
:1026300042040020503C00209A2A0020BC2A00209E
:10264000EC24002000093D00001BB700DC0C00203A
:10265000A4C40108B8A80108D8240020D7A80108FC
:10266000E22B0020AF4B13F8321003EBC2030C290E
:10267000297088BF0C21D3F804C088BF2970BCF131
:10268000000F3FF410AF0026DFF8F4922B789E4243
:10269000BFF609AF330103EB090E63440FCB0136DC
:1026A0008EE80F00F2E72B78012B7FF600AF4FF09A
:1026B0007C569D4F07EB031303F1100910374F456C
:1026C0003FF4F5AE314657F80C0C17F0ABFC314631
:1026D00047F80C0C57F8100C17F0A4FC314647F8DB
:1026E000100C57F8080C17F09DFC47F8080CE5E7AC
:1026F00008278E4A1A608E4A00298E4B12BF4FF06F
:1027000001084FF0000813460FE08B4A18271A60A3
:10271000F1E78A4A48271A60EDE7894A18271A60C4
:10272000002302934FF00108824B864D0026AA46F3
:10273000854A1360854B7B430593069BB34240F368
:10274000B2800BEB060393F8DC30184607930EF0CB
:10275000A5FC079B8146002879D17D4A7D4B1A60F4
:10276000744A794B1A607C4D2B68002B40F0AE8088
:10277000039B1B7803F0EF02082A784A40F0C980D7
:102780001178182B41F01001117001D10BF054F8A1
:102790002B68DFF8F091002B40F0F880704ADFF8EA
:1027A000E8811368029213F0010640F02981980431
:1027B00040F176819BF8053308F5047588F8E0321E
:1027C00009EB060393F8FD22104605920EF066FC15
:1027D000074680B34FF000034FF0010A059A05F851
:1027E0000E3C05F8063CF3B205F80F3C45F8040C26
:1027F00005F810AC1046039311F050FB039B80F8D2
:1028000006A05344C3712A2111F06CFB0022797990
:10281000386811F077F95246002138460DF0DAFD9C
:10282000504B2A1D2B60504B29466B6000233846C5
:10283000AB600DF023FE0136082E05F11C05BFD15B
:102840002EE14A4A01271A60002302936AE71846DC
:1028500011F024FB4FF0030228618271721CC271D7
:102860001A2111F03FFBFAB2B8F1000F1FD0BBF8EC
:10287000D2300599B1FBF3F302999BB2009149461E
:10288000284611F095F900231422B34214D10023F5
:1028900083F001032B7201231E440C2E2B7305F1D0
:1028A00014057FF44AAF0122314B1A705BE7CDF873
:1028B00000804FF6FF73E2E702FB03A148686968F6
:1028C000884201D00133E0E70123E1E7039B294976
:1028D0001A78294B13F8320003EBC2035E680870C4
:1028E000002E3FF445AF0023244F8342BFF640AF94
:1028F000C3EBC3017218D2F800C001EB070E41F818
:1029000007C091880133AEF8041092798EF8062042
:10291000EBE70E2B3FF434AF1178192B21F01001A7
:10292000117032E7E4B60108E00C0020613A0108BA
:102930009739010859390108353A0108013A010867
:102940006D390108BC2A0020543C002040420F0091
:1029500095390108EC2400209C0D0020283D002022
:10296000F4200020413B0108C53701085B3901080C
:10297000EA2400200E250020BCB701080F25002006
:10298000DC0C0020802D00207804002000254FF072
:10299000040A194E09F1F30818F8017F002F3FF4DB
:1029A000FDAE384611F07AFA0135EDB23061029091
:1029B00080F806A0C57138460EF070FB0746029BF2
:1029C0001A21184611F08EFA002F3FF4E7AEB9F83D
:1029D000F2300A4A304692FBF3F3B9F8F0209BB28A
:1029E00000923946012211F0E3F80123082D3373D8
:1029F00006F11406D0D1D1E68C05002040420F002C
:102A00000025FF239BF8FC7284F8B4513846C4F8C3
:102A1000B851C4F8BC51C4F8C051C4F8F45184F89A
:102A2000F83184F8F93184F8FA5184F8FB5184F8CC
:102A3000FC510EF033FB9BF8D4A0064680B302682D
:102A4000CD496B18187B18B15B689A4200F0C182BF
:102A50001435F02DF5D10025C4F80C6284F800522D
:102A6000384611F01BFA0222C57182712A2111F039
:102A700039FA2A467179306811F044F80122294662
:102A800030460DF0A7FCBD4BBD4AC4F81032BD4B1B
:102A9000C4F81852C4F81432111F30460DF0EEFC81
:102AA000049B049A1B789BF80E0343F004031370F5
:102AB00011F0F4F99BF80F23C8F8E402003218BFB4
:102AC000012288F8E82258B1222282710022C271C4
:102AD0009BF8103393420CBF1221162111F002FA19
:102AE00000200FF003FC222011F0D8F90125262345
:102AF00006468371C571122111F0F4F93046A24ED9
:102B0000002111F05DFA307E0EF0C4F9337E03F03F
:102B10001F025B09022B05FA02F500F06B82032B02
:102B200000F06D82707D11F0B9F902271223C77190
:102B300083710546F07D11F0B1F94FF01308C771AC
:102B400080F80680B07D11F0A9F914231B21837150
:102B5000C771284611F0C6F9F07D11F09FF90721E1
:102B600011F0C0F9B07D11F099F91B2111F0BAF9FB
:102B7000307D38B111F092F91D22C7718271414642
:102B800011F0B0F93269814B9A4240F03D8203F571
:102B90006043D96841F48051D960D96821F48051EB
:102BA000D960337F002B00F04B8200200346118850
:102BB00001F4415141F445710B4303431380938B5E
:102BC000307D23F400631B041B0C938307231382C3
:102BD00013889BB243F04003138018B111F05EF9E3
:102BE00011F0E9F96A4D2B78032B00F02C820120BB
:102BF00004F0DCF81F200AF0D8F92C2011F04EF96F
:102C00009F238DF838300023C4F8EC0207463220A9
:102C10008DF839308DF83A308DF83B300DF0D5FC19
:102C2000D4F8EC0211F0C2F904220EA90FA80EF09C
:102C300047FAD4F8EC0211F0BEF99DF83E309DF849
:102C40003D201B0243EA02439DF83F201343514AB3
:102C500093421BD032200DF0B8FCD4F8EC0211F0F6
:102C6000A5F9F5200EF064FAFF200EF061FA8DF858
:102C70003C00D4F8EC0211F09EF99DF83C30702B2A
:102C800004D12B78022B01D103232B70029B424CE1
:102C90001B680021C3F3400289F80623C3F3C02256
:102CA00089F80A2303F0020803F4006503F40046E0
:102CB0001422C3F3C033204689F8083315F01AFFF5
:102CC0002046B8F1000F02D099F80733237016B1EF
:102CD00099F80933C37399F80C3313B199F80D338C
:102CE000837215B199F80B33437100232A4C4FF0CE
:102CF000070826461D46DFF8B0A00AF13C0B3078E5
:102D0000E8B111F0CBF84FF00002002180F8068006
:102D1000C27111F0E7F8002331781BF813005A0054
:102D2000884240F09F810AEB020393F83D307370B4
:102D30000723337101236A1CB570F370D5B208F113
:102D400001085FFA88F8B8F10B0F06F10506D6D135
:102D5000002B00F0D680114E4920736843F44043A5
:102D600073600EF097F80E4A0E49304600234FF07C
:102D70001C0C96460E4619E0BC2A0020ED370108CF
:102D80008C06002021390108B003002000300140EA
:102D90004004002015202000940F00200010024065
:102DA000E802002008000240A0A801080CFB03284C
:102DB000D8F80480884540F05B81DBB21C2101FB20
:102DC00003E3426919694FF000080A434261062291
:102DD00083F819801A76B84807F02DF90FA807F084
:102DE000FFF8B64B022D0F93B54B0FA9109334BFCC
:102DF0004346802314934FF4807315934FF48063FC
:102E00001693202317934FF40053AB481295189351
:102E1000CDF84480CDF84C80CDF8648007F0EDF813
:102E2000012D94BF002201223368A64943F001031B
:102E300033604B68072623F4702323F4807343EA3E
:102E400002234B608A68A04BDFF8A8E2134043F4EA
:102E5000602343F002038B60CA6A6B1E22F4700287
:102E6000DBB242EA0353CB621F250123E2784AB367
:102E700094F80180581CB8F1090FC0B294F804B05E
:102E800040F2FC80A8F10A02D1F80CA002EB420C3F
:102E900006FA0CF22AEA020A0BFA0CF242EA0A02D9
:102EA000CA60062B00F2F78003F1FF3C4A6B0CEB83
:102EB0008C0C05FA0CF322EA030308FA0CF21A430D
:102EC0004A6303460534A645D0D17E4B9A6842F446
:102ED00080729A609A6842F001029A609A6842F0A1
:102EE00008029A609A681107FCD49A6842F00402BA
:102EF0009A60744B9A685207FCD49A6842F4A00214
:102F00009A60D9F8E401002841F07E81D9F8E831CF
:102F1000002B41F07981D9F8EC31002B41F074811C
:102F20006A4C6B4B6B4D5822002120462B6015F0EC
:102F3000E1FD694B2320E3620DF047FB0DF1260212
:102F4000012175200FF066FD002800F0E280634B40
:102F50000DF127022363624B0121636343230020A9
:102F600084F844300FF056FD9DF8273003F07E03BF
:102F70008DF82730002840F0C3819DF8263003F0FB
:102F80007E03682B8DF8263040F0DD810223062178
:102F900084F827300FAA236B084698479DF84130E4
:102FA0009DF83F209B00520002F0020203F0040350
:102FB00013439DF83D2002F001021343DAB2002BC7
:102FC00000F0B481012A40F0A581002384F8283064
:102FD000E6E00AF1FF33032B3FF63DADDFE803F0F7
:102FE0000208060808223F4B1A7034E54822FAE727
:102FF0001822F8E73C4BDA681543DD6092E53A4B5E
:103000001A6915431D618DE5384B9A420AD103F5C3
:10301000EC33196941F480411961196921F4804147
:103020001961BEE5324B9A427FF4BBAD03F5EA333A
:10303000196941F400411961196921F40041EFE770
:1030400001200223B3E502200AF02AF818B1038810
:10305000002B7FF4D2AD022009F0A7FF012003F07E
:10306000A5FECAE501330A2B7FF457AE00235EE6C6
:103070000133072B7FF49AAE00239FE60A6908EB21
:10308000480A06FA0AFC22EA0C0C0BFA0AF242EA97
:103090000C020A6105E70C2B2ED8DA1FD1F830C0DC
:1030A00002EB820205FA02F32CEA030308FA02F2A9
:1030B0001A430A6305E700BF080002404C240140A0
:1030C000A80F002000240140FDF7F1FF5818002050
:1030D0007C2F0020BC180020F0A80108152A010848
:1030E000B52901080000002000100240003800400F
:1030F000003C0040A80F00200D3BCA6A03EB83038D
:1031000005FA03FC22EA0C0208FA03F31343CB622C
:10311000D7E6AF4E96F8F032EBB91A22FB71BA71CE
:1031200013213846C6F8F47210F0DCFEA94A138861
:1031300023F040031B041B0C1380138823F0380377
:103140001B041B0C138013889BB243F040031380B5
:10315000012386F8F0320FAA012175200FF0E6FB5B
:103160009DF83C30702B0CD004D8122B00F0C68098
:10317000002307E0712B00F0BF80AF2BF8D10823AC
:1031800000E0052386F8F83296F8F83243B184F867
:103190002730432384F844308F4B23638F4B636382
:1031A000002384F8263094F82730022B40F0BD87A6
:1031B0008B4A22608B4A62608B4AE2608B4AA26132
:1031C000012284F826208A4E8A4932684B70073BD8
:1031D000042B42F00102326084BF00222B6802916E
:1031E00088BFDA712B68DF7817B1072F40F0D380E2
:1031F0009878DB79002B00F0C98002237E4D84F89B
:103200002330431E84F8243016F0B8FE294616F009
:1032100009FF17F009F9794D2368A06484F822703A
:1032200077489847774F06F0B9FF4022002128469B
:10323000D4F848A015F05EFC0FCF05F1140EAEE8EF
:103240000F0097E80300624A8EE8030037F8193C44
:103250009046012742F2022E41F6B05C6B8299F84B
:103260001912AB7C92F8F8020E290A4628BF0022F8
:1032700007FA02F111EA0E0F40F0D88011EA0C0FA4
:1032800040F08F8011F04D0F00F0D080022B40F005
:1032900088805D4B2B605D4B6B60EB7C002B14BF1B
:1032A0006E236F232B7401236B740323029A5348FC
:1032B0009370336843F0020333604FF480732B81C3
:1032C0002B6898474FF47A73EB62514B1A889B46F0
:1032D000002A00F0B1800027DFF84CA1BBF8000005
:1032E00016F048FEEA6A01460AEB07001C370DF0AB
:1032F0005DFB542FF2D19FE0062343E7092341E70A
:10330000682B7FF43AAE012384F827301D2384F81C
:10331000443045E7022A01D1012357E603F00303B5
:10332000032BF9D003200DF05AF939E7236B0EAACD
:1033300001210C2098479DF8383013F00F03F1D08D
:10334000042BE9D141E6702B04BF042384F8273015
:1033500026E7304A2260234A063B6260224ADBB2FB
:10336000E260224A032BA26196BF2B4A07239B18D7
:103370004FF0010298BF93F8513084F82620002BBB
:103380007FF421AF01200DF02AF9D9E00123234D6C
:1033900084F8233035E70023214D84F823300120C1
:1033A0002FE7042B40F0D0861E4A2A60174A082BCC
:1033B0006A604FF001026A7400F0CF86092B04D0D6
:1033C000062B0CBF0A23082370E70C236EE700BF0F
:1033D00078040020003800402D2901085D290108EB
:1033E000212A0108852801087128010890C1793D2A
:1033F000A03C0020000000200000FC41A43C002074
:10340000581800208818002059280108CD280108E4
:103410005A3400207D2A0108A0A801080000FA42C1
:1034200000007A44492801085C340020012A4FF04A
:1034300000013FF619AF69740023C44A936199F8FB
:1034400024320392042B00F217824FF0010B0BFA87
:1034500003F212F0120765D112F00D0F00F009828D
:103460000A200DF0B2F80EAB5A46A02177200DF0DD
:103470008DFD8246002855D01AAA02F841BD1E21B2
:1034800077200DF043FD4FF42F600DF093F8BB460D
:10349000A7F160010FAB0222C9B277208DF83CB0D2
:1034A0008DF83DB00DF072FD9DF83C209DF83D304B
:1034B00043EA0223A64ABB520237102FE8D1002369
:1034C0001F46B8F8082302F47F4002F00F01A8F865
:1034D000080327F001024244B2F8FA22002A18BF7A
:1034E0004FF0000A17F0010F1ABFD2B2534083EA1F
:1034F0001223082213F4004F18BF83F4C053013A7B
:103500004FEA4303F6D10137102FE2D140EA01021E
:10351000A8F80823BAF1000F04D1C3F3033399428A
:1035200000F01E8699F8FC310BB184F8263099F82A
:10353000183203B16B7499F80E320BB1039A1372FF
:103540000121844A084613780A2543F002031370C8
:1035500010F040FD0021084610F03CFD012010F065
:103560008FFC002010F08CFC19200DF02EF8D9F8FB
:103570009835D90302D401200EF0B8FE19200DF0C1
:1035800024F800200EF0B2FE013DE7D1294628467E
:1035900010F020FD2946012010F01CFDA36C99F8C5
:1035A000F801033358436C4B6C4C186016F0E2FC86
:1035B0006B4916F037FD6B4B6B4E1860206810F0AE
:1035C0005DFD20680AF07AF9684B694C587A16F06C
:1035D000D5FC684916F026FD674916F01BFC06F07D
:1035E000D4F8664B664F1860308916F0C7FC014668
:1035F000644816F0CBFD644B186010F01DFE1E22CF
:10360000FF21204615F076FA012225705F4D604BB0
:1036100029681A7011F4800F02BF02221A701B224F
:1036200002963E6808BF6270B20720460ED501249C
:103630004FF0020E1A7884541419E4B200F804E032
:10364000D41C1C7005247244D2B28454740704D56F
:103650001A78541C1C7003248454CA0504D51A78A3
:10366000541C1C701A24845499F8B342082C01D0BD
:103670000E2C04D11A78561C1E700B2686544FF05F
:103680000C0E1A7811F4803F02F1010600F802E0F6
:10369000F6B218BF02321E701EBF1A700E2282557B
:1036A0000A0304D51A78561C1E70192686544FF04A
:1036B0001D0E1A7811F4805F02F1010600F802E095
:1036C000F6B218BF02321E701EBF1A701C2282553D
:1036D0008A0604D51A78561C1E70072686544E0793
:1036E00004D51A78561C1E701026865412261A7895
:1036F00011F4806F02F1010E5FFA8EFE865483F89A
:1037000000E0244E07D096F8E41221B102321A707C
:10371000132200F80E20182C0DD116214FF0170E91
:103720001A788154511CC9B200F801E0D11C023250
:10373000D2B2197084544FF419720021164815F052
:10374000D9F908F061FC154B2AE000BFE83C0020E5
:10375000720700205E3F0020D0390020102D00208D
:10376000BD378635C0250020A43C0020043D002044
:103770005204002035FA8E3CDB0FC93F243D002067
:10378000A03C0020A889803A343F0020F42000208B
:1037900070040020802D002060220020D42F002003
:1037A0003A4AB6F8EE101360394ADFF808C11180C2
:1037B0000022E6463749384C0A808A703749384833
:1037C0000B60384B38491A70384BDFF8EC901960B1
:1037D000B6F86A32DFF8E4B0DFF8E4A0C4F8049089
:1037E000A06019B20390DBF800002CF8121000F56D
:1037F00096704AF822000132122AF4D12868C204D5
:1038000058BFB6F97812AEF80610294901F1500CEC
:1038100091F8E924A2B991F8EB2491F8ECA452456F
:103820000ED282B3013A02EB820202EB820291F8DD
:10383000EAA402F5617292B20AF1040A2EF81A2083
:1038400004318C45E4D1020740F1B18096F85CE286
:10385000BEF10A0F00F2A480DFE81EF0340034004D
:10386000E6012102410261026102A302A200C30239
:103870003400012B3FF456AE029AD370336843F004
:10388000040333604EE60AF10102CCE7C40F0020C6
:10389000C20F00203C2200201C2100200822002012
:1038A0006DB90008740F0020A0860100FC200020E4
:1038B000802D00200C22002071B900083822002041
:1038C0002C0F0020C14B40201C6009F029FC8046D1
:1038D000002865D00023DFF844A304938AF8003061
:1038E0000DF094F996F85C12834601290DD0049BE3
:1038F000C0F05C810A2916D12B6813F480631CBFC9
:1039000080F00103DBB28AF800300321B04B19705C
:103910000721B04B19700121AF4B19700C23237094
:1039200042F6F8236380AD4B6360AD4BA36098F91A
:103930000200BBF1000F40F046819AF80030002BE6
:103940000CBF012303239AF800204021002A0CBF5A
:1039500000220822009301924FF4E133A14A09F0BA
:1039600053FBA14BA1491860BBF1000F01D0C1F876
:103970000C0396F8673294F800E0013BDBB29C4AF6
:103980009E4513709CBF0023137028B19AF8003035
:1039900013B1012381F81033003018BF012030B972
:1039A000082010F049FB039BC4F80490A36042F286
:1039B00001032A681A4209D044F620639104638007
:1039C00040F13782082323708A4B63604FF0000870
:1039D000894B864CDFF84892D003C9F80030C4F810
:1039E000143384F8188321D50AF0C2FB012384F82C
:1039F0001833D9F8003040F22A3293F8F19041465A
:103A000004F2193015F076F8484603F07BF8414689
:103A1000C646FF2204F2446021F800E04318043156
:103A200080299A70DA70F7D111F011FC2B685905D2
:103A300048D5D4F8C426714B04201A6009F070FBF5
:103A40000421C4F8C80609F03FFBD4F8C4266C4B27
:103A500084F8CC0608201A6009F062FB694B082143
:103A6000186009F031FBDFF8BC81002184F8CD0635
:103A70002C22404615F03EF87C2388F800308E2337
:103A800088F80130E02388F803307D23D4F8C42679
:103A900088F82B305C4B20201A6009F041FB202174
:103AA000C4F8D00609F010FB84F8D406102009F001
:103AB00037FB1021C4F8D80609F006FB84F8DC06B1
:103AC0000DF0AEF8514BB3F800909846B9F1000FE5
:103AD00040F01C8296F89705002800F0178210F03D
:103AE000DDF9182280F8079082711321C4F8E006EE
:103AF00010F0F8F9D4F8E00610F05DFA00BF444A7F
:103B00003220138823F040031B041B0C13801388FE
:103B100023F038031B041B0C138013889BB243F063
:103B2000400313809F238DF839908DF838308DF83D
:103B30003A908DF83B900CF048FD8DF83D9000BF19
:103B4000D4F8E00610F032FA04220EA90FA80DF006
:103B5000B7FAD4F8E00610F02EFA00BF9DF83E3018
:103B60009DF83D201B0243EA02439DF83F2013438A
:103B7000284A934200F0AB8200F36281264A9342C6
:103B800000F067810132934200F0AD81A2F51A4244
:103B9000033A934200F095820023A8F80030A8F879
:103BA0000230C8F80830C8F80C30AFE102200849EC
:103BB000087003200749087007490B70072323701A
:103BC00045F2F053AEE60323BDE600BFC42100205A
:103BD000C3210020C8210020EF1F0020EDB4000801
:103BE00009BC000829BD000800220020780400203C
:103BF000C221002085B900089430002070100020F8
:103C0000B0100020CC10002044120020D802002068
:103C1000003800401620C20017BA2000C921002039
:103C2000CC240020801000200A221B0193FBF2F319
:103C300000228949A3F5B06341F822300132122AEB
:103C4000FAD142F6F8236380844B40206360844BB2
:103C50002270A36009F064FA824600283FF4A0AE07
:103C60000CF0D4FF96F85D329AF902E0002B0CBFFD
:103C70000622072200280CBF01230323824601925B
:103C80000093784A784B4021704609F0BDF9BAF1AB
:103C9000000F3FF481AE754BC3F80C037CE6102394
:103CA000237042F6F8236380714B40206360714BB0
:103CB000A36009F035FA824600283FF471AE0CF09B
:103CC000A5FF002200280CBF012303239AF902E07C
:103CD0000192009382464FF4E133674AD3E7082309
:103CE000237042F6F8236380644B40206360644B8A
:103CF000A36009F015FA824600283FF451AE0CF09B
:103D000085FF002200280CBF012303239AF902E05B
:103D10000192009382464FF4E1335A4AB3E70023FD
:103D20004FF00C0C58485949594ABEF1060F84F817
:103D300000C003700B70137027D01B22554B4FF43B
:103D4000E13B1A700522544B83F800C0534B1A70A4
:103D500042F6F8236380524B40206360514BA360CE
:103D600009F0DEF9824600283FF41AAE0CF04EFF4F
:103D7000002200280CBF012303239AF902E00192DC
:103D8000009382465B46484A7DE72122414BDFF89B
:103D900044B11A70404B83F800C0404B83F800E0F8
:103DA000D6E70E23237044F6206363803F4B402008
:103DB00063603F4BA36009F0B3F9824600283FF4EB
:103DC000EFAD0CF023FF002200280CBF01230323DA
:103DD0009AF902E00192009382464FF4E133354AAA
:103DE00051E70A221B0193FBF2F300223249A3F5AB
:103DF000B06341F822300132102AFAD142F6F8239A
:103E000063802E4B402063602D4B2270A36009F02D
:103E100087F900283FF4C4AD03234FF0000E90F95A
:103E20000200284A8DE808404021274B09F0ECF8B1
:103E3000B2E5D3077FF5CAAD0C232370234BC4E54D
:103E4000234A934200F0458146DC023A93427FF4D4
:103E5000A3AE802336E100BF2020002015B5000866
:103E600031B5000875BD0008A08601007804002067
:103E700051B4000865B4000865BB0008C9B3000868
:103E8000E1B300081DBB000888120020912100202A
:103E900090210020481F00206C1F0020922100204C
:103EA000D9990008F199000845BA000895B90008A9
:103EB000A5B9000821BE000884200020B1B6000882
:103EC000E1B60008C9BD0008A068060075B9000881
:103ED0001920C20090D00300AC4A9342B9D00132FD
:103EE00093427FF459AE4FF48073A8F80030A8F8DD
:103EF0000230B8F80430B8F800201B02C8F80830C7
:103F00005343C8F80C30012384F8E436D8F80C3059
:103F1000D3B14FF0000A4FEAD3280DF13C0BC24554
:103F20000CDA0AEB08094FEA6909102259464FEAF0
:103F3000C9200EF099FF0F2800F3CE800EF056FF37
:103F4000934B4FEAC8221A602B68924A13F400235D
:103F500018BF0123137096F8B332052B02BF4FF43C
:103F6000C8728D4B1A8006F008F9C8228B4B1A8054
:103F70008B4A137843F0080313708A4A137823F0AE
:103F80000203137040F602022B681A420ED0864AD2
:103F9000864B1A600322864B1A700023854A1370E1
:103FA000854A1370854A1380854A13804FF00109B2
:103FB000B36800212B60834B382283F80090824B3A
:103FC000824883F8009014F095FD0023DFF83482D6
:103FD0007F4A40461360C4F8E83606F059FB7D4B33
:103FE00049469B6C4846642B38BF6423C8F844306C
:103FF00006F086FB3B689A070AD54946022006F080
:104000007FFB029BDB6A642B38BF6423C8F87830DF
:1040100039680320C1F3400106F072FB012105203D
:1040200006F06EFBB6F8E0226B4B072093FBF2F331
:10403000642B38BF642340F60202C8F814312B68A1
:104040001A4214BF0121002106F05AFB012104206D
:1040500006F056FB94F81013062006F051FB0121E0
:10406000082006F04DFB39680920C1F3800106F0F5
:1040700047FB3B680A2013F0140F14BF01210021F5
:1040800006F03EFB29680B20C1F3802106F038FBC7
:1040900029684B0508D596F85C32083B012B9CBF7C
:1040A0004FF4FA63C8F84C32C1F300410C2006F01B
:1040B00027FB4A4A137863F07F0313701BB0BDE8F7
:1040C000F08F2023A8F800304FF480730FE74023CF
:1040D000F8E74FF40073F5E700235BF82320013283
:1040E00050D10133042BF8D1C84618E7013B092B06
:1040F0003EF6D2A8012108460FF06CFF13200FF006
:10410000CDFE2522C57182711221A0660FF0EAFE54
:104110000121A06E0FF054FF3C200CF056FA294606
:1041200001200FF057FFFEF731BA042B3FF411A91D
:104130002B4A92F8F8229A427FF424A9002B3FF4EC
:1041400021A9284AFFF706B983427FF46FA9002B03
:104150003FF46CA9244AFFF728B90B23FFF7A6B850
:1041600042F21072214B1A805A80214A5A60214A29
:104170009A60214ADA60214A1A61214A5A6103236E
:10418000FFF77ABB09F1010AC146ADE71740EF001E
:10419000E82B002072040020E80F0020203F0020C0
:1041A000283D00201C3D0020B82F0020501D00207D
:1041B000641D0020651D00204C1D00209E33002042
:1041C000A0330020A00D0020583400206C1D0020DA
:1041D000681D00205818002040420F005E3F00205C
:1041E00078040020232B01085128010844100020E6
:1041F0009D290108052A010885290108F3290108DC
:10420000A92601081C0000200022454B00B21A70AC
:1042100015F0B4FE434915F005FF0646B9F9E8016B
:1042200015F0ACFE3F4915F0FDFE0546B9F9EC016D
:1042300015F0A4FE3B4915F0F5FE3B490446304617
:1042400015F0E8FD05F0A1FA8346304605F09DFA29
:1042500035490646284615F0DDFD05F096FA8046FC
:10426000284605F092FA30490546204615F0D2FD61
:1042700005F08BFA8246204605F087FA59460290EF
:10428000504615F0CFFE59460390029815F0CAFE2D
:1042900051460490304615F0C5FE0299059030460F
:1042A00015F0C0FE41460690504615F0BBFE1F4C6F
:1042B0000299206008F1004015F0B4FE0599606095
:1042C000A560284615F0AEFE049915F0A3FD0699E9
:1042D000E060284615F0A6FE0146039815F098FD0B
:1042E0004146206106F1004015F09CFE0399606193
:1042F000284615F097FE0146069815F089FD0499A9
:10430000A061284615F08EFE059915F083FD5946EB
:10431000E061404615F086FE2062FEF701BE00BF58
:104320001800002035FA8E3CDB0FC93F101D00201D
:104330002DE9F04FB24BA5B01B780590012B07D1AA
:10434000B049B14A0968496A1180B0490988518069
:10435000AF4C22780692002A00F0DB84072B02D1B2
:104360000CF0E0F80790AB4B1B68580504D5AA4841
:1043700083680BB1A9499847A94BB3F90650A94BDB
:104380001F687A89954280F206824FF07E536360FF
:10439000002240F2E63AA44BDFF8849293F95012DF
:1043A000B3F86A62494293F84D8293F84CC29F4C2D
:1043B00089B239F912004FEA420E831B03F2F31B54
:1043C000D34502F24381002BB8BF5B42022A02F0C0
:1043D0004281634540F3F281A3EB0C03B04224F821
:1043E0000E30C2F242810132032AE2D1894B1B68AE
:1043F00013F4805800F0E481B5F5FA6FA946A8BF20
:104400004FF4FA69B9F57A7FB8BF4FF47A79A9F514
:104410007A79387930B315F0B1FD854915F002FE8F
:1044200007464FF47A7099FBF0F015F0A7FD0146AE
:1044300015F0F8FD394615F0F5FD394682464FF086
:104440007E5015F0E5FC0146504615F0E3FC0746AA
:10445000484615F093FD0146384615F0E3FD12F08D
:1044600015F8814609F57A73E380B8F1000F16D08C
:10447000704B1B68D90012D56F4BDB787BB94FF4BA
:104480007A730FFA89F94FEA093999FBF3F9C6F5FE
:10449000FA631BB203FB09F906EB2936E680674B8A
:1044A0001E88720644D5664BB3F904000A2390FBBC
:1044B000F3F0574B1B89C01A00B215F05FFD61493C
:1044C00015F0B0FD6049044615F0A4FC05F05DF957
:1044D0008246204605F059F9544C0746B4F90200CB
:1044E00015F04CFD8146B4F9000015F047FD51462A
:1044F000834615F097FD49460890384615F092FD21
:10450000089B0146184615F083FC15F067FF5146DD
:104510002080484615F086FD59468146384615F0FC
:1045200081FD0146484615F075FC15F057FF608087
:10453000464B374C1B683C4F13F0140F11D016F448
:10454000027F0ED0424B394A197811F0100100F069
:104550004E81404B518897F9B5021B6800FB03134D
:1045600053803D4B1B78ABB1B7F86C32AB4211DBDB
:1045700097F8B332012B01D0192B02D197F8FC2008
:1045800042B90E2B06D0082B04D00022274B9A806C
:104590000023236297F8365265B3B3072AD02F4B16
:1045A0002F49D3F82090484615F0E4FE002840F04B
:1045B0007F81484611F0E2FF616A15F033FD11F08A
:1045C00065FFB0F5617FA8BF4FF4617015F0D6FCB0
:1045D000244915F027FD05F0D8F88146284615F046
:1045E000CDFC494615F01EFD11F050FF0F4BDA8847
:1045F0001044D8801C4B97F871121D78023135E0B9
:1046000094330020A41D002096330020681200205F
:10461000640B0020F420002058180020660B0020B6
:104620000C2200204C120020802D0020641000205D
:104630000AD7233CF02400203C22002088390020A7
:104640001E3D002035FA8E3CDB0FC93FA03C002008
:10465000283D0020583F0020100000207C3C002016
:104660008FC2753CD06D393A28100020C9B2002D98
:1046700046D0964B9648D3F8F42044F620639A42ED
:10468000A8BF1A46B2F57A7FB8BF4FF47A724FF4DA
:104690007A7392B22285B2FBF3F2642393FBF2F2B7
:1046A000142AA8BF14220368B8F1000F00F0028199
:1046B000B3F836E04FEA5E0ED4F82CC0854B0CF10F
:1046C00001089045A8BF0022C4F82C80A8BFE26270
:1046D000B3F90630E26A04EB4C0CACF8303004EB72
:1046E0004202128E9B1A1BB2002BB8BF5B4273456D
:1046F000D4BF4FF07E520268774BC8BF926B1A60EE
:1047000097F87032002B40F0D880002E40F0DA800D
:104710000025724BA3F85A50714B1B78002B40F0C8
:104720003981704B1878002840F0E6826E4D2B6876
:104730001A0340F1E1826D4C2378033B052B19D815
:104740006B4B664E93F89535002B00F0A282012B3F
:1047500000F0A482D6F8902096F894301344B3F574
:10476000807FA8BF4FF480738342D4BFC6F89030D7
:10477000C6F890002378023B092B00F2AE82DFE8F6
:1047800013F092029F026F03AC02AC0289039C03F8
:10479000340651066106B5F5FA6F387ABFBFAB1A19
:1047A0005843C2F5FA6290FBF2F0C0F1640015F0D4
:1047B000E5FB504915F036FC6060E9E500230DE6A5
:1047C0004B4BB3F86C329D420FDBB5F5FA6F2A46BE
:1047D000A8BF4FF4FA624FF47A79D21A09FB02F2B9
:1047E000C3F5FA63B2FBF3F913E61A46F3E7E3689D
:1047F000DFF81CE1D8789B7878B3BEF90000A5EB10
:10480000000EBEF1000FB8BFCEF1000E9E450EDDCA
:10481000DFF800E18542CEF800104FF00101C8BF7B
:104820005B422174D1889BB20B44D38099E6237CF0
:1048300033B1314B2174D3F800E0304BC3F800E0C2
:104840002F4B61691B6818440B8849889842ECDB40
:1048500081420B46A8BF0346E7E7BEF900E0A5EB9F
:104860000E0181EAE17CACEBE17C9C4515DD022385
:1048700091FBF3F1234B19600123234923740B703F
:104880001F4B61691B689E440B8849889E45CCDBA1
:1048900071450B46A8BF7346C7E7237C002BEFD0BA
:1048A000154B20741968154B1960174B1870E7E702
:1048B00000209BE6B3F936E0FEE6022B2CD0032B5A
:1048C00000F0E380114B5B882AE000BF1C00002051
:1048D000102D00206410002008000020640B002030
:1048E00028100020E02B0020F4200020720400207B
:1048F000802D00200AD7233C3C3F0020443F00206D
:10490000583F00204C3F00205C3F00201C2100202D
:104910002A100020543F0020238D03F57A739BB2A8
:10492000002D00F0CD80734A1068734AB3FBF0F09D
:104930001278451C2DB2092AA4F8585006D16F4EA2
:104940006F4A3788768817805680D38000236D4E53
:10495000B4F95A80DFF8A49106F1080E8B42C0F238
:104960009C80694BA3F85A00674AB2F95A60002E3E
:104970007FF7CEAE00231D461846DFF880E1B2F97E
:10498000587002F1640C5C328B42C0F29F800028A8
:104990003FF4C2AE5D4B00271B78DFF898A1002BD7
:1049A00018BF02255A4BD3F80090534B1B7808933D
:1049B00009F105030693AF4240F3BE80554B93F8CF
:1049C000730200285DD0544B1B689D0059D5534B92
:1049D0001B88590655D44C4D514E95F8843083426E
:1049E00012D085F8840015F0C9FA4E4915F01AFB6B
:1049F0004D49074615F00EFA04F0C7FE70603846C0
:104A000004F0C3FEC5F88800D6F80480A5694146C5
:104A1000284615F007FB276AD4F88860814631469E
:104A2000384615F0FFFA0146484615F0F1F93F49BE
:104A3000814615F09FFC08B9DFF8F0903C494846E4
:104A400015F0A2FC08B9DFF8E89041463846C4F8F2
:104A5000189015F0E7FA31460746284615F0E2FAB5
:104A60000146384615F0D6F93049054615F082FC66
:104A700000B92E4D2E49284615F086FC00B92C4D64
:104A800025620022214B1A704BE697F87232C3EB75
:104A9000431203EB8203DB0041E736F9132039F9B7
:104AA00013C008FB02F292FBF5F23EF813702EF8E9
:104AB00013C0ACEB07073A4426F8132001334DE747
:104AC000B4F85A30013BA4F85A304DE732F91300DC
:104AD0003CF81350704390FBF7F0022BA5EB00005D
:104AE0001D46B8BF02252EF81300EDB2013306981B
:104AF0004AE700BFD0390020943300206410002022
:104B000096330020C00B0020640B002028100020EA
:104B10004C120020802D0020F02400208839002035
:104B20000800002035FA8E3CDB0FC93F00C0F94475
:104B300000C0F9C40AD7233C7B00022F0A93B54B6F
:104B400015BF99F8000099F8010099F802B099F89A
:104B500009B033F9176015F011FA514615F062FAF1
:104B60004FF08041804615F019FC60B14FF0804154
:104B7000404615F04DF9A84915F054FA0146404653
:104B800015F048F98046304615F0F8F9A34915F0BC
:104B900049FAA34B20F0004243F827000C330646A5
:104BA00043F827200A92BBF1000F21D0584615F098
:104BB000E5F9514615F036FA83463146304615F090
:104BC00031FA0A9A114615F02DFA594615F02AFACB
:104BD00059460A904FF07E5015F01AF90A9B01468B
:104BE000184615F017F90146304615F01BFA06462F
:104BF0008C49404615F016FA314615F013FA069B1B
:104C0000804613F8010B069308B315F0B7F9514627
:104C100015F008FA26F0004115F004FA824906461C
:104C200015F0BCFB80BB0021304615F099FB68BB3A
:104C300031464FF07E5015F0EBF801464FF07E50B4
:104C400015F0A4FA0146404615F0ECF98046089BA1
:104C50000C2B05D1404615F0C1FB744B7A009852DD
:104C60007349404615F086FB08B9DFF8C4817149E5
:104C7000404615F089FB08B9DFF8B8816E4BBA00E1
:104C800042F80380013796E65146D7E74FF07E5150
:104C9000D4E7D6F88C000DF000FD5BE50DF0C0FF09
:104CA000C0F17F0056E50022644BC3F89020C3F8A2
:104CB0009820634A1268C3F89C20032323700CE0F9
:104CC0005F4B5E4E1A68D6F89C306433934204D230
:104CD000402010F0D1FB002874D010F0F9FB0646FC
:104CE000002800F0378401232370544B93F8B5203B
:104CF00012B1002283F8B520524B1B78072B05D147
:104D00000BF010FC079BC01A484B988000224B4BBD
:104D10001A704C4C2378072B02D10BF003FC0B903C
:104D2000DFF83091D9F810504F46002D32D1D9F824
:104D300004304846984768B389F82550B9F81C30C4
:104D4000DFF814811BB2C8F80030B9F81E3099F8AA
:104D500026101BB2C8F80430B9F8203040461BB208
:104D6000C8F8083005F0FEFA374B1E88374B1B6831
:104D7000002E40F041849B79002B00F0B684EFF3C5
:104D80001283F02282F31288314ADBB2C9F8102074
:104D900083F311882B4D2A78072A05D10BF0C2FB2B
:104DA0000B9BC01A214B1880244B93F804211C46FE
:104DB0000592002A00F07485013A83F8042125B099
:104DC000BDE8F08FDFF894804027C146D6F89830D0
:104DD00018F8030078B110F015FCD6F89030013FB8
:104DE00003F1FF33C6F89030D6F8983003F1010391
:104DF000C6F89830EAD1D6F8983019F80330002B6D
:104E00007FF46BAFC6F898304FF0FF33C6F89C3094
:104E1000042353E764100020D7A368416F12033BBB
:104E2000D00B002000004843A4707D3F9633002043
:104E300000C0F94400C0F9C47C0B0020640B0020C2
:104E4000382200209433002056180020BC1800207F
:104E50008DA4000858180020341D0020F8A801086F
:104E6000A94A5021A2F10C03019326230292009338
:104E70004920A2F10A03163A06F03CF800287FF414
:104E80002CAF4FF0FF32A14BC3F89800C3F89C2021
:104E9000072313E70523002100939D4B0291019105
:104EA000A3F10802532006F025F800287FF415AF7F
:104EB000964BC3F89800082300E7402010F0DCFA76
:104EC00000287FF40AAF70239248904E90F8E814BF
:104ED000D6F8987003FB010292F85024492F01F292
:104EE000A983DFE817F04A004F005D006300660009
:104EF0006C007000740078007E0082008E009800C4
:104F00009C00A500A900AD00B100BA00C300CC0010
:104F1000D500DE00E700F000F900060163016D0135
:104F2000770181018B0195019F01A901AF01B901B1
:104F3000BF01C501CB01D101D701DD01E301E901C9
:104F4000EF01F501FB01010207020D021302190234
:104F50001D022102250229022D02330239024502D7
:104F600049024D025102550259025D026102650279
:104F700069026D0271027B027F026749674810F087
:104F80001CFC07E0664B674A00936749674B68481B
:104F900010F013FCD6F898300133C6F898309CE630
:104FA000644A6549654810F008FCF3E764496548C0
:104FB000E5E790F8942590F893156348F3E7B0F887
:104FC000CC106248DBE7B0F8CE106148D7E74FF06D
:104FD0007E516048D3E7B6F8A020B6F8A2105E482C
:104FE000E1E75E4B5E481989C9E7D6F8A430DB04D7
:104FF00003D590F838125B48C1E70C23C6F8983007
:10500000C8E790F83B3290F83D2290F83C125648A1
:1050100010F0D3FBBEE7B6F8A8105448AFE72B68F2
:105020001F05B7D5B0F94022B0F942125048BAE78F
:10503000504B5148996CA2E790F8FE114F489EE7FB
:1050400090F8F8114E489AE759430C2303FB0211DC
:10505000014491F852144B4891E759430C2303FB48
:105060000211014491F85414474888E759430C232E
:1050700003FB0211014491F8531444487FE759435C
:105080000C2303FB0211014491F85B14404876E7BE
:1050900059430C2303FB0211014491F855143D4878
:1050A0006DE759430C2303FB0211014491F8561498
:1050B000394864E759430C2303FB0211014491F87A
:1050C0005A1436485BE759430C2303FB0211014491
:1050D000B1F85C14324852E759430C2303FB021128
:1050E000014491F8593491F858242E4891F85714F6
:1050F0008EE703FB01012C4891F81C3491F812242F
:1051000091F8081484E700BF6EA90108640B002021
:1051100028AB0108802D002085CD010891CD010824
:10512000D3CD0108A2CD0108A8CD0108ABE9010843
:10513000B3CD01086ECC010862CC0108D8CD0108BE
:1051400020330020ECCD0108FACD01080BCE010878
:105150001ACE010829CE010839CE0108A43C00204E
:105160004BCE010855CE010862CE01087BCE010866
:1051700086CE01085818002099CE0108A5CE010856
:10518000B8CE0108CDCE0108D7CE0108E1CE010886
:10519000EECE0108FBCE010805CF010810CF0108B3
:1051A0001DCF01082FCF01083ECF010803FB0101ED
:1051B000B44891F81D3491F8132491F8091427E7A5
:1051C00003FB0101B04891F81E3491F8142491F8C2
:1051D0000A141DE703FB0101AC4891F81F3491F854
:1051E000152491F80B1413E703FB0101A84891F86B
:1051F000203491F8162491F80C1409E703FB0101FF
:10520000A44891F8213491F8172491F80D14FFE681
:1052100003FB0101A04891F8223491F8182491F879
:105220000E14F5E603FB01019C4891F8233491F834
:10523000192491F80F14EBE603FB0101984891F84B
:1052400010149CE603FB0101964891F8253491F86F
:105250001B2491F81114DBE603FB0101924891F83D
:1052600026148CE603FB01019048B1F8281486E669
:1052700003FB01018E48B1F82A1480E603FB01010B
:105280008C48B1F82C147AE603FB01018A48B1F886
:105290002E1474E603FB0101884891F830146EE681
:1052A00003FB01018648B1F8321468E603FB0101F3
:1052B000844891F8381462E603FB0101824891F8B2
:1052C00039145CE603FB0101804891F83A1456E674
:1052D00003FB01017E48B1F83E1450E603FB0101D7
:1052E0007C48D1F840144AE603FB01017A4891F862
:1052F000461444E603FB0101784891F847143EE662
:1053000003FB01017648D1F8481438E603FB01019C
:105310007448D1F84C1432E690F84C1272482EE6DC
:1053200090F84D1271482AE690F8FF11704826E671
:1053300090F800126F4822E690F801126E481EE6BF
:10534000B0F80822B0F804126C482CE6B0F80A2233
:10535000B0F806126A4826E6B0F8160214F00EFEFF
:10536000684914F05FFE15F039F80146664806E614
:1053700090F81912654802E690F824126448FEE598
:1053800090F80F126348FAE590F8B0126248F6E51B
:1053900090F870126148F2E590F872126048EEE5FC
:1053A000B0F876125F48EAE590F85C125E48E6E5F0
:1053B00090F8D5105D48E2E590F8D4105C48DEE541
:1053C000B0F8D2105B48DAE54E49D0F8D80014F0B6
:1053D00029FE15F003F801465748D0E590F8F91179
:1053E0005648CCE581685648C9E5564B1B6899017B
:1053F00015D5554EB6F8AC308BB9D6F8B03018A9E3
:105400001893059B0E20199305F0C8FA4FF48053AA
:10541000A6F8AA300A232370059805F00DFB05F0C5
:105420009DFA5AE4484B93F8B420002AF4D0454A38
:1054300012689201F0D493F8B530002BECD1092317
:105440002370ECE7414B404E1A68D6F89C30C833C5
:10545000934211D23E4B93F895755FB9D6F88C0004
:1054600007F0BEFD96F8B630C6F88C70022B01D15D
:1054700006F0CAFD012321E415F02EF90028E9D138
:105480002BE400BF4FCF010861CF010871CF0108A5
:1054900081CF010891CF0108A2CF0108B3CF010845
:1054A000C5CF0108B5CF0108CFCF0108E4CF01086F
:1054B000F4CF010802D0010814D001082AD0010855
:1054C00045D0010854D001086BD0010884D00108F0
:1054D00098D00108B2D00108C7D00108DDD001087A
:1054E000F4D0010809D101081FD101081BD101081E
:1054F0002BD1010837D1010849D101085CD101083D
:1055000070D101080000C84288D1010896D1010875
:10551000A6D10108B7D10108C7D10108E0D101081F
:10552000F4D1010811D201082ED2010843D201089A
:1055300058D201086DD201087FD2010894D2010827
:10554000A2D20108F0240020640B002038220020A1
:10555000802D0020A94991F89635002B3FF4CCAB63
:105560002B68DF044FF000034CBFB1F8EC50B1F8EA
:10557000D050A34F37F913200133AA420CBF304655
:1055800046F001000C2BC6B2F4D19E4D9E4BC6B125
:105590001B6803F59C530833C5F8B8302378012BFA
:1055A0007FF4AAAB95F8B530002B7FF4A5AB91F84A
:1055B0009535D3B105F06CFD012385F8B530FFF7C3
:1055C0009BBB1A68D5F8B8309342E7D82378012BF3
:1055D0003FF492AB95F8B530002B3FF48DAB05F05E
:1055E00039FD85F8B560FFF787BB80200BF01EFE04
:1055F00000287FF481ABDDE75B78D9F8482007937A
:105600004FF47A73B3FBF2F3AB46C3EB431203EBF5
:105610008203DB009BB2059323787C4C0C937C4B7C
:1056200004F13C09B3F90630CDF820800693059BC0
:105630005B080E93059B4FEA850A9E4202BF00233A
:1056400049F825302361089B53F8250059F8253087
:10565000034449F8253014F091FC226902F1010855
:10566000B8F1010FC4F8108040F0A1800023606001
:105670002060A360089B012E1A464FF000034AF8F1
:1056800002304FF00002634B4AF8032040F0E28002
:105690002069012840F3AF80013814F06FFC014607
:1056A000E06814F073FD11F0B1F90C9B8046032BF8
:1056B00005D110F0EBFE4FF0010B03B20693079BF0
:1056C000002B00F0BD80184614F058FC414614F041
:1056D00047FE002800F0B480BBF1000F03D04C4B14
:1056E000BDF81820DA8004F048FDDFF84C914FF047
:1056F000000BCA46DFF84481474C464B54F82B0058
:1057000053F82B304FEA8B05C01A44F82B0014F0E5
:1057100035FC424B996914F085FC99F8003001463C
:10572000032B06D1059010F0B1FE394B059923F8F3
:105730001B003B4A3B4BA8581B6898479AF800301F
:105740000146082B06D1059010F0A0FE304B0599BC
:1057500023F81B00344A354BA8581B689847344A35
:10576000344B01461B68A85898470BF1010BBBF15D
:10577000030F48F8040FC0D1002E3FF40BABBD69F6
:10578000F86C294614F002FD10F080FE29462060D6
:10579000386D14F0FBFC10F079FE29466060786DDE
:1057A00014F0F4FC10F072FEA060FFF7F3BA226868
:1057B000109011460F9214F02BFB0A90404614F003
:1057C000DDFB01460A9814F0E1FC0F9A114614F033
:1057D00021FB109B014680466060184614F018FBC0
:1057E0000A9914F01FFCA16814F014FBC4F800809F
:1057F000E060A0603EE7002055E700BF802D00205C
:105800009A2A0020640B002038220020200C00205F
:1058100096330020401D0020341D00205818002021
:1058200014190020B0180020A41C0020B418002077
:10583000041D0020B818002094330020A018002078
:105840000E9A5AF809301344059A93FBF2F3104A62
:1058500042F80A300135032D04F114047FF4EAAE56
:10586000BBF1000F03D00B4BBDF81820DA80012EDE
:1058700008D10022084B30461B689A621A63DA622C
:1058800007F024FF054A1388013B13802DE700BF72
:10589000401D002096330020A41D00205618002033
:1058A000AA4B93F80122002A00F0488193F8F831BE
:1058B000013BDBB284F804312B78072B02D10AF0CC
:1058C00031FE0D90A24B4FF07E501B68069363682B
:1058D0000A93D4F808311946089314F099FA9D4BAD
:1058E000196814F09FFB4FF07E51079014F042FDB1
:1058F00010B94FF07E53079300254FF0000B964BE5
:105900000B93964B964F53F8258059464046AC0072
:1059100057F8256014F01AFDD0B9F43757F82590E0
:105920003046494614F074FA824620F00041404661
:1059300014F016FD58B15946504614F02FFD0028BA
:1059400000F0FE804946404614F064FA06463E5197
:10595000844BB3F8009019F0030F3DD0022D3BD0DB
:10596000069B93F8340014F009FB7F4BE15814F0C8
:1059700059FB069B804693F833A0CAF1000014F04F
:10598000FDFA07460146404614F0EAFC40B950468D
:1059900014F0F0FA4146074614F0ECFC00B9474613
:1059A0006A4B03EB4503B3F92002704B33F9153012
:1059B000184414F0E3FA6E4914F034FB01463846FB
:1059C00014F026FA19F0010F074600F0F780694B32
:1059D000196814F027FB06460B9B304653F8049FCA
:1059E00049460B9314F014FA8246634B0A98E15827
:1059F00014F018FB514614F015FB022D804606D119
:105A00005E4A5F4B01461B681068984780465D4BB5
:105A10004FF07E510898E75814F0A2FC00B35A4B9F
:105A20000798196814F0FEFA584BE15814F0FAFA86
:105A3000514614F0F7FA564B8246196826F000409A
:105A400014F08EFC28B1534B5046196814F0EAFA52
:105A500082463846514614F0DDF90746494BE0507E
:105A6000022D40F0E5803946404614F0D3F94A4E05
:105A7000C6F82001404614F0B1FCC6F82C013846A7
:105A800014F0ACFC0023C6F83801C6F84431434B8F
:105A90001B7813B9424B44F803B00135032D7FF452
:105AA00030AF404C2278072A05D10AF03BFD0D9B10
:105AB000C01A3D4B58802378374D012B40F023818D
:105AC0000AF030FD3949D5F85031374A0968C31A10
:105AD00093805B1A0990D380C5F850011C4B1C6859
