:020000040800F2
:10000000005000207991010815920108D942010899
:1000100015920108159201081592010800000000D0
:100020000000000000000000000000001592010820
:100030001592010800000000159201081133010813
:1000400015920108159201081592010815920108F0
:100050001592010815920108E1FD0008EBFD00086A
:10006000E9FD0008E7FD0008E5FD00084576000809
:100070003576000825760008157600080576000814
:10008000F1750008DF750008159201081592010846
:10009000159201081592010815920108E3FD000868
:1000A00015920108513001081592010841300108EC
:1000B0003530010825300108153001082B7900087A
:1000C0003179000821790008277900081592010884
:1000D000159201089D3C0108913C0108873C0108EC
:1000E000DFFD0008159201081592010800000000CC
:1000F0000000000000000000000000000000000000
:0C01000000000000000000005FF808F1A3
:10011000134A144B2DE9F04F1A600022124BA1B084
:100120001A6009F0F5F818B909F0E2FC0FF0BEFE0C
:1001300009F014F90D4A137843F0010313700C4AC7
:100140000C4B116899424FF0000319D1136062B64D
:10015000094B18680AF048FC084B1B689847FEE7F3
:1001600005930008401A0020441A0020B5410020E1
:10017000F04F0020EFBEADDE00F0FF1F04F0FF1FC8
:1001800009930A930B934FF4E013B74C0C93236835
:1001900043F480332360A36943F01003A361236811
:1001A00003F400330A93099B013309930A9B1BB99B
:1001B000099BB3F5A06FF2D1236813F4003300F06C
:1001C000898602230B93A94BA94F1A6842F01002AB
:1001D0001A601A6822F003021A601A6842F00202DA
:1001E0001A606368636063686360636843F4806394
:1001F0006360A04B1A68043B22F070425A609E4A2A
:100200003A60626822F47C1262605A6842F00042EE
:100210005A60DA6822F40042DA609B681D0449BF24
:10022000964B4FF4E0133B604FF480130C930B9B01
:10023000012B00F06886022B05D10C9B62681343EA
:1002400043F480336360236843F080732360236842
:100250009801FCD5636823F003036360636843F08F
:1002600002036360636803F00C03082BFAD1636830
:10027000834D03F00C03042B00F04A86082B00F09A
:100280004A867D4B4FF6FF714FF0000B2B60636881
:100290007C4AC3F3031313449A782B68DFF834A223
:1002A000D3402B60784A794B0DF18009DA60A2695E
:1002B000029342F00102A261626A754ECAF8002000
:1002C000626A304642F080726262A2690DF1800873
:1002D00042F01C02A26129F82C1D49468DF856B047
:1002E00007F042F949466B4807F03EF949466A482B
:1002F00007F03AF910218DF83A1002218DF83B10E1
:100300004FF4007128F8481D30463161414607F02E
:100310002BF96248416841F00071416048460AF09B
:1003200048FA5F49159A0AF10400B2FBF1F25D49FF
:10033000DFF850910A601822594617F08FF84FF4F1
:100340007A712A68029BB2FBF1F25749013A4A607E
:10035000F02283F823200723C1F808B04FF0010CE6
:100360000B60314656465148514ADFF86CE1002394
:1003700030F8025F45FA03FA1AF0010F18BF0CFAC1
:1003800003FA03F101031EBF1160A2F804A00C32AE
:10039000102BEFD101F580617145E8D1454D464BF9
:1003A00095F8EB211A703B68334A934240F0C685BA
:1003B0000122424B1A700021AB68414F08463B6056
:1003C0000FF0F2FC002101200FF0EEFC4FF0170BB4
:1003D00000234FF0020A3B4A52F82300013358B180
:1003E000037280F806B080F807A0122103920293EE
:1003F0000FF0FEFA039A029B032BEDD10021084671
:100400000FF0D2FC002101200FF0CEFCA3694022A6
:1004100043F00103A36100212B4817F01FF84FF0B0
:10042000FF332A4AF361C2F803303B681A070AD542
:1004300095F84032012B06D8346895F8423214F012
:10044000805401F0A087642012F014FFA022002144
:100450001F4817F003F80024DFF880A00AF1A80B6A
:10046000002354F80A003BE0001002400020024044
:100470009C0000200410014000127A00001BB7000D
:10048000B4020020509401080005FA0500ED00E0D8
:1004900000080140000C0140001001400000014034
:1004A00040420F00E434002010E000E052B50108A3
:1004B00070260020E8340020461C0020BC080020E4
:1004C000D825002048B501088C2F002024040020E6
:1004D0008C330020080400200014014064940108BB
:1004E0005BF83320D900904240F05A8509EB0103B4
:1004F00093F8C0000C3412F029FFA82CB0D14FF0B3
:100500000509B74BB74ADFF814A31A6000213C2253
:10051000B5483C688AF8009016F0A0FF00234946D1
:1005200018464FF0FF09DFF8F8E2DFF8BCC204F02C
:1005300040071EF9012F03EB0C0B03F80C204FB9F9
:100540001E3AD2B2012A9FBF012001F1FF318BF880
:100550000090C9B20C333C2BEBD108B18AF80010E3
:1005600095F80590A14BA24A83F80090A14B40F268
:10057000DC51B362D8331360A3064CBF01239E4BFA
:100580009E4A5CBF03EBC9035B78F362002322F849
:1005900013100133082BFAD11A220021404616F01D
:1005A0005DFFB9F10E0F04D009F0EF09B9F1080FA2
:1005B00002D101238DF84A3001200BF011FA18B155
:1005C0004088003018BF0120003718BF0127C4F34E
:1005D00040038DF84030C4F340338DF83830C4F315
:1005E000C0338DF83B3014F400638DF83D008DF876
:1005F000427004D095F82232581E434243418DF890
:100600003C30C4F300438DF84330C4F3C0038DF88D
:100610003A30F36A04F00108003318BF01238DF863
:100620004430C4F300538DF84530B5F8D2308DF81E
:100630003980ADF84830B5F8E03004F00807ADF87F
:10064000463095F8E330002B40F0B18495F8E23065
:1006500013F0FB0F0CBF0123002395F8E220039356
:10066000002A00F0A784111F18BF01218DF8411046
:100670008DF84B200BB1B5F8DE30ADF84C30B5F845
:10068000D030E104ADF84E3044BFB5F8DA30ADF803
:100690004E30042A06D14FF480500FF0DFFB0023C8
:1006A000ADF84E3095F88C22554B00211A70554804
:1006B000642216F0D3FE9DF84A30002B14BF0223AB
:1006C0000023B8F1000F00D107B101334FF000094A
:1006D000CA464D4A4D4F02EB8303D3F8DC300592F6
:1006E000991E1A3302910493029A32F8023F029241
:1006F0004FF6FF72934200F0D8809DF83D20DCB2A7
:100700001B0A5FFA83F81AB1A21E012A40F2C880C0
:100710009DF8422042B10C223B4902FB0412516970
:100720003B4A914200F0BC809DF8432042B10C212D
:10073000354801FB040148693549884200F0B08022
:100740009DF8401039B10C212F4801FB0401097EAE
:10075000142900F0A5809DF83B1039B10C212A48DE
:1007600001FB0401097E112900F09A809DF83C10DC
:1007700039B10C21244801FB0401097E212900F034
:100780008F80022B40F019849DF83830002B00F048
:1007900087809DF8443083B19DF84A306BB9A4F14D
:1007A0000803012B09D80C23174903FB04135969CB
:1007B000184B994208BF4FF004080C25164B05FB57
:1007C00004359DF845306BB39DF84A3053BB002A81
:1007D00000F0FA83A4F10C03012B40F2C68421E05F
:1007E0005C3A00208C370020603A0020C0110020C5
:1007F000A8340020F434002000AB0108BE0800201B
:10080000342F0020D0080020509401080804002054
:1008100000040040002C0140649401086C24002076
:10082000739D0108B8F1010F40F0D1830C23059AA4
:10083000002603FB0424FF22CA4B207E87F8306089
:10084000FD6383F8442083F845201E705E609E603F
:10085000DE601E6483F8466083F8476083F8486072
:100860000FF0A2F80222D4F81490827180F8078069
:100870000672217F0FF0BCF83246617E48460EF0CA
:10088000D4FE42463146284612F08CFCB64BB74A9D
:100890003B64B74BBE647B64111F284612F0DAFB41
:1008A000049B029A93427FF41FAF0024039BB14D37
:1008B00083F00102B04B2C701A70B04B1E78A6F179
:1008C0001703022B00F27E844FF0000BDFF8B0A27A
:1008D000DFF8DC92DAF828305946185903EB04089F
:1008E00018F0E8F9002800F05E84A54CE36A002BBC
:1008F00040F08384A34F3B68DB0400F1CD8406F015
:10090000EF03082BA04B40F0EC841A78182E42F02D
:1009100010021A7001D112F081FA12F061FA9B4AAA
:100920001C20137843F004031370994B1A789846EF
:10093000012A8BBF01260026002501250FF034F87F
:10094000944A1060944A167058B1112282710222A2
:10095000C2710022954202720CBF122116210FF0C3
:1009600047F800200EF01CFC22200FF01DF8152285
:10097000012682710222894DC271067212212860FD
:100980000FF036F82868864D00210FF003FA287E14
:1009900012F0DCFC2B7E03F01F025B09022B06FA2F
:1009A00002F600F0A884032B00F0AB84687D0EF003
:1009B000FBFF4FF00C090B234FF0020AC37180F8C4
:1009C000069080F808A00646E87D0EF0EDFF0D23A6
:1009D00080F80690C37180F808A0A87D0EF0E4FFAF
:1009E0001B2180F8069080F8079080F808A0304618
:1009F0000EF0FEFFE87D0EF0D7FF07210EF0F8FFA6
:100A0000A87D0EF0D1FF1B210EF0F2FF287D20B152
:100A10000EF0CAFF13210EF0EBFF2B69614A9342DF
:100A200040F0758402F56042D16841F48051D16094
:100A3000D16821F48051D1602A7F002A00F084849B
:100A400000221046198801F4415141F445710A43CE
:100A500002431A809A8B287D22F400621204120C41
:100A60009A8307221A821A8892B242F040021A80B0
:100A700018B10EF099FF0FF088F92C200EF094FFBA
:100A80009F238DF8343000230290C4F810013220E7
:100A90008DF835308DF836308DF8373012F0EAFBAE
:100AA000D4F810010FF06CF904220DA915A812F06A
:100AB00089FCD4F810010FF068F99DF856309DF8C4
:100AC00055201B0243EA02439DF857201343364A40
:100AD00093421DD0322012F0CDFBD4F810010FF05C
:100AE0004FF9F52012F0A6FCFF2012F0A3FC8DF8C0
:100AF0005400D4F810010FF048F99DF85430702BD1
:100B000006D198F80030022B02D1032388F8003078
:100B100098F80030032B0CBF1F2002200AF0DBFEE8
:100B200098F80030032B00F01384012006F092FDAA
:100B30003E6814271D4D3A460021284698F800804B
:100B400006F4004A16F08AFC16F0020F06F400695B
:100B5000284618BF2F70BAF1000F2BD011236B71EC
:100B600028E000BF3C2F002091F600084C04002034
:100B7000E9F70008DB1C002088330020C0110020AA
:100B800008040020D825002035190020B541002098
:100B9000BC08002030280020342800202C28002009
:100BA000700300200030014015202000281C002088
:100BB000E0100020B8F1010F84BF15238372B9F152
:100BC000000F01D02123C373B44E4FF00F083746F6
:100BD00000254FF00609DFF8F4A20AF1EC0B387893
:100BE000F8B10EF0E1FE002380F80690194603727A
:100BF00080F8078003930EF0FBFE039B3A781946BA
:100C00001BF811004B00904240F0AE83534493F820
:100C1000ED3007223A7101227B706B1CBD70FA70B7
:100C2000DDB208F101085FFA88F8B8F1130F07F197
:100C30000507D4D19A4A492053689A4F43F4404358
:100C4000536012F083FB202012F080FB954809F0DE
:100C50002CFE15A809F0FEFD934B022D1593934B26
:100C600028BF802216934FF0000338BF1A461A920D
:100C70004FF480721B924FF480621C9220221D92CE
:100C80004FF4005215A938461E92179318951993E0
:100C90001F9309F0ECFD012D94BF002201223B6857
:100CA000834943F001033B604B68013D23F470230B
:100CB00023F4807343EA02234B608A687D4BEDB2D4
:100CC000134043F4602343F002038B60CB6A072791
:100CD00023F4700343EA0555CD6201231F25DFF895
:100CE000F0E1F2784AB396F80180581CB8F1090F88
:100CF000C0B296F804C040F23D83A8F10A02D1F8D0
:100D00000C9002EB420207FA02FA29EA0A090CFAED
:100D100002F242EA0902CA60062B00F2388303F1AC
:100D2000FF3C4A6B0CEB8C0C05FA0CF322EA030334
:100D300008FA0CF21A434A6303460536B645D0D189
:100D40005B4B9A6842F480729A609A6842F00102A2
:100D50009A609A6842F008029A609A681507FCD473
:100D60009A6842F004029A60514B9A685007FCD48A
:100D70009A6842F4A0029A604F4BD3F8C801002849
:100D800000F0228300224D4B00B21A7017F0AAFD2A
:100D90004B4917F0FBFD484D0746B5F9CC0117F05C
:100DA000A1FD474917F0F2FD0646B5F9D00117F04D
:100DB00099FD434917F0EAFD42490546384617F0C8
:100DC000DDFC09F0DCF88146384609F0D8F83D49E9
:100DD0000746304617F0D2FC09F0D1F8804630467D
:100DE00009F0CDF837490646284617F0C7FC09F048
:100DF000C6F88346284609F0C2F849468246584656
:100E000017F0C4FD49460390504617F0BFFD594600
:100E10000490384617F0BAFD51460590384617F051
:100E2000B5FD41460690584617F0B0FD264D514697
:100E3000286008F1004017F0A9FD05996860AE60D0
:100E4000304617F0A3FD049917F098FC0699E86066
:100E5000304617F09BFD0146039817F08DFC414684
:100E6000286107F1004017F091FD03996861304651
:100E700017F08CFD0146069817F07EFC0499A861D6
:100E8000304617F083FD059917F078FC4946E86174
:100E9000404617F07BFD2862A0E200BF281C00201E
:100EA00000100240080002404C2401403C1C00207D
:100EB00000240140FDF7F1FFE8340020A0000020ED
:100EC00035FA8E3CDB0FC93FFC1B00205094010813
:100ED0003C1C0020226842F0010222600993236832
:100EE00003F002030A93099B013309930A9B1BB980
:100EF000099BB3F5A06FF2D123689E0702D50123A9
:100F0000FFF760B9FEE7636843F46013FFF79AB92F
:100F10003B68FFF7B7B963686268C3F38343D103E3
:100F200003F1020303D4C64A5343FFF7ABB9626827
:100F300012F4003F3A6818BF5208F5E7C14A9342DD
:100F40007FF439AA0222FFF734BA002108460EF0D6
:100F50002BFF0021706A0EF01DFF782012F068F957
:100F6000012100200EF020FF0121706A0EF012FF17
:100F7000782012F05DF9013495F842329C42E4DBAE
:100F800095F84332012B7FF45EAA336813F0805347
:100F90007FF459AA85F842320FF040F8FFF753BAB0
:100FA0000133042B7FF49CAA0020FFF7A3BA01238E
:100FB000FFF753BB1146FFF759BB012B7FF4E9AB99
:100FC0009DF83930FFF7E2BB231F032B05E4B8F18E
:100FD000020F43D14FF01C080C204FF0000B0123EF
:100FE0005FFA8AF2984908FB02F800FB041407EB49
:100FF000080686F8312086F83030207E86F832B038
:1010000086F83AB0F563079206930EF0CDFC079A86
:10101000069B01328371C3710272217F0EF0E8FCDE
:101020005A46617E60690EF000FB069B59461A46DF
:10103000284612F0B7F8854B08F114023364844B4C
:1010400008F110017364834BC6F848B01A44194480
:10105000284611F0FFFF0AF1010A21E4B8F1030F5D
:101060007FD19DF839309DF84B208BB182B10C2196
:10107000754B01FB043463694B4509D1531E032BA7
:1010800006D8DFE803F0023C3A3C0821724B1970A5
:101090009DF84130714CBDF84C00002B38D0022A2D
:1010A00094F801B0BDF84E302BD0032A6C4A6D4E37
:1010B0000EBF482116460821DFF8B88120B36A4ADE
:1010C0004A43B2FBF0F292B228460EF0F5FC192228
:1010D00048F82B0058F82B30DE60A37804EBC303EC
:1010E0005A71A378627804EBC3010A7101328D60F2
:1010F00062700133A370FFF7D3BB4821C6E7182104
:10110000C4E75A4E1821D7E703464FF6FF72DBE7D4
:10111000042A667811D1564A1821B2FBF0F228460B
:1011200092B20EF0C9FC534B0D2243F82600524BED
:10113000C360A37804EBC303D2E74B4ABDF84E303B
:10114000B2FBF0F2012192B228460EF0B5FC494BF9
:10115000092243F82600494BC360A37804EBC3037C
:10116000BEE7B8F1040F7FF49BAB3C4C3E4AA3783A
:10117000267804EBC3031E71BDF84630012192FBB3
:10118000F3F22846BDF8483092B20EF095FC0A21E1
:101190003B4B43F82600A37804EBC302517122783D
:1011A00001322270A5E704EB090798E80F0087E8F1
:1011B0000F002B7810340133C02C2B707FF48AABD6
:1011C000FFF793BB2F4B13F836E003EBC603D3F8BE
:1011D00004C085F800E0BCF1000F3FF486ABDFF8F7
:1011E000B0807445BFF681AB230103EB080763446D
:1011F0000FCB013487E80F00F3E7234B234A13F8A2
:10120000360003EBC6035F681070002F3FF472AB2B
:101210000023DFF880E08342BFF66CABC3EBC30171
:101220007A18D2F8008001EB0E0C41F80E809188FC
:101230000133ACF8041092798CF80620EBE700BF7C
:1012400000093D00001BB700509401084DF800084C
:1012500069F600083804002064030020D00800204C
:1012600009F90008A9F8000840420F00DDF800085D
:1012700000366E014033002029F8000819F80008F4
:10128000CC2F002000AB01081CAA01083434002038
:10129000E0100020353400202B78012B7FF62FAB97
:1012A0004FF07C59AB4D05EB031303F110081035DB
:1012B00045453FF424AB494655F80C0C17F066FB46
:1012C000494645F80C0C55F8100C17F05FFB4946E1
:1012D00045F8100C55F8080C17F058FB45F8080CA9
:1012E000E5E70E2E3FF411AB1A78192E22F010020A
:1012F0001A70FFF70FBB984BDA681643DE60FFF7F2
:1013000055BB954B1A6916431E61FFF74FBB934AB5
:1013100093420BD102F5EC32116941F48041116125
:10132000116921F480411161FFF786BB8C4A934219
:101330007FF482AB02F5EA32116941F40041116198
:10134000116921F40041EEE701220220FFF77ABB88
:1013500002200AF045FB00283FF4E7AB4388002B4E
:101360003FF4E3ABFFF7E4BB01310A297FF448AC5B
:1013700000234EE40A6908EB480A07FA0AF922EA50
:1013800009090CFA0AF242EA09020A61C4E40C2BC8
:101390000DD8DA1FD1F830C002EB820205FA02F351
:1013A0002CEA030308FA02F21A430A63C4E40D3B71
:1013B000CA6A03EB830305FA03FC22EA0C0208FA6B
:1013C00003F31343CB62B7E4D3F8CC21002A7FF4B4
:1013D000D9ACD3F8D031002B7FF4D4AC4FF0000857
:1013E000DFF8A4B1DFF8A491BBF9F031182241462F
:1013F000C9F80080C9F80480C9F8088059480493E6
:101400009BF8D571BBF8D8A19BF8DA6116F026F8E5
:10141000554B564D1A784146012A98BF013DA4F814
:10142000148118225248059316F018F82320C4F8A6
:10143000305111F01FFF0DF122020121752012F031
:10144000B3FA4C4D002845D04B4B0DF12302C4F8A4
:101450001C314A4B0121C4F820314323404684F813
:10146000183112F0A1FA9DF8233003F07E038DF8B5
:101470002330002840F08C809DF8223003F07E035A
:10148000682B8DF8223040F0ED820223062185F88A
:10149000143115AAD5F81C31084698479DF85930E3
:1014A0009DF857209B00520002F0020203F0040353
:1014B00013439DF8552002F001021343DAB2002BCA
:1014C00000F0C282012A40F0B3820022294B83F847
:1014D000152166E094F8343113BB029A0299C4F8DE
:1014E000382114228A710E22CA710A460B721046E4
:1014F00013210EF07DFA194A138823F040031B04D0
:101500001B0C1380138823F038031B041B0C13805F
:1015100013889BB243F040031380012384F83431D5
:1015200015AA012175200BF061FA9DF85430A3F142
:101530007002012A01D9AF2B33D1052385F814316C
:10154000432385F818310E4BC5F81C310D4BC5F8F7
:10155000203126E0E4100020001002400038004056
:10156000003C0040D81B0020BC080020519401081A
:101570002005002008040020A93901081D390108B0
:10158000EDC900081DCA0008E83400201C2800200E
:10159000682B7FF471AF012384F814311D2384F884
:1015A00018310020BC4BBD4A93F814E11070AEF125
:1015B00004010129039300F2BB820121117007226B
:1015C000B74CB84B40F2FD182360B74B6360B74B84
:1015D000E360B74B2361B74B1A70B74B1A6842EA06
:1015E000010CC3F800C040F2026C0B2F3B4628BF31
:1015F000002301FA03F717EA0C0F40F0E98617EA17
:10160000080F00F0E586BEF1040F40F0DD860121F1
:10161000AA4B42F00302C9F80030A94BC9F80430C4
:10162000A84B19700821A34B5970A34B1A60A24B09
:101630001B68990705D54FF48073A348038103689D
:1016400098471AF0FF0000F01382072816BF4FF4E6
:101650007A737D230126711E5E438F4A9B4F236858
:1016600082F83C11666198473B78002B40F002827B
:10167000974B1B88002B40F02F82964B1B88002B2A
:1016800040F02A829BF8C5310BB1844A13709BF855
:10169000C6310BB18B4A1370874B8F4C1B6813F00C
:1016A000080F00F042826420049B93FBF0F600FBDD
:1016B000163000B217F016F9884917F067F9074697
:1016C000304617F00FF90146384617F057F88449AD
:1016D00017F05CF920600121824A084613780A2439
:1016E00043F0020313700EF05FFB002108460EF07A
:1016F0005BFB01200EF04AF900200EF047F919209B
:1017000011F0B8FDDBF85435DA0302D401200DF0F6
:1017100047FD192011F0AEFD00200DF041FD013C08
:10172000E7D1214620460EF03FFB214601200EF076
:101730003BFB6D4B6D4E1B68187B17F0D3F86C4963
:1017400017F024F96B4917F019F808F018FC6A4BE8
:1017500067491860524B186917F018F9674B186001
:1017600011F09EFB664B1E22FF21184615F076FEF7
:101770000122644903460A703268047012F4800F33
:1017800001BF02230B701B2343704B4B1F68BB0729
:101790000ED54FF0010E0B7800F803E003F1020EB6
:1017A00081F800E04FF0020E0133DBB200F803E0F5
:1017B0007B0706D50B7803F1010E81F800E00321C9
:1017C000C15417F00A0F0FD004214FF0050E4D4FF2
:1017D0003B78C154591CC9B200F801E0D91C3970DA
:1017E00006210233DBB2C15412F4807F454B04D092
:1017F00019784F1C1F701A2747549BF805100829A9
:1018000001D00E2908D11F7807F1010E83F800E0FE
:101810004FF00B0E00F807E04FF00C0C1F7812F49D
:10182000803F07F1010E00F807C05FFA8EFE18BF77
:10183000023783F800E01EBF1F700E2700F80E70FD
:1018400012F4002F2E4806D01F7807F1010E83F8FE
:1018500000E01923C3554FF01D0C2A4B12F4805F92
:101860001F7807F1010E00F807C05FFA8EFE18BF5F
:10187000023783F800E01EBF1F701C2700F80E70AF
:10188000970641D51F7807F1010E83F800E04FF06D
:10189000070E00F807E037E0080400208C0900205C
:1018A000D81B0020693B01088938010875380108F8
:1018B00090C1793DB802002018280020413C010861
:1018C000CD380108B83200201C280020F81900206B
:1018D000FA190020FC190020943200208988883CE5
:1018E00000002041B5410020301A0020D8250020FA
:1018F00035FA8E3CDB0FC93F98320020843200203D
:101900004226002041260020570708D51F7807F1FE
:10191000010E83F800E04FF0100E00F807E05703C7
:1019200008D51F7807F1010E83F800E04FF0120E82
:1019300000F807E0520507D59BF8D02222B11A78AB
:10194000571C1F701327875418290DD116224FF0EA
:10195000170E1F78C2557A1CD2B200F802E0FA1CAA
:101960001A70BB1CDBB2C15498220021744815F0D8
:1019700075FD11F0E5FD734A734BBBF8DC101A607E
:10198000724BDFF8F8E11980002377467049DFF8E1
:10199000F0810B808B706F49DFF8E8C10A606E4AF6
:1019A0001370BBF8482211B2D8F800002EF81310BB
:1019B00000F596704CF823000133122BF4D13068F7
:1019C000C30458BFBBF95412F980644901F1500EA9
:1019D00091F8A534B3B991F8A73491F8A8C4634538
:1019E00010D2002B00F0A880013B03EB830303EB34
:1019F000830391F8A6C403F561739BB20CF1040C48
:101A000027F81C3004318E45E2D1030740F1D38022
:101A10009BF84072082F00F2C880DFE817F0BF0083
:101A2000CC02CF020B032C034D034D038E03B303F3
:101A3000022A01D1012249E503F00303032BF9D067
:101A4000032011F021FCACE5D5F81C310DAA0121D1
:101A50000C2098479DF8343013F00F03F0D0042B7E
:101A6000E8D132E5702B04BF042385F8143198E5E2
:101A70007D23F0E56369002B3FF4FAAD0026DFF823
:101A80000881DFF80891DFF808A198F80030012BF1
:101A90000FD1387816F022FF01461C20304B6269C6
:101AA00000FB063012F0B0FE0136032E3FF4E0AD2D
:101AB000EBE743B9606916F011FF514616F066FF77
:101AC000284B1860F0E74FF4F870A28A397800FBD1
:101AD000069012F0BFFDE7E7234E7369002B3FF439
:101AE000D1AD0024DFF8AC80DFF8AC90B9F800008D
:101AF00016F0F4FE012701461C4800977269204445
:101B0000D8F8003012F0F4FD194B188816F0E6FEF4
:101B1000184B01461848009720441B6872691C3412
:101B200012F0E6FD542CE1D1ACE500232360D2E5B0
:101B3000012011F0A9FBCEE50CF1010355E700BF30
:101B40009C3A002020370020C0130020BE13002044
:101B50000C260020AC1C00208C130020E834002050
:101B6000E4090020380A0020D81B00203010002093
:101B7000FC190020041A002084100020DC2500201D
:101B80000826002044130020FE190020600A0020CF
:101B9000BD378635001A0020FA19002045F2F052B0
:101BA000CB4B1A8011F08BFD28B908200EF056F9A6
:101BB000C84AC94B1A6042F201033268C7491A4247
:101BC00011D044F62060C24B9704188004D5082336
:101BD000C3480B70C04B1860D00704D50C23C14814
:101BE0000B70BD4B18604FF000080B78BE4F043BE4
:101BF0004B70DFF84093BD4BD203C7F8403189F8F2
:101C0000008040F1D1804FF0010A12F0A5F840F2B7
:101C10002A32414607F5A27089F800A015F01EFC93
:101C2000DFF81493B249D9F81430D1F8882015A8F8
:101C30001343C9F81430AF4BC1F88C80C1F8803021
:101C400091F885308DF855A08DF854308DF8568078
:101C50008DF857A011F098FB16200DF0A5FE162266
:101C60008271022280F80880C2711B21C7F87004BB
:101C70000DF0BEFEA04BA14803F1BC0252F8341097
:101C80004FEAC40E814240F0A482734493F8C0002E
:101C900011F05CFB9A4B994C1B689A4A4FF0010A71
:101CA000B3FBF2F322884FF0000822F45C721204B6
:101CB000120C22801D22013B9BB2A2852385A4F831
:101CC00014A0238C23F001031B041B0C2384238CFE
:101CD000A188228B23F0020322F0730212041B045A
:101CE000120C1B0C89B242F0600243EA0A03A18085
:101CF0002283A4F834802384238B23F008031B045D
:101D00001B0C43F008032383B4F844306FEA4343C9
:101D10006FEA53439BB2A4F84430D9F8143043EA35
:101D20000A03C9F81430DFF81492484608F0BDFDE4
:101D300015A808F08FFD744B15A91593734B4846F1
:101D400016931023179340F22A33189380231A9383
:101D50004FF480731B934FF40053CDF864801E93AF
:101D6000CDF87080CDF87480CDF87C8008F07FFDD0
:101D7000A389FF219BB243F40073A381D9F80030FB
:101D8000444643F00203C9F800304346604885F8F2
:101D900074A41A181C520433802B9170D170F8D19E
:101DA0000BF054FA0BF052FA33685B0557D5DFF8A5
:101DB0009081584BD8F8002004201A6009F052FE98
:101DC0000421C5F8780409F01FFED8F80020524B12
:101DD00085F87C0408201A6009F044FE4F4B082166
:101DE000186009F011FE4E4C002185F87D042C226C
:101DF000204615F033FB7C2323708E236370E02391
:101E0000E3707D23D8F8002084F82B30454B202048
:101E10001A6009F027FE2021C5F8800409F0F4FDBE
:101E200085F88404102009F01DFE1021C5F88804EF
:101E300009F0EAFD3B223C4B85F88C041A70012224
:101E40005A703A221A719F229A711E221A72A42283
:101E50005A7200229A72DA721A730FF0A5F8059B73
:101E6000324C1B78022B40F01B822588002D40F05D
:101E70001782039B13211A46029BC2F890340F234A
:101E8000029A93710E231046D37115720DF0B0FDB6
:101E9000039BD3F890040DF078FF254A3220138875
:101EA00023F040031B041B0C1380138823F038031A
:101EB0001B041B0C138013889BB243F04003138058
:101EC0009F238DF835508DF834308DF8365039E039
:101ED00042090020D5E2000890030020603B00206A
:101EE000E5E20008D9E2000808040020CC37002011
:101EF000BC020020A1C90008509401080004004061
:101F0000B402002000366E01340400404C0500206D
:101F1000BE410020B0180020F01800200C1900204D
:101F2000C018002024190020343B00208400002029
:101F300000380040BC410020001002406C0002400C
:101F4000081A00208DF8375011F094F9039B8DF892
:101F50005550D3F890040DF013FF04220DA915A8D5
:101F600011F030FA039BD3F890040DF00EFF9DF8AA
:101F700056309DF855201B0243EA02439DF8572036
:101F800013439D4A934200F0EE8100F328819B4A5F
:101F9000934200F02F810132934200F0E681A2F5D6
:101FA0001A42033A934200F06D810023238063803C
:101FB000A360E36074E142F6F822F1E542F6F8210D
:101FC0008F4B120119800A2392FBF3F200238D49F3
:101FD000A2F5B06241F823200133122BFAD18A49CD
:101FE0008A4A402011608A4A137009F03BFD074677
:101FF00000283FF4DAAD0EF0CDFF864B97F900E0F4
:1020000093F841320746002B0CBF06220722002816
:102010000CBF01230323019200937F4A7F4B402191
:10202000704609F089FC0FB17D4B1860003018BF75
:102030000120B9E542F6F822714B40201A80794A16
:10204000724B1A601022724B1A7009F00BFD074692
:1020500000283FF4AAAD0EF09DFF002200280CBF1F
:102060000123032397F900E00192009307464FF400
:10207000E1336D4AD3E742F6F822614B40201A80E3
:102080006A4A624B1A600822614B1A7009F0EAFC36
:10209000074600283FF489AD0EF07CFF002200289F
:1020A0000CBF0123032397F900E001920093074638
:1020B0004FF4E1335E4AB2E742F6F8224FF00C0EDD
:1020C0004F4B5C481A80524B5B4983F800E0002379
:1020D0005A4A062F03700B70137023D01B22584BE3
:1020E0004FF4E1381A700522564B83F800E0564B46
:1020F0001A70564A454B40201A6009F0B3FC074657
:1021000000283FF452AD0EF045FF002200280CBF1E
:102110000123032397F900E0019200930746434609
:102120004B4A7CE72122464BDFF854811A70454B1D
:1021300083F800E0444B1F70DBE744F62062304B2D
:102140004FF000081A80434A304B40201A600E229C
:10215000414B83F800802E4B1A7009F083FC074630
:1021600000283FF422AD0EF015FF40450CBF0123BF
:10217000032397F900E0394A8DE8080107464FF438
:10218000E1334CE741F27C521D4B00271A80344A60
:102190001E4B40201A6010221D4B1A702822314B12
:1021A0001F70314B1A7009F05DFC00283FF4FDAC44
:1021B000032390F900002D4A0197009340212C4BF6
:1021C00009F0BAFB2B4F012138600DF001FA386895
:1021D0002CE70134042C7FF451AD002058E5264A49
:1021E000934207D00132934200F0BF80234A9342CA
:1021F0007FF4DBAE802346E01620C20017BA200031
:1022000042090020001B0020C9A100089003002003
:10221000603B0020E834002001A40008A0860100F3
:10222000683B002089A1000811A3000871A10008E3
:10223000C9A200088E1A00204D1B00204C1B002054
:102240004E1B00208D1A00204F1B0020B1A000085B
:10225000F9A1000809E30008B1250020F1E3000816
:10226000F1E200086C2500206D25002019E300082C
:1022700048E80100381900201740EF001720C2007D
:1022800090D00300202323804FF480736380A388C1
:1022900022881B02A3605343E360012387F8943430
:1022A000E4689CB10027E40A0DF15408A74208DA5B
:1022B0003D196D1010224146E8020AF089FF0F28EF
:1022C00057DC0AF047FF484BE4021C60474C484A81
:1022D000B4F8D8315269013B9BB2052B9EBF012354
:1022E00084F8EA3184F8DA3194F8EA315343414A08
:1022F00013603368404A13F4002318BF012313709E
:102300006379052B02BF4FF4C8723C4B1A8008F06A
:102310006EFB3B4A137843F008031370394A137875
:1023200023F00203137040F6020233681A420DD004
:10233000354A364B1A600322354B1A700122354B51
:102340001A700023344A1380344A13800122A36890
:102350003360334B1A70334A137863F07F03137082
:1023600021B0BDE8F08F40238DE74FF480732380C8
:102370008CE7002358F82320013232D10133042B9B
:10238000F8D12C4692E7013B092B3EF65CA80121CF
:1023900008460DF009FD13200DF006FB182282718E
:1023A00002220472C271122170620DF021FB012120
:1023B000706A0DF0EFFC3C2010F05CFF214601201C
:1023C0000DF0F2FCFEF7D8BDBEF1050F3FF41FA9DA
:1023D000012B4FF000073FF608A9134B1870FFF7C9
:1023E00026B96F1C2546CCE75C190020E834002094
:1023F000D81B0020DC1C002086240020D4130020E1
:102400003519002040260020FE360020201C002028
:1024100016280020B00200205C3200205E3200202E
:10242000C8120020B5410020B83200202DE9F04F3D
:10243000B54BAFB01D780193002D00F0B580B34BC4
:10244000186800286CD00DF0D1FCDFF8F8A2B04D70
:10245000DAF800000DF0C5F8002861D0DAF80000C5
:102460000DF0BCF80928AB4C01D03F284FD14FF0FC
:102470000008C14646462768DFF8A4B208EB0B0304
:1024800047B13A4658F80B102846029315F078F9F0
:10249000029B08B96EB3994608F10808B8F5907F19
:1024A000ECD196B1D6F800E0D9F800C023681EF848
:1024B00003001CF80310814207D15A1CE1B92D2BEF
:1024C0001AD820202260E854A95423680BB14E4545
:1024D00007D0914806F050F94E4510D90AF0B6F8E9
:1024E000002723689F42B3D2E85D0CF0A8F90137BA
:1024F000F7E71E469946CFE7E8542260D6E756F83C
:10250000080B06F039F909200CF099F9E4E7236883
:10251000002B41F0ED85042805D17D4806F05AFBDB
:102520002FB0BDE8F08F0C2841F006867B4806F0FE
:1025300023F90AF08BF88BE701220B4601F0EBBD83
:10254000591E685C2028F7D002B123600026744F22
:10255000EE54F159284606EB070806F071FB38B92E
:102560000836B6F5907FF4D16E4806F005F905E01F
:102570006D4B9845F8D2D8F804309847002301F005
:10258000CEBD2F2B3FF664AFA0F12002D2B25E2A5F
:102590003FF65EAF13B920283FF45AAF5A1C2260B1
:1025A000E8540CF04CF953E7604E06F13008604BEC
:1025B000EA18EB581BB94C35982DB1D0F7E75D4FB1
:1025C00007933B6000235C4C8DF82130226014237C
:1025D0005A4AA14692465A498DF8203006AB0692D7
:1025E0000B6038680CF0FDFF002800F08E8338681F
:1025F0000CF0F4FFD9F80030834693F8481031B955
:10260000242840F0B880012283F8482015E00129F1
:1026100005D14D2808BF022218BF0022F4E7022985
:1026200003D13C2808BF0322F6E7032962D14028E2
:102630004FF0000158D983F84810D9F8003093F8CA
:1026400048000628CDD193F84970522F00F0BC8184
:1026500000F2A481342F00F0378500F22181242F6D
:1026600000F09B8500F2E180042F00F0708300F2FF
:10267000B480022F00F0368300F25E83012F00F059
:1026800024835B2F01F0928201F21984372F01F02D
:10269000B78101F2A2832B2F01F01A8101F254833A
:1026A000252F01F0FA8001F237830B2F01F0EC8225
:1026B000232F41F0F6840CF049F8132807460FD871
:1026C0000CF044F800220C2101FB02F308EB030E8E
:1026D0009EF808E0864501F0E88401321F2AF3D114
:1026E00011F03AF801F086BC58711971D9719871DE
:1026F000042289E7042927D1997983F8490080EADF
:1027000001029A7105227FE7981900206C260020AB
:10271000641900209419002050BB010855BB010822
:10272000949B010860BB0108B49C0108BC9501089A
:102730009C3A00206826002060260020EFF5000863
:10274000642600206019002005297FF476AF5879AF
:1027500019798842987908D98BEA00009871481C49
:1027600018710B4483F808B067E7584501D1062279
:102770004AE7002248E7CF490B7813F004007FF4C2
:1027800030AFBBF1230F1BD10123029101993A68AD
:102790000B70C94B1A60C94B1A60C94B5872102094
:1027A0001872C848C3F800A003605A60C64805F014
:1027B000E3FF09F04BFF02990B7843F002030B7023
:1027C000C24B1B681B785B457FF437AFC04BC14AD7
:1027D0001A60C14BC14ADA602FE70A2F00F0D98294
:1027E000222F00F05184052F7FF44BAF1A200CF0FC
:1027F00011F80027DFF8FC9219F8070001370BF0F9
:10280000C4FF0B2FF8D10027DFF8EC9219F807006E
:1028100001370BF0BAFF082FF8D10027002001374D
:102820000BF0B3FF072FF9D169E22C2F00F0F684EB
:1028300017D8282F00F0BC842A2F00F0CC84262F34
:102840007FF41FAFA64F06200BF0E4FFB7F8C801D6
:102850000BF0E3FFB7F8CC010BF0DFFFB7F8D001C6
:1028600083E2302F00F05885322F00F01D852E2F87
:102870007FF407AF40200BF0CDFF994F07F14009DF
:10288000B7F864030BF0C9FF97F866030BF07DFF00
:10289000043797F863030BF078FFB945F0D12EE2C7
:1028A000452F00F0DE853BD83B2F00F0E78323D88F
:1028B000382F00F078843A2F00F08683362F7FF48B
:1028C000E0AE884B864F1878DFF830A2C0EBC0002E
:1028D000C0B20BF09FFF07F12809002397F9A60269
:1028E00013F90A20824201F0FE810C333C2BF7D110
:1028F00008374F45F1D102E2402F00F0DC84422F2F
:1029000000F0E9843D2F7FF4BCAE754F02200BF040
:1029100081FF97F88F020BF038FF97F88E02DEE107
:102920004B2F00F0A6840DD8472F00F05185C0F042
:102930003A85492F7FF4A5AE02200BF06BFF6A4B5E
:10294000988A12E24F2F00F07C85502F00F06785A7
:102950004D2F7FF496AE654F4FF0000A3878DFF8C0
:10296000A09100EB4000C0B20BF054FF3B7809F19E
:1029700002099A4580F0C38119F8020C0BF005FF9B
:1029800019F8010C0AF1010A00EB800000EB80004D
:1029900000F2EE2080B20BF040FFE7E7702F00F06E
:1029A000458300F2B180662F00F02D8228D85E2F7B
:1029B00000F0EC850DD85A2F00F093855C2F00F0C5
:1029C000AF85542F7FF45DAE01200BF023FF002074
:1029D00085E1642F00F0CC8100F2EC81602F7FF460
:1029E00050AE3F4F03200BF015FF97F8D5010BF0C9
:1029F000CCFE97F8EE010BF0C8FE97F8ED016EE102
:102A00006C2F00F0CA821ED8682F00F0B882C0F088
:102A10002582692F7FF435AEDFF8D090002799F832
:102A20000000DFF8E0A0400000F0FE000BF0F2FE36
:102A300099F800309F4280F062813AF817000BF05D
:102A4000ECFE0137F4E76E2F00F0C38240F2B5824E
:102A5000274F0C200BF0DEFE3B684FF00009187882
:102A60000BF093FE3B68BA4698780BF08EFEDAF8CE
:102A700000304B44587909F101090BF086FEB9F199
:102A8000030FF4D13B68187A0BF07FFE3B68D878CF
:102A90000BF07BFE3B6818790BF077FE3B6858899A
:102AA0000BF0BBFE3B68587A0BF06FFE3B68587822
:102AB00015E100BF4026002060190020B819002051
:102AC000A00800206C26002080BB01085C3A002092
:102AD000F04F0020EFBEADDE00ED00E00400FA058F
:102AE000E83400206C240020D81B0020603B00202C
:102AF000B0300020C2BB0108CEBB0108603A002004
:102B000040370020DC2500207D2F00F0C78475D8D9
:102B1000752F00F0A7824AD8732F00F0178300F2B8
:102B2000C480722F7FF4ADADD34F16200BF072FE30
:102B3000B7F848020BF071FEB7F8CC000BF06DFE51
:102B4000B7F8CE000BF069FEB7F8D0000BF065FEC9
:102B5000B7F89C020BF061FE00200BF016FE00207F
:102B60000BF013FE00200BF010FE97F823020BF081
:102B70000CFE97F844020BF008FE00200BF005FE57
:102B80000A23B7F9F00190FBF3F080B20BF045FE99
:102B900097F816020BF0F9FD97F81A020BF0F5FD05
:102BA00097F819020BF0F1FD97F81B0297E0782FC8
:102BB00000F08C817C2F00F06284772F7FF461AD70
:102BC000DFF8CC92002799F800000BF023FEDFF825
:102BD000E4A299F800309F4280F0918000220C20FE
:102BE00017F80A1000FB02F313F808E08E4501F015
:102BF000738001321F2AF5D10137EAE7A02F00F0D8
:102C0000BE823ED87F2F00F09783C0F05A84962F63
:102C10007FF437AD0F200BF0FDFD984B18880BF0BB
:102C2000FCFD974B188880B20BF0F7FD954B1868A8
:102C3000C0F3C003C0F380029B0043EA4203C0F329
:102C400040021343C0F3401243EAC20300F01000F5
:102C500018430BF0E2FD0BF0C9FC0BF0E7FD864BCF
:102C600093F8A4040BF091FD874B18886428A8BF43
:102C700064200BF0D2FD02200BF087FD834B187807
:102C80002DE0F12F00F05581FE2F00F06A82F02F29
:102C90007FF4F7AC784F04200BF0BCFDB7F8F401DB
:102CA0000BF0BBFDB7F8F2015FE04FF0000A012224
:102CB0000027774B1B789F42C0F22882FAB15FFA57
:102CC0008AF00BF0A7FD0022F2E703200BF0A2FD33
:102CD00000200BF05AFD38460BF057FD15200BF085
:102CE00054FD0CE004200BF095FD0027DFF8C8919F
:102CF00019F8070001370BF048FD042FF8D10BF04D
:102D000055FD0022236883F84820624B624C186806
:102D10000DF06CF894F82E30002B3FF44CAC5F4B68
:102D2000585908F0CDFD10F08EFA00235C4A84F863
:102D30002E305C4BDA603EE403200BF06BFD032089
:102D40000BF023FD00200BF020FD0120C7E70BF066
:102D500061FD0027DFF8649119F8070001370BF0D7
:102D600014FD042FF8D14C4B187F0BF056FDC6E72D
:102D700007200BF04FFDE7200BF007FD3E4B587985
:102D80000BF003FD00200BF000FD04200BF04EFDC6
:102D9000B5E7454814F0C6FCC7B238460BF03AFD1B
:102DA000DFF81C914F44B945A9D019F8010F0BF079
:102DB000ECFCF8E70B200BF02DFD304B18880BF0E6
:102DC0002CFD2F4B188880B20BF027FD2D4B186877
:102DD000C0F3C003C0F380029B0043EA4203C0F388
:102DE00040021343C0F3401243EAC20300F0100054
:102DF00018430BF012FD0BF0F9FB0BF017FD1E4B07
:102E000093F8A4046BE712200BF004FD274B002776
:102E10001B89DFF8B0A0B3F5007F94BF4FF0010924
:102E20004FF004095AF82700013790FBF9F080B2FF
:102E30000BF0F3FC032FF5D11D4F38880BF0EDFCA0
:102E4000B8880BF0EAFC38890BF0E7FC00200BF0A7
:102E5000E4FC00200BF0E1FC002086E710200BF0E2
:102E6000D9FC0027DFF8609019F8070001370BF054
:102E70008CFC102FF8D142E7E83400201428002001
:102E800028280020182800204C1A00202A2800207A
:102E90004126002064260020A00800209C3A002043
:102EA0000400FA0500ED00E0463A00201C2800204E
:102EB000CC1C002042260020B8BB0108BDBB010885
:102EC000453A0020A0180020BE080020C54F702001
:102ED0000BF0A0FC4FF0000BB9464FF00E0AB7F80C
:102EE00054010BF09AFCB7F856010BF096FCB7F8BA
:102EF00058010BF092FC97F85A010BF046FC97F83A
:102F00005B010BF042FC97F85C010BF03EFC97F87C
:102F10005D010BF03AFC0AFB0B930BF1010BD3F8AC
:102F20005E010BF083FCBBF1080F07F10E07D6D151
:102F3000E5E670200BF06EFCAA4F07F1700997F8D8
:102F4000E4000BF022FC97F8E5000BF01EFC97F86C
:102F5000E6000BF01AFC97F8E7000BF016FC97F868
:102F6000E8000BF012FC97F8E9000BF00EFC0737B5
:102F700097F8E3000BF009FCB945E0D1BFE610205B
:102F80000BF048FC0027DFF88C9219F80700013796
:102F90000BF0FBFB102FF8D1B1E6934F0BF03AFC8E
:102FA00038880BF03AFC78880BF037FC0A23B7F925
:102FB000040090FBF3F080B2D7E606200BF02AFC69
:102FC00000200BF033FC47E704200BF023FC00202B
:102FD000DCE607200BF01EFC844B4FF6FF771888C9
:102FE000FF28A8BFFF20C0B20BF0CFFB804B1868B2
:102FF000B842A8BF384620EAE07080B20BF00DFC62
:103000007C4B18880BF009FC764B93F823227A4B03
:1030100042B10A201B685843B842A8BF384620EA8C
:10302000E070C8E7186800F30F00C4E71E200BF03B
:10303000F1FB0027DFF8C891D9F800303B445878FD
:103040000BF0A3FBD9F800303B44D87A0BF09DFB82
:10305000D9F800303B44587D01370BF096FB0A2F1E
:10306000EAD14CE62F200BF0D5FB644F17F8010F87
:1030700000283FF444AE0BF088FBF7E701200BF08B
:10308000C9FB5F4B1B68FAE550200BF0C3FB4FF008
:103090000C0A544F07F1500997F8A53404370AFB7E
:1030A000036393F838000BF070FB97F8A2040BF061
:1030B0006CFB97F8A3040BF068FB97F8A4040BF0E3
:1030C00064FBB945E8D11AE65A200BF0A3FB454F43
:1030D00007F15A0997F8FA040BF057FB97F8F50433
:1030E0000BF053FB97F8F6040BF04FFB97F8F7043F
:1030F0000BF04BFB97F8F8040BF047FB063797F8FB
:10310000F3040BF042FB4F45E4D1F8E500214FF00A
:103110000C0E3C4BF85C0EFB01F313F808C0844521
:1031200000F0CB8501311F29F5D10137C1E58A4473
:10313000FBE719F8010B039102920BF026FB0399B0
:10314000029AA9EB0B008842F3DBEEE708200BF0B4
:1031500061FB0127F8B201370BF017FB092FF9D1FA
:10316000CDE508200BF056FB0027DFF8AC9039F8CE
:10317000170001370BF051FB042FF8D1BFE50C20ED
:103180000BF048FB204B18680BF050FB1F4B1868E6
:103190000BF04CFB1E4B1868F8E504200BF03AFBD3
:1031A000104B9868F2E504200BF034FB0D4FEFE470
:1031B0000C4F07200BF02EFBB7F81E020BF02DFB77
:1031C000B7F820020BF029FB97F822020BF0DDFA8A
:1031D000B7F82402C9E501200BF01CFB014B58791C
:1031E0007DE500BFE8340020C41C0020701C0020D6
:1031F000241C002064420020B4180020BB95010864
:103200009C19002042260020E8F7FF1FECF7FF1F63
:10321000F0F7FF1F70330020481C0020D74F10200C
:103220000BF0F8FA97F840020BF0AFFAB7F84C023F
:103230000BF0F3FAB7F848020BF0EFFAB7F84A02CE
:103240000BF0EBFA97F842020BF09FFAB7F8540232
:103250000BF0E3FAB7F856020BF0DFFA97F84E02DC
:103260000BF093FA97F84F020BF08FFAB7F852026F
:103270007BE5C24F08200BF0CDFA97F89A020BF0CD
:1032800084FA97F89B020BF080FAB7F89C020BF0D7
:10329000C4FA97F89E020BF078FAB7F8A0020BF088
:1032A000BCFA97F8A2021AE501200BF0B3FAB34B6F
:1032B00093F8440213E508200BF0ACFA0027DFF87E
:1032C000BC9207EB090393F8380201370BF05DFA63
:1032D000082FF6D113E5A94F10200BF09BFA78794F
:1032E0000BF053FAB8680BF0A1FA97F840020BF014
:1032F0004CFAB7F8C8010BF090FAB7F8CC010BF014
:103300008CFAB7F8D0010BF088FAB7F81E020BF070
:1033100084FAB7F8200228E580200BF07BFA00271A
:10332000DFF8589207EB0903D3F8E40204370BF0F7
:103330007DFA802FF6D1E2E48D200BF06BFA0027A6
:103340000621DFF838924FF0000A01FB07FBFAB2C2
:103350001046039102920BF018FA5FFA8AF00BF014
:1033600014FA0AEB0B00484490F8A4030AF1010A8E
:103370000BF00BFABAF1060F029A0399E8D1013764
:10338000062FE0D1002706200BF0FFF9F8B20BF072
:10339000FCF97A4B3B4493F8C80301370BF0F5F97D
:1033A0000B2FF0D1ABE40D200BF034FA09F000FE46
:1033B000734F00280CBF022003200BF0E6F9388879
:1033C0000BF034FAF8680BF031FA09F0D1FDDDE4C6
:1033D0000BF0D2F9074684200BF01CFA38460BF0AC
:1033E00025FA674B0DF13809DA6807F1800393423B
:1033F00094BF4FF0800AA2EB070A09F0ABFE5246D9
:103400003846494609F0E4FE002782465745BFF694
:1034100076AC19F807000BF0B8F90137F6E7574F0B
:1034200004200BF0F7F901200BF0AFF997F85105E4
:103430000BF0ABF997F84F050BF0A7F997F850058B
:103440004DE40B200BF0E6F900200BF09EF9002074
:103450000BF09BF900200BF098F900200BF0E6F937
:10346000B5E513200BF0D6F90027DFF81C9119F809
:10347000070001370BF089F90B2FF8D1EDE73F4F2B
:1034800006200BF0C7F9B7F8D6000BF0C6F9B7F86D
:10349000D8000BF0C2F9B7F8DA0066E4374F052020
:1034A0000BF0B8F997F826020BF06FF997F827029E
:1034B0000BF06BF997F828020BF067F9B7F8DC000E
:1034C00053E42E4F03200BF0A5F997F8C5010BF03C
:1034D0005CF997F8C6010BF058F997F8C701FFF7A8
:1034E000FEBB264F06200BF095F9B7F8D83183B113
:1034F00008200BF04AF901200BF047F997F8E30098
:103500000BF043F997F8E2000BF03FF9B7F8DE0053
:103510002BE497F8DA010BF038F997F8EA01EBE7BA
:10352000164FDFF8609011200BF074F997F8DC016A
:103530000BF02BF9D9F80030188C0BF06EF9D9F894
:103540000030588C0BF069F9B7F8DE010BF065F923
:10355000B7F8E0010BF061F9D9F80030988C0BF066
:103560005CF9D9F80030D88C0BF057F9B7F8E201C4
:103570000BF053F9B7F8E401FFF7F7BBE83400208C
:10358000840000209C190020C2BB0108D34F1120E9
:103590000BF040F93B68588D0BF03FF93B68988D74
:1035A0000BF03BF93B68D88D0BF037F93B6893F88B
:1035B00028000BF0EAF83B6893F833000BF0E5F8CD
:1035C0003B6893F836000BF0E0F83B6893F837005F
:1035D0000BF0DBF800200BF0D8F800200BF0D5F84A
:1035E0003B6893F835000BF0D0F83B68588F0BF030
:1035F00014F93B68188FFFF7B8BB00F07F00032871
:1036000028BF00200CF032FC00F0F4BC0BF09EF858
:10361000B34F87F88F020BF099F887F88E0200F00D
:10362000E9BC5B79092B7FF65BA8AE4FD7F8009019
:103630000BF08CF889F80000D7F800900BF086F8B2
:1036400089F802000BF082F86428A8BF64203B6868
:1036500058710BF07BF86428A8BF64203B68987110
:103660000BF074F83B68D8710BF070F8642828BF31
:103670006420D7F8009089F808000BF067F889F803
:103680000300D7F800900BF061F889F80400D7F830
:1036900000900BF067F82368A9F80A005B790A2B01
:1036A00005D9D7F800900BF051F889F80900236884
:1036B0005B790B2B40F29E843F680BF047F87870E3
:1036C00000F098BC0BF04EF86FF4AF6283189BB219
:1036D000834FC62B98BFA7F848020BF043F8A7F812
:1036E000CC000BF03FF8A7F8CE000BF03BF8A7F8A2
:1036F000D0000BF037F8A7F89C020BF027F80BF07E
:1037000025F80BF023F80BF021F887F823020BF0D3
:103710001DF887F844020BF019F80BF023F800EBC2
:1037200080004000A7F8F0010BF010F887F81602AF
:103730000BF00CF887F81A020BF008F887F819025A
:103740000BF004F887F81B0200F054BC5B790F2BD8
:103750007EF4C6AF0AF0FAFF072807463EF6C0AF70
:103760000BF000F80E225E4B02FB0737A7F854015E
:103770000AF0F8FFA7F856010AF0F4FFA7F858017D
:103780000AF0E4FF87F85A010AF0E0FF87F85B01CE
:103790000AF0DCFF87F85C010AF0D8FF87F85D01CA
:1037A0000AF0EAFFC7F85E0100F024BC0AF0CEFF81
:1037B0000F2807463EF694AF0AF0C8FFC7EBC703D1
:1037C000474F1F4487F8E4000AF0C0FF87F8E50080
:1037D0000AF0BCFF87F8E6000AF0B8FF87F8E700B8
:1037E0000AF0B4FF87F8E8000AF0B0FF87F8E900B4
:1037F0000AF0ACFF87F8EA000FF010FBFAE30AF0DA
:10380000B1FF374FA7F8D6000AF0ACFFA7F8D800F1
:103810000AF0A8FFA7F8DA00ECE30AF097FF304FB0
:1038200087F826020AF092FF87F827020AF08EFF37
:1038300087F828020AF096FFA7F8DC00DAE30AF01E
:1038400085FF274F87F8C5010AF080FF87F8C6017A
:103850000AF07CFF87F8C701CCE3234B1B785B079A
:1038600000F1C88306F044F90CF020FB05F076FD6A
:10387000C0E31D4B1B785F0700F1BC834FF4C87297
:103880001A4B1A80B6E309F0CFFC0023184A1370D4
:10389000184A1370184A1360ACE30023104FBB6042
:1038A0000AF06AFFBB681843B860A3E30AF05AFF46
:1038B0000B4FC7F8C8010AF055FFC7F8CC010AF052
:1038C00051FFC7F8D00195E30AF040FF044F2DE700
:1038D0000AF03CFF024B58718CE300BF9C1900209A
:1038E000E8340020B030002040260020D41300200F
:1038F00058190020591900205C1900200AF026FFF1
:10390000D94F87F840020AF02DFFA7F84C020AF0C1
:1039100029FFA7F848020AF025FFA7F84A020AF093
:1039200015FF236887F842025B79082B07D90AF054
:1039300019FFA7F854020AF015FFA7F856022368EA
:103940005B790C2B40F256830AF000FF87F84E0299
:103950000AF0FCFE87F84F020AF004FFA7F85202B3
:1039600048E30AF0F3FEC04F87F89A020AF0EEFE31
:1039700087F89B020AF0F6FEA7F89C020AF0E6FE22
:1039800087F89E020AF0EEFEA7F8A0020AF0DEFE1B
:1039900087F8A2022EE30AF0D9FE112807463EF668
:1039A0009FAE0AF0D3FEDFF8C09207F5967709F8CC
:1039B00017000AF0D7FE40F6CA039842A8BF18467F
:1039C00040F2EE239842B8BF18461923A0F2EE2029
:1039D00009EB470790FBF3F071E60AF0B7FEA24B44
:1039E00083F8440206E30027DFF87C920AF0AEFE7B
:1039F00007EB09030137082F83F83802F6D1F9E203
:103A00004FF007095B79B3FBF9F9C9EBC9029B1ABF
:103A100013F0FF0F7EF464AE5FFA89F9B9F1000F7D
:103A200000F0E8820AF092FE4FFA80FA504607F062
:103A3000D7FF074600283EF453AE80F800A00AF0F6
:103A400091FE78800AF082FE38710AF07FFE78716C
:103A50000AF07CFEF8710AF079FE09F1FF395FFA8D
:103A600089F9B871DAE70AF071FE1F2807463EF6B9
:103A700037AE23685B79052B7EF432AE0AF07CFE0C
:103A8000794B03EB8703C3F8E40210F065F9B1E268
:103A90000AF05CFE81460AF059FE07460AF056FE1F
:103AA0000F2800F2FE82B9F1050F0AD8052F00F2A7
:103AB000F88206236C4A03FB09233B4483F8A403E2
:103AC00098E2B9F1060F40F0EC820A2F00F2E98289
:103AD000654B3B4483F8C8038CE20122634B83F8B7
:103AE0002E2087E20027DFF898B10120D9460AF09E
:103AF00091FE5F4B394630225E481F708BF8007094
:103B0000DFF870A113F0AAFC8DF817705A4B574FCD
:103B10009DF8172097F83210914212D89BF80000B8
:103B20000AF033FE0AF042FE544B18680CF05EF9BE
:103B30002368186807F0C4FE236818680CF042FC7C
:103B400058E29DF8172007EBC20292F83520D20701
:103B500025D59DF8172007EBC20292F8342033F9DF
:103B60001220002A1BDD9DF81720029307EBC202EA
:103B7000926B10790BF018FF99F800204A214AF84F
:103B800022000BF035FF99F800205AF822000CF0C3
:103B9000FCF899F80020029B013289F800209DF87A
:103BA00017200132D2B28DF81720B1E70AF0CEFD0E
:103BB0002D4F87F8DA010AF0C9FD87F8EA010AF00B
:103BC000C5FD87F8E3000AF0C1FD87F8E2000AF0BE
:103BD000C9FDA7F8DE000DE20AF0B8FDDFF8A490F9
:103BE000214FD9F800A087F8DC010AF0BBFDAAF844
:103BF0002000D9F800A00AF0B5FD2368AAF8220039
:103C00005B79052B13D90AF0ADFDA7F8DE010AF0A8
:103C1000A9FDD9F800A0A7F8E0010AF0A3FDAAF8D1
:103C20002400D9F800900AF09DFDA9F82600236829
:103C30005B790D2B40F2DE810AF094FDA7F8E201DA
:103C40000AF090FDA7F8E401D4E10AF07FFD064FE9
:103C500087F8D5010AF07AFD87F8EE010AF076FDC3
:103C600087F8ED01C6E100BFE8340020A00800207D
:103C70006503002094240020703300206426002077
:103C8000C33000209C19002011220021DC4813F0D1
:103C9000E5FB0027DFF86CA3D9F800305B79102B27
:103CA00028BF10239F4280F0A5810AF04FFD07EB4B
:103CB0000A0383F85E050137EEE73344D3F834B0E6
:103CC0000292584613F02EFD029A0146002A7FF414
:103CD0002EAAD946FFF735BA334493F838000AF0D4
:103CE00054FDFEF789BFC0B20AF04FFDB7F8A80235
:103CF0000AF093FD97F8AA020AF047FD97F8AB0285
:103D00000AF043FD97F8AD020AF03FFD97F8AC02C8
:103D10000AF03BFDFEF7ECBD272F3FF4C7AD292F7E
:103D200040F0BF810AF01EFDB64FA7F81E020AF050
:103D300019FDA7F820020AF009FD87F822020AF00F
:103D400011FDA7F8240255E1312F3FF48CAE18D8AD
:103D50002D2F3FF4D3AD2F2F40F0A381A94F07F1B2
:103D600040090AF0FFFCA7F864030AF0EFFC87F8AB
:103D700066030AF0EBFC043787F863034F45F0D184
:103D800038E1332F3FF429AE352F40F08A810AF015
:103D9000DDFC0E2807463EF6A3AC0AF0D7FC03284C
:103DA0003EF69EAC0622974B02FB073787F8FA04D3
:103DB0000AF0CCFC87F8F5040AF0C8FC87F8F60492
:103DC0000AF0C4FC87F8F7040AF0C0FC87F8F8048E
:103DD0000AF0BCFC87F8F9040CE1442F3FF47DAEF7
:103DE00047D83E2F3FF412AC19D8392F3FF46CADB1
:103DF0003C2F40F05681844FD7F800900AF0A6FC83
:103E00000128A8BF012089F800003B681B78012B1E
:103E100018BF7E4A7E4B08BF7E4A1A60EAE0412FF7
:103E20003FF4E1AD432F40F03C810AF08FFC0023CA
:103E3000744FBB6078710AF09FFCBB681843B86090
:103E40000AF084FC87F840020AF08CFCC7F8C8012D
:103E50000AF088FCC7F8CC010AF084FCC7F8D0014E
:103E60000AF080FCA7F81E020AF07CFCA7F82002EA
:103E7000C0E04C2F3FF475AD08D8482F3FF403AD98
:103E80004A2F40F00E810AF06DFCB3E04E2F3FF454
:103E900082AD512F40F005815F4B1B78012B00F262
:103EA000A9800AF053FC574F87F851050AF04EFCE1
:103EB00087F84F050AF04AFC87F850059AE0D32F9F
:103EC000E1D000F2AF80CC2F3FF4ABAB6CD8612FC8
:103ED0003FF4BBAE45D85D2F3FF47EAE5F2F40F080
:103EE000E080494FD7F800900AF03CFCA9F82A007E
:103EF000D7F800900AF036FCA9F82C00D7F800900B
:103F00000AF030FCA9F82E00D7F800900AF01EFC49
:103F100089F82800D7F800900AF018FC89F83300D7
:103F2000D7F800900AF012FC89F83600D7F8009014
:103F30000AF00CFC89F837000AF008FC0AF006FCCD
:103F4000D7F800900AF002FC89F83500D7F8009005
:103F50000AF008FCA9F83A003F680AF003FC388729
:103F600048E0C82F46D0CA2F40F09B804FF0000990
:103F7000254FD7F800A00AF0E9FBCA448AF80100EF
:103F8000D7F800A00AF0E2FBCA448AF80B00D7F881
:103F900000A00AF0DBFBCA4409F10109B9F10A0FDC
:103FA0008AF81500E5D125E0CF2F3FF48BAB0ED872
:103FB000CD2F3FF45EACCE2F73D1184B1B78580732
:103FC00018D4174A137843F00403137012E0D02F6B
:103FD0003FF443ACD22F64D10AF0B8FB07063FF59B
:103FE0000CAB0E4B1B78590704D4022828BF0020C5
:103FF0000CF002F800200AF00DFCFEF780BE00BFB6
:10400000463A0020E83400209C190020C9AD000881
:104010009800002025B100088624002040260020BA
:1040200035190020DC2F3FF40AAC1DD8D92F3FF4FE
:10403000E6AB0FD8D42F3FF489ABD62F31D1002770
:10404000DFF838910AF08EFB29F817000137082FA6
:10405000F8D1CFE7DA2F3FF4E0ABDB2F21D13F4B94
:10406000186805F01BFBC5E7F22F3FF49FAB0ED895
:10407000DD2F3FF40DADEF2F13D10AF073FB384F56
:10408000A7F8F4010AF06EFBA7F8F201B2E7F52FEA
:104090003FF428ADFA2F04D1324B1B7859077FF536
:1040A000E3AB0FF059FBFEF72ABEDFF8B4903344C0
:1040B00093F8303007F5947709EB87077B710AF0A6
:1040C00045FBB8710AF042FBF8710AF03FFB234B45
:1040D00025491A6809F1CC030B60244B3872002083
:1040E0001A600FF0DAF9224B80F00100187081E7B6
:1040F0000C283EF41BAA0A2801D00D2821D11D4806
:1041000004F03AFB2321284613F03AFA08B1401B89
:10411000206000222368002B7EF412AA02B12360E3
:1041200030220021284613F099F9019B1B78002BBF
:104130007EF4FFA9FEF7F4B97F287EF425AAFEF7E6
:1041400087B97F287EF41DAA0022013B0A4823601C
:10415000EA5404F011FBFEF77BB900BF9C19002064
:10416000E834002040260020EC190020F01900203F
:104170009400002088C501087CBB0108401900207C
:10418000424B2DE9F04F1B68414C9A6A414BA5B058
:104190001A802378012B04D13F4B1A803F4A1288A2
:1041A0005A803F4D2B78002B00F0FF820FF024F84F
:1041B0003C4B05909B680BB13B4898473B4B3C4EB2
:1041C0001B78C3B13B4BB3F90620B6F84A329A428A
:1041D00011DC7379012B01D0192B02D196F89322AF
:1041E0004AB90E2B07D0082B05D00022324B9A80FB
:1041F0000022324B9A6096F81472002F2FD0304B69
:104200001B889B072BD02F4B2F49D3F8208040468B
:1042100014F064FD002837D1404610F063FE2B4BAC
:10422000196814F0B3FB10F0E5FDB0F5617FA8BF8D
:104230004FF4617014F056FB254914F05BFC05F057
:104240009EFE8046384614F04DFB414614F09EFB1E
:1042500010F0D0FD00B2184BDA881044D88096F8E0
:104260004E321C4A23B916490988002900F0F8810A
:104270001178114A002900F0ED81022B2CD0032B7C
:1042800000F0E0816B8837E00020E4E7A41C002008
:10429000461C002014280020481C00204C1A002036
:1042A00040090020D81B0020AC18002094000020FA
:1042B000E8340020DC250020BC1C0020B01C0020BD
:1042C00038260020BC3400208FC2753C3C1A0020E8
:1042D000EFB6B044DA13002044F62061B64BD3F8B1
:1042E000F8308B42A8BF0B46B3F57A7FB8BF4FF4C6
:1042F0007A7303F57A739BB2B04908682178B3FBEF
:10430000F0F0461C36B20929AE8005D1AC491788B9
:10431000CB800F8057884F800023AA4FB5F90680C5
:10432000DFF8BC9207F1080E37F9131039F913C002
:1043300008FB01F191FBF6F13EF813A02EF813C033
:10434000ACEB0A0A514427F813100133042BEBD1CC
:10435000E880B5F906700023002F40F37F819A4E64
:10436000B5F904E0A6F1080C3CF9131036F8130077
:10437000794391FBFEF1411A22F813100133042B0B
:10438000F2D1924B93F8500200285ED0904B1B68FC
:104390009F005AD58F4B1B885E0656D42B7EDFF8C4
:1043A0006482834211D0287614F09CFA8A4914F072
:1043B000EDFA8A49064614F0E1F905F0E0FDC8F887
:1043C0000000304605F0DBFDE861854EB6F90000DF
:1043D00014F088FA0746B6F9040014F083FAD8F806
:1043E000008081464146384614F0D0FAED69824695
:1043F0002946484614F0CAFA0146504614F0BCF962
:1044000014F0A0FCB0F5FA7FA8BF4FF4FA70DFF803
:10441000F8A149465045B8BF50463080404614F098
:10442000B5FA29468046384614F0B0FA01464046AF
:1044300014F0A4F914F086FCB0F5FA7FA8BF4FF48D
:10444000FA705045B8BF5046B08000254FF07E58F6
:10445000644BDFF8B8911F6823780693624B1B68A2
:104460001B7807937B1D04936B00022D08935C4B14
:1044700015BF3878787897F802A097F809A033F933
:10448000154014F02FFA494614F034FB4FF08041E8
:10449000064614F037FC60B14FF08041304614F00E
:1044A0006BF9524914F072FA0146304614F066F97D
:1044B0000646204614F016FA4D4914F01BFB002165
:1044C000044614F01FFC002840F0038104F1004B67
:1044D000484AAB00089342F825B0BAF1000F22D049
:1044E000504614F0FFF9494614F004FB5946824641
:1044F000584614F04BFA0146584614F047FA214644
:1045000014F044FA514614F041FA514608904046DE
:1045100014F032F9214614F039FA089B0146184686
:1045200014F02CF904463449304614F02FFA214691
:1045300014F02CFA049B064613F801AB0493BAF16D
:10454000000F29D00021204614F0DCFB08B904F14B
:104550000044504614F0C6F9494614F0CBFA2146FF
:1045600014F014FA0146404614F006F923490446B3
:1045700014F0AAFB002840F0AE804146204614F01B
:10458000C1FB00B144462146404614F0B3FA01464F
:10459000304614F0FBF90646069B0C2B05D130463D
:1045A00014F0D0FB064B6A009852079B144C002B6A
:1045B00040F095802CE000BFA4000020DC1C00200F
:1045C000481C00204809002050090020E834002041
:1045D0003C2600203826002035FA8E3CDB0FC93FF0
:1045E000BC1C0020B03000209C190020D7A36841DB
:1045F0000000FA4300240020000048430AD7233C6F
:10460000B01C0020000000200CFEFFFF0000C8428C
:104610004449304614F0BAF94349064614F054FBB5
:1046200000285AD14149304614F06CFB00B13F4E8E
:10463000AB000135032DE6507FF416AF00223C4B52
:104640001A7012E096F84F32C3EB431103EB81036B
:10465000DB0050E6EB88013BEB807AE6EB8090E6EE
:104660001378E980002B7FF48CAE324B1878002849
:1046700040F08E80304E33681C0340F189802F4C0F
:104680002378033B052B14D82D4B2E4D93F8513531
:10469000002B33D0012B36D06A6A95F828301344AA
:1046A000B3F5807FA8BF4FF480738342D4BF6B62A1
:1046B00068622378023B092B5BD8DFE813F02900FE
:1046C0004D0073015A005A008B01C5015B057D0541
:1046D0008D05A346FCE61C4C55E7134EA8E71B4985
:1046E000304614F0F1FA38B91949304614F00AFB93
:1046F00000289DD0164E9BE7144E99E7286A036860
:104700009B689847C8E708F043FCC0F17F00C3E707
:1047100000220C4B5A62DA620E4A12681A630323B3
:10472000237026E03333834000F0FFC500F0FF45DF
:10473000DA13002098190020D825002086240020B4
:10474000E8340020400900200AD7233C00C0F9C407
:1047500000C0F94408260020A74BA84D1A682B6B0F
:104760006433934205D240200FF05AFB002800F03A
:10477000F9800FF081FB0746002800F04B850123EC
:1047800023709E4B93F8452012B1002283F84520F8
:104790009B4B1B78072B05D10EF02EFD059BC01AF5
:1047A000984B58800022954B1A70974C15A8636857
:1047B0009847924EA146002800F0C980934DBDF95C
:1047C000543096F84C202B60BDF9563029466B606A
:1047D000BDF958302846AB6006F01AF98C4B1B889F
:1047E000002B5BD04FF000088A4B06F150071B6886
:1047F00006F15C041B780493854BD9F814201B88C0
:1048000055F8280005934FF47A73B3FBF2F3C3EB2A
:10481000431203EB8203DB00059A9BB29A4202BF6C
:1048200000233B6023613B684FEA880B03443B60F5
:1048300014F058F8226902F1010ABAF1010FC4F824
:1048400010A040F03685002360602060A360002344
:10485000714A45F80B304BF80230059B012B40F0B4
:1048600064852069012840F34985013814F03AF83D
:104870000146E06814F03EF910F07CFD049B82468E
:10488000002B00F03E85184614F02CF8514614F029
:104890001BFA002800F0358506F0A9F800235E48D1
:1048A00055F8232050F82310521A45F823200133DD
:1048B000032BF5D1594B5A4C1A789846002A00F030
:1048C0006A85DFF83C910025CB46504FDFF834A1D4
:1048D00099F80030032B04BF3B682AF81530514B80
:1048E0001B78012B40F03685386813F0FBFF01463A
:1048F0001C204D4B00FB05300FF0CEFE20609BF8D6
:104900000030082B04D1206810F074FA2AF8150042
:10491000464B1B883BB11C20454B216800FB0530F2
:104920000FF0BAFE2060434B1B883BB11C20424B6A
:10493000216800FB05300FF0AFFE206054F8040B37
:1049400010F058FA0135032D47F8040BC0D196F842
:104950009847002C00F05485013C86F8984725B014
:10496000BDE8F08FDFF8DC804027C146EB6A18F81D
:10497000030058B10FF02CFB6B6A013F03F1FF33CA
:104980006B62EB6A03F10103EB62EFD1EB6A19F89A
:104990000330002B7FF4EDAEEB624FF0FF332B635F
:1049A0000423BDE6254A5021A2F10C0301932523DF
:1049B000029200934920A2F10A03163A0CF06CFE11
:1049C00000287FF4D6AE4FF0FF320C4BD8621A634A
:1049D0000723A5E6052300210093194B02910191BD
:1049E000A3F1080253200CF057FE00287FF4C1AE5B
:1049F000024BD862082393E60826002040090020D5
:104A0000461C0020481C0020D81B0020CC1C002085
:104A1000D41B0020F4190020D8090020F819002028
:104A2000DC230020FE190020E4090020FA190020F0
:104A300030100020FC19002084100020D6970108B7
:104A4000849901086097010840200FF0E9F90028D7
:104A50007FF48FAEA24DEB6A492B01F2AB81DFE808
:104A600013F04A004F0056005C005F0066006B00C8
:104A700070007400780086008F0092009C00A000F7
:104A8000A500AA00BA00CA00DA00EA00FA000A018A
:104A90001A012A01870191019F01AD01BB01C901E2
:104AA000D701E501F30101020B02190223022D02D5
:104AB000370241024B0255025F02690273027D0216
:104AC000870291029B02A502AF02B902C302C8028B
:104AD000CD02D202D702DC02E302EA02F502FA02B8
:104AE000FF0204035D03620367036C037103760333
:104AF0007B03800385037B497B480FF044FB32E056
:104B00007A4B7B4A7B497C480FF03DFB2BE07B4A8C
:104B10007B497C480FF037FB25E07B497B48ECE77D
:104B20007B4B7C4893F8502593F84F15F2E7784B70
:104B30007948B3F8CC10E0E7754B7848B3F8CE105D
:104B4000DBE7774B77481969D7E7774B77481989BF
:104B5000D3E76B6BD90404D56D4B754893F81612E7
:104B6000CBE70B23EB62EB6A0133EB6201E66849AA
:104B7000704891F8193291F81B2291F81A12C3E784
:104B8000298F6D48B9E733681A05ECD5604B6B483F
:104B9000B3F91E22B3F82012BCE7614B684859698B
:104BA000ABE75B4B674893F8DA11A6E7584B6648CA
:104BB00093F8EA11A1E768220C20554B93F8A4144E
:104BC0004A43991891F8141400FB0122134493F8F6
:104BD00016145E4891E768220C204D4B93F8A414FC
:104BE0004A43991891F8141400FB0122134493F8D6
:104BF0001814574881E768220C20454B93F8A414F9
:104C00004A43991891F8141400FB0122134493F8B5
:104C10001714504871E768220C203D4B93F8A414F8
:104C20004A43991891F8141400FB0122134493F895
:104C30001F14494861E768220C20354B93F8A414EF
:104C40004A43991891F8141400FB0122134493F875
:104C50001914424851E768220C202D4B93F8A414F4
:104C60004A43991891F8141400FB0122134493F855
:104C70001A143B4841E768220C20254B93F8A414F2
:104C80004A43991891F8141400FB0122134493F835
:104C90001E14344831E768220C201D4B93F8A414ED
:104CA0004A43991891F8141400FB01221344B3F8F5
:104CB00020142D4821E768230C20154991F8A424DD
:104CC0005343CA1892F8142400FB0233194491F894
:104CD0001D3491F81C24254891F81B1414E700BFDB
:104CE00040090020E5BC0108F1BC010802BD010833
:104CF0007FBB010807BD01080DBD0108CEBB01083F
:104D0000C2BB010835BD0108463A002049BD010873
:104D1000E834002057BD010868BD010877BD0108CF
:104D2000D81B002086BD01081C28002096BD010864
:104D3000A0BD0108ADBD0108C6BD0108D1BD010877
:104D4000E4BD0108F0BD010803BE010818BE01085A
:104D500022BE01082CBE010839BE010846BE01086A
:104D600050BE01085BBE010868BE01087ABE01089A
:104D70006821C04AC04892F8A43401FB032393F889
:104D8000D413BAE66822BB4BBC4893F8A41402FBC8
:104D9000013191F8E93391F8DF2391F8D513B3E6A7
:104DA0006822B44BB64893F8A41402FB013191F881
:104DB000EA3391F8E02391F8D613A5E66822AD4BCB
:104DC000B04893F8A41402FB013191F8EB3391F849
:104DD000E12391F8D71397E66822A64BAA4893F8E7
:104DE000A41402FB013191F8EC3391F8E22391F81D
:104DF000D81389E668229F4BA44893F8A41402FBB9
:104E0000013191F8ED3391F8E32391F8D9137BE662
:104E10006822984B9E4893F8A41402FB013191F844
:104E2000EE3391F8E42391F8DA136DE66822914BA2
:104E3000984893F8A41402FB013191F8EF3391F8EC
:104E4000E52391F8DB135FE668228A4B924893F8DA
:104E5000A41402FB013191F8F03391F8E62391F8A4
:104E6000DC1351E66821834A8C4892F8A43401FB94
:104E7000032393F8DD1340E668227E4B884893F8BD
:104E8000A41402FB013191F8F23391F8E82391F870
:104E9000DE1339E66821774A824892F8A43401FB90
:104EA000032393F8F31328E66821724A7E4892F8A8
:104EB000A43401FB0323B3F8F4131EE668216D4A02
:104EC0007A4892F8A43401FB0323B3F8F61314E6EE
:104ED0006821684A764892F8A43401FB0323B3F8AA
:104EE000F8130AE66821634A724892F8A43401FB79
:104EF0000323B3F8FA1300E668215E4A6E4892F87D
:104F0000A43401FB032393F8FC13F6E56821594A06
:104F10006A4892F8A43401FB0323B3F8FE13ECE5CE
:104F20006821544A664892F8A43401FB0323B3F87D
:104F30000014E2E568214F4A624892F8A43401FB6C
:104F40000323B3F80214D8E568214A4A5E4892F870
:104F5000A43401FB032393F80614CEE56821454AE7
:104F60005A4892F8A43401FB032393F80714C4E5CC
:104F70006821404A564892F8A43401FB032393F871
:104F80000814BAE568213B4A524892F8A43401FB60
:104F9000032393F80914B0E56821364A4E4892F885
:104FA000A43401FB032393F80A14A6E56821314ACF
:104FB0004A4892F8A43401FB032393F80B149CE5B0
:104FC00068212C4A464892F8A43401FB0323B3F825
:104FD0000C1492E56821274A424892F8A43401FB58
:104FE0000323B3F80E1488E5224B3F4893F82612AA
:104FF00083E5204B3D4893F827127EE51D4B3C4846
:10500000B3F8D81179E51B4B3A4893F8DB1174E5F6
:10501000184B394893F8DC116FE5164B3748B3F855
:10502000E221B3F8DE1175E5124B3548B3F8E421FF
:10503000B3F8E0116EE50F4B3249D3F8F80113F0E5
:10504000A5FC13F07FFE01462F4856E5094B2F487B
:1050500093F8D51151E5074B2D4893F8EE114CE527
:10506000044B2C4893F8ED1147E5024B2A4893F87E
:105070008D1242E5E834002089BE01089ABE01087D
:10508000ABBE0108BDBE0108CDBE0108DDBE0108F2
:10509000EDBE0108FEBE01080FBF010821BF0108D7
:1050A00011BF01082BBF010840BF010850BF010814
:1050B0005EBF010870BF010886BF010895BF0108E7
:1050C000B1BF0108C7BF0108D6BF0108EDBF010885
:1050D00006C001081AC001082FC0010845C0010818
:1050E0005CC0010871C0010887C0010883C00108C5
:1050F00093C001089FC00108B1C00108C4C00108E5
:10510000D8C001080000C842F0C00108FEC0010874
:105110000EC101081FC101082FC10108A54BA648F7
:1051200093F84E12E9E4A34BA44893F84F12E4E439
:10513000A04BA348B3F85212DFE49E4BA14893F86A
:105140004012DAE49B4BA04893F8E310D5E4994B66
:105150009E4893F8E210D0E4964B9D48B3F8DE10D9
:10516000CBE4944B9B4893F8EB11C6E4914B9A48DF
:105170009968C2E4994B1B689B0119D5984DAB8F78
:10518000B3B9984BD5F8408045201F680EF020FF3A
:105190000E200EF01DFF40460EF0D5FF38460EF0F3
:1051A000D2FF4FF480536B870A2323700BF0F6FF76
:1051B0000CF050FAFFF7DDBA894B93F84420002A2F
:1051C000F4D0864A12689701F0D493F84530002B4A
:1051D000ECD109232370EBE7834B814D1A682B6BCD
:1051E000C833934210D2734B93F851754FB9286A64
:1051F00006F08EFB95F846302F62022B01D10EF09F
:105200009FF90123FFF78CBA0EF04CFE0028EAD17B
:10521000FFF7AFBA674B93F85225002A3FF4B8AABC
:105220003268D6044FF000024CBFB3F8DA50B3F83E
:10523000D0506E4E36F912100132A9420CBF3846DA
:1052400047F001000C2AC7B2F4D1674A644D1268D6
:10525000B7B102F59C520832AA642278012A7FF481
:1052600097AA95F84520002A7FF492AA93F8513521
:10527000C3B107F08FFC012385F84530FFF788BAEA
:10528000A96C9142E9D82378012B3FF481AA95F8C3
:105290004530002B3FF47CAA07F04EFC85F84570A2
:1052A000FFF776BA80200EF043F900287FF470AA49
:1052B000DFE7226808901146079213F05DFA069026
:1052C000504613F00FFB0146069813F013FC079AA3
:1052D000114613F053FA089B014682466060184657
:1052E00013F04AFA069913F051FBA16813F046FA3D
:1052F000C4F800A0E060A060FFF7A9BA0020FFF7A3
:10530000BBBA4FF47A73D9F81420B3FBF2F3C3EBB2
:10531000431203EB8203DB003A689BB202EB5302B9
:1053200092FBF3F3324A42F80B3008F10108B8F16E
:10533000030F07F1040704F114047FF45DAA2D4C58
:105340002088012801D106F079FC2388013B2380C5
:10535000FFF7A4BA93B998F800203868049213F0C4
:10536000C1FA4FF00C0E01462348D6F8F830049AE3
:105370000EFB05000FF07CFAFFF7C0BA386813F097
:10538000B1FA01464FF4F8701C4B00FB05300FF0EA
:105390002FF9FFF7B3BA286813F0A4FA2060686801
:1053A00013F0A0FA6060A86813F09CFAA060FFF701
:1053B000CEBA00BFE834002048C101085CC1010832
:1053C00079C1010896C10108ABC10108C0C101083B
:1053D000D5C10108E7C10108F5C101083C2600203C
:1053E00040090020CC12002008260020401900208F
:1053F000D8090020D41B00203C0A0020600A0020AD
:10540000B84F97F8DC21002A00F0768297F8EA314D
:10541000013BDBB286F898370DF0EEFEB24BB34D90
:10542000D3F80090B24BB7F82A12B24FA3F146025C
:1054300080462868C8473A78072A05D10DF0DCFE77
:10544000AD4BA0EB080098800DF0D6FE3B780590A0
:10545000012B0BD1D6F89C27A749821AA7488A802E
:105460000068121ACA80059AC6F89C27A44A2968BF
:105470001268002A00F0428291F83360002E00F09A
:105480003E82A04909688D0740F13B829E49097818
:10549000012940F23682D2789C48514300888A1A0A
:1054A00090420FB203DB88420246A8BF0A463F0380
:1054B00012B297FBF2F70126954AD2780E922EB1DE
:1054C000BDF95C207A431213ADF85C204FF000095F
:1054D0004D46C8468F4ADFF878A212780DF15C0B72
:1054E00004928D4AB2F902100991B2F90010B2F992
:1054F00004200A918949069209680791049A904507
:10550000C0F003827F4BA5EB090519682DB211F499
:1055100080530893824A00F05D82824B82481B7858
:10552000DFF80CE213F0040F08BF03687F4F02BFDF
:105530001E8A7F4BA3F86068B2F906607D4A036853
:1055400010681B8AC288A3EB020C664500F3248214
:10555000B0F900303868AEF86068B0F900701644F1
:1055600036B29BB2BFB2A3EB070A0FFA8AFA5545CF
:1055700040F341824FEA0A3999FBF5F56C4B17A8C5
:10558000C3F864580023049A9A4200F22C82022342
:105590009AFBF3F31F443FB20B974FF0000B634BA2
:1055A0006348D3F80080B0F96038634D0D935E4BCB
:1055B000B5F906501B685B4A07930C955D4B049D3B
:1055C00012786D0000F5F46001F010011B68DFF83F
:1055D000849102F004020F95109011910F99594592
:1055E00040F01682B8F8083063B3444908684FF4B5
:1055F0007A71B1FBF0F1B3FBF1F3012B40F2798248
:1056000042F210718B42A8BF0B461BB29A4519DDBE
:1056100004994A4DB8F8000035F91160049F4449D7
:10562000864201EB4707B7F9687803DBF818B04208
:10563000A8BF3046049B00B201EB430125F81300DC
:10564000A1F868082AB93D4B3D490498904200F200
:105650005282374A92F880380492192B00F2D18096
:1056600001229A40374B1340002B00F0CA80364B82
:105670001B88D80540F14582294B1A88ADF8742063
:105680005A889B88ADF87620ADF878304FF47A725E
:105690004FF461612D48B0F9023003F5E1635343E3
:1056A00093FBF1F3A3F5FA73ADF88C30B0F9003049
:1056B00003F5E1635A4392FBF1F2204BA2F5FA7233
:1056C0001B88ADF88E20A3F2DC53ADF87A30164B70
:1056D000194A1B6811881B8AC91AADF87C105188B9
:1056E0003AE000BFE8340020980000209C19002018
:1056F00020370020461C0020481C0020DC1C002015
:10570000201C0020D8250020B0020020701C0020A2
:105710000C260020DB1C002040230020181A00204B
:10572000BC1C0020402600201C1A00202C34002025
:105730004009002030340020DC2500207033002098
:10574000401900203241300338260020C41C0020BC
:10575000E01000206E330020C91AADF87E10918849
:10576000C91AADF88010D188C91AADF88210118914
:10577000C91AADF884105189C91AADF886109189FB
:10578000D289C91AD31AADF88A300023ADF888102F
:105790001946B14A22F813100133082BFAD14FF001
:1057A000640EAE4BAE4A1B68AE4D0693AE4BDFF8AF
:1057B000A8A21B680793AD4B1B78C3EBC30313442C
:1057C0000A930A9B934240F0B58100264FF00E0ADF
:1057D0004FF06408A44BA64FD3F800900AFB069341
:1057E000B7F9025093F90600454395FBF8F5F0B27E
:1057F0007D800DF03BFB01362844082E27F8020F70
:10580000ECD19C4EDFF86082336813F0200F34D067
:1058100000200DF02BFB904D0746288001200DF055
:1058200025FB8E4B68801B68190626D5924B934941
:105830001B681B78012B40F0ED81D8F8002092F90D
:10584000063092F91420C3F1000EB1F90230B1F91B
:10585000001003FB0EF34FF0320E51436FF0310294
:1058600093FBFEF391FBF2F291FBFEF19BB21A4423
:10587000BA1A2A800B4418446880D8F800307C4A51
:1058800003F17005B2F90200B3F90010B3F9027028
:10589000884203DB87423946A8BF01460E339D424A
:1058A00022F8021FEED1764F764D3B6893F9043013
:1058B000002B40F0C58195F88038013B182B00F291
:1058C0001282DFE813F00702100210024A021002EF
:1058D000100210023F021002100210021002100209
:1058E0005102100210021002100210024A025E025F
:1058F000100210025102070201238BE516463746BB
:10590000DAE501264FF48057D6E509980B9312F09B
:10591000E9FFDAF8081013F039F808900A9812F045
:10592000E1FFDAF8041013F031F8089A0146104646
:1059300012F024FF079B089093F90000069B404259
:10594000584312F0CFFFDAF80C1013F01FF8089A42
:105950000146104612F012FF13F0F4F90B9B00B24F
:10596000AEB92BF818003BF91820AA4212DC914579
:10597000A8BF9146052B05D1B8F1040F9CBF424941
:1059800021F8182008F101080AF1100AB6E5784359
:105990000013E6E71546EDE713449E4208DB3B683B
:1059A000AEF86068B3F90230B0F90270B61AD7E504
:1059B000BEF960389C45ABBF3B683B68B0F90060FE
:1059C000B0F90260ABBFB3F90070B3F902303346EF
:1059D0003746C6E52D4BB2F906601B68B3F9007077
:1059E000B3F90230BDE530F913206A43121320F8F1
:1059F00013200133C7E54FF0020995FBF9F91FFAAF
:105A000089F9A3EB09034F441BB23FB20B93C4E5E2
:105A10001293304617AB139233F80B5012F062FF1B
:105A2000109B53F83B1012F0B1FF13F08BF9B84202
:105A30003946129B139A03DB0B998142A8BF01469A
:105A40000D440E992DB229F8025F09B3B8F804107D
:105A5000B8F8020028E000BFBE0800203C26002065
:105A600035340020C2110020AC3400203434002032
:105A7000BC080020D8250020141A0020C41C0020D7
:105A8000181A002040090020481C00202C34002057
:105A9000089959B30799D888098A091A0D98884234
:105AA00022DCB8F8001018888D4203DBA8420146BA
:105AB000A8BF2946A9F80010119991B18AB1089997
:105AC00079B91392129306F093F8129B139A40B986
:105AD00007990C98498A8842BCBFB8F80410A9F805
