:020000040800F2
:1000000000500020B566010851670108BD54010881
:10001000516701085167010851670108000000009D
:10002000000000000000000000000000516701080F
:10003000516701080000000051670108A93101085B
:1000400051670108516701085167010851670108AC
:100050005167010851670108D1F20008DBF200087E
:10006000D9F20008D7F20008D5F20008B1B50008AF
:10007000A1B5000891B5000881B5000871B5000868
:100080005DB5000849B500085167010851670108CE
:10009000516701085167010851670108D3F2000850
:1000A00051670108410B010851670108310B010834
:1000B000210B0108110B0108010B010895B800087C
:1000C00099B800088DB8000891B800085167010878
:1000D0005167010881B1000875B100085167010836
:1000E000CFF20008516701085167010800000000C5
:1000F0000000000000000000000000000000000000
:0C01000000000000000000005FF808F1A3
:100110002DE9F04FB0F908300546D8B2522885B025
:100120000C4617460B8100F02A8700F22D813428F7
:1001300000F0FF8400F2B680242800F0798573D89F
:10014000042800F0F68249D8022800F0D78200F295
:10015000E182012800F0C382F52895E8480041F0CB
:100160006F809E420FBFFF23591C296013F8021BAA
:10017000AE4A16BF2B6082F8313082F8311092F807
:100180003130FF2B4FF0000341F05480A84A18464D
:100190009046995801B108801433F02BF9D100260C
:1001A0004FF01409A34BA44D31463022A3481E70D2
:1001B0002E7019F07AF88DF80F60A04E9DF80F3070
:1001C0000B2B41F2108023682A78591C21601A7089
:1001D000002F00F09D829A4B3B6099E20A2800F0C4
:1001E000E782222800F080840528B5D10023954DB0
:1001F0002268595D0133501C0B2B20601170F7D120
:100200000023914D2268595D0133501C082B20605A
:100210001170F7D10023194622680133501C072BB7
:1002200020601170F8D173E22C2800F0468518D8B0
:10023000282800F023852A2800F0378526288BD12E
:10024000824D2046B5F8E4110CF0F6FBB5F8E81144
:1002500020460CF0F1FBB5F8EC1120460CF0ECFB5D
:1002600056E2302800F0EB85322800F099852E28E0
:100270007FF472AF754D05F14006B5F82C14204699
:100280000CF0DAFB236895F82E24591C21601A70B3
:10029000236895F82F240435591CAE4221601A704A
:1002A000EBD135E2442800F0978735D83B2800F0A1
:1002B00011841AD8382800F0C1843A2800F09983B4
:1002C00036287FF449AF614D614F05F120060023C8
:1002D00095F9DA22D957914201F0EE850C33302B93
:1002E000F8D10835AE42F2D112E2402800F0608524
:1002F000422800F079853D287FF42EAF534B2268C9
:1003000093F8B212501C2060117093F8B122236848
:10031000591C21601A70FBE14B2800F01D850ED896
:10032000462800F0E185C0F0318649287FF414AFFB
:10033000484B2046B3F848100CF07EFBE8E14F280C
:1003400000F00686502800F0EA854D287FF404AFBF
:100350000026414D414F3B7802359E4280F2D881C4
:10036000236815F8022C591C21601A7015F8011C1D
:10037000204601EB810101EB810101F2EE2189B2FE
:100380000CF05AFB0136E6E7702800F0648300F2B7
:10039000AA80662800F058822ED85E2800F0C28617
:1003A0000ED85A2800F047865C2800F08986542829
:1003B0007FF4D2AE0B685A1C0A6000221A70A7E1C3
:1003C000642800F0DF8100F2038260287FF4C4AE6D
:1003D0001E4B226893F81912501C2060117022687D
:1003E00093F82412501C2060117093F80F22236898
:1003F000591C21601A708BE16C2800F0DE8231D824
:10040000682800F0C782C0F04D8269287FF4A4AE4E
:100410000025124E124F33789D4280F2798137F8D1
:10042000151020460CF008FB0135F4E73C050020D0
:10043000F82F00203E2A00203D2A0020D042002034
:10044000A1DD0008EEB30108FAB3010880380020EE
:10045000D83E00204C1D0020FC3A0020FC25002046
:10046000EC2600206E2800F0C98240F2B982B94D16
:100470002B681A780B68591C21601A702B689A78BF
:100480002368591C21601A7000232A681A44517984
:1004900022680133501C032B20601170F5D12B68AA
:1004A00020461A7A2368591C21601A702B68DA7862
:1004B0002368591C21601A702B681A792368591C0B
:1004C00021601A702B6859890CF0B6FA2B685A7A99
:1004D0002368591C21601A702B685A782368591CAC
:1004E00021601A7014E17D2800F0768500F28A8080
:1004F000752800F0EB8060D8732800F0758300F257
:10050000438372287FF428AE934D2046B5F86A12D3
:100510000CF092FAB5F8CC1020460CF08DFAB5F834
:10052000CE1020460CF088FAB5F8D01020460CF01A
:1005300083FAB5F8B81220460CF07EFA2268531CF4
:100540002360002313702268511C216013702268FD
:10055000511C21601370226895F84512501C2060D0
:100560001170226895F86712501C20601170226883
:100570002046511C216013700A23B5F90C1291FB1F
:10058000F3F189B20CF058FA236895F83822591C17
:1005900021601A70236895F83C22591C21601A705A
:1005A000236895F83B22591C21601A70236895F83E
:1005B0003D22591C21601A70AAE0782800F0808141
:1005C0007C2800F0F78477287FF4C6AD00214FF037
:1005D0000C0C624D624805F1120700F1300E95F8DF
:1005E0003030994280F294800022CE5D0CFB02F301
:1005F00013F80E80B04501F0568401321F2AF5D160
:100600000131ECE7A02800F003834AD87F2800F0EE
:100610002384C0F0FB8496287FF49EAD514B204686
:10062000B3F858100CF008FA4F4B2046198889B2DD
:100630000CF002FA4D4B20461968C1F3C003C1F318
:1006400080029B0043EA4203C1F340021343C1F31B
:10065000401243EAC20301F0100119430CF0ECF917
:1006600014F076FF014620460CF0D2F93A4B2046B2
:1006700093F880252368591C21601A703C4B198817
:100680006429A8BF64210CF0D7F923685A1C2260A2
:1006900002221A70374B1A782368591C21601A708D
:1006A00036E0F12800F04581FE2800F0A682F0280F
:1006B0007FF452AD284D2046B5F822120CF0BCF95B
:1006C000B5F8201220460CF0B7F921E02A4A12F8BA
:1006D000013FEBB12168481C20600B70F7E70B6805
:1006E0005A1C0A6000221A700B685A1C0A601870A3
:1006F0000B685A1C0A601F221A70F0E100231F4D7C
:100700002268595D0133501C042B20601170F7D111
:100710000120E4E10B6801205A1C0A6003221A70D0
:100720000B685A1C0A6018700B681A180A600622B7
:10073000E2E70023124D2268595D0133501C042B5F
:1007400020601170F7D1054B204619780CF074F930
:10075000DEE700BFAC160020803800203C050020FA
:10076000049401081C000020D42F00201C4200200B
:10077000C8160020D62F002003940108E4B3010816
:10078000E9B301080B6820465A1C0A60E7221A7078
:10079000BE4B93F8B3220B68591C21601A70236872
:1007A00004215A1C226000221A700CF031F9AFE7C4
:1007B000B74814F091FF0023B4499842A8DD5A18B5
:1007C00092F8385622680133561C26601570F4E7FB
:1007D000B04B2046B3F858100CF02EF9AE4B204623
:1007E000198889B20CF028F9AC4B20461968C1F37E
:1007F000C003C1F380029B0043EA4203C1F34002FD
:100800001343C1F3401243EAC20301F0100119433C
:100810000CF012F914F09CFE014620460CF0F8F89A
:100820009A4B204693F880252368591C21601A7042
:100830009B4B19886429A8BF64210CF0FDF80021A6
:1008400020460CF0F9F863E7964E00253289B2F5A0
:10085000007F94BF012704277319196B204691FB71
:10086000F7F1043589B20CF0E7F80C2DF4D100252E
:100870008D4EAB19B169D86C15F09AFD16F04AFA95
:10088000043581B220460CF0D7F80C2DF1D10025AB
:10089000864EAB199989204604350CF0CDF80C2D05
:1008A000F7D135E7824B0A6803F1100153F8040BC6
:1008B0008B4242F8040BF9D123681033236027E7F9
:1008C000724D00262F464FF00E08B5F872112046E3
:1008D0000CF0B2F8B5F8741120460CF0ADF8B5F88C
:1008E000761120460CF0A8F8236895F87821591C59
:1008F00021601A70236895F87921591C21601A70BB
:10090000236895F87A21591C21601A70236895F89C
:100910007B21591C21601A7008FB06732046D3F80E
:100920007C1101360CF074F8082E05F10E05CCD1BF
:10093000EEE6564B03F17001226893F80201551C54
:1009400025601070226893F80301551C2560107013
:10095000226893F80401551C25601070226893F8F2
:100960000501551C25601070226893F80601551C7E
:1009700025601070226893F80701551C25601070DF
:10098000226893F808010733551C994225601070BE
:10099000D2D1BDE600251426464FDFF8348106FB90
:1009A0000573197B31B9204601350CF045F8082D47
:1009B000F5D1ADE638F81510F5E73F4D204629880A
:1009C0000CF03AF8698820460CF036F80A23B5F99D
:1009D0000410204691FBF3F189B20CF02DF897E654
:1009E000204600210CF014F8002120460CF024F8D9
:1009F0008EE6002120460CF00BF889E62F4B0A68A2
:100A00001B88511CFF2BA8BFFF23216013702C4BA8
:100A10002046196881F3100189B20CF00DF8294BBA
:100A2000204619880CF008F8184B93F84522264BFD
:100A30004AB10A211B682046594381F3100189B24B
:100A40000BF0FAFF64E61968204601F30F0189B242
:100A50000BF0F2FF5CE600221C490B68985C2368EF
:100A60005D1C256018700B681344987A23685D1C20
:100A7000256018700B681344187D236801325D1CD3
:100A80000A2A25601870E8D142E600BF80380020AD
:100A9000B83E00201C000020D42F00201C42002063
:100AA000C8160020204200204C1D00206442002077
:100AB0003E050020F82F00209A4200204C22002002
:100AC00048220020BE160020D414002050320020FE
:100AD000D441002001200B685A1C0A601870608104
:100AE00040B205B0BDE8F08F0C27B84AB84E02F10D
:100AF000500192F88135043207FB036393F8380004
:100B000023685D1C25601870236892F87E055D1CC3
:100B100025601870236892F87F055D1C25601870A9
:100B2000236892F880055D1C914225601870E0D121
:100B3000EEE5A64B03F15A01226893F8D605551C41
:100B400025601070226893F8D105551C256010703F
:100B5000226893F8D205551C25601070226893F81E
:100B6000D305551C25601070226893F8D405551CD8
:100B700025601070226893F8D5050633551C9942FC
:100B800025601070D8D1C3E501264FF00C0B914FB2
:100B9000DFF83C8207F1120908F1300A002597F8C6
:100BA00030309D4204DB002E3FF4B2AD0026F5E765
:100BB000002215F809100BFB02F313F80A00884213
:100BC00001F0648101321F2AF5D10135E7E7216880
:100BD00013F801EB01F1010CC4F800C081F800E04A
:100BE000991A8842F3DCF0E701232268511C216046
:100BF00013700133092BF8D18AE50025764E36F8BB
:100C00001510204601350BF017FF042DF7D17FE5B5
:100C1000724B204619680BF0FBFE714B2046196899
:100C20000BF0F6FE6F4B204619680BF0F1FE6FE5F6
:100C3000664B204699680BF0EBFE69E5634B226832
:100C400093F83812501C20601170226893F83C12FF
:100C5000501C20601170226893F83B12501C2060D9
:100C60001170226893F83D12501C2060117093F8A7
:100C70003F222368591C21601A7049E5534D2046D4
:100C8000B5F840120BF0D8FEB5F8421220460BF032
:100C9000D3FE236895F84422591C21601A70B5F8D8
:100CA000461220460BF0C8FE32E5484B93F8B322BB
:100CB0000B68591C21601A702AE5444D0B6895F8A1
:100CC0005C22591C21601A70B5F86E1220460BF098
:100CD000B3FEB5F86A1220460BF0AEFEB5F86C1202
:100CE00020460BF0A9FE236895F86522591C216067
:100CF0001A70B5F8781220460BF09EFEB5F87A12FD
:100D000020460BF099FE236895F87022591C21604B
:100D10001A70236895F87222591C21601A70B5F870
:100D2000761220460BF088FE236895F85F22591C46
:100D300021601A70D5F8601220460BF069FE236816
:100D400095F86422591C21601A70236895F8732263
:100D5000591C21601A70DBE41C4D0B6895F8B62213
:100D6000591C21601A70236895F8B722591C21601C
:100D70001A70B5F8B81220460BF05EFE236895F89D
:100D8000BA22591C21601A70B5F8BC1220460BF02B
:100D900053FE236895F8BE22591C21601A70B7E4EF
:100DA0000A4B93F867220B68591C21601A70AFE454
:100DB0000023064D5A1992F8541222680133501C30
:100DC000082B20601170F5D1A2E400BF803800200C
:100DD000049401083C0500207A320020E8F7FF1F48
:100DE000ECF7FF1FF0F7FF1FB14D0B6895F8B3222A
:100DF000591C21601A70A96820460BF009FE23686F
:100E000095F85C22591C21601A70B5F8E41120464F
:100E10000BF012FEB5F8E81120460BF00DFEB5F808
:100E2000EC1120460BF008FEB5F8401220460BF0FE
:100E300003FEB5F8421220460BF0FEFD68E40025E3
:100E40009B4EAB19D3F82C13204604350BF0E0FD74
:100E5000B5F5807FF5D15BE4954D00230627284644
:100E6000002107FB03F6226802F1010EC4F800E03E
:100E70001370226802F1010EC4F800E011708A19A3
:100E80002A4492F86CE42268013102F1010C06292F
:100E9000C4F800C082F800E0E5D10133062BDFD1B1
:100EA000002221684D1C25600B7021684D1C2560B7
:100EB0000A70811891F89054216801324E1C0B2A57
:100EC00026600D70EDD123685A1C226007221A702B
:100ED00023685A1C226000221A70236890F89C2410
:100EE000591C21601A7013E40AF00CF800280CBF9A
:100EF0000222032223686F4D591C21601A70298831
:100F000020460BF085FDE96820460BF081FD09F0D5
:100F1000D9FF014620460BF07BFDFFF7F9BB01200E
:100F20000B685A1C0A601870614B226893F82D16E2
:100F3000151825601170226893F82B161518256076
:100F4000117093F82C26236819182160FFF7D4BB81
:100F500000250B6820465A1C0A601D700B685A1C3D
:100F60000A601D700B685A1C0A6029461D700BF040
:100F70004FFD294620460BF04BFDFFF7C9BB0B6820
:100F80005A1C0A6000221A70FFF7C2BB00234A4DA8
:100F90002268595D0133501C0B2B20601170F7D172
:100FA000204600210BF034FD002120460BF030FDDF
:100FB000FFF7AEBB3E4D2046B5F8E8100BF03CFD08
:100FC000B5F8EA1020460BF037FDB5F8EC102046D6
:100FD0000BF032FDFFF79CBB354B226893F84C12A7
:100FE000501C20601170226893F84D12501C206034
:100FF0001170226893F84E12501C20601170B3F8E3
:10100000EE1020460BF018FDFFF782BB284B22683C
:1010100093F8FC11501C20601170226893F818128C
:10102000501C2060117093F80E222368591C216017
:101030001A70FFF76DBB1E4D0B6895F8FF2162B368
:101040005A1C0A6008221A700B685A1C0A60012296
:101050001A70236895F8D520591C21601A702368EE
:1010600095F8D420591C21601A70B5F8D21020468A
:101070000BF0E2FC1149D5F8D80015F0E5F815F0B1
:1010800049FE81B220460BF0D7FC236895F8032275
:10109000591C21601A70FFF73BBB95F8FE21591CC3
:1010A00021601A70236895F8F821591C2160CFE758
:1010B0008038002070020020EEB301080000C84212
:1010C0009E4E0B6896F801229D4D591C21601A70A6
:1010D0002B682046198C0BF0AFFC2B682046598CEE
:1010E0000BF0AAFCB6F8041220460BF0A5FCB6F8EB
:1010F000061220460BF0A0FC2B682046998C0BF0C2
:101100009BFC2B682046D98C0BF096FCB6F8081295
:1011100020460BF091FCB6F80A1220460BF08CFC2E
:10112000FFF7F6BA864D002120460BF085FC002122
:1011300020460BF081FC2B682046598D0BF07CFC7F
:1011400023685A1C226000221A702B6893F8311011
:101150002368581C206019702B6893F83C10236892
:10116000581C206019702B6893F83D102368581C98
:10117000206019702368591C21601A702368591C5B
:1011800021601A702368591C21601A702B686D4900
:10119000586C15F059F815F0BDFD81B220460BF0E2
:1011A0004BFC2B686749186C15F04EF815F0B2FD32
:1011B00081B220460BF040FC2B6893F83320236863
:1011C000591C21601A702B6893F834202368591C2D
:1011D00021601A70FFF79CBA002A3FF499AA5A4B73
:1011E0001360FFF795BA9DF80F3009FB03831B7B53
:1011F000C3B19DF80F3009FB03831B6993B19DF8C0
:101200000F304A2109FB038318692B7846F8230025
:101210000DF0C6FF2B7856F823000EF02AF82B7835
:1012200001332B709DF80F300133DBB28DF80F3096
:10123000FEF7C4BF2268511C21601370FFF768BA23
:101240004728A6EB030648D128460BF0BBFB052E2A
:1012500007463FD928460BF0CBFB0026054694E80D
:101260000C009B1A103B394AAB42A846B8BF9DB24E
:10127000D3683946DB1B9D42204688BF9DB291460C
:101280000BF0C6FB3EB9294620460BF0D5FB236880
:101290005A1C22601E70D9F80C307A199A42D4F880
:1012A00000A088BFDD1B08F0D1FB2A465146384616
:1012B00009F020FF236803442360002E3FF428AA8E
:1012C000002280457FF724AA23680130591C216041
:1012D0001A70F6E701268025C1E75B2800F0E78356
:1012E00000F21981352800F0A48200F2A28029289A
:1012F00000F0A5842CD8232800F07F8206D80B2884
:1013000000F0AD854FF0FF30FFF7E9BB252800F076
:101310008B842728F6D128460BF06AFB074EC6F8C7
:10132000E40128460BF064FBC6F8E80128460BF000
:101330005FFBC6F8EC01FFF7EBB900BF8038002077
:101340005032002000002041115501087002002099
:101350002F2800F056855ED82B2800F088842D2891
:10136000D0D15A1C2A601B78D04F284687F85C32AF
:101370000BF03EFBA7F86E0228460BF039FBA7F8EE
:101380006A0228460BF034FB2B68A7F86C025A1C43
:101390002A601B78082E87F865327FF6B9A928469F
:1013A0000BF026FBA7F8780228460BF021FB0C2E49
:1013B000A7F87A027FF6ACA92B6828465A1C2A6047
:1013C0001A4612F8021B87F870122A605B7887F8B9
:1013D00072320BF00DFB102EA7F876027FF698A95B
:1013E0002B6828465A1C2A601B7887F85F320BF05E
:1013F000E9FA2B68C7F860025A1C2A601A78162E80
:1014000087F864227FF684A99A1C2A605B7887F8A3
:101410007332FFF77DB9312800F00C8533287FF453
:1014200071AF5A1C2A601A78A04B83F86722FFF725
:101430006FB9432800F07E843FD83C283FF468A968
:1014400027D8372800F0A58439287FF45BAF1946E8
:101450005A1C2A6011F8020B944A042E82F83802B2
:101460002960597882F83C1203F1030129609978C8
:1014700082F83B1203F104012960D97882F83D1209
:101480007FF646A9591D29601B7982F83F32FFF784
:101490003FB93E2800F0888141287FF433AF002314
:1014A00082482A68511C296011781A180133082BC8
:1014B00082F85412F5D1FFF72BB94C2800F0DF83E6
:1014C0000AD8482800F0A5834A287FF41BAF284695
:1014D0000BF08EFAFFF71CB94E2800F0F483512868
:1014E0007FF410AF724A92F83220012A3FF610A919
:1014F00019465A1C2A6011F8020B6C4A82F82D0614
:101500002960597882F82B16D91C29609B7882F8BB
:101510002C36FFF7FDB8D22800F01A817ED8CA28F1
:1015200000F0508152D85F2800F0FB8247D85D2838
:101530007FF4E8AE5A1C2A601B785E4FDFF86C819E
:101540002846D7F8009088F801320BF051FAA9F834
:1015500020002846D7F800900BF04AFA052EA9F88B
:10156000220023D928460BF043FAA8F804022846A3
:101570000BF03EFAA8F806022846D7F800900BF0C8
:1015800037FAA9F824002846D7F800900BF030FA73
:101590000D2EA9F8260009D928460BF029FAA8F83B
:1015A000080228460BF024FAA8F80A020EF0A8FE5A
:1015B00007F096F9386812F02DFBFFF7A9B86128FB
:1015C00000F00883C8283FF4A3A89BE6CE2800F0CB
:1015D000148310D8CC2800F05981CD287FF492AE26
:1015E000354B1B7859073FF593A84FF4C872334B1E
:1015F0001A80FFF78DB8CF2800F09181D0287FF4B2
:1016000081AE2D4B1B7858073FF582A80FF058FA92
:101610000EF018F80DF076FEFFF77AB8DB2800F030
:101620002D826BD8D62800F0CC8149D8D32800F081
:10163000A980D4287FF466AE0F2E7FF463AE5A1CC7
:101640002A601E78072E3FF65DAE28460BF0D0F9D3
:101650000E22164B02FB0636A6F8720128460BF046
:10166000C7F9A6F8740128460BF0C2F92B68A6F852
:1016700076015A1C2A601A4612F8021B284686F880
:1016800078112A605A7886F87921DA1C2A609A78CB
:1016900086F87A211A1D2A60DB7886F87B310BF0F8
:1016A00091F9C6F87C01FFF733B800BF80380020FD
:1016B0003C05002050320020984200204C140020AD
:1016C000D92800F0C981DA287FF41CAE5A1C2A60A0
:1016D0001A46C24E12F8021B284686F84C122A609F
:1016E0005A7886F84D22DA1C2A609B7886F84E32AA
:1016F0000BF07EF9A6F8EE00FFF70AB8EF2846D007
:1017000015D8DC2800F0C081DD287FF4FBAD5A1C21
:101710002A601A4612F8020B2A60DA1C59782A60ED
:101720009A780CF091F900287EF4F2AFEAE5F228FD
:1017300000F06081FA287FF4E5ADA94B1B785B07C8
:101740003FF5E0AD0DF07EFF0DF0DCFDFEF7E0BFF4
:101750005A1C2A60187806060BD4A14B1B785D072B
:101760003EF5D6AF022828BF00200EF0ABFDFEF7F5
:10177000CFBF00F07F00032828BF00200EF084FDBB
:10178000FEF7C6BF28460BF033F9FEF7C1BF284667
:101790000BF02EF9914EA6F8220228460BF028F9FC
:1017A000A6F82002FEF7B4BF5A1C2A601A468B49DD
:1017B00012F8020B81F8B2022A605B7881F8B1322C
:1017C000FEF7A6BF874B1868431E00F109062A687A
:1017D000511C2960114611F8027B03F8017F296032
:1017E0005178B342997202F10301296092781A7517
:1017F000EDD10CF089FEFEF78BBF5A1C2A601A78D7
:10180000132A3FF67FAD00204FF00C0C991C296085
:1018100075495F7801F1300E0CFB00F60EEB0608FF
:1018200098F80880B84500F06A8301301F28F3D18A
:1018300068E55A1C2A6019780E293FF663AD9A1C98
:101840002A605A78032A3FF65DAD0626634806FBF8
:10185000010181F8D625DA1C2A609A7881F8D12511
:101860001A1D2A60DA7881F8D2255A1D2A601A7961
:1018700081F8D3259A192A605A7981F8D425DA1D7E
:101880002A609B7981F8D535FEF742BF092E7FF695
:1018900039AD56485A1C07682A601A4612F8021BCE
:1018A000804639702A605B78791DBB700023022B5B
:1018B00014BF4FF0640E4FF0FF0E28680133421C36
:1018C0002A6002787245A8BF7246032B01F8012BEB
:1018D000EDD1831C2B604378642B28BF64233B72BB
:1018E000C31C2B608378FB70031D2B60C3782846D4
:1018F0003B710BF07DF80A2E78810CD02B68D8F85C
:101900000020591C296019780B2E51721FBF991C99
:1019100029605B78537013F0ADFEFEF7F9BE2846E0
:101920000BF066F82D4EA6F86A0228460BF060F818
:10193000A6F8CC0028460BF05BF8A6F8CE002846A7
:101940000BF056F8A6F8D00028460BF051F8A6F890
:10195000B80228460BF057F828460BF054F82846F2
:101960000BF051F82B6828465A1C2A601A4612F8C8
:10197000021B86F845122A605B7886F867320BF006
:1019800042F828460BF034F82B6800EB80005A1C14
:101990004000A6F80C022A601A4612F8021B86F8CC
:1019A00038122A605A7886F83C22DA1C2A609A7823
:1019B00086F83B221A1D2A60DB7886F83D32FEF756
:1019C000A7BE00260A4F28460BF012F827F816008B
:1019D0000136082EF7D1FEF79BBE00BF80380020ED
:1019E000984200205032002004940108AC160020D8
:1019F000D82F00205A1C2A601A780F2A3FF682AC92
:101A0000991C2960C2485978C2EBC202024482F88C
:101A10000211D91C2960997882F80311191D2960D7
:101A2000D97882F80411591D2960197982F80511B5
:101A3000991D2960597982F80611D91D2960997973
:101A400082F8071103F108012960DB7982F8083177
:101A50000CF018FDFEF75CBE28460AF0C9FFAC4E3C
:101A6000A6F8E80028460AF0C3FFA6F8EA002846D0
:101A70000AF0BEFFA6F8EC00FEF74ABEA54B1868B8
:101A80000EF0E8FCFEF744BE19465A1C2A6011F815
:101A9000020B9F4A82F8FC012960597882F81812DB
:101AA000D91C29609B7882F80E32FEF731BE5A1C91
:101AB0002A601A46964F12F8021B284687F8FE1134
:101AC0002A605A7887F8F821DA1C2A609A7887F811
:101AD000D5201A1D2A60DB78042BA8BF042387F8C1
:101AE000D4300AF085FF072EA7F8D20009D928467E
:101AF0000AF07EFF14F054FB874914F0A5FBC7F8E9
:101B0000D8002B686A689A4207D05A1C2A601B7852
:101B1000003318BF012387F803320EF0F1FBFEF704
:101B2000F7BD28460AF064FF7A4F28460AF060FFA6
:101B30002846D7F800800AF05BFFA8F82A0028465C
:101B40000AF061FF2B683A68591C2960194611F8A0
:101B5000020B82F8310029605978284682F83C103F
:101B6000D91C29609B7882F83D300AF04CFF28464A
:101B70000AF049FF28460AF046FF2846D7F80080B9
:101B80000AF036FF14F00CFB644914F05DFBC8F852
:101B900044002846D7F800800AF02AFF14F000FB22
:101BA0005E4914F051FB112EC8F840003B460CD999
:101BB0002A683868511C2960114611F8026B80F8B8
:101BC00033602960527880F8342018680CF09CFC4F
:101BD000FEF79EBD19465A1C2A6011F8020B4C4AAA
:101BE00082F819022960597882F82412D91C2960D8
:101BF0009B7882F80F32FEF78BBD494B1B785A0752
:101C00003EF586AD474A137843F004031370FEF7A0
:101C10007FBD09F09DFA0023434A1370434A1370B5
:101C2000434A1360FEF774BD0023394E2846B36063
:101C30000AF0C8FEB3681843B060FEF769BD2846D5
:101C40000AF0D6FE324EA6F8400228460AF0D0FE30
:101C50002B68A6F842025A1C2A601B78284686F890
:101C600044320AF0C5FEA6F84602FEF751BD5A1CE2
:101C70002A601A78264B83F8B322FEF749BD5A1C16
:101C80002A601A46224E12F8021B284686F8B6121F
:101C90002A605B7886F8B7320AF0AAFE2B68A6F8AD
:101CA000B8025A1C2A601B78284686F8BA320AF015
:101CB0009FFE2B68A6F8BC025A1C2A601B7886F887
:101CC000BE32FEF725BD5A1C2A601E78112E3FF643
:101CD00019AB9A1C2A605A7806F59E730C4E28465A
:101CE00006EB430632710AF083FE40F6CA039842BF
:101CF000A8BF184640F2EE239842B8BF18461923F1
:101D0000A0F2EE2090FBF3F07071FEF701BD00BF72
:101D100080380020503200200AD7233CCDCCCC3D67
:101D200098420020A44200202031002021310020D0
:101D3000243100205A1C2A60824E1B78284686F8DF
:101D4000B3320023B3600AF03DFEB36818432B683A
:101D5000B0605A1C2A601B78284686F85C320AF06C
:101D600047FEC6F8E40128460AF042FEC6F8E8013C
:101D700028460AF03DFEC6F8EC0128460AF038FE77
:101D8000A6F8400228460AF033FEA6F84202FEF703
:101D9000BFBC0722B6FBF2F2C2EBC203F61A7FF415
:101DA000B1AA5FFA82F8F3B298453EF4B1AC2A6862
:101DB0000136531C2B6092F9007038460BF096FFE9
:101DC000814600283FF49EAA877028460AF010FE3C
:101DD0002A68A9F800001146531C2B6011F8023B39
:101DE00089F803302960537889F80430D31C2B60BC
:101DF000937889F80630131D2B60D37889F8053065
:101E0000D1E7504E06F1400728460AF0F1FD2B6855
:101E1000A6F82C045A1C2A601A4612F8021B043633
:101E200086F82A142A605B7886F82B34B742EBD107
:101E3000FEF76EBC5A1C2A601F783F2F3FF662AA3D
:101E4000052E7FF45FAA28460AF0BCFD3D4B03EB4C
:101E50008703C3F82C030BF01FFEFEF759BC0021CB
:101E60001122394817F021FA102E4FF0000328BF35
:101E700010263449B342BEF44BAC2A68501C28608B
:101E800010785A1882F838060133F3E743445A6B46
:101E90001046019213F020FC002E7EF496AE019ABB
:101EA0001346FEF79DBE034493F8382023685E1C5A
:101EB00026601A70FEF7A4BB23682046591C2160D7
:101EC0001A70B5F8D8120AF0B7FD236895F8DB222E
:101ED000591C21601A70236895F8DC22591C216076
:101EE0001A70236895F8DE22591C21601A70236845
:101EF00095F8DD22591C21601A70FEF7F2B902F53F
:101F0000B07031440F4A91F8301002EB80025170EA
:101F1000D91C2960997800209170191D2960D97801
:101F2000D170591D29601B791371084B1A68084B31
:101F30001A6011F0A4FB074B80F001001870FEF747
:101F4000E7BB00BF80380020B83E002050320020A0
:101F500088140020100000202DE9F04F0A4B0B4C94
:101F60000B4A2360002310680A49A1B088426360CD
:101F700016D1136062B6084B186806F09DFC074B3B
:101F80001B689847FEE700BFC7C60008740500201D
:101F9000F04F0020EFBEADDE00F0FF1F04F0FF1F8A
:101FA0000A930B930C934FF4E013BD4D0D932B68E4
:101FB00043F480332B60AB6943F01003AB612B68B3
:101FC00003F400330B930A9B01330A930B9B1BB959
:101FD0000A9BB3F5A06FF2D12B6813F4003300F025
:101FE000868202230C93AF4BAF4F1A6842F0100267
:101FF0001A601A6822F003021A601A6842F002029C
:102000001A606B686B606B686B606B6843F480632D
:102010006B60A64B1A68043B22F070425A60A44AD7
:102020003A606A6822F47C126A605A6842F00042A0
:102030005A60DA6822F40042DA609B68180449BFEB
:102040009C4B4FF4E0133B604FF480130D930C9BBB
:10205000012B00F06482022B05D10D9B6A681343AB
:1020600043F480336B602B6843F080732B602B68E4
:102070009901FCD56B6823F003036B606B6843F038
:1020800002036B606B6803F00C03082BFAD16B68DA
:10209000DFF85C8203F00C03042B00F04482082B71
:1020A00000F04382824BC8F800306B68DFF844923E
:1020B000C3F3031319F80320D8F80030DFF838B25F
:1020C000D340C8F800307C4B4FF6FF72CBF80C3091
:1020D000AB690DF1800A43F00103AB616B6A774E87
:1020E000A3606B6A304643F080736B62AB6943F068
:1020F0001C03AB614FF000032AF82C2D51468DF8DC
:10210000563009F0E6F951466D4809F0E2F95146BA
:102110006C4809F0DEF910228DF8462002228DF875
:1021200047204FF4007220A921F83C2D304632613F
:1021300009F0CFF9644950464A6842F000724A609B
:1021400006F09FFA159B614A3046B3FBF2F34FF459
:102150007A72E360D8F800304E46B3FBF2F35C4A83
:10216000013B5360F0238BF8233000239360072357
:102170004FF001081360DFF884C1564A09F10E01DF
:10218000002331F802EF4EFA03F919F0010F18BFDE
:1021900008FA03F903F101031EBF1060A2F80490CE
:1021A0000832102BEFD100F580606045E8D13B6824
:1021B0003F4A934240F0CB810122474B1A700AF00C
:1021C000BFFA18B90EF07CFC0DF03CFA0DF09AF84D
:1021D0000021DFF82C91414F99F8003097F8F92150
:1021E00043F0010389F800303D4B08461A703D4A20
:1021F000BB68029213600DF04BF8002101200DF036
:1022000047F8029A97F81333CDF81090BB464FF079
:10221000010817464FF00509DFF8E8A023740BEB1F
:10222000080393F80F03002800F097810CF094FF47
:10223000CAF8000080F8069080F807801221DAF8CA
:1022400000000CF0ADFF08F10108B8F1040F0AF12D
:10225000040AE4D1002108460DF01AF800210120FB
:102260000DF016F8AB69402243F00103AB61002189
:102270001D4817F01AF84FF0FF331C4A2366C2F8C6
:1022800003303B681B073FD59BF85C32012B3BD8E2
:10229000A5689BF8653215F0805501F04E8733E054
:1022A00000100240002002401400002004100140F1
:1022B00000127A00001BB7000005FA050008014073
:1022C000000C0140001001400000014040420F009E
:1022D00010E000E0383100203C050020803800206C
:1022E00078320020D425002094050020D405002059
:1022F0006C020020A895010800ED00E000140140E8
:102300009E4300208805002064200EF034FDA022AA
:102310000021B44816F0C9FF0025DFF83C83DFF840
:102320003C93002355F8080059F83320D900904217
:1023300040F040817318187F103511F0A1F8E02D9E
:10234000EFD10425A84BA94ADFF814931A600021A5
:102350003022A7483E6889F8005016F0A6FF0023F7
:102360004FF0FF0C18462946DFF8F8E2A04D06F0C2
:1023700040081EF9012F03EB050A5A55B8F1000F6A
:1023800009D11E3AD2B2012A9FBF012001F1FF31CB
:102390008AF800C0C9B20C33302BEAD108B189F8F1
:1023A0000010944A944BC4F80C2116F48052059204
:1023B0009BF8B3A2914A83F800A0039314BF13685B
:1023C000D4F81031DFF8A0829B888D48A8F800303F
:1023D0008C4B1568D3F810118B4A0C88029304803B
:1023E00048888A490880698811802988884A11802C
:1023F000884A1468B4F81890C9F5FA6013F0D0FE52
:10240000854AE48AED881060A4EB0900401B13F0B4
:10241000C7FE824A1060C4F5FA60401B13F0C0FE8C
:102420007F4A80491060804A029B11607F4A1D46A6
:1024300032407F49002A40F0C3807E4B03EBCA0341
:102440005B780B60002340F2DC517B4A22F81310CA
:102450000133082BFAD1BBF8D0300293059B13B19E
:10246000BBF8EC3002939BF8D430042B05D14FF429
:1024700080500CF03FFF002302930026039B6F4C1B
:102480001A782670A2F11703022B00F2EF804FF0AA
:10249000000AD5F80C215146905902EB060914F0B8
:1024A00067F8002800F08E803B68DF0400F1FF80B1
:1024B0000023B8F90010624A22F8131001330C2BE4
:1024C000FAD12378F02200215E48069316F0EDFE43
:1024D0009BF8D4209BF8D5105B4B042A00F20C81AA
:1024E000DFE812F0B3010A0117011B011F012A687E
:1024F00042F001022A600A932B6803F002030B9357
:102500000A9B01330A930B9B1BB90A9BB3F5A06F7F
:10251000F2D12B689E0701D5012363E5FEE76B68C6
:1025200043F460139EE53B68BDE56B686A68C3F3DE
:102530008343D20303F1020302D4444A5343B2E576
:102540006A6812F4003F3A6818BF5208F6E7404A3A
:1025500093427FF434AE02222FE6CAF8000072E6FE
:10256000002108460CF094FE0021A06E0CF086FEBF
:1025700078200EF0F5FB012100200CF089FE0121EE
:10258000A06E0CF07BFE78200EF0EAFB01359BF884
:1025900065329D42E4DB9BF86632012B7FF4B4AEDA
:1025A000A36813F080537FF4AFAE8BF865320DF063
:1025B0009DFEA9E60133042B7FF4B6AE0020BBE6F6
:1025C00001233EE7234B06EB030E99E80F008EE84C
:1025D0000F00237810360133C02E23707FF459AFDB
:1025E00062E700BFE0050020D43E0020583B0020F9
:1025F000D83E00208C38002009120020281100202D
:102600006E10002074050020341100206C10002092
:102610002C110020241100203C110020301100203A
:102620003811002082390020D42A00202000100018
:1026300004120020ACA301083E050020CC4100207C
:10264000D82F0020F82F0020402A002000093D004C
:10265000001BB7004411002098B10108C095010883
:102660002C2A0020DF9501081E310020AF4B13F803
:10267000321003EBC2030C29217088BF0C21D3F860
:1026800004C088BF2170BCF1000F3FF40DAF0026DD
:10269000DFF8F89223789E42BFF606AF330103EBD2
:1026A000090E63440FCB01368EE80F00F2E7237862
:1026B000012B7FF6FDAE4FF07C569D4F07EB0313C9
:1026C00003F110091037B9453FF4F2AE314657F81F
:1026D0000C0C13F0B9FD314647F80C0C57F8100CF0
:1026E00013F0B2FD314647F8100C57F8080C13F000
:1026F000ABFD47F8080CE5E708278E4A1A608E4ABA
:1027000000298E4B12BF4FF001084FF0000813460E
:102710000FE08B4A18271A60F1E78A4A48271A60A7
:10272000EDE7894A18271A60002302934FF0010849
:10273000824B864C0026A246854A1360854B7B431C
:102740000593069BB34240F3B2800BEB060393F86C
:10275000DC301846079310F015FF079B81460028D0
:1027600079D17D4A7D4B1A60744A794B1A607C4C52
:102770002368002B40F0AE80039B1B7803F0EF0230
:10278000082A784A40F0C9801178182B41F01001CE
:10279000117001D10BF076FE2368734C002B40F0D2
:1027A000F980724ADFF8E8911368029213F001078A
:1027B00040F02C819E0440F179819BF81D3309F58E
:1027C000047689F8E032E31993F815231046059250
:1027D00010F0D8FE804690B34FF000034FF0010A8E
:1027E000059A06F80E3C06F8063CFBB206F80F3CCC
:1027F00046F8040C06F810AC104603930CF0ACFC41
:10280000039B80F806A05344C3712A210CF0C8FC36
:10281000002298F80510D8F800000CF0B3FA5246E0
:10282000002140460EF0ACF9514B321D3360514B44
:102830003146736000234046B3600EF0F5F901376E
:10284000082F06F11C06BED130E14B4A01271A6061
:10285000002302936AE718460CF07EFC4FF0030257
:1028600020618271721CC2711A210CF099FCFAB2BB
:10287000B8F1000F1FD0BBF8D2300599B1FBF3F3CC
:1028800002999BB20091494620460CF0EFFA0023D2
:102890001422B34214D1002383F0010323720123D5
:1028A0001E440C2E237304F114047FF44AAF01225A
:1028B000324B1A705BE7CDF800804FF6FF73E2E70A
:1028C00002FB03A148686168884201D00133E0E758
:1028D0000123E1E7039B2A491A782A4B13F83200B7
:1028E00003EBC2035E680870002E3FF445AF00237F
:1028F000254F8342BFF640AFC3EBC3017218D2F835
:1029000000C001EB070E41F807C091880133AEF813
:10291000041092798EF80620EBE70E2B3FF434AFCB
:102920001178192B21F01001117032E7ACA30108C6
:1029300048110020D1E8000807E80008C9E70008AE
:10294000A5E8000871E80008DDE70008F82F00207E
:10295000D041002040420F0005E80008402A002036
:1029600004120020A442002080380020D42500203A
:10297000C1ED000835E60008CBE700083E2A00203C
:10298000622A002084A40108632A00204411002048
:102990007405002000264FF0040A1A4F04F1F309D1
:1029A00019F8018FB8F1000F3FF4FBAE40460CF070
:1029B000D3FB0136F6B23861029080F806A0C671EA
:1029C000404610F0DFFD8046029B1A2118460CF0AD
:1029D000E7FBB8F1000F3FF4E4AEB4F8F2300A4A76
:1029E000384692FBF3F3B4F8F0209BB200924146D4
:1029F00001220CF03BFA0123082E3B7307F1140768
:102A0000CED1CEE68806002040420F000026FF23EC
:102A10009BF8148385F8B4614046C5F8B861C5F8E1
:102A2000BC61C5F8C061C5F8F46185F8F83185F876
:102A3000F93185F8FA6185F8FB6185F8FC6110F0E1
:102A4000A1FD9BF8D4A0074680B30268CF49731854
:102A5000187B18B15B689A4200F0C8821436F02ED9
:102A6000F5D10026C5F80C7285F8006240460CF0DE
:102A700073FB0222C67182712A210CF091FB32464F
:102A8000797938680CF07EF90122314638460EF02B
:102A900077F8BF4BBF4AC5F81032BF4BC5F8186274
:102AA000C5F81432111F38460EF0BEF8049B049A84
:102AB0001B789BF8260343F0040313700CF04CFBC7
:102AC0009BF82723C9F8E402003218BF012289F8D5
:102AD000E82258B1242282710022C2719BF8283367
:102AE00093420CBF122116210CF05AFB002010F06B
:102AF00073FB22200CF030FB01272723064683714D
:102B0000C77112210CF04CFB3046A44E00210CF092
:102B1000B5FB307E10F0B4FC337E03F01F025B097E
:102B2000022B07FA02F700F07282032B00F0748286
:102B3000707D0CF011FB4FF00208122380F8078023
:102B400083710746F07D0CF007FB4FF0130980F806
:102B5000078080F80690B07D0CF0FEFA14231B214C
:102B6000837180F8078038460CF01AFBF07D0CF07A
:102B7000F3FA07210CF014FBB07D0CF0EDFA1B21E9
:102B80000CF00EFB307D40B10CF0E6FA1F2280F80D
:102B90000780827149460CF003FB3369804A9342F7
:102BA00040F03F8202F56042D16841F48051D1602B
:102BB000D16821F48051D160327F002A00F04D822B
:102BC00000221046198801F4415141F445710A432D
:102BD00002431A809A8B307D22F400621204120C98
:102BE0009A8307221A821A8892B242F040021A800F
:102BF00018B10CF0B1FA0CF03CFB6A4E3378032BA1
:102C000000F02E82012008F0DBFC1F200AF0F5FF07
:102C10002C200CF0A1FA9F238DF844300023C5F836
:102C2000EC02804632208DF845308DF846308DF824
:102C300047300EF0A0F8D5F8EC020CF015FB04229A
:102C400011A915A810F0B0FCD5F8EC020CF011FB9E
:102C50009DF856309DF855201B0243EA02439DF82B
:102C600057201343504A93421BD032200EF083F872
:102C7000D5F8EC020CF0F8FAF52010F0CDFCFF20AE
:102C800010F0CAFC8DF85400D5F8EC020CF0F1FA03
:102C90009DF85430702B04D13378022B01D10323DB
:102CA0003370029B414D1B680021C3F3400284F83E
:102CB0001E23C3F3C02284F8222303F0020903F485
:102CC000006603F400471422C3F3C033284684F897
:102CD000203316F0EAFA2846B9F1000F02D094F832
:102CE0001F332B7017B194F82133C37394F8243336
:102CF00013B194F82533837216B194F823334371DA
:102D000000232A4D4FF007092F461E469A46DFF84A
:102D1000ACB00BF13C023878F0B102920CF01CFA26
:102D2000002180F8069080F807A00CF039FA002303
:102D30003878029A12F813E05900864540F09F81D6
:102D40000BEB010393F83D307B7007233B710123AC
:102D5000711CBE70FB70CEB209F101095FFA89F9EE
:102D6000B9F10B0F07F10507D5D1002B00F0D78083
:102D70000F4F49207B6843F440437B6010F080FB99
:102D80000C4A0D49384600231AE000BFF82F0020F6
:102D90005DE600088807002091E700084403002052
:102DA000003001403C05002015202000F8130020D1
:102DB000001002408002002008000240A89501088F
:102DC0004FF01C0C96460F460CFB0329D9F80490D3
:102DD000894540F05A81DBB21C2101FB03E34269C3
:102DE00019694FF000090A434261062283F81990DD
:102DF0001A76B74805F0C1FC15A805F093FCB54B51
:102E0000022E1593B44B15A9169334BF4B4680235D
:102E10001A934FF480731B934FF480631C93202309
:102E20001D934FF40053AA4818961E93CDF85C905A
:102E3000CDF86490CDF87C9005F081FC012E94BF14
:102E4000002201223B68A54943F001033B604B6827
:102E5000072723F4702323F4807343EA02234B6093
:102E60008A689F4BDFF8A4E2134043F4602343F0E9
:102E700002038B60CA6A731E22F47002DBB242EA5C
:102E80000353CB621F260123EA784AB395F80190D9
:102E9000581CB9F1090FC0B295F804A040F2FB80AC
:102EA000A9F10A02D1F80CB002EB420C07FA0CF2BD
:102EB0002BEA020B0AFA0CF242EA0B02CA60062B5A
:102EC00000F2F68003F1FF3C4A6B0CEB8C0C06FA27
:102ED0000CF322EA030309FA0CF21A434A6303468D
:102EE0000535AE45D0D17D4B9A6842F480729A6028
:102EF0009A6842F001029A609A6842F008029A6069
:102F00009A681507FCD49A6842F004029A60734BE1
:102F10009A685007FCD49A6842F4A0029A60D4F8E8
:102F2000E401002841F08D81D4F8E831002B41F014
:102F30008881D4F8EC31002B41F08381694D6A4BD4
:102F40006A4F5822002128463B6016F0AEF9684BC4
:102F50002320EB620DF00FFF0DF1270201217520F8
:102F600007F03AFF002800F0E080624B0EAA2B63C6
:102F7000614B01216B634323002085F8443007F047
:102F80002BFF9DF8383003F07E038DF83830002891
:102F900040F0E0819DF8273003F07E03682B8DF828
:102FA000273040F0FA810223062185F8273015AA40
:102FB0002B6B084698479DF859309DF857209B0089
:102FC000520002F0020203F0040313439DF855205F
:102FD00002F001021343DAB2002B00F0D181012A82
:102FE00040F0C281002385F82830E7E00AF1FF3382
:102FF000032B3FF636ADDFE803F00208060808228F
:103000003E4B1A702DE54822FAE71822F8E73C4BB0
:10301000DA681743DF608BE5394B1A6917431F6184
:1030200086E5384A93420AD102F5EC32116941F43F
:1030300080411161116921F480411161BCE5324A7E
:1030400093427FF4B9AD02F5EA32116941F40041CF
:103050001161116921F40041EFE701220220B1E57D
:1030600002200AF043FE18B10388002B7FF4D0AD94
:1030700002200AF0C2FD012008F0A2FAC8E50133DF
:103080000A2B7FF457AE00235EE60133072B7FF453
:103090009BAE0023A0E60A6909EB490B07FA0BFC7B
:1030A00022EA0C0C0AFA0BF242EA0C020A6106E769
:1030B0000C2B2DD8DA1FD1F830C002EB820206FAB1
:1030C00002F32CEA030309FA02F21A430A6306E741
:1030D000080002404C2401400C1400200024014050
:1030E000FDF7F1FF4C1D00207C3A0020B01D0020B0
:1030F000F8950108D9AD00084DAD0008000000208A
:103100000010024000380040003C00400C14002039
:103110000D3BCA6A03EB830306FA03FC22EA0C02A6
:1031200009FA03F31343CB62D9E6A54E96F8F032C1
:10313000FBB91C2288F8073088F806201321404686
:10314000C6F8F4820CF02CF89E4A138823F0400352
:103150001B041B0C1380138823F038031B041B0C67
:10316000138013889BB243F040031380012386F839
:10317000F03215AA0121752007F098FC9DF8543013
:10318000702B0CD004D8122B00F0E280002307E053
:10319000712B00F0DB80AF2BF8D1082300E0052372
:1031A00086F8F83296F8F83243B185F82730432391
:1031B00085F84430844B2B63844B6B63002385F884
:1031C000263095F82730824E042B40F0D587814A6F
:1031D0002A60814A063B6A60804ADBB2EA60804A24
:1031E000032BAA6196BF7F4A07239B184FF0010269
:1031F00098BF93F8513085F82620002B01F01880F5
:10320000794A7A4811684370073B042B41F0010169
:103210001160904684BF00223B68814688BFDA7106
:103220003B6893F803A0BAF1000F03D0BAF1070F7F
:1032300040F0BE809878DB79002B00F0B480022348
:103240006B4F85F82330431E85F8243012F0A8FF19
:10325000394612F0F9FF13F0F9F9DFF8A8B12B683D
:10326000A86485F822A063489847634F05F038FBAF
:10327000402200215846D5F848A016F016F80FCF86
:103280000BF1140EAEE80F0097E8030037F8193C75
:103290008EE80300ABF812309BF812205F464FF027
:1032A000010E42F2022C41F6FD5B454B94F81912D7
:1032B00093F8F8020E290B4628BF00230EFA03F1FB
:1032C00011EA0C0F40F0A88011EA0B0F00F0A48067
:1032D000042A40F0A187494B3B60494B082A7B6098
:1032E0004FF001037B7400F0A087092A66D0062AFC
:1032F0000CBF0A23082389F80230D8F8003041486F
:1033000043F00203C8F800304FF480733B813B6800
:1033100098474FF47A73FB623B4B1A889946002A10
:1033200000F080804FF00008DFF8E8A0B9F8000056
:1033300012F032FFFA6A01460AEB080008F11C0895
:1033400009F09EFDB8F1540FF0D16BE0062327E79A
:10335000092325E7682B7FF41DAE012385F827306C
:103360001D2385F8443029E7022A01D101233AE6DA
:1033700003F00303032BF9D003200DF006FD1DE736
:103380002B6B11AA01210C2098479DF8443013F0B3
:103390000F03F1D0042BE9D124E6702B04BF0423E2
:1033A00085F827300AE70123184F85F823304AE7CC
:1033B0000023174F85F82330012044E70C239AE7B8
:1033C0007405002000380040ADAA0008DDAA0008FE
:1033D0008038002005AB000803AA0008EFA9000808
:1033E00090C1793DA89501081C42002000000020F2
:1033F0000000FC414C1D00207C1D0020CDA90008D0
:103400004BAA0008204200203E3300200000FA4270
:1034100000007A4440330020012B4FF000013FF6BA
:1034200049AF79740022B94B9A6194F8FC21002AC3
:1034300040F0618194F8182202B17A7496F80E2255
:1034400002B11A720121B24A084613784FF00A08F5
:1034500043F0020313700BF01BFF002108460BF032
:1034600017FF01200BF06AFE00200BF067FE192009
:103470000DF081FCD4F83036D90302D401200FF0CE
:10348000ABFE19200DF077FC00200FF0A5FEB8F17F
:103490000108E6D1414640460BF0FAFE41460120C4
:1034A0000BF0F6FE94F8F831A86C9A4D58439A4BFD
:1034B0009A4F186012F070FE994912F0C5FE994BB0
:1034C0001860286810F0A6FB28680BF01DF8964BD2
:1034D000964D587A12F064FE954912F0B5FE954962
:1034E00012F0AAFD09F0C9FB934B186010F084FCA0
:1034F0001E22FF21384615F0D8FE012229688F4B85
:1035000011F4800F1A7001BF02221A701B227A7008
:103510008B4A87F8008038461768904617F0020FEC
:103520000ED001274FF0020E1A788754D719FFB238
:1035300000F807E0D71C1F7005277244D2B28754E9
:10354000CA0504D51A78571C1F701A27875494F897
:10355000B342082C01D00E2C04D11A78571C1F70CE
:103560000B2787544FF00C0E1A7811F4803F02F1AC
:10357000010700F802E0FFB218BF02321F701EBF41
:103580001A700E22C2550A0304D51A78571C1F70F0
:10359000192787544FF01D0E1A7811F4805F02F13D
:1035A000010700F802E0FFB218BF02321F701EBF11
:1035B0001A701C22C2558A0604D51A78571C1F702F
:1035C000072787544F0704D51A78571C1F701027F8
:1035D00087544FF0120E1A78490502F10107FFB225
:1035E0001F7000F802E006D596F8FC1219B10232FD
:1035F0001A701322C255182C0BD1162117271A78CE
:103600008154511CC9B24754D11C0232D2B2197034
:1036100084544FF4197200214A4815F046FE07F011
:10362000ABF8494B494AB6F8EE101360484A494F87
:1036300011800022484CDFF840E1A76003977746ED
:10364000464947480A808A704649DFF830B10B6026
:10365000454B46491A70464BDFF824C11960B6F84D
:103660006A32606019B20290DBF800002EF8121086
:1036700000F596704CF822000132122AF4D1286825
:10368000C20458BFB6F97812F9803A4901F1500ED8
:1036900091F88125BAB991F883C591F884259445AC
:1036A00011D2BCF1000F29D00CF1FF3C0CEB8C0CBB
:1036B0000CEB8C0C0CF5617291F882C592B20CF196
:1036C000040C27F81C2004318E45E1D1020740F19B
:1036D000CD8096F85C720A2F00F2C180DFE817F007
:1036E00052005200C80209032E034E034E03D803B2
:1036F000BF00FD03520085F826209BE6013202EB55
:10370000820202EB820202F56172D5E76442002078
:103710009E430020503200204C3F00204E050020E8
:10372000BD378635142B002080420020D425002090
:1037300035FA8E3CDB0FC93FA04200206C0500200B
:103740001C42002040270020D43A002028140020EA
:1037500026140020DDA00008FC2500201C270020E6
:10376000E1A00008E8260020D8130020A086010070
:10377000DC25002080380020EC26002018270020BF
:1037800090130020C44B40201C600AF0EFFA8146E1
:10379000002864D04FF0000AC04F87F800A00AF05C
:1037A0004DF896F85C12834601290BD0C0F04E828A
:1037B0000A2915D12B6813F480631CBF80F0010324
:1037C000DBB23B700321B64B19700721B54B197062
:1037D0000121B54B19700C23237042F6F823638046
:1037E000B24B6360B24BA36099F90200BBF1000FCA
:1037F00040F03A823B78002B0CBF012303233A7838
:10380000002A40F0338296F85E22002A0CBF002284
:1038100008220192009340214FF4E133A54A0AF0B7
:103820001BFAA54BA5491860BBF1000F01D0C1F8E8
:10383000FC0296F8673294F800E0013BDBB2A04A44
:103840009E4513709CBF0023137020B13B7813B1C9
:10385000012381F80033003018BF012030B908205F
:103860000BF048FD029B6360039BA36042F20103DF
:103870002A681A4209D044F620636380930440F119
:103880005883082323708F4B636000278E4B8B4C2B
:10389000DFF85C92D003C9F80030C4F8043384F830
:1038A000087340F1EC800AF0F7F8012384F808333C
:1038B000D9F8003040F22A6293F871B1394604F227
:1038C000093015F0F2FCBBF1000F00F0CA80584639
:1038D0000FF058FE03688246C4F834398368002B21
:1038E00000F0BF8058460BF037FC2822C771827168
:1038F0001B21C4F838090BF053FC744AD4F834097E
:103900009346394602F1180757F831304FEAC10E95
:10391000984240F015837244107F0FF0B1FD6C4B5C
:103920006C4A1B680027B3FBF2F31D22013B20A960
:1039300021F8483DD4F83409ADF83E70ADF83A703E
:103940008DF84070ADF83C204FF001090FF0D4FD28
:10395000602311A9D4F83409ADF84870ADF84A7065
:10396000ADF84C70ADF84E70ADF85070ADF85270C7
:10397000ADF84430ADF8469004F02EFED4F834197A
:10398000554A0B8B23F008031B041B0C43F0080360
:103990000B83B1F844306FEA43436FEA53439BB261
:1039A000A1F844301C219AF80C004C4B01FB00306C
:1039B000516903691943516128214776017651699C
:1039C0000B435361464B47618360437B15A88DF8D9
:1039D00054308DF856708DF855908DF857900FF043
:1039E0006DFDDAF80800C4F83C0904F0C6FE15A81D
:1039F00004F098FED4F834399AF80520343313448F
:103A00001593384B15A916931023179340F22A6388
:103A1000189380231A934FF480731B934FF4005331
:103A2000D4F83C0919971C971D971F971E9304F013
:103A300086FE9AF80530D4F834290C2B98BF0BEB8E
:103A4000430B938998BFBBF856709BB21F43978175
:103A5000D4F83C29136843F002031360012384F86F
:103A600040390023FF211F461F481F52C21804334C
:103A7000B3F5807F9170D170F7D111F0A9F92B685F
:103A8000590574D5D4F8442A184B04201A600AF05A
:103A90006DF904212EE000BFA4260020A9260020F5
:103AA000A3260020A8260020CF2400205D9C00082B
:103AB00079A3000899A40008E026002074050020DE
:103AC000A2260020F5A00008AC3B0020A895010824
:103AD0006C02002000366E010010024080020020BF
:103AE0008DB100087D080020B60E0020D014002003
:103AF000E0290020C4F8480A0AF00CF9D4F8442A56
:103B0000C24B84F84C0A08201A600AF02FF9C04B07
:103B1000082118600AF0FEF8BE4F002184F84D0A13
:103B20002C22384615F0C1FB7C233B708E237B7022
:103B3000E023FB707D23D4F8442A87F82B30B64B62
:103B400020201A600AF012F92021C4F8500A0AF065
:103B5000E1F884F8540A10200AF008F91021C4F89A
:103B6000580A0AF0D7F884F85C0A09F071FEAB4FE6
:103B7000B7F80090B9F1000F40F0078296F82F06D1
:103B8000002800F002820BF0E7FA1A2280F8079072
:103B900082711321C4F8600A0BF002FBD4F8600AAA
:103BA0000BF067FB00BF9E4A3220138823F04003CE
:103BB0001B041B0C1380138823F038031B041B0CFD
:103BC000138013889BB243F0400313809F238DF82A
:103BD00045908DF844308DF846908DF847900DF063
:103BE000CAF88DF8559000BFD4F8600A0BF03CFB82
:103BF000042211A915A80FF0D7FCD4F8600A0BF025
:103C000038FB00BF9DF856309DF855201B0243EA53
:103C100002439DF857201343824A934200F07D826D
:103C200000F39481804A934200F0998101329342DB
:103C300000F09E81A2F51A42033A934200F0688296
:103C400000233B807B80BB60FB609EE102207749C4
:103C5000072308700320764923700870754945F2E0
:103C6000F05381F800A0BAE50323C8E50822D0E5A7
:103C70000A221B0193FBF2F300226F49A3F5B06304
:103C800041F822300132122AFAD142F6F823638039
:103C90006A4B402063606A4B2270A3600AF066F8AA
:103CA000074600283FF4DBAD09F0C8FD96F85D3209
:103CB00096F85E1200280CBF01220322002B0CBFD5
:103CC0000623072300290CBF0021082197F902E0F1
:103CD00007460B438DE80C005A4B5B4A4021704667
:103CE00009F0BAFF002F3FF4B6AD584BC3F8FC0201
:103CF000B1E51023237042F6F8236380544B402033
:103D00006360544BA3600AF031F8074600283FF483
:103D1000A6AD09F093FD96F85E2200280CBF0123A2
:103D20000323002A0CBF0022082297F902E0019227
:103D3000009307464FF4E133474ACFE70823237047
:103D400042F6F8236380454B40206360444BA360F8
:103D50000AF00CF8074600283FF481AD09F06EFD2B
:103D6000002200280CBF0123032397F902E00192EF
:103D7000009307464FF4E1333A4AAFE700234FF090
:103D80000C0E394839493A4A062FDFF8FCC084F84E
:103D900000E003700B7013702CD01B2305224FF42E
:103DA000E13B8CF80030334B83F800E0324B1A7063
:103DB00042F6F8236380314B40206360304BA360B0
:103DC00009F0D4FF074600283FF449AD09F036FD5D
:103DD00096F85E2200280CBF01230323002A0CBFA3
:103DE0000022082297F902E00192009307465B4601
:103DF000244A73E721238CF800301E4BDFF88CB087
:103E000083F800E01C4B1F70D2E700BF10150020A4
:103E10002C150020E0140020A416002070020020C1
:103E2000003800401620C20017BA2000A326002048
:103E3000A8260020CF24002000250020859C000813
:103E4000A19C0008A0860100E5A4000874050020DC
:103E5000C19B0008D59B0008D5A20008399B00082B
:103E6000519B00088DA20008282400207126002004
:103E7000702600204D240020722600203581000885
:103E8000859A0008B5A100082924002090D00300DD
:103E90000E23237044F620636380BC4B4020636094
:103EA000BB4BA36009F062FF074600283FF4D7AC84
:103EB00009F0C4FC96F85E2200280CBF01230323FE
:103EC000002A0CBF0022082297F902E00192009319
:103ED00007464FF4E133AF4A00E70A221B0193FB88
:103EE000F2F30022AC49A3F5B06341F8223001326D
:103EF000102AFAD142F6F8236380A84B4020636071
:103F0000A74B2270A36009F031FF00283FF4A7AC53
:103F100096F85E3290F90200002B0CBF00230823B4
:103F2000019303239F4A009340219F4B09F094FE85
:103F300091E4D7077FF5A9AC0C2323709B4BA3E436
:103F4000013104297FF4E0AC0020E6E4984A934272
:103F500000F0E58005DC023A93427FF471AE8023E5
:103F6000D7E0944A9342FAD0013293427FF468AE8C
:103F70004FF480733B807B80BB883A881B02BB6018
:103F80005343FB60012384F8643AFF68C7B14FF0E4
:103F9000000AFF0A0DF1540BBA450CDA0AEB0709C7
:103FA0004FEA6909102259464FEAC92007F0A2F8E2
:103FB0000F2800F3B78005F049FD7F4BFF021F601B
:103FC0002B687E4A13F4002318BF0123137096F860
:103FD000B332052B02BF4FF4C872794B1A8004F03C
:103FE0006EFC784A137843F008031370764A13780E
:103FF00023F00203137040F602022B681A420ED01F
:10400000724A734B1A600322724B1A700023724A71
:104010001370724A1370724A1380724A1380012718
:10402000B36800212B60704B30221F706F4B7048BB
:104030001F7015F03AF900236E4E6F4A3046136038
:10404000C4F8683A04F0DCFE6C4B39469B6C384689
:10405000642B38BF6423736404F00AFFD8F800307F
:104060009A0709D53946022004F002FF644BDB6A47
:10407000642B38BF6423B367D8F800100320C1F362
:104080004001604F04F0F4FE0121052004F0F0FE31
:10409000B7F8F8225C4B072093FBF2F3642B38BF90
:1040A000642340F60202C6F814312B681A4214BF8A
:1040B0000121002104F0DCFE0121042004F0D8FEDF
:1040C00094F80013062004F0D3FE0121082004F028
:1040D000CFFE29680920C1F3802104F0C9FE2968B8
:1040E0004B0508D597F85C32083B012B9CBF4FF479
:1040F000FA63C6F8E431C1F300410A2004F0B8FEC7
:10410000424A137863F07F03137021B0BDE8F08F4B
:1041100020233B804FF480732DE74023F9E74FF4D1
:104120000073F6E700235BF82320013240F085801E
:104130000133042BF7D14F462EE7013B092B3EF606
:10414000E3A8012108460BF0A3F813200BF004F8B4
:104150002622C57182711221A0660BF021F801217F
:10416000A06E0BF08BF83C200CF005FE29460120D8
:104170000BF08EF8FEF70BBA254A92F8F8229A4215
:1041800056D1002B54D0234AFFF722B805A10008CE
:1041900015A1000891A5000864250020219E0008B3
:1041A000519E000839A50008A0680600E5A0000897
:1041B0001920C2001740EF00243100206E050020B6
:1041C0004C140020A442002098420020B83A00205D
:1041D00044220020582200205922002040220020A2
:1041E0008232002084320020081200203C3300205C
:1041F000602200201C0000205C2200204C1D0020BA
:10420000204200208038002040420F009E430020C2
:1042100074050020D5AC000882427FF4FDA8002A76
:104220003FF4FAA84C4BFFF757B80B23FFF763B8DE
:1042300001200CF0AAFDFFF705B909F1010AB94602
:1042400079E70022454B00B21A7011F0A9FF4449EA
:1042500011F0FAFF0746B4F9E80111F0A1FF404957
:1042600011F0F2FF0646B4F9EC0111F099FF3C4958
:1042700011F0EAFF3B490546384611F0DDFE08F033
:10428000FCFC0290384608F0F8FC364907463046F8
:1042900011F0D2FE08F0F1FC8146304608F0EDFC4A
:1042A00030490646284611F0C7FE08F0E6FC834672
:1042B000284608F0E2FC02998246584611F0C4FFF5
:1042C00002990390504611F0BFFF594604903846BA
:1042D00011F0BAFF51460590384611F0B5FF494636
:1042E0000690584611F0B0FF1F4D5146286009F165
:1042F000004011F0A9FF05996860AE60304611F0EA
:10430000A3FF049911F098FE0699E860304611F079
:104310009BFF0146039811F08DFE4946286107F185
:10432000004011F091FF03996861304611F08CFF55
:104330000146069811F07EFE0499A861304611F0FE
:1043400083FF059911F078FE0299E861484611F063
:104350007BFF2862FEF7F2BDD5A9000818000020F7
:1043600035FA8E3CDB0FC93F042200202DE9F04FC7
:10437000904AA5B013780690012B904607D18E493C
:104380008E4A0968496A11808D49098851808D4C8F
:1043900094F800A0BAF1000F00F02E83072B02D191
:1043A0000CF096FC0890884B1A68994612F4806FBE
:1043B00004D0864883680BB185499847854B864E63
:1043C0001B78C3B1854BB3F90620B6F86C329A421C
:1043D00011DC96F8B332012B01D0192B02D196F8DB
:1043E000FC2042B90E2B06D0082B04D000227C4BB7
:1043F0009A800023E36096F836526DB3794B1B88A0
:104400009F0729D0784B79491F6A384612F0C4F8C3
:10441000002840F0C580384612F0F4FC216911F004
:1044200013FF12F077FCB0F5617FA8BF4FF4617005
:1044300011F0B6FE6E4911F007FF08F01EFC0746AA
:10444000284611F0ADFE394611F0FEFE12F062FC76
:10445000634BDA881044D880664B96F871721B78EB
:104460000237FFB2002B53D0634A4FF07E51D2F88F
:10447000F45044F620629542A8BF1546B5F57A7F00
:10448000B8BF4FF47A755D4AADB2D2F800B0A582DC
:10449000DBF8382007931046059212F091F8079B3D
:1044A000002835D04FF47A71B5FBF1F5642191FB0A
:1044B000F5F5142DA8BF1425D9F80010A06911F442
:1044C000805F474918BFBBF836E000F1010CB1F935
:1044D000061004EB400014BF4FEA5E0EBBF936E055
:1044E00065458183D8BF0020C4F818C0D8BFA0613B
:1044F000A069059A04EB4000808B091A09B20029D3
:10450000B8BF49427145D8BF4FF07E523C490A605E
:1045100096F87022002A45D1324A1288002A46D1E4
:104520000025284BA3F84650324B1B78002B40F057
:10453000AD80344B1878002840F05182224D2B6812
:104540001A0340F14C82304C2378033B052B16D8DC
:10455000214B1C4E93F82D36002B00F00F82012BBF
:1045600000F01082F26F96F880301344B3F5807F2C
:10457000A8BF4FF480738342D4BFF367F0672378FA
:10458000023B092B00F21C82DFE813F001020D024E
:10459000B5021A021A02F8020B03A705C405D405D6
:1045A000002055E7022A33D0032A00F0E880174A9A
:1045B000528831E078320020902200207A320020A8
:1045C000C8160020E00F0020D42500204C1D00203C
:1045D000C21400201000002080380020EC260020AB
:1045E000C4140020BC330020F84100208FC2753C69
:1045F000D06D393A8E1400201C000020503200206B
:10460000080000201C3100206E050020FC25002041
:10461000A28A02F57A7292B2002B00F0CB80724B24
:10462000196898F80030B2FBF1F1481C00B2092B70
:10463000A4F8440006D16D4D6D4B2E886D881E8008
:104640005D80DA8000236B4DB4F94680DFF89C91E1
:1046500005F1080EBB42C0F29A80674BA3F84610E2
:10466000654AB2F9460000287FF75AAF00231D467D
:104670001946DFF878E1B2F9446002F1500C483293
:10468000BB42C0F29D8000293FF44EAF5B4B002639
:104690001B78DFF89491002B18BF0225584BD3F8F4
:1046A0000080584B1B780A9308F105030793AE422C
:1046B00040F3BC80544B93F8730200285BD0534BFB
:1046C0001B689D0057D5524B1B88590653D44A4D41
:1046D000504E95F87030834211D085F8700011F07B
:1046E0005FFD4D4911F0B0FD4C49074611F0A4FCA7
:1046F00008F0C3FA7060384608F0BFFA6867D6F869
:10470000048065684146284611F09EFDE768666FA3
:1047100081463146384611F097FD0146484611F072
:1047200089FC3F49814611F037FF08B9DFF8F09066
:104730003C49484611F03AFF08B9DFF8E890414695
:104740003846C4F8049011F07FFD314607462846EC
:1047500011F07AFD0146384611F06EFC30490546ED
:1047600011F01AFF00B92E4D2E49284611F01EFFF8
:1047700000B92C4DE5600022204B1A70D9E696F85E
:104780007222C2EB421102EB8102D20043E735F9FB
:10479000132039F913C008FB02F292FBF0F23EF845
:1047A00013602EF813C0ACEB0606324425F8132034
:1047B00001334FE7B4F84630013BA4F846304FE7E9
:1047C00032F913103CF81350414391FBF6F1022BE0
:1047D000A5EB01011D46B8BF02252EF81310EDB25E
:1047E000013351464CE700BF4C3F0020C414002069
:1047F0007A32002028100020E00F00208E140020C4
:10480000AC1600207832002080380020442A002096
:10481000BC3300200800002035FA8E3CDB0FC93F76
:1048200000C0F94400C0F9C40AD7233C022E15BFCA
:1048300098F8000098F8010098F802B098F809B0CC
:1048400011F0AEFC494611F0FFFC4FF080410746E5
:1048500011F0B6FE60B14FF08041384611F0EAFB2E
:10486000B24911F0F1FC0146384611F0E5FB07466C
:1048700073000593AE4B33F9160011F091FCAD496E
:1048800011F0E2FC20F00043AB4A0593059B42F88F
:1048900026000C32824642F82630BBF1000F20D0B1
:1048A000584611F07DFC494611F0CEFC8346514636
:1048B000504611F0C9FC059911F0C6FC594611F09B
:1048C000C3FC59460C904FF07E5011F0B3FB0C9A8C
:1048D0000146104611F0B0FB0146504611F0B4FC01
:1048E00082469649384611F0AFFC514611F0ACFCB7
:1048F000079B074613F8010B079300B311F050FC18
:10490000494611F0A1FC059911F09EFC8C498246A4
:1049100011F056FE68BB0021504611F033FE50BB2B
:1049200051464FF07E5011F085FB01464FF07E500E
:1049300011F03EFD0146384611F086FC07460A9B01
:104940000C2B05D1384611F05BFE7E4B720098525D
:104950007D49384611F020FE00B97B4F7B4938462F
:1049600011F024FE00B9794F794BB200D7500136CF
:104970009DE64946DAE74FF07E51D7E7B06F0AF07F
:10498000DAF9EFE506F0AEFAC0F17F00EAE50022C1
:10499000704BDA67C3F884206F4A1268C3F8882026
:1049A000032323700CE06C4B6A4E1A68D6F88830EB
:1049B0006433934204D2402010F024FB002874D0CA
:1049C00010F04CFB0646002800F0348401232370CD
:1049D000604B93F8A12012B1002283F8A1205F4B15
:1049E0001B78072B05D10CF073F9089BC01A554BA7
:1049F00098800022574B1A70584C2378072B02D10D
:104A00000CF066F90B90DFF86891D9F810504F461A
:104A1000002D32D1D9F804304846984768B389F858
:104A20002550B9F81C30DFF84C811BB2C8F80030B3
:104A3000B9F81E3099F826101BB2C8F80430B9F83E
:104A4000203040461BB2C8F8083004F043F8444B0D
:104A50001E88444B1B68002E40F03E849B79002B3F
:104A600000F0B384EFF31283F02282F312883E4AFF
:104A7000DBB2C9F8102083F31188384D2A78072A51
:104A800005D10CF025F90B9BC01A2E4B1880314B29
:104A900093F8F0201C460592002A00F07185013A37
:104AA00083F8F02025B0BDE8F08FDFF8CC804027F8
:104AB000C146D6F8843018F8030068B110F068FBDE
:104AC000F36F013F03F1FF33F367D6F8843003F14E
:104AD0000103C6F88430ECD1D6F8843019F80330DD
:104AE000002B7FF46DAFC6F884304FF0FF33C6F86B
:104AF0008830042355E71D4A5021A2F10C0301938D
:104B00002523029200934920A2F10A03163A04F0E9
:104B100093FD00287FF454AF4FF0FF320D4BC3F8E4
:104B20008400C3F8882007233BE700BFD7A3684170
:104B3000C41400206F12033B3810002000004843CB
:104B4000A4707D3F7A32002000C0F94400C0F9C44F
:104B5000E40F0020E00F002018270020783200200A
:104B60004A1D0020B01D0020FD8B00088E96010814
:104B70004C1D002028220020189601080523002142
:104B80000093AA4B02910191A3F10802532004F073
:104B900053FD00287FF414AFA54BC3F8840008230D
:104BA000FFE6402010F02EFA00287FF409AF7023B2
:104BB000A0489F4E90F88015D6F8847003FB010240
:104BC00092F8E824492F01F29F83DFE817F04A00AA
:104BD0004F005D00630066006C0070007400780098
:104BE0007E0082008E0098009C00A500A900AD0008
:104BF000B100BA00C300CC00D500DE00E700F00031
:104C0000F900060110011A01240185018F019901A3
:104C1000A301AD01B301BD01C301C901CF01D5019C
:104C2000DB01E101E701ED01F301F901FF010502FB
:104C30000B02110217021D022102250229022D0278
:104C4000310237023D0249024D025102550259021A
:104C50005D026102650269026D02710275027F02E6
:104C600083027549754810F06EFB07E0744B754A76
:104C700000937549754B764810F065FBD6F8843083
:104C80000133C6F884309BE6724A7349734810F0CA
:104C90005AFBF3E772497348E5E790F82C2690F841
:104CA0002B167148F3E7B0F8CC107048DBE7B0F88A
:104CB000CE106F48D7E74FF07E516E48D3E7B6F875
:104CC0008C20B6F88E106C48E1E76C4B6C48198963
:104CD000C9E7D6F89030DB0403D590F8381269485C
:104CE000C1E70C23C6F88430C8E790F83B3290F84F
:104CF0003D2290F83C12644810F025FBBEE7B6F860
:104D000094106248AFE72B681F05B7D5B0F9402271
:104D1000B0F942125E48BAE75E4B5F48996CA2E771
:104D200090F8FE115D489EE790F8F8115C489AE70C
:104D300059430C2303FB0211014491F8EA1459482A
:104D400091E759430C2303FB0211014491F8EC1441
:104D5000554888E759430C2303FB0211014491F89D
:104D6000EB1452487FE759430C2303FB0211014423
:104D700091F8F3144E4876E759430C2303FB0211D4
:104D8000014491F8ED144B486DE759430C2303FBA4
:104D90000211014491F8EE14474864E759430C238B
:104DA00003FB0211014491F8F21444485BE75943B4
:104DB0000C2303FB02110144B1F8F414404852E7FC
:104DC00059430C2303FB0211014491F8F13491F88B
:104DD000F0243C4891F8EF148EE703FB01013A48B8
:104DE00091F8B43491F8AA2491F8A01484E703FB55
:104DF0000101364891F8B53491F8AB2491F8A1142B
:104E00007AE703FB0101324891F8B63491F8AC24FB
:104E100091F8A21470E703FB01012E4891F8B73412
:104E200091F8AD2491F8A31466E700BF3C980108FF
:104E3000E00F00208038002011B501081DB50108E1
:104E40005FB501082EB5010834B5010872D001081C
:104E50003FB50108FAB30108EEB3010864B50108D3
:104E6000B83E002078B5010886B5010897B501085D
:104E7000A6B50108B5B50108C5B501082042002056
:104E8000D7B50108E1B50108EEB5010807B601087C
:104E900012B601084C1D002025B6010831B60108E4
:104EA00044B6010859B6010863B601086DB6010899
:104EB0007AB6010887B6010891B601089CB60108C8
:104EC000A9B60108BBB60108CAB60108DBB60108DD
:104ED000EDB60108FDB6010803FB0101A44891F8F5
:104EE000B83491F8AE2491F8A41405E703FB01014E
:104EF000A04891F8B93491F8AF2491F8A514FBE6D5
:104F000003FB01019C4891F8BA3491F8B02491F860
:104F1000A614F1E603FB0101984891F8BB3491F81F
:104F2000B12491F8A714E7E603FB0101944891F836
:104F3000A81498E603FB0101924891F8BD3491F85A
:104F4000B32491F8A914D7E603FB01018E4891F828
:104F5000BE1488E603FB01018C48B1F8C01482E658
:104F600003FB01018A48B1F8C2147CE603FB01018E
:104F70008848B1F8C41476E603FB01018648B1F80D
:104F8000C61470E603FB0101844891F8C8146AE670
:104F900003FB01018248B1F8CA1464E603FB010176
:104FA000804891F8D0145EE603FB01017E4891F839
:104FB000D11458E603FB01017C4891F8D21452E663
:104FC00003FB01017A48B1F8D6144CE603FB01015A
:104FD0007848D1F8D81446E603FB0101764891F8E9
:104FE000DC1440E603FB0101744891F8DD143AE655
:104FF00003FB01017248D1F8E01434E603FB010120
:105000007048D1F8E4142EE690F84C126E482AE667
:1050100090F84D126D4826E690F8FF116C4822E694
:1050200090F800126B481EE690F801126A481AE6E2
:10503000B0F80822B0F80412684828E6B0F80A224E
:10504000B0F80612664822E6B0F8160211F0A8F889
:10505000644911F0F9F811F0D3FA0146624802E60A
:1050600090F819126148FEE590F824126048FAE5BC
:1050700090F80F125F48F6E590F8B0125E48F2E53E
:1050800090F870125D48EEE590F872125C48EAE51F
:10509000B0F876125B48E6E590F85C125A48E2E513
:1050A00090F8D5105948DEE590F8D4105848DAE564
:1050B000B0F8D2105748D6E54A49D0F8D80011F0D8
:1050C000C3F811F09DFA01465348CCE590F8F91168
:1050D0005248C8E581685248C5E5524B1B689901A2
:1050E00015D5514EB6F898308BB9D6F89C3018A922
:1050F0001893069B0E20199304F002F84FF4805386
:10510000A6F896300A232370069804F047F803F0B7
:10511000D7FF55E4444B93F8A020002AF4D0414A2D
:1051200012689201F0D493F8A130002BECD109233E
:105130002370ECE73D4B3C4E1A68D6F88830C833F4
:1051400093420FD23A4B93F82D764FB9B06F08F0D7
:105150006FFD96F8A230B767022B01D105F00CFB6A
:1051600001231EE411F0CAFB0028EBD128E400BFA4
:105170000DB701081DB701082EB701083FB7010898
:1051800051B7010841B701085BB7010870B70108C2
:1051900080B701088EB70108A0B70108B6B70108AB
:1051A000D1B70108E0B70108F7B7010810B8010846
:1051B00024B801083EB8010853B8010869B80108CD
:1051C00080B8010895B80108ABB80108A7B8010874
:1051D000B7B80108C3B80108D5B80108E8B8010894
:1051E000FCB801080000C84214B9010822B901083E
:1051F00032B9010843B9010853B901086CB9010873
:1052000080B901089DB90108BAB90108CFB90108F0
:10521000E4B90108F9B901080BBA010820BA01087C
:105220002EBA0108442A0020E00F00201827002091
:1052300080380020A94991F82E36002B3FF4CFABDF
:105240002B68DF044FF000034CBFB1F8EC50B1F80D
:10525000D050A34F37F913200133AA420CBF304678
:1052600046F001000C2BC6B2F4D19E4D9E4BC6B148
:105270001B6803F59C530833C5F8A4302378012B31
:105280007FF4ADAB95F8A130002B7FF4A8AB91F87B
:105290002D36D3B104F09EFA012385F8A130FFF733
:1052A0009EBB1A68D5F8A4309342E7D82378012B27
:1052B0003FF495AB95F8A130002B3FF490AB04F090
:1052C0006BFA85F8A160FFF78ABB80200EF03AFAEE
:1052D00000287FF484ABDDE75B78D9F8482007939A
:1052E0004FF47A73B3FBF2F3AB46C3EB431203EB19
:1052F0008203DB009BB2059323787C4C0C937C4BA0
:1053000004F13C09B3F90630CDF820800693059BE3
:105310005B080E93059B4FEA850A9E4202BF00235D
:1053200049F825302361089B53F8250059F82530AA
:10533000034449F8253010F033FF226902F10108D7
:10534000B8F1010FC4F8108040F0A1800023606024
:105350002060A360089B012E1A464FF000034AF814
:1053600002304FF00002634B4AF8032040F0E28025
:105370002069012840F3AF80013810F011FF014689
:10538000E06811F015F811F085FF0C9B8046032BA7
:1053900005D111F0BFFC4FF0010B03B20693079B40
:1053A000002B00F0BD80184610F0FAFE414611F0C7
:1053B000E9F8002800F0B480BBF1000F03D04C4B9B
:1053C000BDF81820DA8003F07AFADFF84C914FF03C
:1053D000000BCA46DFF84481474C464B54F82B007B
:1053E00053F82B304FEA8B05C01A44F82B0010F00D
:1053F000D7FE424B996910F027FF99F8003001461B
:10540000032B06D1059011F085FC394B059923F843
:105410001B003B4A3B4BA8581B6898479AF8003042
:105420000146082B06D1059011F074FC304B05990C
:1054300023F81B00344A354BA8581B689847344A58
:10544000344B01461B68A85898470BF1010BBBF180
:10545000030F48F8040FC0D1002E3FF40EABBD6916
:10546000F86C294610F0A4FF11F054FC2946206086
:10547000386D10F09DFF11F04DFC29466060786D8D
:1054800010F096FF11F046FCA060FFF7F6BA226814
:10549000109011460F9210F0CDFD0A90404610F08A
:1054A0007FFE01460A9810F083FF0F9A114610F014
:1054B000C3FD109B014680466060184610F0BAFD9F
:1054C0000A9910F0C1FEA16810F0B6FDC4F8008082
:1054D000E060A0603EE7002055E700BF8038002074
:1054E000D82F0020E00F002018270020881000206F
:1054F0007A32002034220020282200204C1D002077
:10550000081E0020A41D002098210020A81D0020B6
:10551000F8210020AC1D002078320020941D0020CE
:105520000E9A5AF809301344059A93FBF2F3104A85
:1055300042F80A300135032D04F114047FF4EAAE79
:10554000BBF1000F03D00B4BBDF81820DA80012E01
:1055500008D10022084B30461B689A621A63DA624F
:1055600008F0DAFE054A1388013B13802DE700BFDF
:10557000342200207A320020902200204A1D002090
:10558000A54B93F80122002A00F03F8193F8F831EF
:10559000013BDBB284F8F0302B78072B02D10BF003
:1055A00097FB0D909D4B4FF07E501B6806939C4BD4
:1055B0001B680A93D4F8F4301946089310F03AFDAA
:1055C000984B196810F040FE4FF07E51079010F094
:1055D000E3FF10B94FF07E53079300254FF0000B07
:1055E000914B0B93914B924F53F82580594640466F
:1055F000AC0057F8256010F0BBFFD0B9F43757F86E
:1056000025903046494610F015FD824620F00041B5
:10561000404610F0B7FF58B15946504610F0D0FF41
:10562000002800F0F4804946404610F005FD06468B
:105630003E51804BB3F8009019F0030F3DD0022D7E
:105640003BD0069B93F8340010F0AAFD7A4BE1584A
:1056500010F0FAFD069B804693F833A0CAF10000D3
:1056600010F09EFD07460146404610F08BFF40B902
:10567000504610F091FD4146074610F08DFF00B9ED
:105680004746654B03EB4503B3F920026B4B33F9F7
:105690001530184410F084FD694910F0D5FD01461D
:1056A000384610F0C7FC19F0010F074600F0EC80F7
:1056B000644B196810F0C8FD06460B9B304653F842
:1056C000049F49460B9310F0B5FC82465E4B0A9846
:1056D000E15810F0B9FD514610F0B6FD022D80469C
:1056E00006D15A4A5A4B01461B68106898478046B3
:1056F000584B4FF07E510898E75810F043FFB0B177
:10570000554B1968554B186810F09EFD079910F01D
:105710009BFD534BE15810F097FD514610F094FD5E
:105720000146384610F088FC07464A4BE050022DEF
:1057300040F0E4803946404610F07EFC494EC6F801
:105740000C01404610F05CFFC6F81801384610F016
:1057500057FF0023C6F82401C6F83031424B1B78AE
:1057600013B9424B44F803B00135032D7FF43AAF2F
:105770003F4C2278072A05D10BF0AAFA0D9BC01ADC
:105780003C4B58802378374D012B40F022810BF0A1
:105790009FFA3949D5F83C31364A0968C31A9380D3
:1057A0005B1A0990D380C5F83C011C4B1C68334B35
:1057B0001B680B9313F480530C93314B00F0598307
:1057C000304AD5F848111278C988560758BFD5F81D
:1057D0004421B3F906305CBFD28AA5F84021D5F840
:1057E0004421D68A701A834200F31A81B5F84C110D
:1057F000108BB5F88E800791A5F84031181A10F07B
:10580000CFFCD5F8503107461CE10123C2E64146E2
:10581000484610F00FFC0AE7803800205032002084
:1058200090140020242B0020941D0020182B002011
:10583000E40F0020BC330020381000209A420020E2
:10584000CDCCCC3D082B0020DC2A0020B841002024
:10585000B44100203014002008000020142B002048
:10586000E82A0020E00F00203C140020E410002073
:10587000783200207A3200204C3F0020D4250020CE
:10588000C414002098420020554B5946D3F800809C
:10589000404610F095FE60B3524BD3F864A0D3F8A5
:1058A00068905146484610F081FE00B9D146414605
:1058B000484610F0C9FC4FF07E51804610F080FE43
:1058C000B8B95946404610F05DFEA0B941464FF0C8
:1058D0007E5010F0AFFB8046434B3846196810F0FD
:1058E000B3FC414610F0B0FC0146304610F0A4FB7A
:1058F000E2E6D846F0E74FF07E58EDE73B4B1A68FA
:10590000069B93F83C30632B14D8394B0C92E1582A
:10591000384B186810F098FC4FF07E51824610F01A
:105920003BFE0C9A08B94FF07E5A1046514610F0D3
:105930008BFC02461146304610F086FC494610F0BA
:1059400079FB2D4E8246A15910F074FB2B4B196840
:1059500010F02EFD81462A4B44F806A0E1580A9823
:1059600010F072FC494610F06FFC264B06461B787F
:105970000B2B04D110F044FE234B23F81500234ACF
:10598000234B31461B68A0589847224A224B0146B8
:105990001B68A058984781463946404610F04CFB9A
:1059A000494610F049FB1D4E3051404610F028FE8C
:1059B00006F10C0A4AF80400384610F021FE06F100
:1059C000180848F80400484610F01AFE24363051F2
:1059D000C4E6072B7FF4E9AE0BF07AF90990E4E610
:1059E000102B0020E00F00200C2B0020002B0020AB
:1059F00044100020042B002014110020142B002040
:105A0000F42A0020783200207A3200200C3F002057
:105A1000083F0020543F0020503F0020E4100020A9
:105A200072189342C0F21182B5F88C20A5F840316B
:105A30009B1B581A079210F0B3FB0746B5F8548128
:105A4000D5F858310893079BDFF840A3A3EB080073
:105A500010F0A6FB0023D4F82C900D9009F100451E
:105A6000069315AEB04B069A514653F8220010F03B
:105A7000EBFB2946834610F085FD002840F00B82A1
:105A80004946584610F088FD00B9CB46069B46F8BB
:105A900023B00133032B0693E4D1A44B1B6843B31B
:105AA00094F831202AB30B9A940722D5A04A14788F
:105AB000FCB1D87810F070FB0546204610F070FB62
:105AC0000146284610F0C0FB9A4B0446188810F097
:105AD00063FB0146204610F06BFC9749044610F02A
