:020000040800F2
:1000000000200010DD36030845370308596E00084C
:10001000453703084537030845370308000000004B
:100020000000000000000000000000004537030849
:1000300045370308000000004537030845830008E2
:100040004537030845370308453703084537030894
:1000500045370308453703083D1E0008691F00089F
:100060002D1F0008F11E0008B51E000825370008E6
:100070001537000805370008F5360008E536000892
:10008000D1360008BD360008453703084537030858
:10009000453703084537030845370308791E00082C
:1000A000797A0008B97A0008697A0008E17A0008CC
:1000B000A97A0008997A0008897A00084537030868
:1000C0004537030845370308453703084537030814
:1000D00045370308C98400084D840008D18300080F
:1000E000011E000845370308453703084537030854
:1000F00045370308453703084537030845370308E4
:100100000000000000000000000000004537030868
:100110004537030845370308793A01085D3A010875
:10012000A936000895360008813600086D360008AB
:1001300059360008453703080000000000000000A1
:10014000453703084537030845370308000000001A
:10015000000000000000000000000000000000009F
:100160000000000000000000453703084537030881
:1001700045370308000000000000000000000000F8
:080180000000000045370308F0
:1001C00000232322027043708370C37070472D2375
:1001D00043702E2303712F23C371704740F2E9331C
:1001E00000E09BB10289013B12F0020F9BB2F8D0F4
:1001F000017340F2E93300E043B10289013B12F0A0
:10020000010F9BB2F8D0007BC0B27047064B9842FA
:1002100001D0FF207047054A538B01339BB25383B3
:10022000508BC0B2704700BF00380040806D002086
:10023000002870B51EDB0928044620DD012303EBEE
:1002400083035B00B0FBF3F2092AF8D87BB10E4EB2
:10025000B4FBF3F00928CCBF57223022A6FB03E5FC
:10026000024403FB1044EB0801F8012BF0D10023FA
:100270000B7070BD2D230B7040420131DBE7303035
:1002800001F8010BF3E700BFCDCCCCCC884230B4F1
:100290004FF001042ED301FB04F4B0FBF4F58D42C2
:1002A000F9D284B1AAB901E0B0FBF4F5092DCCBFB5
:1002B000572230222A4404FB150003F8012BB4FB1B
:1002C000F1F4002CF0D100221A7030BC7047B0FB62
:1002D000F4F5092DCCBF372230222A4404FB150047
:1002E00003F8012BB4FBF1F4002CF0D100221A70BA
:1002F00030BC70470546002AEBD1D7E703685A1C8B
:1003000002601970704700BF2DE9F047089C2578FE
:10031000002B804689460CBF4FF0200A4FF0300A70
:10032000661C35B3002A29DD334601E0024698B148
:1003300013F8011B501E0029F8D1971E60B13D46ED
:10034000013D51464046C8476B1C002BF8DC257820
:1003500027EAE770013055B1041B29464046C847DB
:10036000301916F8015B002DF7D1BDE8F087BDE824
:10037000F087002A04DC2846BDE8F0870020EBE780
:10038000571EDCE783684268D0ED037A00EB8301F7
:100390000133934281ED040A836004BF002383602C
:1003A00000EB830393ED047A036870EE277A9A4298
:1003B000C0ED037A77EEC77AC0ED037A0CDA013329
:1003C00007EE103AF8EEC76AB7EE007A87EEA60A93
:1003D000036030EE070A704707EE102AB8EEC77ABE
:1003E00087EE870A704700BF90ED057A90ED004ACE
:1003F000D0ED066AD0ED014AD0ED047A90ED035AB3
:10040000D0ED025AA4EE007AB0EE406AB0EE470A90
:10041000B0EE667AA6EE247A67EEC07AA0EE457A50
:10042000E6EE257A80ED057AC0ED067A704700BFCA
:10043000D0ED057A90ED013AD0ED003AD0ED064AC4
:1004400090ED024A90ED077A90ED035A90ED086A1C
:10045000D0ED045AC0ED067AF0EE406A27EE830A2A
:10046000C0ED056AA3EEA60A80ED087AA4EE240A80
:10047000A5EE470AA5EEC60A80ED070A704700BF41
:10048000D0ED007A90ED017A30EE670AE7EE007A5F
:10049000B0EE670AC0ED007A704700BF704700BF3A
:1004A0000A44914214D030B40139551E41F2210260
:1004B00011F8014F082380EA042004044CBF82EAAB
:1004C00040004000013B80B2F7D18D42F0D130BCFA
:1004D000704700BF50F8043C012280F845201038D6
:1004E00003B11847704700BF90F8203033B1012B9B
:1004F00003D14FF400638382704770474FF48063E9
:1005000083827047704700BF704700BF2DE9F04FEE
:10051000DFF81CB2DFF81CE2BBF80020DEF8006058
:10052000BBF90430BBF90250BBF90A80C2EB2614B8
:1005300004FB04F424135200C2EBE60203FB04F3B1
:1005400005FB02F29B1303EBE223B3F5FA364FEA05
:10055000E37589B045F1FF373246A6FB0645CDE984
:10056000024502FB07F205EB4202CDE90467029E59
:10057000BBF90840039208FB02FC4FEAE87906FB4E
:1005800009CC3A46A8FB0689049ECBF81830E5173B
:1005900004FB02F206FB0522A4FB0667E1441744B4
:1005A0004FEA182242EA096200924FEA2922019298
:1005B0003D03DDE90078340345EA16553F19BBF8E1
:1005C0000660069048EB05083C1C48F5004503EB27
:1005D0008302A4FB068906FB0599803213124FEAB9
:1005E00069064FEAE977079356EA07038A4600F05F
:1005F0009280DDE90489BBF90E20DEF80440BBF9E6
:1006000010004946C4F5801ED317DDE9024502FB00
:1006100001F108FB0311A2FB08230B444FEA4349F5
:100620002B46C11700FB03F304FB0133A0FB0401BD
:10063000BBF90C401944E30001937346DC17002317
:10064000009349EAD2394FEA4248DDE9002310EB32
:10065000080041EB0901E50712184FEACE744B413F
:1006600045EA5E05A41A65EB0305221945EB05036F
:1006700012196B4199019001801841EA9261594128
:100680008B00820043EA9073101943EB05018B0045
:10069000820043EA907310460019194632463B46E1
:1006A000694132F047FEBBF916204C13450B45EA71
:1006B000C14502FB04F6D31705FB0366A2FB052325
:1006C0003344BBF9146002FB04F405FB034406FB4E
:1006D00001FEA2FB0523F717234400FB07EE540E8F
:1006E000A6FB0067774444EAC3144FEAD6480019D2
:1006F0004FEA636548EA473869414FEAE74918EB32
:100700000008BBF9124049EB01094FEA182646EAF6
:10071000096620013618069B0BB1360A1E60BAF135
:10072000000F02D0079BCAF8003009B0BDE8F08F77
:10073000B43C002014220020704700BF2DE9F04196
:10074000364F374DB7F80AC02A893B89B7F91240AE
:10075000B7F914E0EE68B7F90250B7F90E80A2EBD2
:100760000C0203FB02F3DA139644E30293FBFEF35D
:100770001344A3F57A6E0EFB0EF4B7F90CC0FB61BF
:1007800022130EFB05F5B7F9044002FB08F8ED1241
:1007900002FB0CF2B7F900C00EFB04F405EBE825F0
:1007A000B7F920E0FF88121402EB643205EB8C05E8
:1007B00005FA0EF50232023592104CF25034A6EBD7
:1007C000A50502F5004244FA0EF404FB05F407FB0C
:1007D00002F2D20B002CB9BFB4FBF2F2520064005B
:1007E000B4FBF2F2141204FB04F50E4E40F6DE34B4
:1007F00004FB05F403EB830306FB02F524145B0002
:1008000004EB2544083304F6CF641B1102EB2412D9
:1008100000B1026001B10B60BDE8F081803C0020B6
:100820001422002043E3FFFF2DE9F04FDFF8F8C169
:10083000DFF8F8E1BCF80A70DEF81060BCF80C30A4
:10084000BCF808A03C028BB0361B4FF00004CDE989
:100850000034009CBCF806304FEA17654FF00007E3
:1008600067EB0507B946B046A4FB06670024CDE94F
:100870000634009C002304FB09770024CDE90034F2
:10088000AAFB0823CDE90223039AF30D00930AFB88
:1008900009230393009B43EA47230093029B4FEAFB
:1008A000D31AFB150193039B4AEA436ADDE900234F
:1008B00044464D46CDE90845069C12F5FA62A4FB74
:1008C000086743F1000304FB0977CDE90623BCF870
:1008D0000440039BBCF802204FEAE31B230C059362
:1008E00023040493340A44EA07643D12DDE90467F3
:1008F0004FEAC23816EB0A0647EB0B0718EB040861
:10090000DDE906344FEA524949EB0509B3F5FA6FC0
:1009100074F10004B246BB463CDADDE90067BC0076
:10092000B20044EA9673B41847EB030522463C46EE
:100930002B4602FB04F406FB0344A2FB06232344DC
:10094000940844EA83749D105B104FEA3202B8EBBE
:10095000040869EB0509BAEB020A6BEB030BDDE94E
:100960000623304C4FF0FF35A242AB412CDBDDE9D2
:100970000856A5FB052305FB06F403EB4403D40F3F
:1009800044EA4304DD17DDE90623121B63EB05038C
:10099000CDE90623DEF81440A4FB082304FB093349
:1009A000540D44EAC3245D15B4EB0A0A65EB0B0B46
:1009B0004FEADA3343EA4B4300B1036009B1069BC7
:1009C0000B600BB0BDE8F08F40F6AC52B4184FF09E
:1009D000000347EB03052246A2FB022304FB05F4B8
:1009E00003EB4403941843EB0305A4185D414FEA5D
:1009F000850CA6004CEA947CB41A6CEB0305DF006E
:100A0000D6006D104FEA340447EA5277921B63EB2D
:100A10000703B8EB040869EB05091AEB020A4BEB74
:100A2000030BA4E724FAFFFFA43C002014220020BB
:100A300070B5044682B01430E56D06236A46432142
:100A4000A847B0B19DF804009DF800609DF8011022
:100A50009DF802509DF803209DF8053041EA0621DB
:100A600043EA002342EA0522A187E287A4F8403046
:100A7000012002B070BD00BF70B5044682B00830DE
:100A8000656A06236A463B21A847A8B19DF8040081
:100A90009DF800609DF801109DF802509DF803201C
:100AA0009DF8053041EA062143EA002342EA052287
:100AB000E18222836383012002B070BD70B40468B8
:100AC000037B2268022101FA03F31A4213D0426920
:100AD0000A49582000FB02124FF6FE7650685289F0
:100AE000C5680068296831402960C168D24392B264
:100AF0000A40C260636070BC704700BF987A0020F3
:100B000030B4094B1C7864B1084B002503EBC404D6
:100B10001A6899885562D06808330143A342D160AE
:100B2000F6D130BC704700BF587D00205C7D0020AE
:100B300010B40268047B11680223A340194209D053
:100B40000649406800240C7001684FF6FE7421408D
:100B5000016053605DF8044B704700BF3F590020AF
:100B6000F0B4334C00EB800004EB80046468002C8C
:100B70005BD0304E49004FF42040CDB2B061A16946
:100B8000090444D460682C4F45F08071384041F42A
:100B9000903101434FF420406160B06103E0411E99
:100BA000002838D00846A1698F07F8D54FF42040B7
:100BB000A262B06102E0421E68B31046A26911064B
:100BC000F9D562681C4945F0007545F480350A4046
:100BD00015434FF420406560B06102E0421ED0B181
:100BE0001046A2699207F9D5A362A3694FF4204089
:100BF0009B06B06105D4431E68B11846A3699B06E5
:100C0000F9D52023B061E3610120F0BC7047411E9B
:100C100008B10846B3E7094A138801339BB24FF085
:100C2000FF31B1611380F0BC70472046F0BC7047C3
:100C3000106D002014220020009800FCA055002018
:100C4000134600200A4668218AE700232622036013
:100C50000270272282700122436002718371704703
:100C60002DE9F341056906460F467DBBD0F80080AB
:100C7000C8F30A0323B30023D6F80080019329F0B8
:100C80002FFF042819D1224C236943F0010323616B
:100C9000BBB2A8F8003029F023FF04282ED108F1B8
:100CA00002030193019B3F0C1F8029F019FF236968
:100CB000042823F00103236125D06FF0010505E02E
:100CC00029F00EFF042805D04FF0FF35284602B06A
:100CD000BDE8F0810E4C236943F002032361C4F8A0
:100CE0001480236943F04003236129F0F9FE23694E
:100CF000042823F002032361BDD0E5E7236923F034
:100D000001032361D9E7336804333360DEE700BFB2
:100D100000200240F8B504460D468E180027B54263
:100D200001D12069F8BDE368591CE160234415F83E
:100D3000012B1A720429F2D1A1682046FFF790FF17
:100D4000E7602061EBE700BF10B490E80600047B89
:100D500040690223A3404B6013685DF8044B4FF6D3
:100D6000FE710B40136007F0EDBB00BF03682DE977
:100D7000F041DF691FB13B46BDE8F0411847002A4A
:100D8000164611DD04460D460E4400E023689B68BC
:100D9000204698470028F9D0236815F8011B1B68E6
:100DA00020469847AE42F1D1BDE8F08103681B6848
:100DB000184700BF014B1868F8E700BF947E002079
:100DC000054B53F8203033B11A689B88918A0B4247
:100DD00018BF1B04936170473C6D002003682DE928
:100DE000F04F03F13845644EAD0A0124755D05F0FE
:100DF0001F066D09022D04FA06F400F0A280032DEF
:100E000000F0A480012D52D08088B0FA80F4C4F1A3
:100E10001F04A4B2E50803EB850504F007042E6A5D
:100E2000A4000F27A74026EA07062E622E6A01F0CB
:100E3000030702FA04F47A1E3443012AC1F3810C39
:100E4000C1F300182C62C1F3411135D9C60700F176
:100E50009780850700F1A380440700F1B180020765
:100E600000F1BF80C60600F1CD80850600F1DB8071
:100E7000440600F1E980020600F1F780C60500F1A2
:100E80000581850500F11381440500F121810205EA
:100E900000F12F81C60400F13D81850400F14B81F2
:100EA000440400F15981020455D4BDE8F08F334D5C
:100EB0006E6934436C61A7E7002422464FF0010EAF
:100EC0004FF0030904E00132102A04F10204ECD0CF
:100ED0000EFA02F636EA0005F5D1D3F808A009FAB1
:100EE00004F5ED430AEA050AC3F808A0D3F808B0F0
:100EF0000CFA04FA4AEA0B0AC3F808A0B3F804A0F3
:100F00001FFA8AFA2AEA06069E80B3F804A008FAB5
:100F100002F646EA0A06B6B29E801E682E401E60A1
:100F2000D3F800A007FA04F646EA0A061E60D3F8D2
:100F30000CA001FA04F605EA0A0A46EA0A05DD6091
:100F4000C1E70E4DAE693443AC615DE70B4DEE6910
:100F50003443EC6158E71A6822F040421A601A687C
:100F600042EA87771F60DA6822F0404242EA8171E4
:100F7000D960BDE8F08F00BFCC63030800100240C9
:100F80001A6822F003021A601A683A431A60DA6893
:100F900022F003020A438507DA607FF55DAF1A6825
:100FA00022F00C021A601A6842EA87021A60DA68B4
:100FB00022F00C0242EA81024407DA607FF54FAF6B
:100FC0001A6822F030021A601A6842EA07121A60A0
:100FD000DA6822F0300242EA0112DA6002077FF595
:100FE00041AF1A6822F0C0021A601A6842EA8712FA
:100FF0001A60DA6822F0C00242EA8112C606DA609C
:101000007FF533AF1A6822F440721A601A6842EA18
:1010100007221A60DA6822F4407242EA0122850649
:10102000DA607FF525AF1A6822F440621A601A6808
:1010300042EA87221A60DA6822F4406242EA812298
:101040004406DA607FF517AF1A6822F440521A603E
:101050001A6842EA07321A60DA6822F4405242EA19
:101060000132DA6002067FF509AF1A6822F44042C5
:101070001A601A6842EA87321A60DA6822F440423B
:1010800042EA8132C605DA607FF5FBAE1A6822F4C7
:1010900040321A601A6842EA07421A60DA6822F49B
:1010A000403242EA01428505DA607FF5EDAE1A680A
:1010B00022F440221A601A6842EA87421A60DA680B
:1010C00022F4402242EA81424405DA607FF5DFAE35
:1010D0001A6822F440121A601A6842EA07521A602B
:1010E000DA6822F4401242EA0152DA6002057FF522
:1010F000D1AE1A6822F440021A601A6842EA875296
:101100001A60DA6822F4400242EA8152C604DA60C8
:101110007FF5C3AE1A6822F040721A601A6842EA7C
:1011200007621A60DA6822F0407242EA01628504BE
:10113000DA607FF5B5AE1A6822F040621A601A686C
:1011400042EA87621A60DA6822F0406242EA81620B
:101150004404DA607FF5A7AE1A6822F040521A60A4
:101160001A6842EA07721A60DA6822F0405242EACC
:101170000172DA6097E600BF036803F138422DE997
:10118000F04F920A584DAA5C02F01F055209012443
:10119000022A04FA05F400F08C80032A00F08E8005
:1011A000012A3CD001F003077A1E012AC1F3810C09
:1011B000C1F300188088C1F3411135D9C60700F189
:1011C0009780850700F1A380440700F1B1800207F2
:1011D00000F1BF80C60600F1CD80850600F1DB80FE
:1011E000440600F1E980020600F1F780C60500F12F
:1011F0000581850500F11381440500F12181020577
:1012000000F12F81C60400F13D81850400F14B817E
:10121000440400F15981020455D4BDE8F08F334AEB
:1012200055692C435461BDE7002422464FF0010E5E
:101230004FF0030904E00132102A04F10204ECD05B
:101240000EFA02F636EA0005F5D1D3F808A009FA3D
:1012500004F5ED430AEA050AC3F808A0D3F808B07C
:101260000CFA04FA4AEA0B0AC3F808A0B3F804A07F
:101270001FFA8AFA2AEA06069E80B3F804A008FA42
:1012800002F646EA0A06B6B29E801E682E401E602E
:10129000D3F800A007FA04F646EA0A061E60D3F85F
:1012A0000CA001FA04F605EA0A0A46EA0A05DD601E
:1012B000C1E70E4A95692C43946173E70B4AD569DF
:1012C0002C43D4616EE71A6822F040421A601A6813
:1012D00042EA87771F60DA6822F0404242EA817171
:1012E000D960BDE8F08F00BFCC6303080010024056
:1012F0001A6822F003021A601A683A431A60DA6820
:1013000022F003020A438507DA607FF55DAF1A68B1
:1013100022F00C021A601A6842EA87021A60DA6840
:1013200022F00C0242EA81024407DA607FF54FAFF7
:101330001A6822F030021A601A6842EA07121A602C
:10134000DA6822F0300242EA0112DA6002077FF521
:1013500041AF1A6822F0C0021A601A6842EA871286
:101360001A60DA6822F0C00242EA8112C606DA6028
:101370007FF533AF1A6822F440721A601A6842EAA5
:1013800007221A60DA6822F4407242EA01228506D6
:10139000DA607FF525AF1A6822F440621A601A6895
:1013A00042EA87221A60DA6822F4406242EA812225
:1013B0004406DA607FF517AF1A6822F440521A60CB
:1013C0001A6842EA07321A60DA6822F4405242EAA6
:1013D0000132DA6002067FF509AF1A6822F4404252
:1013E0001A601A6842EA87321A60DA6822F44042C8
:1013F00042EA8132C605DA607FF5FBAE1A6822F454
:1014000040321A601A6842EA07421A60DA6822F427
:10141000403242EA01428505DA607FF5EDAE1A6896
:1014200022F440221A601A6842EA87421A60DA6897
:1014300022F4402242EA81424405DA607FF5DFAEC1
:101440001A6822F440121A601A6842EA07521A60B7
:10145000DA6822F4401242EA0152DA6002057FF5AE
:10146000D1AE1A6822F440021A601A6842EA875222
:101470001A60DA6822F4400242EA8152C604DA6055
:101480007FF5C3AE1A6822F040721A601A6842EA09
:1014900007621A60DA6822F0407242EA016285044B
:1014A000DA607FF5B5AE1A6822F040621A601A68F9
:1014B00042EA87621A60DA6822F0406242EA816298
:1014C0004404DA607FF5A7AE1A6822F040521A6031
:1014D0001A6842EA07721A60DA6822F0405242EA59
:1014E0000172DA6097E600BF10B50409013C052CD3
:1014F00017D80D4B33F8142000F00F0042FA00F318
:1015000013F001030DD0012303FA00F0013810405D
:1015100031F060FF054A064B125D104403EBC0003A
:1015200010BD002010BD00BF286503083465030806
:10153000C46E00202DE9F04F4A484B4B4B4C4FF006
:1015400090414FF0010A4FF002094FF004084FF0AC
:10155000080C4FF0100E20274026802530F8022B73
:1015600012F0010F03D01960A3F804A0083312F0A1
:10157000020F03D01960A3F80490083312F0040F8F
:1015800003D01960A3F80480083312F0080F03D0C9
:101590001960A3F804C0083312F0100F03D01960CB
:1015A000A3F804E0083312F0200F02D019609F80E6
:1015B000083312F0400F02D019609E80083312F0F9
:1015C000800F02D019609D80083312F4807F05D00F
:1015D0004FF4807B1960A3F804B0083312F4007F45
:1015E00005D04FF4007B1960A3F804B0083312F45F
:1015F000806F05D04FF4806B1960A3F804B00833F6
:1016000012F4006F05D04FF4006B1960A3F804B01A
:10161000083312F4805F05D04FF4805B1960A3F8A3
:1016200004B0083312F4005F05D04FF4005B19607A
:10163000A3F804B0083312F4804F05D04FF4804B68
:101640001960A3F804B00833D20B04D04FF4004261
:1016500019609A80083301F58061A1427FF47EAF62
:10166000BDE8F08F28650308C46E0020001800480C
:10167000002867D003682DE9F04F03F138445C4E31
:10168000A40A0125345D04F01F066409022C05FA42
:1016900006F558D0032C00F0A580012C58D0808886
:1016A000B0FA80F4C4F11F04A4B2E50803EB850589
:1016B00004F007042E6AA4000F27A74026EA0706B5
:1016C0002E622E6A01F00307A2407C1E3243012CD9
:1016D000C1F3810CC1F300182A62C1F341113CD956
:1016E000C60700F18980850700F19580440700F165
:1016F000A380020700F1B180C60600F1BF80850615
:1017000000F1CD80440600F1DB80020600F1E980A3
:10171000C60500F1F780850500F10581440500F15B
:101720001381020500F12181C60400F12F81850497
:1017300000F13D81440400F14B81020400F1598124
:10174000BDE8F08F70472B4CA6693543A561A6E72D
:10175000284C666935436561A1E7002422464FF0B5
:10176000010E4FF0030904E00132102A04F10204D3
:10177000E6D00EFA02F636EA0005F5D1D3F808A055
:1017800009FA04F5ED430AEA050AC3F808A0D3F8FC
:1017900008B00CFA04FA4AEA0B0AC3F808A0B3F836
:1017A00004A01FFA8AFA2AEA06069E80B3F804A06B
:1017B00008FA02F646EA0A06B6B29E801E682E4075
:1017C0001E60D3F800A007FA04F646EA0A061E6077
:1017D000D3F80CA001FA04F605EA0A0A46EA0A055B
:1017E000DD60C1E7034CE6693543E56157E700BFBB
:1017F000CC630308001002401A6822F003021A604A
:101800001A683A431A60DA6822F003020A4385072D
:10181000DA607FF56BAF1A6822F00C021A601A6862
:1018200042EA87021A60DA6822F00C0242EA810278
:101830004407DA607FF55DAF1A6822F030021A6063
:101840001A6842EA07121A60DA6822F0300242EAA5
:101850000112DA6002077FF54FAF1A6822F0C0026A
:101860001A601A6842EA87121A60DA6822F0C00227
:1018700042EA8112C606DA607FF541AF1A6822F4A7
:1018800040721A601A6842EA07221A60DA6822F483
:10189000407242EA01228506DA607FF533AF1A68AA
:1018A00022F440621A601A6842EA87221A60DA68F3
:1018B00022F4406242EA81224406DA607FF525AFD5
:1018C0001A6822F440521A601A6842EA07321A6013
:1018D000DA6822F4405242EA0132DA6002067FF509
:1018E00017AF1A6822F440421A601A6842EA873237
:1018F0001A60DA6822F4404242EA8132C605DA60B0
:101900007FF509AF1A6822F440321A601A6842EA79
:1019100007421A60DA6822F4403242EA0142850541
:10192000DA607FF5FBAE1A6822F440221A601A686A
:1019300042EA87421A60DA6822F4402242EA81428F
:101940004405DA607FF5EDAE1A6822F440121A60A1
:101950001A6842EA07521A60DA6822F4401242EA30
:101960000152DA6002057FF5DFAE1A6822F4400208
:101970001A601A6842EA87521A60DA6822F4400252
:1019800042EA8152C604DA607FF5D1AE1A6822F0CD
:1019900040721A601A6842EA07621A60DA6822F036
:1019A000407242EA01628504DA607FF5C3AE1A68CC
:1019B00022F040621A601A6842EA87621A60DA68A6
:1019C00022F0406242EA81624404DA607FF5B5AEFB
:1019D0001A6822F040521A601A6842EA07721A60C6
:1019E000DA6822F0405242EA0172DA6002047FF5BE
:1019F000A7AE1A6822F040421A601A6842EA877756
:101A00001F60DA6822F0404242EA8171D960BDE885
:101A1000F08F00BF002852D0036803F138422DE94F
:101A2000F04F920A504DAA5C02F01F0552090124A2
:101A3000022A04FA05F443D0032A00F09080012A18
:101A400043D001F003077A1E012AC1F3810CC1F3D0
:101A500000188088C1F341113CD9C60700F1888085
:101A6000850700F19480440700F1A280020700F18D
:101A7000B080C60600F1BE80850600F1CC80440629
:101A800000F1DA80020600F1E880C60500F1F68078
:101A9000850500F10481440500F11281020500F181
:101AA0002081C60400F12E81850400F13C814404AC
:101AB00000F14A81020400F15881BDE8F08F7047BF
:101AC0002A4A95692C439461BBE7284A55692C43FF
:101AD0005461B6E7002422464FF0010E4FF003098F
:101AE00004E00132102A04F10204E6D00EFA02F6F4
:101AF00036EA0005F5D1D3F808A009FA04F5ED435C
:101B00000AEA050AC3F808A0D3F808B00CFA04FAE8
:101B10004AEA0B0AC3F808A0B3F804A01FFA8AFA2D
:101B20002AEA06069E80B3F804A008FA02F646EAFE
:101B30000A06B6B29E801E682E401E60D3F800A032
:101B400007FA04F646EA0A061E60D3F80CA001FA6A
:101B500004F605EA0A0A46EA0A05DD60C1E7034A17
:101B6000D5692C43D4616CE7CC63030800100240B4
:101B70001A6822F003021A601A683A431A60DA6897
:101B800022F003020A438507DA607FF56CAF1A681A
:101B900022F00C021A601A6842EA87021A60DA68B8
:101BA00022F00C0242EA81024407DA607FF55EAF60
:101BB0001A6822F030021A601A6842EA07121A60A4
:101BC000DA6822F0300242EA0112DA6002077FF599
:101BD00050AF1A6822F0C0021A601A6842EA8712EF
:101BE0001A60DA6822F0C00242EA8112C606DA60A0
:101BF0007FF542AF1A6822F440721A601A6842EA0E
:101C000007221A60DA6822F4407242EA012285064D
:101C1000DA607FF534AF1A6822F440621A601A68FD
:101C200042EA87221A60DA6822F4406242EA81229C
:101C30004406DA607FF526AF1A6822F440521A6033
:101C40001A6842EA07321A60DA6822F4405242EA1D
:101C50000132DA6002067FF518AF1A6822F44042BA
:101C60001A601A6842EA87321A60DA6822F440423F
:101C700042EA8132C605DA607FF50AAF1A6822F4BB
:101C800040321A601A6842EA07421A60DA6822F49F
:101C9000403242EA01428505DA607FF5FCAE1A68FF
:101CA00022F440221A601A6842EA87421A60DA680F
:101CB00022F4402242EA81424405DA607FF5EEAE2A
:101CC0001A6822F440121A601A6842EA07521A602F
:101CD000DA6822F4401242EA0152DA6002057FF526
:101CE000E0AE1A6822F440021A601A6842EA87528B
:101CF0001A60DA6822F4400242EA8152C604DA60CD
:101D00007FF5D2AE1A6822F040721A601A6842EA71
:101D100007621A60DA6822F0407242EA01628504C2
:101D2000DA607FF5C4AE1A6822F040621A601A6861
:101D300042EA87621A60DA6822F0406242EA81620F
:101D40004404DA607FF5B6AE1A6822F040521A6099
:101D50001A6842EA07721A60DA6822F0405242EAD0
:101D60000172DA6002047FF5A8AE1A6822F04042E0
:101D70001A601A6842EA87771F60DA6822F04042E8
:101D800042EA8171D960BDE8F08F00BF10B10368ED
:101D900082881A85704700BF10B1036882889A61F3
:101DA000704700BF38B100298388026814BF002142
:101DB00010218B409361704710B40A4B0A4A1C787B
:101DC00001238340234052F8200029B9B3FA83F15C
:101DD00049095DF8044BE5E7191C18BF01215DF8BE
:101DE000044BDFE7386D00203C6D002030B1036804
:101DF00082881B8A1A4214BF01200020704700BF4E
:101E00002DE9F0410B4E356873691D4010D0DFF8A5
:101E100028800127B5FA85F4C4F11F0408EB840378
:101E200007FA04F4D86903689847A5437461F1D1AF
:101E3000BDE8F08100040140142200202DE9F041AA
:101E40000B4E356873691D4010D0DFF828800127DC
:101E5000B5FA85F4C4F11F0408EB840307FA04F40F
:101E6000D86903689847A5437461F1D1BDE8F08152
:101E700000040140142200202DE9F0410B4E35688A
:101E800073691D4010D0DFF828800127B5FA85F46A
:101E9000C4F11F0408EB840307FA04F4D86903684B
:101EA0009847A5437461F1D1BDE8F0810004014079
:101EB000142200202DE9F0410B4E356873691D4056
:101EC00010D0DFF828800127B5FA85F4C4F11F048B
:101ED00008EB840307FA04F4D86903689847A5431C
:101EE0007461F1D1BDE8F0810004014014220020AA
:101EF0002DE9F0410B4E356873691D4010D0DFF8B5
:101F000028800127B5FA85F4C4F11F0408EB840387
:101F100007FA04F4D86903689847A5437461F1D1BE
:101F2000BDE8F08100040140142200202DE9F041B9
:101F30000B4E356873691D4010D0DFF828800127EB
:101F4000B5FA85F4C4F11F0408EB840307FA04F41E
:101F5000D86903689847A5437461F1D1BDE8F08161
:101F600000040140142200202DE9F0410B4E356899
:101F700073691D4010D0DFF828800127B5FA85F479
:101F8000C4F11F0408EB840307FA04F4D86903685A
:101F90009847A5437461F1D1BDE8F0810004014088
:101FA00014220020002800F083802DE9F04184886D
:101FB000B4FA84F4C4F11F04651C82B06AD0E5B29F
:101FC00005F0FC0606F1804606F5803605F00305AF
:101FD000D6F808E0374F0068AD004FF00F0C0CFA50
:101FE00005FC2EEA0C0E07EB840CC0F38720CCF81E
:101FF0001C10C6F808E0D6F80880DFF8C4C0DFF887
:10200000C4E000FA05F10120A04041EA0801B160F6
:10201000CCF80000DEF80050274EDFF8AC80C1435A
:102020000D40CEF8005035680D403560DEF80050A8
:10203000224E0543CEF80050D8F80050345D0D40D4
:10204000C8F800505CF8085C102B01EA05014CF858
:10205000081CACF1080C20D003F1804303F5823357
:102060001968014319603B1993F85C10914211DD26
:1020700026449511317C8DF804100024012101A81B
:1020800083F85C208DF805508DF806408DF8071018
:1020900023F018FF02B0BDE8F081D8F80030034308
:1020A000C8F80030DCF800100143CCF80010DAE783
:1020B000704700BF1422002004040140A037030829
:1020C00014040140000401400804014070B50446B6
:1020D00090F85900002833D104F11405236E8022B2
:1020E0006B2128469847642006F08EF8236E284618
:1020F00003226B219847236E94F854201921284617
:1021000098470F2006F080F8236E94F85220284656
:102110001A219847236E284618221B219847236EC0
:10212000284618221C219847236E28460222372170
:1021300098472846236E01223821BDE87040184791
:10214000FFF7D2F90546FFF751FE0028C4D115B1BB
:102150002023E871AB7128460021FFF75BFC214684
:10216000054B41F8103F28460823F022FFF71AFFDD
:10217000284625F00BFAAFE7D50400080B490C4AB6
:102180008B6943F0010310B58B611368094C43F46C
:102190008053136004F11C00402200212FF0B4FE94
:1021A0004FF0FF33E365C4F85F3010BD001002400C
:1021B000000001401422002003685B6A184700BF3A
:1021C0002DE9F041044618460D461646984630F073
:1021D00017F82768E6722844A07229467D694346AD
:1021E00032462046AC46BDE8F0416047036810B572
:1021F00004461B689847236820469B689847A37B42
:102200000133A37310BD00BF10B5036804469B687B
:102210009847FF2301226373227310BDF0B48489B1
:102220004FF6FF764FF47A740BB300292ED00F7857
:10223000013101E0B44217D00589013CAD07A4B2D9
:10224000F8D507734FF47A7402E0BCB2B4420BD0F5
:102250000589ED0704F1FF37F7D5057BEDB20AB12B
:1022600015700132013BDFE7094B984202D0012093
:10227000F0BC7047074A538B01339BB25383508B9A
:1022800080B2003018BF0120F0BC7047FF27D3E7B1
:1022900000380040806D0020427A02B9704710B5C6
:1022A00004460368406804F10A01984700236372FA
:1022B00010BD00BF437A5A1C0344D2B242729972D5
:1022C000037A934200D802B9704710B504460368F8
:1022D000406804F10A0198470023637210BD00BFF3
:1022E00030B40B4D002305F1180101E0272B0BD072
:1022F00011F8132082424FEA430403F10103F5D1A0
:102300002C44607E30BC7047002030BC704700BF5A
:10231000A037030870B5448806460D46C4F30B0485
:102320002246002128462FF0EFFD3369094A9342E7
:1023300009D3094A934206D2224628461946BDE8E7
:1023400070402DF0DBB923B121462846BDE870402E
:10235000184770BDA8A8030899A90308064B0749A8
:102360008B4202D30023184670471A88C2F30B022F
:102370009042F8D01433F3E734A40308A8A8030864
:10238000024A136823EA000010607047384B0020AF
:10239000F8B5174D2B78A52B28D16B78BE2B25D1FE
:1023A000022229464FF6FF70FEF77AF8114FAC1C57
:1023B00022884AB1A618BE4218D2052A16D921464B
:1023C000FEF76EF83446F3E721460222FEF768F87E
:1023D0000222A118FEF764F80634074B641B1C8028
:1023E00041F60F53C31A58425841F8BD0020F8BDBA
:1023F00000F0030800000408A25500202DE9F04F6A
:10240000DFF848914C4F8BB00326A7EB0907182241
:10241000002104A82FF078FD484BCDF810900597C7
:102420001A69120604D5464A5A6002F188325A6087
:1024300001228DF824203422DA60424B424C1B8862
:10244000ADF800300222694604A8FEF763FC0222C0
:1024500069464FF6FF70FEF723F8DFF8F4A08046D8
:102460004FF0000B544536D30AAC002524F8245D08
:102470000222214604A8FEF74DFC022221464046D6
:10248000FEF70EF840BAC043ADF80800022202A9D8
:1024900004A8FEF73FFC079860B106ABC0F1040248
:1024A000294618442FF030FD069904A8FEF7D8FB02
:1024B000079508909DF82430089A23B11F490B69AD
:1024C00043F080030B61013E2DD0002A9FD1FFF71E
:1024D0005FFF50B32CE065888DF80DB0C5F30B0598
:1024E000AB1DADF808302388C3F30B02ADF80A200A
:1024F0001B0B062202A904A88DF80C30FEF70AFC7B
:10250000062202A94046FDF7CBFF616880462A46B5
:1025100004A8FEF7FFFB616840462A46FDF7C0FFAE
:10252000143480469EE7002AD1D0052004F0D4FC64
:102530000BB0BDE8F08F00BF00000408002002408F
:10254000230167450638030834A4030800F0030894
:10255000A8A803080378202B024600F10100F9D057
:10256000092BF7D02D2B2CD02B2B03BF5378B7EE94
:10257000000A0246B7EE000AA3F13001C8B20928EA
:102580009FED467A10D8F2EE046A07EE901AF8EE44
:10259000E77A12F8013FE7EE267AA3F13001C8B2DC
:1025A0000928B0EE677AF0D92E2B4CD003F0DF0368
:1025B000452B0BD0F7EE007A67EE276A20EE260A4D
:1025C00070475378BFEE000A0246D5E710B4517841
:1025D0002D2959D02B290ABF9178501C901C00241A
:1025E000A1F13003092B53D8002303EB830301EB44
:1025F000430310F8011FA1F13002092AA3F13003AF
:10260000F3D9B3F59A7F28BF4FF49A73072B42D9B9
:10261000DFED236A1A46F7EE007A083A072A67EEDA
:10262000A67AFAD803F007032BB1F2EE046A013B55
:1026300067EEA67AFBD124B3C7EE276A5DF8044B98
:1026400020EE260A70475378A3F13001C8B209285A
:1026500002F10102AAD8F2EE046AF0EE665A07EE21
:10266000901AF8EEE77A12F8013F87EEA66AA3F116
:102670003001C8B2092866EEA56A37EE067AEED9AF
:1026800094E767EE276AD9E7901C91780124A7E7C1
:10269000F7EE007ACFE7F7EE007AC5E7000000001A
:1026A00020BCBE4CB5EEC00ADFED317AF1EE10FA77
:1026B000CCBF30EE270A30EE670ADFED2E7A20EE2F
:1026C000270A30B5FDEEC07A87B017EE904A05466E
:1026D00084EAE470002303A9A0EBE4700193009363
:1026E000029322F043FF002CACBF20232D2303A82C
:1026F0008DF800302FF084FD012803A924D0022892
:102700002DD0032805BF3023684668468DF8013078
:102710002FF06EFC68462FF073FD0338C4B22246DA
:10272000694628462FF058FE00232B5528462FF0E7
:1027300067FD2E22431C2A540DEB0401E8182FF0EC
:10274000EBFC284607B030BD302368468DF80130D9
:102750008DF802308DF803302FF04AFCDAE7302391
:1027600068468DF801308DF802302FF041FCD1E73A
:102770006F12033A00007A442DE9F04106461546EF
:102780000846B6FBF2F43CB905FB1464124B1B5D22
:1027900000F8013BBDE8F081B4FBF2F767B90E4BDE
:1027A00005FB174705FB1464DA5D00F8012B1B5D80
:1027B00000F8013BBDE8F081B7FBF2F8B8F1000F7B
:1027C00002D04046FFF7D8FF05FB1878024B13F8FC
:1027D000082000F8012BE3E7D86C030830B4026846
:1027E0001146531C036011F8024B0160D31C517851
:1027F00003609378151D05601B0443EA0123D0781C
:10280000234343EA006030BC704700BF0368591C93
:102810001A46016012F8021B0260587841EA002053
:10282000704700BF03685A1C02601878704700BFE9
:1028300038B50446006815462CF060FF22682A442B
:10284000226038BD036810B40A0A5C1C04601A7068
:1028500003685A1C026019705DF8044B704700BF92
:1028600003685A1C026010B4197003680A0A5C1CE1
:1028700004601A7003680A0C5C1C04601A70036818
:10288000090E5A1C026019705DF8044B704700BFB6
:1028900003685A1C026019700368090A5A1C026016
:1028A000197070472DE9F047002488B080460F4624
:1028B0001E46A14605AD531C0393117839B3252953
:1028C00033D1931CCDF810900393507830284ED01C
:1028D0004FF0000AA0F13003DBB2092B42D96C287B
:1028E00019D0642800F0938024D825281CD063D9FF
:1028F000582876D063281BD131784046B847039AD0
:10290000531C03931178043601340029D7D1204693
:1029100008B0BDE8F087039B5A1C03921B78642B18
:102920007CD02AD8252B54D1252140460134B847E4
:10293000039AC0E7732833D044D975284FD106F1E4
:10294000040E30682B4600220A217646FDF79EFCD5
:10295000049A0095534639464046FDF7D5FC039A44
:102960000444A8E704AA03A925F09EFAB7E7D31CFC
:10297000039390784FF0010AACE7732B10D05BD92A
:10298000752B3AD0782B96D1A3F15802B2FA82F285
:10299000306852092B4610210436FDF777FCD7E743
:1029A0003368049A0093394600234046FDF7ACFC97
:1029B00004360444039A7EE70028B9D1204608B0C3
:1029C000BDE8F0876E28B3D1039A336804361C60E3
:1029D00071E72AD9582BD7D0632B8DD06BE7782895
:1029E000A6D1A0F15802B2FA82F2306852092B4601
:1029F0001021FDF74BFC0436AAE706F1040E3068FF
:102A00002B4600220A217646FDF740FCA0E7331D45
:102A1000306829461E46FDF70BFC99E7331D3068E8
:102A200029461E46FDF704FC92E7002B7FF443AFD6
:102A3000204608B0BDE8F0876E2BC6D03BE700BF4C
:102A40000EB400B584B005AB019053F8042B0649D1
:102A5000039301A8FFF726FF019B00221A7004B020
:102A60005DF804EB03B07047FD0200080FB430B509
:102A700083B006AB0A490B4853F8042B0968006879
:102A80000193FFF70FFF084C0546206805F09AFDFB
:102A90000028FAD0284603B0BDE8304004B07047A3
:102AA000D4300020D8300020947E0020DFED2B7A37
:102AB000B4EEE70AF1EE10FA4ADDDFED296A9FED88
:102AC000297A01E0B0EE670AB4EEC70AF1EE10FA17
:102AD00070EE667AF6DC9FED247AF4EEC77AF1EEBA
:102AE00010FA38D5DFED1E6A9FED207A01E0F0EE96
:102AF000407AF4EEC77AF1EE10FA37EEA60AF6D471
:102B0000DFED1B7AB4EEE70AF1EE10FA14DDDFED2B
:102B1000137A37EEC00A60EE006A9FED166A9FEDE9
:102B2000167ADFED167AA6EE867A20EE266AE6EEB3
:102B3000877AA6EE270A7047DFED117AB4EEE70A2E
:102B4000F1EE10FA44BFDFED087A37EEC00AE2E793
:102B5000F0EE407ABFE7B0EE670AD1E7DB0F4940FD
:102B6000DB0FC940E4CB1641DB0F49C0E4CB16C1F3
:102B7000DB0FC93F92E741B99730083C15A82ABE40
:102B8000DB0FC9BF80EAE073A3EBE0738B4205DB88
:102B9000002801DD401A704702D1704700207047BD
:102BA0000844704709B909E0194690FBF1F301FBAD
:102BB00013030846002BF7D1084670470146FBE790
:102BC0009FED317A70EE077AFDEEE76A16EE903AE5
:102BD0002033402B02D99FED2D0A7047B4EEC70A6F
:102BE000F1EE10FA0FDDB0EE677A9FED296ADFEDA6
:102BF000296A01E0B0EE677AB4EEE67AF1EE10FAF7
:102C000077EEC67AF6DC9FED247AF4EEC77AF1EE21
:102C100010FA0FD5B0EE677A9FED1D6ADFED1F6ADF
:102C200001E0B0EE677AB4EEE67AF1EE10FA77EEF4
:102C3000867AF6D49FED147AF4EEC77AF1EE10FAA4
:102C40001DDC9FED177AF4EEC77AF1EE10FA44BF5F
:102C50009FED117A77EE677A27EEA76ADFED115ABA
:102C6000DFED116A9FED117AE6EE256A67EE865A6E
:102C7000A6EE267AE5EE877AB0EE670A70479FEDFA
:102C80000C7A77EE677AE7E7DB0FC93F00000000B8
:102C9000DB0FC940E4CB1641DB0F49C0E4CB16C1C2
:102CA000DB0FC9BF92E741B99730083C15A82ABE8F
:102CB000DB0F494010B507EE901A2DED028BB8EEF0
:102CC000678ADFED217A28EE008A044628EE278AFB
:102CD000B0EE480A2CF0F0FFF0EE408AB0EE480A61
:102CE0002CF04CFFF7EE007A9FED187AF0EE675A61
:102CF000E8EE875A0023A361B0EE676AC7EEA56AC3
:102D000063612362E361A8EEC76ABDEC028B77EED4
:102D1000C07AB6EE007AF8EE005A27EE877A20EEF7
:102D2000250A27EE267A26EE266A67EEA67A20EE98
:102D3000260A84ED046AC4ED017A84ED007A84EDFC
:102D4000027A84ED030A10BD27D4D236F304353F4E
:102D500010B44C09012250F8243001F01F0102FA8E
:102D600001F10B4340F824305DF8044B704700BF7D
:102D70004B0901F01F0150F82320012303FA01F150
:102D8000114214BF18460020704700BF074A084B85
:102D900010781B78074A834296BFC31AC3F1800399
:102DA0000020126818441044704700BF684C00208F
:102DB000E54B002058810020064A074B10781B780D
:102DC00083428ABFC3F18003C01AC018C0F17F00DC
:102DD000704700BF684C0020E54B002030B5144C14
:102DE000237883B01BB90120237003B030BD0522C6
:102DF00000238DF800208DF8013000BF0D4D2B68A9
:102E00009868FEF7C3FF2B6801AA6946586824F04A
:102E1000B1FE2B689868FEF7BFFF00BF9DF8053034
:102E200003F0010383F00100237003B030BD00BF45
:102E3000C36D0020B06D002070B5064C06462568B5
:102E400003E023685B1BB34203D8FFF7C7FF0028EA
:102E5000F7D070BD706D0020F0B51F4C83B027789F
:102E600000234FF0030E00930E4615468DF80430F4
:102E70008DF800E06FB3030E8DF801300DF1020301
:102E8000010C020A9870197006205A70FFF7D4FFDF
:102E9000E8B100BF114F3B689868FEF777FF2378D1
:102EA0003A68002B14BF05230423694650680022AA
:102EB000FFF7B4F93B683246002158682B46FFF70C
:102EC000ADF93B689868FEF767FF00BF284603B07E
:102ED000F0BD0DF10103D3E7C26D0020B06D0020FD
:102EE00010B5014600BF074C23689868FEF74EFFF7
:102EF00023685868FDF772F923689868FEF74CFF5D
:102F000000BF10BDB06D00202DE9F04F89B0B2F1C7
:102F1000000A02900491039340F3C2800B46002202
:102F200001EB8A0153F8040B8B420244FAD1039B54
:102F30000592002B00F0AC80059B002B79D05D4BF7
:102F4000059A1B68DFF8849100920099DAB2511853
:102F5000B1F5807F8CBFC2F58072009A0192564A0B
:102F600092689A427FD9554A1178002206928DF8CC
:102F70001C2002228DF8182000295ED01A0E8DF830
:102F800019200DF11A021C0C190A9370147051705B
:102F90000620FFF751FF0620FFF7A2FF484A012352
:102FA000137000BFD9F800309868FEF7EFFE434B6E
:102FB000D9F800201B785068002B06A90CBF042309
:102FC00005230022FFF72AF90024049D029E019F99
:102FD000A34629684FEA840800220B46013471B1E8
:102FE000B9422DD2D9F8000031684068FFF716F9D0
:102FF0002A68336813443360BF1AC5F800B0A2458D
:1030000005F1040506F10406E3D1D9F8003098680B
:10301000FEF7C2FE00BF274B019900981B68421AB9
:103020000092244A0B441360039A4AB3009A002A80
:103030008BD1059809B0BDE8F08F0DF11902A2E718
:10304000029CD9F8003054F80810586800223B461A
:10305000FFF7E4F854F808202B683A44DF1B44F8E3
:1030600008202F60D1E70598009C1649164A001BDE
:103070000590059800230B70137009B0BDE8F08F20
:10308000059B009A9B1A0593059809B0BDE8F08F3F
:10309000FFF7A4FE00287FF44FAF039B0593C8E71A
:1030A000039C1CB9FFF79AFE0594C2E70023059321
:1030B000BFE700BF58810020A81C0020C26D00207F
:1030C000C36D0020684C0020E54B0020B06D00204F
:1030D00070B5104D104E2B7831788B4284B016D0DD
:1030E0000E4A03921A4402928CBF0C46CA1A04A9D3
:1030F0008CBFC3F180020024012341F8102D02A8E7
:1031000002220194FFF700FF002333702B7004B0FC
:1031100070BD00BFE54B0020684C0020E84B00204C
:10312000F0B5124B9D6885B00DB905B0F0BDED0A44
:1031300014D0002704AE7C196410E0021022694606
:10314000FFF78AFE0F2809DD6B4653F8042B013286
:103150000AD1B342F9D12546AF42ECDBFFF7B8FF05
:10316000034BED021D60E0E7671CF5E7A81C00209B
:103170005881002070B5194C194D2378297899424F
:1031800084B027D0174A03921A44029234BF0E46E5
:10319000CA1A04A934BFC3F180020026002341F8F3
:1031A000102D02A802220196FFF7AEFE23781844E4
:1031B000C0B203062B7848BF80F0800083422070A5
:1031C00002D0002004B070BD002301202B702370BA
:1031D00004B070BD012004B070BD00BFE54B0020FD
:1031E000684C0020E84B002008B545F20820FFF7A6
:1031F00023FE0620FFF774FE064B0122C7201A703B
:10320000FFF76EFE04480549054A002303700B7062
:10321000136008BDC36D0020684C0020E54B002002
:1032200058810020B0F1FF3F0AD0022810B403DC1F
:103230005DF8044BFDF794BC00205DF8044B70472B
:103240000020704710B40446134690F904000A4663
:1032500061795DF8044BE5E70378012B00D07047F6
:103260003122F421EEE700BF044B93F820209201B5
:10327000343202F0FC02F421E4E700BF803C00207D
:103280002E22F421DEE700BF0278012A00D0704729
:103290004821D7E70278012A00D070475821D1E7AA
:1032A000F0B55B4B5B4A97B01968914200AF00F0F4
:1032B000A3805949594A00234FF47000C1F888008F
:1032C0003B607B60136843F48033136003E03B682A
:1032D000B3F5A04F09D0136803F400337B603B685B
:1032E00001333B607B68002BF1D04C4B1B6813F41F
:1032F000003318BF01237B607B68012B52D0464C02
:10330000464B474AE260474A596A11605A6A42F09E
:1033100080725A625A6942F4FC025A610025032203
:1033200007F10801012341F6FF764FF09040FD6060
:10333000BE603A73BB7322F0CFFE4FF6FF7307F106
:1033400008013948BB6022F0C7FE07F10801374881
:10335000374E22F0C1FE07F10801364822F0BCFECC
:1033600007F10801344822F0B7FE07F1080133489D
:1033700022F0B2FE07F1080022F007FFBB683049D7
:10338000304AA1FB031330499B0CF0204FF0070E8D
:103390005C370B60566084F823009560C2F800E04B
:1033A000BD46F0BD294A1D4B122111605A685A6072
:1033B0005A685A605A6842F480625A605A6822F425
:1033C0007C125A605A6842F4E8125A601A6842F055
:1033D00080721A601A689201FCD559680F4A21F070
:1033E00003015960596841F002015960536803F0C4
:1033F0000C03082BFAD182E700221A6062B6144B44
:103400001B6883F30888134B1B689847FEE700BFCF
:10341000FC9F0020EFBEADDE00ED00E0001002409A
:103420000005FA05F07D002000040048000800486F
:103430003F190100000C004800100048001400482B
:1034400083DE1B4310E000E0746D0020002002408A
:1034500000D8FF1F04D8FF1F70B50F4C0F4DC0EBF5
:10346000C00004EB8004686926693043686182B05B
:103470009209667BA1600025012101A863618DF896
:1034800004608DF805208DF806508DF8071022F0A5
:1034900019FD02B070BD00BF581B00200010024093
:1034A000074BC0EBC00030B403EB8000054C05694E
:1034B00063692B4363610176427630BC704700BF7D
:1034C000581B0020001002402DE9F04F5E4C54F8CC
:1034D000204083B0002C71D0666D984691465B4BBE
:1034E0007268E264A160236004F15A014FF48073B2
:1034F00004F5AD726161A261E36023610746307E2D
:1035000023F08CF8F068A8B1514B00215A68904222
:1035100003F11C0300F0928001310C29F6D1002048
:103520007A1CD2B20C21FFF7BBFFE36CF268226376
:103530002433A364B068D8B1454B00215A68904247
:1035400003F11C0378D001310C29F7D100257A1C36
:10355000D2B20B212846FFF7A3FF2346F27E3D4956
:103560002846FFF779FFE36CB2686263283363642F
:1035700094F85900FDF7B8FF054694F85800FDF798
:10358000B3FF18F0080F824696F819B01AD0CDB1E3
:1035900018F0110F4FF00B0307F1010714BF4E2174
:1035A0003E21EF715A46AB712846FEF761F818F0DC
:1035B000010F45D0236B5BB3636B4BB3204603B065
:1035C000BDE8F08F18F0010F0CBF4FF02E084FF040
:1035D0004E0819F0020F09D045B10B227B1CAA71CD
:1035E000EB7128465A464146FEF742F819F0010FA2
:1035F000E0D0BAF1000FDDD001370C238AF8077054
:103600005A4641468AF806305046FEF731F8D1E76F
:10361000337FB27E8DF804209B090021012201A88E
:103620008DF805308DF806108DF8072022F04AFC41
:10363000204603B0BDE8F08FCDB288E7C8B26FE78F
:103640002846FEF7A3FBB5E7E03000200838030862
:10365000581B0020490D00080348D0F83C3113B135
:1036600000F59A7018477047581B00200348D0F89F
:10367000203113B100F58C7018477047581B00209B
:103680000348D0F804310BB1FC301847704700BF35
:10369000581B00200348D0F8E8300BB1E030184741
:1036A000704700BF581B00200348D0F8CC300BB146
:1036B000C4301847704700BF581B00200348D0F89B
:1036C000B0300BB1A8301847704700BF581B00201E
:1036D0000348D0F894300BB18C301847704700BFC6
:1036E000581B00200248836F0BB170301847704799
:1036F000581B00200248C36D0BB154301847704767
:10370000581B00200248036C0BB138301847704733
:10371000581B00200248436A0BB11C301847704701
:10372000581B00200248836803B11847704700BF48
:10373000581B0020F0B53E4C059D00EB800004EBCB
:1037400080046468002C71D03A4E49004FF4204048
:10375000CFB2B061A169090454D46068DFF8E0E039
:1037600047F4903100EA0E0001434FF420406160BD
:10377000B06103E0411E002848D00846A1698907CE
:10378000F8D54FF42040A262B06103E0421E002849
:103790003CD01046A2695206F8D5274A6168DFF886
:1037A000A0E0B06142EA0342174301EA0E02174368
:1037B0006760C3B1013BDBB201332B44A0694FF416
:1037C000204210F0040002F1FF3207D1511C26D034
:1037D000A06910F0040002F1FF32F7D0626A05F828
:1037E000012B9D42EAD14FF42040B06102E0431E1C
:1037F00060B11846A3699B06F9D52023B061E36147
:103800000120F0BD411E08B10846A3E70B4A13880A
:1038100001339BB24FF0FF311380B161F0BD074916
:10382000B2610B8801339BB20B80F0BD2046F0BD26
:10383000106D00201422002000240002A05500205A
:10384000009800FC70B590F904506C1C82B00AD04E
:10385000022D08DC16460A46417900962846FFF7F5
:1038600069FF02B070BD002002B070BD70B5037872
:10387000012B82B004D106236A46F721FFF7E2FF4D
:103880009DF801209DF804309DF800609DF80350DC
:103890009DF802409DF80500074912011B0142EA0C
:1038A000063243EA053342EA141243EA10134A602F
:1038B0000B6002B070BD00BF1422002010B582B0B2
:1038C00001AA0323F621FFF7BDFF9DF80530094A41
:1038D0009DF804409DF80600B2F9202006491B021D
:1038E00043EA04430343C2F10802D340CB6002B071
:1038F00010BD00BF803C00201422002000B583B022
:1039000001AA0223F621FFF79DFF9DF804109DF800
:103910000530034A43EA0123138103B05DF804FB39
:103920001422002000B50378012B83B004D10323B7
:1039300001AA0021FFF786FF9DF805309DF80420BD
:103940009DF806001B0243EA0243184303B05DF8EA
:1039500004FB00BF08B5FFF7E5FF014B586108BD48
:103960001422002008B5FFF7DDFF014B186108BDE8
:1039700014220020F0B585B002AB04460093032268
:1039800006231E210020FFF7D5FE00283CD09DF81D
:1039900008509DF809109DF80A709DF80B209DF8BD
:1039A0000C609DF80D3041EA052142EA072243EA06
:1039B000062309B212B21BB2144D06EE901A07EE9E
:1039C000102A07EE903AF8EEE66A95ED005AD5ED2A
:1039D000025A95ED016AB8EEC77AF8EEE77A66EE1C
:1039E000856A27EE257A67EE867AFDEEE66ABDEEF9
:1039F000C77AFDEEE77A16EE901A17EE102A17EE48
:103A0000903A2180A280638005B0F0BD00000020C4
:103A10002DE9F043322083B004F0F6FB002210467B
:103A200011231E21FFF7FEFB602301221E2100202F
:103A3000FFF7F8FB642004F0E7FB6846FFF79AFF06
:103A40000024DFF89081254626460A27012302221A
:103A50001E210020FFF7E6FB322004F0D5FB68466C
:103A6000FFF788FFBDF902E0BDF90410BDF90020A1
:103A70008E457346A8BF0B469342A8BF13464345E5
:103A80004FF0010075440C441644C0F29380FDF7DA
:103A900097F9013FDAD14FF00109002210461223B5
:103AA0001E21FFF7BFFBDFF82C810A27012302222A
:103AB0001E210020FFF7B6FB322004F0A5FB68466C
:103AC000FFF758FFBDF902E0BDF90410BDF9002071
:103AD0008E457346A8BF0B469342A8BF1346434585
:103AE0004FF00100A5EB0E05A4EB0104A6EB0206C6
:103AF0005DDBFDF765F9013FD8D107EE906AF8EE7E
:103B0000E76A07EE905AB8EEE77A07EE904ADFEDE3
:103B10002B5A9FED2B5A2B4EF8EEE77A85EEA66ACC
:103B20000022104670231E21C5EE876A85EE277A93
:103B3000B0EEC66AF0EEE66AF0EEC77A86ED006A8D
:103B4000C6ED016AC6ED027AFFF76CFB2023012265
:103B50001E210020FFF766FB0023184602221E21CB
:103B6000FFF760FB642004F04FFBB9F1000F04D1B4
:103B70004FF07E5333607360B360134C206810B114
:103B8000FEF734F918B9012003B0BDE8F0830F49FE
:103B90000F4B41F8643FF02208232068FEF702FA39
:103BA000206823F0F3FC012003B0BDE8F0834FF060
:103BB0000009A2E74FF000096FE700BF00406F4621
:103BC00001C05E4600000020783C00201422002046
:103BD0000905000801F0FFFFF0B587B00DF10F03F4
:103BE00005460093022201230C210020FFF7A2FDCD
:103BF00018B19DF80F30DB0703D40024204607B02E
:103C0000F0BD04AB0093032206230C210020FFF734
:103C100091FD0DF10F030093092201230C210020D7
:103C2000FFF788FD04460028E7D09DF80F0010F04C
:103C30000C00E2D19DF811E09DF810109DF8137072
:103C40009DF812209DF815609DF8143041EA0E2170
:103C500042EA072243EA0623C1EB8131C2EB8232FA
:103C6000C3EB8333890092009B0029806A80AB807C
:103C70000A2201230C21FFF7D5FABFE710B5002374
:103C800084B018460A220C21FFF7CCFA142004F065
:103C9000BBFA0F230A220C210020FFF7C3FA0A20E7
:103CA00004F0B2FA03AB0093102203230C2100208E
:103CB000FFF740FD0A2004F0A7FA002318460A2265
:103CC0000C21FFF7AFFA0DF10B040A2004F09CFA67
:103CD0000094012302220C210020FFF72BFD009409
:103CE000012309220C210020FFF724FD01230A22D1
:103CF0000C210020FFF796FA012004B010BD00BF90
:103D000000B583B0002000920A466821FFF712FD3B
:103D100003B05DF804FB00BF1749184B184A194857
:103D200010B4D1F8884044F47004C1F888401C688D
:103D300044F001041C605C6822405A601A6822F05A
:103D4000847222F480321A601A6822F480221A6087
:103D50005A6822F4FE025A60DA6A22F00F02DA622E
:103D60001A6B002410404FF0006218639C608A6058
:103D70005DF8044B704700BF00ED00E0001002400A
:103D80000CC07FF8CCFC00FF2DE9F04F2DED028B2D
:103D900097B00646B0F908000881C5B200AF2846C2
:103DA0000C46924602F074FD48B101231A461846AB
:103DB0005C376281BD46BDEC028BBDE8F08FA5F19A
:103DC0000A02E72A00F2EA80DFE812F0ED01E800DB
:103DD000E800E800E800E800E800E800E800E800A3
:103DE000E800E800E800E800E800E800E800E80093
:103DF000E800E800E800E800E800E800FF01E8006B
:103E0000E800E8001D02E800E800E8002D02E800F4
:103E10004E02E8008E02E800A602E800B102E800C7
:103E2000B502E800DA02E800E800E800EE02F60277
:103E3000E800FE02E800E8000203E8000A03E800E8
:103E4000E800E8003303E800E800E800E800500379
:103E5000E8006B03E8008E03C603E800E800E80012
:103E6000E800E800E800E800EC03E8002304E800CC
:103E7000DD05E8007705E800CD05E800E800E8008A
:103E8000E80063048604C4040D065004E800E8005A
:103E90003C07F406E80002073F06E800E800E800F7
:103EA000E8005C06E800E8005507E800E800E800E4
:103EB0007707CD04E604F604E800E800E8006605AC
:103EC000E80068067906E800E800E800E800E80095
:103ED000E800E800E800E800E800E800E800E800A2
:103EE000E800E8006304E800E800E800E800E80013
:103EF000E800E800E800E800E800E800E800E80082
:103F0000E800E800E800E800E800E800E800E80071
:103F1000E800E800E800E800E800E800E800E80061
:103F2000E800E800E800E800E800E800E800E80051
:103F3000E800E800E800E800E800E800E800E80041
:103F4000E800E800E800E800E800E800E800E80031
:103F5000E800E800E800E800E800E800E800E80021
:103F6000E800E800E800E800E800E800E800E80011
:103F7000E800E800E800E800E800E800E800E80001
:103F8000E800E800E800E800E800E800E800E800F1
:103F9000E800E800E800E8009E06AB06742D35D086
:103FA000772D25D0F52D00F09986472D3CD0392D61
:103FB000326800F0E98700F2F586212D01F0A48730
:103FC000292D41F02580531C336013780A2B02F011
:103FD0005080502B41F026863046FEF717FC994D55
:103FE00028803046FEF712FC012368801A46DEE680
:103FF000336872689A421EBF5A1C32601978924A1E
:1040000008BF0021204627F015FDCEE63368726810
:104010009A421EBF5A1C326019788C4A08BF002190
:10402000204627F007FDC0E67268356878623046A2
:10403000551BFEF7D3FB052D38627B6A01F2E7873B
:104040008026B346012594E80600521A103AB2427F
:10405000B8BF1FFA82FB7E4A396A92683A61521AE7
:104060009345396A7B622046FA6088BF1FFA82FB5B
:10407000FEF7F6FB7B6A002B01F08C87002D41F0E8
:1040800063872368C7F800D05D71C0B00533C7F8F7
:1040900008D0FB61BBF1000F02F0FA803B6A3A697D
:1040A000934282F0F180AA463E6A7D627C60802560
:1040B0005446FB681C1B664BB4F5807F28BF4FF449
:1040C00080749B6832199A4288BF9C1BFFF700F8E6
:1040D0002246BC6830462146FEF7BEFEF969B8614B
:1040E00004EB000C0B787B61644530D2DFF87491EF
:1040F0000CF1FF3C04F1FF3E1EF8013F09EB830287
:1041000019F823405688FCB100234FF4004204F113
:10411000FF3816424FEA520202D00878284308704E
:104120006D0806D10AF1010A4D701FFA8AFA0131B1
:104130008025D34505D8E645C0F02D864345C0F21D
:104140002A8601339C42E4D1F445D5D1F9617B6ADA
:10415000BA6913449BB2D3457B6206D97B6A3A6A3B
:104160001C46D6183B699E42A3D37C68802D1CBF99
:104170000AF101031FFA83FA0AF1020189B220460B
:10418000FEF786FB2368796A01255A1922602046CA
:104190001D70FEF77DFB2268524422602B462A46A2
:1041A000D7F800D003E62B4D28462EF029F800283A
:1041B0007FF7FBAD2B460544226813F8011B501C0A
:1041C000AB4220601170F7D1EFE5234D05F15006A9
:1041D000287827F083FC2368027A591C21601A7022
:1041E00023686A78591C21601A702368AA78591CC0
:1041F00021601A702368EA780435591CB5422160A1
:104200001A70E5D1D1E5154D20462988FEF740FB0F
:10421000A9882046FEF73CFB29892046FEF738FB9B
:1042200001231A46C3E50E4B22681978501C206002
:104230001170216858784A1C012322601A460870C0
:10424000B5E500BF2029002049AF0208D5B8020813
:10425000A81C002070590020748100200C3100201F
:10426000708100206C380308AB4D23682A7A591CF2
:1042700021601A70A98B2046FEF70AFB298B204685
:10428000FEF706FB698B2046FEF702FB2368EA7CFB
:10429000591C21601A70A98C2046FEF7F9FAE98CA6
:1042A0002046FEF7F5FA2368AA7F591C21601A7090
:1042B000236895F82020591C21601A70698C2046CB
:1042C000FEF7E6FA2368EA7A591C21601A70E96859
:1042D0002046FEF7C5FA23682A7C591C21601A7013
:1042E000216895F82100A6E78C4D05F14006B5F848
:1042F00000122046FEF7CCFA236895F80222591CDA
:1043000021601A70236895F803220435591CB542C0
:1043100021601A70EBD148E5814D05F5007655F81E
:10432000041F2046FEF79CFAB542F8D13DE57A4BD2
:104330002168587D7FE77B4B03F15A052268597944
:10434000501C2060117022681978501C2060117078
:1043500022685978501C2060117022689978501C8E
:10436000206011702268D978501C2060117022687A
:1043700019790633501C9D4220601170DED114E57E
:10438000694D6A4E05F1280895F90210684B93F9BA
:1043900006208A4203F1080300F00F85B342F6D1EC
:1043A0000835A845F0D100E5624B20461968FEF7B4
:1043B00057FA01231A46FAE4216801200A182260FC
:1043C000034602460870F2E45B4B226899782DE7B9
:1043D000082251492046FEF72BFA01231A46E6E44B
:1043E0002368564A564D1178564A581C2060197059
:1043F00011682046FEF734FA2368474A591C127A9E
:1044000021601A7029882046FEF742FAA9882046C2
:10441000FEF73EFA29892046FEF73AFA00212046A7
:10442000FEF736FA00212046FEF732FA01231A463B
:10443000BDE4FEF7D3FC2368434D002803F10101DE
:104440000CBF0222032221601A7029882046FEF741
:1044500007FAA9682046FEF703FAFEF797FC014623
:104460002046FEF7FDF901231A46A0E42368374DE4
:10447000591C2A7921601A7023686A79591C2160B5
:104480001A7029882046FEF703FA2368AA79591C76
:1044900021601A7069882046FEF7FAF92168E879E8
:1044A000C9E62B4D2B78002B3FF47FAC294E4FF003
:1044B0000008B146236816F81820591C21601A70AC
:1044C00099F8011001EB810101EB810101F2EE216C
:1044D00089B22046FEF7DCF92B7808F101089845EF
:1044E00009F10209E6DB60E4236800255A1C22601A
:1044F0001D7023685A1C22601D7023685A1C22609C
:1045000029461D702046FEF7ABF929462046FEF7E6
:10451000A7F901231A464AE4C47D0020BC560020B6
:10452000B856002000320020C86D0020DC72002048
:10453000B4720020E43C00206085002070810020DF
:104540000C310020384B0020A81C0020E83300204C
:10455000E4510020B03700202368B94E01255A1CD1
:1045600022601D702368B278591921601A7027F0F3
:10457000BBFC2368B34AB44903EB050EC4F800E062
:104580001870B1F90010B2F90000FEF70BFB2368B8
:104590005A192260187031882046FEF779F92B46A7
:1045A0002A4604E41BF0E2F9FF28054601F03C85A9
:1045B00007F15801002601F82D6D07F12A0087F850
:1045C0002A601BF0D3F807F1580000F82C6D1BF09F
:1045D000C1F807F1580000F8246D1BF0AFF823680C
:1045E0005A1C22601D70236897F82A20591C2160EC
:1045F0001A70236897F82B20591C21601A702368C1
:1046000097F82C20591C21601A70216897F8340003
:1046100011E6DFF8608298F80330002B01F0E584A2
:1046200023680822591C21601A70236801229918F6
:1046300021601A702368854D591C2A7921601A70EF
:104640002368AA78591C21601A7029882046FEF731
:104650001FF9E9892046FEF71BF9236898F807201F
:10466000591C21601A702168E878E4E5784D2B78B0
:10467000002B3FF49AABDFF81082002638F8021FB7
:104680002046FEF705F92B7801369E42F6DBFFF750
:104690008CBB0026DFF8F4A16E4B3E63FE627E63A6
:1046A000BE6301214FF6FF7B05E001360B2E00F0C3
:1046B000A2831AF9011F481C4BFA06F2F5D0D20763
:1046C000F3D51A883241D007EFD507F134007B6269
:1046D000FEF73EFB7B6AE8E75F4B9B8AB3F5006F12
:1046E00001F29184B3F5806F01F2C984B3F5007FC4
:1046F00034BF4FF001084FF00208584D05F10C0689
:1047000055F8041B91FBF8F1204689B2FEF7C0F87A
:10471000AE42F5D1524DDFF8788105F10C06B5ECCB
:10472000010AD8ED087A80EE270A2BF079FA81B2D7
:104730002046FEF7ADF8AE42F1D14A4D05F10C0628
:1047400055F8041B204689B2FEF7A2F8B542F7D10E
:10475000FFF72BBB102244492046FEF769F80123DE
:104760001A46FFF724BB2268404B41491878551C74
:104770002560107022685878551C256010702268DA
:104780009B78501C20601370C9882046FEF780F883
:1047900001231A46FFF70BBB2368364A36491078C7
:1047A000364A5D1C2560187023688978581C206083
:1047B0001970216890783EE5DFF8D8C04FF0000E00
:1047C0005FFA8EF6614600232268501C2060167046
:1047D0002268501C20601370226811F8010F013309
:1047E000551C062B25601070EED10EF1010EBEF1A6
:1047F000060F0CF1060CE3D1214900232268501C5E
:10480000206082F800E02268501C2060137022684B
:1048100011F8010F0133551C0B2B25601070EDD1E1
:104820002368184A581C072120601970236800214A
:10483000581C20601970216892F87002FBE400BFD8
:10484000A8840020B07F0020B27F0020707A002072
:10485000E4510020645900203051002068510020AC
:10486000A072002078510020707F002030280020A6
:10487000CC330020FC6F00209C3800206C3C0020D2
:104880001F590020BC560020A66300206038030892
:1048900010700020FB580020B74D2046298AFDF7F4
:1048A000F7FF698A2046FDF7F3FFA98A2046FDF746
:1048B000EFFF01231A46FFF77ABA00212046FDF7E1
:1048C000E7FF00212046FDF7E3FF00212046FDF72A
:1048D000DFFF2368A94D00265A1C22601E70236842
:1048E0002A68591C92F82C2021601A7023682A68C3
:1048F000591C92F8362021601A7023682A68591CC6
:1049000092F8372021601A7023685A1C22601E70AA
:1049100023685A1C22601E7023685A1C22601E7075
:104920002B682046598FFDF7B3FF2B682046198F5F
:10493000FDF7AEFF23682A68591C92F82E202160EB
:104940001A7023685A1C22601E702B682046598EEC
:10495000FDF79EFF2B682046998EFDF799FF0123F6
:104960001A46FFF724BA2368854A8649D078864AD2
:104970005D1C2560187023684979581C20601970E7
:104980002168D07857E4814E236872797B4D591C99
:1049900021601A702B682046198CFDF779FF2B686F
:1049A0002046D98BFDF774FF71892046FDF770FF13
:1049B000B1892046FDF76CFF2B682046598CFDF726
:1049C00067FF2B682046998CFDF762FFF18920462E
:1049D000FDF75EFF318A2046FDF75AFF2B682168FC
:1049E00093F8260027E46A4DDFF8B8A1DFF8B88114
:1049F000DFF8B8919FED678A05F120060DE0FCEE27
:104A0000E77AC7ED097AB98C20460435FDF740FFF7
:104A1000AE420AF1180A3FF4C8A99AF81110002909
:104A2000F2D098F80030D5ED007A012BE7D1D9F813
:104A30000030DB0441F1CF82F5EE407AF1EE10FA5E
:104A400041F08E8340F2DC51DEE74C4D00212368BB
:104A5000286801EB41025E1C805C266018702B68A0
:104A600020681344461C5B78266003702B6820681E
:104A7000134401319B78421C0A2922600370E6D15D
:104A8000FFF793B9444952232268501C20601370E9
:104A900011F8013F002BF7D1FFF787B93A4B3F4997
:104AA000B3F9003081FB0321DB17C3EBA10189B20D
:104AB0002046FDF7EDFE01231A46FFF778B923687B
:104AC000DFF8EC80591C98F8002021601A7098F8E3
:104AD0000030002B3FF469A90025EEB230461BF0F0
:104AE00093FF23684278591C216030461A701BF0EE
:104AF0008BFF01892046FDF7CBFE98F80030013589
:104B00009D42EADBFFF751B91D4D2046E989FDF7CB
:104B1000BFFEA9892046FDF7BBFE01231A46FFF719
:104B200046B91F4B03F1700522681978501C2060AC
:104B3000117022685978501C206011702268997891
:104B4000501C206011702268D978501C20601170B0
:104B500022681979501C2060117022685979501C04
:104B600020601170226899790733501C9D422060A3
:104B70001170D9D1FFF719B9707A00208859002037
:104B80009C380020F88300206C3C0020FC6F002043
:104B9000807F002000004042303803086766666668
:104BA000645D0020B0790020947A0020AC7200206F
:104BB000A5520020B24B20461968FDF751FEB14BBB
:104BC00020461988FDF764FE01231A46FFF7EFB867
:104BD000AD4D23682A68591C127821601A702B6821
:104BE00022689978531C2360002311702A68216879
:104BF0001A4401335279481C032B20600A70F5D106
:104C000023682A68591C127A21601A7023682A685E
:104C1000591CD27821601A7023682A68591C1279AD
:104C200021601A702B6820465989FDF731FE2368F0
:104C30002A68591C527A21601A702B6821685878AA
:104C4000FFF7F9BA914D20462988FDF721FE6988C2
:104C50002046FDF71DFEB5F904308D49DA1781FBBA
:104C60000313C2EBA30399B22046FDF711FE012303
:104C70001A46FFF79CB8874D05F16006A9882046C3
:104C8000FDF706FEE9882046FDF702FE2989204649
:104C9000FDF7FEFD2368AA7A591C21601A7023686B
:104CA000EA7A591C21601A7055F80C1B2046FDF752
:104CB000D7FDAE42E2D1FFF778B8774D204629887C
:104CC000FDF7E6FD69882046FDF7E2FDA98820464C
:104CD000FDF7DEFD01231A46FFF769B833687268F5
:104CE0009A4241F013826D4BFF221A704FF0000977
:104CF0006B4D19F023F8494620226A4885F8009048
:104D00002DF002F987F8349097F83430072B01F230
:104D1000B882DFF89C81634E4A4697F8343003EB43
:104D2000430308EBC3035B7CE3B197F8343003EB38
:104D3000430308EBC30320215B699BB197F8343030
:104D400003EB430308EBC303586946F82200FCF762
:104D500061FE2B7856F82300FDF71EF82A78013201
:104D6000D2B22A7097F834300133DBB287F834308E
:104D700097F83430072BD0D92368591C21601A705A
:104D8000BAF1000F3FF411A8474BCAF800300123D5
:104D90001A46FFF70CB8FB697C681A463B7D137016
:104DA000FFF7E4B9552D00F00281572D40F0308116
:104DB0004FF0FF331A46FEF7FABF23685A1C2260F1
:104DC000197029882046FDF763FD2368EA78591C8D
:104DD00021601A7023682A79591C21601A7023688F
:104DE000AA79591C21601A7023686A79591C2160BC
:104DF0001A70FFF7D5BADFF8BCB000264FF0080AEA
:104E00000136C6F120020AFA02F2A6F120032BFABB
:104E100006F848EA02082AFA03F348EA0308252EAE
:104E200008F001024FF000030CD01343E8D0F0B2B9
:104E300029F0FAFA0028E3D0314607F13400FDF7F3
:104E400087FFDDE7194B1B78DA0701F100810026A7
:104E5000DFF86480B14602E00136252E2ED03146BF
:104E60004046FDF785FF0028F6D0314607F13400B3
:104E7000FDF77EFF002840F0818009F10109EBE792
:104E8000B4840020985900203C85002068590020F7
:104E900067666666FC5F0020CC330020832200201A
:104EA000415C0020E03600200D440208646C0020C4
:104EB000B079002090E33FF40C7F00204D4B4E4E24
:104EC000B3F850102046FDF7E3FC4C4B1988204600
:104ED00089B2FDF7DDFC4A4B1A68530103F020014B
:104EE000C2F340030B43C2F3800143EA4103C2F320
:104EF000C00143EA8103C2F3401143EAC10102F059
:104F0000100211432046FDF7C3FC07F12C010422D7
:104F10002046FDF78DFC236831783A4A581C206002
:104F2000197011886429A8BF64212046FDF7B0FCE0
:104F3000962D01F0928000212046FDF7A9FC216802
:104F4000B9F1190348BFA9F11203A3F3C4034A1C22
:104F5000226020461A460B7007F13001FDF768FC0D
:104F60002368294A581C1021206019701188204696
:104F7000FDF776FC01231A46FEF719BF494607F1F3
:104F80002C00FDF7E5FE78E7531C336013780A2BFD
:104F900001F079803046FDF745FC3046FDF742FCD4
:104FA0003046FDF73FFC01231A46FEF700BF531CB5
:104FB00033601578FF2D01F03481FE2D01F07280F1
:104FC0003046FDF723FC96E80C009B1A002B06DD0B
:104FD000531C3360137813B90B2D41F21781242D24
:104FE0003FF6E6AE094A012322F815001A46FEF7FD
:104FF000DEBE00BFBC1C00208C590020A055002044
:1050000048830020A4550020CC8400203C8400204C
:105010007168A5F10B008B1AEF283FF6C9AE01A508
:1050200055F820F06B5D0008B14D0008B14D000847
:10503000B14D0008B14D0008B14D0008B14D000858
:10504000B14D0008B14D0008B14D0008B14D000848
:10505000B14D0008B14D0008B14D0008B14D000838
:10506000B14D0008B14D0008B14D0008B14D000828
:10507000B14D0008B14D0008B14D0008B14D000818
:10508000B14D0008175D0008B14D0008855E0008AD
:10509000B14D0008635E0008B14D0008B14D000835
:1050A000B14D00083B5E0008B14D0008E15D00080D
:1050B000B14D0008C55E0008B14D00089F5E0008B4
:1050C000B14D0008F75E0008B14D0008BF5C000854
:1050D000B14D00086B5C0008B14D0008B14D0008EF
:1050E000B14D0008B14D0008AB3D0008B14D0008BE
:1050F0004F5C0008B14D0008B14D0008355C000858
:10510000B14D0008DB5B0008B14D0008B14D00084F
:10511000B14D0008B14D0008CF5B0008B14D00084B
:10512000B14D0008B14D00088F5B0008B14D00087B
:10513000415B0008B14D0008B14D0008075B000855
:10514000B14D0008B14D0008B14D0008B14D000847
:10515000B14D0008B14D0008B14D0008415A00089A
:10516000B14D000895590008B14D000823590008B9
:10517000B14D000875580008B14D00084D580008A1
:105180002F580008B14D0008B14D0008B14D00087E
:10519000B14D0008B14D0008B14D0008B14D0008F7
:1051A000B14D0008B14D0008B14D0008B14D0008E7
:1051B000B14D0008B14D0008B14D0008B14D0008D7
:1051C000B14D0008B14D0008B14D0008B14D0008C7
:1051D000B14D0008B14D0008B14D0008B14D0008B7
:1051E000B14D0008B14D0008B14D0008B14D0008A7
:1051F000B14D0008B14D0008B14D0008B14D000897
:10520000B14D0008B14D0008B14D0008B14D000886
:10521000B14D0008B14D0008B14D0008B14D000876
:10522000B14D0008B14D0008B14D0008B14D000866
:10523000B14D0008B14D0008B14D0008B14D000856
:10524000B14D0008B14D0008B14D0008B14D000846
:10525000B14D0008B14D0008B14D0008B14D000836
:10526000B14D0008B14D0008B14D0008B14D000826
:10527000B14D0008B14D0008B14D0008B14D000816
:10528000B14D0008B14D0008B14D0008B14D000806
:10529000B14D0008B14D0008B14D0008B14D0008F6
:1052A000B14D0008B14D0008B14D0008B14D0008E6
:1052B000B14D0008B14D0008B14D0008B14D0008D6
:1052C000B14D0008B14D0008B14D0008B14D0008C6
:1052D000B14D000803580008B14D0008ED57000813
:1052E000B14D0008B14D0008B14D0008B14D0008A6
:1052F000B14D0008B14D0008B14D0008B14D000896
:10530000B14D0008B14D0008B14D0008B14D000885
:10531000B14D0008B14D00088F570008B14D00088D
:1053200057570008B14D0008B556000859560008F7
:105330003D560008B14D000823560008B14D000845
:10534000FB550008E955000889550008B14D0008D3
:1053500059550008B14D0008B14D000837550008F7
:1053600009550008F5540008CD540008AD54000854
:105370008B540008B14D000873540008B14D00086B
:10538000B14D0008B14D0008B14D0008B14D000805
:10539000B14D0008B14D0008B14D0008B14D0008F5
:1053A000B14D0008B14D0008B14D0008B14D0008E5
:1053B000B14D000859540008B14D0008B14D000826
:1053C000FF530008B14D0008B14D0008B14D000871
:1053D000B14D0008B14D0008B14D0008B14D0008B5
:1053E000E5530008A34B1B78DB073FF5E1AC01F068
:1053F00069FD01F043FF01231A46FEF7D8BC531C98
:10540000336013780F2B3FF6D3AC911C3160C3EBA4
:10541000C30399495078C854D01C30600B4491782C
:105420005970111D3160D1789970511D3160117919
:10543000D970911D316051791971D11D3160917907
:10544000597102F108013160D2799A711FF03CFB69
:1054500001231A46FEF7ABBC3046FDF7D7F9874D5E
:10546000E8813046FDF7D2F90123A8811A46FEF7FC
:105470009EBC3046FDF7CAF9814900EB800042002E
:1054800001230A801A46FEF792BC3046FDF7BEF9AA
:105490007C4D28823046FDF7B9F968823046FDF729
:1054A000B5F90123A8821A46FEF781BC1346511CA8
:1054B000316013F8020B3360D31C5178336092785B
:1054C0001EF0ECFC00287EF470AC71E41346511C15
:1054D00031606D4913F8020B0870336067495378E7
:1054E0008B70D31C3360664B92789A7001231A46F6
:1054F000FEF75DBC654B664918684E222AF0FEF83F
:1055000001231A46FEF753BC1146531C3360614B0E
:1055100011F8020B1870316051785970D11C31604C
:1055200092789A703046FDF771F95B4A0123D0807A
:105530001A46FEF73CBC3046FDF768F9564D288008
:105540003046FDF763F968803046FDF75FF90123C7
:10555000A8801A46FEF72BBCDFF84C8198F8003083
:10556000002B3EF422ACDFF8449100253046FDF7D5
:105570004DF910F075F898F80030A9EC010A0135E2
:105580009D42F3DBFEF711BC0D2B7FF411AC531CD5
:1055900033601578072D3FF60BACDFF814913046D9
:1055A0004FF00C08FDF732F908FB05F809EB080588
:1055B000A8803046FDF72AF9E8803046FDF726F945
:1055C000336828811A46591C316012F8021BA972EF
:1055D00032605B78EB723046FDF700F9012349F841
:1055E00008001A46FEF7E3BB3046FDF70FF92B4AD9
:1055F000012310801A46FEF7DABB531C3360107883
:10560000060600F189861B4B1B78DD073EF5CDAB06
:10561000032828BF002001F039FC01231A46FEF7B9
:10562000C6BB144B1B78D8073EF5BFAB02F002F89F
:1056300001F024FE01231A46FEF7B9BB0D4B1B787F
:10564000DA073EF5B2AB16490A78012342F00402AC
:105650000A701A46FEF7ABBB064B1B78D9073EF51E
:10566000A4AB104A4FF4C871012311801A46FEF70B
:105670009EBB00BF646C0020645D00209C3800204D
:105680006C3C0020707A0020FC6F002088590020BC
:105690007C41030830280020CC3300202C28002037
:1056A000A48400205C850020A55200202033002027
:1056B000FC5F0020092B7FF77BABDFF87C83134670
:1056C000511CD8F80050316013F8021B2970336068
:1056D0005378AB70D31C33609378642B02F10401D0
:1056E000A8BF64236B713160D378642B02F105018C
:1056F000A8BF6423AB7131601379EB71931D3360E4
:105700005379642B02F10701A8BF64232B72316027
:105710009379EB7002F108033360D3792B71304633
:10572000FDF774F8726833686881D11A00290CDDBE
:10573000591CD8F800003160521A002A19784172B9
:1057400003DD9A1C32605B78437028F0E5FE01238C
:105750001A46FEF72CBBAC4B1868D31C014621320D
:105760009D1E356013F8035C0D705D1E356013F8E7
:10577000025C4D70336013F8015C8D7003339A4204
:1057800001F10301ECD11FF051FDFEF70EBBC3F395
:105790004705122D3FF60CABC5B107F1580307F1D1
:1057A000320903EB450AC846AAF1260A3046FDF73E
:1057B0002DF828F8020FC245F8D1944B39F8022F82
:1057C00023F8022FC145F9D1112D09D8904A6B0059
:1057D000023B13440021223223F8021F9A42FBD1DC
:1057E0008C49012213460A70FEF7E1BA8A4D002364
:1057F00030462B60FCF7F2FF012328601A46FEF7C3
:10580000D6BA1346511C316013F8025B3360D31CC7
:10581000507833609178002D00F08985012D7EF459
:10582000C4AA0EF037F92B462A46FEF7C0BA7B4BC6
:105830001B7813F001017FF4BBAA531C336010786E
:105840000EF062F801231A46FEF7B1BA1346511C56
:105850003160734913F8020BC87033607149537893
:105860004B71D31C3360704B9278DA7001231A4667
:10587000FEF79DBA3046FCF7C9FF3046FCF7C6FF7D
:105880003046FCF7C3FF3046FCF7CCFF33685E4D73
:105890001946581C2A68306011F8020B82F82C0057
:1058A0003160597882F83610D91C31609B7882F8C3
:1058B00037303046FCF7B6FF3046FCF7B3FF3046D2
:1058C000FCF7B0FF3046D5F80080FCF79FFFA8F842
:1058D0003A003046D5F80080FCF798FF33687268CC
:1058E000A8F83800D11A01290ADD591C2A6831604C
:1058F0001B7882F82E303046FCF794FF33687268CC
:10590000D31A032B0BDD3046D5F80080FCF77EFF61
:10591000A8F8320030462E68FCF778FFB086286879
:1059200031E7531C3360384DDFF81081137888F865
:1059300005303046D5F80090FCF768FFA9F8200044
:105940003046D5F80090FCF761FF72683368A9F81B
:105950001E00D11A072900F3C384D11A032900F3CA
:10596000B184D21A002A05DD591C2A6831601B78DF
:1059700082F8263001F0E4FB22F032FC2B4B286841
:105980001B68002B00F089841FF032F901231A46AE
:10599000FEF70DBA1346511C3160DFF8A08013F8F2
:1059A000021B88F802103360214953780B70D31C16
:1059B0003360204D93782B71131D3360D378092BFE
:1059C000A8BF09233046AB70FCF720FF336872682C
:1059D0002880D11A012905DD3046FCF717FF33680E
:1059E0007268E8819A4240F0638401F0A9FB336851
:1059F00072689A423EF4D9A95A1C32601B78EB7047
:105A000001231A46FEF7D3B988590020A235002099
:105A1000A4350020C8350020F4310020646C00203B
:105A20009C380020F88300206C3C0020548100202A
:105A3000145F0020707A00203C850020FC6F00205D
:105A40003046FCF7E3FEC308013300F007005FFABD
:105A500083F8451C19F08AFFFF283EF4A6A907F138
:105A60005801002301F82D3D07F12A0087F82A305C
:105A700019F07CFE97F82A30434503D197F82B3074
:105A8000AB4203D02946404619F05CFF3368726888
:105A9000D21A012A7EF789A95A1C07F158003260F0
:105AA00000221D7800F82C2D19F054FE97F82C30A8
:105AB000AB420AD0BA4B1B683BB19A79AA4204D3D5
:105AC0001B681B690BB128469847336807F15800DB
:105AD0005A1C326000221D7800F8242D19F02EFE89
:105AE00097F83430AB423EF460A9AD4B1B68002BF5
:105AF0003EF45BA91B685B69002B3EF456A928465F
:105B00009847FEF752B9A74B1B78012B3EF64DA9DB
