:020000040800F2
:1000000000500020AD66010849670108B554010899
:1000100049670108496701084967010800000000B5
:100020000000000000000000000000004967010817
:10003000496701080000000049670108A131010873
:1000400049670108496701084967010849670108CC
:100050004967010849670108CDF20008D7F2000896
:10006000D5F20008D3F20008D1F20008ADB50008BF
:100070009DB500088DB500087DB500086DB5000878
:1000800059B5000845B500084967010849670108E6
:10009000496701084967010849670108CFF200086C
:1000A00049670108390B010849670108290B010854
:1000B000190B0108090B0108F90A010891B8000899
:1000C00095B8000889B800088DB80008496701088C
:1000D000496701087DB1000871B10008496701084E
:1000E000CBF20008496701084967010800000000D9
:1000F0000000000000000000000000000000000000
:0C01000000000000000000005FF808F1A3
:100110002DE9F04FB0F908300546D8B2522885B025
:100120000C4617460B8100F0298700F22D813428F8
:1001300000F0FF8400F2B680242800F0798573D89F
:10014000042800F0F68249D8022800F0D78200F295
:10015000E182012800F0C382F52895E8480041F0CB
:100160006F809E420FBFFF23591C296013F8021BAA
:10017000AE4A16BF2B6082F8313082F8311092F807
:100180003130FF2B4FF0000341F05480A84A18464D
:100190009046995801B108801433F02BF9D100260C
:1001A0004FF01409A34BA44D31463022A3481E70D2
:1001B0002E7019F076F88DF80F60A04E9DF80F3074
:1001C0000B2B41F2108023682A78591C21601A7089
:1001D000002F00F09D829A4B3B6099E20A2800F0C4
:1001E000E782222800F080840528B5D10023954DB0
:1001F0002268595D0133501C0B2B20601170F7D120
:100200000023914D2268595D0133501C082B20605A
:100210001170F7D10023194622680133501C072BB7
:1002200020601170F8D173E22C2800F0468518D8B0
:10023000282800F023852A2800F0378526288BD12E
:10024000824D2046B5F8E4110CF0F4FBB5F8E81146
:1002500020460CF0EFFBB5F8EC1120460CF0EAFB61
:1002600056E2302800F0EB85322800F099852E28E0
:100270007FF472AF754D05F14006B5F80C142046B9
:100280000CF0D8FB236895F80E24591C21601A70D5
:10029000236895F80F240435591CAE4221601A706A
:1002A000EBD135E2442800F0978735D83B2800F0A1
:1002B00011841AD8382800F0C1843A2800F09983B4
:1002C00036287FF449AF614D614F05F120060023C8
:1002D00095F9DA22D957914201F0EE850C33302B93
:1002E000F8D10835AE42F2D112E2402800F0608524
:1002F000422800F079853D287FF42EAF534B2268C9
:1003000093F8B212501C2060117093F8B122236848
:10031000591C21601A70FBE14B2800F01D850ED896
:10032000462800F0E085C0F0308649287FF414AFFD
:10033000484B2046B3F848100CF07CFBE8E14F280E
:1003400000F00586502800F0E9854D287FF404AFC1
:100350000026414D414F3B7802359E4280F2D881C4
:10036000236815F8022C591C21601A7015F8011C1D
:10037000204601EB810101EB810101F2EE2189B2FE
:100380000CF058FB0136E6E7702800F0648300F2B9
:10039000AA80662800F058822ED85E2800F0C28617
:1003A0000ED85A2800F046865C2800F0898654282A
:1003B0007FF4D2AE0B685A1C0A6000221A70A7E1C3
:1003C000642800F0DF8100F2038260287FF4C4AE6D
:1003D0001E4B226893F81912501C2060117022687D
:1003E00093F82412501C2060117093F80F22236898
:1003F000591C21601A708BE16C2800F0DE8231D824
:10040000682800F0C782C0F04D8269287FF4A4AE4E
:100410000025124E124F33789D4280F2798137F8D1
:10042000151020460CF006FB0135F4E73C050020D2
:10043000F82E00203E2900203D290020B041002058
:100440009DDD0008E6B30108F2B301088037002003
:10045000B83D00204C1C0020FC390020FC2400206A
:10046000EC2500206E2800F0C98240F2B982B94D17
:100470002B681A780B68591C21601A702B689A78BF
:100480002368591C21601A7000232A681A44517984
:1004900022680133501C032B20601170F5D12B68AA
:1004A00020461A7A2368591C21601A702B68DA7862
:1004B0002368591C21601A702B681A792368591C0B
:1004C00021601A702B6859890CF0B4FA2B685A7A9B
:1004D0002368591C21601A702B685A782368591CAC
:1004E00021601A7014E17D2800F0758500F28A8081
:1004F000752800F0EB8060D8732800F0758300F257
:10050000438372287FF428AE934D2046B5F86A12D3
:100510000CF090FAB5F8CC1020460CF08BFAB5F838
:10052000CE1020460CF086FAB5F8D01020460CF01C
:1005300081FAB5F8B81220460CF07CFA2268531CF8
:100540002360002313702268511C216013702268FD
:10055000511C21601370226895F84512501C2060D0
:100560001170226895F86712501C20601170226883
:100570002046511C216013700A23B5F90C1291FB1F
:10058000F3F189B20CF056FA236895F83822591C19
:1005900021601A70236895F83C22591C21601A705A
:1005A000236895F83B22591C21601A70236895F83E
:1005B0003D22591C21601A70AAE0782800F0808141
:1005C0007C2800F0F68477287FF4C6AD00214FF038
:1005D0000C0C624D624805F1120700F1300E95F8DF
:1005E0003030994280F294800022CE5D0CFB02F301
:1005F00013F80E80B04501F0568401321F2AF5D160
:100600000131ECE7A02800F003834AD87F2800F0EE
:100610002284C0F0FA8496287FF49EAD514B204688
:10062000B3F858100CF006FA4F4B2046198889B2DF
:100630000CF000FA4D4B20461968C1F3C003C1F31A
:1006400080029B0043EA4203C1F340021343C1F31B
:10065000401243EAC20301F0100119430CF0EAF919
:1006600014F072FF014620460CF0D0F93A4B2046B8
:1006700093F860252368591C21601A703C4B198837
:100680006429A8BF64210CF0D5F923685A1C2260A4
:1006900002221A70374B1A782368591C21601A708D
:1006A00036E0F12800F04581FE2800F0A682F0280F
:1006B0007FF452AD284D2046B5F822120CF0BAF95D
:1006C000B5F8201220460CF0B5F921E02A4A12F8BC
:1006D000013FEBB12168481C20600B70F7E70B6805
:1006E0005A1C0A6000221A700B685A1C0A601870A3
:1006F0000B685A1C0A601F221A70F0E100231F4D7C
:100700002268595D0133501C042B20601170F7D111
:100710000120E4E10B6801205A1C0A6003221A70D0
:100720000B685A1C0A6018700B681A180A600622B7
:10073000E2E70023124D2268595D0133501C042B5F
:1007400020601170F7D1054B204619780CF072F932
:10075000DEE700BFCC150020803700203C050020DC
:10076000FC9301081C000020D42E0020FC40002037
:10077000E8150020D62E0020FB930108DCB3010809
:10078000E1B301080B6820465A1C0A60E7221A7080
:10079000BE4B93F8B3220B68591C21601A70236872
:1007A00004215A1C226000221A700CF02FF9AFE7C6
:1007B000B74814F08DFF0023B4499842A8DD5A18B9
:1007C00092F8185622680133561C26601570F4E71B
:1007D000B04B2046B3F858100CF02CF9AE4B204625
:1007E000198889B20CF026F9AC4B20461968C1F380
:1007F000C003C1F380029B0043EA4203C1F34002FD
:100800001343C1F3401243EAC20301F0100119433C
:100810000CF010F914F098FE014620460CF0F6F8A2
:100820009A4B204693F860252368591C21601A7062
:100830009B4B19886429A8BF64210CF0FBF80021A8
:1008400020460CF0F7F863E7964E00253289B2F5A2
:10085000007F94BF012704277319196B204691FB71
:10086000F7F1043589B20CF0E5F80C2DF4D1002530
:100870008D4EAB19B169D86C15F096FD16F046FA9D
:10088000043581B220460CF0D5F80C2DF1D10025AD
:10089000864EAB199989204604350CF0CBF80C2D07
:1008A000F7D135E7824B0A6803F1100153F8040BC6
:1008B0008B4242F8040BF9D123681033236027E7F9
:1008C000724D00262F464FF00E08B5F872112046E3
:1008D0000CF0B0F8B5F8741120460CF0ABF8B5F890
:1008E000761120460CF0A6F8236895F87821591C5B
:1008F00021601A70236895F87921591C21601A70BB
:10090000236895F87A21591C21601A70236895F89C
:100910007B21591C21601A7008FB06732046D3F80E
:100920007C1101360CF072F8082E05F10E05CCD1C1
:10093000EEE6564B03F17001226893F80201551C54
:1009400025601070226893F80301551C2560107013
:10095000226893F80401551C25601070226893F8F2
:100960000501551C25601070226893F80601551C7E
:1009700025601070226893F80701551C25601070DF
:10098000226893F808010733551C994225601070BE
:10099000D2D1BDE600251426464FDFF8348106FB90
:1009A0000573197B31B9204601350CF043F8082D49
:1009B000F5D1ADE638F81510F5E73F4D204629880A
:1009C0000CF038F8698820460CF034F80A23B5F9A1
:1009D0000410204691FBF3F189B20CF02BF897E656
:1009E000204600210CF012F8002120460CF022F8DD
:1009F0008EE6002120460CF009F889E62F4B0A68A4
:100A00001B88511CFF2BA8BFFF23216013702C4BA8
:100A10002046196881F3100189B20CF00BF8294BBC
:100A2000204619880CF006F8184B93F84522264BFF
:100A30004AB10A211B682046594381F3100189B24B
:100A40000BF0F8FF64E61968204601F30F0189B244
:100A50000BF0F0FF5CE600221C490B68985C2368F1
:100A60005D1C256018700B681344987A23685D1C20
:100A7000256018700B681344187D236801325D1CD3
:100A80000A2A25601870E8D142E600BF80370020AE
:100A9000983D00201C000020D42E0020FC400020A7
:100AA000E8150020004100204C1C0020444100209B
:100AB0003E050020F82E00207A4100204C21002025
:100AC00048210020DE150020F413002050310020C2
:100AD000B440002001200B685A1C0A601870608125
:100AE00040B205B0BDE8F08F0C27B84AB84E02F10D
:100AF000500192F86135043207FB036393F8380024
:100B000023685D1C25601870236892F85E055D1CE3
:100B100025601870236892F85F055D1C25601870C9
:100B2000236892F860055D1C914225601870E0D141
:100B3000EEE5A64B03F15A01226893F8B605551C61
:100B400025601070226893F8B105551C256010705F
:100B5000226893F8B205551C25601070226893F83E
:100B6000B305551C25601070226893F8B405551C18
:100B700025601070226893F8B5050633551C99421C
:100B800025601070D8D1C3E501264FF00C0B914FB2
:100B9000DFF83C8207F1120908F1300A002597F8C6
:100BA00030309D4204DB002E3FF4B2AD0026F5E765
:100BB000002215F809100BFB02F313F80A00884213
:100BC00001F0648101321F2AF5D10135E7E7216880
:100BD00013F801EB01F1010CC4F800C081F800E04A
:100BE000991A8842F3DCF0E701232268511C216046
:100BF00013700133092BF8D18AE50025764E36F8BB
:100C00001510204601350BF015FF042DF7D17FE5B7
:100C1000724B204619680BF0F9FE714B204619689B
:100C20000BF0F4FE6F4B204619680BF0EFFE6FE5FA
:100C3000664B204699680BF0E9FE69E5634B226834
:100C400093F83812501C20601170226893F83C12FF
:100C5000501C20601170226893F83B12501C2060D9
:100C60001170226893F83D12501C2060117093F8A7
:100C70003F222368591C21601A7049E5534D2046D4
:100C8000B5F840120BF0D6FEB5F8421220460BF034
:100C9000D1FE236895F84422591C21601A70B5F8DA
:100CA000461220460BF0C6FE32E5484B93F8B322BD
:100CB0000B68591C21601A702AE5444D0B6895F8A1
:100CC0005C22591C21601A70B5F86E1220460BF098
:100CD000B1FEB5F86A1220460BF0ACFEB5F86C1206
:100CE00020460BF0A7FE236895F86522591C216069
:100CF0001A70B5F8781220460BF09CFEB5F87A12FF
:100D000020460BF097FE236895F87022591C21604D
:100D10001A70236895F87222591C21601A70B5F870
:100D2000761220460BF086FE236895F85F22591C48
:100D300021601A70D5F8601220460BF067FE236818
:100D400095F86422591C21601A70236895F8732263
:100D5000591C21601A70DBE41C4D0B6895F8B62213
:100D6000591C21601A70236895F8B722591C21601C
:100D70001A70B5F8B81220460BF05CFE236895F89F
:100D8000BA22591C21601A70B5F8BC1220460BF02B
:100D900051FE236895F8BE22591C21601A70B7E4F1
:100DA0000A4B93F867220B68591C21601A70AFE454
:100DB0000023064D5A1992F8541222680133501C30
:100DC000082B20601170F5D1A2E400BF803700200D
:100DD000FC9301083C0500207A310020E8F7FF1F52
:100DE000ECF7FF1FF0F7FF1FB14D0B6895F8B3222A
:100DF000591C21601A70A96820460BF007FE236871
:100E000095F85C22591C21601A70B5F8E41120464F
:100E10000BF010FEB5F8E81120460BF00BFEB5F80C
:100E2000EC1120460BF006FEB5F8401220460BF000
:100E300001FEB5F8421220460BF0FCFD68E40025E7
:100E40009B4EAB19D3F82C13204604350BF0DEFD76
:100E5000E02DF6D15CE4964D0023062728460021BC
:100E600007FB03F6226802F1010EC4F800E01370DC
:100E7000226802F1010EC4F800E011708A192A44B8
:100E800092F84CE42268013102F1010C0629C4F801
:100E900000C082F800E0E5D10133062BDFD100224B
:100EA00021684D1C25600B7021684D1C25600A705F
:100EB000811891F87054216801324E1C0B2A26606B
:100EC0000D70EDD123685A1C226007221A70236826
:100ED0005A1C226000221A70236890F87C24591C46
:100EE00021601A7014E40AF00BF800280CBF0222EB
:100EF000032223686F4D591C21601A7029882046EF
:100F00000BF084FDE96820460BF080FD09F0D8FF66
:100F1000014620460BF07AFDFFF7FABB01200B6873
:100F20005A1C0A601870624B226893F80D16151847
:100F300025601170226893F80B1615182560117042
:100F400093F80C26236819182160FFF7D5BB0025FC
:100F50000B6820465A1C0A601D700B685A1C0A60F8
:100F60001D700B685A1C0A6029461D700BF04EFD5F
:100F7000294620460BF04AFDFFF7CABB0B685A1CF6
:100F80000A6000221A70FFF7C3BB00234A4D226893
:100F9000595D0133501C0B2B20601170F7D1204696
:100FA00000210BF033FD002120460BF02FFDFFF751
:100FB000AFBB3F4D2046B5F8E8100BF03BFDB5F850
:100FC000EA1020460BF036FDB5F8EC1020460BF089
:100FD00031FDFFF79DBB364B226893F84C12501C35
:100FE00020601170226893F84D12501C206011701F
:100FF000226893F84E12501C20601170B3F8EE1066
:1010000020460BF017FDFFF783BB294B226893F8AE
:10101000FC11501C20601170226893F81812501CAB
:101020002060117093F80E222368591C21601A70F9
:10103000FFF76EBB1E4D0B6895F8FF2162B35A1C7B
:101040000A6008221A700B685A1C0A6001221A7082
:10105000236895F8D520591C21601A70236895F8EB
:10106000D420591C21601A70B5F8D21020460BF01C
:10107000E1FC1249D5F8D80015F0E2F815F046FE6B
:1010800081B220460BF0D6FC236895F80322591C48
:1010900021601A70FFF73CBB95F8FE21591C2160B6
:1010A0001A70236895F8F821591C2160CFE700BF1A
:1010B0008037002070020020E6B301080000C8421B
:1010C0009E4E0B6896F801229D4D591C21601A70A6
:1010D0002B682046198C0BF0ADFC2B682046598CF0
:1010E0000BF0A8FCB6F8041220460BF0A3FCB6F8EF
:1010F000061220460BF09EFC2B682046998C0BF0C4
:1011000099FC2B682046D98C0BF094FCB6F8081299
:1011100020460BF08FFCB6F80A1220460BF08AFC32
:10112000FFF7F6BA864D002120460BF083FC002124
:1011300020460BF07FFC2B682046598D0BF07AFC83
:1011400023685A1C226000221A702B6893F8311011
:101150002368581C206019702B6893F83C10236892
:10116000581C206019702B6893F83D102368581C98
:10117000206019702368591C21601A702368591C5B
:1011800021601A702368591C21601A702B686D4900
:10119000586C15F055F815F0B9FD81B220460BF0EA
:1011A00049FC2B686749186C15F04AF815F0AEFD3C
:1011B00081B220460BF03EFC2B6893F83320236865
:1011C000591C21601A702B6893F834202368591C2D
:1011D00021601A70FFF79CBA002A3FF499AA5A4B73
:1011E0001360FFF795BA9DF80F3009FB03831B7B53
:1011F000C3B19DF80F3009FB03831B6993B19DF8C0
:101200000F304A2109FB038318692B7846F8230025
:101210000DF0C4FF2B7856F823000EF028F82B7839
:1012200001332B709DF80F300133DBB28DF80F3096
:10123000FEF7C4BF2268511C21601370FFF768BA23
:101240004728A6EB030648D128460BF0B9FB052E2C
:1012500007463FD928460BF0C9FB0026054694E80F
:101260000C009B1A103B394AAB42A846B8BF9DB24E
:10127000D3683946DB1B9D42204688BF9DB291460C
:101280000BF0C4FB3EB9294620460BF0D3FB236884
:101290005A1C22601E70D9F80C307A199A42D4F880
:1012A00000A088BFDD1B08F0CFFB2A465146384618
:1012B00009F01EFF236803442360002E3FF428AA90
:1012C000002280457FF724AA23680130591C216041
:1012D0001A70F6E701268025C1E75B2800F0E78356
:1012E00000F21981352800F0A48200F2A28029289A
:1012F00000F0A5842CD8232800F07F8206D80B2884
:1013000000F0AD854FF0FF30FFF7E9BB252800F076
:101310008B842728F6D128460BF068FB074EC6F8C9
:10132000E40128460BF062FBC6F8E80128460BF002
:101330005DFBC6F8EC01FFF7EBB900BF803700207A
:1013400050310020000020410955010870020020A2
:101350002F2800F056855ED82B2800F088842D2891
:10136000D0D15A1C2A601B78D04F284687F85C32AF
:101370000BF03CFBA7F86E0228460BF037FBA7F8F2
:101380006A0228460BF032FB2B68A7F86C025A1C45
:101390002A601B78082E87F865327FF6B9A928469F
:1013A0000BF024FBA7F8780228460BF01FFB0C2E4D
:1013B000A7F87A027FF6ACA92B6828465A1C2A6047
:1013C0001A4612F8021B87F870122A605B7887F8B9
:1013D00072320BF00BFB102EA7F876027FF698A95D
:1013E0002B6828465A1C2A601B7887F85F320BF05E
:1013F000E7FA2B68C7F860025A1C2A601A78162E82
:1014000087F864227FF684A99A1C2A605B7887F8A3
:101410007332FFF77DB9312800F00C8533287FF453
:1014200071AF5A1C2A601A78A04B83F86722FFF725
:101430006FB9432800F07E843FD83C283FF468A968
:1014400027D8372800F0A58439287FF45BAF1946E8
:101450005A1C2A6011F8020B944A042E82F83802B2
:101460002960597882F83C1203F1030129609978C8
:1014700082F83B1203F104012960D97882F83D1209
:101480007FF646A9591D29601B7982F83F32FFF784
:101490003FB93E2800F0888141287FF433AF002314
:1014A00082482A68511C296011781A180133082BC8
:1014B00082F85412F5D1FFF72BB94C2800F0DF83E6
:1014C0000AD8482800F0A5834A287FF41BAF284695
:1014D0000BF08CFAFFF71CB94E2800F0F48351286A
:1014E0007FF410AF724A92F83220012A3FF610A919
:1014F00019465A1C2A6011F8020B6C4A82F80D0634
:101500002960597882F80B16D91C29609B7882F8DB
:101510000C36FFF7FDB8D22800F01A817ED8CA2811
:1015200000F0508152D85F2800F0FB8247D85D2838
:101530007FF4E8AE5A1C2A601B785E4FDFF86C819E
:101540002846D7F8009088F801320BF04FFAA9F836
:1015500020002846D7F800900BF048FA052EA9F88D
:10156000220023D928460BF041FAA8F804022846A5
:101570000BF03CFAA8F806022846D7F800900BF0CA
:1015800035FAA9F824002846D7F800900BF02EFA77
:101590000D2EA9F8260009D928460BF027FAA8F83D
:1015A000080228460BF022FAA8F80A020EF0A6FE5E
:1015B00007F094F9386812F029FBFFF7A9B8612801
:1015C00000F00883C8283FF4A3A89BE6CE2800F0CB
:1015D000148310D8CC2800F05981CD287FF492AE26
:1015E000354B1B7859073FF593A84FF4C872334B1E
:1015F0001A80FFF78DB8CF2800F09181D0287FF4B2
:1016000081AE2D4B1B7858073FF582A80FF054FA96
:101610000EF016F80DF074FEFFF77AB8DB2800F034
:101620002D826BD8D62800F0CC8149D8D32800F081
:10163000A980D4287FF466AE0F2E7FF463AE5A1CC7
:101640002A601E78072E3FF65DAE28460BF0CEF9D5
:101650000E22164B02FB0636A6F8720128460BF046
:10166000C5F9A6F8740128460BF0C0F92B68A6F856
:1016700076015A1C2A601A4612F8021B284686F880
:1016800078112A605A7886F87921DA1C2A609A78CB
:1016900086F87A211A1D2A60DB7886F87B310BF0F8
:1016A0008FF9C6F87C01FFF733B800BF8037002000
:1016B0003C05002050310020784100206C130020B0
:1016C000D92800F0C981DA287FF41CAE5A1C2A60A0
:1016D0001A46C24E12F8021B284686F84C122A609F
:1016E0005A7886F84D22DA1C2A609B7886F84E32AA
:1016F0000BF07CF9A6F8EE00FFF70AB8EF2846D009
:1017000015D8DC2800F0C081DD287FF4FBAD5A1C21
:101710002A601A4612F8020B2A60DA1C59782A60ED
:101720009A780CF08FF900287EF4F2AFEAE5F228FF
:1017300000F06081FA287FF4E5ADA94B1B785B07C8
:101740003FF5E0AD0DF07CFF0DF0DAFDFEF7E0BFF8
:101750005A1C2A60187806060BD4A14B1B785D072B
:101760003EF5D6AF022828BF00200EF0A9FDFEF7F7
:10177000CFBF00F07F00032828BF00200EF082FDBD
:10178000FEF7C6BF28460BF031F9FEF7C1BF284669
:101790000BF02CF9914EA6F8220228460BF026F900
:1017A000A6F82002FEF7B4BF5A1C2A601A468B49DD
:1017B00012F8020B81F8B2022A605B7881F8B1322C
:1017C000FEF7A6BF874B1868431E00F109062A687A
:1017D000511C2960114611F8027B03F8017F296032
:1017E0005178B342997202F10301296092781A7517
:1017F000EDD10CF087FEFEF78BBF5A1C2A601A78D9
:10180000132A3FF67FAD00204FF00C0C991C296085
:1018100075495F7801F1300E0CFB00F60EEB0608FF
:1018200098F80880B84500F06A8301301F28F3D18A
:1018300068E55A1C2A6019780E293FF663AD9A1C98
:101840002A605A78032A3FF65DAD0626634806FBF8
:10185000010181F8B625DA1C2A609A7881F8B12551
:101860001A1D2A60DA7881F8B2255A1D2A601A7981
:1018700081F8B3259A192A605A7981F8B425DA1DBE
:101880002A609B7981F8B535FEF742BF092E7FF6B5
:1018900039AD56485A1C07682A601A4612F8021BCE
:1018A000804639702A605B78791DBB700023022B5B
:1018B00014BF4FF0640E4FF0FF0E28680133421C36
:1018C0002A6002787245A8BF7246032B01F8012BEB
:1018D000EDD1831C2B604378642B28BF64233B72BB
:1018E000C31C2B608378FB70031D2B60C3782846D4
:1018F0003B710BF07BF80A2E78810CD02B68D8F85E
:101900000020591C296019780B2E51721FBF991C99
:1019100029605B78537013F0A9FEFEF7F9BE2846E4
:101920000BF064F82D4EA6F86A0228460BF05EF81C
:10193000A6F8CC0028460BF059F8A6F8CE002846A9
:101940000BF054F8A6F8D00028460BF04FF8A6F894
:10195000B80228460BF055F828460BF052F82846F6
:101960000BF04FF82B6828465A1C2A601A4612F8CA
:10197000021B86F845122A605B7886F867320BF006
:1019800040F828460BF032F82B6800EB80005A1C18
:101990004000A6F80C022A601A4612F8021B86F8CC
:1019A00038122A605A7886F83C22DA1C2A609A7823
:1019B00086F83B221A1D2A60DB7886F83D32FEF756
:1019C000A7BE00260A4F28460BF010F827F816008D
:1019D0000136082EF7D1FEF79BBE00BF80370020EE
:1019E0007841002050310020FC930108CC150020E4
:1019F000D82E00205A1C2A601A780F2A3FF682AC93
:101A0000991C2960C2485978C2EBC202024482F88C
:101A10000211D91C2960997882F80311191D2960D7
:101A2000D97882F80411591D2960197982F80511B5
:101A3000991D2960597982F80611D91D2960997973
:101A400082F8071103F108012960DB7982F8083177
:101A50000CF016FDFEF75CBE28460AF0C7FFAC4E40
:101A6000A6F8E80028460AF0C1FFA6F8EA002846D2
:101A70000AF0BCFFA6F8EC00FEF74ABEA54B1868BA
:101A80000EF0E6FCFEF744BE19465A1C2A6011F817
:101A9000020B9F4A82F8FC012960597882F81812DB
:101AA000D91C29609B7882F80E32FEF731BE5A1C91
:101AB0002A601A46964F12F8021B284687F8FE1134
:101AC0002A605A7887F8F821DA1C2A609A7887F811
:101AD000D5201A1D2A60DB78042BA8BF042387F8C1
:101AE000D4300AF083FF072EA7F8D20009D9284680
:101AF0000AF07CFF14F050FB874914F0A1FBC7F8F3
:101B0000D8002B686A689A4207D05A1C2A601B7852
:101B1000003318BF012387F803320EF0EFFBFEF706
:101B2000F7BD28460AF062FF7A4F28460AF05EFFAA
:101B30002846D7F800800AF059FFA8F82A0028465E
:101B40000AF05FFF2B683A68591C2960194611F8A2
:101B5000020B82F8310029605978284682F83C103F
:101B6000D91C29609B7882F83D300AF04AFF28464C
:101B70000AF047FF28460AF044FF2846D7F80080BD
:101B80000AF034FF14F008FB644914F059FBC8F85C
:101B900044002846D7F800800AF028FF14F0FCFA29
:101BA0005E4914F04DFB112EC8F840003B460CD99D
:101BB0002A683868511C2960114611F8026B80F8B8
:101BC00033602960527880F8342018680CF09AFC51
:101BD000FEF79EBD19465A1C2A6011F8020B4C4AAA
:101BE00082F819022960597882F82412D91C2960D8
:101BF0009B7882F80F32FEF78BBD494B1B785A0752
:101C00003EF586AD474A137843F004031370FEF7A0
:101C10007FBD09F09BFA0023434A1370434A1370B7
:101C2000434A1360FEF774BD0023394E2846B36063
:101C30000AF0C6FEB3681843B060FEF769BD2846D7
:101C40000AF0D4FE324EA6F8400228460AF0CEFE34
:101C50002B68A6F842025A1C2A601B78284686F890
:101C600044320AF0C3FEA6F84602FEF751BD5A1CE4
:101C70002A601A78264B83F8B322FEF749BD5A1C16
:101C80002A601A46224E12F8021B284686F8B6121F
:101C90002A605B7886F8B7320AF0A8FE2B68A6F8AF
:101CA000B8025A1C2A601B78284686F8BA320AF015
:101CB0009DFE2B68A6F8BC025A1C2A601B7886F889
:101CC000BE32FEF725BD5A1C2A601E78112E3FF643
:101CD00019AB9A1C2A605A7806F59E730C4E28465A
:101CE00006EB430632710AF081FE40F6CA039842C1
:101CF000A8BF184640F2EE239842B8BF18461923F1
:101D0000A0F2EE2090FBF3F07071FEF701BD00BF72
:101D100080370020503100200AD7233CCDCCCC3D69
:101D20007841002084410020203000202130002014
:101D3000243000205A1C2A60824E1B78284686F8E0
:101D4000B3320023B3600AF03BFEB36818432B683C
:101D5000B0605A1C2A601B78284686F85C320AF06C
:101D600045FEC6F8E40128460AF040FEC6F8E80140
:101D700028460AF03BFEC6F8EC0128460AF036FE7B
:101D8000A6F8400228460AF031FEA6F84202FEF705
:101D9000BFBC0722B6FBF2F2C2EBC203F61A7FF415
:101DA000B1AA5FFA82F8F3B298453EF4B1AC2A6862
:101DB0000136531C2B6092F9007038460BF094FFEB
:101DC000814600283FF49EAA877028460AF00EFE3E
:101DD0002A68A9F800001146531C2B6011F8023B39
:101DE00089F803302960537889F80430D31C2B60BC
:101DF000937889F80630131D2B60D37889F8053065
:101E0000D1E7504E06F1400728460AF0EFFD2B6857
:101E1000A6F80C045A1C2A601A4612F8021B043653
:101E200086F80A142A605B7886F80B34B742EBD147
:101E3000FEF76EBC5A1C2A601F78372F3FF662AA45
:101E4000052E7FF45FAA28460AF0BAFD3D4B03EB4E
:101E50008703C3F82C030BF01DFEFEF759BC0021CD
:101E60001122394817F01DFA102E4FF0000328BF39
:101E700010263449B342BEF44BAC2A68501C28608B
:101E800010785A1882F818060133F3E743445A6B66
:101E90001046019213F01CFC002E7EF496AE019ABF
:101EA0001346FEF79DBE034493F8382023685E1C5A
:101EB00026601A70FEF7A4BB23682046591C2160D7
:101EC0001A70B5F8D8120AF0B5FD236895F8DB2230
:101ED000591C21601A70236895F8DC22591C216076
:101EE0001A70236895F8DE22591C21601A70236845
:101EF00095F8DD22591C21601A70FEF7F2B902F53F
:101F0000AC7031440F4A91F8301002EB80025170EE
:101F1000D91C2960997800209170191D2960D97801
:101F2000D170591D29601B791371084B1A68084B31
:101F30001A6011F0A0FB074B80F001001870FEF74B
:101F4000E7BB00BF80370020983D002050310020C3
:101F5000A8130020100000202DE9F04F0A4B0B4C75
:101F60000B4A2360002310680A49A1B088426360CD
:101F700016D1136062B6084B186806F09BFC074B3D
:101F80001B689847FEE700BFC3C600087405002021
:101F9000F04F0020EFBEADDE00F0FF1F04F0FF1F8A
:101FA0000A930B930C934FF4E013BD4D0D932B68E4
:101FB00043F480332B60AB6943F01003AB612B68B3
:101FC00003F400330B930A9B01330A930B9B1BB959
:101FD0000A9BB3F5A06FF2D12B6813F4003300F025
:101FE000868202230C93AF4BAF4F1A6842F0100267
:101FF0001A601A6822F003021A601A6842F002029C
:102000001A606B686B606B686B606B6843F480632D
:102010006B60A64B1A68043B22F070425A60A44AD7
:102020003A606A6822F47C126A605A6842F00042A0
:102030005A60DA6822F40042DA609B68180449BFEB
:102040009C4B4FF4E0133B604FF480130D930C9BBB
:10205000012B00F06482022B05D10D9B6A681343AB
:1020600043F480336B602B6843F080732B602B68E4
:102070009901FCD56B6823F003036B606B6843F038
:1020800002036B606B6803F00C03082BFAD16B68DA
:10209000DFF85C8203F00C03042B00F04482082B71
:1020A00000F04382824BC8F800306B68DFF844923E
:1020B000C3F3031319F80320D8F80030DFF838B25F
:1020C000D340C8F800307C4B4FF6FF72CBF80C3091
:1020D000AB690DF1800A43F00103AB616B6A774E87
:1020E000A3606B6A304643F080736B62AB6943F068
:1020F0001C03AB614FF000032AF82C2D51468DF8DC
:10210000563009F0E4F951466D4809F0E0F95146BE
:102110006C4809F0DCF910228DF8462002228DF877
:1021200047204FF4007220A921F83C2D304632613F
:1021300009F0CDF9644950464A6842F000724A609D
:1021400006F09DFA159B614A3046B3FBF2F34FF45B
:102150007A72E360D8F800304E46B3FBF2F35C4A83
:10216000013B5360F0238BF8233000239360072357
:102170004FF001081360DFF884C1564A09F10E01DF
:10218000002331F802EF4EFA03F919F0010F18BFDE
:1021900008FA03F903F101031EBF1060A2F80490CE
:1021A0000832102BEFD100F580606045E8D13B6824
:1021B0003F4A934240F0CB810122474B1A700AF00C
:1021C000BDFA18B90EF078FC0DF03AFA0DF098F857
:1021D0000021DFF82C91414F99F8003097F8F92150
:1021E00043F0010389F800303D4B08461A703D4A20
:1021F000BB68029213600DF049F8002101200DF038
:1022000045F8029A97F81333CDF81090BB464FF07B
:10221000010817464FF00509DFF8E8A023740BEB1F
:10222000080393F80F03002800F097810CF092FF49
:10223000CAF8000080F8069080F807801221DAF8CA
:1022400000000CF0ABFF08F10108B8F1040F0AF12F
:10225000040AE4D1002108460DF018F800210120FD
:102260000DF014F8AB69402243F00103AB6100218B
:102270001D4817F016F84FF0FF331C4A2366C2F8CA
:1022800003303B681B073FD59BF85C32012B3BD8E2
:10229000A5689BF8653215F0805501F04C8733E056
:1022A00000100240002002401400002004100140F1
:1022B00000127A00001BB7000005FA050008014073
:1022C000000C0140001001400000014040420F009E
:1022D00010E000E0383000203C050020803700206E
:1022E00078310020D424002094050020D40500205B
:1022F0006C020020A095010800ED00E000140140F0
:102300007E4200208805002064200EF030FDA022CF
:102310000021B44816F0C5FF0025DFF83C83DFF844
:102320003C93002355F8080059F83320D900904217
:1023300040F040817318187F103511F09DF8E02DA2
:10234000EFD10425A84BA94ADFF814931A600021A5
:102350003022A7483E6889F8005016F0A2FF0023FB
:102360004FF0FF0C18462946DFF8F8E2A04D06F0C2
:1023700040081EF9012F03EB050A5A55B8F1000F6A
:1023800009D11E3AD2B2012A9FBF012001F1FF31CB
:102390008AF800C0C9B20C33302BEAD108B189F8F1
:1023A0000010944A944BC4F80C2116F48052059204
:1023B0009BF8B3A2914A83F800A0039314BF13685B
:1023C000D4F81031DFF8A0829B888D48A8F800303F
:1023D0008C4B1568D3F810118B4A0C88029304803B
:1023E00048888A490880698811802988884A11802C
:1023F000884A1468B4F81890C9F5FA6013F0CCFE56
:10240000854AE48AED881060A4EB0900401B13F0B4
:10241000C3FE824A1060C4F5FA60401B13F0BCFE94
:102420007F4A80491060804A029B11607F4A1D46A6
:1024300032407F49002A40F0C3807E4B03EBCA0341
:102440005B780B60002340F2DC517B4A22F81310CA
:102450000133082BFAD1BBF8D0300293059B13B19E
:10246000BBF8EC3002939BF8D430042B05D14FF429
:1024700080500CF03DFF002302930026039B6F4C1D
:102480001A782670A2F11703022B00F2EF804FF0AA
:10249000000AD5F80C215146905902EB060914F0B8
:1024A00063F8002800F08E803B68DF0400F1FF80B5
:1024B0000023B8F90010624A22F8131001330C2BE4
:1024C000FAD12378F02200215E48069316F0E9FE47
:1024D0009BF8D4209BF8D5105B4B042A00F20C81AA
:1024E000DFE812F0B3010A0117011B011F012A687E
:1024F00042F001022A600A932B6803F002030B9357
:102500000A9B01330A930B9B1BB90A9BB3F5A06F7F
:10251000F2D12B689E0701D5012363E5FEE76B68C6
:1025200043F460139EE53B68BDE56B686A68C3F3DE
:102530008343D20303F1020302D4444A5343B2E576
:102540006A6812F4003F3A6818BF5208F6E7404A3A
:1025500093427FF434AE02222FE6CAF8000072E6FE
:10256000002108460CF092FE0021A06E0CF084FEC3
:1025700078200EF0F1FB012100200CF087FE0121F4
:10258000A06E0CF079FE78200EF0E6FB01359BF88A
:1025900065329D42E4DB9BF86632012B7FF4B4AEDA
:1025A000A36813F080537FF4AFAE8BF865320DF063
:1025B0009BFEA9E60133042B7FF4B6AE0020BBE6F8
:1025C00001233EE7234B06EB030E99E80F008EE84C
:1025D0000F00237810360133C02E23707FF459AFDB
:1025E00062E700BFE0050020B43D0020583A00201B
:1025F000B83D00208C370020291100204810002011
:102600008E0F002074050020541000208C0F002035
:102610004C100020441000205C10002050100020BE
:102620005810002082380020D429002020001000FB
:1026300024110020A4A301083E050020AC40002086
:10264000D82E0020F82E00204029002000093D004F
:10265000001BB7006410002090B10108B895010874
:102660002C290020D79501081E300020AF4B13F80D
:10267000321003EBC2030C29217088BF0C21D3F860
:1026800004C088BF2170BCF1000F3FF40DAF0026DD
:10269000DFF8F89223789E42BFF606AF330103EBD2
:1026A000090E63440FCB01368EE80F00F2E7237862
:1026B000012B7FF6FDAE4FF07C569D4F07EB0313C9
:1026C00003F110091037B9453FF4F2AE314657F81F
:1026D0000C0C13F0B5FD314647F80C0C57F8100CF4
:1026E00013F0AEFD314647F8100C57F8080C13F004
:1026F000A7FD47F8080CE5E708278E4A1A608E4ABE
:1027000000298E4B12BF4FF001084FF0000813460E
:102710000FE08B4A18271A60F1E78A4A48271A60A7
:10272000EDE7894A18271A60002302934FF0010849
:10273000824B864C0026A246854A1360854B7B431C
:102740000593069BB34240F3B2800BEB060393F86C
:10275000DC301846079310F011FF079B81460028D4
:1027600079D17D4A7D4B1A60744A794B1A607C4C52
:102770002368002B40F0AE80039B1B7803F0EF0230
:10278000082A784A40F0C9801178182B41F01001CE
:10279000117001D10BF074FE2368734C002B40F0D4
:1027A000F980724ADFF8E8911368029213F001078A
:1027B00040F02C819E0440F179819BF81D3309F58E
:1027C000047689F8E032E31993F815231046059250
:1027D00010F0D4FE804690B34FF000034FF0010A92
:1027E000059A06F80E3C06F8063CFBB206F80F3CCC
:1027F00046F8040C06F810AC104603930CF0AAFC43
:10280000039B80F806A05344C3712A210CF0C6FC38
:10281000002298F80510D8F800000CF0B1FA5246E2
:10282000002140460EF0A8F9514B321D3360514B48
:102830003146736000234046B3600EF0F1F9013772
:10284000082F06F11C06BED130E14B4A01271A6061
:10285000002302936AE718460CF07CFC4FF0030259
:1028600020618271721CC2711A210CF097FCFAB2BD
:10287000B8F1000F1FD0BBF8D2300599B1FBF3F3CC
:1028800002999BB20091494620460CF0EDFA0023D4
:102890001422B34214D1002383F0010323720123D5
:1028A0001E440C2E237304F114047FF44AAF01225A
:1028B000324B1A705BE7CDF800804FF6FF73E2E70A
:1028C00002FB03A148686168884201D00133E0E758
:1028D0000123E1E7039B2A491A782A4B13F83200B7
:1028E00003EBC2035E680870002E3FF445AF00237F
:1028F000254F8342BFF640AFC3EBC3017218D2F835
:1029000000C001EB070E41F807C091880133AEF813
:10291000041092798EF80620EBE70E2B3FF434AFCB
:102920001178192B21F01001117032E7A4A30108CE
:1029300068100020CDE8000803E80008C5E700089B
:10294000A1E800086DE80008D9E70008F82E00208B
:10295000B040002040420F0001E80008402900205C
:10296000241100208441002080370020D42400203E
:10297000BDED000831E60008C7E700083E29002049
:10298000622900207CA40108632900206410002033
:102990007405002000264FF0040A1A4F04F1F309D1
:1029A00019F8018FB8F1000F3FF4FBAE40460CF070
:1029B000D1FB0136F6B23861029080F806A0C671EC
:1029C000404610F0DBFD8046029B1A2118460CF0B1
:1029D000E5FBB8F1000F3FF4E4AEB4F8F2300A4A78
:1029E000384692FBF3F3B4F8F0209BB200924146D4
:1029F00001220CF039FA0123082E3B7307F114076A
:102A0000CED1CEE68806002040420F000026FF23EC
:102A10009BF8148385F8B4614046C5F8B861C5F8E1
:102A2000BC61C5F8C061C5F8F46185F8F83185F876
:102A3000F93185F8FA6185F8FB6185F8FC6110F0E1
:102A40009DFD9BF8D4A0074680B30268CF49731858
:102A5000187B18B15B689A4200F0C8821436F02ED9
:102A6000F5D10026C5F80C7285F8006240460CF0DE
:102A700071FB0222C67182712A210CF08FFB324653
:102A8000797938680CF07CF90122314638460EF02D
:102A900073F8BF4BBF4AC5F81032BF4BC5F8186278
:102AA000C5F81432111F38460EF0BAF8049B049A88
:102AB0001B789BF8260343F0040313700CF04AFBC9
:102AC0009BF82723C9F8E402003218BF012289F8D5
:102AD000E82258B1242282710022C2719BF8283367
:102AE00093420CBF122116210CF058FB002010F06D
:102AF0006FFB22200CF02EFB012727230646837153
:102B0000C77112210CF04AFB3046A44E00210CF094
:102B1000B3FB307E10F0B0FC337E03F01F025B0984
:102B2000022B07FA02F700F07282032B00F0748286
:102B3000707D0CF00FFB4FF00208122380F8078025
:102B400083710746F07D0CF005FB4FF0130980F808
:102B5000078080F80690B07D0CF0FCFA14231B214E
:102B6000837180F8078038460CF018FBF07D0CF07C
:102B7000F1FA07210CF012FBB07D0CF0EBFA1B21EF
:102B80000CF00CFB307D40B10CF0E4FA1F2280F811
:102B90000780827149460CF001FB3369804A9342F9
:102BA00040F03F8202F56042D16841F48051D1602B
:102BB000D16821F48051D160327F002A00F04D822B
:102BC00000221046198801F4415141F445710A432D
:102BD00002431A809A8B307D22F400621204120C98
:102BE0009A8307221A821A8892B242F040021A800F
:102BF00018B10CF0AFFA0CF03AFB6A4E3378032BA5
:102C000000F02E82012008F0D9FC1F200AF0F3FF0B
:102C10002C200CF09FFA9F238DF844300023C5F838
:102C2000EC02804632208DF845308DF846308DF824
:102C300047300EF09CF8D5F8EC020CF013FB0422A0
:102C400011A915A810F0ACFCD5F8EC020CF00FFBA4
:102C50009DF856309DF855201B0243EA02439DF82B
:102C600057201343504A93421BD032200EF07FF876
:102C7000D5F8EC020CF0F6FAF52010F0C9FCFF20B4
:102C800010F0C6FC8DF85400D5F8EC020CF0EFFA09
:102C90009DF85430702B04D13378022B01D10323DB
:102CA0003370029B414D1B680021C3F3400284F83E
:102CB0001E23C3F3C02284F8222303F0020903F485
:102CC000006603F400471422C3F3C033284684F897
:102CD000203316F0E6FA2846B9F1000F02D094F836
:102CE0001F332B7017B194F82133C37394F8243336
:102CF00013B194F82533837216B194F823334371DA
:102D000000232A4D4FF007092F461E469A46DFF84A
:102D1000ACB00BF13C023878F0B102920CF01AFA28
:102D2000002180F8069080F807A00CF037FA002305
:102D30003878029A12F813E05900864540F09F81D6
:102D40000BEB010393F83D307B7007233B710123AC
:102D5000711CBE70FB70CEB209F101095FFA89F9EE
:102D6000B9F10B0F07F10507D5D1002B00F0D78083
:102D70000F4F49207B6843F440437B6010F07CFB9D
:102D80000C4A0D49384600231AE000BFF82E0020F7
:102D900059E60008880700208DE70008440300205A
:102DA000003001403C0500201520200018130020B1
:102DB000001002408002002008000240A095010897
:102DC0004FF01C0C96460F460CFB0329D9F80490D3
:102DD000894540F05A81DBB21C2101FB03E34269C3
:102DE00019694FF000090A434261062283F81990DD
:102DF0001A76B74805F0BFFC15A805F091FCB54B55
:102E0000022E1593B44B15A9169334BF4B4680235D
:102E10001A934FF480731B934FF480631C93202309
:102E20001D934FF40053AA4818961E93CDF85C905A
:102E3000CDF86490CDF87C9005F07FFC012E94BF16
:102E4000002201223B68A54943F001033B604B6827
:102E5000072723F4702323F4807343EA02234B6093
:102E60008A689F4BDFF8A4E2134043F4602343F0E9
:102E700002038B60CA6A731E22F47002DBB242EA5C
:102E80000353CB621F260123EA784AB395F80190D9
:102E9000581CB9F1090FC0B295F804A040F2FB80AC
:102EA000A9F10A02D1F80CB002EB420C07FA0CF2BD
:102EB0002BEA020B0AFA0CF242EA0B02CA60062B5A
:102EC00000F2F68003F1FF3C4A6B0CEB8C0C06FA27
:102ED0000CF322EA030309FA0CF21A434A6303468D
:102EE0000535AE45D0D17D4B9A6842F480729A6028
:102EF0009A6842F001029A609A6842F008029A6069
:102F00009A681507FCD49A6842F004029A60734BE1
:102F10009A685007FCD49A6842F4A0029A60D4F8E8
:102F2000E401002841F08B81D4F8E831002B41F016
:102F30008681D4F8EC31002B41F08181694D6A4BD8
:102F40006A4F5822002128463B6016F0AAF9684BC8
:102F50002320EB620DF00BFF0DF1270201217520FC
:102F600007F038FF002800F0E080624B0EAA2B63C8
:102F7000614B01216B634323002085F8443007F047
:102F800029FF9DF8383003F07E038DF83830002893
:102F900040F0E0819DF8273003F07E03682B8DF828
:102FA000273040F0FA810223062185F8273015AA40
:102FB0002B6B084698479DF859309DF857209B0089
:102FC000520002F0020203F0040313439DF855205F
:102FD00002F001021343DAB2002B00F0D181012A82
:102FE00040F0C281002385F82830E7E00AF1FF3382
:102FF000032B3FF636ADDFE803F00208060808228F
:103000003E4B1A702DE54822FAE71822F8E73C4BB0
:10301000DA681743DF608BE5394B1A6917431F6184
:1030200086E5384A93420AD102F5EC32116941F43F
:1030300080411161116921F480411161BCE5324A7E
:1030400093427FF4B9AD02F5EA32116941F40041CF
:103050001161116921F40041EFE701220220B1E57D
:1030600002200AF041FE18B10388002B7FF4D0AD96
:1030700002200AF0C0FD012008F0A0FAC8E50133E3
:103080000A2B7FF457AE00235EE60133072B7FF453
:103090009BAE0023A0E60A6909EB490B07FA0BFC7B
:1030A00022EA0C0C0AFA0BF242EA0C020A6106E769
:1030B0000C2B2DD8DA1FD1F830C002EB820206FAB1
:1030C00002F32CEA030309FA02F21A430A6306E741
:1030D000080002404C2401402C1300200024014031
:1030E000FDF7F1FF4C1C00207C390020B01C0020B3
:1030F000F0950108D5AD000849AD0008000000209A
:103100000010024000380040003C00402C1300201A
:103110000D3BCA6A03EB830306FA03FC22EA0C02A6
:1031200009FA03F31343CB62D9E6A54E96F8F032C1
:10313000FBB91C2288F8073088F806201321404686
:10314000C6F8F4820CF02AF89E4A138823F0400354
:103150001B041B0C1380138823F038031B041B0C67
:10316000138013889BB243F040031380012386F839
:10317000F03215AA0121752007F096FC9DF8543015
:10318000702B0CD004D8122B00F0E280002307E053
:10319000712B00F0DB80AF2BF8D1082300E0052372
:1031A00086F8F83296F8F83243B185F82730432391
:1031B00085F84430844B2B63844B6B63002385F884
:1031C000263095F82730824E042B40F0D387814A71
:1031D0002A60814A063B6A60804ADBB2EA60804A24
:1031E000032BAA6196BF7F4A07239B184FF0010269
:1031F00098BF93F8513085F82620002B01F01680F7
:10320000794A7A4811684370073B042B41F0010169
:103210001160904684BF00223B68814688BFDA7106
:103220003B6893F803A0BAF1000F03D0BAF1070F7F
:1032300040F0BE809878DB79002B00F0B480022348
:103240006B4F85F82330431E85F8243012F0A4FF1D
:10325000394612F0F5FF13F0F5F9DFF8A8B12B6845
:10326000A86485F822A063489847634F05F036FBB1
:10327000402200215846D5F848A016F012F80FCF8A
:103280000BF1140EAEE80F0097E8030037F8193C75
:103290008EE80300ABF812309BF812205F464FF027
:1032A000010E42F2022C41F6FD5B454B94F81912D7
:1032B00093F8F8020E290B4628BF00230EFA03F1FB
:1032C00011EA0C0F40F0A88011EA0B0F00F0A48067
:1032D000042A40F09F87494B3B60494B082A7B609A
:1032E0004FF001037B7400F09E87092A66D0062AFE
:1032F0000CBF0A23082389F80230D8F8003041486F
:1033000043F00203C8F800304FF480733B813B6800
:1033100098474FF47A73FB623B4B1A889946002A10
:1033200000F080804FF00008DFF8E8A0B9F8000056
:1033300012F02EFFFA6A01460AEB080008F11C0899
:1033400009F09CFDB8F1540FF0D16BE0062327E79C
:10335000092325E7682B7FF41DAE012385F827306C
:103360001D2385F8443029E7022A01D101233AE6DA
:1033700003F00303032BF9D003200DF002FD1DE73A
:103380002B6B11AA01210C2098479DF8443013F0B3
:103390000F03F1D0042BE9D124E6702B04BF0423E2
:1033A00085F827300AE70123184F85F823304AE7CC
:1033B0000023174F85F82330012044E70C239AE7B8
:1033C0007405002000380040A9AA0008D9AA000806
:1033D0008037002001AB0008FFA90008EBA9000816
:1033E00090C1793DA0950108FC400020000000201C
:1033F0000000FC414C1C00207C1C0020C9A90008D6
:1034000047AA0008004100203E3200200000FA4296
:1034100000007A4440320020012B4FF000013FF6BB
:1034200049AF79740022B94B9A6194F8FC21002AC3
:1034300040F0618194F8182202B17A7496F80E2255
:1034400002B11A720121B24A084613784FF00A08F5
:1034500043F0020313700BF019FF002108460BF034
:1034600015FF01200BF068FE00200BF065FE19200F
:103470000DF07DFCD4F81036D90302D401200FF0F2
:10348000A7FE19200DF073FC00200FF0A1FEB8F18B
:103490000108E6D1414640460BF0F8FE41460120C6
:1034A0000BF0F4FE94F8F831A86C9A4D58439A4BFF
:1034B0009A4F186012F06CFE994912F0C1FE994BB8
:1034C0001860286810F0A2FB28680BF01BF8964BD8
:1034D000964D587A12F060FE954912F0B1FE95496A
:1034E00012F0A6FD09F0C7FB934B186010F080FCAA
:1034F0001E22FF21384615F0D4FE012229688F4B89
:1035000011F4800F1A7001BF02221A701B227A7008
:103510008B4A87F8008038461768904617F0020FEC
:103520000ED001274FF0020E1A788754D719FFB238
:1035300000F807E0D71C1F7005277244D2B28754E9
:10354000CA0504D51A78571C1F701A27875494F897
:10355000B342082C01D00E2C04D11A78571C1F70CE
:103560000B2787544FF00C0E1A7811F4803F02F1AC
:10357000010700F802E0FFB218BF02321F701EBF41
:103580001A700E22C2550A0304D51A78571C1F70F0
:10359000192787544FF01D0E1A7811F4805F02F13D
:1035A000010700F802E0FFB218BF02321F701EBF11
:1035B0001A701C22C2558A0604D51A78571C1F702F
:1035C000072787544F0704D51A78571C1F701027F8
:1035D00087544FF0120E1A78490502F10107FFB225
:1035E0001F7000F802E006D596F8FC1219B10232FD
:1035F0001A701322C255182C0BD1162117271A78CE
:103600008154511CC9B24754D11C0232D2B2197034
:1036100084544FF4197200214A4815F042FE07F015
:10362000A9F8494B494AB6F8EE101360484A494F89
:1036300011800022484CDFF840E1A76003977746ED
:10364000464947480A808A704649DFF830B10B6026
:10365000454B46491A70464BDFF824C11960B6F84D
:103660006A32606019B20290DBF800002EF8121086
:1036700000F596704CF822000132122AF4D1286825
:10368000C20458BFB6F97812F9803A4901F1500ED8
:1036900091F86125BAB991F863C591F8642594450C
:1036A00011D2BCF1000F29D00CF1FF3C0CEB8C0CBB
:1036B0000CEB8C0C0CF5617291F862C592B20CF1B6
:1036C000040C27F81C2004318E45E1D1020740F19B
:1036D000CD8096F85C720A2F00F2C180DFE817F007
:1036E00052005200C60207032C034C034C03D603BE
:1036F000BF00FB03520085F826209BE6013202EB57
:10370000820202EB820202F56172D5E74441002099
:103710007E420020503100202C3E00204E0500202B
:10372000BD378635142A002060410020D4240020B3
:1037300035FA8E3CDB0FC93F804100206C0500202C
:10374000FC40002040260020D439002048130020EF
:1037500046130020D9A00008FC2400201C260020CD
:10376000DDA00008E8250020F8120020A086010056
:10377000DC24002080370020EC25002018260020C3
:10378000B0120020C34B40201C600AF0EDFA8146C5
:10379000002864D04FF0000ABF4F87F800A00AF05D
:1037A0004BF896F85C12834601290BD0C0F04C828E
:1037B0000A2915D12B6813F480631CBF80F0010324
:1037C000DBB23B700321B54B19700721B44B197064
:1037D0000121B44B19700C23237042F6F823638047
:1037E000B14B6360B14BA36099F90200BBF1000FCC
:1037F00040F038823B78002B0CBF012303233A783A
:10380000002A40F0318296F85E22002A0CBF002286
:1038100008220192009340214FF4E133A44A0AF0B8
:1038200019FAA44BA4491860BBF1000F01D0C1F8EC
:10383000FC0296F8673294F800E0013BDBB29F4A45
:103840009E4513709CBF0023137020B13B7813B1C9
:10385000012381F80033003018BF012030B908205F
:103860000BF046FD029B6360039BA36042F20103E1
:103870002A681A4209D044F620636380930440F119
:103880005683082323708E4B636000278D4B8A4C30
:10389000DFF85892D003C9F80030C4F8043384F834
:1038A000087340F1EB800AF0F5F8012384F808333F
:1038B000D9F8003040F26A5293F851B1394604F217
:1038C000093015F0EEFCBBF1000F00F0CA8058463D
:1038D0000FF054FE03688246C4F874388368002BE6
:1038E00000F0BF8058460BF035FC2822C77182716A
:1038F0001B21C4F878080BF051FC734AD4F8740803
:103900009346394602F1180757F831304FEAC10E95
:10391000984240F013837244107F0FF0ADFD6B4B63
:103920006B4A1B680027B3FBF2F31D22013B20A961
:1039300021F8483DD4F87408ADF83E70ADF83A70FF
:103940008DF84070ADF83C204FF001090FF0D0FD2C
:10395000602311A9D4F87408ADF84870ADF84A7026
:10396000ADF84C70ADF84E70ADF85070ADF85270C7
:10397000ADF84430ADF8469004F02CFED4F874183D
:10398000544A0B8B23F008031B041B0C43F0080361
:103990000B83B1F844306FEA43436FEA53439BB261
:1039A000A1F844301C219AF80C004B4B01FB00306D
:1039B000516903691943516128214776017651699C
:1039C0000B435361454B47618360437B15A88DF8DA
:1039D00054308DF856708DF855908DF857900FF043
:1039E00069FDDAF80800C4F87C0804F0C4FE15A8E4
:1039F00004F096FED4F874389AF805203433134452
:103A00001593374B15A916931023179340F26A5359
:103A1000189380231A934FF480731B934FF4005331
:103A2000D4F87C0819971C971D971F971E9304F0D4
:103A300084FE9AF80530D4F874280C2B98BF0BEB51
:103A4000430B938998BFBBF856709BB21F43978175
:103A5000D4F87C28136843F002031360012384F830
:103A600080380023FF211F461E481F52C21804330E
:103A7000E02B9170D170F8D111F0A6F92B6859059F
:103A800073D5D4F86429184B04201A600AF06CF935
:103A900004212DE0A4250020A9250020A325002035
:103AA000A8250020CF230020599C000875A30008FA
:103AB00095A40008E025002074050020A225002020
:103AC000F1A00008AC3A0020A09501086C0200208B
:103AD00000366E01001002408002002089B100080B
:103AE0007D080020F60D0020F0130020E0280020C3
:103AF000C4F868090AF00CF9D4F86429C24B84F8B8
:103B00006C0908201A600AF02FF9C04B08211860D0
:103B10000AF0FEF8BE4F002184F86D092C223846C9
:103B200015F0BFFB7C233B708E237B70E023FB7082
:103B30007D23D4F8642987F82B30B64B20201A60F7
:103B40000AF012F92021C4F870090AF0E1F884F8AB
:103B5000740910200AF008F91021C4F878090AF055
:103B6000D7F884F87C0909F071FEAB4FB7F80090E4
:103B7000B9F1000F40F0078296F80F06002800F018
:103B800002820BF0E7FA1A2280F807908271132163
:103B9000C4F880090BF002FBD4F880090BF067FB36
:103BA00000BF9E4A3220138823F040031B041B0CE5
:103BB0001380138823F038031B041B0C1380138815
:103BC0009BB243F0400313809F238DF845908DF8FE
:103BD00044308DF846908DF847900DF0C8F88DF878
:103BE000559000BFD4F880090BF03CFB042211A9CA
:103BF00015A80FF0D5FCD4F880090BF038FB00BFF6
:103C00009DF856309DF855201B0243EA02439DF86B
:103C100057201343824A934200F07D8200F394813F
:103C2000804A934200F099810132934200F09E81D4
:103C3000A2F51A42033A934200F0688200233B80C7
:103C40007B80BB60FB609EE1022077490723087000
:103C50000320764923700870754945F2F05381F8C6
:103C600000A0BCE50323CAE50822D2E50A221B0115
:103C700093FBF2F300226F49A3F5B06341F82230C1
:103C80000132122AFAD142F6F82363806A4B4020AF
:103C900063606A4B2270A3600AF066F8074600284A
:103CA0003FF4DDAD09F0C8FD96F85D3296F85E127E
:103CB00000280CBF01220322002B0CBF0623072380
:103CC00000290CBF0021082197F902E007460B43A9
:103CD0008DE80C005A4B5B4A4021704609F0BAFF50
:103CE000002F3FF4B8AD584BC3F8FC02B3E51023E6
:103CF000237042F6F8236380544B40206360544B9A
:103D0000A3600AF031F8074600283FF4A8AD09F097
:103D100093FD96F85E2200280CBF01230323002A9E
:103D20000CBF0022082297F902E001920093074697
:103D30004FF4E133474ACFE70823237042F6F823D4
:103D40006380454B40206360444BA3600AF00CF84D
:103D5000074600283FF483AD09F06EFD00220028DD
:103D60000CBF0123032397F902E001920093074659
:103D70004FF4E1333A4AAFE700234FF00C0E3948D5
:103D800039493A4A062FDFF8FCC084F800E0037096
:103D90000B7013702CD01B2305224FF4E13B8CF8E1
:103DA0000030334B83F800E0324B1A7042F6F823B0
:103DB0006380314B40206360304BA36009F0D4FF37
:103DC000074600283FF44BAD09F036FD96F85E2219
:103DD00000280CBF01230323002A0CBF0022082265
:103DE00097F902E00192009307465B46244A73E785
:103DF00021238CF800301E4BDFF88CB083F800E0F4
:103E00001C4B1F70D2E700BF301400204C14002060
:103E100000140020C415002070020020003800406B
:103E20001620C20017BA2000A3250020A8250020D4
:103E3000CF23002000240020819C00089D9C0008C6
:103E4000A0860100E1A4000874050020BD9B0008C5
:103E5000D19B0008D1A20008359B00084D9B0008AB
:103E600089A2000828230020712500207025002049
:103E70004D2300207225002031810008819A00081E
:103E8000B1A100082923002090D003000E23237045
:103E900044F620636380BC4B40206360BB4BA3604F
:103EA00009F062FF074600283FF4D9AC09F0C4FCD2
:103EB00096F85E2200280CBF01230323002A0CBFC2
:103EC0000022082297F902E00192009307464FF47E
:103ED000E133AF4A00E70A221B0193FBF2F3002211
:103EE000AC49A3F5B06341F822300132102AFAD16F
:103EF00042F6F8236380A84B40206360A74B2270F2
:103F0000A36009F031FF00283FF4A9AC96F85E32B7
:103F100090F90200002B0CBF002308230193032318
:103F20009F4A009340219F4B09F094FE93E4D707EA
:103F30007FF5ABAC0C2323709B4BA5E40131042926
:103F40007FF4E2AC0020E8E4984A934200F0E58078
:103F500005DC023A93427FF471AE8023D7E0944AA5
:103F60009342FAD0013293427FF468AE4FF48073EB
:103F70003B807B80BB883A881B02BB605343FB605D
:103F8000012384F88439FF68C7B14FF0000AFF0AA3
:103F90000DF1540BBA450CDA0AEB07094FEA69092F
:103FA000102259464FEAC92007F0A2F80F2800F363
:103FB000B78005F049FD7F4BFF021F602B687E4AEA
:103FC00013F4002318BF0123137096F8B332052BA6
:103FD00002BF4FF4C872794B1A8004F06EFC784A25
:103FE000137843F008031370764A137823F0020322
:103FF000137040F602022B681A420ED0724A734BBD
:104000001A600322724B1A700023724A1370724AAC
:104010001370724A1380724A13800127B36800211B
:104020002B60704B30221F706F4B70481F7015F063
:1040300038F900236E4E6F4A30461360C4F8883951
:1040400004F0DCFE6C4B39469B6C3846642B38BF61
:104050006423736404F00AFFD8F800309A0709D586
:104060003946022004F002FF644BDB6A642B38BF40
:104070006423B367D8F800100320C1F34001604FF8
:1040800004F0F4FE0121052004F0F0FEB7F8F82258
:104090005C4B072093FBF2F3642B38BF642340F69C
:1040A0000202C6F814312B681A4214BF0121002104
:1040B00004F0DCFE0121042004F0D8FE94F8001383
:1040C000062004F0D3FE0121082004F0CFFE296869
:1040D0000920C1F3802104F0C9FE29684B0508D5E9
:1040E00097F85C32083B012B9CBF4FF4FA63C6F88B
:1040F000E431C1F300410A2004F0B8FE424A1378CB
:1041000063F07F03137021B0BDE8F08F20233B8064
:104110004FF480732DE74023F9E74FF40073F6E77F
:1041200000235BF82320013240F085800133042B0B
:10413000F7D14F462EE7013B092B3EF6E5A80121BA
:1041400008460BF0A3F813200BF004F82622C571E3
:1041500082711221A0660BF021F80121A06E0BF0F4
:104160008BF83C200CF003FE294601200BF08EF862
:10417000FEF70DBA254A92F8F8229A4256D1002B42
:1041800054D0234AFFF724B801A1000811A1000868
:104190008DA50008642400201D9E00084D9E000887
:1041A00035A50008A0680600E1A000081920C2009B
:1041B0001740EF00243000206E0500206C13002013
:1041C0008441002078410020B8390020442100209B
:1041D0005821002059210020402100208231002058
:1041E00084310020281100203C3200206021002072
:1041F0001C0000205C2100204C1C002000410020FD
:104200008037002040420F007E42002074050020CD
:10421000D1AC000882427FF4FFA8002A3FF4FCA83A
:104220004C4BFFF759B80B23FFF765B801200CF092
:10423000A8FDFFF707B909F1010AB94679E700229D
:10424000454B00B21A7011F0A7FF444911F0F8FF76
:104250000746B4F9E80111F09FFF404911F0F0FF63
:104260000646B4F9EC0111F097FF3C4911F0E8FF64
:104270003B490546384611F0DBFE08F0FCFC029095
:10428000384608F0F8FC36490746304611F0D0FEB3
:1042900008F0F1FC8146304608F0EDFC3049064656
:1042A000284611F0C5FE08F0E6FC8346284608F0D3
:1042B000E2FC02998246584611F0C2FF029903902F
:1042C000504611F0BDFF59460490384611F0B8FF32
:1042D00051460590384611F0B3FF494606905846BE
:1042E00011F0AEFF1F4D5146286009F1004011F05A
:1042F000A7FF05996860AE60304611F0A1FF0499F0
:1043000011F096FE0699E860304611F099FF0146DB
:10431000039811F08BFE4946286107F1004011F027
:104320008FFF03996861304611F08AFF01460698B5
:1043300011F07CFE0499A861304611F081FF0599C7
:1043400011F076FE0299E861484611F079FF286283
:10435000FEF7F4BDD1A900081800002035FA8E3C04
:10436000DB0FC93F042100202DE9F04F904AA5B092
:1043700013780690012B904607D18E498E4A096822
:10438000496A11808D49098851808D4C94F800A0AC
:10439000BAF1000F00F02E83072B02D10CF094FC31
:1043A0000890884B1A68994612F4806F04D08648AA
:1043B00083680BB185499847854B864E1B78C3B1FE
:1043C000854BB3F90620B6F86C329A4211DC96F8A8
:1043D000B332012B01D0192B02D196F8FC2042B93F
:1043E0000E2B06D0082B04D000227C4B9A80002391
:1043F000E36096F836526DB3794B1B889F0729D03E
:10440000784B79491F6A384612F0C2F8002840F00C
:10441000C580384612F0F2FC216911F011FF12F04C
:1044200075FCB0F5617FA8BF4FF4617011F0B4FE68
:104430006E4911F005FF08F01EFC0746284611F0F2
:10444000ABFE394611F0FCFE12F060FC634BDA88DB
:104450001044D880664B96F871721B780237FFB211
:10446000002B53D0634A4FF07E51D2F8F45044F6FB
:1044700020629542A8BF1546B5F57A7FB8BF4FF4C4
:104480007A755D4AADB2D2F800B0A582DBF838206B
:1044900007931046059212F08FF8079B002835D03D
:1044A0004FF47A71B5FBF1F5642191FBF5F5142D0C
:1044B000A8BF1425D9F80010A06911F4805F4749FE
:1044C00018BFBBF836E000F1010CB1F9061004EB9F
:1044D000400014BF4FEA5E0EBBF936E065458183AC
:1044E000D8BF0020C4F818C0D8BFA061A069059A41
:1044F00004EB4000808B091A09B20029B8BF494279
:104500007145D8BF4FF07E523C490A6096F8702240
:10451000002A45D1324A1288002A46D10025284B6C
:10452000A3F84650324B1B78002B40F0AD80344B43
:104530001878002840F05182224D2B681A0340F170
:104540004C82304C2378033B052B16D8214B1C4E54
:1045500093F80D36002B00F00F82012B00F0108233
:10456000F26F96F880301344B3F5807FA8BF4FF404
:1045700080738342D4BFF367F0672378023B092B33
:1045800000F21C82DFE813F001020D02B5021A02EC
:104590001A02F8020B03A705C405D405002055E74D
:1045A000022A33D0032A00F0E880174A528831E00B
:1045B00078310020902100207A310020E815002079
:1045C000000F0020D42400204C1C0020E213002007
:1045D0001000002080370020EC250020E41300208C
:1045E000BC320020D84000208FC2753CD06D393AD3
:1045F000AE1300201C0000205031002008000020D5
:104600001C3000206E050020FC240020A28A02F548
:104610007A7292B2002B00F0CB80724B196898F836
:104620000030B2FBF1F1481C00B2092BA4F84400A1
:1046300006D16D4D6D4B2E886D881E805D80DA80B1
:1046400000236B4DB4F94680DFF89C9105F1080E0C
:10465000BB42C0F29A80674BA3F84610654AB2F994
:10466000460000287FF75AAF00231D461946DFF8A1
:1046700078E1B2F9446002F1500C4832BB42C0F21A
:104680009D8000293FF44EAF5B4B00261B78DFF87E
:104690009491002B18BF0225584BD3F80080584B3B
:1046A0001B780A9308F105030793AE4240F3BC80E0
:1046B000544B93F8730200285BD0534B1B689D004A
:1046C00057D5524B1B88590653D44A4D504E95F836
:1046D0007030834211D085F8700011F05DFD4D49B6
:1046E00011F0AEFD4C49074611F0A2FC08F0C3FAE8
:1046F0007060384608F0BFFA6867D6F804806568CD
:104700004146284611F09CFDE768666F81463146B8
:10471000384611F095FD0146484611F087FC3F49A7
:10472000814611F035FF08B9DFF8F0903C49484662
:1047300011F038FF08B9DFF8E89041463846C4F870
:10474000049011F07DFD31460746284611F078FDB2
:104750000146384611F06CFC3049054611F018FF4F
:1047600000B92E4D2E49284611F01CFF00B92C4DE2
:10477000E5600022204B1A70D9E696F87222C2EB4F
:10478000421102EB8102D20043E735F9132039F9D7
:1047900013C008FB02F292FBF0F23EF813602EF811
:1047A00013C0ACEB0606324425F8132001334FE763
:1047B000B4F84630013BA4F846304FE732F9131005
:1047C0003CF81350414391FBF6F1022BA5EB01019C
:1047D0001D46B8BF02252EF81310EDB20133514625
:1047E0004CE700BF2C3E0020E41300207A3100206B
:1047F000480F0020000F0020AE130020CC15002031
:10480000783100208037002044290020BC3200206D
:104810000800002035FA8E3CDB0FC93F00C0F94488
:1048200000C0F9C40AD7233C022E15BF98F8000037
:1048300098F8010098F802B098F809B011F0ACFCB3
:10484000494611F0FDFC4FF08041074611F0B4FEDF
:1048500060B14FF08041384611F0E8FBB24911F0E9
:10486000EFFC0146384611F0E3FB07467300059361
:10487000AE4B33F9160011F08FFCAD4911F0E0FC9E
:1048800020F00043AB4A0593059B42F826000C320A
:10489000824642F82630BBF1000F20D0584611F076
:1048A0007BFC494611F0CCFC83465146504611F042
:1048B000C7FC059911F0C4FC594611F0C1FC5946DA
:1048C0000C904FF07E5011F0B1FB0C9A014610464F
:1048D00011F0AEFB0146504611F0B2FC82469649FB
:1048E000384611F0ADFC514611F0AAFC079B074673
:1048F00013F8010B079300B311F04EFC494611F079
:104900009FFC059911F09CFC8C49824611F054FEE5
:1049100068BB0021504611F031FE50BB51464FF0AC
:104920007E5011F083FB01464FF07E5011F03CFDAC
:104930000146384611F084FC07460A9B0C2B05D132
:10494000384611F059FE7E4B720098527D49384628
:1049500011F01EFE00B97B4F7B49384611F022FE54
:1049600000B9794F794BB200D75001369DE64946E0
:10497000DAE74FF07E51D7E7B06F0AF0DAF9EFE5EA
:1049800006F0AEFAC0F17F00EAE50022704BDA676C
:10499000C3F884206F4A1268C3F888200323237069
:1049A0000CE06C4B6A4E1A68D6F888306433934238
:1049B00004D2402010F022FB002874D010F04AFBF3
:1049C0000646002800F0348401232370604B93F8DE
:1049D000A12012B1002283F8A1205F4B1B78072B86
:1049E00005D10CF071F9089BC01A554B9880002234
:1049F000574B1A70584C2378072B02D10CF064F9EE
:104A00000B90DFF86891D9F810504F46002D32D145
:104A1000D9F804304846984768B389F82550B9F862
:104A20001C30DFF84C811BB2C8F80030B9F81E30DA
:104A300099F826101BB2C8F80430B9F82030404667
:104A40001BB2C8F8083004F043F8444B1E88444BAE
:104A50001B68002E40F03E849B79002B00F0B3844D
:104A6000EFF31283F02282F312883E4ADBB2C9F8D8
:104A7000102083F31188384D2A78072A05D10CF0CD
:104A800023F90B9BC01A2E4B1880314B93F8F02062
:104A90001C460592002A00F07185013A83F8F02047
:104AA00025B0BDE8F08FDFF8CC804027C146D6F8AE
:104AB000843018F8030068B110F066FBF36F013F13
:104AC00003F1FF33F367D6F8843003F10103C6F82E
:104AD0008430ECD1D6F8843019F80330002B7FF401
:104AE0006DAFC6F884304FF0FF33C6F8883004232A
:104AF00055E71D4A5021A2F10C0301932523029290
:104B000000934920A2F10A03163A04F093FD00280D
:104B10007FF454AF4FF0FF320D4BC3F88400C3F85D
:104B2000882007233BE700BFD7A36841E413002098
:104B30006F12033B580F002000004843A4707D3FD4
:104B40007A31002000C0F94400C0F9C4040F0020ED
:104B5000000F002018260020783100204A1C002079
:104B6000B01C0020F98B0008869601084C1C002020
:104B70002821002010960108052300210093AA4B4C
:104B800002910191A3F10802532004F053FD002883
:104B90007FF414AFA54BC3F884000823FFE6402040
:104BA00010F02CFA00287FF409AF7023A0489F4E24
:104BB00090F86015D6F8847003FB010292F8C824BF
:104BC000492F01F29F83DFE817F04A004F005D0094
:104BD000630066006C007000740078007E00820044
:104BE0008E0098009C00A500A900AD00B100BA009D
:104BF000C300CC00D500DE00E700F000F90006019C
:104C000010011A01240185018F019901A301AD0151
:104C1000B301BD01C301C901CF01D501DB01E10130
:104C2000E701ED01F301F901FF0105020B02110299
:104C300017021D022102250229022D02310237022C
:104C40003D0249024D025102550259025D026102C4
:104C5000650269026D02710275027F028302754965
:104C6000754810F06CFB07E0744B754A009375496A
:104C7000754B764810F063FBD6F884300133C6F8E4
:104C800084309BE6724A7349734810F058FBF3E78F
:104C900072497348E5E790F80C2690F80B167148B6
:104CA000F3E7B0F8CC107048DBE7B0F8CE106F48EF
:104CB000D7E74FF07E516E48D3E7B6F88C20B6F8B0
:104CC0008E106C48E1E76C4B6C481989C9E7D6F83F
:104CD0009030DB0403D590F838126948C1E70C2303
:104CE000C6F88430C8E790F83B3290F83D2290F83F
:104CF0003C12644810F023FBBEE7B6F894106248FB
:104D0000AFE72B681F05B7D5B0F94022B0F94212C2
:104D10005E48BAE75E4B5F48996CA2E790F8FE11D7
:104D20005D489EE790F8F8115C489AE759430C23D8
:104D300003FB0211014491F8CA14594891E7594301
:104D40000C2303FB0211014491F8CC14554888E769
:104D500059430C2303FB0211014491F8CB14524830
:104D60007FE759430C2303FB0211014491F8D3144C
:104D70004E4876E759430C2303FB0211014491F896
:104D8000CD144B486DE759430C2303FB021101443A
:104D900091F8CE14474864E759430C2303FB0211F2
:104DA000014491F8D21444485BE759430C2303FBB8
:104DB00002110144B1F8D414404852E759430C237E
:104DC00003FB0211014491F8D13491F8D0243C48FE
:104DD00091F8CF148EE703FB01013A4891F894341F
:104DE00091F88A2491F8801484E703FB0101364886
:104DF00091F8953491F88B2491F881147AE703FBAC
:104E00000101324891F8963491F88C2491F882147B
:104E100070E703FB01012E4891F8973491F88D2437
:104E200091F8831466E700BF34980108000F002052
:104E30008037002009B5010815B5010857B50108EC
:104E400026B501082CB501086AD0010837B501085C
:104E5000F2B30108E6B301085CB50108983D0020F3
:104E600070B501087EB501088FB501089EB501082F
:104E7000ADB50108BDB5010800410020CFB501085E
:104E8000D9B50108E6B50108FFB501080AB6010861
:104E90004C1C00201DB6010829B601083CB60108CB
:104EA00051B601085BB6010865B6010872B6010883
:104EB0007FB6010889B6010894B60108A1B60108B9
:104EC000B3B60108C2B60108D3B60108E5B60108B9
:104ED000F5B6010803FB0101A44891F8983491F854
:104EE0008E2491F8841405E703FB0101A04891F892
:104EF000993491F88F2491F88514FBE603FB0101A6
:104F00009C4891F89A3491F8902491F88614F1E62F
:104F100003FB0101984891F89B3491F8912491F892
:104F20008714E7E603FB0101944891F8881498E69A
:104F300003FB0101924891F89D3491F8932491F874
:104F40008914D7E603FB01018E4891F89E1488E688
:104F500003FB01018C48B1F8A01482E603FB0101B8
:104F60008A48B1F8A2147CE603FB01018848B1F835
:104F7000A41476E603FB01018648B1F8A61470E696
:104F800003FB0101844891F8A8146AE603FB0101C0
:104F90008248B1F8AA1464E603FB0101804891F845
:104FA000B0145EE603FB01017E4891F8B11458E6A7
:104FB00003FB01017C4891F8B21452E603FB0101A6
:104FC0007A48B1F8B6144CE603FB01017848D1F8F1
:104FD000B81446E603FB0101764891F8BC1440E69C
:104FE00003FB0101744891F8BD143AE603FB01018B
:104FF0007248D1F8C01434E603FB01017048D1F8BF
:10500000C4142EE690F84C126E482AE690F84D1221
:105010006D4826E690F8FF116C4822E690F80012E1
:105020006B481EE690F801126A481AE6B0F80822AA
:10503000B0F80412684828E6B0F80A22B0F8061260
:10504000664822E6B0F8160211F0A6F8644911F09D
:10505000F7F811F0D1FA0146624802E690F8191209
:105060006148FEE590F824126048FAE590F80F12C6
:105070005F48F6E590F8B0125E48F2E590F87012DD
:105080005D48EEE590F872125C48EAE5B0F87612F9
:105090005B48E6E590F85C125A48E2E590F8D510D6
:1050A0005948DEE590F8D4105848DAE5B0F8D21047
:1050B0005748D6E54A49D0F8D80011F0C1F811F0A8
:1050C0009BFA01465348CCE590F8F9115248C8E5DF
:1050D00081685248C5E5524B1B68990115D5514E60
:1050E000B6F898308BB9D6F89C3018A91893069B5F
:1050F0000E20199304F002F84FF48053A6F896306E
:105100000A232370069804F047F803F0D7FF55E40C
:10511000444B93F8A020002AF4D0414A126892012F
:10512000F0D493F8A130002BECD109232370ECE7E5
:105130003D4B3C4E1A68D6F88830C83393420FD2A4
:105140003A4B93F80D764FB9B06F08F06FFD96F8B3
:10515000A230B767022B01D105F00CFB01231EE43E
:1051600011F0C8FB0028EBD128E400BF05B7010807
:1051700015B7010826B7010837B7010849B7010874
:1051800039B7010853B7010868B7010878B70108B3
:1051900086B7010898B70108AEB70108C9B701087A
:1051A000D8B70108EFB7010808B801081CB8010812
:1051B00036B801084BB8010861B8010878B8010891
:1051C0008DB80108A3B801089FB80108AFB801085D
:1051D000BBB80108CDB80108E0B80108F4B801086F
:1051E0000000C8420CB901081AB901082AB901081F
:1051F0003BB901084BB9010864B9010878B9010845
:1052000095B90108B2B90108C7B90108DCB90108AC
:10521000F1B9010803BA010818BA010826BA010851
:1052200044290020000F002018260020803700208D
:10523000A94991F80E36002B3FF4CFAB2B68DF0461
:105240004FF000034CBFB1F8EC50B1F8D050A34F71
:1052500037F913200133AA420CBF304646F0010053
:105260000C2BC6B2F4D19E4D9E4BC6B11B6803F504
:105270009C530833C5F8A4302378012B7FF4ADABE1
:1052800095F8A130002B7FF4A8AB91F80D36D3B17F
:1052900004F09EFA012385F8A130FFF79EBB1A683F
:1052A000D5F8A4309342E7D82378012B3FF495AB8F
:1052B00095F8A130002B3FF490AB04F06BFA85F821
:1052C000A160FFF78ABB80200EF038FA00287FF437
:1052D00084ABDDE75B78D9F8482007934FF47A7305
:1052E000B3FBF2F3AB46C3EB431203EB8203DB00E9
:1052F0009BB2059323787C4C0C937C4B04F13C09C6
:10530000B3F90630CDF820800693059B5B080E9319
:10531000059B4FEA850A9E4202BF002349F82530CB
:105320002361089B53F8250059F82530034449F8B8
:10533000253010F031FF226902F10108B8F1010FA8
:10534000C4F8108040F0A180002360602060A3605A
:10535000089B012E1A464FF000034AF802304FF026
:105360000002634B4AF8032040F0E28020690128E4
:1053700040F3AF80013810F00FFF0146E06811F0F4
:1053800013F811F083FF0C9B8046032B05D111F01D
:10539000BDFC4FF0010B03B20693079B002B00F0FE
:1053A000BD80184610F0F8FE414611F0E7F80028DD
:1053B00000F0B480BBF1000F03D04C4BBDF81820B7
:1053C000DA8003F07AFADFF84C914FF0000BCA460E
:1053D000DFF84481474C464B54F82B0053F82B30F0
:1053E0004FEA8B05C01A44F82B0010F0D5FE424B53
:1053F000996910F025FF99F800300146032B06D17A
:10540000059011F083FC394B059923F81B003B4AAA
:105410003B4BA8581B6898479AF800300146082B68
:1054200006D1059011F072FC304B059923F81B0052
:10543000344A354BA8581B689847344A344B0146C8
:105440001B68A85898470BF1010BBBF1030F48F8F4
:10545000040FC0D1002E3FF40EABBD69F86C294695
:1054600010F0A2FF11F052FC29462060386D10F0B8
:105470009BFF11F04BFC29466060786D10F094FFA3
:1054800011F044FCA060FFF7F6BA226810901146B4
:105490000F9210F0CBFD0A90404610F07DFE0146C1
:1054A0000A9810F081FF0F9A114610F0C1FD109B71
:1054B000014680466060184610F0B8FD0A9910F069
:1054C000BFFEA16810F0B4FDC4F80080E060A060E9
:1054D0003EE7002055E700BF80370020D82E00208F
:1054E000000F002018260020A80F00207A3100208D
:1054F00034210020282100204C1C0020081D002001
:10550000A41C002098200020A81C0020F8200020C7
:10551000AC1C002078310020941C00200E9A5AF810
:1055200009301344059A93FBF2F3104A42F80A300B
:105530000135032D04F114047FF4EAAEBBF1000F32
:1055400003D00B4BBDF81820DA80012E08D10022C1
:10555000084B30461B689A621A63DA6208F0DAFE7A
:10556000054A1388013B13802DE700BF342100203A
:105570007A310020902100204A1C0020A54B93F88E
:105580000122002A00F03F8193F8F831013BDBB2A1
:1055900084F8F0302B78072B02D10BF095FB0D909F
:1055A0009D4B4FF07E501B6806939C4B1B680A93E3
:1055B000D4F8F4301946089310F038FD984B196868
:1055C00010F03EFE4FF07E51079010F0E1FF10B951
:1055D0004FF07E53079300254FF0000B914B0B9338
:1055E000914B924F53F8258059464046AC0057F8EE
:1055F000256010F0B9FFD0B9F43757F82590304640
:10560000494610F013FD824620F00041404610F05C
:10561000B5FF58B15946504610F0CEFF002800F0B3
:10562000F4804946404610F003FD06463E51804B4B
:10563000B3F8009019F0030F3DD0022D3BD0069B2C
:1056400093F8340010F0A8FD7A4BE15810F0F8FD03
:10565000069B804693F833A0CAF1000010F09CFD31
:1056600007460146404610F089FF40B9504610F009
:105670008FFD4146074610F08BFF00B94746654B4A
:1056800003EB4503B3F920026B4B33F91530184493
:1056900010F082FD694910F0D3FD0146384610F044
:1056A000C5FC19F0010F074600F0EC80644B196847
:1056B00010F0C6FD06460B9B304653F8049F494642
:1056C0000B9310F0B3FC82465E4B0A98E15810F041
:1056D000B7FD514610F0B4FD022D804606D15A4A5E
:1056E0005A4B01461B68106898478046584B4FF04C
:1056F0007E510898E75810F041FFB0B1554B19683A
:10570000554B186810F09CFD079910F099FD534B0C
:10571000E15810F095FD514610F092FD01463846D3
:1057200010F086FC07464A4BE050022D40F0E48022
:105730003946404610F07CFC494EC6F80C01404604
:1057400010F05AFFC6F81801384610F055FF002334
:10575000C6F82401C6F83031424B1B7813B9424BCE
:1057600044F803B00135032D7FF43AAF3F4C227863
:10577000072A05D10BF0A8FA0D9BC01A3C4B5880A4
:105780002378374D012B40F022810BF09DFA3949E7
:10579000D5F83C31364A0968C31A93805B1A0990E0
:1057A000D380C5F83C011C4B1C68334B1B680B9322
:1057B00013F480530C93314B00F05983304AD5F8E1
:1057C00048111278C988560758BFD5F84421B3F953
:1057D00006305CBFD28AA5F84021D5F84421D68A8C
:1057E000701A834200F31A81B5F84C11108BB5F88A
:1057F0008E800791A5F84031181A10F0CDFCD5F82D
:10580000503107461CE10123C2E64146484610F0EC
:105810000DFC0AE78037002050310020B013002033
:10582000242A0020941C0020182A0020040F0020A5
:10583000BC320020580F00207A410020CDCCCC3D56
:10584000082A0020DC2900209840002094400020F5
:105850005013002008000020142A0020E82900200E
:10586000000F00205C13002004100020783100207D
:105870007A3100202C3E0020D4240020E4130020A4
:1058800078410020554B5946D3F80080404610F02F
:1058900093FE60B3524BD3F864A0D3F8689051469E
:1058A000484610F07FFE00B9D1464146484610F008
:1058B000C7FC4FF07E51804610F07EFEB8B95946C5
:1058C000404610F05BFEA0B941464FF07E5010F00C
:1058D000ADFB8046434B3846196810F0B1FC414699
:1058E00010F0AEFC0146304610F0A2FBE2E6D846CE
:1058F000F0E74FF07E58EDE73B4B1A68069B93F8B4
:105900003C30632B14D8394B0C92E158384B186853
:1059100010F096FC4FF07E51824610F039FE0C9A42
:1059200008B94FF07E5A1046514610F089FC0246E5
:105930001146304610F084FC494610F077FB2D4E9E
:105940008246A15910F072FB2B4B196810F02CFD08
:1059500081462A4B44F806A0E1580A9810F070FCE2
:10596000494610F06DFC264B06461B780B2B04D1E4
:1059700010F042FE234B23F81500234A234B3146F7
:105980001B68A0589847224A224B01461B68A05822
:10599000984781463946404610F04AFB494610F088
:1059A00047FB1D4E3051404610F026FE06F10C0A12
:1059B0004AF80400384610F01FFE06F1180848F8AF
:1059C0000400484610F018FE24363051C4E6072B78
:1059D0007FF4E9AE0BF078F90990E4E6102A002094
:1059E000000F00200C2A0020002A0020640F002055
:1059F000042A002034100020142A0020F42900205A
:105A0000783100207A310020EC3D0020E83D002074
:105A1000343E0020303E00200410002072189342D3
:105A2000C0F21182B5F88C20A5F840319B1B581AA2
:105A3000079210F0B1FB0746B5F85481D5F85831FC
:105A40000893079BDFF840A3A3EB080010F0A4FB2A
:105A50000023D4F82C900D9009F10045069315AE63
:105A6000B04B069A514653F8220010F0E9FB294644
:105A7000834610F083FD002840F00B8249465846CB
:105A800010F086FD00B9CB46069B46F823B00133E3
:105A9000032B0693E4D1A44B1B6843B394F8312045
:105AA0002AB30B9A940722D5A04A1478FCB1D8786F
:105AB00010F06EFB0546204610F06EFB01462846AE
:105AC00010F0BEFB9A4B0446188810F061FB0146AB
:105AD000204610F069FC9749044610F059FD00B9C2
