:020000040800F2
:100000000050002019780108B5780108B9FA0008F5
:10001000B5780108B5780108B5780108000000003E
:10002000000000000000000000000000B57801089A
:10003000B578010800000000B578010873A2000837
:10004000B5780108B5780108B5780108B5780108D8
:10005000B5780108B57801089FA50008A9A5000892
:10006000A7A50008A5A50008A3A50008A16500088C
:1000700091650008816500087165000861650008E8
:100080004D65000839650008B5780108B5780108A4
:10009000B5780108B5780108B5780108A1A5000870
:1000A000B57801083D040108B57801082D04010860
:1000B0001D0401080D040108FD0301088F680008F4
:1000C00095680008856800088B680008B578010805
:1000D000B5780108B1A20008A5A20008B57801080A
:1000E0009DA50008B5780108B5780108000000005A
:1000F0000000000000000000000000000000000000
:0C01000000000000000000005FF808F1A3
:100110002DE9F04F0B4B0C4D0C4AC5F8B8340023B9
:1001200010680B49A1B08842C5F8BC3416D11360E1
:1001300062B6084B186814F0B9F9074B1B6898476A
:10014000FEE700BF6390000844060020F04F002047
:10015000EFBEADDE00F0FF1F04F0FF1F0A930B930C
:100160000C934FF4E013BD4C0D93236843F480339C
:100170002360A36943F01003A361236803F40033F1
:100180000B930A9B01330A930B9B1BB90A9BB3F594
:10019000A06FF2D1236813F4003300F09B82022396
:1001A0000C93AF4BAF4F1A6842F010021A601A68F6
:1001B00022F003021A601A6842F002021A606368B1
:1001C000636063686360636843F480636360A64B45
:1001D0001A68043B22F070425A60A44A3A6062688E
:1001E00022F47C1262605A6842F000425A60DA6877
:1001F00022F40042DA609B681E0449BF9C4B4FF416
:10020000E0133B604FF480130D930C9B012B00F027
:100210007982022B05D10D9B6268134343F480332E
:100220006360236843F08073236023689801FCD5E2
:10023000636823F003036360636843F00203636051
:10024000636803F00C03082BFAD16368DFF870824F
:1002500003F00C03042B00F05982082B00F05882A5
:10026000824BC8F800306368DFF85892C3F3031379
:1002700019F80320D8F80030DFF84CB2D340C8F8A2
:1002800000307C4B4FF6FF72CBF80C30A3690DF1B8
:10029000800A43F00103A361636A636A764E43F008
:1002A00080736362A369304643F01C03A36100239B
:1002B00015932AF82C2D514613F066FE51466F48CF
:1002C00013F062FE51466E4813F05EFE02214FF4B9
:1002D00000728DF846101021ADF844208DF84710BB
:1002E0003046326111A913F04FFE664950464A6804
:1002F00042F000724A6013F0C2FF159B624A30461A
:10030000B3FBF2F34FF47A72C5F8C034D8F800307A
:100310004E46B3FBF2F35D4A013B5360F0238BF88A
:1003200023300023936007234FF001081360DFF8A8
:100330009CC1574A09F10E01002331F802EF4EFA31
:1003400003F919F0010F18BF08FA03F903F10103CB
:100350001EBF1060A2F804900832102BEFD100F5F8
:1003600080606045E8D13B68404A934240F0E281BA
:10037000012385F8C43409F000FB18B90FF006FF1B
:100380000FF0E8FB0FF024FD05224249424819F026
:10039000FDFF18B10FF0FAFE0FF0DCFB95F8C53445
:1003A000DFF82CA143F0010385F8C5343B4B0AF17B
:1003B00005079A783A4B1A703A4A3B4B12689846AE
:1003C0001A6095F8CA2485F8C624002515F80A0095
:1003D0004FEA850B05F10109002800F0B18109F011
:1003E000EBFF47F8250018B1052380F807908371CB
:1003F000122157F80B000AF005F84D46032DE5D100
:10040000002108460AF060F8002101200AF05CF89B
:10041000002102200AF058F8012102200AF054F8C5
:10042000A369002143F00103A36140221F4819F092
:100430006AFF4FF0FF321E4B64201A60C3F803209E
:1004400009F00DFFA02200211A4819F05CFF0024DA
:10045000194D1A4F002360593CE000BF00100240C4
:1004600000200240600400200410014000127A00C5
:10047000001BB7000005FA0500080140000C014010
:10048000001001400000014040420F0010E000E079
:100490009417002040C30108311700202C170020BA
:1004A000621E0020C4190020E43600205C360020C3
:1004B0009C360020A03F0020D8BF010878A4010886
:1004C0003000002060A4010800ED00E000140140AD
:1004D0000B0B002057F83310DA00884240F03381CC
:1004E000B318187F103413F0BBF8E02CB2D1AC4A2B
:1004F000AC4C0021A4469146AB4E00250B5D01F1AA
:100500000F00204406EB030A10F801EFBEF1000FC4
:1005100005D09AF80C70774508BF82F8587090F8AB
:1005200003E0BEF1000F04D0F75C774508BF82F806
:1005300059700135032DE7D1B2F8580040B10CEBEA
:10054000010009EB83035065C3F8D82402F5177244
:100550001C313829D1D10424914F20220021934805
:10056000D8F8005087F8E44419F0CDFE00208E4BF7
:10057000024693F80BE093F80AC04FF0FF092346B8
:1005800003978A498A4F05F04006D4571E2C8C7178
:1005900040F0DF80002E00F0E480BCF1000F00F09E
:1005A000E0800132042A01F10801EED110B1039A72
:1005B00082F8E4347F4B15F4805F93F800A07E4B03
:1005C000DFF8449283F800A07C4F7D4C7D4E00F014
:1005D000CE80B88816F092FE7B4BC9F800002360ED
:1005E000708A16F08BFE794B794C1860788816F07B
:1005F00085FE784B00251860388816F07FFE764B14
:100600001860608BC0F5FA6016F07CFE734B248B8B
:100610001860FB88724AE01A1C44724BA4B280B284
:1006200010801C80A0F57A7016F06CFE6E4B18607E
:10063000C4F5FA6016F066FE6C4B6D4C1860AAF1BA
:100640001703022B257000F2E3804FF0000BDFF858
:10065000BCA105EB0A03594655F80A00049317F0AC
:1006600039F8049B002800F08C80D8F8003013F48F
:10067000805A40F0EE800023D9F800105D4A42F81D
:1006800023100133082BFAD1B6F81480BAF1000F09
:1006900001D0B7F80480B378042B05D14FF4805013
:1006A00008F08AFD4FF000082378C022002152484C
:1006B000069319F028FE3779B378003718BF012761
:1006C000042B00F2EB80DFE813F02906E9002B068B
:1006D000F5002206226842F0010222600A93236894
:1006E00003F002030B930A9B01330A930B9B1BB984
:1006F0000A9BB3F5A06FF2D123689F0701D50123B0
:100700004EE5FEE7636843F4601389E53B68A8E5BE
:1007100063686268C3F38343D10303F1020302D425
:10072000364A53439DE5626812F4003F3A6818BFA9
:100730005208F6E7324A93427FF41DAE022318E6D0
:1007400047F8250059E60133042B7FF4C3AE00209F
:10075000C8E61F2C7FF425AF1EB1BEF1000F7FF459
:1007600020AF013B81F80690DBB2012019E7B08A87
:1007700016F0C4FDC9F80000308A16F0BFFD2060F5
:100780002EE7204A05EB020E0FCB8EE80F002378F0
:1007900010350133802D23707FF45BAF65E700BF18
:1007A0004406002098A4010864230020D0390020CA
:1007B000D0A40108601E0020FC1100202C41002064
:1007C000BC1C0020A41C002000007A443C12002025
:1007D000B8360020381200201812002044120020E1
:1007E000121200203412002030120020401200208B
:1007F000241C0020B0230020D823002000093D0045
:10080000001BB7004812002020250020C01800203F
:10081000244B13F83A2003EBCA0A082A227088BF37
:100820000822DAF804C088BF2270BCF1000F3FF440
:100830001CAF0025DFF878A023789D42BFF615AFE6
:100840002B0103EB0A0E63440FCB01358EE80F003A
:10085000F2E72378012B7FF60EAF4FF07C58124D54
:1008600005EB031303F1100B1035AB453FF403AF59
:10087000414655F80C0C16F099FD414645F80C0C14
:1008800055F8100C16F092FD414645F8100C55F83D
:10089000080C16F08BFD45F8080CE5E7034CA14663
:1008A0000BE000BF60AB01084C1200206F1203394F
:1008B00048120020B94CDFF83893B94AB94B2146A9
:1008C0001A60B94AB94B4846002F18BF1346B84AB8
:1008D0000025136016F062FC01464FF07A5016F0C6
:1008E00019FEB4490590204616F060FDB24CDFF8C1
:1008F00004B30790069BAB4240F3728505EB0B03F4
:100900005E79002130460FF05FFD0490002840F032
:100910000A85AA4AA34B1A60A34AA54B1A60A84CA1
:10092000A84A94F8C534079243F0040384F8C53408
:10093000136813F0010600F076850025FF2294F875
:10094000E574A14B2946384683F840501D605D6030
:100950009D60DD6383F8412083F8422083F8435093
:1009600083F8445083F845500FF02EFD064690B3AF
:10097000036891496A18507C18B15268934200F09C
:1009800047851835C02DF5D10025C4F8F46484F8E6
:10099000E854384609F010FD10B10223C571837187
:1009A00000252A2109F02EFD884A0021304609F051
:1009B0005BFB874B874AC4F8F834874B111F3046DE
:1009C000C4F8FC34C4F8005509F0A2FB2A4671793A
:1009D000306810F08FF9B4F8D67594F8D265A4F8A1
:1009E000D8753046002F40F06C8509F0E5FC94F88E
:1009F000D325C4F8DC05003218BF012284F8E025B5
:100A000050B1242294F8D4358271002BC7710CBFE9
:100A10001221162109F0F6FC002009F029FD4FF003
:100A200000096E4B0020C4F8003605F067FD012078
:100A300005F064FD6A4B6B4803F1200853F8056C20
:100A40006EB313F9092CA11891F8047691F806E613
:100A500091F808C600EB0215991E11F801AFBA45CE
:100A600091F802A008BF2F71F24591F804A008BFC9
:100A700085F805E0E24508BF85F806C08B42ECD159
:100A8000120181180D7955B14D7945B18D7935B186
:100A900086505A7981F80C90CA719A790A7210338B
:100AA0009845CBD14F4D12F0A1FF12F09FFF287E49
:100AB00012F0D6FD01232A7E02F01F015209022AFC
:100AC00003FA01F300F02A85032A00F02D85287D22
:100AD00009F072FC064618B1122383710223C37118
:100AE000687D09F069FC18B1132383710223C37177
:100AF000A87D09F061FC18B1142383710223C3712E
:100B00001B21304609F07EFC687D09F055FC072169
:100B100009F078FCA87D09F04FFC1B2109F072FC5C
:100B20002A69314B9A4240F0058503F56043D96844
:100B300041F48051D960D96821F48051D9602B7F6C
:100B4000002B00F0148500231846118801F4415150
:100B500041F445710B4303431380938B23F40063EB
:100B60001B041B0C93830723138213889BB243F04F
:100B70004003138094F8C434032B40D11F200AF0A3
:100B8000AEFD0023194A02EBC30191F902100229BC
:100B900001F003840133042BF5D12DE0ACC5A73758
:100BA000715D0108D03B0020F15C01089D5D0108EA
:100BB000D43B00206F12833AD8230020F35C010855
:100BC00044060020E4360020583F002040420F0039
:100BD000855B0108400B0020C15C010864230020F4
:100BE000DDA40108CC16002000300140AA39002005
:100BF000ACC5A736A41C002002200AF070FD09F045
:100C000068FD012005F0D4FC2C2009F0D5FB039BE6
:100C1000C3F80C069F238DF84430002332208DF852
:100C200045308DF846308DF8473009F018FB039BAE
:100C3000D3F80C0609F008FC15AA042311A9BC4836
:100C400009F0D4FC039BD3F80C0609F002FC9DF8D4
:100C500056309DF855201B0243EA02439DF8572069
:100C60001343B44A934223D0322009F0F8FA039B8D
:100C7000D3F80C0609F0E8FBF521AD4809F0E4FCD7
:100C8000FF21AB4809F0E0FC039B8DF85400D3F83A
:100C90000C0609F0DEFB9DF85430702B08D1039B45
:100CA00093F8C434022B03D10323039A82F8C4348B
:100CB000A14B5F799E797D1E6A4206F1FF3E6A4133
:100CC000DEF1000343EB0E0384F81436079B84F82F
:100CD00010261D682B0400F14E8415F0007505D018
:100CE000964BDD7AA5F108004542454114220021CA
:100CF000934884F8125619F006FB012F04BF94F8AC
:100D0000113684F818361DB194F8133684F8273656
:100D100094F816361BB194F8173684F82236012E53
:100D200008BF94F81536864D08BF84F81D36002399
:100D30002E464FF0070B1F469946DFF8248208F134
:100D4000940A3078E8B109F037FB18B180F806B0A2
:100D500080F80790002109F055FB002331781AF83C
:100D600013005A00884240F0098408EB020393F80C
:100D7000953073700723337101237A1CB770F370B9
:100D8000D7B20BF1010B5FFA8BFBBBF10B0F06F136
:100D90000506D6D1002B00F0BB806A4E492073684F
:100DA00043F44043736012F05BFC674A67490023D9
:100DB0004FF01C0E104688460EFB032CDCF804C0D6
:100DC0008C4540F0E283DBB21C2101FB0303726916
:100DD00019694FF000090A437261062283F81990DD
:100DE0001A765A4813F0C3FA15A813F095FA584B1F
:100DF000022F159334BF4B4680231A934FF4807310
:100E00001B934FF480631C9320231D934FF40053D6
:100E1000504E15A94D4818971E931696CDF85C9024
:100E2000CDF86490CDF87C9013F083FA012F94BF35
:100E300000220122D8F80030474943F00103C8F8E6
:100E400000304B684FF0070E23F4702323F48073B7
:100E500043EA02234B608A68404B134043F460230B
:100E600043F002038B60CA6A7B1E22F47002DBB27D
:100E700042EA0353CB621F270123EA784AB395F86D
:100E80000180581CB8F1090FC0B295F804C040F2B7
:100E90008283A8F10A02D1F80C9002EB42020EFA0A
:100EA00002FA29EA0A090CFA02F242EA0902CA60C5
:100EB000062B00F27D8303F1FF3C4A6B0CEB8C0C9C
:100EC00007FA0CF322EA030308FA0CF21A434A6306
:100ED00003460535AE42D0D11F4B9A6842F480726A
:100EE0009A609A6842F001029A609A6842F0080299
:100EF0009A609A681107FCD49A6842F004029A60DA
:100F0000154B9A685207FCD49A6842F4A0029A6082
:100F1000D4F83406002841F04B82D4F83836002B40
:100F200041F04682D4F83C36002B41F0418219E072
:100F3000003800401520200032250020B83600205F
:100F40005C0C002000100240340000200800024029
:100F50004C240140700C002000240140FDF7F1FFFB
:100F600060A401080CF0C4FD30B90120022109F091
:100F7000E9FA012015F04EFC94F8C53443F0020361
:100F800084F8C5340EF092FEB34B186811F016FFCA
:100F9000B24B1A88B24B1A80B24B5A6B99460AB1BF
:100FA0000DF03EF9B04BB1491B78B14CD80001446B
:100FB0004A78B0492260079A1268114009B10122AB
:100FC0002260002140F2DC55AB4A22F81150013179
:100FD0000829FAD12268002A40F0078303F0EF02C3
:100FE000082AA64A40F046831178182B41F01001D8
:100FF000117001D111F09EFE2368A14D002B40F02D
:101000004283AB89002B40F078830121084609F028
:101010005BFA0021084609F057FA0021022009F086
:1010200053FA0A24974D012009F0B8F9002009F07D
:10103000B5F9192009F013F92B68DF0302D4012058
:1010400009F016FA192009F00AF9002009F010FA3F
:10105000013CE8D12146204609F036FA214601201C
:1010600009F032FA884B894D587A16F04BF98849C5
:1010700016F09CF9874916F091F808F01EFB864B94
:1010800015AF1860B9F8140016F03CF90146834812
:1010900016F040FAC5F8400613F01EFD0123159323
:1010A00010237F4A16931368904613F4800F04BFF1
:1010B0007C4A1592DE005EBF159A42F0100215922E
:1010C000794A1268900748BF1599784844BF41F0A3
:1010D000C6011591510748BF1599039044BF41F0CF
:1010E00008011591120742BF159A42F0200215928D
:1010F000159A42F000611591017801F0EF06082E73
:1011000001D00E2904D142F0006242F480521592BF
:10111000159ADE0354BF42F4005242F42042159265
:10112000159AD8044CBF42F0644242F044421592F2
:101130009A0642BF159A42F4807215925E0742BF2A
:10114000159A42F400321592159A42F40020159037
:10115000580505D5564B1B7913B142F4C0121592B0
:101160004FF00109182902BF159B43F060731593D6
:1011700021463846E6B208F043FC70B1304614F020
:10118000F8FF50B9620957F8223006F01F0609FA35
:1011900006F623EA060647F822600134252CE7D13B
:1011A000DFF82CA197E803004FF419728AE80300D6
:1011B00000210AF1080019F0A6F80AF0AFFC00229D
:1011C000DFF810E13B4BF4461A809A703A493B4BEA
:1011D0003B4E3C4C3C481960DFF8FC90338BDFF809
:1011E000FCB0C4F80490A06085F8B02819B204904F
:1011F0000AF51C7ADBF800002EF8121000F5967044
:101200004AF822000132122AF4D1D8F80000C204B0
:1012100058BFB6F92410ACF806102C49DFF8B4C05A
:1012200001F1500E0A78002A5AD18A7891F803A069
:10123000524555D2002A00F07082013A02EB820238
:1012400002EB820202F5617291F801A092B20AF1FA
:10125000040A2CF81A2043E05C1E0020221600200D
:1012600032160020C41B0020FC11002060AB0108D6
:10127000C812002020001000801C00201D16002035
:101280003E300020D41900200C3C002044060020F1
:1012900035FA8E3CDB0FC93F2C3C0020A889803AF0
:1012A000E436002001000010581E0020601E0020BF
:1012B000603A002044250020A0860100A82D0020CF
:1012C000B8360020A83600208D260108E01900203D
:1012D000880C00200434002091260108603400208E
:1012E00004318E459ED1020740F13282307A0A28BD
:1012F00000F22782DFE810F022022202A704E804AD
:101300000C052C052C05B9052502F6052202002442
:10131000A14601274FF00008FFF7CFBAC24CF7E70C
:10132000C24CFFF7BCBA304609F046F86B1C60614E
:10133000DBB210B10322C37182711A2109F062F885
:10134000002F52D0BBF8000015F0DCFF16F030FA89
:10135000B74B4FF6FF7A1E68B6FBF0F353441B0CF5
:10136000B6FBF3F60FB1B6FBF0FA9BF80230042B94
:101370003FD1504615F0C2FFAB4916F017F8A060F8
:101380000990304615F0BAFF494616F00FF8099B50
:101390000890A849184616F009F8089A0146104620
:1013A00015F0FAFE9BF80330E06032460193049991
:1013B0001FFA8AF3CDF80080204614F039FD00238F
:1013C00018229D49AB4219D1002383F001032374F5
:1013D00001231D44082D637404F118047FF48AAAC4
:1013E0000122964B1A70FFF79ABA059816F036FC50
:1013F000ACE7304615F082FF0799BEE702FB031009
:1014000046686068864201D00133DBE70123DCE7F0
:101410001B8D874A9BB212680133B2FBF3F3884AF3
:101420001370FFF7B1BA9A047FF5D5AA94F8D025C6
:10143000844B04F59F651A7004F5B96816F8089096
:10144000002148460EF0C0FF074698B300224FF037
:10145000010A5FFA86FB05F80FBC45F8040C05F895
:101460000E2C05F80D2C05F810AC484608F0A4FF2A
:10147000D3445FFA8BFB18B180F806A080F807B060
:101480004FF0000B2A2108F0BDFF6F4A00213846BB
:1014900008F0EAFD6D4B2A1D2B606D4B294638463E
:1014A0006B60C5F808B008F033FE5A4679793868A1
:1014B0000FF020FC0136082E05F11C05BED1FFF708
:1014C0008ABA08F079FF4021C4F8F805054630468D
:1014D0000EF07AFF0646CDB1C0B12423AB710123D3
:1014E0001A21EB71284608F08DFF0021A4F8FC7545
:1014F00001915849544A91FBF7F192FBF7F389B2F5
:1015000000919BB23146544814F092FC0023D4F869
:10151000E425138084F8F535FFF781BA4F4AD16886
:101520000B43D360FFF7D3BA4C4A11690B431361E5
:10153000FFF7CDBA4A4B9A420BD103F5EC33196948
:1015400041F480411961196921F480411961FFF763
:10155000F6BA444B9A427FF4F2AA03F5EA331969CA
:1015600041F400411961196921F40041EEE70123BA
:101570000220FFF7EABA0125FFF7B8BB01330A2BB7
:101580007FF4EDAB0023FFF7F4BB0133072B7FF4AF
:1015900013AC002318E40A6908EB480A0EFA0AF9AA
:1015A00022EA09090CFA0AF242EA09020A617FE416
:1015B0000C2B0DD8DA1FD1F830C002EB820207FAEB
:1015C00002F32CEA030308FA02F21A430A637FE4E7
:1015D0000D3BCA6A03EB830307FA03FC22EA0C0201
:1015E00008FA03F31343CB6272E41F4A1F4912F84F
:1015F00033E00244556881F800E0002D3FF4EEAC82
:1016000000221B4E7245BFF6E9ACC2EBC20029189E
:10161000D1F800C0871940F806C088880132B88028
:101620008979B971EEE700BF6F12833A2829303803
:101630003000002000007A44D8230020CC12002083
:101640006C0400208823002040420F00155D010833
:101650005D5B010820A10700280C0020001002405B
:1016600000380040003C00407CAA0108D92E002030
:10167000DA2E00200E2B3FF4B7AC1178192B21F095
:1016800010011170B5E400244FF0040B274EDFF871
:10169000A0A005F1030818F8017F002F3FF4B1ACBA
:1016A000384608F089FE013403467061E4B210B197
:1016B00080F806B0C4710021384603930EF084FE12
:1016C0000746039B1A21184608F09CFE002F3FF4A2
:1016D00098AC00226B8801929AFBF3F32A889BB2A4
:1016E00000923046124A394614F0A2FB0123082C1E
:1016F000737406F11806CED183E400240D4F0E4E0C
:10170000A88915F0FBFD3A6801463019243408F029
:10171000E5F8B4F5907FF3D177E40AF1010A0AEB1A
:101720008A0A0AEB8A0A0AF561728DE540400020B8
:1017300040420F00401E0020F012002012F07EF9FF
:1017400030B9082007F038FD049BC4F80490A3606A
:10175000D8F8002051040BD51223237044F62063DF
:101760006380C34BC3496360C34BA360C34B196021
:1017700042F201031A4209D044F6206363809304C5
:1017800040F1D88308232370BD4B636096F828305E
:10179000217804338B42A8BF0B464FF0000AB94CA6
:1017A000D10385F8FC3884F800A040F1538110F093
:1017B00065FA01232370B44B40F22A6293F871B1A9
:1017C0005146B24818F09FFDBBF1000F00F0348184
:1017D000514658460EF0F8FDAD4B026804461A60BB
:1017E00082689946002A00F02781584608F0E4FDF7
:1017F000C5F8000918B1282380F807A083711B21C0
:1018000008F000FE0023A34AD9F8001002F1180ED8
:101810005EF833004FEAC30C814240F09283624489
:10182000107F11F01DFFD9F800009B4A03884FF08C
:10183000000A23F001031B041B0C0380974BDFF805
:1018400080E21B68ADF83EA0934281BF03F1B772FE
:10185000934902F55852B2FBF1F292BF002202F115
:10186000FF3292B2511CB3FBF1F38E49ADF83AA0AE
:10187000B3FBF1F303219BB2B3FBF1F14FEA410C4F
:10188000AEF800C0DFF83CE28DF840A0AEF80010E2
:1018900020A921F8482DADF83C3011F0E6FF602377
:1018A000ADF846A0ADF848A0ADF84AA0ADF84CA000
:1018B000ADF850A0ADF84EA0ADF852A0ADF8443050
:1018C000E379D9F800005A0757BF0122042303F037
:1018D0000203ADF846204EBFADF848304FF4807299
:1018E000ADF84C304FF0000358BFADF85020ADF8C4
:1018F0004A3011AA61790EF073FC6179D9F80000C1
:1019000011F086FFD9F800206748B2F844304FF054
:10191000000B6FEA43436FEA53439BB2A2F8443093
:101920001388DFF8A4A19BB243F080031380E3790E
:10193000617913F0040F14BF042301238B40118C31
:101940009BB289B221EA03011184118C89B20B4345
:10195000138413889BB243F0010313801C22217B64
:10196000524B02FB013143690A6913434361282347
:1019700081F819B00B7643691A4342614C4AC1F8A9
:1019800014B08A604A7B15A88DF8542001228DF886
:1019900056B08DF855208DF8572011F07FFEA068C5
:1019A000CAF8000012F0E3FCDAF80000026822F046
:1019B00001021204120C026012F0D9FC15A812F0F8
:1019C000ABFCD9F80020617934320A44159240F218
:1019D0002A62189280221A922C4A15A91692102275
:1019E00017924FF400721B924FF40052DAF8000085
:1019F000CDF864B0CDF870B01E92CDF87CB0CDF8C3
:101A000074B012F096FC6279D9F800100C2A8EBFDF
:101A10005B46204B03EB420B8A8998BFBBF8A8308A
:101A200092B21343DAF800208B81136843F002036B
:101A3000136001221F4B1A700023FF211C461E4811
:101A40001A181C520433B3F5807F9170D170F7D10E
:101A500010F07CF9D8F80030580579D504200AF048
:101A60003BF8164B042118600AF02CF82EE000BF5A
:101A700009270108400D0300F1260108A82D0020C8
:101A8000E12601086D31002070310020762500200C
:101A9000A82B002060A40108FF6BDC0230000020AE
:101AA000006CDC0200350C00001002403400002005
:101AB000A95C0008A02B0020E63200204C34002056
:101AC0007425002072250020A42B0020BD4B187027
:101AD00008200AF001F8BC4B0821186009F0F2FF59
:101AE000BA4B2C2218700021B94818F00CFC7C234A
:101AF00085F804398E2385F80539E02385F8073900
:101B00007D23202085F82F3909F0E6FFB14B2021F5
:101B1000186009F0D7FFB04B1870102009F0DCFFF7
:101B2000AE4B1021186009F0CDFFAD4B18704FF48B
:101B3000805009F0D1FFAB4B4FF48051186009F091
:101B4000C1FF0022A84B1870A84B1A7011F024FC9A
:101B5000A74C2288002A40F02A82A64B95F840091B
:101B6000C5F83039022385F8343995F84139013BFD
:101B70005BB2012BDEBFA04A1B01D258C5F8382941
:101B8000002800F0148208F017FCC5F83C0918B1D1
:101B90001A2383710023C371132108F033FCD5F895
:101BA0003039986808F055FC00BFD5F8303902216B
:101BB000586808F0FAFC4FF000089F2332208DF897
:101BC00044308DF845808DF846808DF8478008F0C8
:101BD00046FB8DF8558000BFD5F83039986808F07D
:101BE00033FCD5F830093A4611A90423406808F0BF
:101BF000FDFCD5F83039986808F02BFC00BF9DF843
:101C000056309DF855201B0243EA02439DF85720A9
:101C100013437A4A934200F02B8300F31483A2F516
:101C20002102A2F5CC42934200F0228300F3B2815C
:101C3000A2F51A42023A934240F0B4812023238055
:101C40004FF4807375E30A221B0193FBF2F3002229
:101C50006B49A3F5B06341F822300132122AFAD160
:101C600042F6F8236380674B40206360664B227026
:101C7000A36009F031FF824600283FF462AD11F005
:101C800073FB737AB17A00280CBF01220322002B68
:101C90000CBF0623072300290CBF002108219AF955
:101CA00002E082460B438DE80C00584B584A402115
:101CB000704609F05DFDBAF1000F01D0554B186078
:101CC000003018BF01203BE51023237042F6F823B3
:101CD0006380514B40206360504BA36009F0FCFED1
:101CE000824600283FF42DAD11F03EFBB27A002869
:101CF0000CBF01230323002A0CBF002208229AF9FB
:101D000002E00192009382464FF4E133444ACEE769
:101D10000823237042F6F8236380424B402063601F
:101D2000414BA36009F0D8FE824600283FF409AD7C
:101D300011F01AFB002200280CBF012303239AF99B
:101D400002E00192009382464FF4E133374AAEE756
:101D500000234FF00C0E364A36491370364A0628D7
:101D600084F800E00B70137074D01B22334B4FF4D7
:101D7000E13B1A700522324B83F800E0314B1A70B8
:101D800042F6F8236380304B402063602F4BA36002
:101D900009F0A2FE824600283FF4D3AC11F0E4FA29
:101DA000B27A00280CBF01230323002A0CBF0022B3
:101DB00008229AF902E00192009382465B46244A87
:101DC00075E700BF5034002040340020513400201B
:101DD000480F002058340020533400206434002081
:101DE000693400206C3400206A3400206B340020F9
:101DF000FC000020780F0020CC1600201720C20025
:101E0000B82C00203522010851220108A0860100CB
:101E1000A9290108F0360020B1D800089521010851
:101E20009127010829D8000841D800089DD9000849
:101E30000D160020881500200C16002089150020A2
:101E4000AD1500200E16002067D700087DD70008CA
:101E5000C5D8000821223E4BDFF834B11A703D4B43
:101E600083F800E03C4B18708AE74FF0000B3B4BC7
:101E7000402083F800B00E23237044F62063638073
:101E8000374B6360374BA36009F026FE00283FF410
:101E900058ACB0F800A0344B0AF4825A83F800B072
:101EA000B37ABAF5825F90F9020014BF01220322CF
:101EB000B3B9BAF5825F14BF5B4608238DE80C0006
:101EC00040214FF4E133294A09F052FCBAF5825F10
:101ED0007FF4F6AE0022264B1860264B1A70EFE610
:101EE0000823EBE70A221B0193FBF2F300222249AD
:101EF000A3F5B06341F822300132102AFAD141F63D
:101F00000B2363801D4B402063601D4B2270A36038
:101F100009F0E2FD00283FF414AC03234FF0000E5B
:101F200090F90200174A8DE808404021164B09F04D
:101F30001FFCC5E6D0077FF529AC0C232370134B9B
:101F400023E40133042B7FF463AC002069E400BF79
:101F500089150020AD1500200E160020732E0020DC
:101F600019270108392B0108712E0020612A010868
:101F7000543A0020583A00201C2D0020C1230108AB
:101F800045240108FD290108A0680600D1260108A2
:101F900090D00300B74A934200F0C881B64A9342FA
:101FA00000F0648100232380A3816360A360A5689F
:101FB000B5B14FF00008ED0A0DF15409A8450ADA51
:101FC00008EB0504641010223946E00207F0F0FE29
:101FD0000F2800F3C38107F08FFEA84BED021D60B0
:101FE0000023A74AA74C1360A74A1380A74A13806F
:101FF000A74A1380A74A1360A74B1A6899461F2A5D
:1020000040F0B6814FF48063A44A23801188A4482D
:10201000002940F0B68101809278A24B02B10122E2
:102020001A70B4F90030A04A1B021360039B9F484A
:102030001B789F4C052B02BF4FF4C8729D4B1A8032
:102040000CF04AF8C8229C4B00211A809B4AA4F845
:1020500046191378A4F8481943F0080313700423B1
:10206000974A84F844391370964A974B117064224A
:1020700019705A705960954B19805980944B5A7950
:102080009A46012A0BD1282204F64C1018F03BF98D
:102090004CF250328F4904F5156007F01FFC002107
:1020A0008D4B84F874191960596099609AF806305C
:1020B000012B09D11022894818F025F94CF2503231
:1020C0008749884807F00AFC874BDFF85C821B6869
:1020D000864AC8F80030864B4FF0010B1B68802001
:1020E0009B1A18BF0123834A834F137014F092FB8D
:1020F00000214422814884F8ACB918F004F9002387
:102100007F4A804D3846C4F8B039136009F052FA5E
:102110002B68D90709D5D9F800305946642BB8BFC8
:10212000642358467B6409F07DFA2B689A0709D529
:102130000121022009F076FA734B5B6B642BB8BF68
:102140006423BB6729680320C1F3400109F06AFAE0
:102150000121052009F066FA6C4B9AF805B01A8C3B
:102160006B4B072093FBF2F3642BB8BF64231BF186
:102170000001C7F8143118BF012109F053FA9AF889
:102180000690082019F1000118BF012109F04AFA50
:102190009AF80A30002B40F096819AF80B30002B09
:1021A00040F09181D8F80010C1F38041BBF1000FDD
:1021B00003D1B9F1000F00D14946092009F032FAE4
:1021C0000121042009F02EFA524B0620197809F05B
:1021D00029FA01210A2009F025FA29680B20C1F308
:1021E000C00109F01FFA29680C20C1F3800109F031
:1021F00019FA2B680D2013F0140F14BF01210021D0
:1022000009F010FAD8F800100E20C1F3802109F06F
:1022100009FAD8F800104B0507D5337A083B012B93
:102220009CBF4FF4FA63C7F8E832C1F300410F20B6
:1022300009F0F8F994F8C53463F07F0384F8C534E5
:1022400021B0BDE8F08F344A934211D004DC334A08
:10225000934208D0324AEEE4324A934266D00132C9
:1022600093427FF49FAE4FF40073E8E44023E6E42A
:102270008023E4E418BA20001620C200C02B0020FE
:10228000941C002028410020981C00209A1C00204B
:102290009C1C0020901C002098390020B02B0020AE
:1022A0002A4100209E1C00207C1E0020C0370020F8
:1022B00044060020941E0020921E00201D160020BF
:1022C0002E2500206E3A0020841000205A3A00206B
:1022D00032250020CDCCCC3D481C0020BC0F002076
:1022E000CDCCCC3ECC0F0020C4190020F35C0108FB
:1022F000D03B0020CC120020200100203C17002001
:1023000038170020581E0020C41B0020AA390020C6
:1023100040420F00F53600201740EF001920C200A0
:102320001540EF001840EF00E43600204FF48073B2
:102330002380A381638822881B0263605343B3F127
:10234000807FA360614D05D90123B72085F842390C
:1023500003F0FCFF012385F8433928E6002359F8F0
:102360002320013220D10133042BF8D1254625E664
:102370003F2A16BF4FF4FA434FF40073B3FBF2F356
:1023800042E6B4F90030994204DD1F2B02DD01233F
:10239000038041E693FBF1F3FAE732F83330002B88
:1023A0007EF432ACFEF728BC04F101082C46DDE7D0
:1023B0000022474B00B21A7014F0A4FF454914F0F4
:1023C000F5FF0746B4F9380614F09CFF414914F0B4
:1023D000EDFF0646B4F93C0614F094FF3D4914F0B5
:1023E000E5FF3D490546384614F0D8FE07F065F98B
:1023F0008146384607F061F937490746304614F000
:10240000CDFE07F05AF98046304607F056F93249BA
:102410000646284614F0C2FE07F04FF983462846C8
:1024200007F04BF949468246584614F0BFFF49462B
:102430000390504614F0BAFF59460490384614F001
:10244000B5FF51460590384614F0B0FF414606905E
:10245000584614F0ABFF214D5146286008F100406A
:1024600014F0A4FF05996860AE60304614F09EFF3A
:10247000049914F093FE0699E860304614F096FF34
:102480000146039814F088FE4146286107F1004098
:1024900014F08CFF03996861304614F087FF014601
:1024A000069814F079FE0499A861304614F07EFF76
:1024B000059914F073FE4946E861404614F076FF32
:1024C0002862FEF74FBD012170E600BF44060020E0
:1024D0002E00002035FA8E3CDB0FC93FEC160020A1
:1024E0002DE9F04FB64A97B013780192002B00F017
:1024F000B780B44B186800286DD008F03DF9DFF8BC
:10250000F8A2B14DDAF8000007F023FF002862D0EE
:10251000DAF8000007F01AFF0928AC4C01D03F2878
:1025200050D14FF00008C14646462768DFF8ACB2EC
:1025300008EB0B0347B13A4658F80B1028460093B6
:1025400017F024FF009B08B976B3994608F10808F4
:10255000B8F58C7FECD196B1D6F800E0D9F800C080
:1025600023681EF803001CF80310814207D15A1C8F
:10257000E9B97D2B1BD820202260E854A954236898
:102580000BB14E4508D0924813F03DFF4E4511D98E
:10259000904813F038FF002723689F42B2D2E85DCD
:1025A00009F01EFF0137F7E71E469946CEE7E854CB
:1025B0002260D5E756F8080B13F025FF092009F033
:1025C0000FFFE3E72368002B41F0CB82042805D1FD
:1025D0007D480EF052FE17B0BDE8F08F0C2841F098
:1025E000E3827D4813F00FFF7A4813F00CFF89E770
:1025F00001220B4601F0C7BA591E685C2028F7D0AB
:1026000002B123600026754FEE54F159284606EBBF
:1026100007080FF073F838B90836B6F58C7FF4D197
:102620006F4813F0F0FE05E06E4B9845F8D2D8F8ED
:1026300004309847002301F0AABA7F2B3FF662AF1F
:10264000A0F12002D2B25E2A3FF65CAF13B9202877
:102650003FF458AF5A1C2260E85409F0C1FE51E71C
:102660009846614F614D3A7802F00102009255F8A8
:102670000A3C002B41F0168208F10108B8F1030F63
:1026800005F1CC05F3D1A6E7012B05D14D280CBFF0
:102690000223002301F01CBA022B57D100233C284F
:1026A00005F8023C4DD03E284AD015F802ECBEF1A8
:1026B000060F41F0F88115F8014C002C41F0D18152
:1026C0004FF001094A4B05AE0FCB86E80F0015F815
:1026D000053C15F803AC2B440A93BAF1440F0FFAEA
:1026E0008AF30995ADF82C30ADF82E408DF8309076
:1026F000ADF81C3001F0A58100F21181BAF1050F8F
:1027000000F0558200F2C980BAF1020F00F0938107
:1027100000F2AB80CA4500F083813146504602F09A
:1027200073FC0446002840F07981BAF1740F00F080
:10273000CA82BAF1770F00F057836FF00109D0E237
:10274000012305F8013C032301F0C2B9032B0BD18F
:102750000023C0289FBF05F8063C05F8050C05F8C6
:10276000040C042301F0B4B9042B09D115F8043C7E
:1027700005F8030C5E4005F8046C052301F0A8B9C8
:10278000052B92D115F8061C15F8053C15F8042CFC
:102790008B420CD94B1C05F8063CCC23424005F873
:1027A000042C144A03FB08230B4498727DE78242F1
:1027B00002D1062301F08CB9002301F089B900BFD2
:1027C0001C250020D023002098240020182500205C
:1027D00045C301084AC301084FC301081CC20108D0
:1027E0005AC3010834C301086C3100209A0C002040
:1027F00024A50108900C0020D4230020009B002B6E
:1028000041F05181232824D10123019955F80A2C44
:102810000B708C4B8C491A608C4B8D481A609A60F7
:102820009DF8002059605A7340221A73894A043374
:102830001360894B894ADB78003318BF012313707A
:1028400013F010FE864813F0DEFD4FF4006013F025
:10285000E1FF844B93F82230B3427FF426AF824BE2
:10286000824A1A60824BDC601FE7BAF1030F00F066
:102870001B81BAF1040F7FF450AF002404227D497C
:10288000304606F0DBFD7C4B3046197806F0F4FD4F
:10289000059B5A1C05921C70CAE0BAF1240F00F087
:1028A000C4811FD8BAF1200F7FF437AFDFF8E0A161
:1028B000724B9AF80120D91C1A709AF800200591E1
:1028C0005A709AF80220BAF808109A70304606F04A
:1028D000D3FD059B9AF80520591C05911A709AF8AA
:1028E000062083E0BAF1280F00F0D181BAF1380F49
:1028F0007FF413AF0522614B4FF001095A700A2291
:1029000000249A705E4A83F800901178DC70197187
:10291000517892785971D91D05919A71CDE0BAF12B
:10292000810F00F0868130D8BAF1540F00F0C481D5
:1029300008D8BAF1520F7FF4F0AE504B5A1C0592F2
:102940001C70BAE0BAF16E0F00F03E81BAF1800F50
:102950007FF4E3AE00210A264A4B4B4C1B780B3B1D
:10296000DBB299425ADA22880598FF2AA8BFFF22D3
:1029700000F1010ECDF814E006700598013100F168
:10298000010ECDF814E00270EBE7BAF1A00F00F0F1
:102990003C8130D8BAF1820F7FF4BFAE3B4B30465A
:1029A0001A78364BDFF8F8A0591C1A70384B05918D
:1029B000198906F061FD374B059A1B88511CFF2BC6
:1029C000A8BFFF2305911370DAF80810304681F391
:1029D000100189B206F050FDDAF80010304601F31C
:1029E0000F0189B206F048FD2B4B1A78059B591C44
:1029F00005911A7061E0BAF1B80F00F01881BAF1D0
:102A0000FE0F7FF48AAE0024DFF8989039F8141096
:102A10003046013406F030FD042CF7D1002407E0E5
:102A2000164BDA1C059224221C7083F801A09A70C0
:102A30004FF0010941E004221849304606F0FEFC3F
:102A40003BE000BFD42300209BA3000828100020F7
:102A50007AC30108D02300202C170020F00F00209B
:102A60004AC30108AA390020F04F0020EFBEADDEB6
:102A700000ED00E031170020080B00205841002035
:102A800014110020241C0020900F00206E3A00201A
:102A9000322500205A3A00202E25002080C301084C
:102AA000481C00201C1C00200222BE4B5A70DA1C5D
:102AB0000592052283F800A09A70ADF81E90B9F136
:102AC000000F66D0059B55F80A0C0693B54B05938D
:102AD00003681B6A03B19847059B069EF61A0023FC
:102AE0000E9324238DF834304D238DF83530BDF905
:102AF0001E30FF2E3246A8BFFF22013300F0A4870C
:102B00009DF82030002B14BF3C233E23FE2ECCBF6B
:102B10004FF007094FF005098DF83630BDF81C302D
:102B20008DF837208DF838304A46C8BF33120DA9CA
:102B300055F80A0CC4BF8DF83A308DF8396007F0AB
:102B40000EFC0DAB994400230DF13702914540F086
:102B50007E87002E8DF813300EDD3246059955F82C
:102B60000A0C07F0FCFB059B9DF813201E449E42B7
:102B700040F072878DF8132055F80A0C01220DF1F0
:102B8000130107F0ECFB55F80A0C03685B6A03B10C
:102B90009847002305F8023C002C3FF46DAD55F832
:102BA0000A0C08F091FD55F80A0CA04764E50B22C9
:102BB0007D49304606F042FC08227C49304606F04A
:102BC0003DFC07227A4938E77A4B764A1B88DFF8C2
:102BD0000CA2FF2BA8BFFF23511C0591DAF80810A7
:102BE000137081F3100189B2304606F045FC724B38
:102BF0003046198806F040FCDAF8001001F30F01A6
:102C000089B2304606F038FC57E76C4B30461968FD
:102C100006F01EFC6A4B3046196806F019FC694B39
:102C20001968304606F014FC47E7674BF8E7674B36
:102C3000F6E74FF00A0A4FF6FF7B654B654A1B78B3
:102C40000B3B5FFA83F94C45BFF6E8AE1168936819
:102C50005945A8BF59460598029321EAE171431CE2
:102C6000059389B280F800A03046039206F004FC78
:102C7000029B30460AFB03F15945A8BF594621EA99
:102C8000E17189B206F0F8FB0134039ADBE70A220E
:102C9000444BDFF84CA19A70BAF800101A1D83F863
:102CA000009083F801E083F803903046059206F027
:102CB000E3FBBAF80210A4E73A4A134603F8024BC2
:102CC00005935470F9E6099B0A9A9A420FBF214670
:102CD0005A1C09921978404A304613F05DFA4FF0B9
:102CE000010919F1020F40F02C83BAF1470F099B3B
:102CF0000A9A40F0878009A8A2EB030A06F078FB45
:102D0000BAF1050F814679D909A806F087FB099B1E
:102D10000A9A83469A4202D009A806F08AFB059ACD
:102D2000069BDFF8C0A09B1A103BDAF808205B4531
:102D3000CDF808B0A2EB0902B8BF1FFA83FB934598
:102D40004946304688BF1FFA82FB06F081FB3CB93A
:102D50005946304606F090FB059A511C05911470B7
:102D6000DAF8083009EB0B029A42059E88BFA3EB04
:102D7000090B06F0C1FF5A463146484607F018F8DD
:102D8000059B03440593002C3FF448AE0022029BB0
:102D900083427FF743AE059B0130591C05911A70A1
:102DA000F5E700BF5841002085C3010891C3010821
:102DB00079C301085A3A002030340020E8F7FF1F99
:102DC000ECF7FF1FF0F7FF1FC4190020D4190020F3
:102DD000241C0020BC0F002051610108481C002069
:102DE00018110020FC000020099B0A9A9A421DBF7E
:102DF0005A1C099219782146904A6DE701244FF038
:102E0000800B8CE7BAF1290FA2EB030437D0BAF19B
:102E1000390F20D0BAF1210F45D15A1C09921A4618
:102E2000874C12F8021B16A8099261705A7822701A
:102E3000DA1C40F8342D9B78A37006F0EFFA099B5A
:102E400020815A1C09921A4612F8021B61710992DC
:102E50005B78A37124E05A1C09921A780A2A40F080
:102E60003B869A1C09925978764A1170D91C0991AF
:102E700099785170191D0991DB78937010E05A1CF4
:102E800016AC44F8342D1B7820460A2B40F05885A8
:102E900006F0C4FA6C4E3080204606F0BFFA70800F
:102EA0004FF001094DE2BAF1610F00F0258400F204
:102EB0003281BAF1370F00F0678570D8BAF12B0F65
:102EC00000F05D8420D8BAF1230F00F08B8206D881
:102ED000BAF10B0F00F0A0854FF0FF3931E2BAF1E3
:102EE000250F00F03A84BAF1270FF5D109A806F0B2
:102EF00095FA564C206009A806F090FA606009A87F
:102F000006F08CFAA060CBE7BAF1310F00F06085D3
:102F10001ED8BAF12D0F00F04284BAF12F0FDBD189
:102F20004B4C04F1400609A806F078FA099BA4F876
:102F300000015A1C09921A4612F8021B043484F844
:102F4000FE1009925B7884F8FF30A642EBD1A7E728
:102F5000BAF1330F00F0BD84BAF1350FBCD15A1C61
:102F600009921A780E2AB7D8991C09915C78032C1B
:102F7000B2D806215143374842185471DC1C0994D9
:102F80009C784454191D0991D97851701979917020
:102F90005979D170D91D9B790991137180E7BAF1E4
:102FA0004C0F00F0528421D8BAF1410F00F0988400
:102FB00011D8BAF13C0F3FF473AFBAF13E0F8BD189
:102FC0005A1C09921A46244912F8020B8870099279
:102FD0005B784B7064E7BAF1430F00F08D84BAF16F
:102FE000480F7FF479AF06F0C5FE59E7BAF15B0FE1
:102FF00000F0D38236D8BAF14E0F00F04684BAF111
:10300000510F7FF469AF1549097801293FF648AFA0
:10301000591C09911946124C11F8020BA070D81CCA
:103020000991121A5978012A09909E7840F38C83ED
:1030300009A806F0F3F9208032E700BF1D5F010800
:10304000322500201411002018110020780C0020D7
:1030500070310020801A0020401100209E1C0020AA
:10306000B02B0020BAF15D0F00F0EE82BAF15F0FD5
:103070007FF432AF09A806F0D1F909A806F0CEF91D
:1030800009A806F0CBF909A806F0D3F9099BC14CB1
:10309000591C09911946226811F8020B82F82C007C
:1030A0000991597809A882F83610D91C09919B78A2
:1030B00082F8373006F0BDF909A806F0BAF909A878
:1030C00006F0B7F909A8266806F0A8F9708709A8DC
:1030D000266806F0A3F9099B0A9A3087D21A012ABA
:1030E00008DD591C099122681B7809A882F82E3046
:1030F00006F09FF9099A0A9B9B1A032B09DD09A880
:10310000266806F08BF9708609A8266806F086F90D
:10311000B086206853E0BAF1D40F00F0D58175D89D
:10312000BAF1CC0F00F076814CD8BAF1B90F00F0AB
:103130001F8323D8BAF1B70F7FF4CEAE5A1C099281
:103140001A4612F8029B0992DA1C5878099299786B
:10315000B9F1000F40F0DC8001283FF6A1AE012953
:103160003FF69EAE81423FF49BAE4E228A4B02FB5D
:10317000013102FB003014F095FC91E6BAF1C80F62
:1031800000F0E280BAF1CA0F7FF4A6AE814B186856
:10319000034600F11E04099A0333511C099111469C
:1031A00011F8026B03F8036C0991517803F8021CC3
:1031B000D11C0991927803F8012C9C42EBD111F0BB
:1031C000B7FA6DE6BAF1D00F00F0A88211D8BAF1C3
:1031D000CD0F00F0AF82BAF1CE0F7FF47DAE3B7819
:1031E000DA073FF55DAE6D4A137843F004031370C0
:1031F00056E6BAF1D20F74D0BAF1D30F7FF46CAEA9
:1032000009A806F00BF9664B188049E6BAF1DD0F04
:1032100000F0F18332D8BAF1DA0F00F0A48114D8AB
:10322000BAF1D60F4CD0BAF1D90F7FF455AE09A838
:1032300006F0F4F85B4C208009A806F0EFF86080F7
:1032400009A806F0EBF8A0802AE6BAF1DB0F00F03F
:103250009F81BAF1DC0F7FF43FAE5A1C09921A46E7
:1032600012F8020B504909920870504A597891702F
:10327000DA1C09929A784E4B9A7011E6BAF1EF0F68
:1032800000F0A6800FD8BAF1DE0F00F00F81BAF17E
:10329000E00F7FF421AE09A806F0C0F800EB800033
:1032A0004000434BB0E7BAF1F20F00F03881BAF1B9
:1032B000FA0F7FF411AE3B78DB073FF50DAE33E23A
:1032C00000243C4EDFF8FC9033789C42BFF6E8AD1A
:1032D00009A806F0A3F814F011F849F82400013405
:1032E000F2E75A1C09921878060609D43B78DC07E5
:1032F0003FF5D6AD032828BF00200CF015FCCFE524
:1033000000F07F00032828BF002012F0F3FDC7E57E
:10331000B9F1010F7FF4C4AD01283FF6C1AD012919
:103320003FF6BEAD81423FF4BBAD0C23224A584369
:1033300003FB01210B68841883504B6863608B6822
:10334000A3600024FFF7B9BBC4F34704122C3FF677
:10335000C3AD00260DF13409A6420EDB0023174A47
:103360000DA99C4210D10021144A122B2CD14FF0F0
:103370000109134B83F80090E3E709A806F04EF823
:1033800029F816000136E7E731F8130022F8130098
:103390000133E6E75C1E00204A3D00201D16002098
:1033A0007C1000202C410020F63600202216002040
:1033B000B8160020241C00201C110020CE2D002057
:1033C000CC2D0020B023002022F813100133CCE7CD
:1033D00009A806F023F8904CE08109A806F01EF831
:1033E000A0815DE55A1C0992197813293FF674AD46
:1033F0009A1C09920C2600225C78DFF844E206FB56
:1034000002E090F808C0A44500F071830132252A3B
:10341000F5D161E5092C7FF75FAD5A1C09921A4678
:103420007E4E12F8021B34682170099200225B78EC
:10343000601DA370022A14BF4FF0640E4FF0FF0E00
:10344000099B0132591C099119787145A8BF714631
:10345000032A00F8011BEDD19A1C09925A7816A88C
:10346000642AA8BF64222272DA1C09929A78E27058
:103470001A1D40F8342DDB78237105F0CFFF0A9B2D
:10348000099A6081991A002904DD501C099031685D
:1034900012784A72099A9B1A002B04DD511C09917B
:1034A000336812785A7013F06DF8F9E409A805F042
:1034B000B5FF5B4C208209A805F0B0FF608209A827
:1034C00005F0ACFFA082EBE40D2C7FF405AD5A1C97
:1034D00009921C78072C3FF6FFAC0C2609A805F0D2
:1034E0009DFF6643DFF85C9109EB0604A08009A804
:1034F00005F094FFE08009A805F090FF099B20816A
:103500005A1C09921A4612F8021B09A8A1720992C4
:103510005B78E37205F06CFF49F80600C0E45A1CC2
:1035200009921A780F2A3FF6D7AC991C09915C785A
:103530003C48C2EBC20142184454D91C0991997805
:103540005170191D0991D97891701979D1705979F3
:1035500011719979517103F10801DB790991937126
:103560000FF0E8FB9CE419465A1C099211F8020B73
:103570002D4A099159781070517016A8D91C40F83D
:10358000341D9B78937005F049FF284BD88087E461
:10359000274B4E2227491868EDE55A1C09921A4616
:1035A000254C12F8021B1E4E0992A1705978234A2D
:1035B0000DF158091170DA1C09929A7832711A1DAE
:1035C00049F8342DDB784846042BA8BF0423B37098
:1035D00005F024FF099A0A9B30809B1A012B03DD1A
:1035E000484605F01BFFF081099B0A9A9A4206D0D3
:1035F0005A1C09921B78003318BF0123E3710CF0A9
:1036000055FB099B0A9A9A423FF44AAC5A1C09920C
:103610001B78F37044E400BF2216002034410020E0
:10362000A41C00204A2F00207E1000202C410020E6
:103630005C1E0020CCC10108F63600201C300020A2
:10364000C0A80108BC2F00205A1C16AC44F8342D29
:103650001B78BF4EDFF82C93204689F80530D6F84A
:1036600000A005F0DBFEAAF820002046D6F800A056
:1036700005F0D4FE099A0A9BAAF81E009B1A072B94
:1036800017DD204605F0CAFEA9F80A00204605F01D
:10369000C5FEA9F80C002046D6F800A005F0BEFE35
:1036A000AAF822002046D6F800A005F0B7FEAAF836
:1036B0002400099A0A9B9B1A032B09DD204605F07A
:1036C000ADFEA9F80E00204605F0A8FEA9F81000EE
:1036D000099B0A9AD21A002A05DD591C0991326801
:1036E0001B7882F826300CF0E1FA10F035FA3068D9
:1036F00011F0EEF8FFF7D4BB5A1C09921A4695490F
:1037000012F8020B0992C8705978934A5171DA1C69
:1037100009929A78914BDA70FFF7C2BB3B78D807D1
:103720003FF5BEAB0CF032FD0CF014FA0CF050FB80
:10373000FFF7B6BB3B78D9073FF5B2AB4FF4C87281
:10374000874B1A80FFF7ACBB864BB3F900304B4375
:1037500093FBF6F32380FFF7A3BB0023824C09A859
:10376000236005F045FE236818432060FFF798BBEF
:1037700000237E4C09A8236005F03AFEF5E7581CAB
:1037800009901C787A49121A002A0C707FF788ABCE
:103790009A1C09925B78003318BF012319E45A1C64
:1037A00016AC44F8342D1B78724E2046337205F067
:1037B00035FEB083204605F031FE3083204605F00B
:1037C0002DFE099B70835A1C09921B78F3740A9B87
:1037D0009B1A032B07DD204605F020FEB08420460F
:1037E00005F01CFEF084099B0A9AD21A032A0DDD0B
:1037F0005A1C09921A4612F8021B2046B177099208
:103800005B7886F8203005F009FE7084099B0A9ADF
:10381000D21A052A0CDD5A1C09921B782046F37235
:1038200005F0E6FD099BF0605A1C09921B78337481
:10383000099B0A9AD21A002A7FF732AB5A1C0992C6
:103840001B7886F82130FFF72BBB5A1C09921A46C9
:10385000494C12F8021B16AE46F8342D21715B78E4
:103860003046637105F0DAFD099B20805A1C0992ED
:103870001B783046A37105F0D1FD099B60805A1C6E
:1038800009921B78E371FFF70BBB5A1C09921C7855
:10389000112C3FF621AB9A1C16A840F8342D5B780A
:1038A000364E06F8143005F0B9FD40F6CA039842CA
:1038B000A8BF184640F2EE239842B8BF1846192315
:1038C000A0F2EE2090FBF3F006EB44046070FFF7EB
:1038D000E7BA5A1C09921A78264B5A75FFF7E0BAD4
:1038E00000232449099A501C099012785A54013334
:1038F000082BF7D1FFF7D4BA16AC5A1C44F8342D74
:103900001A781B4B184E1A7000232046336005F0BE
:103910006FFD33681843099B30605A1C09921A786E
:10392000144B20461A7205F079FD154E3060204682
:1039300005F074FD7060204605F070FDB060204613
:1039400005F06CFD204605F069FDFFF7A9BA00BF40
:103950005C1E002022160020FA350020B816002038
:10396000941E002028410020C4190020D4190020F2
:10397000601E0020B8360020503C0020AE2E0020F3
:10398000780C0020F63600200726B4FBF6F6C6EBCE
:10399000C603E41A7FF4A0AADFF848B2F6B2E3B295
:1039A000B3423FF47DAA4FF0000A099B5A1C0992CA
:1039B00093F900300BEBCA0999F902209A4200F002
:1039C000B1800AF1010ABAF1040FF3D1FFF784BA0A
:1039D0005A1C09921E783F2E3FF67EAA052C7FF4D2
:1039E0007BAA09A805F004FD774B43F826000EF0EA
:1039F00045F9FFF755BA5A1C09921A4612F8020BFC
:103A00000992DA1C597809929A780FF005FE00287D
:103A10007FF446AAFFF760BA002111226B4816F026
:103A200072FC102C4FF0000328BF10246749A342FA
:103A3000BFF436AA099A501C099012785A540133DF
:103A4000F5E7634CFFF739B82123FFF75FB812F8A9
:103A5000011B4B40FFF77AB813F8011B4A40FFF7F0
:103A600086B8012C1BD1102200210DA816F04BFCAA
:103A700015F8053C0D952B440E9315F8033C6E2B61
:103A8000ADF83C300BD10DA805F0D3FC0DA805F026
:103A9000C5FC0DA805F0C2FC0DA805F0BFFC002474
:103AA000FFF777B84B4C55F80A0C06F052FC00288B
:103AB0003EF4E2AD55F80A0C06F048FC15F8023C5D
:103AC0000646002B7EF4E0AD24287EF497AE012359
:103AD00005F8023CFEF7E9BD09A805F0AAFC09A813
:103AE00005F0A7FC09A805F0A4FCFFF7D9B93A4AEC
:103AF000007802F82100D81C0990987802EB810127
:103B00001A1D48700992DA7800208A705A1D1B79B4
:103B10000992CB7012F0ACFC304B80F001001870B1
:103B2000FFF7BEB989F8023009A805F077FC099BB8
:103B30002BF83A005A1C09921A4612F8021B01345B
:103B4000099289F803105A7889F80420DA1C09923E
:103B50009A7889F806201A1D0992DB7889F80530D1
:103B60001DE70C283EF43DAD0A2801D00D2820D1D8
:103B700012F062FC2321284616F0FAFB08B1401B24
:103B8000206000222368002B7EF436AD02B1236052
:103B900080220021284616F0B6FB019B1B78002BE3
:103BA0007EF422ADFEF717BD7F287EF449ADFEF707
:103BB000A9BC7F287EF441AD0022013B2360EA547A
:103BC0000748FEF712BD00BF703100203F1B0020E8
:103BD00077FA00080400FA05E01900200000002030
:103BE00076C30108AA3900202DE9F04FB34B8FB0FE
:103BF0001B780590072B40F03B8206F0DDFA06901B
:103C0000AF4B1A68089312F4806F05D0AD488368F3
:103C100013B100F150019847AB4BAC4D1B68DFF876
:103C2000E09213F0080F04933FD0AC68A84924F049
:103C3000004013F059FD0A21A64BB3F9043093FB61
:103C4000F1F3002800F01782A3490988490740F1E1
:103C50001282B9F800105B1A9BB218B210F1B30FC0
:103C6000BCBF03F5B47318B2B328C8BFA0F5B473D2
:103C70009A49C8BF18B299F806300978002B0CBFD2
:103C80004FF0FF3301230A070FD5954943430968D5
:103C90001BB2087E43431E2093FBF0F013F032FB6F
:103CA0000146204613F078FAA8608E4B8E4EB3F989
:103CB00006408E4B1B6859898C4280F2DF814FF0A1
:103CC0007E5333608A4B4FF0000A1F8B99F9063000
:103CD00099F80380002B14BF01234FF0FF3399F8AC
:103CE000026007937F4B33F91AB0ABEB0700002853
:103CF000B8BF4042B0F5FA7FA8BF4FF4FA70BAF1EE
:103D0000020F00F0CE81B042CCBF801B002013F028
:103D1000F9FA6E4BBB4543F82A00C0F2D0810AF194
:103D2000010ABAF1030FDDD1089B1E6816F4805812
:103D300000F0CC81B4F5FA6F2346A8BF4FF4FA63C4
:103D4000B3F57A7FB8BF4FF47A73A3F57A7399F815
:103D5000081029B199F809205343642293FBF2F328
:103D60004FF0640E93FBFEF2624802F1010C30F951
:103D7000121030F91C006FF0630C0CFB0233401A78
:103D8000584390FBFEF0084400B213F0BBFA8146A2
:103D9000E860B8F1000F1CD01D2012F0A3FBC0B1E9
:103DA000554BDB78ABB95549484613F0F5F913F09C
:103DB000D9FC4FF47A7300B2000390FBF3F3C7F51C
:103DC000FA6000B2584340F30F30384413F09AFAC7
:103DD000E860414B1F887B063CD53E4BB3F904009D
:103DE0000A2390FBF3F0464B1B8AC01A00B213F073
:103DF00089FA444913F0DAFA4349054613F0CEF93B
:103E000005F05BFC8346284605F057FC2F4D8146A4
:103E10002B6859461846089313F0C8FAD5F804A041
:103E200007905146484613F0C1FA079A01461046DA
:103E300013F0B2F959462860504613F0B7FA089BC0
:103E400082461946484613F0B1FA0146504613F02F
:103E5000A5F96860049B2A4D13F0140F1AD017F4CB
:103E6000027F17D01D4BDFF864901A7812F0100211
:103E700000F04181AB7C6869002B0CBF01234FF03F
:103E8000FF33584313F03EFAD9F8041013F086F9C3
:103E9000C9F804001D4BDFF858901B78002B44D064
:103EA000B9F81A30A34240DB194B1B78012B01D023
:103EB000192B31D1174A927BBABB2DE0621E00202C
:103EC000E43600200C370020581E0020703A0020F5
:103ED00000007041243C0020323400201D160020D8
:103EE0005C1E002004340020BC110020344100205E
:103EF000B8360020384100204425002000007A44D4
:103F00007C10002035FA8E3CDB0FC93F00000020FA
:103F1000601E00203E3000200E2B06D0082B04D05F
:103F200000239F4A93609F4A936095F83440002C89
:103F300030D0BF072ED09C4B9C491F6A384613F0E7
:103F4000DDFB002840F02381384613F089FFA96B80
:103F500013F02CFA13F00CFFB0F5617FA8BF4FF4FB
:103F6000617013F0CFF9924913F020FA05F0A5FB28
:103F70000746204613F0C6F9394613F017FA13F036
:103F8000F7FE00B213F0BEF9854C0146E06813F06D
:103F900005F9E06095F83C40002C5BD044F62062C7
:103FA000844B0420D3F8EC309342A8BF1346B3F5FA
:103FB0007A7FB8BF4FF47A739FB2EF8712F092FA0C
:103FC00008B9F00046D54FF47A73B7FBF3F36427D2
:103FD00097FBF3F7DFF8F4A1142FA8BF1427DAF842
:103FE0000030B8F1000F00F0D4805E8E76086C4A85
:103FF0002B6CD2F80C8003F1010BC5F840B005EB37
:1040000043034046049313F0ADFB049BBB45A3F868
:104010004400A4BF00232B642B6C05EB4303B3F9CE
:10402000440013F06FF90146404613F0B5F813F061
:1040300099FB00B20028B8BF4042B0425E4E40F348
:10404000AB80DAF80030988E13F05CF95B4913F01E
:10405000ADF9306099F81E60002E00F0E481022E68
:1040600000F0B680032E00F0B781554B5888B3E0BE
:1040700000230693C4E5A9F8003016E6B4F5FA6FFC
:10408000187ABFBF631A5843C1F5FA6190FBF1F08B
:10409000C0F1640013F036F94A4913F087F9306033
:1040A00010E64045D8BF0020079BC8BFA0EB080022
:1040B000584313F027F9BB45A860BFF635AE55F855
:1040C0002A1001F1004145F82A1028E63E4B598B91
:1040D0008C420EDBB4F5FA6F2346A8BF4FF4FA63A7
:1040E0004FF47A705B1A4343C1F5FA61B3FBF1F305
:1040F0002DE60B46F4E76979B5F91830287961B3F4
:10410000E11A0029B8BF4942814210DDEA6101226B
:104110009C4285F82020C8BF404213F0F3F80146C6
:10412000D9F80C0013F03AF8C9F80C00B2E695F88B
:10413000201019B1A96A696285F8202068691844BD
:10414000B0F5FA6FA8BF4FF4FA60B0F57A7FB8BF48
:104150004FF47A7013F0D6F8E6E7E21A82EAE27ECC
:10416000AEEBE27E864507DD022192FBF1F2EA62C8
:10417000012285F83020DFE795F82020002ADDD0E5
:10418000AA6A85F830106A6285F82010D6E7002008
:10419000F7E6B3F932602AE74FF07E53336059E710
:1041A000703A0020C4110020E43B00208FC2753C0F
:1041B000D06D393A20010020280000206F12833A88
:1041C000A83600200AD7233CB83600205C1E002009
:1041D000E88F00F57A7080B299F81F600236F6B267
:1041E000002C00F00E81002800F00B81924B00247F
:1041F0001B68924FB0FBF3F000B2A5F86C0013F00F
:1042000081F801464FF07E5013F084F98046DFF8C4
:10421000349207F1100AB442C0F2E680884B1B7852
:10422000092B11D1874B884C186813F0A1FD874BDF
:104230002080D3F8EC004FF47A7390FBF3F013F086
:1042400061F813F08FFA6080B5F96C30002B40F301
:10425000ED8000247E4FDFF8EC91A7F11008E3B267
:104260009E4200F2D48095F83C300793002B40F03A
:10427000DF80002E00F09080022EA8BF0226089654
:1042800000244FF07E59734BDFF8FC811F686C4BA4
:104290001B7809937B1D0A93089B9C4240F3F68090
:1042A000099B092B09D16C4B674CB3F86C30A38088
:1042B0006A4B186813F056FAE080694B93F8214076
:1042C000002C63D01E2012F00DF900285ED0654B43
:1042D0001B8859065AD4604E634F96F89030A3421B
:1042E00013D086F89040204613F00CF85F4913F085
:1042F0005DF85F49044612F051FF05F0DEF9786081
:10430000204605F0DAF9C6F89400DFF850A17F687E
:10431000DAF800403946204613F048F8D5F8948082
:10432000DAF8086005464146304613F03FF801468A
:10433000284612F031FF4F49814613F0DFF9554608
:1043400008B9DFF830914C49484613F0E1F908B953
:10435000DFF8249139463046CAF8009013F026F869
:1043600041460646204613F021F80146304612F039
:1043700015FF4049044613F0C1F900B93D4C3E49D0
:10438000204613F0C5F900B93B4CAC60079B1BB14C
:104390000022314B83F83C20384B1B78002B40F037
:1043A0005181374EB278002A00F04C81354C237889
:1043B000013B0D2B00F23481DFE813F008011B01F3
:1043C00025017401320132018D01C80112052E054B
:1043D0003F055E056905720599F82000C0EB4013A2
:1043E00000EB8300C000F6E65AF8241059F82400C8
:1043F00012F0D2FE414612F0D9FF47F824000134F2
:1044000009E7B5F86C30013BA5F86C301CE757F8AC
:10441000240058F8241012F0C1FE47F8240049F88F
:10442000240001341BE7A5F86C601CE700261AE79E
:104430000223089324E700BF401E0020EC10002058
:10444000621E0020703A00201C1C00202001002069
:10445000FC100020344100207C100020C4110020FA
:10446000B8360020323400200000002035FA8E3C9F
:10447000DB0FC93F00C0F94400C0F9C41C2500206F
:10448000B02B00209E1C00200AD7233C022C15BF15
:104490003878787897F802B097F809B012F032FFC0
:1044A000414612F083FF4FF08041064613F03AF97F
:1044B00060B14FF08041304612F06EFE8F4912F02D
:1044C00075FF0146304612F069FE0646A3000493CC
:1044D0008B4B8C4953F8240012F068FF8A4A20F075
:1044E0000043049342F82400049B884A824642F821
:1044F0002430BBF1000F1FD0584612F003FF414695
:1045000012F054FF83465146504612F04FFF049973
:1045100012F04CFF594612F049FF59460B9048469D
:1045200012F03AFE0B9A0146104612F037FE014691
:10453000504612F03BFF82467549304612F036FF76
:10454000514612F033FF0A9B064613F8010B0A93FB
:10455000F0B112F0D7FE414612F028FF049912F094
:1045600025FF6C49824613F0DDF858BB0021504608
:1045700013F0BAF840BB5146484612F00DFE014612
:10458000484612F0C7FF0146304612F00FFF0646BC
:10459000099B0C2B05D1304613F0E4F85E4B23F851
:1045A00014005E49304613F0A9F800B95B4E5C492F
:1045B000304613F0ADF800B9594E5A4BA200D65010
:1045C000013469E64146DBE74946D9E7564B1B789B
:1045D000DA0707D580200FF076FC08B107F0B0F8B5
:1045E0000BF0D2F81F2011F07DFFC8B10C2323700F
:1045F00016E000224D4B1A604D4B1A604D4A12686E
:104600005A600323F3E70DF0E5FC494D494B1A6866
:104610006B686433934203D240200DF0B3FCF0B1D9
:104620000DF000FD002800F0428423780C3B022BA3
:1046300008D901232370404B93F8C72012B1002200
:1046400083F8C7203D4B1B78072B05D105F0B4FD3F
:10465000069BC01A304B98800FB0BDE8F08FDFF892
:10466000E8804027C246DFF8C4902B6818F80300A2
:1046700068B10DF067FDD9F80030013F03F1FF3359
:10468000C9F800302B6803F101032B60EDD12B68D2
:104690001AF80330002BC3D12B604FF0FF336B604F
:1046A0000423A4E70DF096FC254A5021A2F10C0347
:1046B00001932923029200934920A2F10A03163A9A
:1046C0000AF08CFF0028ABD14FF0FF32184B186076
:1046D0005A6007238BE70DF07DFC05230021009332
:1046E000184B02910191A3F1080253200AF076FFC2
:1046F000002895D10E4B1860082378E7D7A36841AE
:10470000703A00206F12033BDC110020E8110020FA
:1047100000004843A4707D3F1C1C002000C0F944E9
:1047200000C0F9C4C41100206C310020AC2B002063
:10473000341E0020603400207C100020621E002007
:104740009AA5010878A7010834A501080DF042FCDC
:104750008F4B186813F00CFB8E4B8046186813F0D3
:1047600007FB814640200DF00DFC00287FF458AF78
:10477000894D8A482F6841784C2F00F2E483DFE8A6
:1047800017F04D005300610068006C007000760067
:10479000840088008D00920097009E00A300B00066
:1047A000BA00BF00CB00D000D500DA00E300EC0077
:1047B000F500FE00790182018B019401A201AB0199
:1047C000B401BD01C601CF01D801E101EA01F00148
:1047D000F901000206020C02120218021F02260250
:1047E0002D0233023902400247024D0253025902A0
:1047F0005F02640269026E02730278027E02DB02CB
:10480000E802ED02F202F702FD02020308030D03C3
:10481000120317031C03210326032A03604A61497C
:10482000614811F091FD09E0604B614A0193614BD1
:10483000614900936148624B11F086FD2B6801339A
:104840002B60EDE65F4B604A6049614811F07CFDEA
:10485000F4E7604A53496048E3E7604A51496048D9
:10486000DFE7604B6049B3F900206048D9E711F0F9
:10487000A9FD32885B494243B1F90010034692FB1F
:10488000F1F25B48D2B25B49E0E7328856495A48B8
:10489000C7E75A4B54491A8A5948C2E7574B5249FD
:1048A0005A8A5848BDE74FF07E5257495748B8E7F3
:1048B0001FFA89F31FFA88F255495648C6E7564B46
:1048C00056499A8A5648ACE7564B1B68DB0405D517
:1048D000554B524993F898205448A2E70F232B6078
:1048E000ACE7534953488B784A780978009152498C
:1048F00011F02AFDA2E7514B48491A88504890E729
:104900004B4B9B79012B99D1474A4149B2F99C30D5
:104910004C48B2F99E2099E74B4B33491A684B48F3
:104920007FE74B4B30499A784A487AE74A4B2E4901
:104930001A784A4875E70C233B4A494803FB012192
:1049400091F8A02028496CE70C23374A454803FB1F
:10495000012191F8A220244963E70C23324A4248FE
:1049600003FB012191F8A1201F495AE70C232E4A8D
:104970003E4803FB012191F8A9201B4951E70C2374
:10498000294A3B4803FB012191F8A320164948E737
:10499000BC1C00203C120020341E00202C170020DC
:1049A0009AC3010884D40108A6C30108E5C301081D
:1049B000BAC3010879C30108C5C30108D3C30108FC
:1049C000B4C3010891C3010885C3010860CC010884
:1049D000EAC3010808000020F8C301083F1B0020BB
:1049E0000BC4010828410020AFC9010816C4010802
:1049F00027C4010821C4010832C40108A41C0020F6
:104A00003AC4010846C4010844CE010852C4010852
:104A100029C501085DC40108C41B00204FCC010852
:104A200069C40108A01C00207C10002070C401088B
:104A30003225002084C401087BC40108BA1C002070
:104A400094C401089CC4010898390020AAC4010834
:104A5000F6360020B3C401081C300020C3C401088E
:104A6000D5C40108DDC40108E5C40108F1C401088A
:104A7000FDC401080C23854A854803FB012191F8F8
:104A8000A4208449CDE60C23804A834803FB0121FE
:104A900091F8A8207F49C4E60C237C4A7F4803FB99
:104AA0000121B1F8AA207B49BBE60C22774B7C4858
:104AB00002FB013191F8A63091F8A52091F8A710DA
:104AC0000091784914E7784B784819684B780A7850
:104AD0008978009173490BE7734B754819680B7916
:104AE000CA78497900916F4902E76F4B714819689C
:104AF000CB798A79097A00916A49F9E66A4B6E485E
:104B000019688B7A4A7AC97A00916649F0E6664B51
:104B10006A4819684B7B0A7B897B00916149E7E60B
:104B2000614B674819680B7CCA7B497C00915D49E1
:104B3000DEE65D4B63481968CB7C8A7C097D009179
:104B40005849D5E6584B604819688B7D4A7DC97D28
:104B500000915449CCE6544B4E491B685B481A7E81
:104B60005FE6514B5A4819680B7FCA7E497F009116
:104B70004C49BDE64C4B47491B68564893F82620E4
:104B80004FE6494B43491B6853481A8C49E6464B4C
:104B900040491B685148DA8B43E6434B3D491B684B
:104BA0004F485A8C3DE6404B3A491B684D489A8C19
:104BB00037E63D4B37491B684B4893F8272030E6D2
:104BC000394B34491B68494893F82C2029E6364B69
:104BD00030491B68464893F82D2022E6324B2D4978
:104BE0001B6844485A8E1CE62F4B2A491B684248D2
:104BF0009A8E16E62C4B27491B68404893F83620BE
:104C00000FE6294B23491B683D4893F8372008E6F7
:104C1000254B20491B683B481A8F02E6224B1D4951
:104C20001B6839485A8FFCE51F4B1A491B683748E7
:104C30001A8DF6E51C4B17491B6835485A8DF0E56F
:104C4000124B14499A783348EBE5104B1149DA7846
:104C50003148E6E5314B0F49DA783148E1E52F4B31
:104C60000C491A792F48DCE52C4B0A495A792E4811
:104C7000D7E52A4A2D49D3892D485289E6E5274AA6
:104C80002A49138A2B489289E0E500BF7C10002056
:104C900005C50108AFC901080EC5010817C50108FF
:104CA0002FC5010826C501085C1E002035C5010876
:104CB0003DC5010846C501084DC5010854C5010898
:104CC0005BC5010863C501086BC5010874C501080F
:104CD0006DC501087BC501088DC501089AC501088D
:104CE000A5C50108B4C50108C7C50108D4C5010898
:104CF000E2C50108F3C501080AC601081CC601087F
:104D000036C601084CC601085AC6010864C6010827
:104D100071C601083ADE010882C60108F636002095
:104D20008FC6010898C60108AAC6010829C501084E
:104D3000BAC60108C8C601088D4B188812F0E2FAFD
:104D40008C4912F033FB12F00DFD8B4902468B4863
:104D500067E5874B8849DA78894862E5894B864957
:104D60005A7989485DE5894B8349DA78884858E55E
:104D7000884B814993F8C420874852E5874B7E4988
:104D80009A7F87484DE5854B7B4993F820208548DD
:104D900047E5824B78495A8C834842E57F4B7649F8
:104DA0001A7A82483DE5824B73491A79814838E581
:104DB0007F4B71499A78804833E57D4B6E491A885C
:104DC0007E482EE57A4B6C49DA897D4829E5827860
:104DD00069497C4825E57C4B67491A687B4820E592
:104DE0001A2011F07FFBA0B1794B1B888BB9794B4E
:104DF0000CA91B680E200C93059B0D930AF034F947
:104E0000754B1A68754B1A600A23237005980AF0CF
:104E100079F90AF0F3F803E4714B1B78002BF5D015
:104E20001A2011F05FFB0028F0D15A4B93F8C730DD
:104E3000002BEBD109232370EBE76A4B1A686A4B0E
:104E40005B68C833934211D2B378032B0BD1674D03
:104E5000286806F05FFC00232B60654B1B78022B53
:104E600001D106F05BFE0123FFF7C1BB0DF0EEF8A8
:104E70000028E9D1FFF7D4BB012A01D104F07AFF61
:104E80000D231320237006F0C1FEFFF7C9BB012AD2
:104E900004D104F033FE00283FF4C2AB0E23F0E748
:104EA0001F2011F01FFB00287FF4BAABDBE7F3787B
:104EB000002B3FF4C7AB4F4B1D7815F0010508D10F
:104EC0004D4BDFF83C911F784C4BD3F80080BD422E
:104ED0001ADB444B2F4D1B68D5F8C8209A4222D9C3
:104EE0002378012B7FF4AEAB2A4C94F8C720002A1C
:104EF0007FF4A8ABB378032B0ED00AF045FC012356
:104F000084F8C730FFF79EBB414659F8250012F0E0
:104F1000E1FB20B30135DAE780200EF0D4FF002852
:104F20007FF490ABE9E72378012B3FF48BAB95F846
:104F3000C730002B3FF486AB0AF008FC002385F84D
:104F4000C730FFF77FBB0DF081F800283FF468AB56
:104F5000214B1A68214B1A600A23FFF748BB214BEB
:104F60000C4A1B6803F59C530833C2F8C830B7E7F6
:104F7000221600200000C842AFC90108DAC60108A5
:104F8000E5C60108FA350020F2C60108B81600206F
:104F900000C701087C1000200DC70108B8360020AA
:104FA00023C7010834C701084EC7010868C70108B4
:104FB000A41C00207AC701088BC701089EC70108FE
:104FC000ADC70108BEC70108C4190020C9C7010840
:104FD000981C0020941C00207C1E0020901C0020A7
:104FE000631E002060340020341E0020B82B0020F7
:104FF0003D1E00206C310020241C002020250020B4
:10500000B0230020000000002DE9F0435C2885B0AB
:1050100005460C4600F0898500F2D5803A2800F05C
:10502000898341D82C2800F03C8410D8222800F035
:10503000B38304D80A2800F03783002043E02628F1
:1050400000F07A832A28F8D1BA4B197881E3322804
:1050500000F080840FD82E2800F082843028ECD114
:105060000025B54E56F825102046013504F0F0F91C
:10507000402DF7D144E1342800F0DC833628DCD120
:10508000AE4DAF4F05F12006002395F90220D91946
:1050900091F90610914200F086850833202BF6D155
:1050A0000835AE42F0D12BE1462800F0B58436D861
:1050B0003D2800F04C8309D83B28BED101200B6865
:1050C0005A1C0A60187005B0BDE8F083402800F053
:1050D00044844228B1D1974B20461A780B68994DE9
:1050E000591C21601A70984B196804F0B1F9974B5C
:1050F00020461A7A2368591C21601A70298804F006
:10510000BBF9A988204604F0B7F92989204604F0A4
:10511000B3F90021204604F0AFF9002106E34F283F
:1051200000F0B18420D84B2800F0FA834D2884D1B8
:105130000025874F874E3B789D4280F2E1802368AF
:1051400016F81510581C06EB4502206019705178AE
:10515000204601EB810101EB810101F2EE2189B2D0
:1051600004F08AF90135E6E7502800F06C845A28EB
:105170007FF463AF784E0B68F278002A00F0CA849F
:105180005A1C0A6008221A700B685A1C0A60012215
:105190001A70724D23682A79591C21601A7023688D
:1051A000AA78591C21601A702988204604F064F9F5
:1051B000E989204604F060F92368F279591C2160DE
:1051C0001A70EA7815E1702800F0C88200F21681A2
:1051D000672800F0788200F29580602800F0D4847F
:1051E00052D85E287FF429AF00260021204604F023
:1051F00043F90021204604F03FF90021204604F045
:105200003BF92368564D5A1C22601E702B682046BD
:1052100093F82C202368591C21601A702B6893F88E
:1052200036202368591C21601A702B6893F83720A8
:105230002368591C21601A7023685A1C22601E7052
:1052400023685A1C22601E7023685A1C22601E703C
:105250002B68598F04F010F92B682046198F04F041
:105260000BF92B68204693F82E202368591C2160E7
:105270001A7023685A1C22601E702B68598E04F025
:10528000FBF82B68998E51E2652800F05181662861
:105290007FF4D3AE334EB28AB2F5006F00F20082D3
:1052A000B2F5806F00F2FE81B2F5007F2CBF0227BD
:1052B000012700257319996B204691FBF7F10435FE
:1052C00089B204F0D9F80C2DF4D10125264E274FD0
:1052D000396A56F8250012F01DF912F049FD013522
:1052E00081B2204604F0C8F8042DF1D10025204EEB
:1052F00036F825102046013504F0BEF8032DF7D10D
:105300000120E0E66C2800F0FA8135D8682800F02A
:10531000E08169287FF491AE00250D4E154F33785A
:105320009D42EDDA37F81510204604F0A5F8013556
:10533000F5E700BF601E002070310020AA39002070
:10534000D0390020780C0020C4190020B836002085
:10535000A8360020AE2E0020F6360020A41C002027
:105360005C1E0020C41B0020983900200C37002050
:105370000C1C0020043400206D2800F0D0816F2820
:105380007FF45BAE634D2B681A780B68591C216063
:105390001A702B689A782368591C21601A700023B0
:1053A0002A681A44517922680133501C032B20606B
:1053B0001170F5D12B6820461A7A2368591C216098
:1053C0001A702B68DA782368591C21601A702B68D0
:1053D0001A792368591C21601A702B68598904F0C6
:1053E0004BF82B685A7A2368591C21601A702B6875
:1053F0005A782368591C21601A7081E77F2800F0D1
:10540000C7823ED87C2800F0518325D8752875D0F6
:1054100078287FF412AE404D05F16006A988204639
:1054200004F02AF8E988204604F026F82989204665
:1054300004F022F82368AA7A591C21601A702368A4
:10544000EA7A591C21601A7055F80C1B204603F0AB
:10545000FFFFAE42E2D153E77D2800F032837E2881
:105460007FF4EBAD2D4B1A780B68591C21601A7034
:105470002B4B9A782368591C21601A70294B9A7813
:10548000B7E7962854D009D8832800F0F8818528FA
:105490007FF4D3AD234BB3F900103BE1F02800F0CB
:1054A000F981F1287FF4C9AD1F4B03F17001226827
:1054B0001878551C2560107022685878551C256096
:1054C000107022689878551C256010702268D87872
:1054D000551C2560107022681879551C25601070C5
:1054E00022685879551C2560107022689879073316
:1054F000551C994225601070D9D101E70B4A12F86A
:10550000013F002B3FF4FCAE2168481C20600B706B
:10551000F5E700BF34410020BC2F0020F636002004
:1055200022160020B81600204A2F002097A7010855
:1055300000264FF6FF78AA4FDFF8EC92009601960E
:1055400002960396F1574B1C0BD048FA06F3D80786
:1055500007D5B9F800303341DA0702D502A804F0C4
:1055600043FA01360B2EEDD100260FF26C29D9E952
:10557000008932464046494611F05CF9002100F0AE
:10558000010050EA010307D0F0B210F0ABFF18B1F0
:10559000314602A804F028FA0136252EE9D1002769
:1055A0003E46904BDFF884821B78DB0742BF029BAC
:1055B00043F0010302933946404604F021FA48B112
:1055C000394602A804F01CFA18B13146684604F0C6
:1055D0000BFA01360137252FEDD1834B2046B3F866
:1055E000501003F049FF814B20461988804F89B243
:1055F00003F042FF7F4B204619684A01C1F3400384
:1056000002F020021343C1F3800243EA4203C1F3D4
:10561000C00243EA8203C1F3401243EAC20301F02D
:105620001001194303F028FF04226946204603F0C5
:1056300005FF23683A78591C21601A706E4B20468A
:1056400019886429A8BF642103F016FF962D22D182
:1056500023685A1C226003221A7023687A78591C26
:1056600021601A700822193E96FBF2F2236882F339
:105670000402591C216020461A7001A903F0DEFEC5
:1056800023685A1C226010221A705C4B198820462D
:1056900003F0DEFE34E60021204603F0EDFEE1E7F4
:1056A000082706E6042704E6554811F0BBF8002356
:1056B00053498342BFF624AE22685D5C561C2660C7
:1056C00001331570F5E710224E49204603F0B6FE6F
:1056D00016E6002518264C4FDFF8548106FB0573AB
:1056E000597C31B92046013503F0C6FE082DF5D1AD
:1056F00006E658F8250012F05BF881B2F2E7434D58
:105700002046298803F0B8FE6988204603F0B4FEDD
:10571000B5F904100A2391FBF3F189B206E03C4B82
:105720002046196803F094FE3A4B1988204603F08E
:10573000A3FEE5E50021AAE7374D2046298803F0BE
:105740009BFEA988204603F097FE2989EEE7334B9C
:1057500099782268501C2060117049E60021304879
:10576000036801EB41029D5C236801315E1C2660E9
:105770001D7003680A2913445D78236803F101064C
:1057800026601D70036813449A78236803F10105AD
:1057900025601A70E4D1B3E5224D05F15006287852
:1057A00010F0E7FC2368027A591C21601A70236804
:1057B0006A78591C21601A702368AA78591C2160E4
:1057C0001A702368EA780435591CAE4221601A70B9
:1057D000E5D195E5AFF3008090E33FF408000000C9
:1057E000C8A701086C310020200100205836002095
:1057F0002C170020581E00208E170020682500203E
:105800003F1B0020801C0020D8230020243C0020C7
:10581000A410002014150020780C00204011002056
:105820005C1E0020E019002032340020880C00208B
:10583000281C0020AC4B03F15A0122685879551CF2
:105840002560107022681878551C25601070226839
:105850005878551C2560107022689878551C256072
:1058600010702268D878551C25601070226818794D
:105870000633551C994225601070DED140E59B4DE2
:105880002046298A03F0F8FD698A204603F0F4FDDA
:10589000A98A4BE7964D2046E98903F0EDFDA989D9
:1058A00044E7944D0B682A7A591C21601A70A98B21
:1058B000204603F0E1FD298B204603F0DDFD698BD6
:1058C000204603F0D9FD2368EA7C591C21601A7038
:1058D000A98C204603F0D0FDE98C204603F0CCFDD6
:1058E0002368AA7F591C21601A70236895F820202C
:1058F000591C21601A70698C204603F0BDFD236895
:10590000EA7A591C21601A70E968204603F0A0FD6C
:1059100023682A7C591C21601A7095F8212068E5BB
:10592000754D0B682A79591C21601A7023686A79B1
:10593000591C21601A702988204603F09DFD2368B8
:10594000AA79591C21601A706988204603F094FDD9
:10595000EA794EE5674B5A7D4BE508226549B4E686
:10596000664D05F14006B5F80011204603F084FDB0
:10597000236895F80221591C21601A70236895F854
:1059800003210435591CAE4221601A70EBD1B7E4F3
:105990005A4D002306272846002107FB03F62268FC
:1059A00002F1010EC4F800E01370226802F1010E4A
:1059B000C4F800E011708A192A4492F840E1226884
:1059C000013102F1010C0629C4F800C082F800E0A0
:1059D000E5D10133062BDFD1002221684D1C256063
:1059E0000B7021684D1C25600A70811891F8645174
:1059F000216801324E1C0B2A26600D70EDD1236800
:105A00005A1C226007221A7023685A1C2260002246
:105A10001A7090F87021ECE404F070F8002814BFBC
:105A2000032202222368364D591C21601A702988EE
:105A3000204603F00DFDA968204603F009FD04F09F
:105A40003DF8014623E601250B682E4E5A1C0A60DC
:105A50001D700B68B278591921601A7010F0B2FCF1
:105A600033885843284BB3F9003090FBF3F0236898
:105A70005A192260187010F0A5FC23685A19226088
:105A80001870318852E600250B6820465A1C0A60BF
:105A90001D700B685A1C0A601D700B685A1C0A6046
:105AA00029461D7003F0D4FC2946F0E5174D204629
:105AB000298803F0E1FC6988204603F0DDFCA98811
:105AC00034E6134B22681978501C2060117022684C
:105AD0005978501C206011709A782368591C2160F5
