:020000040800F2
:100000000050002085710108217201088D5F0108F0
:10001000217201082172010821720108000000000C
:100020000000000000000000000000002172010834
:100030002172010800000000217201088D3F0108B3
:100040002172010821720108217201082172010840
:100050002172010821720108CDF70008D7F70008C6
:10006000D5F70008D3F70008D1F700086588000825
:10007000558800084588000835880008258800084C
:1000800011880008FF870008217201082172010809
:10009000217201082172010821720108CFF70008BE
:1000A000217201088D100108217201087D100108DC
:1000B0006D1001085D1001084D1001084B8B000800
:1000C000518B0008418B0008478B00082172010802
:1000D000217201088DBD000881BD00082172010850
:1000E000CBF700082172010821720108000000000E
:1000F0000000000000000000000000000000000000
:0C01000000000000000000005FF808F1A3
:100110002DE9F04FB0F908300546D8B2522885B025
:100120000C4617460B8100F02E8700F22D813428F3
:1001300000F0038500F2B680242800F07D8573D896
:10014000042800F0F68249D8022800F0D78200F295
:10015000E182012800F0C382F52895E8480041F0CB
:1001600073809E420FBFFF23591C296013F8021BA6
:10017000AE4A16BF2B6082F8313082F8311092F807
:100180003130FF2B4FF0000341F05880A84A184649
:100190009046995801B108801433F02BF9D100260C
:1001A0004FF01409A34BA44D31463022A3481E70D2
:1001B0002E7019F0E2FD8DF80F60A04E9DF80F3003
:1001C0000B2B41F2148023682A78591C21601A7085
:1001D000002F00F09D829A4B3B6099E20A2800F0C4
:1001E000E782222800F084840528B5D10023954DAC
:1001F0002268595D0133501C0B2B20601170F7D120
:100200000023914D2268595D0133501C082B20605A
:100210001170F7D10023194622680133501C072BB7
:1002200020601170F8D173E22C2800F04A8518D8AC
:10023000282800F027852A2800F03B8526288BD126
:10024000824D2046B5F8E4110CF074FEB5F8E811C3
:1002500020460CF06FFEB5F8EC1120460CF06AFE5B
:1002600056E2302800F0F085322800F0AD852E28C7
:100270007FF472AF754D05F14006B5F8AC1320461A
:100280000CF058FE236895F8AE23591C21601A70B3
:10029000236895F8AF230435591CAE4221601A70CB
:1002A000EBD135E2442800F09B8735D83B2800F09D
:1002B00015841AD8382800F0C5843A2800F09B83AA
:1002C00036287FF449AF614D614F05F120060023C8
:1002D00095F9DA22D957914201F0F2850C33302B8F
:1002E000F8D10835AE42F2D112E2402800F0748510
:1002F000422800F07E853D287FF42EAF534B2268C4
:1003000093F8B212501C2060117093F8B122236848
:10031000591C21601A70FBE14B2800F021850ED892
:10032000462800F0E585C0F0358649287FF414AFF3
:10033000484B2046B3F848100CF0FCFDE8E14F288C
:1003400000F00A86502800F0EE854D287FF404AFB7
:100350000026414D414F3B7802359E4280F2D881C4
:10036000236815F8022C591C21601A7015F8011C1D
:10037000204601EB810101EB810101F2EE2189B2FE
:100380000CF0D8FD0136E6E7702800F08D8300F20E
:10039000AA80662800F058822ED85E2800F0C68613
:1003A0000ED85A2800F04B865C2800F08D86542821
:1003B0007FF4D2AE0B685A1C0A6000221A70A7E1C3
:1003C000642800F0DF8100F2038260287FF4C4AE6D
:1003D0001E4B226893F81912501C2060117022687D
:1003E00093F82412501C2060117093F80F22236898
:1003F000591C21601A708BE16C2800F0DE8231D824
:10040000682800F0C782C0F04D8269287FF4A4AE4E
:100410000025124E124F33789D4280F2798137F8D1
:10042000151020460CF086FD0135F4E7A4050020E8
:10043000642C0020AA260020A9260020F03E0020DF
:100440009DE2000836BF010842BF0108F42E0020DB
:10045000CC340020D019002070310020F42000207E
:10046000E42100206E2800F0CB8240F2B982B94D21
:100470002B681A780B68591C21601A702B689A78BF
:100480002368591C21601A7000232A681A44517984
:1004900022680133501C032B20601170F5D12B68AA
:1004A00020461A7A2368591C21601A702B68DA7862
:1004B0002368591C21601A702B681A792368591C0B
:1004C00021601A702B6859890CF034FD2B685A7A18
:1004D0002368591C21601A702B685A782368591CAC
:1004E00021601A7014E17D2800F07A8500F28A807C
:1004F000752800F0EB8060D8732800F0798300F253
:10050000478372287FF428AE934D2046B5F86A12CF
:100510000CF010FDB5F8CC1020460CF00BFDB5F832
:10052000CE1020460CF006FDB5F8D01020460CF099
:1005300001FDB5F8B81220460CF0FCFC2268531CF3
:100540002360002313702268511C216013702268FD
:10055000511C21601370226895F84512501C2060D0
:100560001170226895F86712501C20601170226883
:100570002046511C216013700A23B5F90C1291FB1F
:10058000F3F189B20CF0D6FC236895F83822591C97
:1005900021601A70236895F83C22591C21601A705A
:1005A000236895F83B22591C21601A70236895F83E
:1005B0003D22591C21601A70AAE0782800F0808141
:1005C0007C2800F0FB8477287FF4C6AD00214FF033
:1005D0000C0C624D624805F1120700F1300E95F8DF
:1005E0003030994280F294800022CE5D0CFB02F301
:1005F00013F80E80B04501F05A8401321F2AF5D15C
:100600000131ECE7A02800F007834AD87F2800F0EA
:100610002784C0F0FF8496287FF49EAD514B20467E
:10062000B3F858100CF086FC4F4B2046198889B25D
:100630000CF080FC4D4B20461968C1F3C003C1F398
:1006400080029B0043EA4203C1F340021343C1F31B
:10065000401243EAC20301F0100119430CF06AFC96
:1006600015F0DEFC014620460CF050FC3A4B2046CB
:1006700093F800252368591C21601A703C4B198897
:100680006429A8BF64210CF055FC23685A1C226021
:1006900002221A70374B1A782368591C21601A708D
:1006A00036E0F12800F04581FE2800F0AA82F0280B
:1006B0007FF452AD284D2046B5F822120CF03AFCDA
:1006C000B5F8201220460CF035FC21E02A4A12F839
:1006D000013FEBB12168481C20600B70F7E70B6805
:1006E0005A1C0A6000221A700B685A1C0A601870A3
:1006F0000B685A1C0A601F221A70F4E100231F4D78
:100700002268595D0133501C042B20601170F7D111
:100710000120E8E10B6801205A1C0A6003221A70CC
:100720000B685A1C0A6018700B681A180A600622B7
:10073000E2E70023124D2268595D0133501C042B5F
:1007400020601170F7D1054B204619780CF0F2FBB0
:10075000DEE700BFA8130020F42E0020A40500202F
:10076000D49E01081C000020F02E00203C3E0020FA
:10077000CC130020402C0020D39E01082CBF010880
:1007800031BF01080B6820465A1C0A60E7221A7024
:10079000B24B93F8B3220B68591C21601A7023687E
:1007A00004215A1C226000221A700CF0AFFBAFE744
:1007B000AB4815F0F9FC0023A8499842A8DD5A1867
:1007C00092F8B85522680133561C26601570F4E77C
:1007D000A44B2046B3F858100CF0ACFBA24B2046BB
:1007E000198889B20CF0A6FBA04B20461968C1F30A
:1007F000C003C1F380029B0043EA4203C1F34002FD
:100800001343C1F3401243EAC20301F0100119433C
:100810000CF090FB15F004FC014620460CF076FB32
:100820008E4B204693F800252368591C21601A70CE
:100830008F4B19886429A8BF64210CF07BFB002131
:1008400020460CF077FB63E78A4E00253289B2F52B
:10085000007F94BF012704277319196B204691FB71
:10086000F7F1043589B20CF065FB0C2DF4D10025AD
:10087000814EAB19B169D86C16F002FB16F0B2FFCD
:10088000043581B220460CF055FB0C2DF1D100252A
:100890007A4EAB199989204604350CF04BFB0C2D90
:1008A000F7D135E7764B0A6803F1100153F8040BD2
:1008B0008B4242F8040BF9D123681033236027E7F9
:1008C000664D00262F464FF00E08B5F872112046EF
:1008D0000CF030FBB5F8741120460CF02BFBB5F88A
:1008E000761120460CF026FB236895F87821591CD8
:1008F00021601A70236895F87921591C21601A70BB
:10090000236895F87A21591C21601A70236895F89C
:100910007B21591C21601A7008FB06732046D3F80E
:100920007C1101360CF0F2FA082E05F10E05CCD13F
:10093000EEE64A4B03F17001226893F80201551C60
:1009400025601070226893F80301551C2560107013
:10095000226893F80401551C25601070226893F8F2
:100960000501551C25601070226893F80601551C7E
:1009700025601070226893F80701551C25601070DF
:10098000226893F808010733551C994225601070BE
:10099000D2D1BDE6002514263A4FDFF8088106FBC8
:1009A0000573197B31B9204601350CF0C3FA082DC7
:1009B000F5D1ADE638F81510F5E7334D2046298816
:1009C0000CF0B8FA698820460CF0B4FA0A23B5F99D
:1009D0000410204691FBF3F189B20CF0ABFA97E6D4
:1009E0002A4B204619680CF091FA294B20461988A9
:1009F0000CF0A0FA8CE6002120460CF087FA87E67E
:100A0000244B0A681B88511CFF2BA8BFFF232160C1
:100A10001370214B2046196881F3100189B20CF044
:100A200089FA1E4B204619880CF084FA0B4B93F878
:100A300045221B4B4AB10A211B682046594381F3CA
:100A4000100189B20CF076FA62E61968204601F3CB
:100A50000F0189B20CF06EFA5AE600BFF42E0020A6
:100A6000AC3400201C000020F02E00203C3E002072
:100A7000CC130020403E0020D0190020843E0020EE
:100A8000A6050020642C0020BA3E0020D84000209B
:100A90009C110020D01E0020CC1E0020BA13002084
:100AA000D0110020F43D00200022BF490B68985C63
:100AB00023685D1C256018700B681344987A2368BE
:100AC0005D1C256018700B681344187D2368013283
:100AD0005D1C0A2A25601870E8D119E601200B6810
:100AE0005A1C0A601870608140B205B0BDE8F08FF2
:100AF0000C27AE4AAE4E02F1500192F80135043295
:100B000007FB036393F8380023685D1C25601870A9
:100B1000236892F8FE045D1C25601870236892F823
:100B2000FF045D1C25601870236892F800055D1CA9
:100B3000914225601870E0D1EAE59C4B03F15A011F
:100B4000226893F85605551C25601070226893F8AA
:100B50005105551C25601070226893F85205551CEC
:100B600025601070226893F85305551C256010709D
:100B7000226893F85405551C25601070226893F87C
:100B800055050633551C994225601070D8D1BFE534
:100B900001264FF00C0B874FDFF8148207F1120982
:100BA00008F1300A002597F830309D4204DB002E12
:100BB0003FF4AEAD0026F5E7002215F809100BFB57
:100BC00002F313F80A00884201F0648101321F2AFF
:100BD000F5D10135E7E7216813F801EB01F1010CCC
:100BE000C4F800C081F800E0991A8842F3DCF0E70D
:100BF00001232268511C216013700133092BF8D1A5
:100C000086E500256C4E36F81510204601350CF0AF
:100C100091F9042DF7D17BE5684B204619680CF05B
:100C200075F9674B204619680CF070F9654B204642
:100C300019680CF06BF96BE55C4B204699680CF079
:100C400065F965E5594B226893F83812501C20600D
:100C50001170226893F83C12501C206011702268B9
:100C600093F83B12501C20601170226893F83D12DB
:100C7000501C2060117093F83F222368591C21609A
:100C80001A7045E5494D2046B5F840120CF052F96E
:100C9000B5F8421220460CF04DF9236895F844222D
:100CA000591C21601A70B5F8461220460CF042F922
:100CB0002EE53E4B93F8B3220B68591C21601A7045
:100CC00026E53A4D0B6895F85C22591C21601A7094
:100CD000B5F86E1220460CF02DF9B5F86A122046D0
:100CE0000CF028F9B5F86C1220460CF023F92368B3
:100CF00095F86522591C21601A70B5F878122046C3
:100D00000CF018F9B5F87A1220460CF013F92368A4
:100D100095F87022591C21601A70236895F8722288
:100D2000591C21601A70B5F8761220460CF002F9B1
:100D3000236895F85F22591C21601A70D5F860125B
:100D400020460CF0E3F8236895F86422591C2160D2
:100D50001A70236895F87322591C21601A70D7E421
:100D6000124D0B6895F8B622591C21601A70236841
:100D700095F8B722591C21601A70B5F8B8122046B0
:100D80000CF0D8F8236895F8BA22591C21601A7023
:100D9000B5F8BC1220460CF0CDF8236895F8BE22B9
:100DA000591C21601A70B3E4BC2E0020F42E0020E0
:100DB000D49E0108A405002022350020E8F7FF1F7B
:100DC000ECF7FF1FF0F7FF1FBB4B93F867220B6890
:100DD000591C21601A709BE40023B74D5A1992F8F0
:100DE000541222680133501C082B20601170F5D179
:100DF0008EE4B14D0B6895F8B322591C21601A702E
:100E0000A96820460CF082F8236895F85C22591CEA
:100E100021601A70B5F8E41120460CF08BF8B5F893
:100E2000E81120460CF086F8B5F8EC1120460CF0DD
:100E300081F8B5F8401220460CF07CF8B5F8421263
:100E400020460CF077F863E400259B4EAB19D3F8ED
:100E50002C13204604350CF059F8802DF6D157E4B8
:100E6000954D002306272846002107FB03F622683C
:100E700002F1010EC4F800E01370226802F1010EC5
:100E8000C4F800E011708A192A4492F8ECE3226851
:100E9000013102F1010C0629C4F800C082F800E01B
:100EA000E5D10133062BDFD1002221684D1C2560DE
:100EB0000B7021684D1C25600A70811891F8105440
:100EC000216801324E1C0B2A26600D70EDD123687B
:100ED0005A1C226007221A7023685A1C22600022C2
:100EE0001A70236890F81C24591C21601A700FE4B2
:100EF0000AF0F2FD00280CBF0222032223686F4D86
:100F0000591C21601A70298820460BF0FFFFE96800
:100F100020460BF0FBFF0AF0BFFD014620460BF018
:100F2000F5FFFFF7F5BB01200B685A1C0A6018702B
:100F3000614B226893F8AD15151825601170226871
:100F400093F8AB1515182560117093F8AC2523683C
:100F500019182160FFF7D0BB00250B6820465A1CEA
:100F60000A601D700B685A1C0A601D700B685A1CC1
:100F70000A6029461D700BF0C9FF294620460BF078
:100F8000C5FFFFF7C5BB0B685A1C0A6000221A7028
:100F9000FFF7BEBB00234A4D2268595D0133501C48
:100FA0000B2B20601170F7D1204600210BF0AEFF13
:100FB000002120460BF0AAFFFFF7AABB3E4D2046BA
:100FC000B5F8E8100BF0B6FFB5F8EA1020460BF0C4
:100FD000B1FFB5F8EC1020460BF0ACFFFFF798BB63
:100FE000354B226893F84C12501C20601170226817
:100FF00093F84D12501C20601170226893F84E1225
:10100000501C20601170B3F8EE1020460BF092FFD8
:10101000FFF77EBB284B226893F8FC11501C206020
:101020001170226893F81812501C2060117093F808
:101030000E222368591C21601A70FFF769BB1E4DF0
:101040000B6895F8FF2162B35A1C0A6008221A70D7
:101050000B685A1C0A6001221A70236895F8D52083
:10106000591C21601A70236895F8D420591C2160FE
:101070001A70B5F8D21020460BF05CFF1149D5F874
:10108000D80015F049FE16F0ADFB81B220460BF0FA
:1010900051FF236895F80322591C21601A70FFF74D
:1010A00037BB95F8FE21591C21601A70236895F80A
:1010B000F821591C2160CFE7F42E0020D80200202F
:1010C00036BF01080000C8429E4E0B6896F8012208
:1010D0009D4D591C21601A702B682046198C0BF00D
:1010E00029FF2B682046598C0BF024FFB6F8041218
:1010F00020460BF01FFFB6F8061220460BF01AFF31
:101100002B682046998C0BF015FF2B682046D98C54
:101110000BF010FFB6F8081220460BF00BFFB6F8E4
:101120000A1220460BF006FFFFF7F2BA864D0021A7
:1011300020460BF0FFFE002120460BF0FBFE2B6843
:101140002046598D0BF0F6FE23685A1C22600022BF
:101150001A702B6893F831102368581C206019709E
:101160002B6893F83C102368581C206019702B687A
:1011700093F83D102368581C206019702368591C8F
:1011800021601A702368591C21601A702368591C49
:1011900021601A702B686D49586C15F0BDFD16F072
:1011A00021FB81B220460BF0C5FE2B686749186C05
:1011B00015F0B2FD16F016FB81B220460BF0BAFE18
:1011C0002B6893F833202368591C21601A702B6810
:1011D00093F834202368591C21601A70FFF798BADD
:1011E000002A3FF495AA5A4B1360FFF791BA9DF875
:1011F0000F3009FB03831B7BC3B19DF80F3009FB44
:1012000003831B6993B19DF80F304A2109FB0383C7
:1012100018692B7846F823000EF040FA2B7856F820
:1012200023000EF0A4FA2B7801332B709DF80F30B9
:101230000133DBB28DF80F30FEF7C0BF2268511CBE
:1012400021601370FFF764BA4728A6EB030648D164
:1012500028460BF035FE052E07463FD928460BF0F1
:1012600045FE0026054694E80C009B1A103B394ABF
:10127000AB42A846B8BF9DB2D3683946DB1B9D423E
:10128000204688BF9DB291460BF040FE3EB92946EC
:1012900020460BF04FFE23685A1C22601E70D9F8BE
:1012A0000C307A199A42D4F800A088BFDD1B0AF0EE
:1012B000E9FC2A46514638460AF022FD23680344D9
:1012C0002360002E3FF424AA002280457FF720AA45
:1012D00023680130591C21601A70F6E70126802529
:1012E000C1E75B2800F0E78300F21981352800F0A0
:1012F000A48200F2A280292800F0A5842CD82328FB
:1013000000F07F8206D80B2800F0AD854FF0FF304B
:10131000FFF7E9BB252800F08B842728F6D1284663
:101320000BF0E4FD074EC6F8E40128460BF0DEFDA5
:10133000C6F8E80128460BF0D9FDC6F8EC01FFF726
:10134000E7B900BFF42E0020BC2E00200000204191
:10135000E15F0108D80200202F2800F056855ED8F2
:101360002B2800F088842D28D0D15A1C2A601B78A5
:10137000D04F284687F85C320BF0B8FDA7F86E0214
:1013800028460BF0B3FDA7F86A0228460BF0AEFD25
:101390002B68A7F86C025A1C2A601B78082E87F865
:1013A00065327FF6B5A928460BF0A0FDA7F87802B4
:1013B00028460BF09BFD0C2EA7F87A027FF6A8A911
:1013C0002B6828465A1C2A601A4612F8021B87F816
:1013D00070122A605B7887F872320BF087FD102E4E
:1013E000A7F876027FF694A92B6828465A1C2A6033
:1013F0001B7887F85F320BF063FD2B68C7F860023B
:101400005A1C2A601A78162E87F864227FF680A963
:101410009A1C2A605B7887F87332FFF779B9312814
:1014200000F00C8533287FF471AF5A1C2A601A78BB
:10143000A04B83F86722FFF76BB9432800F07E8446
:101440003FD83C283FF464A927D8372800F0A5846A
:1014500039287FF45BAF19465A1C2A6011F8020B39
:10146000944A042E82F838022960597882F83C1296
:1014700003F103012960997882F83B1203F104011A
:101480002960D97882F83D127FF642A9591D29605A
:101490001B7982F83F32FFF73BB93E2800F0888184
:1014A00041287FF433AF002382482A68511C296009
:1014B00011781A180133082B82F85412F5D1FFF76E
:1014C00027B94C2800F0DF830AD8482800F0A5830C
:1014D0004A287FF41BAF28460BF008FDFFF718B928
:1014E0004E2800F0F48351287FF410AF724A92F82E
:1014F0003220012A3FF60CA919465A1C2A6011F81D
:10150000020B6C4A82F8AD052960597882F8AB1558
:10151000D91C29609B7882F8AC35FFF7F9B8D2283E
:1015200000F01A817ED8CA2800F0508152D85F2876
:1015300000F0FB8247D85D287FF4E8AE5A1C2A6091
:101540001B785E4FDFF86C812846D7F8009088F84A
:1015500001320BF0CBFCA9F820002846D7F8009008
:101560000BF0C4FC052EA9F8220023D928460BF065
:10157000BDFCA8F8040228460BF0B8FCA8F8060247
:101580002846D7F800900BF0B1FCA9F824002846B3
:10159000D7F800900BF0AAFC0D2EA9F8260009D967
:1015A00028460BF0A3FCA8F8080228460BF09EFC86
:1015B000A8F80A020FF03AF907F0C6FE386812F0F0
:1015C00055FEFFF7A5B8612800F00883C8283FF44E
:1015D0009FA89BE6CE2800F0148310D8CC2800F0FA
:1015E0005981CD287FF492AE354B1B7859073FF5D2
:1015F0008FA84FF4C872334B1A80FFF789B8CF28F1
:1016000000F09181D0287FF481AE2D4B1B785807D4
:101610003FF57EA80FF0FAFC0EF0AAFA0EF0F0F8F3
:10162000FFF776B8DB2800F02D826BD8D62800F0C3
:10163000CC8149D8D32800F0A980D4287FF466AEA5
:101640000F2E7FF463AE5A1C2A601E78072E3FF6D9
:101650005DAE28460BF04AFC0E22164B02FB063606
:10166000A6F8720128460BF041FCA6F87401284642
:101670000BF03CFC2B68A6F876015A1C2A601A462F
:1016800012F8021B284686F878112A605A7886F8E4
:101690007921DA1C2A609A7886F87A211A1D2A6044
:1016A000DB7886F87B310BF00BFCC6F87C01FFF78A
:1016B0002FB800BFF42E0020A4050020BC2E00206F
:1016C000B83E002040110020D92800F0C981DA2856
:1016D0007FF41CAE5A1C2A601A46C24E12F8021B36
:1016E000284686F84C122A605A7886F84D22DA1C71
:1016F0002A609B7886F84E320BF0F8FBA6F8EE00D5
:10170000FFF706B8EF2846D015D8DC2800F0C081D6
:10171000DD287FF4FBAD5A1C2A601A4612F8020B32
:101720002A60DA1C59782A609A780CF00BFC0028A1
:101730007EF4EEAFEAE5F22800F06081FA287FF44B
:10174000E5ADA94B1B785B073FF5E0AD0EF010FA55
:101750000EF056F8FEF7DCBF5A1C2A601878060611
:101760000BD4A14B1B785D073EF5D2AF022828BFF2
:1017700000200FF03DF8FEF7CBBF00F07F000328FC
:1017800028BF00200FF016F8FEF7C2BF28460BF066
:10179000ADFBFEF7BDBF28460BF0A8FB914EA6F8A7
:1017A000220228460BF0A2FBA6F82002FEF7B0BFEB
:1017B0005A1C2A601A468B4912F8020B81F8B202B1
:1017C0002A605B7881F8B132FEF7A2BF874B1868B8
:1017D000431E00F109062A68511C2960114611F8C0
:1017E000027B03F8017F29605178B342997202F1BC
:1017F0000301296092781A75EDD10DF003F9FEF717
:1018000087BF5A1C2A601A78132A3FF67FAD002042
:101810004FF00C0C991C296075495F7801F1300E6E
:101820000CFB00F60EEB060898F80880B84500F0AF
:101830006A8301301F28F3D168E55A1C2A601978A1
:101840000E293FF663AD9A1C2A605A78032A3FF6A8
:101850005DAD0626634806FB010181F85625DA1CBA
:101860002A609A7881F851251A1D2A60DA7881F861
:1018700052255A1D2A601A7981F853259A192A602F
:101880005A7981F85425DA1D2A609B7981F85535FB
:10189000FEF73EBF092E7FF639AD56485A1C076841
:1018A0002A601A4612F8021B804639702A605B785B
:1018B000791DBB700023022B14BF4FF0640E4FF054
:1018C000FF0E28680133421C2A6002787245A8BFC7
:1018D0007246032B01F8012BEDD1831C2B6043785A
:1018E000642B28BF64233B72C31C2B608378FB707E
:1018F000031D2B60C37828463B710BF0F7FA0A2EC4
:1019000078810CD02B68D8F80020591C29601978F0
:101910000B2E51721FBF991C29605B78537014F015
:1019200011FCFEF7F5BE28460BF0E0FA2D4EA6F8A6
:101930006A0228460BF0DAFAA6F8CC0028460BF02B
:10194000D5FAA6F8CE0028460BF0D0FAA6F8D000BB
:1019500028460BF0CBFAA6F8B80228460BF0D1FACD
:1019600028460BF0CEFA28460BF0CBFA2B68284617
:101970005A1C2A601A4612F8021B86F845122A6081
:101980005B7886F867320BF0BCFA28460BF0AEFAAB
:101990002B6800EB80005A1C4000A6F80C022A605D
:1019A0001A4612F8021B86F838122A605A7886F80E
:1019B0003C22DA1C2A609A7886F83B221A1D2A609B
:1019C000DB7886F83D32FEF7A3BE00260A4F284694
:1019D0000BF08CFA27F816000136082EF7D1FEF727
:1019E00097BE00BFF42E0020B83E0020BC2E002081
:1019F000D49E0108A8130020422C00205A1C2A6003
:101A00001A780F2A3FF682AC991C2960C24859788F
:101A1000C2EBC202024482F80211D91C29609978F3
:101A200082F80311191D2960D97882F80411591D13
:101A30002960197982F80511991D2960597982F870
:101A40000611D91D2960997982F8071103F108015F
:101A50002960DB7982F808310CF092FFFEF758BE5E
:101A600028460BF043FAAC4EA6F8E80028460BF0E7
:101A70003DFAA6F8EA0028460BF038FAA6F8EC0082
:101A8000FEF746BEA54B18680EF07AFFFEF740BE83
:101A900019465A1C2A6011F8020B9F4A82F8FC0171
:101AA0002960597882F81812D91C29609B7882F82D
:101AB0000E32FEF72DBE5A1C2A601A46964F12F8B7
:101AC000021B284687F8FE112A605A7887F8F82109
:101AD000DA1C2A609A7887F8D5201A1D2A60DB78EC
:101AE000042BA8BF042387F8D4300BF0FFF9072E8E
:101AF000A7F8D20009D928460BF0F8F915F0B8F884
:101B0000874915F009F9C7F8D8002B686A689A4226
:101B100007D05A1C2A601B78003318BF012387F8AE
:101B200003320EF083FEFEF7F3BD28460BF0DEF91C
:101B30007A4F28460BF0DAF92846D7F800800BF0E8
:101B4000D5F9A8F82A0028460BF0DBF92B683A688B
:101B5000591C2960194611F8020B82F831002960DE
:101B60005978284682F83C10D91C29609B7882F865
:101B70003D300BF0C6F928460BF0C3F928460BF0B0
:101B8000C0F92846D7F800800BF0B0F915F070F8CE
:101B9000644915F0C1F8C8F844002846D7F8008019
:101BA0000BF0A4F915F064F85E4915F0B5F8112EA4
:101BB000C8F840003B460CD92A683868511C296097
:101BC000114611F8026B80F833602960527880F872
:101BD000342018680CF016FFFEF79ABD19465A1CFF
:101BE0002A6011F8020B4C4A82F8190229605978D0
:101BF00082F82412D91C29609B7882F80F32FEF7F4
:101C000087BD494B1B785A073EF582AD474A13788A
:101C100043F004031370FEF77BBD0AF09FF8002326
:101C2000434A1370434A1370434A1360FEF770BD72
:101C30000023394E2846B3600BF042F9B3681843CD
:101C4000B060FEF765BD28460BF050F9324EA6F89D
:101C5000400228460BF04AF92B68A6F842025A1CAB
:101C60002A601B78284686F844320BF03FF9A6F824
:101C70004602FEF74DBD5A1C2A601A78264B83F89F
:101C8000B322FEF745BD5A1C2A601A46224E12F8AE
:101C9000021B284686F8B6122A605B7886F8B732AF
:101CA0000BF024F92B68A6F8B8025A1C2A601B789E
:101CB000284686F8BA320BF019F92B68A6F8BC0250
:101CC0005A1C2A601B7886F8BE32FEF721BD5A1CCA
:101CD0002A601E78112E3FF619AB9A1C2A605A789A
:101CE00006F59E730C4E284606EB430632710BF048
:101CF000FDF840F6CA039842A8BF184640F2EE230A
:101D00009842B8BF18461923A0F2EE2090FBF3F0DA
:101D10007071FEF7FDBC00BFF42E0020BC2E002029
:101D20000AD7233CCDCCCC3DB83E0020C43E002099
:101D30008C2D00208D2D0020902D00205A1C2A6013
:101D4000824E1B78284686F8B3320023B3600BF02E
:101D5000B7F8B36818432B68B0605A1C2A601B7828
:101D6000284686F85C320BF0C1F8C6F8E401284634
:101D70000BF0BCF8C6F8E80128460BF0B7F8C6F837
:101D8000EC0128460BF0B2F8A6F8400228460BF00A
:101D9000ADF8A6F84202FEF7BBBC0722B6FBF2F292
:101DA000C2EBC203F61A7FF4B1AA5FFA82F8F3B26B
:101DB00098453EF4ADAC2A680136531C2B6092F96D
:101DC000007038460CF010FA814600283FF49EAAB5
:101DD000877028460BF08AF82A68A9F80000114697
:101DE000531C2B6011F8023B89F8033029605378AB
:101DF00089F80430D31C2B60937889F80630131DC2
:101E00002B60D37889F80530D1E7504E06F14007B2
:101E100028460BF06BF82B68A6F8AC035A1C2A6016
:101E20001A4612F8021B043686F8AA132A605B7859
:101E300086F8AB33B742EBD1FEF76ABC5A1C2A6076
:101E40001F781F2F3FF662AA052E7FF45FAA28464F
:101E50000BF036F83D4B03EB8703C3F82C030CF073
:101E600099F8FEF755BC00211122394817F085FF7B
:101E7000102E4FF0000328BF10263449B342BEF4A1
:101E800047AC2A68501C286010785A1882F8B805A8
:101E90000133F3E743445A6B1046019214F084F97E
:101EA000002E7EF496AE019A1346FEF79DBE0344C3
:101EB00093F8382023685E1C26601A70FEF7A0BBDA
:101EC00023682046591C21601A70B5F8D8120BF00F
:101ED00031F8236895F8DB22591C21601A702368B9
:101EE00095F8DC22591C21601A70236895F8DE22CF
:101EF000591C21601A70236895F8DD22591C216055
:101F00001A70FEF7EEB902F5A07031440F4A91F84D
:101F1000301002EB80025170D91C296099780020A2
:101F20009170191D2960D978D170591D29601B79CC
:101F30001371084B1A68084B1A6010F0F6F9074B3A
:101F400080F001001870FEF7E3BB00BFF42E002004
:101F5000AC340020BC2E00207C110020100000209A
:101F60002DE9F04F0A4B0B4C0B4A236000231068FD
:101F70000A499BB08842636016D1136062B6084B71
:101F8000186807F0CDF9074B1B689847FEE700BFBC
:101F9000C3CB0008DC050020F04F0020EFBEADDE13
:101FA00000F0FF1F04F0FF1F0A930B930C934FF4F4
:101FB000E013C04D0D932B6843F480332B60AB6965
:101FC00043F01003AB612B6803F400330B930A9BBF
:101FD00001330A930B9B1BB90A9BB3F5A06FF2D197
:101FE0002B6813F4003300F0858202230C93B24B6C
:101FF000B24F1A6842F010021A601A6822F0030207
:102000001A601A6842F002021A606B686B606B68B3
:102010006B606B6843F480636B60A94B1A68043B88
:1020200022F070425A60A74A3A606A6822F47C1231
:102030006A605A6842F000425A60DA6822F400424C
:10204000DA609B68180449BF9F4B4FF4E0133B6074
:102050004FF480130D930C9B012B00F06382022B35
:1020600005D10D9B6A68134343F480336B602B6882
:1020700043F080732B602B689901FCD56B6823F0CB
:1020800003036B606B6843F002036B606B6803F0E3
:102090000C03082BFAD16B68DFF8688203F00C039D
:1020A000042B00F04382082B00F04282854BC8F8D5
:1020B00000306B68DFF85092C3F3031319F8032064
:1020C000D8F80030DFF844B2D340C8F800307F4B76
:1020D0004FF6FF72CBF80C30AB690DF1680A43F094
:1020E0000103AB616B6A7A4EA3606B6A304643F0C2
:1020F00080736B62AB6943F01C03AB614FF000036C
:102100002AF82C2D51468DF83E3006F03DFB514605
:10211000704806F039FB51466F4806F035FB102237
:102120008DF83A2002228DF83B204FF400721AA954
:1021300021F8302D3046326106F026FB67495046C3
:102140004A6842F000724A6006F0CFFF0F9B644A73
:102150003046B3FBF2F34FF47A72E360D8F8003004
:102160004E46B3FBF2F35F4A013B5360F0238BF81A
:1021700023300023936007234FF001081360DFF83A
:1021800090C1594A09F10E01002331F802EF4EFACD
:1021900003F919F0010F18BF08FA03F903F101035D
:1021A0001EBF1060A2F804900832102BEFD100F58A
:1021B00080606045E8D13B68424A934240F0CA8162
:1021C00001224A4B1A700AF039FD18B90EF01EFFB1
:1021D0000DF0CEFC0DF014FB0021454FDFF834B1BB
:1021E0003B789BF8F92143F001033B70414BDFF84A
:1021F00028911A70DBF808300846C9F800300DF055
:10220000C5FA002101200DF0C1FA4FF00108049732
:102210004F464FF005099BF81333DFF800A12374F4
:102220000BEB080393F80F03002800F099810DF0E1
:1022300011FACAF8000080F8069080F80780122191
:10224000DAF800000DF02AFA08F10108B8F1040FDD
:102250000AF1040AE4D1002108460DF097FA0021A2
:1022600001200DF093FAAB69402243F00103AB610A
:102270000021214817F081FD4FF0FF331F4A2366EC
:10228000C2F803303B681B070AD59BF85C32012B70
:1022900006D8A5689BF8653215F0805501F0428795
:1022A00064200FF00EF8A0220021154817F065FDFC
:1022B000002535E0001002400020024014000020FC
:1022C0000410014000127A00001BB7000005FA0557
:1022D00000080140000C01400010014000000140D6
:1022E00040420F0010E000E0A42D0020A4050020D3
:1022F000FA40002020350020FC0500203C0600208C
:1023000048060020D402002078A0010800ED00E07B
:1023100000140140F42E0020CC200020F005002005
:10232000DFF83483DFF83493002355F8080059F8B8
:102330003320D900904240F040817318187F103547
:102340000FF072FEE02DEFD10425A74BA74ADFF86E
:1023500010931A6000213022A5483E6889F8005089
:1023600017F00BFD00234FF0FF0C18462946DFF84D
:10237000F4E29F4D06F040081EF9012F03EB050A19
:102380005A55B8F1000F09D11E3AD2B2012A9FBFA7
:10239000012001F1FF318AF800C0C9B20C33302BA3
:1023A000EAD108B189F800109249934AC4F80C1197
:1023B0009BF8B3A2914916F4805382F800A00392CF
:1023C00014BF0A68D4F81021DFF89C8292888C4CE4
:1023D000A8F800208B4A0593D2F8100102920588D4
:1023E00025804488884804800C6888496088088073
:1023F00020888749088087490D68B5F81890C9F585
:10240000FA6014F035FC8449ED8AE4880860A5EB95
:102410000900001B14F02CFC80490860C5F5FA6027
:10242000001B14F025FC7E49029A08607D487E4915
:10243000144608607D497E483140002940F0C38041
:102440007C4A02EBCA035B78036040F2DC51002354
:10245000794A22F813100133082BFAD1BBF8D03097
:102460000293059B13B1BBF8EC3002939BF8D43078
:10247000042B05D14FF480500DF0BAF900230293DC
:102480000026039B6D4D1A782E70A2F11703022BC4
:1024900000F2EC804FF0000AD4F80C21514690591C
:1024A00002EB060914F0CCFD002800F08E803B689A
:1024B000DE0400F1FC800023B8F90010604A22F825
:1024C000131001330C2BFAD12B78F02200215D4838
:1024D000069317F052FC9BF8D4209BF8D5105A4B6A
:1024E000042A00F20981DFE812F0B00107011401AB
:1024F00018011C012A6842F001022A600A932B6825
:1025000003F002030B930A9B01330A930B9B1BB945
:102510000A9BB3F5A06FF2D12B689E0701D501236A
:1025200064E5FEE76B6843F460139FE53B68BEE536
:102530006B686A68C3F38343D20303F1020302D4D6
:10254000424A5343B3E56A6812F4003F3A6818BF41
:102550005208F6E73E4A93427FF435AE022230E657
:10256000CAF8000070E6002108460DF00FF90021BE
:10257000A06E0DF001F978200EF098FE01210020E8
:102580000DF004F90121A06E0DF0F6F878200EF0A0
:102590008DFE01359BF865329D42E4DB9BF8663287
:1025A000012B7FF47DAEA36813F080537FF478AEE7
:1025B0008BF865320EF030F972E60133042B7FF4AC
:1025C000B6AE0020BBE601233EE7224B06EB030E2E
:1025D00099E80F008EE80F002B7810360133C02EDB
:1025E0002B707FF459AF62E7C8340020CC31002053
:1025F000CC340020002F0020FD0E00201C0E0020F7
:10260000620D0020DC050020600D0020280E002057
:10261000200E0020180E0020300E0020240E002076
:102620002C0E0020F62F0020402700202000100054
:10263000F80E0020BCAE0108A6050020EC3D0020ED
:10264000422C0020642C0020AC26002000093D0014
:10265000001BB700380E00208CBC010890A00108B8
:1026600098260020AFA001088A2D0020AF4B13F858
:10267000321003EBC2030C29297088BF0C21D3F858
:1026800004C088BF2970BCF1000F3FF410AF0026D2
:10269000DFF8F4922B789E42BFF609AF330103EBCB
:1026A000090E63440FCB01368EE80F00F2E72B785A
:1026B000012B7FF600AF4FF07C569D4F07EB0313C5
:1026C00003F1100910374F453FF4F5AE314657F886
:1026D0000C0C14F021FB314647F80C0C57F8100C89
:1026E00014F01AFB314647F8100C57F8080C14F098
:1026F00013FB47F8080CE5E708278E4A1A608E4A54
:1027000000298E4B12BF4FF001084FF0000813460E
:102710000FE08B4A18271A60F1E78A4A48271A60A7
:10272000EDE7894A18271A60002302934FF0010849
:10273000824B864D0026AA46854A1360854B7B4313
:102740000593069BB34240F3B2800BEB060393F86C
:10275000DC30184607930FF06BFD079B814600287D
:1027600079D17D4A7D4B1A60744A794B1A607C4D51
:102770002B68002B40F0AE80039B1B7803F0EF0228
:10278000082A784A40F0C9801178182B41F01001CE
:10279000117001D10CF0F4F82B68DFF8F0A1002BD8
:1027A00040F0F880704ADFF8E8811368029213F075
:1027B000010640F02981980440F176819BF81D3391
:1027C00008F5047588F8E0320AEB060393F8152340
:1027D000104605920FF02CFD074680B34FF0000322
:1027E0004FF00109059A05F80E3C05F8063CF3B2D6
:1027F00005F80F3C45F8040C05F8109C10460393AF
:102800000CF028FF039B80F806904B44C3712A21EB
:102810000CF044FF0022797938680CF031FD4A460B
:10282000002138460EF052FC504B2A1D2B60504BB5
:1028300029466B6000233846AB600EF09BFC0136E6
:10284000082E05F11C05BFD12EE14A4A01271A6066
:10285000002302936AE718460CF0FCFE4FF00302D7
:1028600028618271721CC2711A210CF017FFFAB232
:10287000B8F1000F1FD0BBF8D2300599B1FBF3F3CC
:1028800002999BB20091494628460CF06DFD002349
:102890001422B34214D1002383F001032B720123CD
:1028A0001E440C2E2B7305F114057FF44AAF012250
:1028B000314B1A705BE7CDF800804FF6FF73E2E70B
:1028C00002FB03A148686968884201D00133E0E750
:1028D0000123E1E7039B29491A78294B13F83200B9
:1028E00003EBC2035E680870002E3FF445AF00237F
:1028F000244F8342BFF640AFC3EBC3017218D2F836
:1029000000C001EB070E41F807C091880133AEF813
:10291000041092798EF80620EBE70E2B3FF434AFCB
:102920001178192B21F01001117032E7BCAE0108AB
:102930003C0E0020CDED000803ED0008C5EC0008BA
:10294000A1ED00086DED0008D9EC0008642C002012
:10295000F03D002040420F0001ED0008AC260020B1
:10296000F80E0020C43E0020CC200020BDF200085C
:1029700031EB0008C7EC0008AA260020CE26002074
:1029800094AF0108CF260020380E0020F42E00203E
:10299000DC05002000254FF00409194E0AF1F30868
:1029A00018F8017F002F3FF4FDAE38460CF052FEC0
:1029B0000135EDB23061029080F80690C57138465D
:1029C0000FF036FC0746029B1A2118460CF066FEF3
:1029D000002F3FF4E7AEBAF8F2300A4A304692FBD5
:1029E000F3F3BAF8F0209BB20092394601220CF0C2
:1029F000BBFC0123082D337306F11406D0D1D1E6B8
:102A0000F006002040420F000025FF239BF81473BE
:102A100084F8B4513846C4F8B851C4F8BC51C4F86D
:102A2000C051C4F8F45184F8F83184F8F93184F8CD
:102A3000FA5184F8FB5184F8FC510FF0F9FB9BF834
:102A4000D490064680B30268CD496B18187B18B144
:102A50005B689A4200F0C1821435F02DF5D1002553
:102A6000C4F80C6284F8005238460CF0F3FD0222E0
:102A7000C57182712A210CF011FE2A4671793068E5
:102A80000CF0FEFB0122294630460EF01FFBBD4B29
:102A9000BD4AC4F81032BD4BC4F81852C4F8143201
:102AA000111F30460EF066FB049B049A1B789BF8BE
:102AB000260343F0040313700CF0CCFD9BF827238E
:102AC000C8F8E402003218BF012288F8E82258B1A1
:102AD000242282710022C2719BF8283393420CBFDA
:102AE000122116210CF0DAFD002011F067FA2220E5
:102AF0000CF0B0FD0126272305468371C671122113
:102B00000CF0CCFD2846A24D00210CF035FE287EAD
:102B10000FF08AFA2B7E03F01F025B09022B06FAE4
:102B200002F600F06B82032B00F06D82687D0CF0E2
:102B300091FD02271223C77183710646E87D0CF0D0
:102B400089FD4FF01308C77180F80680A87D0CF04E
:102B500081FD14231B218371C77130460CF09EFD4B
:102B6000E87D0CF077FD07210CF098FDA87D0CF0B6
:102B700071FD1B210CF092FD287D38B10CF06AFD2F
:102B80001F22C771827141460CF088FD2A69814B72
:102B90009A4240F03D8203F56043D96841F4805188
:102BA000D960D96821F48051D9602B7F002B00F0C7
:102BB0004B8200231846118801F4415141F44571BC
:102BC0000B4303431380938B287D23F400631B0482
:102BD0001B0C93830723138213889BB243F040039B
:102BE000138018B10CF036FD0CF0C1FD6A4D2B7846
:102BF000032B00F02C82012005F03CFE1F200BF07F
:102C00007AFA2C200CF026FD9F238DF83830002313
:102C1000C4F8EC02074632208DF839308DF83A308E
:102C20008DF83B300EF04DFBD4F8EC020CF09AFD21
:102C300004220EA90FA80FF00DFBD4F8EC020CF043
:102C400096FD9DF83E309DF83D201B0243EA02436D
:102C50009DF83F201343514A93421BD032200EF07F
:102C600030FBD4F8EC020CF07DFDF5200FF02AFBD0
:102C7000FF200FF027FB8DF83C00D4F8EC020CF09D
:102C800076FD9DF83C30702B04D12B78022B01D1BE
:102C900003232B70029B424C1B680021C3F34002AC
:102CA0008AF81E23C3F3C0228AF8222303F0020805
:102CB00003F4006503F400461422C3F3C033204636
:102CC0008AF8203317F059F82046B8F1000F02D0E7
:102CD0009AF81F33237016B19AF82133C3739AF808
:102CE000243313B19AF82533837215B19AF823333C
:102CF000437100232A4C4FF0070826461D46DFF893
:102D0000B09009F13C0B3078E8B10CF0A3FC4FF027
:102D10000002002180F80680C2710CF0BFFC002385
:102D200031781BF813005A00884240F09F8109EB6C
:102D3000020393F83D3073700723337101236A1C3B
:102D4000B570F370D5B208F101085FFA88F8B8F1F0
:102D50000B0F06F10506D6D1002B00F0D680114EE0
:102D60004920736843F4404373600FF05DF90E4AE5
:102D70000E49304600234FF01C0C96460E4619E0D3
:102D8000642C002059EB0008F00700208DEC0008AF
:102D9000AC03002000300140A405002015202000D5
:102DA000EC10002000100240E80200200800024061
:102DB00078A001080CFB0328D8F80480884540F06F
:102DC0005B81DBB21C2101FB03E3426919694FF00F
:102DD00000080A434261062283F819801A76B8482F
:102DE00006F0FFF90FA806F0D1F9B64B022D0F93AC
:102DF000B54B0FA9109334BF4346802314934FF46F
:102E0000807315934FF480631693202317934FF428
:102E10000053AB4812951893CDF84480CDF84C8000
:102E2000CDF8648006F0BFF9012D94BF0022012285
:102E30003368A64943F0010333604B68072623F447
:102E4000702323F4807343EA02234B608A68A04B0B
:102E5000DFF8A8E2134043F4602343F002038B60E1
:102E6000CA6A6B1E22F47002DBB242EA0353CB62E1
:102E70001F250123E2784AB394F80180581CB8F169
:102E8000090FC0B294F8049040F2FC80A8F10A0245
:102E9000D1F80CB002EB420C06FA0CF22BEA020B52
:102EA00009FA0CF242EA0B02CA60062B00F2F78024
:102EB00003F1FF3C4A6B0CEB8C0C05FA0CF322EA95
:102EC000030308FA0CF21A434A6303460534A64585
:102ED000D0D17E4B9A6842F480729A609A6842F030
:102EE00001029A609A6842F008029A609A68110793
:102EF000FCD49A6842F004029A60744B9A685207B4
:102F0000FCD49A6842F4A0029A60DAF8E40100283E
:102F100041F09881DAF8E831002B41F09381DAF83A
:102F2000EC31002B41F08E816A4C6B4B6B4E58227A
:102F300000212046336016F020FF694B2320E36216
:102F40000EF0BFF90DF126020121752008F02CFCCE
:102F5000002800F0E280634B0DF127022363624BEF
:102F6000012163634323002084F8443008F01CFCF3
:102F70009DF8273003F07E038DF82730002840F0BD
:102F8000D4819DF8263003F07E03682B8DF826301F
:102F900040F0EE810223062184F827300FAA236B2C
:102FA000084698479DF841309DF83F209B0052000D
:102FB00002F0020203F0040313439DF83D2002F0E7
:102FC00001021343DAB2002B00F0C581012A40F060
:102FD000B681002384F82830E6E009F1FF33032BA3
:102FE0003FF63DADDFE803F00208060808223F4B3C
:102FF0001A7034E54822FAE71822F8E73C4BDA6801
:103000001643DE6092E53A4B1A6916431E618DE560
:10301000384B9A420AD103F5EC33196941F48041E7
:103020001961196921F480411961BEE5324B9A4258
:103030007FF4BBAD03F5EA33196941F4004119612E
:10304000196921F40041EFE701230220B3E50220D2
:103050000BF0CAF818B10388002B7FF4D2AD022020
:103060000BF049F8012005F005FCCAE501330A2BF5
:103070007FF457AE00235EE60133072B7FF49AAE50
:1030800000239FE60A6908EB480B06FA0BFC22EACC
:103090000C0C09FA0BF242EA0C020A6105E70C2B50
:1030A0002ED8DA1FD1F830C002EB820205FA02F303
:1030B0002CEA030308FA02F21A430A6305E700BF89
:1030C000080002404C24014000110020002401406F
:1030D000FDF7F1FFD0190020F0300020341A002055
:1030E000C8A00108A9B7000849B7000800000020DF
:1030F0000010024000380040003C00400011002059
:103100000D3BCA6A03EB830305FA03FC22EA0C02B7
:1031100008FA03F31343CB62D7E69F4D95F8F032DC
:10312000EBB91C22FB71BA7113213846C5F8F47251
:103130000CF0B4FA994A138823F040031B041B0CCB
:103140001380138823F038031B041B0C138013888F
:103150009BB243F040031380012385F8F0320FAA9D
:103160000121752008F0ACFA9DF83C30702B0CD092
:1031700004D8122B00F0D780002307E0712B00F059
:10318000D080AF2BF8D1082300E0052385F8F83272
:1031900095F8F83243B184F82730432384F844305B
:1031A0007F4B23637F4B6363002384F8263094F8BE
:1031B00027307D4D042B40F0D4877C4A22607C4A26
:1031C000063B62607B4ADBB2E2607B4A032BA26172
:1031D00096BF7A4A07239B184FF0010298BF93F8D5
:1031E000513084F82620002B00F0E287744A75489D
:1031F00011684370073B042B41F0010111609346B5
:1032000084BF00223368039088BFDA713368DF78A7
:1032100017B1072F40F0B7809878DB79002B00F0CA
:10322000AD800223684E84F82330431E84F8243096
:1032300013F01EFD314613F06FFD13F06FFF634E68
:103240002368A06484F822706148984706F07CF8EF
:10325000402200213046A76C16F08FFDDFF888E190
:1032600006F1140CBEE80F00ACE80F009EE8030066
:103270003EF8193C8CE8030042F2022E012041F690
:10328000FD5C7382444B9AF81912B27C93F8F88271
:1032900002930E290B4628BF002300FA03F111EA1E
:1032A0000E0F40F0A58011EA0C0F00F0A180042A57
:1032B00040F06087474B3360474B082A73604FF0FC
:1032C0000103737400F05F87092A62D0062A0CBFDD
:1032D0000A230823039A3D489370DBF8003043F03B
:1032E0000203CBF800304FF4807333813368984782
:1032F0004FF47A73F362394B1A889946002A7DD0CD
:103300000027DFF8E880B9F8000013F0ADFCF26A9E
:10331000014608EB07001C370AF030F8542FF2D1B1
:103320006CE0062332E7092330E7682B7FF429AEEF
:10333000012384F827301D2384F8443034E7022A1F
:1033400001D1012346E603F00303032BF9D0032048
:103350000DF0C1FF28E7236B0EAA01210C2098472E
:103360009DF8383013F00F03F1D0042BE9D130E68B
:10337000702B04BF042384F8273015E70123184E6F
:1033800084F8233051E70023164E84F823300120BF
:103390004BE70C239EE700BFDC050020003800400F
:1033A000C1B60008F1B60008F42E0020B5B7000839
:1033B00017B6000803B6000890C1793D78A001084F
:1033C0003C3E0020000000200000FC41403E002068
:1033D000D0190020E1B500085FB60008E6350020EE
:1033E0000000FA4200007A44001A0020E83500206C
:1033F000012B4FF000013FF64CAF71740022914B4E
:103400009A619AF82432042B00F22C824FF00109C1
:1034100009FA03F212F0120768D112F00D0F00F052
:103420001E820A200DF04DFF0EAB4A46A0217720E8
:103430000EF076FE8046002858D01AAA02F8419D68
:103440001E2177200EF02CFE4FF42F600DF02EFF82
:10345000B946A7F160010FAB0222C9B277208DF8FF
:103460003C908DF83D900EF05BFE9DF83C209DF861
:103470003D3043EA0223744ABB520237102FE8D191
:10348000029BB3F8082302F47F40A3F8080300234B
:103490001F4602F00F01029A27F0010E7244B2F8A3
:1034A000FA22002A18BF4FF0000817F0010F1ABFC8
:1034B000D2B2534083EA1223082213F4004F18BFFC
:1034C00083F4C053013A4FEA4303F6D10137102F7A
:1034D000E1D140EA01020298A0F80823B8F1000FF8
:1034E00004D1C3F30333994200F050869AF8FC31BB
:1034F0000BB184F8263095F8183203B1737495F83F
:103500000E320BB14F4A13720121504A084613780C
:103510000A2643F0020313700CF038F90021084624
:103520000CF034F901200CF087F800200CF084F83E
:1035300019200DF0C6FEDAF8B035D90302D4012007
:1035400010F03CFD19200DF0BCFE002010F036FDFF
:10355000013EE7D1314630460CF018F931460120E2
:103560000CF014F99AF8F831A06C394C5843394BE7
:10357000394F186013F078FB384913F0CDFB384B06
:103580001860206810F072FE20680BF03BFA354B93
:10359000354C587A13F06CFB344913F0BDFB3449B9
:1035A00013F0B2FA09F0E7FD324B1860388913F0D6
:1035B0005FFB0146304813F063FC304B186010F09D
:1035C00047FF1E22FF21204616F0D7FB012226705E
:1035D0002B4E2C4B31681A7011F4800F02BF02225F
:1035E0001A701B220297284F08BF6270D7F800E0BC
:1035F00020461EF0020F0ED001244FF0020C1A7864
:1036000084541419E4B200F804C0D41C1C700524BE
:103610006244D2B284541EF0040F04D01A78541CB1
:103620001C7003248454CA0504D51A78541C1C70D9
:103630001A2484549AF8B342082C27D00E2C2ED189
:1036400024E000BF843E0020D6080020FA4000207D
:10365000BC2E00206C3B0020403E0020BD3786354C
:1036600080270020A03E0020B605002035FA8E3CC1
:10367000DB0FC93FC03E0020A889803AD04000201F
:10368000CC200020D40500203C3E00201A7802F116
:10369000010E83F800E04FF00B0E00F802E04FF04F
:1036A0000C0C1A7811F4803F02F1010E00F802C0F0
:1036B0005FFA8EFE18BF023283F800E01EBF1A7058
:1036C0000E2200F80E200A0308D51A7802F1010E26
:1036D00083F800E04FF0190E00F802E04FF01D0CE7
:1036E0001A7811F4805F02F1010E00F802C05FFA4F
:1036F0008EFE18BF023283F800E01EBF1A701C2233
:1037000000F80E208A0608D51A7802F1010E83F817
:1037100000E04FF0070E00F802E04A0708D51A78DB
:1037200002F1010E83F800E04FF0100E00F802E005
:103730004FF0120C1A78490502F1010E5FFA8EFE65
:1037400083F800E000F802C007D595F8FC1221B11B
:1037500002321A70132200F80E20182C0DD11621F7
:103760004FF0170E1A788154511CC9B200F801E0CD
:10377000D11C0232D2B2197084544FF41972002154
:103780003E4816F0FAFA06F053FF3D4B3D4AB5F8B5
:10379000EE1013603C4ADFF814C111800022E646A7
:1037A0003A493B4C0A808A703A493B480B603B4B94
:1037B0003B491A703B4BDFF8F8901960B5F86A3254
:1037C000DFF8F0B0DFF8F0A0C4F80490A06019B200
:1037D0000390DBF800002CF8121000F596704AF800
:1037E00022000132122AF4D13068C20458BFB5F960
:1037F0007812AEF806102C4901F1500C91F8012511
:10380000A2B991F8032591F804A552450ED292B3BE
:10381000013A02EB820202EB820291F802A502F564
:10382000617292B20AF1040A2EF81A2004318C4512
:10383000E4D1000740F1BC8095F85CE2BEF10A0FCC
:1038400000F2AF80DFE81EF03A003A00F2013402E5
:10385000590279027902C002AD00E5023A00012B5B
:103860003FF444AE039AD370DBF8003043F0040316
:10387000CBF800303AE60AF10102CAE7382200200C
:10388000483100201C1100201A11002014220020B1
:10389000F4200020E0210020959F0008CC1000209B
:1038A000A0860100D4200020F42E0020E421002076
:1038B000999F00081022002084100020C44B402053
:1038C0001C600AF0D1FC804600286AD00023DFF893
:1038D00050A304938AF800300AF02EFA95F85C128F
:1038E000834601290DD0049BC0F061810A2916D1BD
:1038F000336813F480631CBF80F00103DBB28AF8E5
:1039000000300321B34B19700721B34B197001210B
:10391000B24B19700C23237042F6F8236380B04B2E
:103920006360B04BA36098F90200BBF1000F40F058
:103930004B819AF80030002B0CBF012303239AF827
:103940000020002A40F0428195F85E22002A0CBF38
:10395000002208220192009340214FF4E133A24A51
:103960000AF0F8FBA14BA2491860BBF1000F01D08F
:10397000C1F80C0395F8673294F800E0013BDBB224
:103980009C4A9E4513709CBF0023137028B19AF87F
:10399000003013B1012381F81033003018BF01202B
:1039A00030B908200BF024FF039BC4F80490A360F7
:1039B00042F2010332681A4209D044F620639104AE
:1039C000638040F15282082323708B4B63604FF079
:1039D00000088A4B864CDFF84C92D003C9F80030BF
:1039E000C4F8143384F8188321D50AF0D3FA0123DC
:1039F00084F81833D9F8003040F22A3293F8F19065
:103A0000414604F2193016F0B8F9484604F0DEFDDC
:103A10004146C646FF2204F2446021F800E0431804
:103A2000043180299A70DA70F7D111F0FDFC336807
:103A3000590548D5D4F8C426714B04201A600AF001
:103A400013FC0421C4F8C8060AF0E2FBD4F8C4262B
:103A50006C4B84F8CC0608201A600AF005FC6A4B0F
:103A6000082118600AF0D4FBDFF8BC81002184F83B
:103A7000CD062C22404616F080F97C2388F80030D1
:103A80008E2388F80130E02388F803307D23D4F8B2
:103A9000C42688F82B305D4B20201A600AF0E4FB26
:103AA0002021C4F8D0060AF0B3FB84F8D406102015
:103AB0000AF0DAFB1021C4F8D8060AF0A9FB84F852
:103AC000DC060AF043F9524BB3F800909846B9F17E
:103AD000000F40F0378295F8AF05002800F03282E1
:103AE0000BF0B8FD1A2280F8079082711321C4F8F8
:103AF000E0060BF0D3FDD4F8E0060BF038FE00BF73
:103B0000444A3220138823F040031B041B0C13800B
:103B1000138823F038031B041B0C138013889BB2FB
:103B200043F0400313809F238DF839908DF838308F
:103B30008DF83A908DF83B900DF0C3FB8DF83D90D9
:103B400000BFD4F8E0060BF00DFE04220EA90FA86A
:103B50000EF080FBD4F8E0060BF009FE00BF9DF8E4
:103B60003E309DF83D201B0243EA02439DF83F2072
:103B70001343294A934200F0C68200F37D81274A0D
:103B8000934200F082810132934200F0C881A2F595
:103B90001A42033A934200F0B0820023A8F80030A2
:103BA000A8F80230C8F80830C8F80C30CAE1022082
:103BB0000849087003200849087008490B7007235A
:103BC000237045F2F053A9E60323B8E60822C1E6C4
:103BD0009C2100209B210020A0210020C71F002045
:103BE000159B000831A2000851A30008D82100202D
:103BF000DC0500209A210020AD9F00082032002023
:103C0000CC1100200C12002028120020A01300204C
:103C1000D8020020003800401620C20017BA200049
:103C2000A12100204C260020DC1100200A221B01CB
:103C300093FBF2F300229649A3F5B06341F82230DA
:103C40000132122AFAD142F6F8236380914B4020C8
:103C50006360914B2270A3600AF006FB8246002845
:103C60003FF49FAE0AF068F895F85D3295F85E1261
:103C700000280CBF01220322002B0CBF06230723C0
:103C800000290CBF002108219AF902E082460B436B
:103C90008DE80C00814B824A402170460AF05AFAA6
:103CA000BAF1000F3FF479AE7E4BC3F80C0374E613
:103CB0001023237042F6F82363807B4B402063601F
:103CC0007A4BA3600AF0D0FA824600283FF469AE2E
:103CD0000AF032F895F85E2200280CBF0123032376
:103CE000002A0CBF002208229AF902E001920093F8
:103CF00082464FF4E1336E4ACEE70823237042F642
:103D0000F82363806B4B402063606B4BA3600AF029
:103D1000ABFA824600283FF444AE0AF00DF80022C8
:103D200000280CBF012303239AF902E001920093BB
:103D300082464FF4E133614AAEE700234FF00C0CAA
:103D40005F486049604ABEF1060F84F800C0037006
:103D50000B7013702CD01B225C4B4FF4E13B1A709C
:103D600005225B4B83F800C05A4B1A7042F6F823C9
:103D70006380594B40206360584BA3600AF074FA8B
:103D8000824600283FF40DAE09F0D6FF95F85E227A
:103D900000280CBF01230323002A0CBF00220822A5
:103DA0009AF902E00192009382465B464C4A73E71F
:103DB0002122464BDFF854B11A70454B83F800C0FE
:103DC000444B83F800E0D1E70E23237044F62063D0
:103DD0006380444B40206360434BA3600AF044FA85
:103DE000824600283FF4DDAD09F0A6FF95F85E227B
:103DF00000280CBF01230323002A0CBF0022082245
:103E00009AF902E00192009382464FF4E133374A77
:103E100042E70A221B0193FBF2F300223449A3F587
:103E2000B06341F822300132102AFAD142F6F82369
:103E30006380304B402063602F4B2270A3600AF0F8
:103E400013FA00283FF4ADAD95F85E3290F9020008
:103E5000002B0CBF0023082301930323274A009360
:103E60004021274B0AF076F997E5D3077FF5AFADF0
:103E70000C232370234BA9E5234A934200F045818C
:103E800046DC023A93427FF488AE802336E100BFDD
:103E9000F81F00203D9B0008599B0008A0860100E8
:103EA0009DA30008DC050020799A00088D9A00087F
:103EB0008DA10008F1990008099A000845A10008A1
:103EC000201F00206921002068210020211F0020E0
:103ED000451F00206A2100209D8B00083D990008A5
:103EE0006DA00008BD9F0008CD9F000849A40008F0
:103EF0005C200020D99C0008099D0008F1A300085F
:103F0000A06806009D9F00081920C20090D0030001
:103F1000AC4A9342B9D0013293427FF43EAE4FF4A3
:103F20008073A8F80030A8F80230B8F80430B8F868
:103F300000201B02C8F808305343C8F80C30012396
:103F400084F8E436D8F80C30D3B14FF0000A4FEAC9
:103F5000D3280DF13C0BC2450CDA0AEB08094FEAF5
:103F60006909102259464FEAC92007F0C9FE0F28F7
:103F700000F3CE8007F086FE934B4FEAC8221A600A
:103F80003368924A13F4002318BF0123137095F885
:103F9000B332052B02BF4FF4C8728D4B1A8005F067
:103FA000C2F9C8228B4B1A808B4A137843F008035E
:103FB00013708A4A137823F00203137040F602024A
:103FC00033681A420ED0864A864B1A600322864B0B
:103FD0001A700023854A1370854A1370854A13802E
:103FE000854A13804FF00109DFF854820021D8F888
:103FF000083038223360814B814883F80090814B30
:10400000814D83F8009015F0B8FE00237F4A2846C2
:104010001360C4F8E83605F027FC7D4B49469B6CDD
:104020004846642B38BF64236B6405F055FC3B683D
:104030009A0709D54946022005F04EFC029BDB6A2F
:10404000642B38BF6423AB6739680320C1F3400198
:1040500005F042FC0121052005F03EFCB8F8F822ED
:104060006C4B072093FBF2F3642B38BF642340F6BC
:104070000202C5F8143133681A4214BF012100212D
:1040800005F02AFC0121042005F026FC94F8101309
:10409000062005F021FC0121082005F01DFC3968EF
:1040A0000920C1F3800105F017FC3B680A2013F0DA
:1040B000140F14BF0121002105F00EFC31680B2004
:1040C000C1F3802105F008FC31684B0508D598F84C
:1040D0005C32083B012B9CBF4FF4FA63C5F84C32AD
:1040E000C1F300410C2005F0F7FB4B4A137863F055
:1040F0007F0313701BB0BDE8F08F2023A8F80030B9
:104100004FF480730FE74023F8E74FF40073F5E7AF
:1041100000235BF8232001324FD10133042BF8D167
:10412000C84618E7013B092B3EF6BAA8012108460C
:104130000BF02CFB13200BF08DFA2622C571827137
:104140001221A0660BF0AAFA0121A06E0BF014FB5D
:104150003C200DF0B6F8294601200BF017FBFEF7C6
:1041600019BA2E4A92F8F8229A4221D103B32C4A66
:10417000FFF724B842457FF43BA9002A3FF438A951
:10418000284BFFF798B80B23FFF7A4B842F2107240
:10419000254B1A805A80254A5A60254A9A60254A3A
:1041A000DA60254A1A61254A5A610323FFF75ABB90
:1041B00001200DF090F8FFF7A7B909F1010AC146F7
:1041C000AEE700BF1740EF00902D0020D60500207D
:1041D00040110020BC400020C43E0020B83E00201A
:1041E0002C310020C81E0020DC1E0020DD1E002017
:1041F000C41E00202A3500202C350020FC0E002093
:10420000E41E0020E43500201C000020E01E0020F9
:10421000D019002040420F00FA400020DC050020A9
:1042200085B90008E9B50008A011002031B70008E1
:1042300099B7000819B7000887B7000841B400080B
:10424000F42E00200022454B00B21A7012F010FD2F
:10425000434912F061FD0646BAF9E80112F008FD83
:104260003F4912F059FD0546BAF9EC0112F000FD84
:104270003B4912F051FD3B490446304612F044FCE4
:1042800008F079FF8146304608F075FF354906464B
:10429000284612F039FC08F06EFF8046284608F0E8
:1042A0006AFF30490546204612F02EFC08F063FFF5
:1042B0008346204608F05FFF49460290584612F0B8
:1042C0002BFD49460390029812F026FD59460490B2
:1042D000304612F021FD02990590304612F01CFD87
:1042E00041460690584612F017FD1F4C0299206077
:1042F00008F1004012F010FD05996060A5602846A5
:1043000012F00AFD049912F0FFFB0699E0602846BE
:1043100012F002FD0146039812F0F4FB41462061C1
:1043200006F1004012F0F8FC03996061284612F093
:10433000F3FC0146069812F0E5FB0499A0612846BB
:1043400012F0EAFC059912F0DFFB4946E0614046B5
:1043500012F0E2FC2062FEF7E7BD00BF180000206B
:1043600035FA8E3CDB0FC93F881E00202DE9F04F47
:10437000B74BA5B01B780690012B07D1B549B64ABB
:104380000968496A1180B54909885180B44C22787E
:104390000592002A00F0C084072B02D10CF03EFFEA
:1043A0000890B04E33685A0504D5AF4883680BB106
:1043B000AE499847AE4BB3F90650AE4B1B685A89CD
:1043C000954280F2FE814FF07E536360002240F2FE
:1043D000E63AA94BDFF8989293F95042B3F86A0293
:1043E000644293F84D8293F84CC2A449A4B239F9BF
:1043F00012704FEA420E3B1A03F2F31BD34502F24E
:104400002181002BB8BF5B42022A02F02081634564
:1044100040F3EA81A3EB0C03874221F80E30C2F28D
:1044200020810132032AE2D1376817F4805700F067
:10443000DD81B5F5FA6F2A46A8BF4FF4FA62B2F5EE
:104440007A7FB8BF4FF47A72A2F57A724FF0640E99
:1044500092FBFEF38A4C03F1010C34F9136034F93A
:104460001C406FF0630C0CFB0323A41B5C4394FB08
:10447000FEFE7644B6B2CE80AFB1824B1B68DB0045
:1044800011D5814BDB7873B94FF47A73A6F57A7640
:1044900036B2360396FBF3F6C0F5FA631BB25E4301
:1044A00000EB2630C880794BB3F8009019F0400F2C
:1044B00044D0774BB3F904000A2390FBF3F0754B1B
:1044C0001B88C01A00B212F0D3FB734912F024FC0F
:1044D0007249044612F018FB08F04DFE8246204651
:1044E00008F049FE654C0646B4F9020012F0C0FB24
:1044F0008046B4F9000012F0BBFB5146834612F02F
:104500000BFC41460790304612F006FC079B014623
:10451000184612F0F7FA12F0DBFD514620804046B3
:1045200012F0FAFB59468046304612F0F5FB014680
:10453000404612F0E9FA12F0CBFD6080584B484C2F
:104540001B684D4E13F0140F11D019F4027F0ED0DA
:10455000544B4A49187810F0100000F05D81524B1E
:104560004A8896F9B5021B6800FB03234B804F4B2A
:104570001B78ABB1B6F86C32AB4211DB96F8B332B4
:10458000012B01D0192B02D196F8FC2042B90E2B39
:1045900006D0082B04D00022384B9A800023A36158
:1045A00096F836526DB319F0030F2AD0404B4149AB
:1045B000D3F82080404612F057FD002840F0848157
:1045C000404613F087F9E16912F0A6FB13F00AF9EF
:1045D000B0F5617FA8BF4FF4617012F049FB364916
:1045E00012F09AFB08F0C7FD8046284612F040FB07
:1045F000414612F091FB13F0F5F8204BDA88104495
:10460000D8802E4B96F8718293F800B008F102081A
:104610005FFA88F8BBF1000F00F08780284B4FF05D
:104620007E51D3F8F45044F620639D42A8BF1D4646
:10463000B5F57A7FB8BF4FF47A75224BADB2D3F897
:1046400000A02584DAF83830184607933CE000BF14
:10465000203500201C1F002022350020CC13002014
:10466000C80C0020CC200020D0190020CA0C00204B
:10467000E4210020A8130020F42E0020C011002007
:10468000FC400020B02600201422002064360020C8
:10469000BA3E00208011002035FA8E3CDB0FC93F66
:1046A0003C3E0020C43E0020F440002010000020CA
:1046B000183E00208FC2753CD06D393A821100201F
:1046C0001C000020BC2E002012F0E2FC68B34FF466
:1046D0007A72B5FBF2F5642292FBF5F5142DA8BFB2
:1046E0001425079B002F00F0F180BAF8360040082F
:1046F000616A7C4A4F1CB2F9062004EB4101AF42CB
:104700000A85A8BF00216762A8BF6162616A04EBE5
:104710004101098D521A12B2002AB8BF5242824298
:10472000D8BF4FF07E53704A136096F87032002B5A
:1047300040F0CF80B9F1000F40F0D08000256B4BE6
:10474000A3F852506A4B1B78002B40F02B81694B29
:104750001878002840F0D382674D2B681A0340F187
:10476000CE82664C2378033B052B19D8644B5F4EF1
:1047700093F8AD35002B00F08F82012B00F0918271
:10478000D6F8882096F88C301344B3F5807FA8BF04
:104790004FF480738342D4BFC6F88830C6F88800CF
:1047A0002378023B092B00F29B82DFE813F07F02A3
:1047B0008C0236039902990279038C032806450678
:1047C0005506B5F5FA6F187ABFBFAB1A5843C2F554
:1047D000FA6290FBF2F0C0F1640012F049FA494924
:1047E00012F09AFA6060F1E5002315E6444BB3F845
:1047F0006C329D420EDBB5F5FA6F2C46A8BF4FF424
:10480000FA644FF47A72E41A5443C3F5FA63B4FBC2
:10481000F3F21BE61C46F4E7A3683B4A93F803E077
:10482000B2F900209B78BEF1000F2FD0A5EB020E4D
:10483000BEF1000FB8BFCEF1000E9E450EDDDFF8D1
:10484000E4E09542CEF800004FF00100C8BF5B42A3
:104850002073C8889BB20344CB8088E6237B33B1A6
:104860002A4B2073D3F800E0294BC3F800E0294B12
:104870001B681A44B2F5FA6FA8BF4FF4FA62B2F59A
:104880007A7FB8BF4FF47A72CA8070E6A81A80EABD
:10489000E07CACEBE07C9C4509DD022390FBF3F06F
:1048A0001D4B186001231D4823730370DFE7237B32
:1048B000002BDCD0154B84F80CE01868144B186002
:1048C000164B83F800E0D2E7002096E6BAF93600EE
:1048D0000EE7022B28D0032B00F0DF80104B5B8803
:1048E00026E000BFC011002008000020C80C0020F6
:1048F00082110020882D0020CC200020D605002029
:10490000F42E00200AD7233C84110020D840002038
:10491000E0400020F4400020E8400020F840002063
:10492000F4200020F0400020238C03F57A739BB222
:10493000BBF1000F00F0CC80724A1168724AB3FBE1
:10494000F1F11278481C00B2092AA4F8500006D1EF
:104950006E4D6F4A2E886D8816805580D380002357
:104960006C4DB4F952C0DFF8A49105F10807434536
:10497000C0F29B80684BA3F85210674AB2F952000C
:1049800000287FF7DBAE00231D4619465F4FB2F9C2
:10499000506002F15C0E54324345C0F29F80002902
:1049A0003FF4D0AE5D4B00261B78DFF89891002BCA
:1049B00018BF02255A4BD3F80080534B1B780A933B
:1049C00008F105030793AE4240F3BE80554B93F8C0
:1049D000730200285DD0544B1B689D0059D5534B82
:1049E0001B88590655D44C4D514E95F87C30834266
:1049F00012D085F87C0012F03BF94E4912F08CF988
:104A00004D49074612F080F808F0B5FB7060384653
:104A100008F0B1FBC5F88000D6F80480256941464E
:104A2000284612F079F9A769D4F8806081463146AA
:104A3000384612F071F90146484612F063F83F49D2
:104A4000814612F011FB08B9DFF8F0903C49484666
:104A500012F014FB08B9DFF8E89041463846C4F874
:104A6000109012F059F931460746284612F054F9D1
:104A70000146384612F048F83049054612F0F4FA7B
:104A800000B92E4D2E49284612F0F8FA00B92C4DE7
:104A9000A5610022214B1A7059E696F87232C3EBD9
:104AA000431203EB8203DB0041E735F9132039F9A8
:104AB00013E00CFB02F292FBF0F237F8136027F8D8
:104AC00013E0AEEB0606324425F8132001334EE71F
:104AD000B4F85230013BA4F852304EE732F91310CB
:104AE0003EF81350414391FBF6F1022BA5EB010177
:104AF0001D46B8BF022527F81310EDB20133059902
:104B00004AE700BF6C3B002020350020C011002088
:104B1000223500201C0D0020C80C0020821100202E
:104B2000A8130020F42E0020B026002064360020B8
:104B30000800002035FA8E3CDB0FC93F00C0F94465
:104B400000C0F9C40AD7233C022E15BF98F8000014
:104B500098F8010098F802B098F809B012F088F8B7
:104B6000494612F0D9F84FF08041074612F090FA0A
:104B700060B14FF08041384611F0C4FFB44912F0E3
:104B8000CBF80146384611F0BFFF07467300059386
:104B9000B04B33F9160012F06BF8AF4912F0BCF8C5
:104BA00020F00043AD4A0593059B42F826000C32E5
:104BB000824642F82630BBF1000F20D0584612F052
:104BC00057F8494612F0A8F883465146504612F06D
:104BD000A3F8059912F0A0F8594612F09DF859462D
:104BE0000C904FF07E5011F08DFF0C9A014610464C
:104BF00011F08AFF0146504612F08EF8824698491D
:104C0000384612F089F8514612F086F8079B07469D
:104C100013F8010B079300B312F02AF8494612F07B
:104C20007BF8059912F078F88E49824612F030FA36
:104C300068BB0021504612F00DFA50BB51464FF0B0
:104C40007E5011F05FFF01464FF07E5012F018F9D0
:104C50000146384612F060F807460A9B0C2B05D136
:104C6000384612F035FA804B720098527F49384628
:104C700012F0FAF900B97D4F7D49384612F0FEF97D
:104C800000B97B4F7B4BB200D75001369BE64946BB
:104C9000DAE74FF07E51D7E7D6F884000AF0C9FA78
:104CA0006EE506F009FFC0F17F0069E50022724B56
:104CB000C3F88820C3F89020704A1268C3F8942083
:104CC000032323700CE06D4B6B4E1A68D6F89430BA
:104CD0006433934204D2402010F0BAFC002874D010
:104CE00010F0E2FC0646002800F03884012323700F
:104CF000614B93F8AD2012B1002283F8AD20604BD8
:104D00001B78072B05D10CF089FA089BC01A564B6B
:104D100098800022584B1A70594C2378072B02D1E7
:104D20000CF07CFA0B90DFF86C91D9F810504F46DC
:104D3000002D32D1D9F804304846984768B389F835
:104D40002550B9F81C30DFF850811BB2C8F800308C
:104D5000B9F81E3099F826101BB2C8F80430B9F81B
:104D6000203040461BB2C8F8083004F0E7FB454B42
:104D70001E88454B1B68002E40F042849B79002B17
:104D800000F0B784EFF31283F02282F312883F4AD7
:104D9000DBB2C9F8102083F31188394D2A78072A2D
:104DA00005D10CF03BFA0B9BC01A2F4B1880324BED
:104DB00093F8FC201C460592002A00F07585013A04
:104DC00083F8FC2025B0BDE8F08FDFF8D0804027C5
:104DD000C146D6F8903018F8030078B110F0FEFC08
:104DE000D6F88830013F03F1FF33C6F88830D6F893
:104DF000903003F10103C6F89030EAD1D6F8903034
:104E000019F80330002B7FF46BAFC6F890304FF0E9
:104E1000FF33C6F89430042353E71D4A5021A2F112
:104E20000C0301932623029200934920A2F10A0366
:104E3000163A06F0EFF800287FF452AF4FF0FF3239
:104E40000D4BC3F89000C3F89420072339E700BF47
:104E5000D7A36841C01100206F12033B2C0D002026
:104E600000004843A4707D3F2235002000C0F94473
:104E700000C0F9C4D80C0020C80C0020102200206B
:104E800020350020CE190020341A00206596000835
:104E900046A10108D0190020AC1E0020D0A00108B6
:104EA000052300210093AA4B02910191A3F108026E
:104EB000532006F0AFF800287FF412AFA54BC3F8DB
:104EC00090000823FDE6402010F0C2FB00287FF48C
:104ED00007AF7023A0489F4E90F80015D6F8907049
:104EE00003FB010292F86824492F01F29F83DFE857
:104EF00017F04A004F005D00630066006C00700010
:104F0000740078007E0082008E0098009C00A5004E
:104F1000A900AD00B100BA00C300CC00D500DE008E
:104F2000E700F000F900060110011A0124018501D3
:104F30008F019901A301AD01B301BD01C301C901F5
:104F4000CF01D501DB01E101E701ED01F301F90139
:104F5000FF0105020B02110217021D0221022502A8
:104F600029022D02310237023D0249024D0251024F
:104F7000550259025D026102650269026D02710209
:104F800075027F0283027549754810F002FD07E043
:104F9000744B754A00937549754B764810F0F9FCCF
:104FA000D6F890300133C6F8903099E6724A7349CA
:104FB000734810F0EEFCF3E772497348E5E790F8A8
:104FC000AC2590F8AB157148F3E7B0F8CC107048F9
:104FD000DBE7B0F8CE106F48D7E74FF07E516E4850
:104FE000D3E7B6F89820B6F89A106C48E1E76C4B16
:104FF0006C481989C9E7D6F89C30DB0403D590F8D2
:1050000038126948C1E70C23C6F89030C8E790F819
:105010003B3290F83D2290F83C12644810F0B9FC05
:10502000BEE7B6F8A0106248AFE72B681F05B7D5FA
:10503000B0F94022B0F942125E48BAE75E4B5F48D1
:10504000996CA2E790F8FE115D489EE790F8F81180
:105050005C489AE759430C2303FB0211014491F881
:105060006A14594891E759430C2303FB0211014488
:1050700091F86C14554888E759430C2303FB02113F
:10508000014491F86B1452487FE759430C2303FB0A
:105090000211014491F873144E4876E759430C23EA
:1050A00003FB0211014491F86D144B486DE759431D
:1050B0000C2303FB0211014491F86E14474864E786
:1050C00059430C2303FB0211014491F87214444824
:1050D0005BE759430C2303FB02110144B1F874143C
:1050E000404852E759430C2303FB0211014491F855
:1050F000713491F870243C4891F86F148EE703FBEB
:1051000001013A4891F8343491F82A2491F8201496
:1051100084E703FB0101364891F8353491F82B24DC
:1051200091F821147AE703FB0101324891F83634F3
:1051300091F82C2491F8221470E703FB01012E480A
:1051400091F8373491F82D2491F8231466E700BFC5
:1051500000A30108C80C0020F42E002059C001084B
:1051600065C00108A7C0010876C001087CC001081D
:1051700080DC010887C0010842BF010836BF010872
:10518000ACC00108AC340020C0C00108CEC001088A
:10519000DFC00108EEC00108FDC001080DC1010813
:1051A000403E00201FC1010829C1010836C1010885
:1051B0004FC101085AC10108D01900206DC1010872
:1051C00079C101088CC10108A1C10108ABC1010866
:1051D000B5C10108C2C10108CFC10108D9C1010888
:1051E000E4C10108F1C1010803C2010812C20108AB
:1051F00023C2010835C2010845C2010803FB0101B1
:10520000A54891F8383491F82E2491F8241405E734
:1052100003FB0101A14891F8393491F82F2491F84A
:105220002514FBE603FB01019D4891F83A3491F8FF
:10523000302491F82614F1E603FB0101994891F816
:105240003B3491F8312491F82714E7E603FB010180
:10525000954891F8281498E603FB0101934891F8CA
:105260003D3491F8332491F82914D7E603FB01016A
:105270008F4891F83E1488E603FB01018D48B1F890
:10528000401482E603FB01018B48B1F842147CE62E
:1052900003FB01018948B1F8441476E603FB0101E0
:1052A0008748B1F8461470E603FB0101854891F880
:1052B00048146AE603FB01018348B1F84A1464E626
:1052C00003FB0101814891F850145EE603FB0101E4
:1052D0007F4891F8511458E603FB01017D4891F88D
:1052E000521452E603FB01017B48B1F856144CE618
:1052F00003FB01017948D1F8581446E603FB01018C
:10530000774891F85C1440E603FB0101754891F879
:105310005D143AE603FB01017348D1F8601434E6EA
:1053200003FB01017148D1F864142EE690F84C1289
:105330006F482AE690F84D126E4826E690F8FF1165
:105340006D4822E690F800126C481EE690F80112B3
:105350006B481AE6B0F80822B0F80412694828E64B
:10536000B0F80A22B0F80612674822E6B0F8160232
:1053700011F07EFC654911F0CFFC11F0A9FE014649
:10538000634802E690F819126248FEE590F824128C
:105390006148FAE590F80F126048F6E590F8B0120F
:1053A0005F48F2E590F870125E48EEE590F87212F0
:1053B0005D48EAE5B0F876125C48E6E590F85C12E4
:1053C0005B48E2E590F8D5105A48DEE590F8D41035
:1053D0005948DAE5B0F8D2105848D6E54B49D0F82C
:1053E000D80011F099FC11F073FE01465448CCE549
:1053F00090F8F9115348C8E581685348C5E5534B07
:105400001B68990115D5524EB6F8A4308BB9D6F861
:10541000A83018A91893069B0E20199305F04EFB8F
:105420004FF48053A6F8A2300A232370069805F0A3
:1054300093FB05F023FB53E4454B93F8AC20002A83
:10544000F4D0424A12689201F0D493F8AD30002BA8
:10545000ECD109232370ECE73E4B3D4E1A68D6F899
:105460009430C833934211D23B4B93F8AD755FB97A
:10547000D6F8840008F05AFE96F8AE30C6F884706C
:10548000022B01D105F0D4F801231AE411F09EFF9C
:105490000028E9D124E400BF55C2010865C2010813
:1054A00076C2010887C2010899C2010889C20108B1
:1054B000A3C20108B8C20108C8C20108D6C20108C7
:1054C000E8C20108FEC2010819C3010828C3010887
:1054D0003FC3010858C301086CC3010886C3010813
:1054E0009BC30108B1C30108C8C30108DDC301089B
:1054F000F3C30108EFC30108FFC301080BC401088F
:105500001DC4010830C4010844C401080000C84299
:105510005CC401086AC401087AC401088BC401088C
:105520009BC40108B4C40108C8C40108E5C401084B
:1055300002C5010817C501082CC5010841C50108AD
:1055400053C5010868C5010876C50108B0260020CA
:10555000C80C002010220020F42E0020A94991F848
:10556000AE35002B3FF4CBAB2B68DF044FF00003CC
:105570004CBFB1F8EC50B1F8D050A34F37F913201D
:105580000133AA420CBF304646F001000C2BC6B2D4
:10559000F4D19E4D9E4BC6B11B6803F59C53083356
:1055A000C5F8B0302378012B7FF4A9AB95F8AD3066
:1055B000002B7FF4A4AB91F8AD35D3B105F0F8FD25
:1055C000012385F8AD30FFF79ABB1A68D5F8B030E3
:1055D0009342E7D82378012B3FF491AB95F8AD3097
:1055E000002B3FF48CAB05F0C5FD85F8AD60FFF7EF
:1055F00086BB80200CF0FCFE00287FF480ABDDE74A
:105600005B78D9F8482007934FF47A73B3FBF2F331
:10561000AB46C3EB431203EB8203DB009BB2059363
:1056200023787C4C0C937C4B04F13C09B3F9063095
:10563000CDF820800693059B5B080E93059B4FEAEF
:10564000850A9E4202BF002349F825302361089B4A
:1056500053F8250059F82530034449F8253011F056
:1056600007FB226902F10108B8F1010FC4F81080AC
:1056700040F0A180002360602060A360089B012EA1
:105680001A464FF000034AF802304FF00002634B15
:105690004AF8032040F0E2802069012840F3AF80FF
:1056A000013811F0E5FA0146E06811F0E9FB12F06B
:1056B00059FB0C9B8046032B05D112F093F84FF059
:1056C000010B03B20693079B002B00F0BD80184628
:1056D00011F0CEFA414611F0BDFC002800F0B48074
:1056E000BBF1000F03D04C4BBDF81820DA8003F05B
:1056F0001AFEDFF84C914FF0000BCA46DFF84481E8
:10570000474C464B54F82B0053F82B304FEA8B058F
:10571000C01A44F82B0011F0ABFA424B996911F012
:10572000FBFA99F800300146032B06D1059012F0E0
:1057300059F8394B059923F81B003B4A3B4BA858B5
:105740001B6898479AF800300146082B06D105904F
:1057500012F048F8304B059923F81B00344A354BBA
:10576000A8581B689847344A344B01461B68A85810
:1057700098470BF1010BBBF1030F48F8040FC0D1A0
:10578000002E3FF40AABBD69F86C294611F078FB96
:1057900012F028F829462060386D11F071FB12F0E4
:1057A00021F829466060786D11F06AFB12F01AF852
:1057B000A060FFF7F2BA2268109011460F9211F024
:1057C000A1F90A90404611F053FA01460A9811F0E7
:1057D00057FB0F9A114611F097F9109B014680462E
:1057E0006060184611F08EF90A9911F095FAA168D7
:1057F00011F08AF9C4F80080E060A0603EE7002064
:1058000055E700BFF42E0020422C0020C80C0020D9
:10581000102200207C0D002022350020B81E002020
:10582000AC1E0020D01900208C1A0020281A00205D
:105830001C1E00202C1A00207C1E0020301A002084
:1058400020350020181A00200E9A5AF80930134407
:10585000059A93FBF2F3104A42F80A300135032D02
:1058600004F114047FF4EAAEBBF1000F03D00B4B3C
:10587000BDF81820DA80012E08D10022084B3046EE
:105880001B689A621A63DA6208F0C4FF054A13883B
:10589000013B13802DE700BFB81E002022350020F9
:1058A0001C1F0020CE190020A54B93F80122002ACE
:1058B00000F03E8193F8F831013BDBB284F8FC3014
:1058C0002B78072B02D10BF0A9FC0D909D4B4FF0CC
:1058D0007E501B68069363680A93D4F8003119461A
:1058E000089311F00FF9984B196811F015FA4FF061
:1058F0007E51079011F0B8FB10B94FF07E5307931B
:1059000000254FF0000B914B0B93914B914F53F8A7
:10591000258059464046AC0057F8256011F090FBB1
:10592000D0B9F43757F825903046494611F0EAF8D7
:10593000824620F00041404611F08CFB58B1594698
:10594000504611F0A5FB002800F0F480494640467F
:1059500011F0DAF806463E517F4BB3F8009019F08B
:10596000030F3DD0022D3BD0069B93F8340011F07D
:105970007FF97A4BE15811F0CFF9069B804693F8F6
:1059800033A0CAF1000011F073F907460146404602
:1059900011F060FB40B9504611F066F941460746E8
:1059A00011F062FB00B94746654B03EB4503B3F9C1
:1059B00020026B4B33F91530184411F059F969493D
:1059C00011F0AAF90146384611F09CF819F0010FC0
:1059D000074600F0EB80644B196811F09DF906460C
:1059E0000B9B304653F8049F49460B9311F08AF8FD
:1059F00082465E4B0A98E15811F08EF9514611F03B
:105A00008BF9022D804606D1594A5A4B01461B6834
:105A1000106898478046584B4FF07E510898E758D9
:105A200011F018FBB0B1554B1968554B186811F0BF
:105A300073F9079911F070F9524BE15811F06CF9B4
:105A4000514611F069F90146384611F05DF80746F4
:105A5000494BE050022D40F0E3803946404611F0BA
:105A600053F8494EC6F81801404611F031FBC6F80C
:105A70002401384611F02CFB0023C6F83001C6F88B
:105A80003C31424B1B7813B9414B44F803B001350C
:105A9000032D7FF43AAF3F4C2278072A05D10BF053
:105AA000BDFB0D9BC01A3C4B58802378364D012B13
:105AB00040F021810BF0B2FB3849D5F84831364A25
:105AC0000968C31A93805B1A0990D380C5F848010E
:105AD0001C4B1C68324B1B680B9313F480530C93C4
