:020000040800F2
:1000000000500020A1A001083DA101086DF50008E5
:100010003DA101083DA101083DA10108000000002B
:100020000000000000000000000000003DA10108E9
:100030003DA10108000000003DA101088B15010849
:100040003DA101083DA101083DA101083DA1010814
:100050003DA101083DA10108B9180108CD1801080A
:10006000C9180108C5180108C1180108A17F0008B6
:10007000917F0008817F0008717F0008617F000880
:100080004D7F0008397F00083DA101083DA101080E
:100090003DA101083DA101083DA10108BD180108CD
:1000A0003DA10108E9FE00083DA10108D9FE0008B4
:1000B000C9FE0008B9FE0008A9FE0008BF830008B9
:1000C000C5830008B5830008BB8300083DA1010873
:1000D0003DA10108C9150108BD1501083DA1010890
:1000E000B51801083DA101083DA10108000000006C
:1000F0000000000000000000000000000000000000
:0C01000000000000000000005FF808F1A3
:100110002DE9F04F0B4B0C4D0C4AC5F8B8340023B9
:1001200010680B49A1B08842C5F8BC3416D11360E1
:1001300062B6084B186811F06FFD074B1B689847B3
:10014000FEE700BFB3C900089C040020F04F002068
:10015000EFBEADDE00F0FF1F04F0FF1F0A930B930C
:100160000C934FF4E013BB4C0D93236843F480339E
:100170002360A36943F01003A361236803F40033F1
:100180000B930A9B01330A930B9B1BB90A9BB3F594
:10019000A06FF2D1236813F4003300F09A82022397
:1001A0000C93AD4BAD4F1A6842F010021A601A68FA
:1001B00022F003021A601A6842F002021A606368B1
:1001C000636063686360636843F480636360A44B47
:1001D0001A68043B22F070425A60A24A3A60626890
:1001E00022F47C1262605A6842F000425A60DA6877
:1001F00022F40042DA609B681E0449BF9A4B4FF418
:10020000E0133B604FF480130D930C9B012B00F027
:100210007882022B05D10D9B6268134343F480332F
:100220006360236843F08073236023689801FCD5E2
:10023000636823F003036360636843F00203636051
:10024000636803F00C03082BFAD16368DFF86C8253
:1002500003F00C03042B00F05882082B00F05782A7
:10026000804BC8F800306368DFF85492C3F303137F
:1002700019F80320D8F80030DFF848B2D340C8F8A6
:1002800000307A4B4FF6FF72CBF80C30A3690DF1BA
:10029000800A43F00103A361636A636A744E43F00A
:1002A00080736362A369304643F01C03A36100239B
:1002B00015932AF82C2D514612F07AFA51466D48C2
:1002C00012F076FA51466C4812F072FA02214FF49D
:1002D00000728DF846101021ADF844208DF84710BB
:1002E0003046326111A912F063FA644950464A68F7
:1002F00042F000724A6011F07BFB159B604A304669
:10030000B3FBF2F34FF47A72C5F8C034D8F800307A
:100310004FF0010CB3FBF2F35A4A013B5360F02358
:100320008BF82330002393600723DFF89CE11360F0
:10033000554A09F10E01002331F8026F46FA03F81D
:1003400018F0010F18BF0CFA03F803F101031EBFE8
:100350001060A2F804800832102BEFD100F5806005
:100360007045E8D13B683F4A934240F0E281012367
:1003700085F8C4340CF078FD18B90FF05DFC0FF06F
:1003800043F90FF07FFA05224049414818F040FB3D
:1003900018B10FF051FC0FF037F995F8C5343D4F07
:1003A00043F0010385F8C5343B4B07F1050A9A7801
:1003B0003A4B1A703A4B3B4A1B689046136095F8CB
:1003C000CA3485F8C6340023D85D4FEA830B5E1C1F
:1003D000002800F0B481039311F07AF9039B4AF8E6
:1003E000230010B10523C671837112215AF80B0046
:1003F00011F094F9032E3346E6D10021084611F09E
:10040000EFF90021012011F0EBF90021022011F099
:10041000E7F90121022011F0E3F9A369002143F07B
:100420000103A3614022204818F060F94FF0FF3328
:100430001E4AC5F818356420C2F8033011F09BF845
:10044000A02200211A4818F051F90024194D1A4E23
:100450003CE000BF0010024000200240F8000020F5
:100460000410014000127A00001BB7000005FA05D5
:1004700000080140000C0140001001400000014054
:1004800040420F0010E000E0041A002060C801089C
:10049000D51D002063090020D01D0020281F00204A
:1004A0009C1E00202427002074090020B40900208D
:1004B000843A00203CB00108A4A501081C000020DB
:1004C0008CA5010800ED00E00014014000236059F4
:1004D00056F83310DA00884240F0348109EB020309
:1004E000187F103411F058FEE02CEFD1AB4AAC4C21
:1004F0000021A4469146AB4E00250B5D01F10F0093
:10050000204406EB030A10F801EFBEF1000F05D0FE
:100510009AF80C70774508BF82F8587090F803E09D
:10052000BEF1000F04D0F75C774508BF82F8597020
:100530000135032DE7D1B2F8580040B10CEB0100B2
:1005400009EB83035065C3F8202502F517721C31AF
:100550003829D1D10424914F202200219248D8F883
:10056000005087F82C4518F0C1F800208D4B02464A
:1005700093F80BE093F80AC04FF0FF092346039766
:1005800089498A4F05F04006D4571E2C8C7140F0E3
:10059000DF80002E00F0E480BCF1000F00F0E0806E
:1005A0000132042A01F10801EED110B1039A82F858
:1005B0002C357F4B15F4805F93F800A07D4BDFF85E
:1005C000449283F800A07C4F7C4C7D4E00F0CE809E
:1005D000B88819F0D7FA7B4BC9F800002360708AFD
:1005E00019F0D0FA784B794C1860788819F0CAFA6B
:1005F000774B00251860388819F0C4FA754B1860DD
:10060000608BC0F5FA6019F0C1FA734B248B186047
:10061000FB88724AE01A1C44714BA4B280B210806D
:100620001C80A0F57A7019F0B1FA6E4B1860C4F511
:10063000FA6019F0ABFA6C4B6C4C1860AAF1170316
:10064000022B257000F2E2804FF0000BDFF8B8A11A
:1006500005EB0A03594655F80A00049319F07EFC8D
:10066000049B002800F08C80D8F8003013F4805AE6
:1006700040F0ED800023D9F800105D4A42F82310C5
:100680000133082BFAD1B6F81480BAF1000F01D06B
:10069000B7F80480B378042B05D14FF480500CF0E8
:1006A000DBFB4FF000082378C0220021514806935D
:1006B00018F01CF83779B378003718BF0127042BDE
:1006C00000F2EA80DFE813F02C06E8002E06F400C2
:1006D0002506226842F0010222600A93236803F093
:1006E00002030B930A9B01330A930B9B1BB90A9BD2
:1006F000B3F5A06FF2D123689F0701D501234FE521
:10070000FEE7636843F460138AE53B68A9E5636824
:100710006268C3F38343D10303F1020302D4364A70
:1007200053439EE5626812F4003F3A6818BF5208CE
:10073000F6E7324A93427FF41DAE022318E64AF8E8
:10074000230057E60133042B7FF4C2AE0020C8E635
:100750001F2C7FF425AF1EB1BEF1000F7FF420AF38
:10076000013B81F80690DBB2012019E7B08A19F04D
:1007700009FAC9F80000308A19F004FA20602EE75F
:100780001F4A05EB020E0FCB8EE80F0023781035C1
:100790000133802D23707FF45BAF65E79C0400205C
:1007A000C4A5010890240020102A0020FCA50108FF
:1007B000291F00203C1000201C3C0020B0380020E5
:1007C0009838002000007A44CC1D0020F826002034
:1007D00078100020581000208010002052100020B7
:1007E00074100020701000207C100020B43800200D
:1007F000DC2400200425002000093D00001BB70078
:10080000841000204C2600201C1B0020244B13F8D1
:100810003A2003EBCA0A082A227088BF0822DAF8B5
:1008200004C088BF2270BCF1000F3FF41DAF00254B
:10083000DFF878A023789D42BFF616AF2B0103EBBB
:100840000A0E63440FCB01358EE80F00F2E72378E0
:10085000012B7FF60FAF4FF07C58124D05EB0313C1
:1008600003F1100B1035AB453FF404AF414655F88A
:100870000C0C19F0DFF9414645F80C0C55F8100C3A
:1008800019F0D8F9414645F8100C55F8080C19F044
:10089000D1F945F8080CE5E7034CA1460BE000BF91
:1008A0001CAC0108881000206F120339841000204E
:1008B000C04CDFF85093C04AC04B21461A60C04A72
:1008C000C04B4846002F18BF1346BF4A002513608F
:1008D00019F0A8F801464FF07A5019F05FFABB49B9
:1008E0000590204619F0A6F9B94CDFF81CB3079023
:1008F000069BAB4240F3768505EB0B035E79002146
:1009000030460FF0B7FA0490002840F00E85B14A47
:10091000AA4B1A60AA4AAC4B1A60AF4CAF4A94F883
:10092000C534079243F0040384F8C534136813F008
:10093000010600F07A850025FF2294F82D75A84B5A
:100940002946384683F840501D605D609D60DD6338
:1009500083F8412083F8422083F8435083F84450C1
:1009600083F845500FF086FA064690B3036898491D
:100970006A18507C18B15268934200F04B851835C4
:10098000C02DF5D10025C4F83C6584F830553846B3
:1009900010F09EFE10B10223C571837100252A213B
:1009A00010F0BCFE8F4A0021304610F0E9FC8E4B5F
:1009B0008E4AC4F840358E4B111F3046C4F844357A
:1009C000C4F8485510F030FD2A46717930680FF0B0
:1009D000DFFEB4F81E7694F81A66A4F82076304646
:1009E000002F40F0708510F073FE94F81B26C4F8B9
:1009F0002406003218BF012284F8282650B1242290
:100A000094F81C368271002BC7710CBF122116217D
:100A100010F084FE002010F0B7FE764B0020C4F8E2
:100A2000483607F06BFA012007F068FA4FF0000C27
:100A3000714800F1200E50F8055CA5B310F9093C8F
:100A4000E21892F84C6692F84E7692F8508604EBD3
:100A50000311821E12F8019FB14592F8029008BF5F
:100A600081F85866B94592F8049008BF81F8597624
:100A7000C14508BF81F85A869042EBD104EB0313BD
:100A800093F858267AB193F8592662B193F85A260A
:100A90004AB14279C3F8545683F85B26827983F8C9
:100AA00060C683F85C2610308645C4D111F036FC50
:100AB00011F034FC94F86C0611F06EFB012394F8ED
:100AC0006C2602F01F015209022A03FA01F300F01A
:100AD0002785032A00F02A8594F8680610F0F8FDAF
:100AE000054618B1122383710223C37194F8690675
:100AF00010F0EEFD18B1132383710223C37194F833
:100B00006A0610F0E5FD18B1142383710223C37146
:100B10001B21284610F002FE94F8690610F0D8FD5B
:100B2000072110F0FBFD94F86A0610F0D1FD1B219F
:100B300010F0F4FDD4F86426304B9A4240F0FC8467
:100B400003F56043D96841F48051D960D96821F434
:100B50008051D96094F87036002B00F00A8500238C
:100B60001846118801F4415141F445710B43034388
:100B70001380938B23F400631B041B0C93830723C4
:100B8000138213889BB243F04003138094F8C4345B
:100B9000032B3ED11F2008F0A0FB0023184A02EBD4
:100BA000C30191F90210022901F0EB830133042BF8
:100BB000F5D12BE0ACC5A73701510108A0300020CA
:100BC000815001082D510108A43000206F12833A92
:100BD00004250020835001089C04002024270020C5
:100BE0003C3A002040420F00154F0108E009002068
:100BF000515001089024002009A60108003001404E
:100C0000EA290020ACC5A73698380020022008F059
:100C100064FB0CF004F8012007F0CAF92C2010F056
:100C200057FD039BC3F874069F238DF844300023BF
:100C300032208DF845308DF846308DF8473010F071
:100C40009AFC039BD3F8740610F08AFD15AA0423BE
:100C500011A9BB480BF06DFF039BD3F8740610F08D
:100C600084FD9DF856309DF855201B0243EA02434F
:100C70009DF857201343B34A934223D0322010F0FB
:100C80007AFC039BD3F8740610F06AFDF521AC489A
:100C90000BF07DFFFF21AA480BF079FF039B8DF835
:100CA0005400D3F8740610F060FD9DF85430702B9A
:100CB00008D1039B93F8C434022B03D10323039A76
:100CC00082F8C434A04B5F799E79781E751E42422B
:100CD00042416B426B4184F87C36079B84F878264E
:100CE0001D682B0400F1498415F0007505D0974B61
:100CF000DD7AA5F108014D424D41142200219448AE
:100D000084F87A5617F0F2FC012F04BF94F8793674
:100D100084F880361DB194F87B3684F88F3694F8C9
:100D20007E361BB194F87F3684F88A36012E08BFD0
:100D300094F87D36864D08BF84F8853600232E460C
:100D40004FF0070B1F469946DFF8248208F1940AFA
:100D50003078E8B110F0BCFC18B180F806B080F82B
:100D60000790002110F0DAFC002331781AF8130004
:100D70005A00884240F0048408EB020393F895304F
:100D800073700723337101237A1CB770F370D7B2E5
:100D90000BF1010B5FFA8BFBBBF10B0F06F10506A4
:100DA000D6D1002B00F0BB806A4E4920736843F413
:100DB0004043736011F0F0F9674A684900234FF02F
:100DC0001C0E104688460EFB032CDCF804C08C4534
:100DD00040F0DD83DBB21C2101FB0303726919695A
:100DE0004FF000090A437261062283F819901A76BF
:100DF0005A4810F072FE15A810F044FE584B022F0E
:100E0000159334BF4B4680231A934FF480731B9382
:100E10004FF480631C9320231D934FF40053514ED5
:100E200015A94E4818971E931696CDF85C90CDF8EC
:100E30006490CDF87C9010F032FE012F94BF002218
:100E40000122D8F80030484943F00103C8F80030C7
:100E50004B684FF0070E23F4702323F4807343EAAA
:100E600002234B608A68414B134043F4602343F0F4
:100E700002038B60CA6A7B1E22F47002DBB242EA74
:100E80000353CB621F270123EA784AB395F8018008
:100E9000581CB8F1090FC0B295F804C040F27D8328
:100EA000A8F10A02D1F80C9002EB42020EFA02FA03
:100EB00029EA0A090CFA02F242EA0902CA60062B80
:100EC00000F2788303F1FF3C4A6B0CEB8C0C07FAC1
:100ED0000CF322EA030308FA0CF21A434A630346AE
:100EE0000535AE42D0D1204B9A6842F480729A60A8
:100EF0009A6842F001029A609A6842F008029A6089
:100F00009A681207FCD49A6842F004029A60164B61
:100F10009A685707FCD49A6842F4A0029A60D4F801
:100F20009C06002841F03882D4F8A036002B41F00E
:100F30003382D4F8A436002B41F02E821AE000BF91
:100F40000038004015202000BC150020F8260020A5
:100F50001C0B00200010024020000020080002406E
:100F60004C240140300B002000240140FDF7F1FF2C
:100F70008CA501080CF030FC30B90120022110F0E2
:100F80006DFC012014F0A4FE94F8C53443F0020374
:100F900084F8C5340EF0E4FBB04B186812F076FB11
:100FA000AF4B1A88AF4B1A80AF4B5A6B99460AB1B8
:100FB0000CF060FFAD4BAE491B78AE4CD80001443D
:100FC0004A78AD492260079A1268114009B101229E
:100FD0002260002140F2DC55A84A22F8115001316C
:100FE0000829FAD12268002A40F0018303F0EF02B9
:100FF000082AA34A40F040831178182B41F01001D1
:10100000117001D112F0FEFA23689E4D002B40F0C2
:101010003C83AB89002B40F072830121084610F01D
:10102000DFFB0021084610F0DBFB0021022010F05E
:10103000D7FB0A24944D012010F03CFB002010F057
:1010400039FB192010F097FA2B68DE0302D4012037
:1010500010F09AFB192010F08EFA002010F094FB8B
:10106000013CE8D12146204610F0BAFB2146012080
:1010700010F0B6FB854B864D587A18F087FD8549F0
:1010800018F0D8FD844918F0CDFC0BF0AEF8834B76
:1010900015AF1860B9F8140018F078FD01468048C3
:1010A00018F07CFEC5F8A80612F046FD0123159342
:1010B00010237C4A16931368904613F4800F04BFE4
:1010C000794A1592D80058BF159A78485CBF42F00B
:1010D00010021592764A03901268910742BF159A42
:1010E00042F0C60215929A0542BF159A42F4800258
:1010F0001592159A42F000611591017801F0EF0602
:10110000082E01D00E2904D142F0006242F4805230
:101110001592159ADE0354BF42F4005242F4204265
:101120001592159AD8044CBF42F0644242F04442F2
:1011300015929A0642BF159A42F4807215925E0784
:1011400042BF159A42F400321592159A42F40020DB
:101150001590580505D5574B1B7913B142F4C012B1
:1011600015924FF00109182902BF159B43F06073D7
:10117000159321463846E6B20BF0A3F970B130461C
:1011800014F0BFF950B9620957F8223006F01F0673
:1011900009FA06F623EA060647F822600134252CF0
:1011A000E7D1DFF830A197E803004FF419728AE81D
:1011B000030000210AF1080017F098FA08F0ACFAD1
:1011C0000022DFF814E13C4BF4461A809A703B4948
:1011D0003B4B3C4E3C4C3D481960DFF80091338B53
:1011E000DFF8FCB0C4F80490A06085F8182919B2A3
:1011F00004900AF51C7ADBF800002EF8121000F5B6
:1012000096704AF822000132122AF4D1D8F8000070
:10121000C20458BFB6F92410ACF806102C49DFF808
:10122000B8C001F1500E0A78002A5BD18A7891F893
:1012300003A0524556D2002A00F07182013A02EB17
:10124000820202EB820202F5617291F801A092B271
:101250000AF1040A2CF81A2044E000BF701E002096
:101260007A1E0020FE180020F81D00203C100020EF
:101270001CAC01080411002020001000FC1E0020FE
:10128000F9180020442E0020281C0020DC3000200B
:101290009C04002035FA8E3CDB0FC93FFC30002057
:1012A000A889803A2427002001000010291F00206F
:1012B0002C1F00206C260020CC150020A0860100E9
:1012C000B42B0020F8260020E8260020452F010836
:1012D000341C0020480B00201C160020492F010858
:1012E000B826002004318E459DD1020740F132829C
:1012F000307A0A2800F22782DFE810F02202220268
:10130000A604E7040B052B052B05B5052502F20500
:1013100022020024A14601274FF00008FFF7CBBAB4
:10132000C24CF7E7C24CFFF7B8BA304610F0D0F91C
:101330006B1C6061DBB210B10322C37182711A2190
:1013400010F0ECF9002F52D0BBF8000018F01EFC92
:1013500018F072FEB74B4FF6FF7A1E68B6FBF0F33B
:1013600053441B0CB6FBF3F60FB1B6FBF0FA9BF837
:101370000230042B3FD1504618F004FCAB4918F062
:1013800059FCA0600990304618F0FCFB494618F063
:1013900051FC099B0890A849184618F04BFC089A84
:1013A0000146104618F03CFB9BF80330E0603246E3
:1013B000019304991FFA8AF3CDF80080204613F0B8
:1013C000FFFE002318229D49AB4219D1002383F070
:1013D0000103237401231D44082D637404F11804D0
:1013E0007FF486AA0122964B1A70FFF796BA0598E9
:1013F00014F0BEFDACE7304618F0C4FB0799BEE719
:1014000002FB031046686068864201D00133DBE7C7
:101410000123DCE71B8D874A9BB212680133B2FBC4
:10142000F3F3884A1370FFF7ADBA9A047FF5D1AA97
:1014300094F81826844B04F5A8651A7004F5C26860
:1014400016F80890002148460EF014FD074698B3A0
:1014500000224FF0010A5FFA86FB05F80FBC45F841
:10146000040C05F80E2C05F80D2C05F810AC4846B8
:1014700010F02EF9D3445FFA8BFB18B180F806A068
:1014800080F807B04FF0000B2A2110F047F96F4A9F
:10149000002138460FF074FF6D4B2A1D2B606D4BF9
:1014A000294638466B60C5F808B00FF0BDFF5A46B4
:1014B000797938680FF06CF90136082E05F11C05B2
:1014C000BED1FFF786BA10F003F94021C4F84006F8
:1014D000054630460EF0CEFC0646CDB1C0B1242301
:1014E000AB7101231A21EB71284610F017F9002186
:1014F000A4F8447601915849544A91FBF7F192FBC4
:10150000F7F389B200919BB23146544813F058FE6C
:101510000023D4F82C26138084F83D36FFF77DBADB
:101520004F4AD1680B43D360FFF7D6BA4C4A1169D2
:101530000B431361FFF7D0BA4A4B9A420BD103F524
:10154000EC33196941F480411961196921F4804132
:101550001961FFF7FFBA444B9A427FF4FBAA03F5E7
:10156000EA33196941F400411961196921F4004114
:10157000EEE701230220FFF7F4BA0125FFF7BDBB18
:1015800001330A2B7FF4F2AB0023FFF7F9BB0133E1
:10159000072B7FF418AC00231DE40A6908EB480A06
:1015A0000EFA0AF922EA09090CFA0AF242EA0902D9
:1015B0000A6184E40C2B0DD8DA1FD1F830C002EB9D
:1015C000820207FA02F32CEA030308FA02F21A4332
:1015D0000A6384E40D3BCA6A03EB830307FA03FC46
:1015E00022EA0C0208FA03F31343CB6277E41F4AA2
:1015F0001F4912F833E00244556881F800E0002DDD
:101600003FF4F4AC00221B4E7245BFF6EFACC2EBC8
:10161000C2002918D1F800C0871940F806C0888890
:101620000132B8808979B971EEE700BF6F12833A51
:10163000282930381C00002000007A4404250020AE
:10164000081100202C040020B424002040420F0088
:10165000A5500108ED4E010820A10700C80A00208E
:101660000010024000380040003C004038AB010848
:10167000E52C0020E62C00200E2B3FF4BDAC1178A9
:10168000192B21F010011170BBE400244FF0040B62
:10169000274EDFF8A0A005F1030818F8017F002FFE
:1016A0003FF4B7AC384610F013F8013403467061CC
:1016B000E4B210B180F806B0C4710021384603933B
:1016C0000EF0D8FB0746039B1A21184610F026F8A7
:1016D000002F3FF49EAC00226B8801929AFBF3F33B
:1016E0002A889BB200923046124A394613F068FDB0
:1016F0000123082C737406F11806CED189E4002466
:101700000D4F0E4EA88918F03DFA3A68014630197F
:1017100024340AF07BFEB4F5907FF3D17DE40AF126
:10172000010A0AEB8A0A0AEB8A0A0AF561728CE559
:10173000243B002040420F00101F00202C110020ED
:1017400010F0FBFD30B908200BF086FB049BC4F8B9
:101750000490A360D8F8002051040BD51223237005
:1017600044F620636380C24BC2496360C24BA360EE
:10177000C24B196042F201031A4209D044F62063B9
:101780006380930440F1D48308232370BC4B6360CF
:1017900096F82830217804338B42A8BF0B464FF0CF
:1017A000000AB84CD10385F8643984F800A040F1F0
:1017B00052810AF0F5FA01232370B34B40F2AA429A
:1017C00093F831B15146B14816F090FFBBF1000FCC
:1017D00000F03481514658460EF04CFBAC4B026889
:1017E00004461A6082689946002A00F0278158460C
:1017F0000FF06EFFC5F8680918B1282380F807A01C
:1018000083711B210FF08AFF0023A24AD9F8001030
:1018100002F1180E5EF833004FEAC30C814240F02B
:101820008E836244107F10F0B7FCD9F800009A4A0A
:1018300003884FF0000A23F001031B041B0C0380F4
:10184000964BDFF87CE21B68ADF83EA0934281BF67
:1018500003F1B772924902F55852B2FBF1F292BF0E
:10186000002202F1FF3292B2511CB3FBF1F38D4919
:10187000ADF83AA0B3FBF1F303219BB2B3FBF1F156
:101880004FEA410CAEF800C0DFF838E28DF840A016
:10189000AEF8001020A921F8482DADF83C3010F02A
:1018A000E4FC6023ADF846A0ADF848A0ADF84AA02E
:1018B000ADF84CA0ADF850A0ADF84EA0ADF852A0D8
:1018C000ADF84430E379D9F800005A0757BF012238
:1018D000042303F00203ADF846204EBFADF84830B4
:1018E0004FF48072ADF84C304FF0000358BFADF8A4
:1018F0005020ADF84A3011AA61790EF0C7F961792C
:10190000D9F8000010F084FCD9F800206648B2F83D
:1019100044304FF0000B6FEA43436FEA53439BB2EE
:10192000A2F844301388DFF8A0A19BB243F08003F3
:101930001380E379617913F0040F14BF04230123AA
:101940008B40118C9BB289B221EA03011184118C66
:1019500089B20B43138413889BB243F001031380B5
:101960001C22217B514B02FB013143690A6913435D
:101970004361282381F819B00B7643691A43426109
:101980004B4AC1F814B08A604A7B15A88DF85420E0
:1019900001228DF856B08DF855208DF8572010F0A3
:1019A00019FCA068CAF8000010F097F8DAF80000F7
:1019B000026822F001021204120C026010F08DF88D
:1019C00015A810F05FF8D9F80020617934320A4484
:1019D000159240F2AA42189280221A922B4A15A917
:1019E0001692102217924FF400721B924FF400527D
:1019F000DAF80000CDF864B0CDF870B01E92CDF8E2
:101A00007CB0CDF874B010F04AF86279D9F80010C3
:101A10000C2A8EBF5B461F4B03EB420B8A8998BF93
:101A2000BBF8A83092B21343DAF800208B81136818
:101A300043F00203136001221E4B1A700023FF21A2
:101A40001C461D481A181C520433C02B9170D170CB
:101A5000F8D112F08FFCD8F80030580578D5042062
:101A600007F038FE154B0421186007F029FE2DE021
:101A7000C12F0108400D0300A92F0108B42B00203D
:101A8000992F0108FC150020AC1300202033002002
:101A9000D03700208CA50108FF6BDC021C00002061
:101AA000006CDC0200350C00001002402000002019
:101AB0006D7A0008CA370020E0140020A426002018
:101AC0001E3300201C330020CC370020BD4B187083
:101AD000082007F0FFFDBC4B0821186007F0F0FD5F
:101AE000BA4B2C2218700021B94816F0FFFD7C2358
:101AF00085F86C398E2385F86D39E02385F86F39C8
:101B00007D23202085F8973907F0E4FDB14B202193
:101B1000186007F0D5FDB04B1870102007F0DAFD03
:101B2000AE4B1021186007F0CBFDAD4B18704FF491
:101B3000805007F0CFFDAB4B4FF48051186007F099
:101B4000BFFD0022A84B1870A84B1A7010F0F0F9D6
:101B5000A74C2288002A40F02882A64B95F8A809B5
:101B6000C5F89839022385F89C3995F8A939013BC5
:101B70005BB2012BDCBF05EB0313D3F85426C5F889
:101B8000A029002800F011820FF0A2FDC5F8A409D9
:101B900018B11A2383710023C37113210FF0BEFD06
:101BA000D5F8983998680FF0E0FD00BFD5F898395E
:101BB000022158680AF09CFF4FF000089F23322052
:101BC0008DF844308DF845808DF846808DF847803B
:101BD0000FF0D1FC8DF8558000BFD5F89839986882
:101BE0000FF0BEFDD5F898093A4611A904234068C4
:101BF0000AF09FFFD5F8983998680FF0B6FD00BF3E
:101C00009DF856309DF855201B0243EA02439DF88B
:101C100057201343784A934200F01F8300F3088350
:101C2000A2F52102A2F5CC42934200F0168300F304
:101C3000AF81A2F51A42023A934240F0B1812023CB
:101C400023804FF4807368E30A221B0193FBF2F3B5
:101C500000226A49A3F5B06341F822300132122A0A
:101C6000FAD142F6F8236380654B40206360654BF0
:101C70002270A36007F02EFD824600283FF463AD7A
:101C800010F03EF9737AB17A00280CBF01220322CA
:101C9000002B0CBF0623072300290CBF00210821BD
:101CA0009AF902E082460B438DE80C00564B574AE6
:101CB0004021704607F05AFBBAF1000F01D0544B97
:101CC0001860003018BF01203CE51023237042F655
:101CD000F82363804F4B402063604F4BA36007F0B5
:101CE000F9FC824600283FF42EAD10F009F9B27AD3
:101CF00000280CBF01230323002A0CBF0022082266
:101D00009AF902E00192009382464FF4E133434A8C
:101D1000CEE70823237042F6F8236380404B40202F
:101D20006360404BA36007F0D5FC824600283FF477
:101D30000AAD10F0E5F8002200280CBF01230323B0
:101D40009AF902E00192009382464FF4E133364A59
:101D5000AEE700234FF00C0E344A35491370354A74
:101D6000062884F800E00B70137071D01B22324BF0
:101D70004FF4E13B1A700522304B83F800E0304B02
:101D80001A7042F6F82363802E4B402063602E4B7E
:101D9000A36007F09FFC824600283FF4D4AC10F00B
:101DA000AFF8B27A00280CBF01230323002A0CBF2E
:101DB000002208229AF902E00192009382465B46D3
:101DC000224A75E7A826002098260020A926002090
:101DD000080E0020B0260020AB260020BC260020E4
:101DE000C1260020C4260020C2260020C3260020D1
:101DF0001C040020380E00201720C200C42A002036
:101E0000012B01081D2B0108A08601007932010871
:101E10003027002011D5000825D5000849300108D9
:101E200089D40008A1D4000885D60008E91800204C
:101E30003C180020E81800203D1800206118002000
:101E4000EA180020C7D30008DDD30008ADD500088C
:101E500021223E4BDFF834B11A703D4B83F800E08D
:101E60003C4B18708DE74FF0000B3B4B402083F844
:101E700000B00E23237044F620636380374B636009
:101E8000374BA36007F026FC00283FF45CACB0F8A9
:101E900000A0344B0AF4825A83F800B0B37ABAF542
:101EA000825F90F9020014BF01220322B3B9BAF590
:101EB000825F14BF5B4608238DE80C0040214FF47D
:101EC000E133294A07F052FABAF5825F7FF4F9AE9E
:101ED0000022264B1860264B1A70F2E60823EBE727
:101EE0000A221B0193FBF2F300222249A3F5B063FF
:101EF00041F822300132102AFAD141F60B236380D7
:101F00001D4B402063601D4B2270A36007F0E2FB75
:101F100000283FF418AC03234FF0000E90F90200A4
:101F2000174A8DE808404021164B07F01FFAC8E613
:101F3000D0077FF52DAC0C232370134B27E401331E
:101F4000042B7FF467AC00206DE400BF3D18002037
:101F500061180020EA1800207F2C0020D12F0108F2
:101F6000093401087D2C0020313301085826002057
:101F700064260020282B0020792C0108FD2C010864
:101F8000CD320108A0680600892F010890D0030017
:101F9000B34A934200F0BE81B24A934200F05B81A3
:101FA00000232380A3816360A360A568B5B14FF0CF
:101FB0000008ED0A0DF15409A8450ADA08EB0504FA
:101FC000641010223946E0020AF030FB0F2800F3BB
:101FD000B9810AF04BFCA44BED021D600023A34A1B
:101FE000A34C1360A34A1380A34A1380A34A13800F
:101FF000A34A1360A34B1A6899461F2A40F0AC818C
:102000004FF48063A04A23801188A048002940F043
:10201000AC81018092789E4B02B101221A70B4F912
:1020200000309C4A1B021360039B9B481B789B4C0F
:10203000052B02BF4FF4C872994B1A800BF076FE45
:10204000984A00211378A4F8AE1943F008031370DE
:102050000423954A84F8AC391370944A944B117058
:10206000642219705A705960924BA4F8B019198003
:102070005980914B5A799A46012A0BD1282204F6AD
:10208000B41016F033FB4CF250328C4904F6B81001
:102090000AF0BCF900218A4B84F8DC1919605960F8
:1020A00099609AF80630012B09D11022854816F064
:1020B0001DFB4CF25032844984480AF0A7F9844B46
:1020C000DFF84C821B68834AC8F80030824B4FF01F
:1020D000010B1B6880209B1A18BF01237F4A804F89
:1020E000137013F0F5FD002140227E4884F814BAE5
:1020F00016F0FCFA00237C4A7C4D3846C4F8183AA6
:10210000136007F055F82B68D90709D5D9F80030C6
:102110005946642BB8BF642358467B6407F080F8A7
:102120002B689A0709D50121022007F079F8704B36
:102130005B6B642BB8BF6423BB6729680320C1F3C2
:10214000400107F06DF80121052007F069F8694B9F
:102150009AF805B01A8C684B072093FBF2F3642BB6
:10216000B8BF64231BF10001C7F8143118BF012167
:1021700007F056F89AF80690082019F1000118BFE8
:10218000012107F04DF89AF80A30002B40F08F81BA
:102190009AF80B30002B40F08A81D8F80010C1F378
:1021A0008041BBF1000F03D1B9F1000F00D14946C6
:1021B000092007F035F80121042007F031F84F4BD2
:1021C0000620197807F02CF801210A2007F028F8DA
:1021D00029680B20C1F3001107F022F82B680C20AE
:1021E00013F0140F14BF0121002107F019F8D8F8DB
:1021F00000100D20C1F3802107F012F8D8F800106C
:102200004B0507D5337A083B012B9CBF4FF4FA638B
:10221000C7F8B432C1F300410E2007F001F894F87A
:10222000C53463F07F0384F8C53421B0BDE8F08F76
:10223000334A934211D004DC324A934208D0324AE6
:10224000FAE4324A934265D0013293427FF4A8AE59
:102250004FF40073F4E44023F2E48023F0E400BF81
:1022600018BA20001620C200E83700207C38002071
:102270006E3800208038002082380020843800200A
:1022800078380020D8290020D83700207038002066
:1022900086380020A81F0020002800209C04002071
:1022A000BE1F0020F9180020B71500207A26002054
:1022B000440F002066260020BC150020CDCCCC3D6C
:1022C000F01E00207C0E0020CDCCCC3E8C0E0020D9
:1022D0009C1E002083500108A0300020081100201F
:1022E000FC000020B0190020AC1900202C1F002099
:1022F000F81D0020EA29002040420F003527002069
:102300001740EF001920C2001540EF001840EF0001
:10231000242700204FF480732380A38163882288C0
:102320001B0263605343B3F1807FA360614D05D905
:102330000123B72085F8AA390AF0BCF9012385F8F2
:10234000AB3932E6002359F82320013220D1013382
:10235000042BF8D125462FE63F2A16BF4FF4FA4347
:102360004FF40073B3FBF2F34CE6B4F9003099423A
:1023700004DD1F2B02DD012303804BE693FBF1F309
:10238000FAE732F83330002B7EF448ACFEF73EBC5F
:1023900004F101082C46DDE70022474B00B21A7019
:1023A00017F0F4FB454917F045FC0746B4F9A006C1
:1023B00017F0ECFB414917F03DFC0646B4F9A406C2
:1023C00017F0E4FB3D4917F035FC3D49054638461A
:1023D00017F028FB09F009FF8146384609F005FF90
:1023E00037490746304617F01DFB09F0FEFE8046D0
:1023F000304609F0FAFE32490646284617F012FB2D
:1024000009F0F3FE8346284609F0EFFE494682466E
:10241000584617F00FFC49460390504617F00AFC47
:1024200059460490384617F005FC51460590384649
:1024300017F000FC41460690584617F0FBFB214D73
:102440005146286008F1004017F0F4FB05996860D8
:10245000AE60304617F0EEFB049917F0E3FA0699E8
:10246000E860304617F0E6FB0146039817F0D8FA0B
:102470004146286107F1004017F0DCFB03996861D1
:10248000304617F0D7FB0146069817F0C9FA0499B1
:10249000A861304617F0CEFB059917F0C3FA4946FC
:1024A000E861404617F0C6FB2862FEF763BD0121D4
:1024B00077E600BF9C0400201800002035FA8E3C0F
:1024C000DB0FC93F841900202DE9F04FB64A97B0C1
:1024D00013780192002B00F0B780B44B18680028E5
:1024E0006DD00AF0EFFBDFF8F8A2B14DDAF800008A
:1024F0000FF0BBF8002862D0DAF800000FF0B2F855
:102500000928AC4C01D03F2850D14FF00008C146FB
:1025100046462768DFF8ACB208EB0B0347B13A46F2
:1025200058F80B102846009316F072FA009B08B971
:1025300076B3994608F10808B8F58C7FECD196B1CE
:10254000D6F800E0D9F800C023681EF803001CF894
:102550000310814207D15A1CE9B97D2B1BD82020DA
:102560002260E854A95423680BB14E4508D0924824
:1025700013F0A7F94E4511D9904813F0A2F900279E
:1025800023689F42B2D2E85D07F028FD0137F7E7E4
:102590001E469946CEE7E8542260D5E756F8080B68
:1025A00013F08FF9092007F019FDE3E72368002BEA
:1025B00041F0B882042805D17D480EF0ACFB17B07D
:1025C000BDE8F08F0C2841F0D0827D4813F079F9F6
:1025D0007A4813F076F989E701220B4601F0B4BA84
:1025E000591E685C2028F7D002B123600026754F81
:1025F000EE54F159284606EB07080EF0CFFD38B926
:102600000836B6F58C7FF4D16F4813F05AF905E01F
:102610006E4B9845F8D2D8F804309847002301F063
:1026200097BA7F2B3FF662AFA0F12002D2B25E2AAA
:102630003FF65CAF13B920283FF458AF5A1C226014
:10264000E85407F0CBFC51E79846614F614D3A786A
:1026500002F00102009255F80A3C002B41F003827F
:1026600008F10108B8F1030F05F1CC05F3D1A6E795
:10267000012B05D14D280CBF0223002301F009BA1C
:10268000022B57D100233C2805F8023C4DD03E28B0
:102690004AD015F802ECBEF1060F41F0E58115F8BD
:1026A000014C002C41F0BE814FF001094A4B05AEB0
:1026B0000FCB86E80F0015F8053C15F803AC2B444A
:1026C0000A93BAF1440F0FFA8AF30995ADF82C304A
:1026D000ADF82E408DF83090ADF81C3001F09281AD
:1026E00000F21181BAF1050F00F0558200F2C980A5
:1026F000BAF1020F00F0938100F2AB80CA4500F0FE
:1027000083813146504603F0F3FB0446002840F035
:102710007981BAF1740F00F0CA82BAF1770F00F034
:1027200057836FF00109D0E2012305F8013C032330
:1027300001F0AFB9032B0BD10023C0289FBF05F8D0
:10274000063C05F8050C05F8040C042301F0A1B9BA
:10275000042B09D115F8043C05F8030C5E4005F87C
:10276000046C052301F095B9052B92D115F8061CD0
:1027700015F8053C15F8042C8B420CD94B1C05F8B8
:10278000063CCC23424005F8042C144A03FB0823E2
:102790000B4498727DE7824202D1062301F079B999
:1027A000002301F076B900BF48260020FC24002059
:1027B000C42500204426002065C801086AC8010815
:1027C0006FC801082CC201087AC8010844C3010877
:1027D000AC1500205A0B002050A60108500B002019
:1027E00000250020009B002B41F03E81232824D1AE
:1027F0000123019955F80A2C0B708C4B8C491A60F7
:102800008C4B8D481A609A609DF8002059605A736D
:1028100040221A73894A04331360894B894ADB7852
:10282000003318BF0123137013F07AF8864813F0B1
:1028300048F84FF4006013F04BFA844B93F82230C1
:10284000B3427FF426AF824B824A1A60824BDC602F
:102850001FE7BAF1030F00F01B81BAF1040F7FF4F8
:1028600050AF002404227D4930460AF06DFC7C4BB9
:10287000304619780AF086FC059B5A1C05921C709C
:10288000CAE0BAF1240F00F0C4811FD8BAF1200FBA
:102890007FF437AFDFF8E0A1724B9AF80120D91C22
:1028A0001A709AF8002005915A709AF80220BAF826
:1028B00008109A7030460AF065FC059B9AF80520CE
:1028C000591C05911A709AF8062083E0BAF1280F76
:1028D00000F0D181BAF1380F7FF413AF0522614BBC
:1028E0004FF001095A700A2200249A705E4A83F858
:1028F00000901178DC701971517892785971D91D56
:1029000005919A71CDE0BAF1810F00F0868130D83F
:10291000BAF1540F00F0C48108D8BAF1520F7FF415
:10292000F0AE504B5A1C05921C70BAE0BAF16E0F13
:1029300000F03E81BAF1800F7FF4E3AE00210A2659
:102940004A4B4B4C1B780B3BDBB299425ADA22883C
:102950000598FF2AA8BFFF2200F1010ECDF814E070
:1029600006700598013100F1010ECDF814E00270F7
:10297000EBE7BAF1A00F00F03C8130D8BAF1820F3A
:102980007FF4BFAE3B4B30461A78364BDFF8F8A0E9
:10299000591C1A70384B059119890AF0F3FB374B13
:1029A000059A1B88511CFF2BA8BFFF2305911370AC
:1029B000DAF80810304681F3100189B20AF0E2FB20
:1029C000DAF80010304601F30F0189B20AF0DAFBA1
:1029D0002B4B1A78059B591C05911A7061E0BAF1CE
:1029E000B80F00F01881BAF1FE0F7FF48AAE002410
:1029F000DFF8989039F81410304601340AF0C2FB21
:102A0000042CF7D1002407E0164BDA1C059224228F
:102A10001C7083F801A09A704FF0010941E0042274
:102A2000184930460AF090FB3BE000BF002500202B
:102A3000B3160108E80E00209AC80108FC24002003
:102A4000D01D0020B00E00206AC80108EA2900202D
:102A5000F04F0020EFBEADDE00ED00E0D51D002000
:102A600060090020483C0020401E0020B4380020AF
:102A7000500E00207A260020BC150020662600207B
:102A8000B7150020A0C80108F01E0020C81E0020B5
:102A90000222BE4B5A70DA1C0592052283F800A070
:102AA0009A70ADF81E90B9F1000F66D0059B55F8ED
:102AB0000A0C0693B54B059303681B6A03B198474C
:102AC000059B069EF61A00230E9324238DF83430BE
:102AD0004D238DF83530BDF91E30FF2E3246A8BF8C
:102AE000FF22013300F091879DF82030002B14BFA6
:102AF0003C233E23FE2ECCBF4FF007094FF00509C3
:102B00008DF83630BDF81C308DF837208DF8383010
:102B10004A46C8BF33120DA955F80A0CC4BF8DF838
:102B20003A308DF839600EF0A6FD0DAB99440023C4
:102B30000DF13702914540F06B87002E8DF8133070
:102B40000EDD3246059955F80A0C0EF094FD059BF2
:102B50009DF813201E449E4240F05F878DF813209D
:102B600055F80A0C01220DF113010EF084FD55F801
:102B70000A0C03685B6A03B19847002305F8023C1E
:102B8000002C3FF46DAD55F80A0C06F09BFB55F890
:102B90000A0CA04764E50B227D4930460AF0D4FABE
:102BA00008227C4930460AF0CFFA07227A4938E7F2
:102BB0007A4B764A1B88DFF80CA2FF2BA8BFFF23B5
:102BC000511C0591DAF80810137081F3100189B2D5
:102BD00030460AF0D7FA724B304619880AF0D2FA1A
:102BE000DAF8001001F30F0189B230460AF0CAFA90
:102BF00057E76C4B304619680AF0B0FA6A4B30461A
:102C000019680AF0ABFA694B196830460AF0A6FA5F
:102C100047E7674BF8E7674BF6E74FF00A0A4FF6CE
:102C2000FF7B654B654A1B780B3B5FFA83F94C458C
:102C3000BFF6E8AE116893685945A8BF5946059894
:102C4000029321EAE171431C059389B280F800A048
:102C5000304603920AF096FA029B30460AFB03F1D3
:102C60005945A8BF594621EAE17189B20AF08AFAAA
:102C70000134039ADBE70A22444BDFF84CA19A7037
:102C8000BAF800101A1D83F8009083F801E083F869
:102C90000390304605920AF075FABAF80210A4E7DC
:102CA0003A4A134603F8024B05935470F9E6099B20
:102CB0000A9A9A420FBF21465A1C09921978404A33
:102CC000304612F031FC4FF0010919F1020F40F0CB
:102CD0004883BAF1470F099B0A9A40F0878009A8F8
:102CE000A2EB030A0AF00AFABAF1050F814679D974
:102CF00009A80AF019FA099B0A9A83469A4202D057
:102D000009A80AF01CFA059A069BDFF8C0A09B1AD6
:102D1000103BDAF808205B45CDF808B0A2EB0902B9
:102D2000B8BF1FFA83FB93454946304688BF1FFA58
:102D300082FB0AF013FA3CB9594630460AF022FAEF
:102D4000059A511C05911470DAF8083009EB0B0252
:102D50009A42059E88BFA3EB090B09F087FD5A46EE
:102D60003146484609F062FC059B03440593002C5C
:102D70003FF448AE0022029B83427FF743AE059B9F
:102D80000130591C05911A70F5E700BF483C00203E
:102D9000A5C80108B1C8010899C801086626002025
:102DA000B4150020E8F7FF1FECF7FF1FF0F7FF1F37
:102DB0009C1E0020281C0020B43800207C0E00201F
:102DC000E1540108F01E0020441E00201C040020D5
:102DD000099B0A9A9A421DBF5A1C099219782146EA
:102DE000A14A6DE701244FF0800B8CE7BAF1290F5F
:102DF000A2EB030437D0BAF1390F20D0BAF1210F7A
:102E000045D15A1C09921A46984C12F8021B16A872
:102E1000099261705A782270DA1C40F8342D9B7840
:102E2000A3700AF081F9099B20815A1C09921A4665
:102E300012F8021B617109925B78A37124E05A1C9D
:102E400009921A780A2A40F028869A1C0992597821
:102E5000874A1170D91C099199785170191D0991EF
:102E6000DB78937010E05A1C16AC44F8342D1B78B4
:102E700020460A2B40F0C1800AF056F97D4E308082
:102E800020460AF051F970804FF0010969E2BAF169
:102E90005F0F00F0078400F25C81BAF1370F00F099
:102EA0003B8570D8BAF12B0F00F09D8420D8BAF181
:102EB000230F00F0B98206D8BAF10B0F00F08D8510
:102EC0004FF0FF394DE2BAF1250F00F07A84BAF1E4
:102ED000270FF5D109A80AF027F9674C206009A847
:102EE0000AF022F9606009A80AF01EF9A060CBE799
:102EF000BAF1310F00F034851ED8BAF12D0F00F071
:102F00008284BAF12F0FDBD15C4C04F1400609A892
:102F10000AF00AF9099BA4F8C0005A1C09921A4643
:102F200012F8021B043484F8BE1009925B7884F80E
:102F3000BF30A642EBD1A7E7BAF1330F00F0D98436
:102F4000BAF1350FBCD15A1C09921A780E2AB7D89B
:102F5000991C09915C78032CB2D80621514348484A
:102F600042185471DC1C09949C784454191D099131
:102F7000D9785170197991705979D170D91D9B798F
:102F80000991137180E7BAF1480F00F016843AD81E
:102F9000BAF13E0F00F0038204D8BAF13C0F3FF4BF
:102FA00073AF8DE7BAF1410F00F0AA84BAF1430F75
:102FB00086D116AC5A1C44F8342D1A78314B324E57
:102FC0001A700023204633600AF098F833681843DB
:102FD000099B30605A1C09921A782C4B20461A72B1
:102FE0000AF0A2F8244E306020460AF09DF8706086
:102FF00020460AF099F8B06020460AF095F820467D
:103000000AF092F840E7BAF1510F00F0B38341D8CB
:10301000BAF14C0F00F04D84BAF14E0F7FF450AF6F
:103020005A1C09921C78112C3FF64AAF9A1C16A81C
:1030300040F8342D5B78164E06F814300AF074F818
:1030400040F6CA039842A8BF184640F2EE239842C1
:10305000B8BF18461923A0F2EE2090FBF3F006EB60
:103060004404607010E700BFAD520108BC15002099
:10307000401E0020441E0020380B0020AC1300200E
:10308000D41C0020291F00209C1E0020F8260020B0
:10309000BA2C0020BAF15B0F00F0AD82BAF15D0FDF
:1030A0007FF40EAF5A1C16AC44F8342D1B78C14E79
:1030B000DFF83493204689F80530D6F800A00AF0EE
:1030C00033F8AAF820002046D6F800A00AF02CF821
:1030D000099A0A9BAAF81E009B1A072B17DD2046A7
:1030E0000AF022F8A9F80A0020460AF01DF8A9F80B
:1030F0000C002046D6F800A00AF016F8AAF8220024
:103100002046D6F800A00AF00FF8AAF82400099A81
:103110000A9B9B1A032B09DD20460AF005F8A9F843
:103120000E0020460AF000F8A9F81000099B0A9A40
:10313000D21A002A05DD591C099132681B7882F8E1
:1031400026300CF00DFB0FF075F9306810F0F0FB35
:103150009AE6BAF1D40F00F0CB816FD8BAF1CA0F5A
:1031600000F046813DD8BAF1B70F00F0C28014D804
:10317000BAF1610F7FF4A4AE5A1C09921A468E4927
:1031800012F8020B0992C87059788C4A5171DA1CF6
:1031900009929A788A4BDA7076E6BAF1B90F00F0A4
:1031A0001B83BAF1C80F7FF48BAEC4F34704122C13
:1031B0003FF686AE00260DF13409A642C0F2D48057
:1031C0000023804A0DA99C4240F0D58000217D4A11
:1031D000122B40F0D6804FF001097B4B83F8009012
:1031E000BFE0BAF1CE0F00F0BA8210D8BAF1CC0F1E
:1031F00000F03281BAF1CD0F7FF462AE3B78D9078F
:103200003FF542AE4FF4C872704B1A803CE6BAF1FB
:10321000D00F00F09882BAF1D20F7FF451AE5A1C51
:103220000992187806065CD43B78DC073FF52CAE93
:10323000032828BF00200CF0D1F925E6BAF1DC0FF5
:1032400000F0C88126D8BAF1D90F00F0A08114D8B7
:10325000BAF1D60F7FF434AE00245D4EDFF88C91C6
:1032600033789C42BFF610AE09A809F05DFF16F056
:1032700089FC49F824000134F2E7BAF1DA0F00F0D2
:103280009481BAF1DB0F7FF41BAE4A4B4E225149B9
:1032900018684AE0BAF1EF0F77D015D8BAF1DD0F10
:1032A00000F08A83BAF1DE0F7FF40AAE09A809F0B4
:1032B0003BFF494C208209A809F036FF608209A82B
:1032C00009F032FFA082DFE5BAF1F20F00F03B8196
:1032D000BAF1FA0F7FF4F4AD3B78DB073FF5F0ADC0
:1032E00037E200F07F00032828BF002011F0CAFF5A
:1032F000CAE55A1C09921A4612F8029B0992DA1C76
:10330000587809929978B9F1000F11D101283FF648
:10331000BBAD01293FF6B8AD81423FF4B5AD4E22B9
:103320002E4B02FB013102FB003012F0E1FCABE559
:10333000B9F1010F7FF4A8AD01283FF6A5AD012931
:103340003FF6A2AD81423FF49FAD0C23244A58437F
:1033500003FB01210B68841883504B6863608B6802
:10336000A3600024FFF79DBB09A809F0DDFE29F842
:103370001600013621E731F8130022F8130001335B
:1033800021E722F81310013322E709A809F0CCFE47
:10339000094CE08109A809F0C7FEA08174E55A1C18
:1033A00009921A460F4912F8020B887009925B784D
:1033B0004B7069E5701E00207A1E0020BE170020A9
:1033C0008A1E0020DA2B0020D82B0020BE1F0020F0
:1033D000B4380020DCC10108983800201A320020DF
:1033E0004A1E0020961E002036270020DC240020E4
:1033F000A04B1868034600F11E04099A0333511CC0
:103400000991114611F8026B03F8036C0991517888
:1034100003F8021CD11C0991927803F8012C9C42FC
:10342000EBD110F0B5F92FE55A1C09921978132940
:103430003FF646AD9A1C09920C2600225C78DFF814
:103440005CE206FB02E090F808C0A44500F030837F
:103450000132252AF5D133E5092C7FF731AD5A1C0D
:1034600009921A46844E12F8021B346821700992A0
:1034700000225B78601DA370022A14BF4FF0640E17
:103480004FF0FF0E099B0132591C099119787145C3
:10349000A8BF7146032A00F8011BEDD19A1C0992BE
:1034A0005A7816A8642AA8BF64222272DA1C0992EC
:1034B0009A78E2701A1D40F8342DDB78237109F0F8
:1034C00033FE0A9B099A6081991A002904DD501C79
:1034D0000990316812784A72099A9B1A002B04DD10
:1034E000511C0991336812785A7012F0A9FACBE492
:1034F0000D2C7FF4E5AC5A1C09921C78072C3FF682
:10350000DFAC0C2609A809F00FFE6643DFF89091A6
:1035100009EB0604A08009A809F006FEE08009A8CE
:1035200009F002FE099B20815A1C09921A4612F8E2
:10353000021B09A8A17209925B78E37209F0DEFD13
:1035400049F80600A0E45A1C09921A780F2A3FF69F
:10355000B7AC991C09915C784848C2EBC20142188B
:103560004454D91C099199785170191D0991D97841
:1035700091701979D170597911719979517103F15B
:103580000801DB790991937110F03CF87CE409A8FB
:1035900009F0CAFD3A4C208009A809F0C5FD6080F9
:1035A00009A809F0C1FDA0806EE419465A1C0992D1
:1035B00011F8020B334A099159781070517016A80E
:1035C000D91C40F8341D9B78937009F0ADFD2C4B4D
:1035D000D88059E45A1C09921A4612F8020B2A495B
:1035E00009920870294A59789170DA1C09929A78E0
:1035F000274B9A7048E45A1C09921A46224C12F83A
:10360000021B244E0992A1705978234A0DF15809E2
:103610001170DA1C09929A7832711A1D49F8342D0A
:10362000DB784846042BA8BF0423B37009F07CFD67
:10363000099A0A9B30809B1A012B03DD484609F04A
:1036400073FDF081099B0A9A9A4206D05A1C09928E
:103650001B78003318BF0123E3710CF081F8099B3C
:103660000A9A9A423FF410AC5A1C09921B78F370E4
:103670000AE400BF701E0020243C0020562D0020CC
:103680001C3C0020741E0020362700207A1E0020DB
:103690008A1E002098380020481E00207CA90108BE
:1036A000C82D002009A809F03FFD09A809F03CFD3C
:1036B00009A809F039FD09A809F041FD099BB24CA0
:1036C000591C09911946226811F8020B82F82C0046
:1036D0000991597809A882F83610D91C09919B786C
:1036E00082F8373009F02BFD09A809F028FD09A858
:1036F00009F025FD09A8266809F016FD708709A8BC
:10370000266809F011FD099B0A9A3087D21A012A0E
:1037100008DD591C099122681B7809A882F82E300F
:1037200009F00DFD099A0A9B9B1A032B09DD09A8D4
:10373000266809F0F9FC708609A8266809F0F4FCEF
:10374000B08620686DE63B78D8073FF59DAB0CF05E
:1037500073FA0BF059FF0CF095F8FFF795BB3B7827
:10376000DA073FF591AB894A137843F004031370ED
:10377000FFF78ABB8649097801293FF685AB591CBA
:1037800009911946834C11F8020BA070D81C0991BD
:10379000121A5978012A09909E7805DD09A809F0C6
:1037A000C3FC2080FFF770BB7B4BB3F900304B4369
:1037B00093FBF6F32380FFF767BB09F095F8FFF75B
:1037C00063BB0023754C09A8236009F097FC2368AC
:1037D00018432060FFF758BB0023714C09A82360F1
:1037E00009F08CFCF5E7581C09901C786D49121AF9
:1037F000002A0C707FF748AB9A1C09925B78003363
:1038000018BF0123D4E55A1C16AC44F8342D1B789C
:10381000654E2046337209F087FCB083204609F0DC
:1038200083FC3083204609F07FFC099B70835A1C7F
:1038300009921B78F3740A9B9B1A032B07DD204621
:1038400009F072FCB084204609F06EFCF084099BFC
:103850000A9AD21A032A0DDD5A1C09921A4612F846
:10386000021B2046B17709925B7886F8203009F078
:103870005BFC7084099B0A9AD21A052A0CDD5A1C3B
:1038800009921B782046F37209F038FC099BF0601E
:103890005A1C09921B783374099B0A9AD21A002A7F
:1038A0007FF7F2AA5A1C09921B7886F82130FFF79D
:1038B000EBBA5A1C09921A463C4C12F8021B16AE7F
:1038C00046F8342D21715B783046637109F02CFC89
:1038D000099B20805A1C09921B783046A37109F07D
:1038E00023FC099B60805A1C09921B78E371FFF747
:1038F000CBBA5A1C09921A782B4B5A75FFF7C4BAE7
:1039000000232949099A501C099012785A5401330E
:10391000082BF7D1FFF7B8BA0726B4FBF6F6C6EBCB
:10392000C603E41A7FF4CCAADFF888B0F6B2E3B29B
:10393000B3423FF4A9AA4FF0000A099B5A1C09920E
:1039400093F900300BEBCA0999F902209A4200F072
:10395000CA800AF1010ABAF1040FF3D1FFF7B0BA35
:103960005A1C09921E782F2E3FF6AAAA052C7FF426
:10397000A7AA09A809F0C2FB0D4B43F8260008F0DE
:103980000FFAFFF781BA00BF701E0020F91800205F
:1039900086380020D83700206E3800209C1E00207A
:1039A000281C0020291F0020F8260020203100209C
:1039B000AC130020EA2900205A1C09921A4612F87A
:1039C000020B0992DA1C597809929A7808F0C4F926
:1039D00000287FF459AAFFF773BA002111226A4820
:1039E00014F084FE102C4FF0000328BF1024664909
:1039F000A342BFF449AA099A501C099012785A545C
:103A00000133F5E7614CFFF74CB82123FFF772B89B
:103A100012F8011B4B40FFF78DB813F8011B4A4009
:103A2000FFF799B8012C1BD1102200210DA814F02A
:103A30005DFE15F8053C0D952B440E9315F8033CDF
:103A40006E2BADF83C300BD10DA809F078FB0DA81A
:103A500009F06AFB0DA809F067FB0DA809F064FBEB
:103A60000024FFF78AB84A4C55F80A0C0DF0FDFD0A
:103A700000283EF4F5AD55F80A0C0DF0F3FD15F8ED
:103A8000023C0646002B7EF4F3AD24287EF4AAAE59
:103A9000012305F8023CFEF7FCBD09A809F04FFB25
:103AA00009A809F04CFB09A809F049FBFFF7ECB99C
:103AB000384A007802F82100D81C0990987802EB67
:103AC00081011A1D48700992DA7800208A705A1D07
:103AD0001B790992CB7011F029FF2F4B80F0010068
:103AE0001870FFF7D1B989F8023009A809F01CFB5A
:103AF000099B2BF83A005A1C09921A4612F8021B2D
:103B00000134099289F803105A7889F80420DA1CE4
:103B100009929A7889F806201A1D0992DB7889F8AB
:103B2000053004E70C283EF450AD0A2801D00D28DA
:103B300020D111F0DFFE2321284614F069FE08B1E0
:103B4000401B206000222368002B7EF449AD02B1A7
:103B5000236080220021284614F0C8FD019B1B78B9
:103B6000002B7EF435ADFEF72ABD7F287EF45CADD8
:103B7000FEF7BCBC7F287EF454AD0022013B2360DD
:103B8000EA540648FEF725BDE41D00202BF5000889
:103B90000400FA05341C00200000002096C801082B
:103BA0002DE9F04FB24B9DB01B780790012B07D148
:103BB000B049B14A0968C9691180B0490988518082
:103BC000AF4D2A78002A00F00F85072B40F00082C5
:103BD0000DF07EFC0690AB4F3B68089713F4806FA6
:103BE00005D0A948836813B100F150019847A74B4D
:103BF000A7491B68B1F906405A890991944280F29D
:103C0000EA814FF07E536B60A24B4FF0000893F9AE
:103C10000410A14A002914BF01214FF0FF31168B77
:103C200093F801A093F800909C4F05910A92099B8C
:103C300033F918B0ABEB06000028B8BF4042B0F52E
:103C4000FA7FA8BF4FF4FA70B8F1020F00F0D681E6
:103C50004845CCBFA0EB0900002015F097FFB34505
:103C600047F82800C0F2D88108F10108B8F1030F25
:103C7000DDD1089B1F6817F4805800F0D481B4F59B
:103C8000FA6F2346A8BF4FF4FA63B3F57A7FB8BF43
:103C90004FF47A73A3F57A732A7A22B16A7A53437E
:103CA000642293FBF2F34FF0640E93FBFEF27C4828
:103CB00002F1010C30F9121030F91C006FF0630CA6
:103CC0000CFB0233401A584390FBFEF0084400B24C
:103CD00015F05CFFDFF8C4918246C9F80C00B8F11A
:103CE000000F1DD01D2011F05BFEC8B16D4BDB78BD
:103CF000B3B96D49504615F093FE16F077F94FF4BD
:103D00007A7300B2000390FBF3F3C6F5FA6000B2D9
:103D1000584340F30F30304415F038FFC9F80C0019
:103D2000624B1E8873063BD5614BB3F904000A232E
:103D300090FBF3F02B8AC01A00B215F027FF5D4903
:103D400015F078FF5C49054615F06CFE08F04DFA59
:103D50008346284608F049FA504D81462B6859465B
:103D60001846089315F066FFD5F804A00590514653
:103D7000484615F05FFF059A0146104615F050FEC3
:103D800059462860504615F055FF089B8246194653
:103D9000484615F04FFF0146504615F043FE686057
:103DA000464B374D1B6813F0140F1AD016F4027FE0
:103DB00017D0434BDFF8E4901A7812F0100200F0AD
:103DC0004781AB7C6869002B0CBF01234FF0FF33A8
:103DD000584315F0DBFED9F8041015F023FEC9F89E
:103DE0000400384BDFF8B0A01A789946A2B1BAF8AF
:103DF0001A30A34210DB344B1B78012B01D0192B56
:103E000002D1324A927B3AB90E2B05D0082B1FBF44
:103E10000023224AEB63936095F84240002C68D05F
:103E2000B60766D02A4B2B491E6A304616F0AAF810
:103E3000002840F06081304612F09CF9696C15F062
:103E4000F9FE12F01FF9B0F5617FA8BF4FF4617061
:103E500015F09CFE204915F0EDFE08F0C6F9064667
:103E6000204615F093FE314615F0E4FE36E000BF23
:103E7000281F0020E0260020C81E0020001A002075
:103E80003C0F0020242700204C270020243C002049
:103E90001C160020741E0020F82600207C2600201E
:103EA000283C0020CC15002000007A444416002055
:103EB000F430002035FA8E3CDB0FC93F2C1F002068
:103EC000F918002000000020291F0020442E0020A7
:103ED000B43000208FC2753CD06D393A12F0D2F860
:103EE00000B215F053FE894C0146E06815F09AFDCA
:103EF000E06095F84860002E5CD0854B0420D3F834
:103F0000EC4044F620639C42A8BF1C46B4F57A7F7F
:103F1000B8BF4FF47A74A4B2A5F84A4011F040FD3E
:103F200008B9F80046D54FF47A73B4FBF3F4642370
:103F300093FBF4F4DFF8ECB1142CA8BF1424DBF8E5
:103F40000030B8F1000F00F0D8805F8E7F086F4915
:103F5000EB6CD1F80C805A1CEA6405EB4303404635
:103F60000892059316F042F8089A059BA242A3F81E
:103F70005000A4BF0023EB64EB6C05EB4303B3F9E3
:103F8000500015F003FE0146404615F049FD16F0BD
:103F90002DF800B20028B8BF4042B84240F3B080CC
:103FA000DBF80030988E15F0F1FD5A4915F042FE0D
:103FB000C9F804009AF81E40002C00F0DC81022CA5
:103FC00000F0B280032C00F0AF81534B5888B0E072
:103FD00000230693FFE5B4F5FA6F187ABFBFA31A62
:103FE0005843C2F5FA6290FBF2F0C0F1640015F09C
:103FF000CDFD4A4915F01EFE686005E65045D8BF64
:104000000020059BC8BFA0EB0A00584315F0BEFD79
:10401000B345B860BFF62DAE57F8281001F1004146
:1040200047F8281020E60A9B5A8B94420EDBB4F521
:10403000FA6F2346A8BF4FF4FA634FF47A719B1AC4
:104040004B43C2F5FA62B3FBF2F325E61346F4E7FD
:10405000334BD978987871B3B5F91830E11A002943
:10406000B8BF4942814210DDEA6101229C4285F8D5
:104070002020C8BF404215F089FD0146D9F80C0048
:1040800015F0D0FCC9F80C00ABE695F8201019B17A
:10409000A96A85F82020696268691844B0F5FA6F4A
:1040A000A8BF4FF4FA60B0F57A7FB8BF4FF47A70CA
:1040B00015F06CFDE6E7B5F91820A31A83EAE37E54
:1040C000AEEBE37E86450BDD022193FBF1F3EB6261
:1040D000012385F8303085F8203068691044DDE729
:1040E00095F82030002BF8D0AB6A85F830106B6261
:1040F00085F82010F1E70020F2E6B3F9327026E7E8
:104100004FF07E53C9F8043054E700BF7C260020EE
:10411000FC0000206F12833AE82600200AD7233CD7
:10412000741E0020701E0020B5F84A0000F57A7059
:1041300080B29AF81F400234E4B2002E00F00981E8
:10414000002800F00681904B00261B688F4FB0FBC3
:10415000F3F000B2A5F8780015F018FD01464FF015
:104160007E5015F01BFE8046DFF8289207F1100AFA
:10417000A642C0F2E180864B1B78092B11D1854BFA
:10418000854E186811F07EFF844B3080D3F8EC0028
:104190004FF47A7390FBF3F015F0F8FC15F026FF5E
:1041A0007080B5F97830002B40F3E88000267C4F12
:1041B000DFF8E091A7F11008F3B29C4200F2CF8043
:1041C00095F848300893002B40F0DA80002C00F07E
:1041D0008B80022CA8BF0224099400244FF07E5942
:1041E000704BDFF8F0811F68694B1B780A937B1DC9
:1041F0000B93099B9C4240F3EF800A9B092B08D14B
:10420000694B654CB3F87820586BA28015F0EEFE30
:10421000E080664B93F82140002C5FD01E2011F007
:10422000BFFB00285AD0624B1B88590656D45E4FFC
:10423000604E97F8B430A34213D087F8B4402046BC
:1042400015F0A4FC5C4915F0F5FC5C49044615F03A
:10425000E9FB07F0CAFFB060204607F0C6FFC7F8C9
:10426000B800D6F808806C6B4146204615F0E2FC99
:10427000EF6BD5F8B86081463146384615F0DAFC68
:104280000146484615F0CCFB4D49814615F07AFEB3
:1042900008B9DFF82C914B49484615F07DFE08B966
:1042A000DFF8209141463846C5F8349015F0C2FC3D
:1042B00031460746204615F0BDFC0146384615F04C
:1042C000B1FB3F49044615F05DFE00B93C4C3D4949
:1042D000204615F061FE00B93A4CEC63089B1BB117
:1042E0000022314B83F84820374B1B78002B40F0DD
:1042F0006E81364EB278002A00F06981344C237802
:10430000013B0D2B00F25181DFE813F006011A0189
:10431000400134024F014F014E02620274029002CA
:10432000A102E502EF02F8029AF82000C0EB401368
:1043300000EB8300C000FBE65AF8261059F826006F
:1043400015F06EFB414615F075FC47F82600013666
:104350000EE7B5F87830013BA5F8783021E757F83B
:10436000260058F8261015F05DFB47F8260049F89E
:104370002600013620E7A5F8784021E700241FE752
:104380000223099329E700BF101F0020B80F002067
:10439000281F00207C260020C81E0020FC000020D2
:1043A000C80F0020243C00203C0F0020F8260020ED
:1043B000441600200000002035FA8E3CDB0FC93F78
:1043C00000C0F94400C0F9C448260020D8370020B6
:1043D000863800200AD7233C022C15BF387878781D
:1043E00097F802B097F809B015F0D0FB414615F0E8
:1043F00021FC4FF08041064615F0D8FD60B14FF02A
:104400008041304615F00CFB524915F013FC014673
:10441000304615F007FB0646A30005934E4B4F4967
:1044200053F8240015F006FC20F000434C4A059395
:10443000059B42F824000C32824642F82430BBF13E
:10444000000F1FD0584615F0A1FB414615F0F2FBB6
:1044500083465146504615F0EDFB059915F0EAFBF1
:10446000594615F0E7FB59460C90484615F0D8FA26
:104470000C9A0146104615F0D5FA0146504615F043
:10448000D9FB82463749304615F0D4FB514615F02A
:10449000D1FB0B9B064613F8010B0B93F0B115F003
:1044A00075FB414615F0C6FB059915F0C3FB2E4977
:1044B000824615F07BFD58BB0021504615F058FD93
:1044C00040BB5146484615F0ABFA0146484615F048
:1044D00065FC0146304615F0ADFB06460A9B0C2BE9
:1044E00005D1304615F082FD204B23F814002049F9
:1044F000304615F047FD00B91D4E1E49304615F0F7
:104500004BFD00B91B4E1C4BA200D650013470E687
:104510004146DBE74946D9E7184B1B78DA0707D550
:1045200080200EF0D5F808B104F008FF15F0D6FE93
:104530001F2011F035FA002837D00C23237034E007
:1045400000220F4B1A600F4B1A600F4A12685A6014
:104550000323F3E7D7A368417C2600206F12033BB7
:10456000D80F002000004843A4707D3FC81E0020E3
:1045700000C0F94400C0F9C4700F0020AC15002041
:10458000D4370020DC1D0020B826002010F02CF8C5
:10459000BB4DBC4B1A686B686433934205D2402014
:1045A0000FF0FAFF002800F0C18010F045F8002855
:1045B00000F0AB8123780C3B022B08D90123237038
:1045C000B14B93F8BC2012B1002283F8BC20AF4B52
:1045D0001B78072B05D10CF07BFF069BC01AAC4B58
:1045E00098800022A84B1A70A84E3378072B40F011
:1045F000D8810CF06DFF0890DFF8C492D9F8043030
:10460000484698474C46002878D00022B9F8B4B004
:1046100089F855209F4DBBF1000F40F02682D9F854
:104620002420B9F93C30984E9B1AC9F83030D9F89B
:104630002820B9F93E3009F130009B1AC9F834300E
:10464000D9F82C20B9F9403099F856109B1AC9F8BE
:10465000383009F07BFB079BD6F8C400C6F8C4309D
:10466000181AD6F8C8300344C6F8C8308A4B93F8F5
:104670000080B8F1000F40F0978115F087FA4FF0F5
:104680007C5115F0D7FA834609F12C0A09F59C777D
:10469000C14606F1CC08D8365AF8040F15F076FA60
:1046A000216A15F0C7FAD4F83431014638469847E4
:1046B000D4F8A431014607F170009847D4F8B83017
:1046C0000146DAF8F800984756F8291045F8040F23
:1046D000059015F0A7F9594615F0ACFA58F82910CD
:1046E00015F0A0F9059B48F8290046F8293009F192
:1046F0000109B9F1030F07F12407CDD1634C2278EA
:10470000072A05D10CF0E4FE089BC01A604B188004
:104710005D4B93F8E5201D460692002A00F08E823C
:10472000013A83F8E5201DB0BDE8F08FDFF89481F1
:104730004027C246DFF890912B6818F8030068B153
:104740000FF0F8FFD9F80030013F03F1FF33C9F84B
:1047500000302B6803F101032B60EDD12B681AF8B0
:104760000330002B7FF421AF2B604FF0FF336B60E1
:104770000423E3E60FF038FF484A5021A2F10C036E
:1047800001932623029200934920A2F10A03163ACC
:104790000AF026FD00287FF408AF4FF0FF32384BB7
:1047A00018605A600723C9E60FF01EFF0523002199
:1047B00000933B4B02910191A3F1080253200AF0B0
:1047C0000FFD00287FF4F1AE2D4B18600823B5E6ED
:1047D0000FF00AFF0AF0A8F900283FF4E6AE15F042
:1047E000C3FE00283FF4E1AE2E4B1A682E4B1A6030
:1047F0000A23A3E61A2011F0D3F8A0B12B4B1B8893
:104800008BB92B4B14A91B680E201493079B15938F
:1048100010F0E4F8234B1A68234B1A600A23237024
:10482000079810F029F910F0AFF8BEE6214B1B787D
:10483000002BF5D01A2011F0B3F80028F0D1124B5C
:1048400093F8BC30002BEBD109232370EBE70D4B21
:104850001A680B4B5B68C833934237D2B378032B8B
:104860000BD1154D286804F053FD00232B60134B2A
:104870001B78022B01D104F04FFF01235EE600BF3D
:10488000DC1D0020B82600203C0F0020281F00203F
:10489000C81E0020D8290020FB180020C6A6010849
:1048A00080A80108A81F0020783800208038002048
:1048B0007C380020301F0020E03700200C1F002033
:1048C0004C27002060A60108D437002015F04CFECC
:1048D0000028C3D169E6012A01D108F005F80D23AB
:1048E0001320237004F090FF5FE6012A04D107F043
:1048F00065FE00283FF459AE0E23F1E71F2011F0AA
:104900004FF800287FF451AEB7E7F378002B3FF45F
:104910005EAEA04B1D7815F0010508D19E4BDFF867
:10492000A0921F789D4BD3F80080BD4219DB9C4BB1
:104930009C4D1B68D5F8C0209A4223D92378012BBF
:104940007FF445AE974C94F8BC20002A7FF43FAE2C
:10495000B378032B0FD015F0C1FC012384F8BC30D1
:1049600035E6414659F8250015F0F8FA002801F01F
:10497000A0820135D9E780200DF0AAFE00287FF43F
:1049800026AEE8E72378012B3FF421AE95F8BC3042
:10499000002B3FF41CAE0AF05DFD002385F8BC300F
:1049A00015E60023089327E615F0F0F84FF07C5148
:1049B00015F040F94C465E467B4FDFF8F0B10590AC
:1049C00009F12C0A09F59C789BF800905AF8040F1D
:1049D000B9F1170F02BFA3199B8F3B8015F0D6F8D2
:1049E000216A15F027F9B9F1080F014604D10690A4
:1049F00011F048FB06993880D4F834314046984786
:104A0000D4F8A431014608F170009847674B8146FD
:104A10001B78032B02D111F035FB38804946D4F8BE
:104A2000B830DAF8F8009847DFF8989145F8040FA5
:104A300009F10C0353F816100693099014F0F2FFD5
:104A4000059915F0F7F859F8161014F0EBFF069BCE
:104A5000099A49F8160043F816200236062E08F186
:104A6000240807F10207AFD148E6514B29685B786B
:104A70004C4609934FF47A73B3FBF1F31546C3EB3D
:104A8000431103EB8103DB009BB20593337806925D
:104A90000A93454B09F12406B3F90680059B5B0890
:104AA0000B93059B9B4501BF0023B364C4F888307A
:104AB0003360404BEB18B3F93C00B36C0344B36470
:104AC00015F064F8D4F88820571C012FC4F88870BA
:104AD00009D10023BBF1010FE067A067C4F8803063
:104AE00079D1002033E0D4F878900D9249460C90AB
:104AF00014F096FF8246384615F048F801465046B5
:104B000015F04CF9494614F08DFF0C9B0146814687
:104B1000E067184614F084FF514615F08BF8D4F87E
:104B2000801014F07FFFBBF1010F8246C4F88400AF
:104B3000C4F87890C4F880000D9A4CD1012FD0DDD4
:104B4000104615F023F80146504615F027F911F0EC
:104B500059FD0A9B0746032B05D111F093FA012357
:104B60000FFA80F80693099B73B3184615F00EF8F8
:104B7000394615F0FDF938B3069B13B10A4BA3F87B
:104B800006800D4809F0D2F800220C4B5A609A605A
:104B9000DA60B3E5AC150020B43800204C260020C4
:104BA000B82600203C0F0020C81E0020281F00202F
:104BB000362700204C27002000280020D82900207C
:104BC000DC240020081000200B9AB36C1344059AD3
:104BD00093FBF2F333600235062D06F1040604F16F
:104BE00014047FF45EAF069B13B10F4BA3F806804D
:104BF000BBF1010F11D100220C4B1B689A621A63A2
:104C0000DA620B4B93F8E43023B10A4B1B8823F490
:104C1000806313B9012004F0F7FD074AB2F8B430FD
:104C2000013BA2F8B430AFE7C81E0020E026002008
:104C30003C0F0020F01500204C270020AC4B5B7986
:104C4000002B00F07085AB4B1B78013BDBB285F885
:104C5000E5302378072B40F069850CF039FC0C9087
:104C6000A54B4FF07E501B6809936B680F93D5F8E6
:104C7000E83019460B9314F0D3FEA04B196814F0DA
:104C8000D9FF4FF07E510D9015F07CF910B94FF01F
:104C90007E530D939A4B002508939A4B9A4C0A9396
:104CA00000230593059BDFF8BC929E0059F8237002
:104CB000059A964B294653F82280404615F04EF946
:104CC000E8B9059B09F1B80959F8239038464946D7
:104CD00014F0A6FE824620F00041404615F048F947
:104CE00058B12946504615F061F9002800F0228598
:104CF0004946404614F096FE0746854BF750854BD3
:104D0000B3F8009019F0030F3BD0059B022B38D06D
:104D1000099B93F82EB0584614F038FF7E4BF1589B
:104D200014F088FF8246CBF1000014F02FFF80467C
:104D30000146504615F01CF940B9584614F022FFC0
:104D40005146804615F01EF900B9D046059A734BBE
:104D500033F912000A9BB3F90030C01A14F016FFA1
:104D60006F4914F067FF0146404614F059FE19F0F0
:104D7000010F0E9000F0E4846A4B196814F05AFF9A
:104D80000746694B38463344D3F804B0594614F00B
:104D900047FE94F8F8308046002B76D0079AD4F876
:104DA000FC30D31A614A126893426EDD099B93F876
:104DB0004830022B02D101200CF0E6FC059B022BAF
:104DC00040F098855A4B4046D3F8009009F1004ACC
:104DD000514615F0CDF8002840F0AC8549464046D4
:104DE00015F0D0F800B9C846089B079A1D60D4F8A2
:104DF000FC30D31A4F4A1268934223DC4FF07E51A5
:104E00000B9815F0B5F800283FD04B4BDFF818A1F0
:104E1000D3F80090DAF80400494620F0004015F07D
:104E2000A7F890B3DAF80810484621F0004115F0D1
:104E3000BDF850B3DAF80C10484621F0004115F0E7
:104E4000B5F810B33D4B186810F0020019D03C4B78
:104E500032483C491A68B1F90CE0B0F90030A3EBD4
:104E60000E03002BB8BF5B4293420EDAB0F902305A
:104E7000B1F90E105B1A002BB8BF5B429A4204DDF9
:104E8000002084F8F8000CF07FFC2F4B0F98F158AD
:104E900014F0D0FE414614F0CDFE059BDFF8C8901B
:104EA000022B014646F8090006D1284A284B106813
:104EB0001B689847C9F80800089B1B680E93254B90
:104EC0005968254B186814F0B5FE0D9914F0B2FE20
:104ED000224BF15814F0AEFE414614F0ABFE0E9991
:104EE00014F0A0FD1E4B1090D3F800A03EE000BFD0
:104EF00036270020481E0020701E0020B82F0020FA
:104F0000B01E0020861E00203C0F0020AC2F002089
:104F10002810002044160020D80F0020F430002074
:104F2000CDCCCC3D942F0020D8290020C02F0020CC
:104F3000D82F0020BC2F0020C82F00202C1F0020BD
:104F4000C42F00207A1E0020682F00208C30002003
:104F5000E82F002000000020282E0020742F0020C1
:104F6000DC2F0020700F0020A41E00200AF1004951
:104F7000494614F0FDFF38B9109A51461046914643
:104F800015F000F800B9D146059B022B40F0D584FE
:104F900094F80031012B02D0192B40F0CE844FF051
:104FA0000103A6494046109315F000F8109B00B984
:104FB0000346DBB23BB10E9B29F0004023F00041D9
:104FC00014F0D6FF10B1089BC3F80090059B022B8C
:104FD00000F099809A4A9B4B59461B68B0589847F5
:104FE000994A9A4B01461B68B0589847099B8146DD
:104FF00093F83730002B00F0AB84954B1B88002BC7
:1050000040F0A684934BF158934B186814F012FEAD
:105010004FF07E51824614F0B5FF08B94FF07E5A2A
:105020008E4B5046196814F005FE0146384614F0C0
:1050300001FE494614F0F4FC894B8146F15814F006
:10504000EFFC884B196814F0A9FE854B074646F81B
:105050000390099B93F84830002B4AD0824B1B7871
:10506000D80740F178844FF07E510B9814F094FFEC
:10507000F8B194F8F830E3B97C4B27F00040196898
:1050800014F094FFA8B17A4B28F00040196814F08E
:105090008DFF70B1774BF058774B20F000401968C6
:1050A00014F066FF28B1012384F8F830079BC4F898
:1050B000FC3094F8F830E3B1079AD4F8FC30D31AF6
:1050C0006E4A1268934214DA694B28F0004019685E
:1050D00014F04EFF40B9674BF058674B20F000408A
:1050E000196814F063FF20B1002084F8F8000CF078
:1050F0004BFB634B0F98F15814F09CFD394614F0AC
:1051000099FD604B985194F80C312BB95E4BF550DA
:10511000089B1D605B4BF550059B01330593089B75
:10512000043308930A9B02330A93059B032B7FF4F5
:10513000B9AD564E3278072A05D10CF0C9F90C9B4F
:10514000C01A534B58803378012B40F00B840CF07D
:10515000BFF95049D4F810314D4A0968C31A9380F9
:105160005B1A0790D380C4F810014B4B4B4E1B6861
:1051700093F82C704A4B1B6813F4805F00F0538443
:10518000394BB4F816811B784046D90758BF454BB8
:10519000F6685CBF1B8BA4F8143114F0F7FC814651
:1051A0000146304614F0EEFE002800F0E6833E4B48
:1051B000D4F81C111868C4F82011C4F82411C4F8DC
:1051C000180114F02DFCFF23C4F8280184F82C31B9
:1051D000304614F031FF3146A4F81401484614F06B
:1051E0001FFCC4F83001D4F834512946D4F83001FA
:1051F00014F0D4FD4FF07E51054614F0C3FE08B9FB
:105200004FF07E550021284614F0C6FE00B9002557
:10521000DFF87490DFF898A0C4F83051DAF8001085
:10522000D9F8000014F0FEFB164B196814F0FAFBD5
:105230001E49099014F0FEFC3CE000BF00009642BD
:10524000EC2F0020E02F00203C300020E42F002035
:1052500044160020E40F0020902F00208C2F002007
:1052600040100020282E0020AC150020D02F002058
:10527000CC2F0020700F0020D42F0020C02F002042
:10528000802F0020BC1E0020A41E0020281F00200C
:10529000C81E0020101F0020701E00207C26002049
:1052A00024270020F8260020B03800206F12833A0F
:1052B000B01E0020B04B80461C6804F10046314609
:1052C00014F056FE002840F0CD832146404614F0ED
:1052D00059FE00B9A046DAF80410D9F8040014F019
:1052E000A1FBA64B596814F09DFBA5490A9014F048
:1052F000A1FC81460146304614F058FE30B94946BB
:105300002046264614F03EFE00B94E469D4B996855
:105310009D4B986814F086FB99490B9014F08AFC19
:105320009A4B8246D3F8009009F10044214614F0CC
:105330001FFE30B949465046544614F023FE00B9CA
:105340004C46934B5B780BB904F100442FB3914B5F
:105350005A7912B3904A1778FFB1187814F012FCFA
:105360008146384614F012FC0146484614F062FCAF
:105370008A4B0746188814F005FC0146384614F09D
:105380000DFD8749074614F0FDFD00B9844F4FF02D
:105390007E51384614F000FE08B94FF07E574FF0AA
:1053A000000A804BD3461B78DFF840920893002315
:1053B000089A9342C0F258835146584614F030FB85
:1053C000794C4FF07E51C4F8E800064614F0EEFD2B
:1053D000002800F0898331464FF07E5014F0DEFC47
:1053E0000025074614AE089BAB4200F3748310F00F
:1053F000DDFA18B14FF07C53C4F8303194F92C0128
:1054000014F0C4FBD4F830310C900D93D4F828314B
:10541000D4F818010E93D4F8243100250F93634B70
:10542000DB78119314F0E2FD8146D4F8200114F0EA
:10543000DDFD5F4B8246D3F800B0584614F0D6FD30
:1054400080465C4B1E6806F0100312935A4B06F41C
:1054500080561C78594B04F00104B3F90670584B80
:105460005B8B1093089B9D42C0F061832CB9554B18
:10547000554A0899A14200F398834B4BD3F8C821B1
:10548000002A00F0B68493F80031192B00F2D7807F
:1054900001229A404D4B1340002B00F0D0804C4B22
:1054A000474C1B8813F4807F00F09883494D28688F
:1054B00014F09CFDADF85000686814F097FDADF84D
:1054C0005200A86814F092FDADF854004FF47A72BF
:1054D0004FF461614048B0F9023003F5E163534392
:1054E00093FBF1F3A3F5FA73ADF86830B0F900302F
:1054F00003F5E1635A4392FBF1F2324BA2F5FA72E3
:1055000036491868ADF86A2014F08AFA14F06EFD76
:105510002A4A238B1188ADF85600C91AADF85810E5
:105520005188C91AADF85A109188C91AADF85C10A3
:10553000D188C91AADF85E101189C91AADF860108A
:105540005189C91AADF862109189D289C91AD31A42
:10555000ADF866300023ADF864101946204A22F8F1
:1055600013100133082BFAD14FF00C0964271D4B9F
:105570001D4C1B783CE000BF2C2E0020BC1E0020E0
:105580006F12833AB01E0020A41E0020302E00208F
:10559000291F0020BC1500207A2600206626002046
:1055A000713DAA3FB43800203C0F0020CC150020EC
:1055B0004C26002024270020AC1500201C160020BB
:1055C000F8260020D01E0020DC24002032413003C9
:1055D000441600207C260020F43000200080BB44CC
:1055E000FC1E0020E52C0020E62C0020841000206A
:1055F000AE4DC3EBC3032344DFF8BC82DFF8BCA28B
:105600000A930A9BA34240F00B8300254FF00C093C
:105610006427A74EDFF8A08209FB0583B6F9024094
:1056200093F90A00444394FBF7F4E8B274800EF057
:1056300011F801352044082D26F8020FECD19D4CBD
:105640009D4D236813F0200F30D000200EF002F89B
:105650009A4E8046308001200DF0FCFF0746708096
:10566000082010F09DF908B3954B95F90A1093F8AE
:10567000EE31012B934B40F04583484295F91620BB
:10568000B3F90210B3F900304143534332206FF0B5
:10569000310291FBF0F193FBF2F293FBF0F00A443C
:1056A000A8EB02023280084438447080DFF8009290
:1056B00000234A46EE18B6F90410B2F90200B6F912
:1056C0000660884203DB86423146A8BF01460C33A0
:1056D000602B22F8021FEDD17B4EB389002B40F0E6
:1056E0002183774F97F80031013B182B00F24A8352
:1056F000DFE813F03A0348034803AC0348034803C8
:105700004803990348034803480348034803B80380
:1057100048034803480348034803AC03C90348034C
:105720004803B8033A030123FFF791BA00230C930F
:10573000FFF796BA4146484614F072F9FFF7DCBA13
:10574000D4F8A890D4F8AC804946404614F024FC24
:1057500000B9C8465B4BB3F90000B3F9023000282A
:10576000B8BF4042002BB8BF5B429842B8BF184652
:1057700014F00CFA554914F05DFA554B82461B782B
:10578000002B57D0534B2946D3F800B0584614F09D
:105790000DFC002800F087804F4B2946D3F800907D
:1057A000484614F003FC00287DD008F100404B4926
:1057B00014F040FA594614F0F1FA4FF07E5114F00B
:1057C00031F951468046484614F02AF9494614F00A
:1057D000E5FA4FF07E51814614F0D4FB08B94FF042
:1057E0007E592946484614F0D7FB00B9A9464146E0
:1057F000484614F01FFA8146394B0E98196814F088
:1058000019FA4FF07E518046484614F0BBFB08B9A8
:105810004FF07E592946484614F0BEFB00B9A94610
:105820004946404614F006FA0146384614F0FAF8A4
:10583000FFF7A6BA2B4B2C49D3F80090484614F03A
:1058400097FB60B349464FF07E5014F0E9F82749C2
:1058500014F0F0F951468346254814F0E1F801466A
:10586000584614F0E7F9494614F0DCF8194B19686A
:1058700014F0E0F981462946484614F083FB90B9BC
:105880004946164814F08AFA08F100480146404695
:1058900014F0D0F94FF07E5114F0C4F8ABE70D4B83
:1058A000D3F80090E7E7A946A6E700BF0A11002059
:1058B000FA1E002024270020C82D0020FC1E0020F6
:1058C0003C0F0020F4300020442E0020CDCCCC3DF5
:1058D000A02F00209C2F0020A42F00200000C842F1
:1058E000982F0020A82F0020AE47813F610BB63BC8
:1058F00000003443B04B1B689B077FF575AA0A9BD9
:10590000059AB3F90000AD4B33F91230C01A14F008
:105910003DF9AB4B0746AB49186814F08BF90146CB
:10592000384614F087F95946074614F079F880464E
:10593000FFF75ABAD046FFF757BA4FF001034FF0BE
:105940007E51D4F8E800109314F026FBFFF72EBB2D
:105950002946FFF76BBB94F8F830002B3FF4C9AB36
:10596000FFF7C2BB072B04D10BF0B2FD0790FFF786
:10597000FCBB00230793FFF7F8BBB4F8380114F021
:1059800005F981460146304614F006FBF0B18E4B16
:10599000D4F83C111868C4F81811C4F82411C4F8DC
:1059A000200114F03DF80123C4F8280184F82C31BB
:1059B000304614F041FB4946A4F81401304614F077
:1059C0002FF8C4F83001D4F840510EE4B4F8143183
:1059D000434514D87D4BD4F81C111868C4F8201125
:1059E000C4F81801C4F8241114F01AF8FF23C4F8FD
:1059F000280184F82C31C4F83051FFF7F4BB724B06
:105A0000D4F83C111868C4F81811C4F82001C4F87F
:105A1000241114F005F80123C4F8280184F82C316E
:105A2000C4F83051CFE76A4B588B14F0AFF80146F9
:105A3000F06813F0F5FF654BC4F830011968624B4C
:105A4000C4F818111868C4F82411C4F8200113F020
:105A5000E7FF0123D4F84451C4F8280184F82C311D
:105A6000FFF7C3BBB04636E4D9F8041040460D93A7
:105A700014F0E0F8D9F808100C90304614F0DAF879
:105A80000C9A0146104613F0CDFFD9F80C100C907B
:105A9000204614F0CFF80C9A0146104613F0C2FFCE
:105AA000394614F0C7F859460C9014F07FFA0C9A56
:105AB0000D9B70B91146504614F064FA0C9A0D9B78
:105AC00000B9924614A941F8232009F110090133C5
:105AD0006EE49346F6E756F82500394614F0AAF826
