:020000040800F2
:1000000000500020F17101088D72010841E70008DD
:100010008D7201088D7201088D72010800000000C8
:100020000000000000000000000000008D720108C8
:100030008D720108000000008D7201086BA9000894
:100040008D7201088D7201088D7201088D72010890
:100050008D7201088D720108BBAC0008C5AC0008A8
:10006000C3AC0008C1AC0008BFAC0008197100089F
:1000700009710008F9700008E9700008D9700008DB
:10008000C5700008B17000088D7201088D720108FA
:100090008D7201088D7201088D720108BDAC0008D7
:1000A0008D720108C5F000088D720108B5F00008D6
:1000B000A5F0000895F0000885F000089B74000882
:1000C000A174000891740008977400088D720108EB
:1000D0008D720108A9A900089DA900088D72010868
:1000E000B9AC00088D7201088D7201080000000093
:1000F0000000000000000000000000000000000000
:0C01000000000000000000005FF808F1A3
:100110002DE9F04F0B4B0C4D0C4AC5F8B8340023B9
:1001200010680B49A1B08842C5F8BC3416D11360E1
:1001300062B6084B186811F043FE074B1B689847DE
:10014000FEE700BF55F2000800060020F04F002037
:10015000EFBEADDE00F0FF1F04F0FF1F0A930B930C
:100160000C934FF4E013BB4C0D93236843F480339E
:100170002360A36943F01003A361236803F40033F1
:100180000B930A9B01330A930B9B1BB90A9BB3F594
:10019000A06FF2D1236813F4003300F09A82022397
:1001A0000C93AD4BAD4F1A6842F010021A601A68FA
:1001B00022F003021A601A6842F002021A606368B1
:1001C000636063686360636843F480636360A44B47
:1001D0001A68043B22F070425A60A24A3A60626890
:1001E00022F47C1262605A6842F000425A60DA6877
:1001F00022F40042DA609B681E0449BF9A4B4FF418
:10020000E0133B604FF480130D930C9B012B00F027
:100210007882022B05D10D9B6268134343F480332F
:100220006360236843F08073236023689801FCD5E2
:10023000636823F003036360636843F00203636051
:10024000636803F00C03082BFAD16368DFF86C8253
:1002500003F00C03042B00F05882082B00F05782A7
:10026000804BC8F800306368DFF85492C3F303137F
:1002700019F80320D8F80030DFF848B2D340C8F8A6
:1002800000307A4B4FF6FF72CBF80C30A3690DF1BA
:10029000800A43F00103A361636A636A744E43F00A
:1002A00080736362A369304643F01C03A36100239B
:1002B00015932AF82C2D514610F046FD51466D48F5
:1002C00010F042FD51466C4810F03EFD02214FF403
:1002D00000728DF846101021ADF844208DF84710BB
:1002E0003046326111A910F02FFD644950464A682A
:1002F00042F000724A6011F04FFC159B604A304694
:10030000B3FBF2F34FF47A72C5F8C034D8F800307A
:100310004FF0010CB3FBF2F35A4A013B5360F02358
:100320008BF82330002393600723DFF89CE11360F0
:10033000554A09F10E01002331F8026F46FA03F81D
:1003400018F0010F18BF0CFA03F803F101031EBFE8
:100350001060A2F804800832102BEFD100F5806005
:100360007045E8D13B683F4A934240F0E281012367
:1003700085F8C4340FF0A1FC18B90EF04BFD0EF057
:100380002DFA0EF069FB05224049414819F042FE62
:1003900018B10EF03FFD0EF021FA95F8C5343D4F2F
:1003A00043F0010385F8C5343B4B07F1050A9A7801
:1003B0003A4B1A703A4B3B4A1B689046136095F8CB
:1003C000CA3485F8C6340023D85D4FEA830B5E1C1F
:1003D000002800F0B48103930AF06AFB039B4AF8FB
:1003E000230010B10523C671837112215AF80B0046
:1003F0000AF084FB032E3346E6D1002108460AF0BA
:10040000F1FB002101200AF0EDFB002102200AF09F
:10041000E9FB012102200AF0E5FBA369002143F07A
:100420000103A3614022204819F0B1FD4FF0FF33D2
:100430001E4AC5F818356420C2F803300AF08BFA5A
:10044000A02200211A4819F0A2FD0024194D1A4ECD
:100450003CE000BF0010024000200240EC00002001
:100460000410014000127A00001BB7000005FA05D5
:1004700000080140000C0140001001400000014054
:1004800040420F0010E000E0B816002034BF010821
:10049000911A0020C70A00208C1A0020101C00208E
:1004A000581B002064220020D80A0020180B0020CE
:1004B000343F002048BE010800A1010810000020C0
:1004C000E8A0010800ED00E000140140002360599D
:1004D00056F83310DA00884240F0348109EB020309
:1004E000187F103410F0C8F8E02CEFD1AB4AAC4CB8
:1004F0000021A4469146AB4E00250B5D01F10F0093
:10050000204406EB030A10F801EFBEF1000F05D0FE
:100510009AF80C70774508BF82F8587090F803E09D
:10052000BEF1000F04D0F75C774508BF82F8597020
:100530000135032DE7D1B2F8580040B10CEB0100B2
:1005400009EB83035065C3F8202502F517721C31AF
:100550003829D1D10424914F202200219248D8F883
:10056000005087F82C4519F012FD00208D4B0246F3
:1005700093F80BE093F80AC04FF0FF092346039766
:1005800089498A4F05F04006D4571E2C8C7140F0E3
:10059000DF80002E00F0E480BCF1000F00F0E0806E
:1005A0000132042A01F10801EED110B1039A82F858
:1005B0002C357F4B15F4805F93F800A07D4BDFF85E
:1005C000449283F800A07C4F7C4C7D4E00F0CE809E
:1005D000B88816F07FFB7B4BC9F800002360708A57
:1005E00016F078FB784B794C1860788816F072FB1F
:1005F000774B00251860388816F06CFB754B186037
:10060000608BC0F5FA6016F069FB734B248B1860A1
:10061000FB88724AE01A1C44714BA4B280B210806D
:100620001C80A0F57A7016F059FB6E4B1860C4F56B
:10063000FA6016F053FB6C4B6C4C1860AAF1170370
:10064000022B257000F2E2804FF0000BDFF8B8A11A
:1006500005EB0A03594655F80A00049316F026FDE7
:10066000049B002800F08C80D8F8003013F4805AE6
:1006700040F0ED800023D9F800105D4A42F82310C5
:100680000133082BFAD1B6F81480BAF1000F01D06B
:10069000B7F80480B378042B05D14FF480500EF0E6
:1006A0002BFF4FF000082378C02200215148069309
:1006B00019F06DFC3779B378003718BF0127042B88
:1006C00000F2EA80DFE813F02206E8002406F400D6
:1006D0001B06226842F0010222600A93236803F09D
:1006E00002030B930A9B01330A930B9B1BB90A9BD2
:1006F000B3F5A06FF2D123689F0701D501234FE521
:10070000FEE7636843F460138AE53B68A9E5636824
:100710006268C3F38343D10303F1020302D4364A70
:1007200053439EE5626812F4003F3A6818BF5208CE
:10073000F6E7324A93427FF41DAE022318E64AF8E8
:10074000230057E60133042B7FF4C2AE0020C8E635
:100750001F2C7FF425AF1EB1BEF1000F7FF420AF38
:10076000013B81F80690DBB2012019E7B08A16F050
:10077000B1FAC9F80000308A16F0ACFA20602EE712
:100780001F4A05EB020E0FCB8EE80F0023781035C1
:100790000133802D23707FF45BAF65E700060020F6
:1007A00020A101088C2100205025002058A101081B
:1007B000181C002080110020BC400020583C002064
:1007C000403C002000007A44881A00203822002093
:1007D000BC1100209C110020C411002096110020A3
:1007E000B8110020B4110020C01100205C3C002092
:1007F000D4250020FC25002000093D00001BB70087
:10080000C811002044270020D0170020244B13F8E3
:100810003A2003EBCA0A082A227088BF0822DAF8B5
:1008200004C088BF2270BCF1000F3FF41DAF00254B
:10083000DFF878A023789D42BFF616AF2B0103EBBB
:100840000A0E63440FCB01358EE80F00F2E72378E0
:10085000012B7FF60FAF4FF07C58124D05EB0313C1
:1008600003F1100B1035AB453FF404AF414655F88A
:100870000C0C16F087FA414645F80C0C55F8100C94
:1008800016F080FA414645F8100C55F8080C16F0A1
:1008900079FA45F8080CE5E7034CA1460BE000BFE8
:1008A000ACA70108CC1100206F120339C811002039
:1008B000B94CDFF83893B94AB94B21461A60B94AA6
:1008C000B94B4846002F18BF1346B84A002513609D
:1008D00016F050F901464FF07A5016F007FBB44974
:1008E0000590204616F04EFAB24CDFF804B307909C
:1008F000069BAB4240F36C8505EB0B035E79002150
:1009000030460EF0A5FB0490002840F00485AA4A6A
:10091000A34B1A60A34AA54B1A60A84CA84A94F8A6
:10092000C534079243F0040384F8C534136813F008
:10093000010600F070850025FF2294F82D75A14B6B
:100940002946384683F840501D605D609D60DD6338
:1009500083F8412083F8422083F8435083F84450C1
:1009600083F845500EF074FB064690B30368914936
:100970006A18507C18B15268934200F041851835CE
:10098000C02DF5D10025C4F83C6584F830553846B3
:100990000AF08EF810B10223C571837100252A2157
:1009A0000AF0ACF8884A0021304609F0D9FE874B9E
:1009B000874AC4F84035874B111F3046C4F8443588
:1009C000C4F8485509F020FF2A46717930680FF0C5
:1009D0001FFEB4F81E7694F81A66A4F82076304606
:1009E000002F40F066850AF063F894F81B26C4F8DF
:1009F0002406003218BF012284F8282650B1242290
:100A000094F81C368271002BC7710CBF122116217D
:100A10000AF074F800200AF0B9F84FF000096E4BA4
:100A20000020C4F8483606F025FB012006F022FB22
:100A30006A4B6B4803F1200853F8056C6EB313F949
:100A4000092CA11891F84C7691F84EE691F850C611
:100A500000EB0215991E11F801AFBA4591F802A0FA
:100A600008BF2F71F24591F804A008BF85F805E092
:100A7000E24508BF85F806C08B42ECD1120181180F
:100A80000D7955B14D7945B18D7935B186505A7989
:100A900081F80C90CA719A790A7210339845CBD1BB
:100AA0004F4D0FF0F8FE0FF0F6FE287E0FF0E4FD3C
:100AB00001232A7E02F01F015209022A03FA01F3E0
:100AC00000F02485032A00F02785287D09F0F0FF37
:100AD000064618B1122383710223C371687D09F0A1
:100AE000E7FF18B1132383710223C371A87D09F0B6
:100AF000DFFF18B1142383710223C3711B21304619
:100B000009F0FCFF687D09F0D3FF072109F0F6FF2B
:100B1000A87D09F0CDFF1B2109F0F0FF2A69314BB8
:100B20009A4240F0FF8403F56043D96841F4805154
:100B3000D960D96821F48051D9602B7F002B00F057
:100B40000E8500231846118801F4415141F4457186
:100B50000B4303431380938B23F400631B041B0C90
:100B600093830723138213889BB243F040031380BF
:100B700094F8C434032B40D11F2008F0ECFB002371
:100B8000194A02EBC30191F90210022901F0F7831F
:100B90000133042BF5D12DE0ACC5A737515901081D
:100BA000C8320020D15801087D590108CC320020FC
:100BB0006F12833AFC250020D3580108000600205C
:100BC00064220020EC3E002040420F0065570108DF
:100BD000440B0020A15801088C21002065A10108C8
:100BE00008160020003001402A250020ACC5A73699
:100BF000403C0020022008F0AEFB0EF05FFB01201D
:100C000006F092FA2C2009F053FF039BC3F8540618
:100C10009F238DF84430002332208DF845308DF825
:100C200046308DF8473009F096FE039BD3F8540602
:100C300009F086FF15AA042311A9BC480AF064F83C
:100C4000039BD3F8540609F080FF9DF856309DF8B9
:100C500055201B0243EA02439DF857201343B44A30
:100C6000934223D0322009F076FE039BD3F854063A
:100C700009F066FFF521AD480EF004FBFF21AB48FB
:100C80000EF000FB039B8DF85400D3F8540609F0D6
:100C90005CFF9DF85430702B08D1039B93F8C4344B
:100CA000022B03D10323039A82F8C434A14B5F794A
:100CB0009E797D1E6A4206F1FF3E6A41DEF1000325
:100CC00043EB0E0384F85C36079B84F858261D68B6
:100CD0002B0400F1488415F0007505D0964BDD7AA1
:100CE000A5F108004542454114220021934884F8AB
:100CF0005A5619F04CF9012F04BF94F8593684F86C
:100D000060361DB194F85B3684F86F3694F85E3621
:100D10001BB194F85F3684F86A36012E08BF94F848
:100D20005D36864D08BF84F8653600232E464FF0A9
:100D3000070B1F469946DFF8248208F1940A3078A1
:100D4000E8B109F0B5FE18B180F806B080F8079058
:100D5000002109F0D3FE002331781AF813005A005D
:100D6000884240F0038408EB020393F895307370D7
:100D70000723337101237A1CB770F370D7B20BF1DC
:100D8000010B5FFA8BFBBBF10B0F06F10506D6D109
:100D9000002B00F0BB806A4E4920736843F4404347
:100DA00073600FF069FC674A674900234FF01C0E1F
:100DB000104688460EFB032CDCF804C08C4540F03E
:100DC000DC83DBB21C2101FB0303726919694FF05C
:100DD00000090A437261062283F819901A765A486C
:100DE00010F04FFF15A810F021FF584B022F15935C
:100DF00034BF4B4680231A934FF480731B934FF4F8
:100E000080631C9320231D934FF40053504E15A96B
:100E10004D4818971E931696CDF85C90CDF86490C7
:100E2000CDF87C9010F00FFF012F94BF002201221B
:100E3000D8F80030474943F00103C8F800304B6848
:100E40004FF0070E23F4702323F4807343EA022348
:100E50004B608A68404B134043F4602343F0020325
:100E60008B60CA6A7B1E22F47002DBB242EA035333
:100E7000CB621F270123EA784AB395F80180581CFA
:100E8000B8F1090FC0B295F804C040F27C83A8F114
:100E90000A02D1F80C9002EB42020EFA02FA29EA99
:100EA0000A090CFA02F242EA0902CA60062B00F2B1
:100EB000778303F1FF3C4A6B0CEB8C0C07FA0CF3C5
:100EC00022EA030308FA0CF21A434A630346053583
:100ED000AE42D0D11F4B9A6842F480729A609A68F1
:100EE00042F001029A609A6842F008029A609A6899
:100EF0001107FCD49A6842F004029A60154B9A6874
:100F00005207FCD49A6842F4A0029A60D4F87C0696
:100F1000002841F03F82D4F88036002B41F03A821D
:100F2000D4F88436002B41F0358219E000380040B7
:100F300015202000B62F002038220020600C002051
:100F40000010024014000020080002404C24014020
:100F5000740C002000240140FDF7F1FFE8A0010817
:100F600008F014FF30B90120022109F079FE0120B8
:100F700015F03CF994F8C53443F0020384F8C53405
:100F80000DF0D8FCB04B186811F0D8FFAF4B1A88A1
:100F9000AF4B1A80AF4B5A6B99460AB109F0CEFAA3
:100FA000AD4BAE491B78AE4CD80001444A78AD49F0
:100FB0002260079A1268114009B1012222600021C3
:100FC00040F2DC55A84A22F8115001310829FAD123
:100FD0002268002A40F0018303F0EF02082AA34AA6
:100FE00040F040831178182B41F01001117001D1AD
:100FF00011F060FF23689E4D002B40F03C83AB89CD
:10100000002B40F072830121084609F0EBFD00211E
:10101000084609F0E7FD0021022009F0E3FD0A245B
:10102000944D012009F036FD002009F033FD192010
:1010300009F091FC2B68DF0302D4012009F0A6FD22
:10104000192009F088FC002009F0A0FD013CE8D13E
:101050002146204609F0C6FD2146012009F0C2FDC7
:10106000854B864D587A15F039FE854915F08AFE74
:10107000844915F07FFD0EF0C0FC834B15AF18605E
:10108000B9F8140015F02AFE0146804815F02EFF2D
:10109000C5F8880612F0E2FD0123159310237C4A5F
:1010A00016931368904613F4800F04BF794A159283
:1010B000DE005EBF159A42F010021592764A116862
:1010C000880748BF159A754844BF42F0C60215927A
:1010D0004A0748BF159A039044BF42F00802159290
:1010E000159A42F000611591017801F0EF06082E83
:1010F00001D00E2904D142F0006242F480521592D0
:10110000159ADE0354BF42F4005242F42042159275
:10111000159AD8044CBF42F0644242F04442159202
:101120009A0642BF159A42F4807215925E0742BF3A
:10113000159A42F400321592159A42F40020159047
:10114000580505D5564B1B7913B142F4C0121592C0
:101150004FF00109182902BF159B43F060731593E6
:1011600021463846E6B20EF0EBFD70B1304614F081
:10117000F0FD50B9620957F8223006F01F0609FA4F
:1011800006F623EA060647F822600134252CE7D14B
:10119000DFF82CA197E803004FF419728AE80300E6
:1011A00000210AF1080018F0F2FE08F0F3FA00221C
:1011B000DFF810E13B4BF4461A809A703A493B4BFA
:1011C0003B4E3C4C3C481960DFF8FC90338BDFF819
:1011D000FCB0C4F80490A06085F8F82819B2049017
:1011E0000AF51C7ADBF800002EF8121000F5967054
:1011F0004AF822000132122AF4D1D8F80000C204C1
:1012000058BFB6F92410ACF806102C49DFF8B4C06A
:1012100001F1500E0A78002A5AD18A7891F803A079
:10122000524555D2002A00F07082013A02EB820248
:1012300002EB820202F5617291F801A092B20AF10A
:10124000040A2CF81A2043E02C1B0020361B002037
:101250009A150020B41A002080110020ACA70108C4
:101260004812002020001000E41B002095150020EB
:10127000B42B0020DC1800200433002000060020DE
:1012800035FA8E3CDB0FC93F24330020A889803A11
:101290006422002001000010141C0020181C0020F3
:1012A00060270020C82F0020A086010024290020EC
:1012B00038220020282200200D280108E8180020EC
:1012C0008C0C0020842F002011280108AC2700205E
:1012D00004318E459ED1020740F13282307A0A28CD
:1012E00000F22782DFE810F022022202A704E804BD
:1012F0000C052C052C05B9052502F6052202002453
:10130000A14601274FF00008FFF7D5BAC24CF7E716
:10131000C24CFFF7C2BA304609F0CAFB6B1C6061D1
:10132000DBB210B10322C37182711A2109F0E6FB0E
:10133000002F52D0BBF8000015F0D0FC15F024FFB0
:10134000B74B4FF6FF7A1E68B6FBF0F353441B0C05
:10135000B6FBF3F60FB1B6FBF0FA9BF80230042BA4
:101360003FD1504615F0B6FCAB4915F00BFDA0601F
:101370000990304615F0AEFC494615F003FD099B77
:101380000890A849184615F0FDFC089A0146104639
:1013900015F0EEFB9BF80330E060324601930499B0
:1013A0001FFA8AF3CDF80080204614F031FB0023A9
:1013B00018229D49AB4219D1002383F00103237405
:1013C00001231D44082D637404F118047FF490AACE
:1013D0000122964B1A70FFF7A0BA059816F082FA10
:1013E000ACE7304615F076FC0799BEE702FB031028
:1013F00046686068864201D00133DBE70123DCE701
:101400001B8D874A9BB212680133B2FBF3F3884A03
:101410001370FFF7B7BA9A047FF5DBAA94F8182681
:10142000844B04F5A8651A7004F5C26816F8089094
:10143000002148460DF00CFE074698B300224FF0FD
:10144000010A5FFA86FB05F80FBC45F8040C05F8A5
:101450000E2C05F80D2C05F810AC484609F028FBB9
:10146000D3445FFA8BFB18B180F806A080F807B070
:101470004FF0000B2A2109F041FB6F4A002138464A
:1014800009F06EF96D4B2A1D2B606D4B29463846CD
:101490006B60C5F808B009F0B7F95A467979386831
:1014A0000FF0B6F80136082E05F11C05BED1FFF786
:1014B00090BA09F0FDFA4021C4F8400605463046CE
:1014C0000DF0C6FD0646CDB1C0B12423AB7101239A
:1014D0001A21EB71284609F011FB0021A4F844768B
:1014E00001915849544A91FBF7F192FBF7F389B205
:1014F00000919BB23146544814F08AFA0023D4F884
:101500002C26138084F83D36FFF787BA4F4AD168FE
:101510000B43D360FFF7D9BA4C4A11690B431361EF
:10152000FFF7D3BA4A4B9A420BD103F5EC33196952
:1015300041F480411961196921F480411961FFF773
:10154000FCBA444B9A427FF4F8AA03F5EA331969CE
:1015500041F400411961196921F40041EEE70123CA
:101560000220FFF7F0BA0125FFF7BEBB01330A2BBB
:101570007FF4F3AB0023FFF7FABB0133072B7FF4B3
:1015800019AC00231EE40A6908EB480A0EFA0AF9AE
:1015900022EA09090CFA0AF242EA09020A6185E420
:1015A0000C2B0DD8DA1FD1F830C002EB820207FAFB
:1015B00002F32CEA030308FA02F21A430A6385E4F1
:1015C0000D3BCA6A03EB830307FA03FC22EA0C0211
:1015D00008FA03F31343CB6278E41F4A1F4912F859
:1015E00033E00244556881F800E0002D3FF4F4AC8C
:1015F00000221B4E7245BFF6EFACC2EBC2002918A9
:10160000D1F800C0871940F806C088880132B88038
:101610008979B971EEE700BF6F12833A2829303813
:101620001000002000007A44FC2500204C1200200D
:1016300028040020B021002040420F00F558010886
:101640003D57010820A107002C0C0020001002408B
:1016500000380040003C0040C8A60108552A002080
:10166000562A00200E2B3FF4BDAC1178192B21F027
:1016700010011170BBE400244FF0040B274EDFF87B
:10168000A0A005F1030818F8017F002F3FF4B7ACC4
:10169000384609F00DFA013403467061E4B210B126
:1016A00080F806B0C4710021384603930DF0D0FCD9
:1016B0000746039B1A21184609F020FA002F3FF431
:1016C0009EAC00226B8801929AFBF3F32A889BB2AE
:1016D00000923046124A394614F09AF90123082C38
:1016E000737406F11806CED189E400240D4F0E4E16
:1016F000A88915F0EFFA3A680146301924340EF043
:101700008DFAB4F5907FF3D17DE40AF1010A0AEB7A
:101710008A0A0AEB8A0A0AF561728DE5D43F002035
:1017200040420F00F81B0020701200200FF0C2F89A
:1017300030B908200DF0E0FE049BC4F80490A360CB
:10174000D8F8002051040BD51223237044F62063EF
:101750006380C34BC3496360C34BA360C34B196031
:1017600042F201031A4209D044F6206363809304D5
:1017700040F1D88308232370BD4B636096F828306E
:10178000217804338B42A8BF0B464FF0000AB94CB6
:10179000D10385F8443984F800A040F1538112F058
:1017A000D9FE01232370B44B40F22A6293F871B141
:1017B0005146B24818F0EBFBBBF1000F00F034814A
:1017C000514658460DF044FCAD4B026804461A6081
:1017D00082689946002A00F02781584609F068F986
:1017E000C5F8480918B1282380F807A083711B2188
:1017F00009F084F90023A34AD9F8001002F1180E69
:101800005EF833004FEAC30C814240F09283624499
:10181000107F0EF031FFD9F800009B4A03884FF08B
:10182000000A23F001031B041B0C0380974BDFF815
:1018300080E21B68ADF83EA0934281BF03F1B7720E
:10184000934902F55852B2FBF1F292BF002202F125
:10185000FF3292B2511CB3FBF1F38E49ADF83AA0BE
:10186000B3FBF1F303219BB2B3FBF1F14FEA410C5F
:10187000AEF800C0DFF83CE28DF840A0AEF80010F2
:1018800020A921F8482DADF83C300EF0A6FF6023CA
:10189000ADF846A0ADF848A0ADF84AA0ADF84CA010
:1018A000ADF850A0ADF84EA0ADF852A0ADF8443060
:1018B000E379D9F800005A0757BF0122042303F047
:1018C0000203ADF846204EBFADF848304FF48072A9
:1018D000ADF84C304FF0000358BFADF85020ADF8D4
:1018E0004A3011AA61790DF0BFFA6179D9F8000088
:1018F0000EF046FFD9F800206748B2F844304FF0A8
:10190000000B6FEA43436FEA53439BB2A2F84430A3
:101910001388DFF8A4A19BB243F080031380E3791E
:10192000617913F0040F14BF042301238B40118C41
:101930009BB289B221EA03011184118C89B20B4355
:10194000138413889BB243F0010313801C22217B74
:10195000524B02FB013143690A6913434361282357
:1019600081F819B00B7643691A4342614C4AC1F8B9
:1019700014B08A604A7B15A88DF8542001228DF896
:1019800056B08DF855208DF857200EF093FEA068C4
:10199000CAF8000010F075F9DAF80000026822F0C9
:1019A00001021204120C026010F06BF915A810F07D
:1019B0003DF9D9F80020617934320A44159240F299
:1019C0002A62189280221A922C4A15A91692102285
:1019D00017924FF400721B924FF40052DAF8000095
:1019E000CDF864B0CDF870B01E92CDF87CB0CDF8D3
:1019F00074B010F028F96279D9F800100C2A8EBF63
:101A00005B46204B03EB420B8A8998BFBBF8A8309A
:101A100092B21343DAF800208B81136843F002037B
:101A2000136001221F4B1A700023FF211C461E4821
:101A30001A181C520433B3F5807F9170D170F7D11E
:101A400012F0F8FDD8F80030580579D5042007F0D9
:101A50007FFE164B0421186007F070FE2EE000BFD9
:101A600089280108400D030071280108242900205D
:101A700061280108632F0020DC2C0020483500205D
:101A8000783B0020E8A00108FF6BDC02100000207A
:101A9000006CDC0200350C00001002401400002035
:101AA000D96A0008723B0020502E002098270020A1
:101AB0004635002044350020743B0020BD4B187093
:101AC000082007F045FEBC4B0821186007F036FEE1
:101AD000BA4B2C2218700021B94818F058FA7C2310
:101AE00085F84C398E2385F84D39E02385F84F3938
:101AF0007D23202085F8773907F02AFEB14B20217D
:101B0000186007F01BFEB04B1870102007F020FE85
:101B1000AE4B1021186007F011FEAD4B18704FF45A
:101B2000805007F015FEAB4B4FF48051186007F062
:101B300005FE0022A84B1870A84B1A7010F0CCFAC2
:101B4000A74C2288002A40F02A82A64B95F88809E3
:101B5000C5F87839022385F87C3995F88939013B35
:101B60005BB2012BDEBFA04A1B01D258C5F8802909
:101B7000002800F0148208F09BFFC5F8840918B112
:101B80001A2383710023C371132108F0B7FFD5F81E
:101B90007839986808F0D9FF00BFD5F87839022164
:101BA000586809F090F84FF000089F2332208DF814
:101BB00044308DF845808DF846808DF8478008F0D8
:101BC000CAFE8DF8558000BFD5F87839986808F0BE
:101BD000B7FFD5F878093A4611A90423406809F0FF
:101BE00093F8D5F87839986808F0AFFF00BF9DF8F2
:101BF00056309DF855201B0243EA02439DF85720BA
:101C000013437A4A934200F0258300F30E83A2F532
:101C10002102A2F5CC42934200F01C8300F3B28172
:101C2000A2F51A42023A934240F0B4812023238065
:101C30004FF480736FE30A221B0193FBF2F300223F
:101C40006B49A3F5B06341F822300132122AFAD170
:101C500042F6F8236380674B40206360664B227036
:101C6000A36007F075FD824600283FF462AD10F0D6
:101C70001BFA737AB17A00280CBF01220322002BD1
:101C80000CBF0623072300290CBF002108219AF965
:101C900002E082460B438DE80C00584B584A402125
:101CA000704607F0A1FBBAF1000F01D0554B186048
:101CB000003018BF01203BE51023237042F6F823C3
:101CC0006380514B40206360504BA36007F040FDA0
:101CD000824600283FF42DAD10F0E6F9B27A0028D4
:101CE0000CBF01230323002A0CBF002208229AF90B
:101CF00002E00192009382464FF4E133444ACEE77A
:101D00000823237042F6F8236380424B402063602F
:101D1000414BA36007F01CFD824600283FF409AD4B
:101D200010F0C2F9002200280CBF012303239AF906
:101D300002E00192009382464FF4E133374AAEE766
:101D400000234FF00C0E364A36491370364A0628E7
:101D500084F800E00B70137074D01B22334B4FF4E7
:101D6000E13B1A700522324B83F800E0314B1A70C8
:101D700042F6F8236380304B402063602F4BA36012
:101D800007F0E6FC824600283FF4D3AC10F08CF953
:101D9000B27A00280CBF01230323002A0CBF0022C3
:101DA00008229AF902E00192009382465B46244A97
:101DB00075E700BF9C2700208C2700209D2700206E
:101DC0004C0F0020A42700209F270020B0270020D0
:101DD000B5270020B8270020B6270020B72700200D
:101DE000140400207C0F0020081600201720C200D9
:101DF00034280020B5230108D1230108A086010062
:101E0000292B0108702200204D9B00081523010892
:101E100011290108C59A0008DD9A0008399C0008BC
:101E200085150020001500208415002001150020D4
:101E30002515002086150020039A0008199A00082D
:101E4000619B000821223E4BDFF834B11A703D4BF4
:101E500083F800E03C4B18708AE74FF0000B3B4BD7
:101E6000402083F800B00E23237044F62063638083
:101E7000374B6360374BA36007F06AFC00283FF4E0
:101E800058ACB0F800A0344B0AF4825A83F800B082
:101E9000B37ABAF5825F90F9020014BF01220322DF
:101EA000B3B9BAF5825F14BF5B4608238DE80C0016
:101EB00040214FF4E133294A07F096FABAF5825FE0
:101EC0007FF4F6AE0022264B1860264B1A70EFE620
:101ED0000823EBE70A221B0193FBF2F300222249BD
:101EE000A3F5B06341F822300132102AFAD141F64D
:101EF0000B2363801D4B402063601D4B2270A36049
:101F000007F026FC00283FF414AC03234FF0000E2A
:101F100090F90200174A8DE808404021164B07F05F
:101F200063FAC5E6D0077FF529AC0C232370134B69
:101F300023E40133042B7FF463AC002069E400BF89
:101F4000011500202515002086150020EF2900200E
:101F500099280108B92C0108ED290020E12B01087E
:101F60004C270020582700209828002041250108F0
:101F7000C52501087D2B0108A0680600512801082D
:101F800090D00300B44A934200F0C281B34A934216
:101F900000F05E8100232380A3816360A360A568B5
:101FA000B5B14FF00008ED0A0DF15409A8450ADA61
:101FB00008EB0504641010223946E0020BF0E8FC3F
:101FC0000F2800F3BD810BF003FEA54BED021D6051
:101FD0000023A44AA44C1360A44A1380A44A13808B
:101FE000A44A1380A44A1360A44B1A6899461F2A76
:101FF00040F0B0814FF48063A14A23801188A1484A
:10200000002940F0B081018092789F4B02B10122FB
:102010001A70B4F900309D4A1B021360039B9C4860
:102020001B789C4C052B02BF4FF4C8729A4B1A8048
:1020300008F0E0F9C822994B00211A80984AA4F8C8
:102040008E191378A4F8901943F008031370042331
:10205000944A84F88C391370934A944B117064221B
:1020600019705A705960924B19805980914B5A7966
:102070009A46012A0BD1282204F6941017F087FF04
:102080004CF250328C4904F698100DF0C7FD002137
:102090008A4B84F8BC191960596099609AF8063027
:1020A000012B09D11022864817F071FF4CF25032F3
:1020B000844985480DF0B2FD844BDFF850821B68DF
:1020C000834AC8F80030834B4FF0010B1B68802017
:1020D0009B1A18BF0123804A804F137014F086F8B2
:1020E000002140227E4884F8F4B917F050FF002305
:1020F0007C4A7D4D3846C4F8F839136007F096F8ED
:102100002B68D90709D5D9F800305946642BB8BFD8
:10211000642358467B6407F0C1F82B689A0709D5F9
:102120000121022007F0BAF8704B5B6B642BB8BF3B
:102130006423BB6729680320C1F3400107F0AEF8B0
:102140000121052007F0AAF8694B9AF805B01A8C0E
:10215000684B072093FBF2F3642BB8BF64231BF199
:102160000001C7F8143118BF012107F097F89AF859
:102170000690082019F1000118BF012107F08EF820
:102180009AF80A30002B40F090819AF80B30002B1F
:1021900040F08B81D8F80010C1F38041BBF1000FF3
:1021A00003D1B9F1000F00D14946092007F076F8B4
:1021B0000121042007F072F84F4B0620197807F030
:1021C0006DF801210A2007F069F829680B20C1F396
:1021D000800107F063F82B680C2013F0140F14BF74
:1021E0000121002107F05AF8D8F800100D20C1F3A2
:1021F000802107F053F8D8F800104B0507D5337A43
:10220000083B012B9CBF4FF4FA63C7F8B432C1F30B
:1022100000410E2007F042F894F8C53463F07F03C4
:1022200084F8C53421B0BDE8F08F344A934211D010
:1022300004DC334A934208D0324AF4E4324A9342EF
:1022400066D0013293427FF4A5AE4FF40073EEE402
:102250004023ECE48023EAE418BA20001620C200F0
:10226000903B0020243C00201C3C0020283C002007
:102270002A3C00202C3C0020203C00201825002077
:10228000803B00201E3C00202E3C0020941C00209F
:102290004023002000060020BC1C0020BA1C0020A7
:1022A00095150020B12F00206E27002088100020F7
:1022B0005A270020B62F0020CDCCCC3DAC1B0020EF
:1022C000C00F0020CDCCCC3ED00F0020581B0020EA
:1022D000D3580108C83200204C120020F000002022
:1022E0006416002060160020141C0020B41A002080
:1022F0002A25002040420F00752200201740EF00E1
:102300001920C2001540EF001840EF0064220020A1
:102310004FF480732380A381638822881B0263604B
:102320005343B3F1807FA360614D05D90123B720EA
:1023300085F88A390BF070FB012385F88B392EE67E
:10234000002359F82320013220D10133042BF8D186
:1023500025462BE63F2A16BF4FF4FA434FF400738D
:10236000B3FBF2F348E6B4F90030994204DD1F2BC9
:1023700002DD0123038047E693FBF1F3FAE732F82D
:102380003330002B7EF43EACFEF734BC04F1010880
:102390002C46DDE70022474B00B21A7014F09EFC79
:1023A000454914F0EFFC0746B4F9800614F096FC9A
:1023B000414914F0E7FC0646B4F9840614F08EFC9B
:1023C0003D4914F0DFFC3D490546384614F0D2FB88
:1023D0000DF013FB814638460DF00FFB37490746D9
:1023E000304614F0C7FB0DF008FB804630460DF078
:1023F00004FB32490646284614F0BCFB0DF0FDFAFA
:10240000834628460DF0F9FA49468246584614F0AC
:10241000B9FC49460390504614F0B4FC5946049068
:10242000384614F0AFFC51460590384614F0AAFC2B
:1024300041460690584614F0A5FC214D51462860AF
:1024400008F1004014F09EFC05996860AE603046CB
:1024500014F098FC049914F08DFB0699E86030465E
:1024600014F090FC0146039814F082FB4146286169
:1024700007F1004014F086FC03996861304614F0BF
:1024800081FC0146069814F073FB0499A86130465C
:1024900014F078FC059914F06DFB4946E86140465C
:1024A00014F070FC2862FEF75BBD012176E600BFE8
:1024B000000600200E00002035FA8E3CDB0FC93FDD
:1024C000381600202DE9F04FB64A97B013780192E4
:1024D000002B00F0B780B44B186800286DD00CF0CA
:1024E00041FFDFF8F8A2B14DDAF8000008F0ADFACC
:1024F000002862D0DAF8000008F0A4FA0928AC4CF1
:1025000001D03F2850D14FF00008C1464646276809
:10251000DFF8ACB208EB0B0347B13A4658F80B10A2
:102520002846009317F076FD009B08B976B39946CC
:1025300008F10808B8F58C7FECD196B1D6F800E028
:10254000D9F800C023681EF803001CF8031081426C
:1025500007D15A1CE9B97D2B1BD820202260E854F2
:10256000A95423680BB14E4508D0924813F037FCAC
:102570004E4511D9904813F032FC002723689F4242
:10258000B2D2E85D08F040FF0137F7E71E469946F2
:10259000CEE7E8542260D5E756F8080B13F01FFC8D
:1025A000092008F031FFE3E72368002B41F0B882EF
:1025B000042805D17D480FF000F817B0BDE8F08F72
:1025C0000C2841F0D0827D4813F009FC7A4813F0C2
:1025D00006FC89E701220B4601F0B4BA591E685C7B
:1025E0002028F7D002B123600026754FEE54F15930
:1025F000284606EB07080FF021FA38B90836B6F579
:102600008C7FF4D16F4813F0EAFB05E06E4B9845E0
:10261000F8D2D8F804309847002301F097BA7F2BFE
:102620003FF662AFA0F12002D2B25E2A3FF65CAF65
:1026300013B920283FF458AF5A1C2260E85408F020
:10264000E3FE51E79846614F614D3A7802F001028E
:10265000009255F80A3C002B41F0038208F1010872
:10266000B8F1030F05F1CC05F3D1A6E7012B05D195
:102670004D280CBF0223002301F009BA022B57D1C9
:1026800000233C2805F8023C4DD03E284AD015F8DE
:1026900002ECBEF1060F41F0E58115F8014C002C6B
:1026A00041F0BE814FF001094A4B05AE0FCB86E8E1
:1026B0000F0015F8053C15F803AC2B440A93BAF14A
:1026C000440F0FFA8AF30995ADF82C30ADF82E407F
:1026D0008DF83090ADF81C3001F0928100F211813C
:1026E000BAF1050F00F0558200F2C980BAF1020F6D
:1026F00000F0938100F2AB80CA4500F0838131463F
:10270000504603F0F1FB0446002840F07981BAF10D
:10271000740F00F0CA82BAF1770F00F057836FF0A0
:102720000109D0E2012305F8013C032301F0AFB910
:10273000032B0BD10023C0289FBF05F8063C05F8EA
:10274000050C05F8040C042301F0A1B9042B09D1F0
:1027500015F8043C05F8030C5E4005F8046C0523ED
:1027600001F095B9052B92D115F8061C15F8053C1A
:1027700015F8042C8B420CD94B1C05F8063CCC23D5
:10278000424005F8042C144A03FB08230B449872BA
:102790007DE7824202D1062301F079B9002301F0DE
:1027A00076B900BF40270020F4250020BC26002079
:1027B0003C27002039BF01083EBF010843BF010884
:1027C00000BD01084EBF010818BE01085C2F0020A3
:1027D0009E0C0020ACA10108940C0020F8250020DC
:1027E000009B002B41F03E81232824D10123019935
:1027F00055F80A2C0B708C4B8C491A608C4B8D4809
:102800001A609A609DF8002059605A7340221A732A
:10281000894A04331360894B894ADB78003318BF37
:102820000123137013F00AFB864813F0D8FA4FF413
:10283000006013F0DBFC844B93F82230B3427FF44A
:1028400026AF824B824A1A60824BDC601FE7BAF1E6
:10285000030F00F01B81BAF1040F7FF450AF002486
:1028600004227D4930460CF089FF7C4B30461978B4
:102870000CF0A2FF059B5A1C05921C70CAE0BAF12D
:10288000240F00F0C4811FD8BAF1200F7FF437AFB6
:10289000DFF8E0A1724B9AF80120D91C1A709AF85F
:1028A000002005915A709AF80220BAF808109A7020
:1028B00030460CF081FF059B9AF80520591C0591C4
:1028C0001A709AF8062083E0BAF1280F00F0D1813F
:1028D000BAF1380F7FF413AF0522614B4FF00109B5
:1028E0005A700A2200249A705E4A83F80090117888
:1028F000DC701971517892785971D91D05919A71CE
:10290000CDE0BAF1810F00F0868130D8BAF1540FD2
:1029100000F0C48108D8BAF1520F7FF4F0AE504BEA
:102920005A1C05921C70BAE0BAF16E0F00F03E819D
:10293000BAF1800F7FF4E3AE00210A264A4B4B4CDC
:102940001B780B3BDBB299425ADA22880598FF2AA2
:10295000A8BFFF2200F1010ECDF814E00670059823
:10296000013100F1010ECDF814E00270EBE7BAF18D
:10297000A00F00F03C8130D8BAF1820F7FF4BFAED7
:102980003B4B30461A78364BDFF8F8A0591C1A70CA
:10299000384B059119890CF00FFF374B059A1B88AE
:1029A000511CFF2BA8BFFF2305911370DAF8081004
:1029B000304681F3100189B20CF0FEFEDAF8001007
:1029C000304601F30F0189B20CF0F6FE2B4B1A785A
:1029D000059B591C05911A7061E0BAF1B80F00F01F
:1029E0001881BAF1FE0F7FF48AAE0024DFF89890C8
:1029F00039F81410304601340CF0DEFE042CF7D107
:102A0000002407E0164BDA1C059224221C7083F880
:102A100001A09A704FF0010941E0042218493046A4
:102A20000CF0ACFE3BE000BFF825002093AA0008A4
:102A30002C1000206EBF0108F42500208C1A002005
:102A4000F40F00203EBF01082A250020F04F00208F
:102A5000EFBEADDE00ED00E0911A0020C40A0020B8
:102A6000E8400020FC1A00205C3C0020940F00206D
:102A70006E270020B62F00205A270020B12F0020FB
:102A800074BF0108AC1B0020841B00200222BE4B37
:102A90005A70DA1C0592052283F800A09A70ADF8EE
:102AA0001E90B9F1000F66D0059B55F80A0C0693ED
:102AB000B54B059303681B6A03B19847059B069EB7
:102AC000F61A00230E9324238DF834304D238DF80D
:102AD0003530BDF91E30FF2E3246A8BFFF2201332C
:102AE00000F091879DF82030002B14BF3C233E233B
:102AF000FE2ECCBF4FF007094FF005098DF8363098
:102B0000BDF81C308DF837208DF838304A46C8BFE4
:102B100033120DA955F80A0CC4BF8DF83A308DF860
:102B2000396007F098FF0DAB994400230DF137028F
:102B3000914540F06B87002E8DF813300EDD324644
:102B4000059955F80A0C07F086FF059B9DF81320A0
:102B50001E449E4240F05F878DF8132055F80A0C02
:102B600001220DF1130107F076FF55F80A0C0368F6
:102B70005B6A03B19847002305F8023C002C3FF440
:102B80006DAD55F80A0C06F0DBFB55F80A0CA047B2
:102B900064E50B227D4930460CF0F0FD08227C49AB
:102BA00030460CF0EBFD07227A4938E77A4B764A3B
:102BB0001B88DFF80CA2FF2BA8BFFF23511C059137
:102BC000DAF80810137081F3100189B230460CF066
:102BD000F3FD724B304619880CF0EEFDDAF8001068
:102BE00001F30F0189B230460CF0E6FD57E76C4B5C
:102BF000304619680CF0CCFD6A4B304619680CF071
:102C0000C7FD694B196830460CF0C2FD47E7674BBA
:102C1000F8E7674BF6E74FF00A0A4FF6FF7B654B84
:102C2000654A1B780B3B5FFA83F94C45BFF6E8AE6B
:102C3000116893685945A8BF59460598029321EA3F
:102C4000E171431C059389B280F800A030460392DD
:102C50000CF0B2FD029B30460AFB03F15945A8BFB8
:102C6000594621EAE17189B20CF0A6FD0134039ABC
:102C7000DBE70A22444BDFF84CA19A70BAF8001047
:102C80001A1D83F8009083F801E083F80390304622
:102C900005920CF091FDBAF80210A4E73A4A1346E7
:102CA00003F8024B05935470F9E6099B0A9A9A427D
:102CB0000FBF21465A1C09921978404A304613F03A
:102CC0005BF84FF0010919F1020F40F04883BAF1A7
:102CD000470F099B0A9A40F0878009A8A2EB030AD4
:102CE0000CF026FDBAF1050F814679D909A80CF040
:102CF00035FD099B0A9A83469A4202D009A80CF036
:102D000038FD059A069BDFF8C0A09B1A103BDAF845
:102D100008205B45CDF808B0A2EB0902B8BF1FFA46
:102D200083FB93454946304688BF1FFA82FB0CF06F
:102D30002FFD3CB9594630460CF03EFD059A511C1A
:102D400005911470DAF8083009EB0B029A42059EDF
:102D500088BFA3EB090B0AF03BFF5A4631464846B1
:102D60000AF016FE059B03440593002C3FF448AE81
:102D70000022029B83427FF743AE059B0130591C22
:102D800005911A70F5E700BFE840002079BF0108FF
:102D900085BF01086DBF01085A270020AC2F002015
:102DA000E8F7FF1FECF7FF1FF0F7FF1F581B00208D
:102DB000DC1800205C3C0020C00F0020315D0108C1
:102DC000AC1B0020001B002014040020099B0A9A61
:102DD0009A421DBF5A1C099219782146A14A6DE7F3
:102DE00001244FF0800B8CE7BAF1290FA2EB03040A
:102DF00037D0BAF1390F20D0BAF1210F45D15A1C82
:102E000009921A46984C12F8021B16A80992617092
:102E10005A782270DA1C40F8342D9B78A3700CF09D
:102E20009DFC099B20815A1C09921A4612F8021B2C
:102E3000617109925B78A37124E05A1C09921A7897
:102E40000A2A40F028869A1C09925978874A1170FC
:102E5000D91C099199785170191D0991DB789370EB
:102E600010E05A1C16AC44F8342D1B7820460A2B6F
:102E700040F0C1800CF072FC7D4E308020460CF09A
:102E80006DFC70804FF0010969E2BAF15F0F00F04C
:102E9000078400F25C81BAF1370F00F03B8570D8EF
:102EA000BAF12B0F00F09D8420D8BAF1230F00F067
:102EB000B98206D8BAF10B0F00F08D854FF0FF39BB
:102EC0004DE2BAF1250F00F07A84BAF1270FF5D15F
:102ED00009A80CF043FC674C206009A80CF03EFCEC
:102EE000606009A80CF03AFCA060CBE7BAF1310FA2
:102EF00000F034851ED8BAF12D0F00F08284BAF1AB
:102F00002F0FDBD15C4C04F1400609A80CF026FC25
:102F1000099BA4F800015A1C09921A4612F8021BD8
:102F2000043484F8FE1009925B7884F8FF30A642DE
:102F3000EBD1A7E7BAF1330F00F0D984BAF1350F1E
:102F4000BCD15A1C09921A780E2AB7D8991C09913B
:102F50005C78032CB2D8062151434848421854717A
:102F6000DC1C09949C784454191D0991D97851703E
:102F7000197991705979D170D91D9B790991137183
:102F800080E7BAF1480F00F016843AD8BAF13E0F44
:102F900000F0038204D8BAF13C0F3FF473AF8DE721
:102FA000BAF1410F00F0AA84BAF1430F86D116ACF2
:102FB0005A1C44F8342D1A78314B324E1A700023C3
:102FC000204633600CF0B4FB33681843099B306033
:102FD0005A1C09921A782C4B20461A720CF0BEFB30
:102FE000244E306020460CF0B9FB706020460CF097
:102FF000B5FBB06020460CF0B1FB20460CF0AEFBF8
:1030000040E7BAF1510F00F0B38341D8BAF14C0F49
:1030100000F04D84BAF14E0F7FF450AF5A1C099264
:103020001C78112C3FF64AAF9A1C16A840F8342D94
:103030005B78164E06F814300CF090FB40F6CA038D
:103040009842A8BF184640F2EE239842B8BF1846EF
:103050001923A0F2EE2090FBF3F006EB440460701D
:1030600010E700BFFD5A0108B62F0020FC1A00200F
:10307000001B00207C0C0020DC2C00208819002084
:10308000181C0020581B0020382200202A2A00206B
:10309000BAF15B0F00F0AD82BAF15D0F7FF40EAFB5
:1030A0005A1C16AC44F8342D1B78C14EDFF834930B
:1030B000204689F80530D6F800A00CF04FFBAAF89E
:1030C00020002046D6F800A00CF048FB099A0A9B85
:1030D000AAF81E009B1A072B17DD20460CF03EFBBA
:1030E000A9F80A0020460CF039FBA9F80C0020468C
:1030F000D6F800A00CF032FBAAF822002046D6F841
:1031000000A00CF02BFBAAF82400099A0A9B9B1A3A
:10311000032B09DD20460CF021FBA9F80E00204608
:103120000CF01CFBA9F81000099B0A9AD21A002A7D
:1031300005DD591C099132681B7882F826300BF0A6
:10314000F9FB0DF043FC306810F084FC9AE6BAF10C
:10315000D40F00F0CB816FD8BAF1CA0F00F04681CE
:103160003DD8BAF1B70F00F0C28014D8BAF1610FA0
:103170007FF4A4AE5A1C09921A468E4912F8020B2B
:103180000992C87059788C4A5171DA1C09929A7860
:103190008A4BDA7076E6BAF1B90F00F01B83BAF108
:1031A000C80F7FF48BAEC4F34704122C3FF686AEF3
:1031B00000260DF13409A642C0F2D4800023804AD3
:1031C0000DA99C4240F0D58000217D4A122B40F091
:1031D000D6804FF001097B4B83F80090BFE0BAF135
:1031E000CE0F00F0BA8210D8BAF1CC0F00F03281C5
:1031F000BAF1CD0F7FF462AE3B78D9073FF542AE0E
:103200004FF4C872704B1A803CE6BAF1D00F00F050
:103210009882BAF1D20F7FF451AE5A1C09921878F5
:1032200006065CD43B78DC073FF52CAE032828BFAC
:1032300000200BF0BDFA25E6BAF1DC0F00F0C881E2
:1032400026D8BAF1D90F00F0A08114D8BAF1D60F60
:103250007FF434AE00245D4EDFF88C9133789C42CD
:10326000BFF610AE09A80CF079FA13F033FD49F857
:1032700024000134F2E7BAF1DA0F00F09481BAF1D8
:10328000DB0F7FF41BAE4A4B4E22514918684AE0CF
:10329000BAF1EF0F77D015D8BAF1DD0F00F08A83BD
:1032A000BAF1DE0F7FF40AAE09A80CF057FA494CC8
:1032B000208209A80CF052FA608209A80CF04EFA9C
:1032C000A082DFE5BAF1F20F00F03B81BAF1FA0F0C
:1032D0007FF4F4AD3B78DB073FF5F0AD37E200F06B
:1032E0007F00032828BF002012F0F4FBCAE55A1C17
:1032F00009921A4612F8029B0992DA1C5878099230
:103300009978B9F1000F11D101283FF6BBAD012921
:103310003FF6B8AD81423FF4B5AD4E222E4B02FBD5
:10332000013102FB003014F001FAABE5B9F1010FF5
:103330007FF4A8AD01283FF6A5AD01293FF6A2AD67
:1033400081423FF49FAD0C23244A584303FB0121E3
:103350000B68841883504B6863608B68A3600024FB
:10336000FFF79DBB09A80CF0F9F929F81600013602
:1033700021E731F8130022F81300013321E722F886
:103380001310013322E709A80CF0E8F9094CE08199
:1033900009A80CF0E3F9A08174E55A1C09921A46B9
:1033A0000F4912F8020B887009925B784B7069E53F
:1033B0002C1B0020361B002082310020461B0020E1
:1033C0004A29002048290020BC1C00205C3C002029
:1033D000B0BC0108403C002042340020061B002005
:1033E000521B002076220020D4250020A04B186814
:1033F000034600F11E04099A0333511C099111463A
:1034000011F8026B03F8036C0991517803F8021C60
:10341000D11C0991927803F8012C9C42EBD110F059
:1034200049FA2FE55A1C0992197813293FF646AD3F
:103430009A1C09920C2600225C78DFF85CE206FBFD
:1034400002E090F808C0A44500F030830132252A3C
:10345000F5D133E5092C7FF731AD5A1C09921A4694
:10346000844E12F8021B34682170099200225B78A6
:10347000601DA370022A14BF4FF0640E4FF0FF0EC0
:10348000099B0132591C099119787145A8BF7146F1
:10349000032A00F8011BEDD19A1C09925A7816A84C
:1034A000642AA8BF64222272DA1C09929A78E27018
:1034B0001A1D40F8342DDB7823710CF04FF90A9B6C
:1034C000099A6081991A002904DD501C099031681D
:1034D00012784A72099A9B1A002B04DD511C09913B
:1034E000336812785A7012F039FDCBE40D2C7FF45A
:1034F000E5AC5A1C09921C78072C3FF6DFAC0C2671
:1035000009A80CF02BF96643DFF8909109EB06044B
:10351000A08009A80CF022F9E08009A80CF01EF99F
:10352000099B20815A1C09921A4612F8021B09A80D
:10353000A17209925B78E3720CF0FAF849F8060080
:10354000A0E45A1C09921A780F2A3FF6B7AC991CCE
:1035500009915C784848C2EBC20142184454D91C16
:10356000099199785170191D0991D978917019793B
:10357000D170597911719979517103F10801DB7991
:10358000099193710FF096FC7CE409A80CF0E6F821
:103590003A4C208009A80CF0E1F8608009A80CF0F2
:1035A000DDF8A0806EE419465A1C099211F8020B4E
:1035B000334A099159781070517016A8D91C40F8F7
:1035C000341D9B7893700CF0C9F82C4BD88059E4CB
:1035D0005A1C09921A4612F8020B2A4909920870DD
:1035E000294A59789170DA1C09929A78274B9A7077
:1035F00048E45A1C09921A46224C12F8021B244E27
:103600000992A1705978234A0DF158091170DA1CFA
:1036100009929A7832711A1D49F8342DDB784846A0
:10362000042BA8BF0423B3700CF098F8099A0A9BE6
:1036300030809B1A012B03DD48460CF08FF8F08197
:10364000099B0A9A9A4206D05A1C09921B780033A9
:1036500018BF0123E3710BF06DF9099B0A9A9A4296
:103660003FF410AC5A1C09921B78F3700AE400BFB7
:103670002C1B0020C4400020C62A0020BC40002093
:10368000301B002076220020361B0020461B002025
:10369000403C0020041B00200CA50108382B002012
:1036A00009A80CF05BF809A80CF058F809A80CF070
:1036B00055F809A80CF05DF8099BB24C591C09910A
:1036C0001946226811F8020B82F82C0009915978EA
:1036D00009A882F83610D91C09919B7882F83730F6
:1036E0000CF047F809A80CF044F809A80CF041F8D0
:1036F00009A826680CF032F8708709A826680CF033
:103700002DF8099B0A9A3087D21A012A08DD591C24
:10371000099122681B7809A882F82E300CF029F84C
:10372000099A0A9B9B1A032B09DD09A826680CF04D
:1037300015F8708609A826680CF010F8B086206885
:103740006DE63B78D8073FF59DAB0BF063FB0BF0C4
:1037500045F80BF081F9FFF795BB3B78DA073FF5A9
:1037600091AB894A137843F004031370FFF78ABBC7
:103770008649097801293FF685AB591C09911946FC
:10378000834C11F8020BA070D81C0991121A5978B9
:10379000012A09909E7805DD09A80BF0DFFF208043
:1037A000FFF770BB7B4BB3F900304B4393FBF6F351
:1037B0002380FFF767BB0AF049FAFFF763BB0023DA
:1037C000754C09A823600BF0B3FF236818432060F1
:1037D000FFF758BB0023714C09A823600BF0A8FF2A
:1037E000F5E7581C09901C786D49121A002A0C70D4
:1037F0007FF748AB9A1C09925B78003318BF01230E
:10380000D4E55A1C16AC44F8342D1B78654E20467E
:1038100033720BF0A3FFB08320460BF09FFF308381
:1038200020460BF09BFF099B70835A1C09921B7862
:10383000F3740A9B9B1A032B07DD20460BF08EFFC7
:10384000B08420460BF08AFFF084099B0A9AD21AB2
:10385000032A0DDD5A1C09921A4612F8021B204653
:10386000B17709925B7886F820300BF077FF70848F
:10387000099B0A9AD21A052A0CDD5A1C09921B7858
:103880002046F3720BF054FF099BF0605A1C09921A
:103890001B783374099B0A9AD21A002A7FF7F2AA7E
:1038A0005A1C09921B7886F82130FFF7EBBA5A1C94
:1038B00009921A463C4C12F8021B16AE46F8342DFB
:1038C00021715B78304663710BF048FF099B2080C3
:1038D0005A1C09921B783046A3710BF03FFF099BDD
:1038E00060805A1C09921B78E371FFF7CBBA5A1C0F
:1038F00009921A782B4B5A75FFF7C4BA002329494D
:10390000099A501C099012785A540133082BF7D1A8
:10391000FFF7B8BA0726B4FBF6F6C6EBC603E41AFF
:103920007FF4CCAADFF888B0F6B2E3B2B3423FF43A
:10393000A9AA4FF0000A099B5A1C099293F900307A
:103940000BEBCA0999F902209A4200F0CA800AF1E9
:10395000010ABAF1040FF3D1FFF7B0BA5A1C099269
:103960001E783F2E3FF6AAAA052C7FF4A7AA09A825
:103970000BF0DEFE0D4B43F8260010F0EBFDFFF7D9
:1039800081BA00BF2C1B0020951500202E3C002082
:10399000803B00201C3C0020581B0020DC1800202D
:1039A000181C00203822002048330020DC2C002086
:1039B0002A2500205A1C09921A4612F8020B099275
:1039C000DA1C597809929A780FF002FF00287FF4E8
:1039D00059AAFFF773BA002111226A4816F0D7FAE4
:1039E000102C4FF0000328BF10246649A342BFF4F7
:1039F00049AA099A501C099012785A540133F5E7E4
:103A0000614CFFF74CB82123FFF772B812F8011B85
:103A10004B40FFF78DB813F8011B4A40FFF799B8E8
:103A2000012C1BD1102200210DA816F0B0FA15F8B8
:103A3000053C0D952B440E9315F8033C6E2BADF809
:103A40003C300BD10DA80BF094FE0DA80BF086FEB8
:103A50000DA80BF083FE0DA80BF080FE0024FFF7ED
:103A60008AB84A4C55F80A0C06F0EFFF00283EF4DD
:103A7000F5AD55F80A0C06F0E5FF15F8023C0646D0
:103A8000002B7EF4F3AD24287EF4AAAE012305F8C2
:103A9000023CFEF7FCBD09A80BF06BFE09A80BF079
:103AA00068FE09A80BF065FEFFF7ECB9384A00780C
:103AB00002F82100D81C0990987802EB81011A1DA8
:103AC00048700992DA7800208A705A1D1B79099291
:103AD000CB7012F0B9F92F4B80F001001870FFF78E
:103AE000D1B989F8023009A80BF038FE099B2BF8F0
:103AF0003A005A1C09921A4612F8021B0134099224
:103B000089F803105A7889F80420DA1C09929A7807
:103B100089F806201A1D0992DB7889F8053004E738
:103B20000C283EF450AD0A2801D00D2820D112F007
:103B30006FF92321284616F05FFA08B1401B206078
:103B400000222368002B7EF449AD02B1236080225D
:103B50000021284616F01BFA019B1B78002B7EF4EF
:103B600035ADFEF72ABD7F287EF45CADFEF7BCBC08
:103B70007F287EF454AD0022013B2360EA540648BE
:103B8000FEF725BDA01A0020FFE600080400FA0594
:103B9000E8180020000000206ABF01082DE9F04F5E
:103BA000B24B9DB01B780790012B07D1B049B14AA9
:103BB0000968C9691180B04909885180AF4D2A78D8
:103BC000002A00F00F85072B40F0008206F070FEFF
:103BD0000690AB4F3B68089713F4806F05D0A94857
:103BE000836813B100F150019847A74BA7491B68A0
:103BF000B1F906405A890991944280F2EA814FF066
:103C00007E536B60A24B4FF0000893F90410A14A59
:103C1000002914BF01214FF0FF31168B93F801A04A
:103C200093F800909C4F05910A92099B33F918B0C4
:103C3000ABEB06000028B8BF4042B0F5FA7FA8BF42
:103C40004FF4FA70B8F1020F00F0D6814845CCBFAE
:103C5000A0EB0900002013F041F8B34547F8280015
:103C6000C0F2D88108F10108B8F1030FDDD1089B3B
:103C70001F6817F4805800F0D481B4F5FA6F23461A
:103C8000A8BF4FF4FA63B3F57A7FB8BF4FF47A73E5
:103C9000A3F57A732A7A22B16A7A5343642293FB9A
:103CA000F2F34FF0640E93FBFEF27C4802F1010C3C
:103CB00030F9121030F91C006FF0630C0CFB02336A
:103CC000401A584390FBFEF0084400B213F006F887
:103CD000DFF8C4918246C9F80C00B8F1000F1DD07E
:103CE0001D2012F0EBF8C8B16D4BDB78B3B96D490C
:103CF000504612F03DFF13F021FA4FF47A7300B2F0
:103D0000000390FBF3F3C6F5FA6000B2584340F3AA
:103D10000F30304412F0E2FFC9F80C00624B1E88ED
:103D200073063BD5614BB3F904000A2390FBF3F013
:103D30002B8AC01A00B212F0D1FF5D4913F022F8AD
:103D40005C49054612F016FF0BF057FE83462846E5
:103D50000BF053FE504D81462B6859461846089388
:103D600013F010F8D5F804A005905146484613F01A
:103D700009F8059A0146104612F0FAFE59462860E5
:103D8000504612F0FFFF089B82461946484612F043
:103D9000F9FF0146504612F0EDFE6860464B374D84
:103DA0001B6813F0140F1AD016F4027F17D0434B80
:103DB000DFF8E4901A7812F0100200F04781AB7C33
:103DC0006869002B0CBF01234FF0FF33584312F0FA
:103DD00085FFD9F8041012F0CDFEC9F80400384B65
:103DE000DFF8B0A01A789946A2B1BAF81A30A34207
:103DF00010DB344B1B78012B01D0192B02D1324A36
:103E0000927B3AB90E2B05D0082B1FBF0023224A04
:103E1000EB63936095F84240002C68D0B60766D0FB
:103E20002A4B2B491E6A304613F054F9002840F003
:103E30006081304613F058FE696C12F0A3FF13F056
:103E4000DBFDB0F5617FA8BF4FF4617012F046FF53
:103E5000204912F097FF0BF0D0FD0646204612F0E5
:103E60003DFF314612F08EFF36E000BF101C0020EF
:103E7000D4270020841B0020B216002080100020D0
:103E8000642200208C220020C4400020842F0020C7
:103E9000301B00203822002070270020C84000205E
:103EA000C82F002000007A44AE2F00201C330020D1
:103EB00035FA8E3CDB0FC93F141C002095150020FD
:103EC00000000020181C0020B42B0020DC32002051
:103ED0008FC2753CD06D393A13F08EFD00B212F0EE
:103EE000FDFE894C0146E06812F044FEE06095F862
:103EF0004860002E5CD0854B0420D3F8EC4044F69B
:103F000020639C42A8BF1C46B4F57A7FB8BF4FF42B
:103F10007A74A4B2A5F84A4011F0D0FF08B9F800AD
:103F200046D54FF47A73B4FBF3F4642393FBF4F4B3
:103F3000DFF8ECB1142CA8BF1424DBF80030B8F182
:103F4000000F00F0D8805F8E7F086F49EB6CD1F8CE
:103F50000C805A1CEA6405EB430340460892059323
:103F600013F0ECF8089A059BA242A3F85000A4BFF6
:103F70000023EB64EB6C05EB4303B3F9500012F044
:103F8000ADFE0146404612F0F3FD13F0D7F800B243
:103F90000028B8BF4042B84240F3B080DBF80030A0
:103FA000988E12F09BFE5A4912F0ECFEC9F80400FC
:103FB0009AF81E40002C00F0DC81022C00F0B28048
:103FC000032C00F0AF81534B5888B0E000230693D8
:103FD000FFE5B4F5FA6F187ABFBFA31A5843C2F5CC
:103FE000FA6290FBF2F0C0F1640012F077FE4A49E9
:103FF00012F0C8FE686005E65045D8BF0020059B5A
:10400000C8BFA0EB0A00584312F068FEB345B86081
:10401000BFF62DAE57F8281001F1004147F82810DF
:1040200020E60A9B5A8B94420EDBB4F5FA6F2346C6
:10403000A8BF4FF4FA634FF47A719B1A4B43C2F551
:10404000FA62B3FBF2F325E61346F4E7334BD97873
:10405000987871B3B5F91830E11A0029B8BF494210
:10406000814210DDEA6101229C4285F82020C8BF10
:10407000404212F033FE0146D9F80C0012F07AFDEE
:10408000C9F80C00ABE695F8201019B1A96A85F8BB
:104090002020696268691844B0F5FA6FA8BF4FF430
:1040A000FA60B0F57A7FB8BF4FF47A7012F016FE5E
:1040B000E6E7B5F91820A31A83EAE37EAEEBE37EC8
:1040C00086450BDD022193FBF1F3EB62012385F8BA
:1040D000303085F8203068691044DDE795F82030ED
:1040E000002BF8D0AB6A85F830106B6285F8201091
:1040F000F1E70020F2E6B3F9327026E74FF07E5385
:10410000C9F8043054E700BF70270020F0000020F9
:104110006F12833A282200200AD7233C301B00204C
:104120002C1B0020B5F84A0000F57A7080B29AF88E
:104130001F400234E4B2002E00F00981002800F094
:104140000681904B00261B688F4FB0FBF3F000B246
:10415000A5F8780012F0C2FD01464FF07E5012F033
:10416000C5FE8046DFF8289207F1100AA642C0F289
:10417000E180864B1B78092B11D1854B854E186841
:1041800013F03AFC844B3080D3F8EC004FF47A7390
:1041900090FBF3F012F0A2FD12F0D0FF7080B5F9A1
:1041A0007830002B40F3E88000267C4FDFF8E09168
:1041B000A7F11008F3B29C4200F2CF8095F8483086
:1041C0000893002B40F0DA80002C00F08B80022C4A
:1041D000A8BF0224099400244FF07E59704BDFF8E9
:1041E000F0811F68694B1B780A937B1D0B93099B19
:1041F0009C4240F3EF800A9B092B08D1694B654C28
:10420000B3F87820586BA28012F098FFE080664BDC
:1042100093F82140002C5FD01E2011F04FFE0028A3
:104220005AD0624B1B88590656D45E4F604E97F8A1
:10423000B430A34213D087F8B440204612F04EFDAC
:104240005C4912F09FFD5C49044612F093FC0BF0B0
:10425000D4FBB06020460BF0D0FBC7F8B800D6F80E
:1042600008806C6B4146204612F08CFDEF6BD5F850
:10427000B86081463146384612F084FD0146484612
:1042800012F076FC4D49814612F024FF08B9DFF8A0
:104290002C914B49484612F027FF08B9DFF82091CE
:1042A00041463846C5F8349012F06CFD3146074659
:1042B000204612F067FD0146384612F05BFC3F498C
:1042C000044612F007FF00B93C4C3D49204612F06D
:1042D0000BFF00B93A4CEC63089B1BB10022314B39
:1042E00083F84820374B1B78002B40F06E81364E08
:1042F000B278002A00F06981344C2378013B0D2B01
:1043000000F25181DFE813F006011A014001340286
:104310004F014F014E02620274029002A102E502B7
:10432000EF02F8029AF82000C0EB401300EB830084
:10433000C000FBE65AF8261059F8260012F018FCC7
:10434000414612F01FFD47F8260001360EE7B5F88A
:104350007830013BA5F8783021E757F8260058F867
:10436000261012F007FC47F8260049F8260001360F
:1043700020E7A5F8784021E700241FE702230993EE
:1043800029E700BFF81B0020FC100020101C0020B3
:1043900070270020841B0020F00000200C1100205A
:1043A000C44000208010002038220020AE2F0020C2
:1043B0000000002035FA8E3CDB0FC93F00C0F944F5
:1043C00000C0F9C440270020803B00202E3C002084
:1043D0000AD7233C022C15BF3878787897F802B0BA
:1043E00097F809B012F07AFC414612F0CBFC4FF07E
:1043F0008041064612F082FE60B14FF080413046A7
:1044000012F0B6FB524912F0BDFC0146304612F0E4
:10441000B1FB0646A30005934E4B4F4953F82400C9
:1044200012F0B0FC20F000434C4A0593059B42F883
:1044300024000C32824642F82430BBF1000F1FD01A
:10444000584612F04BFC414612F09CFC8346514604
:10445000504612F097FC059912F094FC594612F060
:1044600091FC59460C90484612F082FB0C9A01468A
:10447000104612F07FFB0146504612F083FC824644
:104480003749304612F07EFC514612F07BFC0B9B04
:10449000064613F8010B0B93F0B112F01FFC4146D6
:1044A00012F070FC059912F06DFC2E49824612F054
:1044B00025FE58BB0021504612F002FE40BB51467B
:1044C000484612F055FB0146484612F00FFD0146E2
:1044D000304612F057FC06460A9B0C2B05D130469D
:1044E00012F02CFE204B23F814002049304612F025
:1044F000F1FD00B91D4E1E49304612F0F5FD00B920
:104500001B4E1C4BA200D650013470E64146DBE73F
:104510004946D9E7184B1B78DA0707D580200CF0FD
:10452000A3FB08B104F048FF12F080FF1F2011F038
:10453000C5FC002837D00C23237034E000220F4B39
:104540001A600F4B1A600F4A12685A600323F3E790
:10455000D7A36841702700206F12033B1C11002075
:1045600000004843A4707D3F841B002000C0F94434
:1045700000C0F9C4B41000205C2F00207C3B002058
:10458000981A0020AC27002010F08EF9BB4DBC4BD0
:104590001A686B686433934205D2402010F05CF9CE
:1045A000002800F0C18010F0A7F9002800F0AB81CE
:1045B00023780C3B022B08D901232370B14B93F8CD
:1045C000BC2012B1002283F8BC20AF4B1B78072B14
:1045D00005D106F06DF9069BC01AAC4B98800022FD
:1045E000A84B1A70A84E3378072B40F0D88106F0FC
:1045F0005FF90890DFF8C492D9F80430484698472C
:104600004C46002878D00022B9F8B4B089F855207B
:104610009F4DBBF1000F40F02682D9F82420B9F954
:104620003C30984E9B1AC9F83030D9F82820B9F997
:104630003E3009F130009B1AC9F83430D9F82C20EB
:10464000B9F9403099F856109B1AC9F8383005F07E
:10465000E1FE079BD6F8C400C6F8C430181AD6F895
:10466000C8300344C6F8C8308A4B93F80080B8F1CC
:10467000000F40F0978112F031FB4FF07C5112F0A7
:1046800081FB834609F12C0A09F59C77C14606F1A6
:10469000CC08D8365AF8040F12F020FB216A12F029
:1046A00071FBD4F83431014638469847D4F8A43128
:1046B000014607F170009847D4F8B8300146DAF89F
:1046C000F800984756F8291045F8040F059012F0A5
:1046D00051FA594612F056FB58F8291012F04AFACE
:1046E000059B48F8290046F8293009F10109B9F17C
:1046F000030F07F12407CDD1634C2278072A05D197
:1047000006F0D6F8089BC01A604B18805D4B93F8F2
:10471000E5201D460692002A00F08E82013A83F8B9
:10472000E5201DB0BDE8F08FDFF894814027C24638
:10473000DFF890912B6818F8030068B110F05AF96F
:10474000D9F80030013F03F1FF33C9F800302B687E
:1047500003F101032B60EDD12B681AF80330002B15
:104760007FF421AF2B604FF0FF336B600423E3E64F
:1047700010F09AF8484A5021A2F10C030193262325
:10478000029200934920A2F10A03163A09F012FEA0
:1047900000287FF408AF4FF0FF32384B18605A60A2
:1047A0000723C9E610F080F80523002100933B4B56
:1047B00002910191A3F10802532009F0FBFD0028AA
:1047C0007FF4F1AE2D4B18600823B5E610F06CF8BD
:1047D00009F094FA00283FF4E6AE12F06DFF0028CD
:1047E0003FF4E1AE2E4B1A682E4B1A600A23A3E663
:1047F0001A2011F063FBA0B12B4B1B888BB92B4BFC
:1048000014A91B680E201493079B159310F042FA0D
:10481000234B1A68234B1A600A232370079810F061
:1048200085FA10F013FABEE6214B1B78002BF5D069
:104830001A2011F043FB0028F0D1124B93F8BC3042
:10484000002BEBD109232370EBE70D4B1A680B4BC0
:104850005B68C833934237D2B378032B0BD1154D25
:10486000286804F093FD00232B60134B1B78022B68
:1048700001D104F08FFF01235EE600BF981A0020EB
:10488000AC27002080100020101C0020841B00207A
:10489000182500209715002022A20108DCA301089A
:1048A000941C0020203C0020283C0020243C0020B8
:1048B0001A1C0020883B0020F41B00208C220020C2
:1048C000BCA101087C3B002012F0F6FE0028C3D1F9
:1048D00069E6012A01D109F0B9F90D2313202370EB
:1048E00004F0D0FF5FE6012A04D109F019F800288E
:1048F0003FF459AE0E23F1E71F2011F0DFFA002834
:104900007FF451AEB7E7F378002B3FF45EAEA04BD7
:104910001D7815F0010508D19E4BDFF8A0921F7895
:104920009D4BD3F80080BD4219DB9C4B9C4D1B680E
:10493000D5F8C0209A4223D92378012B7FF445AEC5
:10494000974C94F8BC20002A7FF43FAEB378032B39
:104950000FD012F06BFD012384F8BC3035E64146E0
:1049600059F8250012F0A2FB002801F0A0820135C1
:10497000D9E780200CF078F900287FF426AEE8E72C
:104980002378012B3FF421AE95F8BC30002B3FF487
:104990001CAE09F049FE002385F8BC3015E6002363
:1049A000089327E612F09AF94FF07C5112F0EAF9D9
:1049B0004C465E467B4FDFF8F0B1059009F12C0ABA
:1049C00009F59C789BF800905AF8040FB9F1170F7D
:1049D00002BFA3199B8F3B8012F080F9216A12F06D
:1049E000D1F9B9F1080F014604D1069013F004F88B
:1049F00006993880D4F8343140469847D4F8A43129
:104A0000014608F170009847674B81461B78032BDD
:104A100002D112F0F1FF38804946D4F8B830DAF804
:104A2000F8009847DFF8989145F8040F09F10C0356
:104A300053F816100693099012F09CF8059912F09D
:104A4000A1F959F8161012F095F8069B099A49F841
:104A5000160043F816200236062E08F1240807F146
:104A60000207AFD148E6514B29685B784C46099361
:104A70004FF47A73B3FBF1F31546C3EB431103EB29
:104A80008103DB009BB20593337806920A93454B72
:104A900009F12406B3F90680059B5B080B93059B7F
:104AA0009B4501BF0023B364C4F888303360404B9A
:104AB000EB18B3F93C00B36C0344B36412F00EF985
:104AC000D4F88820571C012FC4F8887009D100231E
:104AD000BBF1010FE067A067C4F8803079D10020F6
:104AE00033E0D4F878900D9249460C9012F040F8DB
:104AF0008246384612F0F2F80146504612F0F6F9B6
:104B0000494612F037F80C9B01468146E06718468B
:104B100012F02EF8514612F035F9D4F8801012F048
:104B200029F8BBF1010F8246C4F88400C4F87890DC
:104B3000C4F880000D9A4CD1012FD0DD104612F040
:104B4000CDF80146504612F0D1F913F015FA0A9B40
:104B50000746032B05D112F04FFF01230FFA80F80F
:104B60000693099B73B3184612F0B8F8394612F051
:104B7000A7FA38B3069B13B10A4BA3F806800D4879
:104B800005F038FC00220C4B5A609A60DA60B3E5FD
:104B90005C2F00205C3C002044270020AC27002034
:104BA00080100020841B0020101C00207622002092
:104BB0008C2200204023002018250020D42500202E
:104BC0004C1100200B9AB36C1344059A93FBF2F33B
:104BD00033600235062D06F1040604F114047FF457
:104BE0005EAF069B13B10F4BA3F80680BBF1010F1C
:104BF00011D100220C4B1B689A621A63DA620B4BCC
:104C000093F8E43023B10A4B1B8823F4806313B973
:104C1000012004F037FE074AB2F8B430013BA2F895
:104C2000B430AFE7841B0020D42700208010002080
:104C3000EC2F00208C220020AC4B5B79002B00F085
:104C40007085AB4B1B78013BDBB285F8E5302378F0
:104C5000072B40F0698505F02BFE0C90A54B4FF01B
:104C60007E501B6809936B680F93D5F8E83019469E
:104C70000B9311F07DFFA04B196812F083F84FF0F1
:104C80007E510D9012F026FA10B94FF07E530D931D
:104C90009A4B002508939A4B9A4C0A93002305934C
:104CA000059BDFF8BC929E0059F82370059A964B3D
:104CB000294653F82280404612F0F8F9E8B9059BDE
:104CC00009F1B80959F823903846494611F050FFC8
:104CD000824620F00041404612F0F2F958B12946D0
:104CE000504612F00BFA002800F022854946404653
:104CF00011F040FF0746854BF750854BB3F8009005
:104D000019F0030F3BD0059B022B38D0099B93F879
:104D10002EB0584611F0E2FF7E4BF15812F032F8F7
:104D20008246CBF1000011F0D9FF80460146504683
:104D300012F0C6F940B9584611F0CCFF51468046F2
:104D400012F0C8F900B9D046059A734B33F9120036
:104D50000A9BB3F90030C01A11F0C0FF6F4912F07E
:104D600011F80146404611F003FF19F0010F0E90B3
:104D700000F0E4846A4B196812F004F80746694BA6
:104D800038463344D3F804B0594611F0F1FE94F894
:104D9000F8308046002B76D0079AD4F8FC30D31A2E
:104DA000614A126893426EDD099B93F84830022BEA
:104DB00002D1012005F0EAFE059B022B40F0988508
:104DC0005A4B4046D3F8009009F1004A514612F080
:104DD00077F9002840F0AC854946404612F07AF950
:104DE00000B9C846089B079A1D60D4F8FC30D31A56
:104DF0004F4A1268934223DC4FF07E510B9812F019
:104E00005FF900283FD04B4BDFF818A1D3F8009092
:104E1000DAF80400494620F0004012F051F990B34E
:104E2000DAF80810484621F0004112F067F950B353
:104E3000DAF80C10484621F0004112F05FF910B387
:104E40003D4B186810F0020019D03C4B32483C49E9
:104E50001A68B1F90CE0B0F90030A3EB0E03002B97
:104E6000B8BF5B4293420EDAB0F90230B1F90E10CE
:104E70005B1A002BB8BF5B429A4204DD002084F825
:104E8000F80005F083FE2F4B0F98F15811F07AFFD0
:104E9000414611F077FF059BDFF8C890022B0146D1
:104EA00046F8090006D1284A284B10681B68984725
:104EB000C9F80800089B1B680E93254B5968254BC1
:104EC000186811F05FFF0D9911F05CFF224BF1584B
:104ED00011F058FF414611F055FF0E9911F04AFEAE
:104EE0001E4B1090D3F800A03EE000BF76220020B9
:104EF000041B00202C1B0020E03100206C1B002034
:104F0000421B002080100020D43100206C110020B2
:104F1000AE2F00201C1100201C330020CDCCCC3D36
:104F2000BC31002018250020E8310020003200208C
:104F3000E4310020F0310020141C0020EC3100206E
:104F4000361B002090310020B432002010320020A7
:104F500000000020982B00209C310020043200200B
:104F6000B4100020601B00200AF10049494612F0ED
:104F7000A7F838B9109A51461046914612F0AAF88F
:104F800000B9D146059B022B40F0D58494F800313E
:104F9000012B02D0192B40F0CE844FF00103A6491B
:104FA0004046109312F0AAF8109B00B90346DBB2FA
:104FB0003BB10E9B29F0004023F0004112F080F835
:104FC00010B1089BC3F80090059B022B00F099805C
:104FD0009A4A9B4B59461B68B0589847994A9A4B36
:104FE00001461B68B0589847099B814693F83730B3
:104FF000002B00F0AB84954B1B88002B40F0A6845F
:10500000934BF158934B186811F0BCFE4FF07E5152
:10501000824612F05FF808B94FF07E5A8E4B504628
:10502000196811F0AFFE0146384611F0ABFE494653
:1050300011F09EFD894B8146F15811F099FD884B86
:10504000196811F053FF854B074646F80390099BFA
:1050500093F84830002B4AD0824B1B78D80740F198
:1050600078844FF07E510B9812F03EF8F8B194F826
:10507000F830E3B97C4B27F00040196812F03EF895
:10508000A8B17A4B28F00040196812F037F870B1D7
:10509000774BF058774B20F00040196812F010F869
:1050A00028B1012384F8F830079BC4F8FC3094F849
:1050B000F830E3B1079AD4F8FC30D31A6E4A12687C
:1050C000934214DA694B28F00040196811F0F8FF98
:1050D00040B9674BF058674B20F00040196812F058
:1050E0000DF820B1002084F8F80005F04FFD634B67
:1050F0000F98F15811F046FE394611F043FE604B0F
:10510000985194F80C312BB95E4BF550089B1D60FB
:105110005B4BF550059B01330593089B04330893C3
:105120000A9B02330A93059B032B7FF4B9AD564EBD
:105130003278072A05D105F0BBFB0C9BC01A534BF4
:1051400058803378012B40F00B8405F0B1FB5049B7
:10515000D4F810314D4A0968C31A93805B1A07903E
:10516000D380C4F810014B4B4B4E1B6893F82C7046
:105170004A4B1B6813F4805F00F05384394BB4F83A
:1051800016811B784046D90758BF454BF6685CBF6F
:105190001B8BA4F8143111F0A1FD81460146304665
:1051A00011F098FF002800F0E6833E4BD4F81C1164
:1051B0001868C4F82011C4F82411C4F8180111F0BB
:1051C000D7FCFF23C4F8280184F82C31304611F0B5
:1051D000DBFF3146A4F81401484611F0C9FCC4F8BD
:1051E0003001D4F834512946D4F8300111F07EFE54
:1051F0004FF07E51054611F06DFF08B94FF07E5516
:105200000021284611F070FF00B90025DFF87490E6
:10521000DFF898A0C4F83051DAF80010D9F800008F
:1052200011F0A8FC164B196811F0A4FC1E49099056
:1052300011F0A8FD3CE000BF0000964214320020AF
:1052400008320020643200200C320020AE2F0020F3
:1052500028110020B8310020B43100208411002032
:10526000982B00205C2F0020F8310020F431002022
:10527000B4100020FC310020E8310020A8310020CB
:10528000781B0020601B0020101C0020841B0020C5
:10529000F81B00202C1B0020702700206422002017
:1052A00038220020583C00206F12833A6C1B0020EB
:1052B000B04B80461C6804F10046314611F000FFF7
:1052C000002840F0CD832146404611F003FF00B98D
:1052D000A046DAF80410D9F8040011F04BFCA64BF4
:1052E000596811F047FCA5490A9011F04BFD814621
:1052F0000146304611F002FF30B9494620462646A5
:1053000011F0E8FE00B94E469D4B99689D4B986898
:1053100011F030FC99490B9011F034FD9A4B824604
:10532000D3F8009009F10044214611F0C9FE30B9CC
:1053300049465046544611F0CDFE00B94C46934BB9
:105340005B780BB904F100442FB3914B5A7912B337
:10535000904A1778FFB1187811F0BCFC81463846A6
:1053600011F0BCFC0146484611F00CFD8A4B074683
:10537000188811F0AFFC0146384611F0B7FD874997
:10538000074611F0A7FE00B9844F4FF07E51384612
:1053900011F0AAFE08B94FF07E574FF0000A804B7B
:1053A000D3461B78DFF8409208930023089A934273
:1053B000C0F258835146584611F0DAFB794C4FF051
:1053C0007E51C4F8E800064611F098FE002800F06F
:1053D000898331464FF07E5011F088FD0025074645
:1053E00014AE089BAB4200F3748310F06DFD18B14E
:1053F0004FF07C53C4F8303194F92C0111F06EFC5D
:10540000D4F830310C900D93D4F82831D4F8180129
:105410000E93D4F8243100250F93634BDB7811935E
:1054200011F08CFE8146D4F8200111F087FE5F4B0D
:105430008246D3F800B0584611F080FE80465C4B9F
:105440001E6806F0100312935A4B06F480561C781F
:10545000594B04F00104B3F90670584B5B8B109361
:10546000089B9D42C0F061832CB9554B554A089961
:10547000A14200F398834B4BD3F8C821002A00F0D7
:10548000B68493F80031192B00F2D78001229A409C
:105490004D4B1340002B00F0D0804C4B474C1B88E9
:1054A00013F4807F00F09883494D286811F046FE80
:1054B000ADF85000686811F041FEADF85200A868E0
:1054C00011F03CFEADF854004FF47A724FF4616174
:1054D0004048B0F9023003F5E163534393FBF1F325
:1054E000A3F5FA73ADF86830B0F9003003F5E16365
:1054F0005A4392FBF1F2324BA2F5FA723649186820
:10550000ADF86A2011F034FB11F018FE2A4A238B03
:105510001188ADF85600C91AADF858105188C91A4B
:10552000ADF85A109188C91AADF85C10D188C91A23
:10553000ADF85E101189C91AADF860105189C91A09
:10554000ADF862109189D289C91AD31AADF86630C4
:105550000023ADF864101946204A22F813100133D5
:10556000082BFAD14FF00C0964271D4B1D4C1B78FA
:105570003CE000BF9C2B0020781B00206F12833A78
:105580006C1B0020601B0020A02B0020181C00209A
:10559000B62F00206E2700205A270020713DAA3F19
:1055A0005C3C002080100020C82F002044270020F1
:1055B000642200205C2F0020842F0020382200204D
:1055C0008C1B0020D425002032413003AE2F002058
:1055D000702700201C3300200080BB44E41B002007
:1055E000552A0020562A0020C8110020AE4DC3EBDA
:1055F000C3032344DFF8BC82DFF8BCA20A930A9BF2
:10560000A34240F00B8300254FF00C096427A74EFE
:10561000DFF8A08209FB0583B6F9024093F90A007E
:10562000444394FBF7F4E8B274800DF06BFC013551
:105630002044082D26F8020FECD19D4C9D4D236887
:1056400013F0200F30D000200DF05CFC9A4E804605
:10565000308001200DF056FC07467080082010F0C5
:105660002DFC08B3954B95F90A1093F8EE31012BF8
:10567000934B40F04583484295F91620B3F9021048
:10568000B3F900304143534332206FF0310291FBB4
:10569000F0F193FBF2F293FBF0F00A44A8EB020264
:1056A0003280084438447080DFF8009200234A4674
:1056B000EE18B6F90410B2F90200B6F90660884295
:1056C00003DB86423146A8BF01460C33602B22F82B
:1056D000021FEDD17B4EB389002B40F02183774F21
:1056E00097F80031013B182B00F24A83DFE813F0F2
:1056F0003A0348034803AC034803480348039903AB
:1057000048034803480348034803B80348034803D1
:10571000480348034803AC03C90348034803B803DC
:105720003A030123FFF791BA00230C93FFF796BACF
:105730004146484611F01CFAFFF7DCBAD4F8A890AD
:10574000D4F8AC804946404611F0CEFC00B9C846BA
:105750005B4BB3F90000B3F902300028B8BF4042F8
:10576000002BB8BF5B429842B8BF184611F0B6FA9A
:10577000554911F007FB554B82461B78002B57D03B
:10578000534B2946D3F800B0584611F0B7FC002817
:1057900000F087804F4B2946D3F80090484611F01F
:1057A000ADFC00287DD008F100404B4911F0EAFA29
:1057B000594611F09BFB4FF07E5111F0DBF9514639
:1057C0008046484611F0D4F9494611F08FFB4FF05E
:1057D0007E51814611F07EFC08B94FF07E59294672
:1057E000484611F081FC00B9A9464146484611F0EF
:1057F000C9FA8146394B0E98196811F0C3FA4FF077
:105800007E518046484611F065FC08B94FF07E593C
:105810002946484611F068FC00B9A9464946404669
:1058200011F0B0FA0146384611F0A4F9FFF7A6BA14
:105830002B4B2C49D3F80090484611F041FC60B343
:1058400049464FF07E5011F093F9274911F09AFA2A
:1058500051468346254811F08BF90146584611F010
:1058600091FA494611F086F9194B196811F08AFA34
:1058700081462946484611F02DFC90B94946164804
:1058800011F034FB08F100480146404611F07AFA65
:105890004FF07E5111F06EF9ABE70D4BD3F800904D
:1058A000E7E7A946A6E700BF4E120020E21B002052
:1058B00064220020382B0020E41B002080100020F0
:1058C0001C330020B42B0020CDCCCC3DC8310020AF
:1058D000C4310020CC3100200000C842C03100207B
:1058E000D0310020AE47813F610BB63B000034430E
:1058F000B04B1B689B077FF575AA0A9B059AB3F905
:105900000000AD4B33F91230C01A11F0E7F9AB4B80
:105910000746AB49186811F035FA0146384611F0D0
:1059200031FA5946074611F023F98046FFF75ABA73
:10593000D046FFF757BA4FF001034FF07E51D4F82D
:10594000E800109311F0D0FBFFF72EBB2946FFF7BC
:105950006BBB94F8F830002B3FF4C9ABFFF7C2BB28
:10596000072B04D104F0A4FF0790FFF7FCBB002332
:105970000793FFF7F8BBB4F8380111F0AFF981468F
:105980000146304611F0B0FBF0B18E4BD4F83C111B
:105990001868C4F81811C4F82411C4F8200111F0D3
:1059A000E7F80123C4F8280184F82C31304611F0BF
:1059B000EBFB4946A4F81401304611F0D9F8C4F8BD
:1059C0003001D4F840510EE4B4F81431434514D8F2
:1059D0007D4BD4F81C111868C4F82011C4F81801C4
:1059E000C4F8241111F0C4F8FF23C4F8280184F886
:1059F0002C31C4F83051FFF7F4BB724BD4F83C1192
:105A00001868C4F81811C4F82001C4F8241111F062
:105A1000AFF80123C4F8280184F82C31C4F83051C0
:105A2000CFE76A4B588B11F059F90146F06811F035
:105A30009FF8654BC4F830011968624BC4F818111F
:105A40001868C4F82411C4F8200111F091F801235A
:105A5000D4F84451C4F8280184F82C31FFF7C3BBB3
:105A6000B04636E4D9F8041040460D9311F08AF997
:105A7000D9F808100C90304611F084F90C9A0146C0
:105A8000104611F077F8D9F80C100C90204611F060
:105A900079F90C9A0146104611F06CF8394611F06C
:105AA00071F959460C9011F029FB0C9A0D9B70B9B5
:105AB0001146504611F00EFB0C9A0D9B00B9924610
:105AC00014A941F8232009F1100901336EE493462B
:105AD000F6E756F82500394611F054F946F8250046
