:020000040800F2
:1000000000500020F956010895570108D1BB00089F
:100010009557010895570108955701080000000001
:1000200000000000000000000000000095570108DB
:10003000955701080000000095570108C7080108FE
:1000400095570108955701089557010895570108DC
:100050009557010895570108C1D30008CBD3000874
:10006000C9D30008C7D30008C5D30008BD4C000899
:10007000AD4C00089D4C00088D4C00087D4C0008DC
:10008000694C0008574C000895570108955701081E
:10009000955701089557010895570108C3D30008E3
:1000A00095570108FDC4000895570108EDC40008E4
:1000B000DDC40008CDC40008BDC40008A34F00087B
:1000C000A94F0008994F00089F4F00089557010855
:1000D00095570108D94B0008CF4B000895570108E8
:1000E000BFD300089557010895570108000000008C
:1000F0000000000000000000000000000000000000
:0C01000000000000000000005FF808F1A3
:100110002DE9F04FB0F908300546D8B2522885B025
:100120000C4617460B8100F02E8700F22D813428F3
:1001300000F0038500F2B680242800F07D8573D896
:10014000042800F0F68249D8022800F0D78200F295
:10015000E182012800F0C382F52895E8480041F0CB
:1001600073809E420FBFFF23591C296013F8021BA6
:10017000AE4A16BF2B6082F8313082F8311092F807
:100180003130FF2B4FF0000341F05880A84A184649
:100190009046995801B108801433F02BF9D100260C
:1001A0004FF01409A34BA44D31463022A3481E70D2
:1001B0002E701AF0CCF88DF80F60A04E9DF80F301D
:1001C0000B2B41F2148023682A78591C21601A7085
:1001D000002F00F09D829A4B3B6099E20A2800F0C4
:1001E000E782222800F084840528B5D10023954DAC
:1001F0002268595D0133501C0B2B20601170F7D120
:100200000023914D2268595D0133501C082B20605A
:100210001170F7D10023194622680133501C072BB7
:1002200020601170F8D173E22C2800F04A8518D8AC
:10023000282800F027852A2800F03B8526288BD126
:10024000824D2046B5F8E41113F0C0FAB5F8E81174
:10025000204613F0BBFAB5F8EC11204613F0B6FABD
:1002600056E2302800F0F085322800F0AD852E28C7
:100270007FF472AF754D05F14006B5F8EC132046DA
:1002800013F0A4FA236895F8EE23591C21601A7024
:10029000236895F8EF230435591CAE4221601A708B
:1002A000EBD135E2442800F09B8735D83B2800F09D
:1002B00015841AD8382800F0C5843A2800F09B83AA
:1002C00036287FF449AF614D614F05F120060023C8
:1002D00095F9DA22D957914201F0F6850C33302B8B
:1002E000F8D10835AE42F2D112E2402800F0748510
:1002F000422800F07E853D287FF42EAF534B2268C4
:1003000093F8B212501C2060117093F8B122236848
:10031000591C21601A70FBE14B2800F021850ED892
:10032000462800F0E585C0F0358649287FF414AFF3
:10033000484B2046B3F8481013F048FAE8E14F283C
:1003400000F00A86502800F0EE854D287FF404AFB7
:100350000026414D414F3B7802359E4280F2D881C4
:10036000236815F8022C591C21601A7015F8011C1D
:10037000204601EB810101EB810101F2EE2189B2FE
:1003800013F024FA0136E6E7702800F08D8300F2BE
:10039000AA80662800F058822ED85E2800F0C68613
:1003A0000ED85A2800F04B865C2800F08D86542821
:1003B0007FF4D2AE0B685A1C0A6000221A70A7E1C3
:1003C000642800F0DF8100F2038260287FF4C4AE6D
:1003D0001E4B226893F81912501C2060117022687D
:1003E00093F82412501C2060117093F80F22236898
:1003F000591C21601A708BE16C2800F0DE8231D824
:10040000682800F0C782C0F04D8269287FF4A4AE4E
:100410000025124E124F33789D4280F2798137F8D1
:100420001510204613F0D2F90135F4E7E405002059
:1004300080310020F6390020F3390020D814002044
:100440005D16010892C501089EC50108801C0020A8
:1004500098220020CC220020FC1E002050140020F6
:100460001C1500206E2800F0CB8240F2B982B94DF5
:100470002B681A780B68591C21601A702B689A78BF
:100480002368591C21601A7000232A681A44517984
:1004900022680133501C032B20601170F5D12B68AA
:1004A00020461A7A2368591C21601A702B68DA7862
:1004B0002368591C21601A702B681A792368591C0B
:1004C00021601A702B68598913F080F92B685A7AC9
:1004D0002368591C21601A702B685A782368591CAC
:1004E00021601A7014E17D2800F07A8500F28A807C
:1004F000752800F0EB8060D8732800F0798300F253
:10050000478372287FF428AE934D2046B5F86A12CF
:1005100013F05CF9B5F8CC10204613F057F9B5F894
:10052000CE10204613F052F9B5F8D010204613F043
:100530004DF9B5F8B812204613F048F92268531C5B
:100540002360002313702268511C216013702268FD
:10055000511C21601370226895F84512501C2060D0
:100560001170226895F86712501C20601170226883
:100570002046511C216013700A23B5F90C1291FB1F
:10058000F3F189B213F022F9236895F83822591C47
:1005900021601A70236895F83C22591C21601A705A
:1005A000236895F83B22591C21601A70236895F83E
:1005B0003D22591C21601A70AAE0782800F0808141
:1005C0007C2800F0FB8477287FF4C6AD00214FF033
:1005D0000C0C624D624805F1120700F1300E95F8DF
:1005E0003030994280F294800022CE5D0CFB02F301
:1005F00013F80E80B04501F05E8401321F2AF5D158
:100600000131ECE7A02800F007834AD87F2800F0EA
:100610002784C0F0FF8496287FF49EAD514B20467E
:10062000B3F8581013F0D2F84F4B2046198889B20E
:1006300013F0CCF84D4B20461968C1F3C003C1F349
:1006400080029B0043EA4203C1F340021343C1F31B
:10065000401243EAC20301F01001194313F0B6F847
:1006600013F098FF0146204613F09CF83A4B2046C1
:1006700093F840252368591C21601A703C4B198857
:100680006429A8BF642113F0A1F823685A1C2260D2
:1006900002221A70374B1A782368591C21601A708D
:1006A00036E0F12800F04581FE2800F0AA82F0280B
:1006B0007FF452AD284D2046B5F8221213F086F88B
:1006C000B5F82012204613F081F821E02A4A12F8EA
:1006D000013FEBB12168481C20600B70F7E70B6805
:1006E0005A1C0A6000221A700B685A1C0A601870A3
:1006F0000B685A1C0A601F221A70F4E100231F4D78
:100700002268595D0133501C042B20601170F7D111
:100710000120E8E10B6801205A1C0A6003221A70CC
:100720000B685A1C0A6018700B681A180A600622B7
:10073000E2E70023124D2268595D0133501C042B5F
:1007400020601170F7D1054B2046197813F03EF860
:10075000DEE700BF84130020801C0020E405002099
:10076000A8A401083000002074420020302300209B
:10077000642400205C310020A7A4010888C501087A
:100780008DC501080B6820465A1C0A60E7221A70C2
:10079000B24B93F8B3220B68591C21601A7023687E
:1007A00004215A1C226000221A7012F0FBFFAFE7EE
:1007B000AB4813F0B3FF0023A8499842A8DD5A18AC
:1007C00092F8F85522680133561C26601570F4E73C
:1007D000A44B2046B3F8581012F0F8FFA24B204665
:1007E000198889B212F0F2FFA04B20461968C1F3B4
:1007F000C003C1F380029B0043EA4203C1F34002FD
:100800001343C1F3401243EAC20301F0100119433C
:1008100012F0DCFF13F0BEFE0146204612F0C2FFCC
:100820008E4B204693F840252368591C21601A708E
:100830008F4B19886429A8BF642112F0C7FF0021DB
:10084000204612F0C3FF63E78A4E00253289B2F5D5
:10085000007F94BF012704277319196B204691FB71
:10086000F7F1043589B212F0B1FF0C2DF4D1002557
:10087000814EAB19B169D86C14F0BCFD17F09CFA2D
:10088000043581B2204612F0A1FF0C2DF1D10025D4
:100890007A4EAB1999892046043512F097FF0C2D3A
:1008A000F7D135E7764B0A6803F1100153F8040BD2
:1008B0008B4242F8040BF9D123681033236027E7F9
:1008C000664D00262F464FF00E08B5F872112046EF
:1008D00012F07CFFB5F87411204612F077FFB5F8DE
:1008E0007611204612F072FF236895F87821591C82
:1008F00021601A70236895F87921591C21601A70BB
:10090000236895F87A21591C21601A70236895F89C
:100910007B21591C21601A7008FB06732046D3F80E
:100920007C11013612F03EFF082E05F10E05CCD1E8
:10093000EEE64A4B03F17001226893F80201551C60
:1009400025601070226893F80301551C2560107013
:10095000226893F80401551C25601070226893F8F2
:100960000501551C25601070226893F80601551C7E
:1009700025601070226893F80701551C25601070DF
:10098000226893F808010733551C994225601070BE
:10099000D2D1BDE6002514263A4FDFF8088106FBC8
:1009A0000573197B31B92046013512F00FFF082D70
:1009B000F5D1ADE638F81510F5E7334D2046298816
:1009C00012F004FF6988204612F000FF0A23B5F9EF
:1009D0000410204691FBF3F189B212F0F7FE97E67E
:1009E0002A4B2046196812F0DDFE294B2046198853
:1009F00012F0ECFE8CE60021204612F0D3FE87E6D2
:100A0000244B0A681B88511CFF2BA8BFFF232160C1
:100A10001370214B2046196881F3100189B212F03E
:100A2000D5FE1E4B2046198812F0D0FE0B4B93F8D2
:100A300045221B4B4AB10A211B682046594381F3CA
:100A4000100189B212F0C2FE62E61968204601F375
:100A50000F0189B212F0BAFE5AE600BF801C0020D6
:100A60007822002030000020744200203023002033
:100A70006424002034230020CC2200207423002092
:100A8000E605002080310020061C0020884300205D
:100A900098110020AC2A0020A82A002096130020DC
:100AA000AC110020A01B00200022BF490B68985CFD
:100AB00023685D1C256018700B681344987A2368BE
:100AC0005D1C256018700B681344187D2368013283
:100AD0005D1C0A2A25601870E8D119E601200B6810
:100AE0005A1C0A601870608140B205B0BDE8F08FF2
:100AF0000C27AE4AAE4E02F1500192F84135043255
:100B000007FB036393F8380023685D1C25601870A9
:100B1000236892F83E055D1C25601870236892F8E2
:100B20003F055D1C25601870236892F840055D1C28
:100B3000914225601870E0D1EAE59C4B03F15A011F
:100B4000226893F89605551C25601070226893F86A
:100B50009105551C25601070226893F89205551C6C
:100B600025601070226893F89305551C256010705D
:100B7000226893F89405551C25601070226893F83C
:100B800095050633551C994225601070D8D1BFE5F4
:100B900001264FF00C0B874FDFF8148207F1120982
:100BA00008F1300A002597F830309D4204DB002E12
:100BB0003FF4AEAD0026F5E7002215F809100BFB57
:100BC00002F313F80A00884201F0688101321F2AFB
:100BD000F5D10135E7E7216813F801EB01F1010CCC
:100BE000C4F800C081F800E0991A8842F3DCF0E70D
:100BF00001232268511C216013700133092BF8D1A5
:100C000086E500256C4E36F815102046013512F0A9
:100C1000DDFD042DF7D17BE5684B2046196812F005
:100C2000C1FD674B2046196812F0BCFD654B20469C
:100C3000196812F0B7FD6BE55C4B2046996812F01D
:100C4000B1FD65E5594B226893F83812501C2060BD
:100C50001170226893F83C12501C206011702268B9
:100C600093F83B12501C20601170226893F83D12DB
:100C7000501C2060117093F83F222368591C21609A
:100C80001A7045E5494D2046B5F8401212F09EFD18
:100C9000B5F84212204612F099FD236895F84422D7
:100CA000591C21601A70B5F84612204612F08EFDCC
:100CB0002EE53E4B93F8B3220B68591C21601A7045
:100CC00026E53A4D0B6895F85C22591C21601A7094
:100CD000B5F86E12204612F079FDB5F86A1220467A
:100CE00012F074FDB5F86C12204612F06FFD236807
:100CF00095F86522591C21601A70B5F878122046C3
:100D000012F064FDB5F87A12204612F05FFD2368F8
:100D100095F87022591C21601A70236895F8722288
:100D2000591C21601A70B5F87612204612F04EFD5B
:100D3000236895F85F22591C21601A70D5F860125B
:100D4000204612F02FFD236895F86422591C21607B
:100D50001A70236895F87322591C21601A70D7E421
:100D6000124D0B6895F8B622591C21601A70236841
:100D700095F8B722591C21601A70B5F8B8122046B0
:100D800012F024FD236895F8BA22591C21601A70CC
:100D9000B5F8BC12204612F019FD236895F8BE2262
:100DA000591C21601A70B3E4B0320020801C00206E
:100DB000A8A40108E4050020FE330020E8F7FF1F87
:100DC000ECF7FF1FF0F7FF1FBB4B93F867220B6890
:100DD000591C21601A709BE40023B74D5A1992F8F0
:100DE000541222680133501C082B20601170F5D179
:100DF0008EE4B14D0B6895F8B322591C21601A702E
:100E0000A968204612F0CEFC236895F85C22591C94
:100E100021601A70B5F8E411204612F0D7FCB5F83D
:100E2000E811204612F0D2FCB5F8EC11204612F081
:100E3000CDFCB5F84012204612F0C8FCB5F84212BD
:100E4000204612F0C3FC63E400259B4EAB19D3F897
:100E50002C132046043512F0A5FCC02DF6D157E422
:100E6000954D002306272846002107FB03F622683C
:100E700002F1010EC4F800E01370226802F1010EC5
:100E8000C4F800E011708A192A4492F82CE4226810
:100E9000013102F1010C0629C4F800C082F800E01B
:100EA000E5D10133062BDFD1002221684D1C2560DE
:100EB0000B7021684D1C25600A70811891F8505400
:100EC000216801324E1C0B2A26600D70EDD123687B
:100ED0005A1C226007221A7023685A1C22600022C2
:100EE0001A70236890F85C24591C21601A700FE472
:100EF0000FF03CF900280CBF0222032223686F4D3B
:100F0000591C21601A702988204612F04BFCE968B0
:100F1000204612F047FC0FF009F90146204612F076
:100F200041FCFFF7F5BB01200B685A1C0A601870E2
:100F3000614B226893F8ED15151825601170226831
:100F400093F8EB1515182560117093F8EC252368BC
:100F500019182160FFF7D0BB00250B6820465A1CEA
:100F60000A601D700B685A1C0A601D700B685A1CC1
:100F70000A6029461D7012F015FC2946204612F021
:100F800011FCFFF7C5BB0B685A1C0A6000221A70DF
:100F9000FFF7BEBB00234A4D2268595D0133501C48
:100FA0000B2B20601170F7D12046002112F0FAFBC4
:100FB0000021204612F0F6FBFFF7AABB3E4D20466B
:100FC000B5F8E81012F002FCB5F8EA10204612F06D
:100FD000FDFBB5F8EC10204612F0F8FBFFF798BBCC
:100FE000354B226893F84C12501C20601170226817
:100FF00093F84D12501C20601170226893F84E1225
:10100000501C20601170B3F8EE10204612F0DEFB89
:10101000FFF77EBB284B226893F8FC11501C206020
:101020001170226893F81812501C2060117093F808
:101030000E222368591C21601A70FFF769BB1E4DF0
:101040000B6895F8FF2162B35A1C0A6008221A70D7
:101050000B685A1C0A6001221A70236895F8D52083
:10106000591C21601A70236895F8D420591C2160FE
:101070001A70B5F8D210204612F0A8FB1149D5F825
:10108000D80014F003F916F097FE81B2204612F052
:101090009DFB236895F80322591C21601A70FFF705
:1010A00037BB95F8FE21591C21601A70236895F80A
:1010B000F821591C2160CFE7801C0020100300207C
:1010C00092C501080000C8429E4E0B6896F80122A6
:1010D0009D4D591C21601A702B682046198C12F006
:1010E00075FB2B682046598C12F070FBB6F8041281
:1010F000204612F06BFBB6F80612204612F066FB93
:101100002B682046998C12F061FB2B682046D98C05
:1011100012F05CFBB6F80812204612F057FBB6F846
:101120000A12204612F052FBFFF7F2BA864D002158
:10113000204612F04BFB0021204612F047FB2B68A3
:101140002046598D12F042FB23685A1C226000226F
:101150001A702B6893F831102368581C206019709E
:101160002B6893F83C102368581C206019702B687A
:1011700093F83D102368581C206019702368591C8F
:1011800021601A702368591C21601A702368591C49
:1011900021601A702B686D49586C14F077F816F0BE
:1011A0000BFE81B2204612F011FB2B686749186CC8
:1011B00014F06CF816F000FE81B2204612F006FB27
:1011C0002B6893F833202368591C21601A702B6810
:1011D00093F834202368591C21601A70FFF798BADD
:1011E000002A3FF495AA5A4B1360FFF791BA9DF875
:1011F0000F3009FB03831B7BC3B19DF80F3009FB44
:1012000003831B6993B19DF80F304A2109FB0383C7
:1012100018692B7846F823000CF03CF82B7856F828
:1012200023000CF0A0F82B7801332B709DF80F30C1
:101230000133DBB28DF80F30FEF7C0BF2268511CBE
:1012400021601370FFF764BA4728A6EB030648D164
:10125000284612F081FA052E07463FD9284612F09B
:1012600091FA0026054694E80C009B1A103B394A77
:10127000AB42A846B8BF9DB2D3683946DB1B9D423E
:10128000204688BF9DB2914612F08CFA3EB929469D
:10129000204612F09BFA23685A1C22601E70D9F86F
:1012A0000C307A199A42D4F800A088BFDD1B0FF0E9
:1012B00033F82A46514638460FF06CF82368034449
:1012C0002360002E3FF424AA002280457FF720AA45
:1012D00023680130591C21601A70F6E70126802529
:1012E000C1E75B2800F0EB8300F21981352800F09C
:1012F000A68200F2A280292800F0A9842CD82328F5
:1013000000F0818206D80B2800F0B1854FF0FF3045
:10131000FFF7E9BB252800F08F842728F6D128465F
:1013200012F030FA074EC6F8E401284612F02AFA05
:10133000C6F8E801284612F025FAC6F8EC01FFF7D6
:10134000E7B900BF801C0020B0320020000020411F
:1013500055450108100300202F2800F05A855ED85B
:101360002B2800F08C842D28D0D15A1C2A601B78A1
:10137000D04F284687F85C3212F004FAA7F86E02C4
:10138000284612F0FFF9A7F86A02284612F0FAF987
:101390002B68A7F86C025A1C2A601B78082E87F865
:1013A00065327FF6B5A9284612F0ECF9A7F8780265
:1013B000284612F0E7F90C2EA7F87A027FF6A8A9C2
:1013C0002B6828465A1C2A601A4612F8021B87F816
:1013D00070122A605B7887F8723212F0D3F9102EFF
:1013E000A7F876027FF694A92B6828465A1C2A6033
:1013F0001B7887F85F3212F0AFF92B68C7F86002EC
:101400005A1C2A601A78162E87F864227FF680A963
:101410009A1C2A605B7887F87332FFF779B9312814
:1014200000F0108533287FF471AF5A1C2A601A78B7
:10143000A04B83F86722FFF76BB9432800F0828442
:101440003FD83C283FF464A927D8372800F0A98466
:1014500039287FF45BAF19465A1C2A6011F8020B39
:10146000944A042E82F838022960597882F83C1296
:1014700003F103012960997882F83B1203F104011A
:101480002960D97882F83D127FF642A9591D29605A
:101490001B7982F83F32FFF73BB93E2800F08A8182
:1014A00041287FF433AF002382482A68511C296009
:1014B00011781A180133082B82F85412F5D1FFF76E
:1014C00027B94C2800F0E3830AD8482800F0A98304
:1014D0004A287FF41BAF284612F054F9FFF718B9D9
:1014E0004E2800F0F88351287FF410AF724A92F82A
:1014F0003220012A3FF60CA919465A1C2A6011F81D
:10150000020B6C4A82F8ED052960597882F8EB15D8
:10151000D91C29609B7882F8EC35FFF7F9B8D228FE
:1015200000F01A817ED8CA2800F0528152D85F2874
:1015300000F0FF8247D85D287FF4E8AE5A1C2A608D
:101540001B785E4FDFF86C812846D7F8009088F84A
:10155000013212F017F9A9F820002846D7F80090B8
:1015600012F010F9052EA9F8220023D9284612F00E
:1015700009F9A8F80402284612F004F9A8F80602AE
:101580002846D7F8009012F0FDF8A9F82400284664
:10159000D7F8009012F0F6F80D2EA9F8260009D918
:1015A000284612F0EFF8A8F80802284612F0EAF8E8
:1015B000A8F80A020AF072FB09F0D4F8386806F0BD
:1015C00093FCFFF7A5B8612800F00C83C8283FF40E
:1015D0009FA89BE6CE2800F0188310D8CC2800F0F6
:1015E0005B81CD287FF492AE354B1B7859073FF5D0
:1015F0008FA84FF4C872334B1A80FFF789B8CF28F1
:1016000000F09381D0287FF481AE2D4B1B785807D2
:101610003FF57EA80AF032FF0CF0A4F80BF0EAFECA
:10162000FFF776B8DB2800F031826BD8D62800F0BF
:10163000CE8149D8D32800F0A980D4287FF466AEA3
:101640000F2E7FF463AE5A1C2A601E78072E3FF6D9
:101650005DAE284612F096F80E22164B02FB0636B7
:10166000A6F87201284612F08DF8A6F874012846F3
:1016700012F088F82B68A6F876015A1C2A601A46E0
:1016800012F8021B284686F878112A605A7886F8E4
:101690007921DA1C2A609A7886F87A211A1D2A6044
:1016A000DB7886F87B3112F057F8C6F87C01FFF73B
:1016B0002FB800BF801C0020E4050020B0320020BD
:1016C000041C00203C110020D92800F0CD81DA282C
:1016D0007FF41CAE5A1C2A601A46C34E12F8021B35
:1016E000284686F84C122A605A7886F84D22DA1C71
:1016F0002A609B7886F84E3212F044F8A6F8EE0085
:10170000FFF706B8EF2848D015D8DC2800F0C481D0
:10171000DD287FF4FBAD5A1C2A601A4612F8020B32
:101720002A60DA1C59782A609A7808F0D3FB0028DE
:101730007EF4EEAFEAE5F22800F06481FA287FF447
:10174000E5ADAA4B1B785B073FF5E0AD0CF00AF85E
:101750000BF050FEFEF7DCBF5A1C2A601878060614
:101760000BD4A24B1B785D073EF5D2AF022828BFF1
:1017700000200AF075FAFEF7CBBF00F07F000328C7
:1017800028BF00200AF04EFAFEF7C2BF284611F02B
:10179000F9FF974B1880FEF7BBBF284611F0F2FF08
:1017A000914EA6F82202284611F0ECFFA6F820027E
:1017B000FEF7AEBF5A1C2A601A468B4912F8020B7C
:1017C00081F8B2022A605B7881F8B132FEF7A0BFDF
:1017D000884B1868431E00F109062A68511C2960CD
:1017E000114611F8027B03F8017F29605178B3425A
:1017F000997202F10301296092781A75EDD106F011
:10180000DDFAFEF785BF5A1C2A601A78132A3FF6C4
:101810007DAD00204FF00C0C991C296076495F7853
:1018200001F1300E0CFB00F60EEB060898F808806C
:10183000B84500F06C8301301F28F3D166E55A1CCF
:101840002A6019780E293FF661AD9A1C2A605A78F1
:10185000032A3FF65BAD0626634806FB010181F8CB
:101860009625DA1C2A609A7881F891251A1D2A603B
:10187000DA7881F892255A1D2A601A7981F8932521
:101880009A192A605A7981F89425DA1D2A609B7981
:1018900081F89535FEF73CBF092E7FF637AD5748E6
:1018A0005A1C07682A601A4612F8021B80463970D3
:1018B0002A605B78791DBB700023022B14BF4FF0A8
:1018C000640E4FF0FF0E28680133421C2A60027834
:1018D0007245A8BF7246032B01F8012BEDD1831C82
:1018E0002B604378642B28BF64233B72C31C2B609E
:1018F0008378FB70031D2B60C37828463B7111F081
:1019000041FF0A2E78810CD02B68D8F80020591C92
:10191000296019780B2E51721FBF991C29605B78C2
:10192000537012F0C9FEFEF7F3BE284611F02AFFED
:101930002D4EA6F86A02284611F024FFA6F8CC0026
:10194000284611F01FFFA6F8CE00284611F01AFF16
:10195000A6F8D000284611F015FFA6F8B8022846D0
:1019600011F01BFF284611F018FF284611F015FF53
:101970002B6828465A1C2A601A4612F8021B86F861
:1019800045122A605B7886F8673211F006FF284618
:1019900011F0F8FE2B6800EB80005A1C4000A6F8FE
:1019A0000C022A601A4612F8021B86F838122A60C6
:1019B0005A7886F83C22DA1C2A609A7886F83B220C
:1019C0001A1D2A60DB7886F83D32FEF7A1BE00269C
:1019D0000B4F284611F0D6FE27F816000136082EC8
:1019E000F7D1FEF795BE00BF801C0020041C00202C
:1019F0007C110020B0320020A8A40108841300202C
:101A00005E3100205A1C2A601A780F2A3FF67EACFD
:101A1000991C2960C2485978C2EBC202024482F87C
:101A20000211D91C2960997882F80311191D2960C7
:101A3000D97882F80411591D2960197982F80511A5
:101A4000991D2960597982F80611D91D2960997963
:101A500082F8071103F108012960DB7982F8083167
:101A600006F06AF9FEF754BE284611F08BFEAC4E24
:101A7000A6F8E800284611F085FEA6F8EA002846F8
:101A800011F080FEA6F8EC00FEF742BEA54B1868E8
:101A90000AF0AEF9FEF73CBE19465A1C2A6011F84E
:101AA000020B9F4A82F8FC012960597882F81812CB
:101AB000D91C29609B7882F80E32FEF729BE5A1C89
:101AC0002A601A46964F12F8021B284687F8FE1124
:101AD0002A605A7887F8F821DA1C2A609A7887F801
:101AE000D5201A1D2A60DB78042BA8BF042387F8B1
:101AF000D43011F047FE072EA7F8D20009D92846A6
:101B000011F040FE13F06EFB874913F0BFFBC7F8DE
:101B1000D8002B686A689A4207D05A1C2A601B7842
:101B2000003318BF012387F803320AF0B7F8FEF735
:101B3000EFBD284611F026FE7A4F284611F022FE0E
:101B40002846D7F8008011F01DFEA8F82A00284684
:101B500011F023FE2B683A68591C2960194611F8C8
:101B6000020B82F8310029605978284682F83C102F
:101B7000D91C29609B7882F83D3011F00EFE284672
:101B800011F00BFE284611F008FE2846D7F8008019
:101B900011F0F8FD13F026FB644913F077FBC8F849
:101BA00044002846D7F8008011F0ECFD13F01AFB32
:101BB0005E4913F06BFB112EC8F840003B460CD970
:101BC0002A683868511C2960114611F8026B80F8A8
:101BD00033602960527880F83420186806F0EEF8F7
:101BE000FEF796BD19465A1C2A6011F8020B4C4AA2
:101BF00082F819022960597882F82412D91C2960C8
:101C00009B7882F80F32FEF783BD494B1B785A0749
:101C10003EF57EAD474A137843F004031370FEF798
:101C200077BD0EF0E5FB0023434A1370434A13705F
:101C3000434A1360FEF76CBD0023394E2846B3605B
:101C400011F08AFDB3681843B060FEF761BD284605
:101C500011F098FD324EA6F84002284611F092FD90
:101C60002B68A6F842025A1C2A601B78284686F880
:101C7000443211F087FDA6F84602FEF749BD5A1C12
:101C80002A601A78264B83F8B322FEF741BD5A1C0E
:101C90002A601A46224E12F8021B284686F8B6120F
:101CA0002A605B7886F8B73211F06CFD2B68A6F8D5
:101CB000B8025A1C2A601B78284686F8BA3211F0FE
:101CC00061FD2B68A6F8BC025A1C2A601B7886F8B6
:101CD000BE32FEF71DBD5A1C2A601E78112E3FF63B
:101CE00015AB9A1C2A605A7806F59E730C4E28464E
:101CF00006EB4306327111F045FD40F6CA039842E7
:101D0000A8BF184640F2EE239842B8BF18461923E0
:101D1000A0F2EE2090FBF3F07071FEF7F9BC00BF6B
:101D2000801C0020B03200200AD7233CCDCCCC3D13
:101D3000041C0020101C0020A8320020A932002022
:101D4000AC3200205A1C2A60824E1B78284686F846
:101D5000B3320023B36011F0FFFCB36818432B6863
:101D6000B0605A1C2A601B78284686F85C3211F055
:101D700009FDC6F8E401284611F004FDC6F8E801A3
:101D8000284611F0FFFCC6F8EC01284611F0FAFCD9
:101D9000A6F84002284611F0F5FCA6F84202FEF72C
:101DA000B7BC0722B6FBF2F2C2EBC203F61A7FF40D
:101DB000ADAA5FFA82F8F3B298453EF4A9AC2A685E
:101DC0000136531C2B6092F90070384605F0A8FECE
:101DD000814600283FF49AAA8770284611F0D2FC69
:101DE0002A68A9F800001146531C2B6011F8023B29
:101DF00089F803302960537889F80430D31C2B60AC
:101E0000937889F80630131D2B60D37889F8053054
:101E1000D1E7504E06F14007284611F0B3FC2B687D
:101E2000A6F8EC035A1C2A601A4612F8021B043664
:101E300086F8EA132A605B7886F8EB33B742EBD179
:101E4000FEF766BC5A1C2A601F782F2F3FF65EAA49
:101E5000052E7FF45BAA284611F07EFC3D4B03EB78
:101E60008703C3F82C030FF01DFFFEF751BC0021C0
:101E70001122394818F06BFA102E4FF0000328BFDA
:101E800010263449B342BEF443AC2A68501C286083
:101E900010785A1882F8F8050133F3E743445A6B77
:101EA0001046019212F03AFC002E7EF492AE019A96
:101EB0001346FEF799BE034493F8382023685E1C4E
:101EC00026601A70FEF79CBB23682046591C2160CF
:101ED0001A70B5F8D81211F079FC236895F8DB2256
:101EE000591C21601A70236895F8DC22591C216066
:101EF0001A70236895F8DE22591C21601A70236835
:101F000095F8DD22591C21601A70FEF7EAB902F536
:101F1000A87031440F4A91F8301002EB80025170E2
:101F2000D91C2960997800209170191D2960D978F1
:101F3000D170591D29601B791371084B1A68084B21
:101F40001A6006F038FE074B80F001001870FEF7AB
:101F5000DFBB00BF801C002078220020B0320020B0
:101F600078110020080000202DE9F04FB34BA5B0F8
:101F70001B780690012B07D1B149B24A0968496A1A
:101F80001180B14909885180B04C22780592002A0D
:101F900000F00685072B02D10EF03CFC0890AC4BFC
:101FA0001B685E0504D5AB4883680BB1AA49984706
:101FB000AA4BAB4E1F6817F0080F35D0A94AAA48A4
:101FC000918801F10E039BB21C2BA84BB3F904308E
:101FD00000F23182A64D2D886D0740F12C820A2532
:101FE00093FBF5F300881B1A9BB218B210F1B30FE4
:101FF000BCBF03F5B47318B2B328C4BFA0F5B47363
:1020000018B29C4B1B781D070ED596F950325B42D7
:10201000434399481BB20068007A43436FF01D00A8
:1020200093FBF0F319449180944BB3F90650944B11
:102030001B685A89954280F203824FF07E53636099
:10204000002240F2E63A96F95042B6F86A0264423B
:1020500096F84D8296F84CC2DFF820928149A4B2DE
:1020600039F912604FEA420E331A03F2F31BD345DB
:1020700002F22C81002BB8BF5B42022A02F02B81B6
:10208000634540F3F081A3EB0C03864221F80E3048
:10209000C2F22B810132032AE2D16D4B1E6816F485
:1020A000805600F0E281B5F5FA6F2A46A8BF4FF4DA
:1020B000FA62B2F57A7FB8BF4FF47A72A2F57A72FB
:1020C0004FF0640C92FBFCF36E4C03F1010834F901
:1020D00013E034F918406FF0630808FB0323A4EB06
:1020E0000E04634393FBFCFCE6441FFA8EFEA1F84A
:1020F00006E0C6B1644B1B68DB0014D5634BDB788C
:102100008BB94FF47A73AEF57A7E0FFA8EFE4FEAF2
:102110000E3E9EFBF3FEC0F5FA631BB203FB0EFE00
:1021200000EB2E30C880524BB3F8008018F0400FFF
:1021300045D04E4BB3F904000A2390FBF3F0544B07
:102140001B88C01A00B213F04DF8524913F09EF8E4
:102150005149044612F092FF11F057FC8346204685
:1021600011F053FC3F4C8146B4F9020013F03AF8E9
:102170008246B4F9000013F035F859460A9013F07E
:1021800085F851460790484613F080F8079A0146B3
:10219000104612F071FF13F055FA59462080504650
:1021A00013F074F80A9B82461946484613F06EF8FD
:1021B0000146504612F062FF13F044FA608017F0B7
:1021C000140F224C264F11D018F4027F0ED0294B49
:1021D0002449187810F0100000F05D812F4B4A88D8
:1021E00097F9B5021B6800FB03234B802C4B1B782F
:1021F000ABB1B7F86C32AB4211DB97F8B332012BBD
:1022000001D0192B02D197F8FC2042B90E2B06D031
:10221000082B04D00022134B9A800023A36197F867
:102220003652002D66D018F0030F63D01D4B1E49A7
:10223000D3F82090484613F0D1F937E0FC33002062
:10224000FC2A0020FE33002064240020B80C00206B
:1022500028140020CC220020BA0C002030230020BB
:10226000801C00209C1100207C110020061C0020F6
:10227000E0390020101C0020B03200201C15002086
:1022800084130020C0430020F01700204C150020CC
:102290007E11002035FA8E3CDB0FC93FA44300209D
:1022A00008000020C41B00208FC2753C002840F0AD
:1022B0004A81484615F0F8FDE16912F0E7FF15F094
:1022C0007BFDB0F5617FA8BF4FF4617012F08AFF0B
:1022D000A34912F0DBFF11F098FB8146284612F06B
:1022E00081FF494612F0D2FF15F066FD9D4BDA885A
:1022F0001044D8809C4B97F8719293F800B009F184
:1023000002095FFA89F9BBF1000F48D0974B4FF0F3
:102310007E51D3F8F45044F620639D42A8BF1D4679
:10232000B5F57A7FB8BF4FF47A75914BADB2D3F85B
:1023300000A02584DAF838301846079313F062F9C4
:1023400068B34FF47A72B5FBF2F5642292FBF5F5AF
:10235000142DA8BF1425079B002E00F0F680BAF8B4
:1023600036004008616A7F4A4E1CB2F9062004EB31
:102370004101B5420A85D8BF00216662D8BF6162BB
:10238000616A04EB4101098D521A12B2002AB8BFEA
:1023900052428242D8BF4FF07E53764A136097F87C
:1023A0007032002B40F0D480B8F1000F40F0D5809F
:1023B0000025714BA3F852506B4B1B78002B40F05B
:1023C00035816E4B1878002840F0DD826C4D2B680B
:1023D0001A0340F1D8826B4C2378033B052B19D8A4
:1023E000694B654E93F8ED35002B00F09982012B77
:1023F00000F09B82D6F8882096F88C301344B3F511
:10240000807FA8BF4FF480738342D4BFC6F8883062
:10241000C6F888002378023B092B00F2A582DFE88A
:1024200013F0890296024003A302A30283039603DA
:1024300032064F065F060A2293FBF2F30380F3E5B0
:10244000187AB5F5FA6FBFBFAB1A5843C2F5FA63F5
:1024500090FBF3F0C0F1640012F0C4FE4B4912F09F
:1024600015FF6060ECE500230FE6474BB3F86C32D4
:102470009D420EDBB5F5FA6F2C46A8BF4FF4FA6407
:102480004FF47A72E41A5443C3F5FA63B4FBF3F2DF
:1024900016E61C46F4E7A3683D4A93F803E0B2F958
:1024A00000209B78BEF1000F2FD0A5EB020EBEF1ED
:1024B000000FB8BFCEF1000E9E450EDDDFF8ECE058
:1024C0009542CEF800004FF00100C8BF5B42207378
:1024D000C8889BB20344CB8088E6237B33B12D4B65
:1024E0002073D3F800E02C4BC3F800E02B4B1B68A3
:1024F0001A44B2F5FA6FA8BF4FF4FA62B2F57A7FC8
:10250000B8BF4FF47A72CA8070E6A81A80EAE07CFD
:10251000ACEBE07C9C4509DD022390FBF3F0204B03
:10252000186001231F4823730370DFE7237B002B10
:10253000DCD0184B84F80CE01868174B1860194B66
:1025400083F800E0D2E70020D0E6BAF9360009E7C8
:10255000022B2DD0032B00F0E480134B5B882BE083
:10256000D06D393A9C1100208011002030000020ED
:10257000B032002000000020B80C0020A43200205F
:102580002814002016060020801C00200AD7233CB7
:10259000821100208843002090430020A4430020A3
:1025A00098430020A843002050140020A04300209E
:1025B000238C03F57A739BB2BBF1000F00F0CC8043
:1025C000724A1168724AB3FBF1F11278481C00B2EA
:1025D000092AA4F8500006D16E4D6F4A2E886D88E6
:1025E00016805580D38000236C4DB4F952C0DFF8BB
:1025F000A48105F108074B45C0F29B80684BA3F806
:102600005210674AB2F9520000287FF7D1AE00237A
:102610001D4619465F4FB2F9506002F15C0E54320C
:102620004B45C0F29F8000293FF4C6AE5D4B0026AB
:102630001B78DFF89891002B18BF02255A4BD3F86E
:102640000080534B1B780A9308F105030793AE42B1
:1026500040F3BE80554B93F8730200285DD0544B75
:102660001B689D0059D5534B1B88590655D44C4DBA
:10267000514E95F87C30834212D085F87C0012F0E0
:10268000B1FD4E4912F002FE4D49074612F0F6FC2C
:1026900011F0BBF97060384611F0B7F9C5F8800049
:1026A000D6F8048025694146284612F0EFFDA76957
:1026B000D4F8806081463146384612F0E7FD014685
:1026C000484612F0D9FC3F49814612F087FF08B90D
:1026D000DFF8F0903C49484612F08AFF08B9DFF86D
:1026E000E89041463846C4F8109012F0CFFD3146CC
:1026F0000746284612F0CAFD0146384612F0BEFCD5
:102700003049054612F06AFF00B92E4D2E49284681
:1027100012F06EFF00B92C4DA5610022214B1A70FA
:102720004FE697F87232C3EB431203EB8203DB00F0
:1027300041E735F9132038F913E00CFB02F292FB64
:10274000F0F237F8136027F813E0AEEB06063244D8
:1027500025F8132001334EE7B4F85230013BA4F8BA
:1027600052304EE732F913103EF81350414391FBBB
:10277000F6F1022BA5EB01011D46B8BF022527F893
:102780001310EDB2013305994AE700BF1819002074
:10279000FC3300209C110020FE3300200C0D002093
:1027A000B80C00208011002084130020801C002021
:1027B000F0170020E03900200000002035FA8E3CA0
:1027C000DB0FC93F00C0F94400C0F9C40AD7233C5D
:1027D000022E15BF98F8000098F8010098F802B092
:1027E00098F809B012F0FEFC494612F04FFD4FF088
:1027F0008041074612F006FF60B14FF08041384635
:1028000012F03AFCB44912F041FD0146384612F08C
:1028100035FC074673000593B04B33F9160012F0F0
:10282000E1FCAF4912F032FD20F00043AD4A0593C0
:10283000059B42F826000C32824642F82630BBF156
:10284000000F20D0584612F0CDFC494612F01EFD74
:1028500083465146504612F019FD059912F016FDB7
:10286000594612F013FD59460C904FF07E5012F06D
:1028700003FC0C9A0146104612F000FC014650463B
:1028800012F004FD82469849384612F0FFFC51468A
:1028900012F0FCFC079B074613F8010B079300B3EB
:1028A00012F0A0FC494612F0F1FC059912F0EEFC82
:1028B0008E49824612F0A6FE68BB0021504612F0F7
:1028C00083FE50BB51464FF07E5012F0D5FB0146BF
:1028D0004FF07E5012F08EFD0146384612F0D6FCC5
:1028E00007460A9B0C2B05D1384612F0ABFE804BF5
:1028F000720098527F49384612F070FE00B97D4F41
:102900007D49384612F074FE00B97B4F7B4BB20014
:10291000D75001369BE64946DAE74FF07E51D7E7BC
:10292000D6F884000AF081FA64E50DF00FFCC0F1DE
:102930007F005FE50022724BC3F88820C3F8902027
:10294000704A1268C3F89420032323700CE06D4B87
:102950006B4E1A68D6F894306433934204D2402008
:102960000FF02AFB002874D00FF052FB0646002817
:1029700000F0388401232370614B93F8AD2012B12D
:10298000002283F8AD20604B1B78072B05D10DF09A
:1029900041FF089BC01A564B98800022584B1A7072
:1029A000594C2378072B02D10DF034FF0B90DFF840
:1029B0006C91D9F810504F46002D32D1D9F804301F
:1029C0004846984768B389F82550B9F81C30DFF8B5
:1029D00050811BB2C8F80030B9F81E3099F82610A3
:1029E0001BB2C8F80430B9F8203040461BB2C8F812
:1029F000083007F0B3FF454B1E88454B1B68002E7F
:102A000040F042849B79002B00F0B784EFF31283EF
:102A1000F02282F312883F4ADBB2C9F8102083F318
:102A20001188394D2A78072A05D10DF0F3FE0B9B4A
:102A3000C01A2F4B1880324B93F8FC201C4605928D
:102A4000002A00F07585013A83F8FC2025B0BDE826
:102A5000F08FDFF8D0804027C146D6F8903018F8C4
:102A6000030078B10FF054FCD6F88830013F03F131
:102A7000FF33C6F88830D6F8903003F10103C6F86A
:102A80009030EAD1D6F8903019F80330002B7FF45B
:102A90006BAFC6F890304FF0FF33C6F89430042384
:102AA00053E71D4A5021A2F10C03019329230292FE
:102AB00000934920A2F10A03163A0FF03BFF0028C9
:102AC0007FF452AF4FF0FF320D4BC3F89000C3F8C4
:102AD0009420072339E700BFD7A368419C11002049
:102AE0006F12033B1C0D002000004843A4707D3F83
:102AF000FE33002000C0F94400C0F9C4C80C002017
:102B0000B80C002048150020FC33002004260020CB
:102B1000C822002085AA000802A70108CC220020B4
:102B2000882A00208CA60108052300210093AA4BC7
:102B300002910191A3F1080253200FF0FBFE00283F
:102B40007FF412AFA54BC3F890000823FDE64020A8
:102B50000FF032FA00287FF407AF7023A0489F4E91
:102B600090F84015D6F8907003FB010292F8A82463
:102B7000492F01F29F83DFE817F04A004F005D0004
:102B8000630066006C007000740078007E008200B4
:102B90008E0098009C00A500A900AD00B100BA000D
:102BA000C300CC00D500DE00E700F000F90006010C
:102BB00010011A01240185018F019901A301AD01C2
:102BC000B301BD01C301C901CF01D501DB01E101A1
:102BD000E701ED01F301F901FF0105020B0211020A
:102BE00017021D022102250229022D02310237029D
:102BF0003D0249024D025102550259025D02610235
:102C0000650269026D02710275027F0283027549D5
:102C100075480FF047FB07E0744B754A0093754900
:102C2000754B76480FF03EFBD6F890300133C6F86E
:102C3000903099E6724A734973480FF033FBF3E71B
:102C400072497348E5E790F8EC2590F8EB15714868
:102C5000F3E7B0F8CC107048DBE7B0F8CE106F485F
:102C6000D7E74FF07E516E48D3E7B6F89820B6F814
:102C70009A106C48E1E76C4B6C481989C9E7D6F8A3
:102C80009C30DB0403D590F838126948C1E70C2367
:102C9000C6F89030C8E790F83B3290F83D2290F8A3
:102CA0003C1264480FF0FEFABEE7B6F8A010624886
:102CB000AFE72B681F05B7D5B0F94022B0F9421233
:102CC0005E48BAE75E4B5F48996CA2E790F8FE1148
:102CD0005D489EE790F8F8115C489AE759430C2349
:102CE00003FB0211014491F8AA14594891E7594392
:102CF0000C2303FB0211014491F8AC14554888E7FA
:102D000059430C2303FB0211014491F8AB145248C0
:102D10007FE759430C2303FB0211014491F8B314DC
:102D20004E4876E759430C2303FB0211014491F806
:102D3000AD144B486DE759430C2303FB02110144CA
:102D400091F8AE14474864E759430C2303FB021182
:102D5000014491F8B21444485BE759430C2303FB48
:102D600002110144B1F8B414404852E759430C230E
:102D700003FB0211014491F8B13491F8B0243C48AE
:102D800091F8AF148EE703FB01013A4891F87434CF
:102D900091F86A2491F8601484E703FB0101364836
:102DA00091F8753491F86B2491F861147AE703FB7C
:102DB0000101324891F8763491F86C2491F862144C
:102DC00070E703FB01012E4891F8773491F86D24E8
:102DD00091F8631466E700BFE0A80108B80C002072
:102DE000801C0020B5C60108C1C6010803C7010840
:102DF000D2C60108D8C601086DD90108E3C601088A
:102E00009EC5010892C5010808C701087822002064
:102E10001CC701082AC701083BC701084AC70108A7
:102E200059C7010869C70108342300207BC701087E
:102E300085C7010892C70108ABC70108B6C70108DA
:102E4000CC220020C9C70108D5C70108E8C701087E
:102E5000FDC7010807C8010811C801081EC80108FC
:102E60002BC8010835C8010840C801084DC8010831
:102E70005FC801086EC801087FC8010891C8010831
:102E8000A1C8010803FB0101A54891F8783491F825
:102E90006E2491F8641405E703FB0101A14891F841
:102EA000793491F86F2491F86514FBE603FB010176
:102EB0009D4891F87A3491F8702491F86614F1E6FF
:102EC00003FB0101994891F87B3491F8712491F842
:102ED0006714E7E603FB0101954891F8681498E64A
:102EE00003FB0101934891F87D3491F8732491F824
:102EF0006914D7E603FB01018F4891F87E1488E638
:102F000003FB01018D48B1F8801482E603FB010147
:102F10008B48B1F882147CE603FB01018948B1F8C3
:102F2000841476E603FB01018748B1F8861470E645
:102F300003FB0101854891F888146AE603FB01014F
:102F40008348B1F88A1464E603FB0101814891F8D3
:102F500090145EE603FB01017F4891F8911458E656
:102F600003FB01017D4891F8921452E603FB010135
:102F70007B48B1F896144CE603FB01017948D1F87F
:102F8000981446E603FB0101774891F89C1440E64B
:102F900003FB0101754891F89D143AE603FB01011A
:102FA0007348D1F8A01434E603FB01017148D1F84D
:102FB000A4142EE690F84C126F482AE690F84D12B1
:102FC0006E4826E690F8FF116D4822E690F8001250
:102FD0006C481EE690F801126B481AE6B0F8082219
:102FE000B0F80412694828E6B0F80A22B0F80612D0
:102FF000674822E6B0F8160212F0F4F8654912F0BC
:1030000045F912F01FFB0146634802E690F81912D9
:103010006248FEE590F824126148FAE590F80F1234
:103020006048F6E590F8B0125F48F2E590F870124B
:103030005E48EEE590F872125D48EAE5B0F8761267
:103040005C48E6E590F85C125B48E2E590F8D51044
:103050005A48DEE590F8D4105948DAE5B0F8D210B5
:103060005848D6E54B49D0F8D80012F00FF912F0C5
:10307000E9FA01465448CCE590F8F9115348C8E5FF
:1030800081685348C5E5534B1B68990115D5524ECD
:10309000B6F8A4308BB9D6F8A83018A91893069BB7
:1030A0000E2019930FF07CF94FF48053A6F8A2304C
:1030B0000A23237006980FF0BFF90FF053F953E479
:1030C000454B93F8AC20002AF4D0424A1268920192
:1030D000F0D493F8AD30002BECD109232370ECE74A
:1030E0003E4B3D4E1A68D6F89430C833934211D205
:1030F0003B4B93F8ED755FB9D6F8840004F0B2FC51
:1031000096F8AE30C6F88470022B01D104F05EF957
:1031100001231AE40EF092FF0028E9D124E400BF55
:10312000B1C80108C1C80108D2C80108E3C8010834
:10313000F5C80108E5C80108FFC8010814C901085D
:1031400024C9010832C9010844C901085AC9010843
:1031500075C9010884C901089BC90108B4C90108DF
:10316000C8C90108E2C90108F7C901080DCA010868
:1031700024CA010839CA01084FCA01084BCA01080C
:103180005BCA010867CA010879CA01088CCA01082C
:10319000A0CA01080000C842B8CA0108C6CA01088E
:1031A000D6CA0108E7CA0108F7CA010810CB01080E
:1031B00024CB010841CB01085ECB010873CB010889
:1031C00088CB01089DCB0108AFCB0108C4CB010817
:1031D000D2CB0108F0170020B80C002048150020C1
:1031E000801C0020A94991F8EE35002B3FF4CBABB1
:1031F0002B68DF044FF000034CBFB1F8EC50B1F87E
:10320000D050A34F37F913200133AA420CBF3046E8
:1032100046F001000C2BC6B2F4D19E4D9E4BC6B1B8
:103220001B6803F59C530833C5F8B0302378012B95
:103230007FF4A9AB95F8AD30002B7FF4A4AB91F8E7
:10324000ED35D3B10CF06AFD012385F8AD30FFF701
:103250009ABB1A68D5F8B0309342E7D82378012B8F
:103260003FF491AB95F8AD30002B3FF48CAB0CF0F4
:1032700037FD85F8AD60FFF786BB802005F0FEFCCA
:1032800000287FF480ABDDE75B78D9F8482007930E
:103290004FF47A73B3FBF2F3AB46C3EB431203EB89
:1032A0008203DB009BB2059323787C4C0C937C4B10
:1032B00004F13C09B3F90630CDF820800693059B54
:1032C0005B080E93059B4FEA850A9E4202BF0023CE
:1032D00049F825302361089B53F8250059F825301B
:1032E000034449F8253011F07DFF226902F10108FD
:1032F000B8F1010FC4F8108040F0A1800023606095
:103300002060A360089B012E1A464FF000034AF884
:1033100002304FF00002634B4AF8032040F0E28095
:103320002069012840F3AF80013811F05BFF0146AE
:10333000E06812F05FF814F0FFFF0C9B8046032B4F
:1033400005D114F039FD4FF0010B03B20693079B32
:10335000002B00F0BD80184611F044FF414612F0EA
:1033600033F9002800F0B480BBF1000F03D04C4BC0
:10337000BDF81820DA8007F0E2F9DFF84C914FF041
:10338000000BCA46DFF84481474C464B54F82B00EB
:1033900053F82B304FEA8B05C01A44F82B0011F07C
:1033A00021FF424B996911F071FF99F800300146F5
:1033B000032B06D1059014F0FFFC394B059923F837
:1033C0001B003B4A3B4BA8581B6898479AF80030B3
:1033D0000146082B06D1059014F0EEFC304B059900
:1033E00023F81B00344A354BA8581B689847344AC9
:1033F000344B01461B68A85898470BF1010BBBF1F1
:10340000030F48F8040FC0D1002E3FF40AABBD698A
:10341000F86C294611F0EEFF14F0CEFC294620602E
:10342000386D11F0E7FF14F0C7FC29466060786D35
:1034300011F0E0FF14F0C0FCA060FFF7F2BA2268C0
:10344000109011460F9211F017FE0A90404611F0AD
:10345000C9FE01460A9811F0CDFF0F9A114611F0EE
:103460000DFE109B014680466060184611F004FE78
:103470000A9911F00BFFA16811F000FEC4F800805A
:10348000E060A0603EE7002055E700BF801C002000
:103490005E310020B80C0020481500206C0D002083
:1034A000FE330020942A0020882A0020CC2200200D
:1034B0006826002008260020F82900200C2600207D
:1034C000582A002010260020FC330020142300205E
:1034D0000E9A5AF809301344059A93FBF2F3104AF6
:1034E00042F80A300135032D04F114047FF4EAAEEA
:1034F000BBF1000F03D00B4BBDF81820DA80012E72
:1035000008D10022084B30461B689A621A63DA62BF
:1035100004F060FB054A1388013B13802DE700BFD0
:10352000942A0020FE330020FC2A002004260020DC
:10353000A54B93F80122002A00F03E8193F8F83160
:10354000013BDBB284F8FC302B78072B02D10DF065
:1035500061F90D909D4B4FF07E501B680693636898
:103560000A93D4F800311946089311F085FD984B61
:10357000196811F08BFE4FF07E51079012F02EF873
:1035800010B94FF07E53079300254FF0000B914B7D
:103590000B93914B914F53F8258059464046AC0010
:1035A00057F8256012F006F8D0B9F43757F825908F
:1035B0003046494611F060FD824620F00041404609
:1035C00012F002F858B15946504612F01BF8002884
:1035D00000F0F4804946404611F050FD06463E5149
:1035E0007F4BB3F8009019F0030F3DD0022D3BD074
:1035F000069B93F8340011F0F5FD7A4BE15811F079
:1036000045FE069B804693F833A0CAF1000011F0F6
:10361000E9FD07460146404611F0D6FF40B9504645
:1036200011F0DCFD4146074611F0D8FF00B94746CE
:10363000654B03EB4503B3F920026B4B33F91530AF
:10364000184411F0CFFD694911F020FE01463846BB
:1036500011F012FD19F0010F074600F0EB80644BEA
:10366000196811F013FE06460B9B304653F8049F71
:1036700049460B9311F000FD82465E4B0A98E158D3
:1036800011F004FE514611F001FE022D804606D1D4
:10369000594A5A4B01461B68106898478046584B58
:1036A0004FF07E510898E75811F08EFFB0B1554B9E
:1036B0001968554B186811F0E9FD079911F0E6FDFE
:1036C000524BE15811F0E2FD514611F0DFFD014689
:1036D000384611F0D3FC0746494BE050022D40F02C
:1036E000E3803946404611F0C9FC494EC6F818013E
:1036F000404611F0A7FFC6F82401384611F0A2FF9A
:103700000023C6F83001C6F83C31424B1B7813B990
:10371000414B44F803B00135032D7FF43AAF3F4CE1
:103720002278072A05D10DF075F80D9BC01A3C4B85
:1037300058802378364D012B40F021810DF06AF836
:103740003849D5F84831364A0968C31A93805B1A5C
:103750000990D380C5F848011C4B1C68324B1B688C
:103760000B9313F480530C93304B00F05883304A82
:10377000D5F854111278C988560758BFD5F850218A
:10378000B3F906305CBFD28AA5F84C21D5F8502198
:10379000D68A701A834200F31981B5F85811108B3C
:1037A000B5F89A800791A5F84C31181A11F01AFD56
:1037B000D5F85C3107461BE10123C3E64146484684
:1037C00011F05AFC0AE700BF801C0020B032002034
:1037D000D018002014230020C4180020C80C00209A
:1037E000E03900201C0D0020061C0020CDCCCC3D73
:1037F000B418002088180020841B0020801B0020A3
:103800002011002000000020C01800209418002083
:10381000B80C00202C110020C80D0020FC33002023
:10382000FE33002018190020281400209C110020CD
:10383000041C0020554B5946D3F80080404611F037
:10384000E1FE60B3524BD3F870A0D3F874905146A8
:10385000484611F0CDFE00B9D1464146484611F028
:1038600015FD4FF07E51804611F0CCFEB8B9594697
:10387000404611F0A9FEA0B941464FF07E5011F02C
:10388000FBFB8046434B3846196811F0FFFC41466C
:1038900011F0FCFC0146304611F0F0FBE3E6D8469F
:1038A000F0E74FF07E58EDE73B4B1A68069B93F824
:1038B0003C30632B14D8394B0C92E158384B1868C4
:1038C00011F0E4FC4FF07E51824611F087FE0C9A15
:1038D00008B94FF07E5A1046514611F0D7FC024607
:1038E0001146304611F0D2FC494611F0C5FB2D4E71
:1038F0008246A15911F0C0FB2B4B196811F07AFDDB
:1039000081462A4B44F806A0E1580A9811F0BEFC03
:10391000494611F0BBFC264B06461B780B2B04D105
:1039200011F090FE234B23F81500234A234B314618
:103930001B68A0589847224A224B01461B68A05892
:10394000984781463946404611F098FB494611F0A8
:1039500095FB1D4E3051404611F074FE06F10C0AE5
:103960004AF80400384611F06DFE06F1180848F8D0
:103970000400484611F066FE24363051C5E6072B98
:103980007FF4EAAE0CF046FF0990E5E6BC18002093
:10399000B80C0020B8180020AC180020280D00201A
:1039A000B0180020F80D0020C0180020A01800203A
:1039B000FC330020FE330020D8180020D41800204B
:1039C000201900201C190020C80D002072189342F5
:1039D000C0F21182981BB5F89820A5F84C31401A16
:1039E000079211F0FFFB0746B5F86081D5F8643106
:1039F0000893079BDFF840A3A3EB080011F0F2FB4C
:103A00000023D4F82C900D9009F10045069315AED3
:103A1000B04B069A514653F8220011F037FC294664
:103A2000834611F0D1FD002840F00B8249465846EC
:103A300011F0D4FD00B9CB46069B46F823B0013304
:103A4000032B0693E4D1A44B1B6843B394F83120B5
:103A50002AB30B9A940722D5A04A1478FCB1D878DF
:103A600011F0BCFB0546204611F0BCFB0146284680
:103A700011F00CFC9A4B0446188811F0AFFB01467C
:103A8000204611F0B7FC9749044611F0A7FD00B994
:103A9000944C4FF07E51204611F0AAFD08B94FF02A
:103AA0007E544FF0000A0026D1468F4B8F4D1B7875
:103AB00005F5B8750A93169B0DF1600B0E93159BD7
:103AC0000F93179B109355F8043C11930A9B9E4249
:103AD000C0F2B9815146484611F0CEFA834B4FF0FF
:103AE0007E51C3F80001044611F08CFD002800F05F
:103AF000F98121464FF07E5011F07CFC00240646EF
:103B000018AD0A9BA34200F3E4814FF07C560025D8
:103B1000774BDFF8EC91DB780E93764BB3F800A08F
:103B2000754B0FFA8AFB1C78744B04F00404B3F94C
:103B300006706E4BD3F8502103F5B8730F930B9BAF
:103B4000089203F010030B930A9B9D42C0F0F7818B
:103B50002CB96B4B6B4A0A99A14200F22782634C45
:103B6000D4F83032002B00F05D8394F83532192BF5
:103B700000F2938001229A40634B1340002B00F027
:103B80008C80624B1B88D80540F11682604B1A88E6
:103B9000ADF860205A889B88ADF86220ADF864309B
:103BA0004FF47A724FF461615A48B0F9023003F56C
:103BB000E163534393FBF1F3A3F5FA73ADF8783067
:103BC000B0F9003003F5E1635A4392FBF1F24C4B3C
:103BD000A2F5FA721B88ADF87A20A3F2DC53474AAB
:103BE000ADF86630D4F850311188DB8AC91AADF8C7
:103BF00068105188C91AADF86A109188C91AADF8D1
:103C00006C10D188C91AADF86E101189C91AADF8B7
:103C100070105189C91AADF872109189D289C91AE8
:103C2000D31AADF876300023ADF8741019463A4A2D
:103C300022F813100133082BFAD16427374B384A86
:103C40001B68384C0793384BDFF8CC901B680893FF
:103C5000364B1B78C3EBC30313440B930B9B93426C
:103C600040F0D88100254FF00E0964272E4B304ECE
:103C7000D3F8008009FB0583B6F9024093F90600EA
:103C8000444394FBF7F4E8B2748004F07DF8013506
:103C90002044082D26F8020FECD1264C224D236833
:103CA00013F0200F69D0002004F06EF81A4E07467A
:103CB0003080012004F068F8184B70801B681906EA
:103CC0005BD50A4B1349D3F858321B78012B40F0CF
:103CD000128233E0C80D0020A42A0020A02A002070
:103CE000AC2A0020713DAA3F981B0020B80C002090
:103CF0004C150020A6320020041C00201C150020BA
:103D0000A01B00205E31002032413003E03900204A
:103D10009C110020061C0020E6050020F017002062
:103D20000F180020EE0E0020841800200E1800202E
:103D3000E4050020281400206F12833A2A6892F9C3
:103D4000063092F91420C3F1000EB1F90230B1F936
:103D5000001003FB0EF34FF0320E51436FF03102AF
:103D600093FBFEF391FBF2F291FBFEF19BB21A443E
:103D7000BA1A32800B44184470802B68A24A03F1AF
:103D80007006B2F90200B3F90010B3F9027088426C
:103D900003DB87423946A8BF01460E339E4222F814
:103DA000021FEED1994ED6F85C3293F90430002B05
:103DB00040F0B68196F83532013B182B00F20482B0
:103DC000DFE813F0F60102020202550202020202CB
:103DD00002024A02020202020202020202025C0221
:103DE00002020202020202020202550269020202F9
:103DF00002025C02F601B5F84C31984205DBB5F8D9
:103E00005831B5F89A800793D0E4B5F89830B5F8F2
:103E100060810793D5F8643100270893E9E5B3F989
:103E20000600D5F850311B8BC01A11F0DBF9D5F81C
:103E3000683107460893B5F89830B5F89A8007932B
:103E4000D7E5AB46F8E5119B93F90100404211F02C
:103E5000C9F9109911F01AFAE96811F017FAA9686E
:103E600013900E9811F012FA696812900F9811F0E1
:103E70000DFA129A0146104611F000F9139B014603
:103E8000184611F0FBF84FF07E511290204611F0C9
:103E9000B9FB129BB0B94BF826305BF82630494687
:103EA0001846129311F0AEFB129B38B919465046D2
:103EB00011F094FB08B9129B9A464B460136103517
:103EC000994603E62146184611F0E0F94BF8260022
:103ED000E3E755F82400314611F0D8F945F82400FD
:103EE00001340EE60899384611F084FA4FF07E51FD
:103EF000054611F073FB08B94FF07E5500212846A6
:103F000011F076FB00B900254FF07C51204611F0EE
:103F1000BDF906460146284611F056FB00287FF4FD
:103F2000F6AD31464FF07E5011F0A6F82946064610
:103F300011F054FB00287FF4EAAD2E46E7E50F9A16
:103F40002B019958304611F0A1F918AB53F8251000
:103F500011F094F80D9911F099F913F02DFF0E9AC4
:103F6000404400B26B0029F81500DAB1504504DB7B
:103F7000079A9042A8BF104600E050460B9A29F8D5
:103F800003006AB164B10C9A52B910930DF05AFA59
:103F900030B9089B1A8B9742BCBF109B23F809B01D
:103FA0000135D1E58045E3DD4046E7E732F81410FE
:103FB00023F814100134CEE51549D4F8100111F09E
:103FC00065F911F03FFB1249ADF86000D4F8140117
:103FD00011F05CF911F036FB0D49ADF86200D4F830
:103FE000180111F053F911F02DFB0C9B00B2ADF844
:103FF0006400002B3FF4D4AD089BDB8A9F42BCBF1A
:104000004042ADF86400CBE5E4050020B80C002088
:104010003333333F937933B10121153301FA03F37D
:1040200007990B4065D00E21089B92F800E092F9A9
:1040300004B001FB0E3CBCF90230BCF9001056780C
:104040005B1A9BB203FB0BFB9BFBF7FB92F9051082
:104050004FEA530A0A91D178ABEB0A0B0FFA8BFBAC
:10406000750051BB24A90D4435F8301C2180012076
:10407000DCF80A1000FA06F63142B4F9005092F961
:10408000021018BF4FF0FF30694391FBF7F159451B
:104090000ADB0A9D6B4393FBF7F3A3EB0A0B0FFAC2
:1040A0008BFB8B45A8BF8B4639F81E3000FB0B3BC2
:1040B00029F81EB002340732D0E50DF190084544CE
:1040C000B4F9000035F9305CA84208DA01448842AE
:1040D00003DC8D422846A8BF08462080C7E7C6DD1E
:1040E000411AA94203DB8842A8BF0846054625803D
:1040F000BDE72380DEE72B68B1F9022093F906E0E3
:1041000002FB0EF24FF0320E92FBFEF23A44328086
:1041100093F91420B1F90030534393FBFEF32AE6E0
:104120000023DFF8D881A6F8603206F51977B6F9D2
:104130006092B9F1070F3FF73DAE96F862327BB956
:10414000D6F85C32588811F049F801461C206A4BB9
:1041500000FB09701A680FF05BFD012386F86232DC
:10416000B6F9609238F9190011F03CF801461C20AC
:1041700000FB09700FF06AF913F01EFE0E22B6F96B
:104180006032296828F8190002FB031238F913007D
:10419000B2F90010B2F90220884203DB8242A8BFC4
:1041A0000246114628F813100133A6F86032BEE724
:1041B000D6F85C321B78002B48D0504B5989002030
:1041C00008F0A4FE0123059323689A0603D496F809
:1041D0003532052B0ED1494D0598298808F096FEF9
:1041E000059B6988581CC0B208F090FE059B0233FD
:1041F000DBB205932368DB0214D50024D6F84433E0
:104200003F4E1D78E0B22B18DBB2112B0AD8059A6D
:104210002B19104436F81310C0B2013408F076FEA2
:104220000E2CEFD1374C94F834220AB103F040FF42
:10423000354B1B78072B05D10CF0ECFA099BC01A03
:10424000324BD88001232370FEF700BC304B197825
:1042500011F00401B1D1B2E7284D0020E98808F03F
:1042600055FE2989012008F051FE0223ABE7234DBA
:104270000020298908F04AFE6989F3E702251F4FCB
:10428000A81E37F81510C0B2013508F03FFE082D02
:10429000F6D1062397E7194D069BD81E35F8131063
:1042A000C0B208F033FE069B0133072B0693F3D10F
:1042B000042388E70DF0C2FE00283EF455AB4FF40E
:1042C0008053A6F8A2300A23FEF73FBB022A4FF420
:1042D000FA737DF4D8AE9845ACBF0023A3EB080376
:1042E000634386428B80BDF6D8AE31F80E305B4218
:1042F00021F80E30FDF7CEBE18190020E60500208B
:104300001C150020B80C0020FC330020FE330020D8
:10431000041C002070472DE9F04F00220025634B5C
:10432000634EB3F80AC087B034684FEA0C2A059090
:104330001889B4EB0A0A65EB020BA0FB0A4500FBE7
:104340000B55B3F80480E00940EA45604FEA0844A1
:104350000719D8888E464FEAE511A0FB0A4500FBF5
:104360000B5541EB0208CDE90278B3F80280200A30
:1043700040EA05604FEAC83410EB04084FEA2521F3
:1043800041EB02099A89B446A2FB0A0102FB0B1118
:10439000C20D42EA412212F5FA604FEAE15343F1BD
:1043A0000001B0F5FA6FCDE9000171F100015DDAAD
:1043B000DDE902670524A2FB040104FB031100FBF5
:1043C00003F402FB0144A0FB020121444D104FEA1B
:1043D0003004361B4FEA900467EB050744EA81740A
:1043E0008D104FF0FF313348B8EB040869EB050935
:1043F000DDE90045844275EB0101CDE9026722DA6F
:1044000040F6AC50002112184B4102FB03F1A2FB15
:10441000022303EB4103D900D000101A41EA527184
:1044200063EB0101341847EB0105CDE902450B248C
:10443000A2FB040104FB031149104FEA3000B8EB62
:10444000000869EB01090AFB0BF3DDE90001AAFB97
:104450000AAB0BEB430B4FEADA7242EA4B02801ACB
:104460004FEAEB7361EB0301CDE90001DCF80410C6
:10447000A1FB082301FB0933540D44EAC3245D1555
:10448000DDE90223A21A65EB03031D46D30B059A4F
:1044900043EA454302B11360BEF1000F02D0009B16
:1044A000CEF8003007B0BDE8F08F00BFEE2300204B
:1044B0000410002024FAFFFF4FF4006303817047CB
:1044C0004FF4006303817047C37C13B1012B04D008
:1044D00070474FF48063038170474FF40063FAE73D
:1044E00090F82520034602F0FF0012B1002283F865
:1044F0002520704713B5036B04466A46062190F8E1
:1045000044009847C0B101209DF800209DF801307B
:1045100043EA02231BB2A3839DF802209DF80330D7
:1045200043EA02231BB2E3839DF804209DF8053083
:1045300043EA02231BB2238402B010BD13B54369C2
:1045400004466A4606213B209847A0B19DF800200A
:104550009DF8013043EA022363819DF802209DF813
:10456000033043EA0223A3819DF804209DF805301F
:1045700043EA0223E38102B010BD034601225A74CC
:1045800053F8043C143803B118477047026D70B5F6
:1045900015880446ADB2A90606D5036B23B9C36AD4
:1045A000A3B1908880B298472B0620D5636AA26A8F
:1045B0009A42236D17D0511CA069A162825C9A8037
:1045C0002369994213D30023A36270BDE1699288E5
:1045D00040694E1CD2B2E6614254E169E268914200
:1045E00028BFE361E0E7DA6822F08002DA6070BD9C
:1045F000022310B50168047B0A68A3401A420AD05E
:104600000024054A40681470026822F00102120476
:10461000120C02604B6010BD382400200C23434371
:104620009B4AF0B5D3589B499D8A9B4AADB2ECB2E8
:1046300014F0010F4FEA001044D01C8824F40064E9
:104640002404240C1C801C88A4B244F480641C80C4
:10465000002414720C18A5794DB3557A15B9E47875
:10466000FF2C24D1012454720C182479022C01BF90
:104670001C88A4B244F400641C800C18A47844F094
:1046800001041C820C18247992F908500134A542C7
:104690000CD100245472927A2AB19A8822F4407282
:1046A0001204120C9A80002308444370F0BD0D18C8
:1046B000AC7804F0FE041C82EC78FF2CE2D0FF24DE
:1046C0001472DFE7A70741D5BFF35F8F0C18257978
:1046D000EDB2012D18D1A479B4B1547AA4B11C88DB
:1046E00024F480642404240C1C80BFF35F8F1C8B93
:1046F0001C889572A4B244F400741C809C88A4B2F7
:1047000044F480649C80BDE71C8BBFF35F8F0C1862
:104710002579022D0FD1A4796CB1547A5CB11C8833
:1047200024F480642404240C1C809C8824F4806479
:104730002404240CE6E70C182579032DDED1A47996
:10474000002CDBD0547A002CD8D0EEE766075AD57F
:1047500001240D189472AC79002C3FD0547A002CAF
:104760003CD02C7992F90860022CEF681C8821D982
:1047700024F480642404240C1C80B3F810E0F4B208
:104780005FFA8EFE07F806E01E88B6B246F40076A1
:104790001E80EE68A51C15721D8A013464B2EDB24C
:1047A00035559C88A4B244F480649C801C88E40540
:1047B000FCD467E7A4B244F400741C80B3F810E0A2
:1047C000F4B25FFA8EFE07F806E0EF681D8A661CF9
:1047D00076B2EDB2BD5503341472E7E7547A14B9DA
:1047E0000C1864793CB11C88A4B244F400741C8099
:1047F000147A0134F0E71C88A4B244F480741C805D
:1048000001245472D2E714F0400421D092F908C078
:104810001C8A01EB000EDEF80C70E4B25FFA8CF635
:1048200007F80C40751C6DB29EF80470EC1CA74292
:10483000157205D19C8824F480642404240C9C8087
:104840000C182479A5427FF41DAF0236167219E7C1
:104850002F067FF517AF92F908506E1C0BD00F187A
:10486000BE686C1C755D64B21D823D791472A542F0
:104870007FF408AF59E714720C18E5781D82A5790A
:10488000002D7FF452AF2479002C7FF4FBAE4CE76F
:1048900070C50108444200200410002073B50622B0
:1048A00004466B4603211E200FF06CFA064668B3DF
:1048B0009DF800309DF80100164D40EA032000B23B
:1048C00010F090FC296810F0E1FC10F0BBFE9DF8A0
:1048D000023020809DF8030040EA032000B210F06F
:1048E00081FCA96810F0D2FC10F0ACFE9DF80430F9
:1048F000A0809DF8050040EA032000B210F072FC91
:10490000696810F0C3FC10F09DFE6080304602B074
:1049100070BD00BFE403002007B5032201AB0021F6
:1049200077200FF02FFA9DF805309DF804001B0248
:1049300043EA00439DF80600184303B05DF804FB0A
:1049400008B5FFF7E9FF014B586008BD04100020CF
:1049500008B5FFF7E1FF014B186008BD0410002007
:1049600013460A46014668200FF00CBA012248217E
:1049700077200FF0C3B90122582177200FF0BEB97C
:104980000A46014668200FF0B9B9F8B507460E4649
:104990001546094C206808F0E1FC47F080000FF054
:1049A000C3FA3246002128460FF086FA206808F044
:1049B000DAFC0120F8BD00BF2823002070B50646B0
:1049C0000D46074C206808F0C9FC30460FF0ACFAE1
:1049D00028460FF0A9FA206808F0C5FC012070BD38
:1049E0002823002038B5C36A0446B3B1187808F00C
:1049F0002FFC2023837100230621C371054608F094
:104A000049FC2146054B284641F8143F04F060F864
:104A10002846BDE838400FF0ADBA38BD7B450008E8
:104A200010B50446FFF7DEFF636B80216B209847CB
:104A300064200BF03EFF636B0721682098476420D9
:104A40000BF037FF636B00216B20984764200BF05D
:104A500030FF0121636B6B2098470F200BF029FF7B
:104A600094F823301B20012B8CBF1A211821636B73
:104A700098470F200BF01DFF636B18211C209847EF
:104A80000F200BF016FF636B94F822101A20984742
:104A90000F200BF00EFF636B94F824101920984739
:104AA00064200BF006FF636B1021372098470F201E
:104AB0000BF0FFFE636B012138209847BDE81040E2
:104AC0000F200BF0F6BE38B505461B4C012023889D
:104AD00023F040031B041B0C2380238823F038039E
:104AE0001B041B0C43F03003238023889BB243F04C
:104AF000400323800BF0D2FE2846FFF791FF1021E0
:104B00006A20FFF75BFF64200BF0D3FE23880120AF
:104B100023F040031B041B0C2380238823F038035D
:104B20001B041B0C238023889BB243F0400323808B
:104B3000BDE838400BF0B2BE0038004010B5044666
:104B4000FFF750FF636B80216B20984764200BF0C8
:104B5000B0FE636B03216B209847636B94F82410BD
:104B6000192098470F200BF0A4FE636B94F82210D5
:104B70001A209847636B18211B209847636B1821F4
:104B80001C209847636B022137209847636B0121F3
:104B9000BDE8104038201847022210B4047B016899
:104BA000A24043694A6041680A6822F00102120487
:104BB000120C0A60596A9A6A914203D0184610BCD6
:104BC0000BF0AEBF012210BC83F8442070470148AF
:104BD000DCE400BF4C2C00200048D7E4F82B002078
:104BE0002DE9F04300234FF00F0E01260F8847FAFE
:104BF00003F2D20723D58C784FEAD30814F0100FB4
:104C000018BF91F8039003F0070504F00F024FEA74
:104C1000850550F828C018BF42EA09020EFA05F9C6
:104C20002CEA090CAA4042EA0C02282C40F8282061
:104C30000AD1C26806FA03F422EA0402C260013310
:104C4000102BD4D1BDE8F083482CF8D1C46806FA03
:104C500003F22243F2E70348D0F8B0300BB1A8309A
:104C600018477047200300200348D0F894300BB158
:104C70008C301847704700BF200300200248836F24
:104C80000BB1703018477047200300200248C36DF5
:104C90000BB1543018477047200300200248036CC2
:104CA0000BB1383018477047200300200248436A90
:104CB0000BB11C301847704720030020024883685E
:104CC00003B11847704700BF200300202DE9F047CB
:104CD0000C244443814E86B006EB040A80469AF8C1
:104CE000040008F0B5FA05469AF8050008F0B0FA95
:104CF0004FF016091522074608F10103DBB2AA712D
:104D0000EB7180F80690C3719AF806000EF0BAFFB6
:104D100034592846A3884FF0640A23F440731B04D7
:104D20001B0CA38008F01FFB384608F01CFB49460B
:104D3000284608F0AFFA4946384608F0ABFA4FF07B
:104D40000809284608F032FB18B9BAF1000F40F004
:104D5000B480284608F002FB0A200BF09FFD28468D
:104D600008F001FB0A200BF099FDB9F10109E8D127
:104D7000384608F0F3FA0A200BF090FD284608F0B8
:104D8000EDFA0A200BF08AFD284608F0ECFA0A201A
:104D90000BF084FD384608F0E6FA28461F2108F09B
:104DA00079FA1F21384608F075FA4D4B4D4F9C4259
:104DB00003F5DE331A6901A80BBF42F4001242F476
:104DC00080021A611A610BBF1A691A6922F4001273
:104DD00022F480021A61A388434A23F440731B041F
:104DE0001B0CA3800C2303FB0866F379002B18BF70
:104DF0001746238807EB47079BB243F00103238044
:104E0000A58805F085FB039B384825F03F05B3FBDB
:104E1000F0F02D042D0C0543ADB2A58021884FF490
:104E2000967221F001010904090CB3FBF7F321800C
:104E30004FF47A7142439BB2002B92FBF1F208BF10
:104E40000123013292B243F400432284A3832388D6
:104E500000259BB243F001032380238801A823F49B
:104E6000816323F002031B041B0C43F48063238043
:104E70004FF480432381238823F080031B041B0C01
:104E800023800124737A8DF805508DF804308DF855
:104E900006508DF807400EF013FF337A9DF8072077
:104EA0008DF804308DF805508DF806505AB101A8E0
:104EB0000EF006FF06B0BDE8F0870A200BF0EEFC0E
:104EC0000AF1FF3A3DE75A09094903F01F0304FAC2
:104ED00003F3203241F82230ECE700BF70C501082F
:104EE00000540040801A060000350C0040420F00BC
:104EF00000E100E00C23434337B5254A0546D4586A
:104F0000A38A9BB20193019B13F4706F1FBF012111
:104F1000204A0301D154019B13F4E06F1FD0238B6F
:104F2000A38823F480631B041B0CA380019B9A05B8
:104F300015D423889B0512D42388D8051CD5238833
:104F4000D905FCD423889BB243F4007323802388C3
:104F50009A05FCD46B1C02D02846FFF7B7FEA38A43
:104F600023F470631B041B0CA3820A4B03EB05158F
:104F700000236B7003B030BD23889BB243F40073F1
:104F80002380A38823F440731B041B0CA380E6E753
:104F900070C50108444200200120FFF73FBB0120FB
:104FA000A8E70020FFF73ABB0020A3E72DE9F04F68
:104FB000AC4B00F59C4808F12008C3F80080AA4BD0
:104FC00087B01D780746002D6ED0A84A126890421F
:104FD00001D9013D1D70A64B1A689B4612F4805FF3
:104FE00005D0A44B1B68D90701D406F0D3FDA24B12
:104FF0001C68E07C002800F08081A04A637D0138B5
:1050000032F910001BB1C0F53B60083000B2A0F5CA
:105010007A70B0F57A7FA8BF4FF47A7020EAE0701A
:1050200010F0E0F8964910F031F910F031FB954B93
:105030001880DBF80030DFF880A213F4807F00F0E6
:10504000D981914BDFF860929F4205D999F80220EF
:1050500012B9012289F8022099F80220002A00F0F2
:10506000C981844999F8215008689AF8002000F015
:105070008063012D02F004080093019100F0758116
:1050800012F0080F0CBF00270227804C804E99F8C1
:105090002020052A00F2AA81DFE812F06901CF0181
:1050A000DA01FD010D02290202F012F98146794C64
:1050B000714EDFF8F8A1A94546DC42F201024FF437
:1050C0007A796B4BB7FBF9F91B6813400193724B6C
:1050D00006D0724A12781A70714A1178714A1170AA
:1050E0001B78009323B16F4B1E7886F00103009369
:1050F0000F230025DFF8C4B1DFF880A184F8243045
:1051000002F0E6F885424DDB94F824305F4A0F2B1D
:105110000CBF0123002384F8D230634B40F0D080D1
:1051200054490968480100F1CB801268D9689A6037
:10513000521AC82A02D9012283F8212094F8B830E3
:10514000013384F8B83046E7072DD8BF3368E9B299
:105150005648D8BF595DDAF804309847032D1DDC56
:10516000326805F1130302EB830E32F82310BEF808
:10517000022098B1431A4FF47A705843531A90FBA7
:10518000F3F040F2EE2300F57A709842B8BF18466B
:1051900040F6CA039842A8BF184680B224F815000A
:1051A000013588E7009A6B00DAB134F91500324A0C
:1051B00080B21268918C81424FEA850103D8B2F81F
:1051C00026E0864520D23A4A515889450BD23AF812
:1051D0000300019AEAB92AF8030001350BF1060B26
:1051E0008EE70098E3E7E8B2029302F087F8032D18
:1051F000029BEEDC012101FA05FE94F8241021EA5D
:105200000E0184F82410E4E7294E09F596727250D5
:10521000DFE7032194F8B8C003EB050EBCFBF1F106
:1052200001EB4101ACEB0101C9B2714404EB410156
:10523000C88494F8B91029B9BCF1020FCBD9012167
:1052400084F8B910BBF80010BBF802000844BBF8A2
:1052500004100844174900B2C852032190FBF1F032
:1052600080B2B8E75C1400204415002040150020EF
:1052700028140020F0170020181500201C1500200D
:10528000AAF1823F96130020404B4C0048150020A5
:10529000341C0020101000201D14002024140020B5
:1052A0000B0000200C0000204C15002050140020A2
:1052B00080100020CA100020041C0020361000209E
:1052C00001219648126801709548DA60017099686A
:1052D0000025521A5968934E8A4284BF002283F8EF
:1052E000212001F0F5FF8542BFF628AFE8B202F0B9
:1052F00005F826F815000135F3E7DBF800301A044D
:105300007FF597AE884AD2F8D430FB1A002BFFF60F
:1053100090AE92F8E930C2F8D48002EB4303B3F8C0
:10532000EC10237D89B291FBF3F192F8F430013354
:1053300003F00F0382F8F430134483F8F5100346AA
:10534000F532995C01330844102B00B2F9D190FB7F
:10535000F3F000B2002806DB6428A8BF64200FF039
:1053600041FF72495FE60020F9E700278DE6B8F1BA
:10537000000F32D06C4AB2F80611D2F808010CF0D6
:1053800029F8012807D1642032682168D28800FBFF
:105390000212C9F81020009B63B1326812794AB139
:1053A00003F060FB032289F820204FF47A72C9F8D9
:1053B0001C206CE6012D19D02268D9F810109142FA
:1053C00007D203F04FFB032289F8202040F6B832C1
:1053D000EDE7012289F8202059E6009B4FF4806018
:1053E00043B30BF0C3FF0022C9F8102017B13846B1
:1053F00002F0F0FB4E4D4C4CB5F8EE1005F5157073
:105400000BF0E8FF06460CF01DF8002800F096802F
:105410009AF800305F0740F19180464BB3F90620BF
:10542000B5F876329A42C0F28E81012384F80C31AD
:10543000012397E00BF08AFFD5E7012D01D105226A
:10544000C8E73268127A012ABBD003F00BFB1EE6D4
:10545000012D04BF052289F82020B8F1000F0CD0DF
:105460000327314AD2F80821B2F916102D4A1180CB
:105470005180918031684988D1802268D9F8141010
:10548000914202D3B8F1000F43D147F23052C9F82C
:105490001C2003229EE79AF8002042F002028AF8BC
:1054A000002006F077FB2168D9F81C200A44C9F8CF
:1054B000182004228EE7012D12D12268D9F8181085
:1054C000914293D21C4B1A781AB9019B1A68D307E0
:1054D0008CD49AF8002022F002028AF80020AEE76D
:1054E0002168D9F81C200A44C9F818207EE76420F6
:1054F00032682168D28800FB0212C9F8102000220D
:105500004FF4806089F8202089F803200BF01EFFFB
:10551000BDE5012D3FF4BBAD68E700BF0B000020E7
:105520000C0000201C1500201010002014AE234198
:10553000801C00209C11002008000020002384F81B
:105540000C31002E7FF474AF0023C4F81031C4F87E
:105550001431C4F81831B54B1B6893F83230002B66
:105560007FF466AF84F81C319AF80030580725D5CF
:10557000DBF80030D90621D5AD4A1278D2061DD409
:10558000DF041BD40BF05EFFC0B9AA4B1B78002BC5
:1055900000F0F48095F8B232002E40F0DD80002B50
:1055A00000F0EE80A44B1A68D4F820319B1A002B2F
:1055B00080F2E68006F0EEFA84F8246100221346B9
:1055C00095F8B112B5F86CE2B5F86EC29B4830F9A7
:1055D00012709B087745C4BF63F07F03DBB20132D2
:1055E0006745B8BF43F04003042AF0D194F8252161
:1055F0009A4240F0CC8094F82621F92A02D8013250
:1056000084F826218B4A84F8253113788C4F9046F4
:1056100063B93A68D00740F1BC8084F827312EB9CD
:105620009AF80030D90701D506F050FA94F82631DF
:10563000142B21D198F800305BB194F825315F2B01
:1056400007D19AF8003013F0040600F0C28006F08B
:10565000A1FA9AF8003013F004020DD194F8253124
:10566000572B40F0BC8005F06AF8764B1B685B074F
:1056700002D50A22744B1A80DBF80030580726D571
:1056800094F82A319BB19AF8003059070FD56B4B2B
:10569000B3F90620B5F86C329A4208DD3B6813F086
:1056A000010302BF322284F82A31A4F82E213B687C
:1056B000DA0340F1128194F830312BB994F8283193
:1056C00013B93223A4F82E31012384F8303100239A
:1056D0004FF001095D4E3B6006F15008314616F867
:1056E000010C0BF051FE30B116F8023C3A6809FA91
:1056F00003F313433B6004364645EFD1544B1F7808
:10570000002F00F0FA804E4EDFF838813368514F99
:1057100013F0020F09D1DBF80030D80540F1CD823B
:105720004D4BDB78002B00F0C882D8F80030990789
:1057300040F1C3823B8813F0010902D101200BF034
:1057400015FE0023BDE2002E7FF472AE94F80C31FA
:10575000002B7FF46DAEF7E63BB14FF47A71364A19
:10576000126801FB0323C4F8203194F82431002B84
:105770003FF424AF02F01AFA002305E0002EF4D122
:10578000102002F027FA012384F8243116E70022C2
:1057900036E79AF800305A077FF548AF2F4B1B7851
:1057A000002B3FF443AF2C4BDB78002B7FF43EAF54
:1057B00094F827310133DBB2032B84F827317FF6CD
:1057C00035AF11B106F0E6F930E7002E7FF42EAFC9
:1057D000F8E70B2002F0FEF984F8266139E7DBF8E0
:1057E00000104E0717D55A2B15D194F828312BB13C
:1057F000012384F8282184F829313DE794F82A31DF
:1058000083F0010384F82A311BB10C2002F0E2F985
:1058100032E70D20FAE75D2B00F043835B2B00F0AD
:1058200047835E2B40F0468303203BE3B0320020E9
:10583000101C002008000020481500201C15002026
:10584000F0170020302300206C430020C3210020EB
:10585000A4320020E03900204C1500201D14002047
:1058600094F82531972B04D14FF4C873A4F82C3148
:1058700002E7A72B05D1BC4A137843F00403137049
:10588000FAE60022BB2B059216D10223ADF81630A2
:10589000B5F82032BDF814201344A5F82032BDF825
:1058A0001620B5F822321344A5F8223206F0ECF99E
:1058B000002384F82631DFE6B72B02D14FF6FE73C2
:1058C000E4E7BE2B03D10223ADF81430E0E7BD2B93
:1058D0007FF4D2AE4FF6FE73F6E794F82831002B32
:1058E0003FF4F5AE9AF8003013F0040302BF84F8D9
:1058F0002831012384F82931E9E64FF00C099B4E49
:1059000006F15A08314616F8010C0BF03DFDE8B1DE
:105910003179B37809FB0140954A013B03EB43031E
:105920001344D0F8382196F803E093420ED0C0F823
:105930003831012303FA01F194F8643180F834E13D
:1059400023EA0101C0F83C7184F864110636B045C1
:10595000D8D1884BDFF82C921E68874B1B680193C7
:10596000864B1B78029300230093D9F80420002A69
:105970006BD01778002F68D0D9F808300199CB1A6E
:10598000002B0DDB01F5FA730121C9F80830009BEB
:1059900001FA03F394F8641121EA030384F86431F3
:1059A000029B002B51D099F8003051780433DBB2C0
:1059B000002940F05181724931F91310B5F86A326B
:1059C00003F1C80081422ADD92F80280009B94F81E
:1059D00064211A41D30738D4B8F1000FCCBF02209C
:1059E000012002F08FF97A1E162A41D8DFE812F062
:1059F00035004E00580068007F008600A100CC00F2
:105A0000E800F40000014000680075008600A10075
:105A1000CC009500B000DC000C0118012601C83B49
:105A2000994203DA9178C1F10008CFE70122009B87
:105A300002FA03F394F8642122EA030384F8643140
:105A4000019B03F5FA73C9F80830009B09F10C09B2
:105A50000133042B009388D155E63178012041446D
:105A6000FA29A8BFFA2121EAE17131700BF0D6FCC6
:105A7000D4F8680102F0A2F90122009B02FA03F3B4
:105A800094F86421134384F86431DEE7B17802208E
:105A900041446429A8BF642121EAE171B170E5E7BE
:105AA00031798844B8F1640FA8BF4FF0640828EA40
:105AB000E87886F804800EF0FFFD41460320D5E724
:105AC000B1790D2041446429A8BF642121EAE17124
:105AD000B1710BF0A3FC0D2FCAD071790E20414497
