:020000040800F2
:100000000050002031A10108CDA10108C1DD000888
:10001000CDA10108CDA10108CDA10108000000007B
:10002000000000000000000000000000CDA1010859
:10003000CDA1010800000000CDA10108739D0008BA
:10004000CDA10108CDA10108CDA10108CDA10108D4
:10005000CDA10108CDA10108C3A00008CDA00008D2
:10006000CBA00008C9A00008C7A00008A57F000811
:10007000957F0008857F0008757F0008657F000870
:10008000517F00083D7F0008CDA10108CDA10108E6
:10009000CDA10108CDA10108CDA10108C5A000088E
:1000A000CDA1010845E70008CDA1010835E700080A
:1000B00025E7000815E7000805E70008C3830008E6
:1000C000C9830008B9830008BF830008CDA10108D7
:1000D000CDA10108B19D0008A59D0008CDA1010892
:1000E000C1A00008CDA10108CDA1010800000000B9
:1000F0000000000000000000000000000000000000
:0C01000000000000000000005FF808F1A3
:100110002DE9F04F0B4B0C4D0C4AC5F8B8340023B9
:1001200010680B49A1B08842C5F8BC3416D11360E1
:1001300062B6084B186811F013F8074B1B68984714
:10014000FEE700BFD5E8000898040020F04F00202B
:10015000EFBEADDE00F0FF1F04F0FF1F0A930B930C
:100160000C934FF4E013BB4C0D93236843F480339E
:100170002360A36943F01003A361236803F40033F1
:100180000B930A9B01330A930B9B1BB90A9BB3F594
:10019000A06FF2D1236813F4003300F09A82022397
:1001A0000C93AD4BAD4F1A6842F010021A601A68FA
:1001B00022F003021A601A6842F002021A606368B1
:1001C000636063686360636843F480636360A44B47
:1001D0001A68043B22F070425A60A24A3A60626890
:1001E00022F47C1262605A6842F000425A60DA6877
:1001F00022F40042DA609B681E0449BF9A4B4FF418
:10020000E0133B604FF480130D930C9B012B00F027
:100210007882022B05D10D9B6268134343F480332F
:100220006360236843F08073236023689801FCD5E2
:10023000636823F003036360636843F00203636051
:10024000636803F00C03082BFAD16368DFF86C8253
:1002500003F00C03042B00F05882082B00F05782A7
:10026000804BC8F800306368DFF85492C3F303137F
:1002700019F80320D8F80030DFF848B2D340C8F8A6
:1002800000307A4B4FF6FF72CBF80C30A3690DF1BA
:10029000800A43F00103A361636A636A744E43F00A
:1002A00080736362A369304643F01C03A36100239B
:1002B00015932AF82C2D514611F00CFD51466D482E
:1002C00011F008FD51466C4811F004FD02214FF475
:1002D00000728DF846101021ADF844208DF84710BB
:1002E0003046326111A911F0F5FC644950464A6864
:1002F00042F000724A6010F01FFE159B604A3046C3
:10030000B3FBF2F34FF47A72C5F8C034D8F800307A
:100310004FF0010CB3FBF2F35A4A013B5360F02358
:100320008BF82330002393600723DFF89CE11360F0
:10033000554A09F10E01002331F8026F46FA03F81D
:1003400018F0010F18BF0CFA03F803F101031EBFE8
:100350001060A2F804800832102BEFD100F5806005
:100360007045E8D13B683F4A934240F0E281012367
:1003700085F8C4340EF0E1FF18B90EF08BF80DF0DB
:100380006DFD0DF0A9FE05224049414818F088FB9B
:1003900018B10EF07FF80DF061FD95F8C5343D4FB2
:1003A00043F0010385F8C5343B4B07F1050A9A7801
:1003B0003A4B1A703A4B3B4A1B689046136095F8CB
:1003C000CA3485F8C6340023D85D4FEA830B5E1C1F
:1003D000002800F0B481039309F06EFD039B4AF8F6
:1003E000230010B10523C671837112215AF80B0046
:1003F00009F088FD032E3346E6D10021084609F0B6
:10040000F5FD0021012009F0F1FD0021022009F095
:10041000EDFD0121022009F0E9FDA369002143F06F
:100420000103A3614022204818F0A8F94FF0FF33E0
:100430001E4AC5F818356420C2F8033009F08FFC55
:10044000A02200211A4818F099F90024194D1A4EDB
:100450003CE000BF0010024000200240EC00002001
:100460000410014000127A00001BB7000005FA05D5
:1004700000080140000C0140001001400000014054
:1004800040420F0010E000E0BC15002078C90108D0
:100490008D1900205F090020881900200C1B002006
:1004A000541A00206023002070090020B0090020A9
:1004B000B43D002080C3010834A6010810000020CC
:1004C0001CA6010800ED00E0001401400023605963
:1004D00056F83310DA00884240F0348109EB020309
:1004E000187F103411F0FCF8E02CEFD1AB4AAC4C83
:1004F0000021A4469146AB4E00250B5D01F10F0093
:10050000204406EB030A10F801EFBEF1000F05D0FE
:100510009AF80C70774508BF82F8587090F803E09D
:10052000BEF1000F04D0F75C774508BF82F8597020
:100530000135032DE7D1B2F8580040B10CEB0100B2
:1005400009EB83035065C3F8202502F517721C31AF
:100550003829D1D10424914F202200219248D8F883
:10056000005087F82C4518F009F900208D4B024601
:1005700093F80BE093F80AC04FF0FF092346039766
:1005800089498A4F05F04006D4571E2C8C7140F0E3
:10059000DF80002E00F0E480BCF1000F00F0E0806E
:1005A0000132042A01F10801EED110B1039A82F858
:1005B0002C357F4B15F4805F93F800A07D4BDFF85E
:1005C000449283F800A07C4F7C4C7D4E00F0CE809E
:1005D000B88819F01FFB7B4BC9F800002360708AB4
:1005E00019F018FB784B794C1860788819F012FBD9
:1005F000774B00251860388819F00CFB754B186094
:10060000608BC0F5FA6019F009FB734B248B1860FE
:10061000FB88724AE01A1C44714BA4B280B210806D
:100620001C80A0F57A7019F0F9FA6E4B1860C4F5C9
:10063000FA6019F0F3FA6C4B6C4C1860AAF11703CE
:10064000022B257000F2E2804FF0000BDFF8B8A11A
:1006500005EB0A03594655F80A00049319F0C6FC45
:10066000049B002800F08C80D8F8003013F4805AE6
:1006700040F0ED800023D9F800105D4A42F82310C5
:100680000133082BFAD1B6F81480BAF1000F01D06B
:10069000B7F80480B378042B05D14FF480500EF0E6
:1006A0006BFA4FF000082378C022002151480693CE
:1006B00018F064F83779B378003718BF0127042B96
:1006C00000F2EA80DFE813F02206E8002406F400D6
:1006D0001B06226842F0010222600A93236803F09D
:1006E00002030B930A9B01330A930B9B1BB90A9BD2
:1006F000B3F5A06FF2D123689F0701D501234FE521
:10070000FEE7636843F460138AE53B68A9E5636824
:100710006268C3F38343D10303F1020302D4364A70
:1007200053439EE5626812F4003F3A6818BF5208CE
:10073000F6E7324A93427FF41DAE022318E64AF8E8
:10074000230057E60133042B7FF4C2AE0020C8E635
:100750001F2C7FF425AF1EB1BEF1000F7FF420AF38
:10076000013B81F80690DBB2012019E7B08A19F04D
:1007700051FAC9F80000308A19F04CFA20602EE7CF
:100780001F4A05EB020E0FCB8EE80F0023781035C1
:100790000133802D23707FF45BAF65E79804002060
:1007A00054A60108D02000204C2600208CA6010869
:1007B000141B0020181000203C3F0020D83A0020D5
:1007C000C03A002000007A4484190020342300201D
:1007D00054100020341000205C1000202E10002047
:1007E000501000204C10002058100020DC3A00204F
:1007F0001C2100204421002000093D00001BB700FF
:10080000601000208C220020D4160020244B13F806
:100810003A2003EBCA0A082A227088BF0822DAF8B5
:1008200004C088BF2270BCF1000F3FF41DAF00254B
:10083000DFF878A023789D42BFF616AF2B0103EBBB
:100840000A0E63440FCB01358EE80F00F2E72378E0
:10085000012B7FF60FAF4FF07C58124D05EB0313C1
:1008600003F1100B1035AB453FF404AF414655F88A
:100870000C0C19F027FA414645F80C0C55F8100CF1
:1008800019F020FA414645F8100C55F8080C19F0FB
:1008900019FA45F8080CE5E7034CA1460BE000BF48
:1008A000C8AC0108641000206F12033960100020EA
:1008B000B94CDFF83893B94AB94B21461A60B94AA6
:1008C000B94B4846002F18BF1346B84A002513609D
:1008D00019F0F0F801464FF07A5019F0A7FAB44930
:1008E0000590204619F0EEF9B24CDFF804B30790FA
:1008F000069BAB4240F36C8505EB0B035E79002150
:1009000030460DF0E5FE0490002840F00485AA4A28
:10091000A34B1A60A34AA54B1A60A84CA84A94F8A6
:10092000C534079243F0040384F8C534136813F008
:10093000010600F070850025FF2294F82D75A14B6B
:100940002946384683F840501D605D609D60DD6338
:1009500083F8412083F8422083F8435083F84450C1
:1009600083F845500DF0B4FE064690B303689149F4
:100970006A18507C18B15268934200F041851835CE
:10098000C02DF5D10025C4F83C6584F830553846B3
:1009900009F092FA10B10223C571837100252A2152
:1009A00009F0B0FA884A0021304609F0DDF8874B9B
:1009B000874AC4F84035874B111F3046C4F8443588
:1009C000C4F8485509F024F92A46717930680FF0C7
:1009D000FDFCB4F81E7694F81A66A4F8207630462A
:1009E000002F40F0668509F067FA94F81B26C4F8DA
:1009F0002406003218BF012284F8282650B1242290
:100A000094F81C368271002BC7710CBF122116217D
:100A100009F078FA002009F0BDFA4FF000096E4B9A
:100A20000020C4F8483607F06BFA012007F068FA96
:100A30006A4B6B4803F1200853F8056C6EB313F949
:100A4000092CA11891F84C7691F84EE691F850C611
:100A500000EB0215991E11F801AFBA4591F802A0FA
:100A600008BF2F71F24591F804A008BF85F805E092
:100A7000E24508BF85F806C08B42ECD1120181180F
:100A80000D7955B14D7945B18D7935B186505A7989
:100A900081F80C90CA719A790A7210339845CBD1BB
:100AA0004F4D10F0CDFE10F0CBFE287E10F018FE5A
:100AB00001232A7E02F01F015209022A03FA01F3E0
:100AC00000F02485032A00F02785287D09F0F4F939
:100AD000064618B1122383710223C371687D09F0A1
:100AE000EBF918B1132383710223C371A87D09F0B8
:100AF000E3F918B1142383710223C3711B2130461B
:100B000009F000FA687D09F0D7F9072109F0FAF930
:100B1000A87D09F0D1F91B2109F0F4F92A69314BBC
:100B20009A4240F0FF8403F56043D96841F4805154
:100B3000D960D96821F48051D9602B7F002B00F057
:100B40000E8500231846118801F4415141F4457186
:100B50000B4303431380938B23F400631B041B0C90
:100B600093830723138213889BB243F040031380BF
:100B700094F8C434032B40D11F2008F0B4FB0023A9
:100B8000194A02EBC30191F90210022901F0F7831F
:100B90000133042BF5D12DE0ACC5A737C5540108AE
:100BA000C02C002045540108F1540108C42C002039
:100BB0006F12833A44210020475401089804002012
:100BC000602300206C3D002040420F00D9520108F4
:100BD000DC09002015540108D020002099A6010846
:100BE000201500200030014026260020ACC5A73685
:100BF000C03A0020022008F076FB0DF09FFE012095
:100C000007F0D8F92C2009F057F9039BC3F85406D4
:100C10009F238DF84430002332208DF845308DF825
:100C200046308DF8473009F09AF8039BD3F8540604
:100C300009F08AF915AA042311A9BC4809F068FA39
:100C4000039BD3F8540609F084F99DF856309DF8BB
:100C500055201B0243EA02439DF857201343B44A30
:100C6000934223D0322009F07AF8039BD3F854063C
:100C700009F06AF9F521AD480DF044FEFF21AB48BB
:100C80000DF040FE039B8DF85400D3F8540609F094
:100C900060F99DF85430702B08D1039B93F8C4344D
:100CA000022B03D10323039A82F8C434A14B5F794A
:100CB0009E797D1E6A4206F1FF3E6A41DEF1000325
:100CC00043EB0E0384F85C36079B84F858261D68B6
:100CD0002B0400F1488415F0007505D0964BDD7AA1
:100CE000A5F108004542454114220021934884F8AB
:100CF0005A5617F043FD012F04BF94F8593684F873
:100D000060361DB194F85B3684F86F3694F85E3621
:100D10001BB194F85F3684F86A36012E08BF94F848
:100D20005D36864D08BF84F8653600232E464FF0A9
:100D3000070B1F469946DFF8248208F1940A3078A1
:100D4000E8B109F0B9F818B180F806B080F807905A
:100D5000002109F0D7F8002331781AF813005A005F
:100D6000884240F0038408EB020393F895307370D7
:100D70000723337101237A1CB770F370D7B20BF1DC
:100D8000010B5FFA8BFBBBF10B0F06F10506D6D109
:100D9000002B00F0BB806A4E4920736843F4404347
:100DA000736010F09DFC674A674900234FF01C0EEA
:100DB000104688460EFB032CDCF804C08C4540F03E
:100DC000DC83DBB21C2101FB0303726919694FF05C
:100DD00000090A437261062283F819901A765A486C
:100DE00010F01FF915A810F0F1F8584B022F1593C9
:100DF00034BF4B4680231A934FF480731B934FF4F8
:100E000080631C9320231D934FF40053504E15A96B
:100E10004D4818971E931696CDF85C90CDF86490C7
:100E2000CDF87C9010F0DFF8012F94BF0022012252
:100E3000D8F80030474943F00103C8F800304B6848
:100E40004FF0070E23F4702323F4807343EA022348
:100E50004B608A68404B134043F4602343F0020325
:100E60008B60CA6A7B1E22F47002DBB242EA035333
:100E7000CB621F270123EA784AB395F80180581CFA
:100E8000B8F1090FC0B295F804C040F27C83A8F114
:100E90000A02D1F80C9002EB42020EFA02FA29EA99
:100EA0000A090CFA02F242EA0902CA60062B00F2B1
:100EB000778303F1FF3C4A6B0CEB8C0C07FA0CF3C5
:100EC00022EA030308FA0CF21A434A630346053583
:100ED000AE42D0D11F4B9A6842F480729A609A68F1
:100EE00042F001029A609A6842F008029A609A6899
:100EF0001107FCD49A6842F004029A60154B9A6874
:100F00005207FCD49A6842F4A0029A60D4F87C0696
:100F1000002841F03F82D4F88036002B41F03A821D
:100F2000D4F88436002B41F0358219E000380040B7
:100F300015202000AE29002034230020F80A0020CC
:100F40000010024014000020080002404C24014020
:100F50000C0B002000240140FDF7F1FF1CA6010846
:100F60000BF09EF830B90120022109F07DF8012034
:100F700014F0F6FE94F8C53443F0020384F8C53447
:100F80000DF018F8B04B186813F00CF8AF4B1A8836
:100F9000AF4B1A80AF4B5A6B99460AB10BF094FBDA
:100FA000AD4BAE491B78AE4CD80001444A78AD49F0
:100FB0002260079A1268114009B1012222600021C3
:100FC00040F2DC55A84A22F8115001310829FAD123
:100FD0002268002A40F0018303F0EF02082AA34AA6
:100FE00040F040831178182B41F01001117001D1AD
:100FF00012F094FF23689E4D002B40F03C83AB8998
:10100000002B40F072830121084608F0EFFF002119
:10101000084608F0EBFF0021022008F0E7FF0A2451
:10102000944D012008F03AFF002008F037FF192006
:1010300008F095FE2B68DF0302D4012008F0AAFF18
:10104000192008F08CFE002008F0A4FF013CE8D134
:101050002146204608F0CAFF2146012008F0C6FFBD
:10106000854B864D587A18F0D9FD854918F02AFE2F
:10107000844918F01FFD0EF000F8834B15AF18607F
:10108000B9F8140018F0CAFD0146804818F0CEFEE9
:10109000C5F8880611F00EFE0123159310237C4A33
:1010A00016931368904613F4800F04BF794A159283
:1010B000DE005EBF159A42F010021592764A116862
:1010C000880748BF159A754844BF42F0C60215927A
:1010D0004A0748BF159A039044BF42F00802159290
:1010E000159A42F000611591017801F0EF06082E83
:1010F00001D00E2904D142F0006242F480521592D0
:10110000159ADE0354BF42F4005242F42042159275
:10111000159AD8044CBF42F0644242F04442159202
:101120009A0642BF159A42F4807215925E0742BF3A
:10113000159A42F400321592159A42F40020159047
:10114000580505D5564B1B7913B142F4C0121592C0
:101150004FF00109182902BF159B43F060731593E6
:1011600021463846E6B20EF02BF970B1304614F045
:10117000AAFB50B9620957F8223006F01F0609FA97
:1011800006F623EA060647F822600134252CE7D14B
:10119000DFF82CA197E803004FF419728AE80300E6
:1011A00000210AF1080017F0E9FA08F0BBFA002262
:1011B000DFF810E13B4BF4461A809A703A493B4BFA
:1011C0003B4E3C4C3C481960DFF8FC90338BDFF819
:1011D000FCB0C4F80490A06085F8F82819B2049017
:1011E0000AF51C7ADBF800002EF8121000F5967054
:1011F0004AF822000132122AF4D1D8F80000C204C1
:1012000058BFB6F92410ACF806102C49DFF8B4C06A
:1012100001F1500E0A78002A5AD18A7891F803A079
:10122000524555D2002A00F07082013A02EB820248
:1012300002EB820202F5617291F801A092B20AF10A
:10124000040A2CF81A2043E0281A0020321A002041
:10125000B0140020B019002018100020C8AC0108FC
:10126000E010002020001000E01A0020AB14002045
:1012700098320020E0170020FC2C00209804002069
:1012800035FA8E3CDB0FC93F1C2D0020A889803A1F
:101290006023002001000010101B0020141B002000
:1012A000A8220020C0290020A086010024300020B0
:1012B000342300202423002025390108EC170020C6
:1012C000240B00207C29002029390108F422002069
:1012D00004318E459ED1020740F13282307A0A28CD
:1012E00000F22782DFE810F022022202A704E804BD
:1012F0000C052C052C05B9052502F6052202002453
:10130000A14601274FF00008FFF7D5BAC24CF7E716
:10131000C24CFFF7C2BA304608F0CEFD6B1C6061CC
:10132000DBB210B10322C37182711A2108F0EAFD09
:10133000002F52D0BBF8000018F070FC18F0C4FE6B
:10134000B74B4FF6FF7A1E68B6FBF0F353441B0C05
:10135000B6FBF3F60FB1B6FBF0FA9BF80230042BA4
:101360003FD1504618F056FCAB4918F0ABFCA060DA
:101370000990304618F04EFC494618F0A3FC099B32
:101380000890A849184618F09DFC089A0146104696
:1013900018F08EFB9BF80330E0603246019304990D
:1013A0001FFA8AF3CDF80080204614F0EBF80023F2
:1013B00018229D49AB4219D1002383F00103237405
:1013C00001231D44082D637404F118047FF490AACE
:1013D0000122964B1A70FFF7A0BA059814F010FE80
:1013E000ACE7304618F016FC0799BEE702FB031085
:1013F00046686068864201D00133DBE70123DCE701
:101400001B8D874A9BB212680133B2FBF3F3884A03
:101410001370FFF7B7BA9A047FF5DBAA94F8182681
:10142000844B04F5A8651A7004F5C26816F8089094
:10143000002148460DF04CF9074698B300224FF0C2
:10144000010A5FFA86FB05F80FBC45F8040C05F8A5
:101450000E2C05F80D2C05F810AC484608F02CFDB4
:10146000D3445FFA8BFB18B180F806A080F807B070
:101470004FF0000B2A2108F045FD6F4A0021384645
:1014800008F072FB6D4B2A1D2B606D4B29463846C8
:101490006B60C5F808B008F0BBFB5A46797938682C
:1014A0000EF094FF0136082E05F11C05BED1FFF7A2
:1014B00090BA08F001FD4021C4F8400605463046C8
:1014C0000DF006F90646CDB1C0B12423AB7101235E
:1014D0001A21EB71284608F015FD0021A4F8447686
:1014E00001915849544A91FBF7F192FBF7F389B205
:1014F00000919BB23146544814F044F80023D4F8CC
:101500002C26138084F83D36FFF787BA4F4AD168FE
:101510000B43D360FFF7D9BA4C4A11690B431361EF
:10152000FFF7D3BA4A4B9A420BD103F5EC33196952
:1015300041F480411961196921F480411961FFF773
:10154000FCBA444B9A427FF4F8AA03F5EA331969CE
:1015500041F400411961196921F40041EEE70123CA
:101560000220FFF7F0BA0125FFF7BEBB01330A2BBB
:101570007FF4F3AB0023FFF7FABB0133072B7FF4B3
:1015800019AC00231EE40A6908EB480A0EFA0AF9AE
:1015900022EA09090CFA0AF242EA09020A6185E420
:1015A0000C2B0DD8DA1FD1F830C002EB820207FAFB
:1015B00002F32CEA030308FA02F21A430A6385E4F1
:1015C0000D3BCA6A03EB830307FA03FC22EA0C0211
:1015D00008FA03F31343CB6278E41F4A1F4912F859
:1015E00033E00244556881F800E0002D3FF4F4AC8C
:1015F00000221B4E7245BFF6EFACC2EBC2002918A9
:10160000D1F800C0871940F806C088880132B88038
:101610008979B971EEE700BF6F12833A2829303813
:101620001000002000007A4444210020E410002033
:1016300028040020F420002040420F0069540108D3
:10164000B152010820A10700C40A00200010024086
:1016500000380040003C0040E4AB01083931002074
:101660003A3100200E2B3FF4BDAC1178192B21F03C
:1016700010011170BBE400244FF0040B274EDFF87B
:10168000A0A005F1030818F8017F002F3FF4B7ACC4
:10169000384608F011FC013403467061E4B210B121
:1016A00080F806B0C4710021384603930DF010F89D
:1016B0000746039B1A21184608F024FC002F3FF42C
:1016C0009EAC00226B8801929AFBF3F32A889BB2AE
:1016D00000923046124A394613F054FF0123082C79
:1016E000737406F11806CED189E400240D4F0E4E16
:1016F000A88918F08FFA3A680146301924340DF0A1
:10170000CDFDB4F5907FF3D17DE40AF1010A0AEB37
:101710008A0A0AEB8A0A0AF561728DE5543E0020B6
:1017200040420F00F41A00200811002010F097F832
:1017300030B908200DF020FA049BC4F80490A3608F
:10174000D8F8002051040BD51223237044F62063EF
:101750006380C34BC3496360C34BA360C34B196031
:1017600042F201031A4209D044F6206363809304D5
:1017700040F1D88308232370BD4B636096F828306E
:10178000217804338B42A8BF0B464FF0000AB94CB6
:10179000D10385F8443984F800A040F1538112F058
:1017A00093FC01232370B44B40F22A6293F871B189
:1017B0005146B24816F0E2FFBBF1000F00F0348151
:1017C000514658460CF084FFAD4B026804461A603F
:1017D00082689946002A00F02781584608F06CFB81
:1017E000C5F8480918B1282380F807A083711B2188
:1017F00008F088FB0023A34AD9F8001002F1180E64
:101800005EF833004FEAC30C814240F09283624499
:10181000107F0FF065FFD9F800009B4A03884FF056
:10182000000A23F001031B041B0C0380974BDFF815
:1018300080E21B68ADF83EA0934281BF03F1B7720E
:10184000934902F55852B2FBF1F292BF002202F125
:10185000FF3292B2511CB3FBF1F38E49ADF83AA0BE
:10186000B3FBF1F303219BB2B3FBF1F14FEA410C5F
:10187000AEF800C0DFF83CE28DF840A0AEF80010F2
:1018800020A921F8482DADF83C300FF092FF6023DD
:10189000ADF846A0ADF848A0ADF84AA0ADF84CA010
:1018A000ADF850A0ADF84EA0ADF852A0ADF8443060
:1018B000E379D9F800005A0757BF0122042303F047
:1018C0000203ADF846204EBFADF848304FF48072A9
:1018D000ADF84C304FF0000358BFADF85020ADF8D4
:1018E0004A3011AA61790CF0FFFD6179D9F8000046
:1018F0000FF032FFD9F800206748B2F844304FF0BB
:10190000000B6FEA43436FEA53439BB2A2F84430A3
:101910001388DFF8A4A19BB243F080031380E3791E
:10192000617913F0040F14BF042301238B40118C41
:101930009BB289B221EA03011184118C89B20B4355
:10194000138413889BB243F0010313801C22217B74
:10195000524B02FB013143690A6913434361282357
:1019600081F819B00B7643691A4342614C4AC1F8B9
:1019700014B08A604A7B15A88DF8542001228DF896
:1019800056B08DF855208DF857200FF0C7FEA0688F
:10199000CAF800000FF045FBDAF80000026822F0F8
:1019A00001021204120C02600FF03BFB15A80FF0AD
:1019B0000DFBD9F80020617934320A44159240F2C7
:1019C0002A62189280221A922C4A15A91692102285
:1019D00017924FF400721B924FF40052DAF8000095
:1019E000CDF864B0CDF870B01E92CDF87CB0CDF8D3
:1019F00074B00FF0F8FA6279D9F800100C2A8EBF93
:101A00005B46204B03EB420B8A8998BFBBF8A8309A
:101A100092B21343DAF800208B81136843F002037B
:101A2000136001221F4B1A700023FF211C461E4821
:101A30001A181C520433B3F5807F9170D170F7D11E
:101A400012F0B2FBD8F80030580579D5042007F021
:101A500047FE164B0421186007F038FE2EE000BF49
:101A6000A1390108400D0300893901082430002004
:101A7000793901085B290020D4260020C8330020D2
:101A8000F83900201CA60108FF6BDC0210000020C2
:101A9000006CDC0200350C00001002401400002035
:101AA000717A0008F239002048280020E022002046
:101AB000C6330020C4330020F4390020BD4B187019
:101AC000082007F00DFEBC4B0821186007F0FEFD52
:101AD000BA4B2C2218700021B94816F04FFE7C2317
:101AE00085F84C398E2385F84D39E02385F84F3938
:101AF0007D23202085F8773907F0F2FDB14B2021B6
:101B0000186007F0E3FDB04B1870102007F0E8FDF7
:101B1000AE4B1021186007F0D9FDAD4B18704FF493
:101B2000805007F0DDFDAB4B4FF48051186007F09B
:101B3000CDFD0022A84B1870A84B1A700FF09CFC2A
:101B4000A74C2288002A40F02A82A64B95F88809E3
:101B5000C5F87839022385F87C3995F88939013B35
:101B60005BB2012BDEBFA04A1B01D258C5F8802909
:101B7000002800F0148208F09FF9C5F8840918B114
:101B80001A2383710023C371132108F0BBF9D5F820
:101B90007839986808F0DDF900BFD5F87839022166
:101BA000586808F094FA4FF000089F2332208DF80F
:101BB00044308DF845808DF846808DF8478008F0D8
:101BC000CEF88DF8558000BFD5F87839986808F0C0
:101BD000BBF9D5F878093A4611A90423406808F002
:101BE00097FAD5F87839986808F0B3F900BF9DF8EE
:101BF00056309DF855201B0243EA02439DF85720BA
:101C000013437A4A934200F0258300F30E83A2F532
:101C10002102A2F5CC42934200F01C8300F3B28172
:101C2000A2F51A42023A934240F0B4812023238065
:101C30004FF480736FE30A221B0193FBF2F300223F
:101C40006B49A3F5B06341F822300132122AFAD170
:101C500042F6F8236380674B40206360664B227036
:101C6000A36007F03DFD824600283FF462AD0FF00F
:101C7000EBFB737AB17A00280CBF01220322002B00
:101C80000CBF0623072300290CBF002108219AF965
:101C900002E082460B438DE80C00584B584A402125
:101CA000704607F069FBBAF1000F01D0554B186080
:101CB000003018BF01203BE51023237042F6F823C3
:101CC0006380514B40206360504BA36007F008FDD8
:101CD000824600283FF42DAD0FF0B6FBB27A002803
:101CE0000CBF01230323002A0CBF002208229AF90B
:101CF00002E00192009382464FF4E133444ACEE77A
:101D00000823237042F6F8236380424B402063602F
:101D1000414BA36007F0E4FC824600283FF409AD84
:101D20000FF092FB002200280CBF012303239AF935
:101D300002E00192009382464FF4E133374AAEE766
:101D400000234FF00C0E364A36491370364A0628E7
:101D500084F800E00B70137074D01B22334B4FF4E7
:101D6000E13B1A700522324B83F800E0314B1A70C8
:101D700042F6F8236380304B402063602F4BA36012
:101D800007F0AEFC824600283FF4D3AC0FF05CFBBA
:101D9000B27A00280CBF01230323002A0CBF0022C3
:101DA00008229AF902E00192009382465B46244A97
:101DB00075E700BFE4220020D4220020E5220020A5
:101DC000E40D0020EC220020E7220020F822002071
:101DD000FD22002000230020FE220020FF22002000
:101DE00014040020140E0020201500201720C2002B
:101DF000342F0020F134010809350108A0860100C4
:101E0000B93B01086C230020E1BC0008F5BC0008C8
:101E1000C9BE000859BC000871BC000881BE00089A
:101E20007D140020A01300207C140020A1130020AA
:101E3000C51300207E14002097BB0008ADBB00082E
:101E4000A9BD000821223E4BDFF834B11A703D4B8A
:101E500083F800E03C4B18708AE74FF0000B3B4BD7
:101E6000402083F800B00E23237044F62063638083
:101E7000374B6360374BA36007F032FC00283FF418
:101E800058ACB0F800A0344B0AF4825A83F800B082
:101E9000B37ABAF5825F90F9020014BF01220322DF
:101EA000B3B9BAF5825F14BF5B4608238DE80C0016
:101EB00040214FF4E133294A07F05EFABAF5825F18
:101EC0007FF4F6AE0022264B1860264B1A70EFE620
:101ED0000823EBE70A221B0193FBF2F300222249BD
:101EE000A3F5B06341F822300132102AFAD141F64D
:101EF0000B2363801D4B402063601D4B2270A36049
:101F000007F0EEFB00283FF414AC03234FF0000E63
:101F100090F90200174A8DE808404021164B07F05F
:101F20002BFAC5E6D0077FF529AC0C232370134BA1
:101F300023E40133042B7FF463AC002069E400BF89
:101F4000A1130020C51300207E140020E7300020DC
:101F5000B1390108213D0108E5300020713C01083C
:101F600094220020A0220020982F0020653601082E
:101F7000E93601080D3C0108A0680600693901082E
:101F800090D00300B44A934200F0C281B34A934216
:101F900000F05E8100232380A3816360A360A568B5
:101FA000B5B14FF00008ED0A0DF15409A8450ADA61
:101FB00008EB0504641010223946E0020DF030FCF5
:101FC0000F2800F3BD810DF04BFDA54BED021D6008
:101FD0000023A44AA44C1360A44A1380A44A13808B
:101FE000A44A1380A44A1360A44B1A6899461F2A76
:101FF00040F0B0814FF48063A14A23801188A1484A
:10200000002940F0B081018092789F4B02B10122FB
:102010001A70B4F900309D4A1B021360039B9C4860
:102020001B789C4C052B02BF4FF4C8729A4B1A8048
:102030000AF0A6FAC822994B00211A80984AA4F8FF
:102040008E191378A4F8901943F008031370042331
:10205000944A84F88C391370934A944B117064221B
:1020600019705A705960924B19805980914B5A7966
:102070009A46012A0BD1282204F6941016F07EFB12
:102080004CF250328C4904F698100DF007F90021FB
:102090008A4B84F8BC191960596099609AF8063027
:1020A000012B09D11022864816F068FB4CF2503201
:1020B000844985480DF0F2F8844BDFF850821B68A4
:1020C000834AC8F80030834B4FF0010B1B68802017
:1020D0009B1A18BF0123804A804F137013F040FEF3
:1020E000002140227E4884F8F4B916F047FB002313
:1020F0007C4A7D4D3846C4F8F839136007F05EF825
:102100002B68D90709D5D9F800305946642BB8BFD8
:10211000642358467B6407F089F82B689A0709D531
:102120000121022007F082F8704B5B6B642BB8BF73
:102130006423BB6729680320C1F3400107F076F8E8
:102140000121052007F072F8694B9AF805B01A8C46
:10215000684B072093FBF2F3642BB8BF64231BF199
:102160000001C7F8143118BF012107F05FF89AF891
:102170000690082019F1000118BF012107F056F858
:102180009AF80A30002B40F090819AF80B30002B1F
:1021900040F08B81D8F80010C1F38041BBF1000FF3
:1021A00003D1B9F1000F00D14946092007F03EF8EC
:1021B0000121042007F03AF84F4B0620197807F068
:1021C00035F801210A2007F031F829680B20C1F306
:1021D000800107F02BF82B680C2013F0140F14BFAC
:1021E0000121002107F022F8D8F800100D20C1F3DA
:1021F000802107F01BF8D8F800104B0507D5337A7B
:10220000083B012B9CBF4FF4FA63C7F8B432C1F30B
:1022100000410E2007F00AF894F8C53463F07F03FC
:1022200084F8C53421B0BDE8F08F344A934211D010
:1022300004DC334A934208D0324AF4E4324A9342EF
:1022400066D0013293427FF4A5AE4FF40073EEE402
:102250004023ECE48023EAE418BA20001620C200F0
:10226000103A0020A43A00209C3A0020A83A00200E
:10227000AA3A0020AC3A0020A03A00201426002000
:10228000003A00209E3A0020AE3A0020901B002029
:102290003C24002098040020001C0020FE1B00208D
:1022A000AB140020A9290020B6220020200F002016
:1022B000A2220020AE290020CDCCCC3DA81A0020BF
:1022C000580E0020CDCCCC3E680E0020541A0020C1
:1022D00047540108C02C0020E4100020F00000202A
:1022E0006815002064150020101B0020B019002084
:1022F0002626002040420F00712300201740EF00E7
:102300001920C2001540EF001840EF0060230020A4
:102310004FF480732380A381638822881B0263604B
:102320005343B3F1807FA360614D05D90123B720EA
:1023300085F88A390DF0B8FA012385F88B392EE635
:10234000002359F82320013220D10133042BF8D186
:1023500025462BE63F2A16BF4FF4FA434FF400738D
:10236000B3FBF2F348E6B4F90030994204DD1F2BC9
:1023700002DD0123038047E693FBF1F3FAE732F82D
:102380003330002B7EF43EACFEF734BC04F1010880
:102390002C46DDE70022474B00B21A7017F03EFCD6
:1023A000454917F08FFC0746B4F9800617F036FC54
:1023B000414917F087FC0646B4F9840617F02EFC55
:1023C0003D4917F07FFC3D490546384617F072FB42
:1023D0000CF053FE814638460CF04FFE3749074655
:1023E000304617F067FB0CF048FE804630460CF094
:1023F00044FE32490646284617F05CFB0CF03DFED1
:10240000834628460CF039FE49468246584617F066
:1024100059FC49460390504617F054FC5946049025
:10242000384617F04FFC51460590384617F04AFCE5
:1024300041460690584617F045FC214D514628600C
:1024400008F1004017F03EFC05996860AE60304628
:1024500017F038FC049917F02DFB0699E860304618
:1024600017F030FC0146039817F022FB4146286123
:1024700007F1004017F026FC03996861304617F019
:1024800021FC0146069817F013FB0499A861304619
:1024900017F018FC059917F00DFB4946E861404616
:1024A00017F010FC2862FEF75BBD012176E600BF45
:1024B000980400200E00002035FA8E3CDB0FC93F47
:1024C000401500202DE9F04FB64A97B013780192DD
:1024D000002B00F0B780B44B186800286DD00CF0CA
:1024E00081FADFF8F8A2B14DDAF8000007F0B1FC8C
:1024F000002862D0DAF8000007F0A8FC0928AC4CEC
:1025000001D03F2850D14FF00008C1464646276809
:10251000DFF8ACB208EB0B0347B13A4658F80B10A2
:102520002846009316F0BCFA009B08B976B399468A
:1025300008F10808B8F58C7FECD196B1D6F800E028
:10254000D9F800C023681EF803001CF8031081426C
:1025500007D15A1CE9B97D2B1BD820202260E854F2
:10256000A95423680BB14E4508D0924813F0F1F9F5
:102570004E4511D9904813F0ECF9002723689F428B
:10258000B2D2E85D08F044F90137F7E71E469946F4
:10259000CEE7E8542260D5E756F8080B13F0D9F9D6
:1025A000092008F035F9E3E72368002B41F0B882F1
:1025B000042805D17D480EF0CCF917B0BDE8F08FA6
:1025C0000C2841F0D0827D4813F0C3F97A4813F00B
:1025D000C0F989E701220B4601F0B4BA591E685CC4
:1025E0002028F7D002B123600026754FEE54F15930
:1025F000284606EB07080EF0F1FB38B90836B6F5A9
:102600008C7FF4D16F4813F0A4F905E06E4B984528
:10261000F8D2D8F804309847002301F097BA7F2BFE
:102620003FF662AFA0F12002D2B25E2A3FF65CAF65
:1026300013B920283FF458AF5A1C2260E85408F020
:10264000E7F851E79846614F614D3A7802F0010290
:10265000009255F80A3C002B41F0038208F1010872
:10266000B8F1030F05F1CC05F3D1A6E7012B05D195
:102670004D280CBF0223002301F009BA022B57D1C9
:1026800000233C2805F8023C4DD03E284AD015F8DE
:1026900002ECBEF1060F41F0E58115F8014C002C6B
:1026A00041F0BE814FF001094A4B05AE0FCB86E8E1
:1026B0000F0015F8053C15F803AC2B440A93BAF14A
:1026C000440F0FFA8AF30995ADF82C30ADF82E407F
:1026D0008DF83090ADF81C3001F0928100F211813C
:1026E000BAF1050F00F0558200F2C980BAF1020F6D
:1026F00000F0938100F2AB80CA4500F0838131463F
:10270000504603F0F1FB0446002840F07981BAF10D
:10271000740F00F0CA82BAF1770F00F057836FF0A0
:102720000109D0E2012305F8013C032301F0AFB910
:10273000032B0BD10023C0289FBF05F8063C05F8EA
:10274000050C05F8040C042301F0A1B9042B09D1F0
:1027500015F8043C05F8030C5E4005F8046C0523ED
:1027600001F095B9052B92D115F8061C15F8053C1A
:1027700015F8042C8B420CD94B1C05F8063CCC23D5
:10278000424005F8042C144A03FB08230B449872BA
:102790007DE7824202D1062301F079B9002301F0DE
:1027A00076B900BF882200203C21002004220020AE
:1027B000842200207DC9010882C9010887C9010857
:1027C00014C2010892C901082CC301085429002031
:1027D000360B0020E0A601082C0B00204021002031
:1027E000009B002B41F03E81232824D10123019935
:1027F00055F80A2C0B708C4B8C491A608C4B8D4809
:102800001A609A609DF8002059605A7340221A732A
:10281000894A04331360894B894ADB78003318BF37
:102820000123137013F0C4F8864813F092F84FF4A4
:10283000006013F095FA844B93F82230B3427FF492
:1028400026AF824B824A1A60824BDC601FE7BAF1E6
:10285000030F00F01B81BAF1040F7FF450AF002486
:1028600004227D4930460CF0C9FA7C4B3046197879
:102870000CF0E2FA059B5A1C05921C70CAE0BAF1F2
:10288000240F00F0C4811FD8BAF1200F7FF437AFB6
:10289000DFF8E0A1724B9AF80120D91C1A709AF85F
:1028A000002005915A709AF80220BAF808109A7020
:1028B00030460CF0C1FA059B9AF80520591C059189
:1028C0001A709AF8062083E0BAF1280F00F0D1813F
:1028D000BAF1380F7FF413AF0522614B4FF00109B5
:1028E0005A700A2200249A705E4A83F80090117888
:1028F000DC701971517892785971D91D05919A71CE
:10290000CDE0BAF1810F00F0868130D8BAF1540FD2
:1029100000F0C48108D8BAF1520F7FF4F0AE504BEA
:102920005A1C05921C70BAE0BAF16E0F00F03E819D
:10293000BAF1800F7FF4E3AE00210A264A4B4B4CDC
:102940001B780B3BDBB299425ADA22880598FF2AA2
:10295000A8BFFF2200F1010ECDF814E00670059823
:10296000013100F1010ECDF814E00270EBE7BAF18D
:10297000A00F00F03C8130D8BAF1820F7FF4BFAED7
:102980003B4B30461A78364BDFF8F8A0591C1A70CA
:10299000384B059119890CF04FFA374B059A1B8873
:1029A000511CFF2BA8BFFF2305911370DAF8081004
:1029B000304681F3100189B20CF03EFADAF80010CB
:1029C000304601F30F0189B20CF036FA2B4B1A781E
:1029D000059B591C05911A7061E0BAF1B80F00F01F
:1029E0001881BAF1FE0F7FF48AAE0024DFF89890C8
:1029F00039F81410304601340CF01EFA042CF7D1CB
:102A0000002407E0164BDA1C059224221C7083F880
:102A100001A09A704FF0010941E0042218493046A4
:102A20000CF0ECF93BE000BF402100209B9E000829
:102A3000C40E0020B2C901083C21002088190020E2
:102A40008C0E002082C9010826260020F04F0020AD
:102A5000EFBEADDE00ED00E08D1900205C09002026
:102A6000683F0020F8190020DC3A00202C0E0020DE
:102A7000B6220020AE290020A2220020A929002091
:102A8000B8C90108A81A0020801A00200222BE4BF3
:102A90005A70DA1C0592052283F800A09A70ADF8EE
:102AA0001E90B9F1000F66D0059B55F80A0C0693ED
:102AB000B54B059303681B6A03B19847059B069EB7
:102AC000F61A00230E9324238DF834304D238DF80D
:102AD0003530BDF91E30FF2E3246A8BFFF2201332C
:102AE00000F091879DF82030002B14BF3C233E233B
:102AF000FE2ECCBF4FF007094FF005098DF8363098
:102B0000BDF81C308DF837208DF838304A46C8BFE4
:102B100033120DA955F80A0CC4BF8DF83A308DF860
:102B2000396007F09CF90DAB994400230DF1370291
:102B3000914540F06B87002E8DF813300EDD324644
:102B4000059955F80A0C07F08AF9059B9DF81320A2
:102B50001E449E4240F05F878DF8132055F80A0C02
:102B600001220DF1130107F07AF955F80A0C0368F8
:102B70005B6A03B19847002305F8023C002C3FF440
:102B80006DAD55F80A0C06F0A3FB55F80A0CA047EA
:102B900064E50B227D4930460CF030F908227C496F
:102BA00030460CF02BF907227A4938E77A4B764AFF
:102BB0001B88DFF80CA2FF2BA8BFFF23511C059137
:102BC000DAF80810137081F3100189B230460CF066
:102BD00033F9724B304619880CF02EF9DAF80010F0
:102BE00001F30F0189B230460CF026F957E76C4B20
:102BF000304619680CF00CF96A4B304619680CF035
:102C000007F9694B196830460CF002F947E7674B42
:102C1000F8E7674BF6E74FF00A0A4FF6FF7B654B84
:102C2000654A1B780B3B5FFA83F94C45BFF6E8AE6B
:102C3000116893685945A8BF59460598029321EA3F
:102C4000E171431C059389B280F800A030460392DD
:102C50000CF0F2F8029B30460AFB03F15945A8BF7D
:102C6000594621EAE17189B20CF0E6F80134039A81
:102C7000DBE70A22444BDFF84CA19A70BAF8001047
:102C80001A1D83F8009083F801E083F80390304622
:102C900005920CF0D1F8BAF80210A4E73A4A1346AC
:102CA00003F8024B05935470F9E6099B0A9A9A427D
:102CB0000FBF21465A1C09921978404A304612F03B
:102CC00015FE4FF0010919F1020F40F04883BAF1E7
:102CD000470F099B0A9A40F0878009A8A2EB030AD4
:102CE0000CF066F8BAF1050F814679D909A80CF005
:102CF00075F8099B0A9A83469A4202D009A80CF0FB
:102D000078F8059A069BDFF8C0A09B1A103BDAF80A
:102D100008205B45CDF808B0A2EB0902B8BF1FFA46
:102D200083FB93454946304688BF1FFA82FB0CF06F
:102D30006FF83CB9594630460CF07EF8059A511CA4
:102D400005911470DAF8083009EB0B029A42059EDF
:102D500088BFA3EB090B0CF083FE5A463146484668
:102D60000CF05EFD059B03440593002C3FF448AE38
:102D70000022029B83427FF743AE059B0130591C22
:102D800005911A70F5E700BF683F0020BDC9010832
:102D9000C9C90108B1C90108A2220020A429002044
:102DA000E8F7FF1FECF7FF1FF0F7FF1F541A002092
:102DB000E0170020DC3A0020580E0020A55801083A
:102DC000A81A0020FC19002014040020099B0A9A6C
:102DD0009A421DBF5A1C099219782146A14A6DE7F3
:102DE00001244FF0800B8CE7BAF1290FA2EB03040A
:102DF00037D0BAF1390F20D0BAF1210F45D15A1C82
:102E000009921A46984C12F8021B16A80992617092
:102E10005A782270DA1C40F8342D9B78A3700BF09E
:102E2000DDFF099B20815A1C09921A4612F8021BE9
:102E3000617109925B78A37124E05A1C09921A7897
:102E40000A2A40F028869A1C09925978874A1170FC
:102E5000D91C099199785170191D0991DB789370EB
:102E600010E05A1C16AC44F8342D1B7820460A2B6F
:102E700040F0C1800BF0B2FF7D4E308020460BF059
:102E8000ADFF70804FF0010969E2BAF15F0F00F009
:102E9000078400F25C81BAF1370F00F03B8570D8EF
:102EA000BAF12B0F00F09D8420D8BAF1230F00F067
:102EB000B98206D8BAF10B0F00F08D854FF0FF39BB
:102EC0004DE2BAF1250F00F07A84BAF1270FF5D15F
:102ED00009A80BF083FF674C206009A80BF07EFF68
:102EE000606009A80BF07AFFA060CBE7BAF1310F60
:102EF00000F034851ED8BAF12D0F00F08284BAF1AB
:102F00002F0FDBD15C4C04F1400609A80BF066FFE3
:102F1000099BA4F800015A1C09921A4612F8021BD8
:102F2000043484F8FE1009925B7884F8FF30A642DE
:102F3000EBD1A7E7BAF1330F00F0D984BAF1350F1E
:102F4000BCD15A1C09921A780E2AB7D8991C09913B
:102F50005C78032CB2D8062151434848421854717A
:102F6000DC1C09949C784454191D0991D97851703E
:102F7000197991705979D170D91D9B790991137183
:102F800080E7BAF1480F00F016843AD8BAF13E0F44
:102F900000F0038204D8BAF13C0F3FF473AF8DE721
:102FA000BAF1410F00F0AA84BAF1430F86D116ACF2
:102FB0005A1C44F8342D1A78314B324E1A700023C3
:102FC000204633600BF0F4FE33681843099B3060F1
:102FD0005A1C09921A782C4B20461A720BF0FEFEEE
:102FE000244E306020460BF0F9FE706020460BF056
:102FF000F5FEB06020460BF0F1FE20460BF0EEFE31
:1030000040E7BAF1510F00F0B38341D8BAF14C0F49
:1030100000F04D84BAF14E0F7FF450AF5A1C099264
:103020001C78112C3FF64AAF9A1C16A840F8342D94
:103030005B78164E06F814300BF0D0FE40F6CA034B
:103040009842A8BF184640F2EE239842B8BF1846EF
:103050001923A0F2EE2090FBF3F006EB440460701D
:1030600010E700BF71560108AE290020F8190020B2
:10307000FC190020140B0020D42600208C180020FE
:10308000141B0020541A0020342300200D3100208E
:10309000BAF15B0F00F0AD82BAF15D0F7FF40EAFB5
:1030A0005A1C16AC44F8342D1B78C14EDFF834930B
:1030B000204689F80530D6F800A00BF08FFEAAF85C
:1030C00020002046D6F800A00BF088FE099A0A9B43
:1030D000AAF81E009B1A072B17DD20460BF07EFE78
:1030E000A9F80A0020460BF079FEA9F80C0020464A
:1030F000D6F800A00BF072FEAAF822002046D6F8FF
:1031000000A00BF06BFEAAF82400099A0A9B9B1AF8
:10311000032B09DD20460BF061FEA9F80E002046C6
:103120000BF05CFEA9F81000099B0A9AD21A002A3B
:1031300005DD591C099132681B7882F826300AF0A7
:1031400039FF0EF009FC30680FF0B0FC9AE6BAF1D6
:10315000D40F00F0CB816FD8BAF1CA0F00F04681CE
:103160003DD8BAF1B70F00F0C28014D8BAF1610FA0
:103170007FF4A4AE5A1C09921A468E4912F8020B2B
:103180000992C87059788C4A5171DA1C09929A7860
:103190008A4BDA7076E6BAF1B90F00F01B83BAF108
:1031A000C80F7FF48BAEC4F34704122C3FF686AEF3
:1031B00000260DF13409A642C0F2D4800023804AD3
:1031C0000DA99C4240F0D58000217D4A122B40F091
:1031D000D6804FF001097B4B83F80090BFE0BAF135
:1031E000CE0F00F0BA8210D8BAF1CC0F00F03281C5
:1031F000BAF1CD0F7FF462AE3B78D9073FF542AE0E
:103200004FF4C872704B1A803CE6BAF1D00F00F050
:103210009882BAF1D20F7FF451AE5A1C09921878F5
:1032200006065CD43B78DC073FF52CAE032828BFAC
:1032300000200AF0FDFD25E6BAF1DC0F00F0C881A0
:1032400026D8BAF1D90F00F0A08114D8BAF1D60F60
:103250007FF434AE00245D4EDFF88C9133789C42CD
:10326000BFF610AE09A80BF0B9FD16F0D3FC49F873
:1032700024000134F2E7BAF1DA0F00F09481BAF1D8
:10328000DB0F7FF41BAE4A4B4E22514918684AE0CF
:10329000BAF1EF0F77D015D8BAF1DD0F00F08A83BD
:1032A000BAF1DE0F7FF40AAE09A80BF097FD494C86
:1032B000208209A80BF092FD608209A80BF08EFD18
:1032C000A082DFE5BAF1F20F00F03B81BAF1FA0F0C
:1032D0007FF4F4AD3B78DB073FF5F0AD37E200F06B
:1032E0007F00032828BF002012F0AEF9CAE55A1C5F
:1032F00009921A4612F8029B0992DA1C5878099230
:103300009978B9F1000F11D101283FF6BBAD012921
:103310003FF6B8AD81423FF4B5AD4E222E4B02FBD5
:10332000013102FB003012F02BFDABE5B9F1010FCA
:103330007FF4A8AD01283FF6A5AD01293FF6A2AD67
:1033400081423FF49FAD0C23244A584303FB0121E3
:103350000B68841883504B6863608B68A3600024FB
:10336000FFF79DBB09A80BF039FD29F816000136BF
:1033700021E731F8130022F81300013321E722F886
:103380001310013322E709A80BF028FD094CE08156
:1033900009A80BF023FDA08174E55A1C09921A4676
:1033A0000F4912F8020B887009925B784B7069E53F
:1033B000281A0020321A00207A2B0020421A0020FE
:1033C0004A30002048300020001C0020DC3A002059
:1033D000C4C10108C03A00203A2E0020021A002081
:1033E0004E1A0020722300201C210020A04B1868D8
:1033F000034600F11E04099A0333511C099111463A
:1034000011F8026B03F8036C0991517803F8021C60
:10341000D11C0991927803F8012C9C42EBD10FF05A
:1034200075FA2FE55A1C0992197813293FF646AD13
:103430009A1C09920C2600225C78DFF85CE206FBFD
:1034400002E090F808C0A44500F030830132252A3C
:10345000F5D133E5092C7FF731AD5A1C09921A4694
:10346000844E12F8021B34682170099200225B78A6
:10347000601DA370022A14BF4FF0640E4FF0FF0EC0
:10348000099B0132591C099119787145A8BF7146F1
:10349000032A00F8011BEDD19A1C09925A7816A84C
:1034A000642AA8BF64222272DA1C09929A78E27018
:1034B0001A1D40F8342DDB7823710BF08FFC0A9B2A
:1034C000099A6081991A002904DD501C099031681D
:1034D00012784A72099A9B1A002B04DD511C09913B
:1034E000336812785A7012F0F3FACBE40D2C7FF4A3
:1034F000E5AC5A1C09921C78072C3FF6DFAC0C2671
:1035000009A80BF06BFC6643DFF8909109EB060409
:10351000A08009A80BF062FCE08009A80BF05EFC1B
:10352000099B20815A1C09921A4612F8021B09A80D
:10353000A17209925B78E3720BF03AFC49F806003D
:10354000A0E45A1C09921A780F2A3FF6B7AC991CCE
:1035500009915C784848C2EBC20142184454D91C16
:10356000099199785170191D0991D978917019793B
:10357000D170597911719979517103F10801DB7991
:103580000991937110F0CAFC7CE409A80BF026FCA9
:103590003A4C208009A80BF021FC608009A80BF0B0
:1035A0001DFCA0806EE419465A1C099211F8020B0A
:1035B000334A099159781070517016A8D91C40F8F7
:1035C000341D9B7893700BF009FC2C4BD88059E488
:1035D0005A1C09921A4612F8020B2A4909920870DD
:1035E000294A59789170DA1C09929A78274B9A7077
:1035F00048E45A1C09921A46224C12F8021B244E27
:103600000992A1705978234A0DF158091170DA1CFA
:1036100009929A7832711A1D49F8342DDB784846A0
:10362000042BA8BF0423B3700BF0D8FB099A0A9BA4
:1036300030809B1A012B03DD48460BF0CFFBF08155
:10364000099B0A9A9A4206D05A1C09921B780033A9
:1036500018BF0123E3710AF0ADFC099B0A9A9A4254
:103660003FF410AC5A1C09921B78F3700AE400BFB7
:10367000281A0020443F0020AA3100203C3F0020AF
:103680002C1A002072230020321A0020421A002037
:10369000C03A0020001A002028AA01081C3200208D
:1036A00009A80BF09BFB09A80BF098FB09A80BF0ED
:1036B00095FB09A80BF09DFB099BB24C591C099185
:1036C0001946226811F8020B82F82C0009915978EA
:1036D00009A882F83610D91C09919B7882F83730F6
:1036E0000BF087FB09A80BF084FB09A80BF081FB0A
:1036F00009A826680BF072FB708709A826680BF0F2
:103700006DFB099B0A9A3087D21A012A08DD591CE1
:10371000099122681B7809A882F82E300BF069FB0A
:10372000099A0A9B9B1A032B09DD09A826680BF04E
:1037300055FB708609A826680BF050FBB086206800
:103740006DE63B78D8073FF59DAB0AF0A3FE0AF083
:1037500085FB0AF0C1FCFFF795BB3B78DA073FF524
:1037600091AB894A137843F004031370FFF78ABBC7
:103770008649097801293FF685AB591C09911946FC
:10378000834C11F8020BA070D81C0991121A5978B9
:10379000012A09909E7805DD09A80BF01FFB208007
:1037A000FFF770BB7B4BB3F900304B4393FBF6F351
:1037B0002380FFF767BB0CF091F9FFF763BB002391
:1037C000754C09A823600BF0F3FA236818432060B6
:1037D000FFF758BB0023714C09A823600BF0E8FAEF
:1037E000F5E7581C09901C786D49121A002A0C70D4
:1037F0007FF748AB9A1C09925B78003318BF01230E
:10380000D4E55A1C16AC44F8342D1B78654E20467E
:1038100033720BF0E3FAB08320460BF0DFFA30830B
:1038200020460BF0DBFA099B70835A1C09921B7827
:10383000F3740A9B9B1A032B07DD20460BF0CEFA8C
:10384000B08420460BF0CAFAF084099B0A9AD21A77
:10385000032A0DDD5A1C09921A4612F8021B204653
:10386000B17709925B7886F820300BF0B7FA708454
:10387000099B0A9AD21A052A0CDD5A1C09921B7858
:103880002046F3720BF094FA099BF0605A1C0992DF
:103890001B783374099B0A9AD21A002A7FF7F2AA7E
:1038A0005A1C09921B7886F82130FFF7EBBA5A1C94
:1038B00009921A463C4C12F8021B16AE46F8342DFB
:1038C00021715B78304663710BF088FA099B208088
:1038D0005A1C09921B783046A3710BF07FFA099BA2
:1038E00060805A1C09921B78E371FFF7CBBA5A1C0F
:1038F00009921A782B4B5A75FFF7C4BA002329494D
:10390000099A501C099012785A540133082BF7D1A8
:10391000FFF7B8BA0726B4FBF6F6C6EBC603E41AFF
:103920007FF4CCAADFF888B0F6B2E3B2B3423FF43A
:10393000A9AA4FF0000A099B5A1C099293F900307A
:103940000BEBCA0999F902209A4200F0CA800AF1E9
:10395000010ABAF1040FF3D1FFF7B0BA5A1C099269
:103960001E783F2E3FF6AAAA052C7FF4A7AA09A825
:103970000BF01EFA0D4B43F8260010F0A5FBFFF7E5
:1039800081BA00BF281A0020AB140020AE3A0020F4
:10399000003A00209C3A0020541A0020E017002032
:1039A000141B002034230020402D0020D4260020AA
:1039B000262600205A1C09921A4612F8020B099278
:1039C000DA1C597809929A780EF02EFF00287FF4BD
:1039D00059AAFFF773BA002111226A4814F0CEFEEB
:1039E000102C4FF0000328BF10246649A342BFF4F7
:1039F00049AA099A501C099012785A540133F5E7E4
:103A0000614CFFF74CB82123FFF772B812F8011B85
:103A10004B40FFF78DB813F8011B4A40FFF799B8E8
:103A2000012C1BD1102200210DA814F0A7FE15F8BF
:103A3000053C0D952B440E9315F8033C6E2BADF809
:103A40003C300BD10DA80BF0D4F90DA80BF0C6F942
:103A50000DA80BF0C3F90DA80BF0C0F90024FFF777
:103A60008AB84A4C55F80A0C06F0F3F900283EF4DF
:103A7000F5AD55F80A0C06F0E9F915F8023C0646D2
:103A8000002B7EF4F3AD24287EF4AAAE012305F8C2
:103A9000023CFEF7FCBD09A80BF0ABF909A80BF03E
:103AA000A8F909A80BF0A5F9FFF7ECB9384A007896
:103AB00002F82100D81C0990987802EB81011A1DA8
:103AC00048700992DA7800208A705A1D1B79099291
:103AD000CB7011F073FF2F4B80F001001870FFF7CF
:103AE000D1B989F8023009A80BF078F9099B2BF8B5
:103AF0003A005A1C09921A4612F8021B0134099224
:103B000089F803105A7889F80420DA1C09929A7807
:103B100089F806201A1D0992DB7889F8053004E738
:103B20000C283EF450AD0A2801D00D2820D111F008
:103B300029FF2321284614F0B3FE08B1401B206062
:103B400000222368002B7EF449AD02B1236080225D
:103B50000021284614F012FE019B1B78002B7EF4F6
:103B600035ADFEF72ABD7F287EF45CADFEF7BCBC08
:103B70007F287EF454AD0022013B2360EA540648BE
:103B8000FEF725BD9C1900207FDD00080400FA0522
:103B9000EC17002000000020AEC901082DE9F04F0D
:103BA000B24B9DB01B780790012B07D1B049B14AA9
:103BB0000968C9691180B04909885180AF4D2A78D8
:103BC000002A00F00F85072B40F0008206F074F801
:103BD0000690AB4F3B68089713F4806F05D0A94857
:103BE000836813B100F150019847A74BA7491B68A0
:103BF000B1F906405A890991944280F2EA814FF066
:103C00007E536B60A24B4FF0000893F90410A14A59
:103C1000002914BF01214FF0FF31168B93F801A04A
:103C200093F800909C4F05910A92099B33F918B0C4
:103C3000ABEB06000028B8BF4042B0F5FA7FA8BF42
:103C40004FF4FA70B8F1020F00F0D6814845CCBFAE
:103C5000A0EB0900002015F0E1FFB34547F828006C
:103C6000C0F2D88108F10108B8F1030FDDD1089B3B
:103C70001F6817F4805800F0D481B4F5FA6F23461A
:103C8000A8BF4FF4FA63B3F57A7FB8BF4FF47A73E5
:103C9000A3F57A732A7A22B16A7A5343642293FB9A
:103CA000F2F34FF0640E93FBFEF27C4802F1010C3C
:103CB00030F9121030F91C006FF0630C0CFB02336A
:103CC000401A584390FBFEF0084400B215F0A6FFDE
:103CD000DFF8C4918246C9F80C00B8F1000F1DD07E
:103CE0001D2011F0A5FEC8B16D4BDB78B3B96D494D
:103CF000504615F0DDFE16F0C1F94FF47A7300B2AC
:103D0000000390FBF3F3C6F5FA6000B2584340F3AA
:103D10000F30304415F082FFC9F80C00624B1E884A
:103D200073063BD5614BB3F904000A2390FBF3F013
:103D30002B8AC01A00B215F071FF5D4915F0C2FF61
:103D40005C49054615F0B6FE0BF097F98346284608
:103D50000BF093F9504D81462B685946184608934D
:103D600015F0B0FFD5F804A005905146484615F06F
:103D7000A9FF059A0146104615F09AFE594628609B
:103D8000504615F09FFF089B82461946484615F09D
:103D900099FF0146504615F08DFE6860464B374D41
:103DA0001B6813F0140F1AD016F4027F17D0434B80
:103DB000DFF8E4901A7812F0100200F04781AB7C33
:103DC0006869002B0CBF01234FF0FF33584315F0F7
:103DD00025FFD9F8041015F06DFEC9F80400384B22
:103DE000DFF8B0A01A789946A2B1BAF81A30A34207
:103DF00010DB344B1B78012B01D0192B02D1324A36
:103E0000927B3AB90E2B05D0082B1FBF0023224A04
:103E1000EB63936095F84240002C68D0B60766D0FB
:103E20002A4B2B491E6A304616F0F4F8002840F061
:103E30006081304612F0E6F9696C15F043FF12F02C
:103E400069F9B0F5617FA8BF4FF4617015F0E6FE27
:103E5000204915F037FF0BF010F90646204615F003
:103E6000DDFE314615F02EFF36E000BF0C1B0020B2
:103E70001C230020801A0020B8150020180F0020F5
:103E80006023002088230020443F00207C2900205C
:103E90002C1A002034230020B8220020483F0020A4
:103EA000C029002000007A44A6290020142D0020FB
:103EB00035FA8E3CDB0FC93F101B0020AB140020ED
:103EC00000000020141B002098320020D42C002079
:103ED0008FC2753CD06D393A12F01CF900B215F062
:103EE0009DFE894C0146E06815F0E4FDE06095F820
:103EF0004860002E5CD0854B0420D3F8EC4044F69B
:103F000020639C42A8BF1C46B4F57A7FB8BF4FF42B
:103F10007A74A4B2A5F84A4011F08AFD08B9F800F5
:103F200046D54FF47A73B4FBF3F4642393FBF4F4B3
:103F3000DFF8ECB1142CA8BF1424DBF80030B8F182
:103F4000000F00F0D8805F8E7F086F49EB6CD1F8CE
:103F50000C805A1CEA6405EB430340460892059323
:103F600016F08CF8089A059BA242A3F85000A4BF53
:103F70000023EB64EB6C05EB4303B3F9500015F041
:103F80004DFE0146404615F093FD16F077F800B25D
:103F90000028B8BF4042B84240F3B080DBF80030A0
:103FA000988E15F03BFE5A4915F08CFEC9F80400B6
:103FB0009AF81E40002C00F0DC81022C00F0B28048
:103FC000032C00F0AF81534B5888B0E000230693D8
:103FD000FFE5B4F5FA6F187ABFBFA31A5843C2F5CC
:103FE000FA6290FBF2F0C0F1640015F017FE4A4946
:103FF00015F068FE686005E65045D8BF0020059BB7
:10400000C8BFA0EB0A00584315F008FEB345B860DE
:10401000BFF62DAE57F8281001F1004147F82810DF
:1040200020E60A9B5A8B94420EDBB4F5FA6F2346C6
:10403000A8BF4FF4FA634FF47A719B1A4B43C2F551
:10404000FA62B3FBF2F325E61346F4E7334BD97873
:10405000987871B3B5F91830E11A0029B8BF494210
:10406000814210DDEA6101229C4285F82020C8BF10
:10407000404215F0D3FD0146D9F80C0015F01AFDA9
:10408000C9F80C00ABE695F8201019B1A96A85F8BB
:104090002020696268691844B0F5FA6FA8BF4FF430
:1040A000FA60B0F57A7FB8BF4FF47A7015F0B6FDBC
:1040B000E6E7B5F91820A31A83EAE37EAEEBE37EC8
:1040C00086450BDD022193FBF1F3EB62012385F8BA
:1040D000303085F8203068691044DDE795F82030ED
:1040E000002BF8D0AB6A85F830106B6285F8201091
:1040F000F1E70020F2E6B3F9327026E74FF07E5385
:10410000C9F8043054E700BFB8220020F0000020B6
:104110006F12833A242300200AD7233C2C1A002054
:10412000281A0020B5F84A0000F57A7080B29AF893
:104130001F400234E4B2002E00F00981002800F094
:104140000681904B00261B688F4FB0FBF3F000B246
:10415000A5F8780015F062FD01464FF07E5015F08D
:1041600065FE8046DFF8289207F1100AA642C0F2E9
:10417000E180864B1B78092B11D1854B854E186841
:1041800011F0C8FF844B3080D3F8EC004FF47A7301
:1041900090FBF3F015F042FD15F070FF7080B5F95B
:1041A0007830002B40F3E88000267C4FDFF8E09168
:1041B000A7F11008F3B29C4200F2CF8095F8483086
:1041C0000893002B40F0DA80002C00F08B80022C4A
:1041D000A8BF0224099400244FF07E59704BDFF8E9
:1041E000F0811F68694B1B780A937B1D0B93099B19
:1041F0009C4240F3EF800A9B092B08D1694B654C28
:10420000B3F87820586BA28015F038FFE080664B39
:1042100093F82140002C5FD01E2011F009FC0028EB
:104220005AD0624B1B88590656D45E4F604E97F8A1
:10423000B430A34213D087F8B440204615F0EEFC0A
:104240005C4915F03FFD5C49044615F033FC0AF06B
:1042500014FFB06020460AF010FFC7F8B800D6F887
:1042600008806C6B4146204615F02CFDEF6BD5F8AD
:10427000B86081463146384615F024FD014648466F
:1042800015F016FC4D49814615F0C4FE08B9DFF85B
:104290002C914B49484615F0C7FE08B9DFF820912C
:1042A00041463846C5F8349015F00CFD31460746B6
:1042B000204615F007FD0146384615F0FBFB3F4947
:1042C000044615F0A7FE00B93C4C3D49204615F0C8
:1042D000ABFE00B93A4CEC63089B1BB10022314B9A
:1042E00083F84820374B1B78002B40F06E81364E08
:1042F000B278002A00F06981344C2378013B0D2B01
:1043000000F25181DFE813F006011A014001340286
:104310004F014F014E02620274029002A102E502B7
:10432000EF02F8029AF82000C0EB401300EB830084
:10433000C000FBE65AF8261059F8260015F0B8FB25
:10434000414615F0BFFC47F8260001360EE7B5F8E8
:104350007830013BA5F8783021E757F8260058F867
:10436000261015F0A7FB47F8260049F8260001366D
:1043700020E7A5F8784021E700241FE702230993EE
:1043800029E700BFF41A0020940F00200C1B002026
:10439000B8220020801A0020F0000020A40F002086
:1043A000443F0020180F002034230020A6290020BD
:1043B0000000002035FA8E3CDB0FC93F00C0F944F5
:1043C00000C0F9C488220020003A0020AE3A002044
:1043D0000AD7233C022C15BF3878787897F802B0BA
:1043E00097F809B015F01AFC414615F06BFC4FF038
:1043F0008041064615F022FE60B14FF08041304604
:1044000015F056FB524915F05DFC0146304615F09B
:1044100051FB0646A30005934E4B4F4953F8240029
:1044200015F050FC20F000434C4A0593059B42F8E0
:1044300024000C32824642F82430BBF1000F1FD01A
:10444000584615F0EBFB414615F03CFC83465146BF
:10445000504615F037FC059915F034FC594615F017
:1044600031FC59460C90484615F022FB0C9A014647
:10447000104615F01FFB0146504615F023FC8246FE
:104480003749304615F01EFC514615F01BFC0B9BBE
:10449000064613F8010B0B93F0B115F0BFFB414634
:1044A00015F010FC059915F00DFC2E49824615F00B
:1044B000C5FD58BB0021504615F0A2FD40BB51463A
:1044C000484615F0F5FA0146484615F0AFFC01469E
:1044D000304615F0F7FB06460A9B0C2B05D13046FB
:1044E00015F0CCFD204B23F814002049304615F080
:1044F00091FD00B91D4E1E49304615F095FD00B9DD
:104500001B4E1C4BA200D650013470E64146DBE73F
:104510004946D9E7184B1B78DA0707D580200DF0FC
:1045200069FB08B104F010FF15F052FE1F2011F0D6
:104530007FFA002837D00C23237034E000220F4B81
:104540001A600F4B1A600F4A12685A600323F3E790
:10455000D7A36841B82200206F12033BB40F00209C
:1045600000004843A4707D3F801A002000C0F94439
:1045700000C0F9C44C0F002054290020FC39002051
:1045800094190020F42200200FF048FFBB4DBC4BD3
:104590001A686B686433934205D240200FF016FF0F
:1045A000002800F0C1800FF061FF002800F0AB810F
:1045B00023780C3B022B08D901232370B14B93F8CD
:1045C000BC2012B1002283F8BC20AF4B1B78072B14
:1045D00005D105F071FB069BC01AAC4B98800022F8
:1045E000A84B1A70A84E3378072B40F0D88105F0FD
:1045F00063FB0890DFF8C492D9F804304846984726
:104600004C46002878D00022B9F8B4B089F855207B
:104610009F4DBBF1000F40F02682D9F82420B9F954
:104620003C30984E9B1AC9F83030D9F82820B9F997
:104630003E3009F130009B1AC9F83430D9F82C20EB
:10464000B9F9403099F856109B1AC9F8383007F07C
:10465000A7FF079BD6F8C400C6F8C430181AD6F8CE
:10466000C8300344C6F8C8308A4B93F80080B8F1CC
:10467000000F40F0978115F0D1FA4FF07C5115F002
:1046800021FB834609F12C0A09F59C77C14606F106
:10469000CC08D8365AF8040F15F0C0FA216A15F084
:1046A00011FBD4F83431014638469847D4F8A43188
:1046B000014607F170009847D4F8B8300146DAF89F
:1046C000F800984756F8291045F8040F059015F0A2
:1046D000F1F9594615F0F6FA58F8291015F0EAF9EB
:1046E000059B48F8290046F8293009F10109B9F17C
:1046F000030F07F12407CDD1634C2278072A05D197
:1047000005F0DAFA089BC01A604B18805D4B93F8ED
:10471000E5201D460692002A00F08E82013A83F8B9
:10472000E5201DB0BDE8F08FDFF894814027C24638
:10473000DFF890912B6818F8030068B10FF014FFB0
:10474000D9F80030013F03F1FF33C9F800302B687E
:1047500003F101032B60EDD12B681AF80330002B15
:104760007FF421AF2B604FF0FF336B600423E3E64F
:104770000FF054FE484A5021A2F10C030193262366
:10478000029200934920A2F10A03163A09F052F965
:1047900000287FF408AF4FF0FF32384B18605A60A2
:1047A0000723C9E60FF03AFE0523002100933B4B97
:1047B00002910191A3F10802532009F03BF900286E
:1047C0007FF4F1AE2D4B18600823B5E60FF026FEFE
:1047D00008F0D4FD00283FF4E6AE15F00DFF0028E8
:1047E0003FF4E1AE2E4B1A682E4B1A600A23A3E663
:1047F0001A2011F01DF9A0B12B4B1B888BB92B4B44
:1048000014A91B680E201493079B15930FF0FCFF4F
:10481000234B1A68234B1A600A232370079810F061
:104820003FF80FF0CDFFBEE6214B1B78002BF5D0F3
:104830001A2011F0FDF80028F0D1124B93F8BC308B
:10484000002BEBD109232370EBE70D4B1A680B4BC0
:104850005B68C833934237D2B378032B0BD1154D25
:10486000286804F05BFD00232B60134B1B78022BA0
:1048700001D104F057FF01235EE600BF9419002028
:10488000F4220020180F00200C1B0020801A0020AA
:1048900014260020AD14002056A7010810A9010815
:1048A000901B0020A03A0020A83A0020A43A002043
:1048B000161B0020083A0020F01A00208823002050
:1048C000F0A60108FC39002015F096FE0028C3D19F
:1048D00069E6012A01D10BF001F90D2313202370A1
:1048E00004F098FF5FE6012A04D10AF061FF002876
:1048F0003FF459AE0E23F1E71F2011F099F800287C
:104900007FF451AEB7E7F378002B3FF45EAEA04BD7
:104910001D7815F0010508D19E4BDFF8A0921F7895
:104920009D4BD3F80080BD4219DB9C4B9C4D1B680E
:10493000D5F8C0209A4223D92378012B7FF445AEC5
:10494000974C94F8BC20002A7FF43FAEB378032B39
:104950000FD015F03DFC012384F8BC3035E641460C
:1049600059F8250015F042FB002801F0A08201351E
:10497000D9E780200DF03EF900287FF426AEE8E765
:104980002378012B3FF421AE95F8BC30002B3FF487
:104990001CAE09F089F9002385F8BC3015E6002328
:1049A000089327E615F03AF94FF07C5115F08AF993
:1049B0004C465E467B4FDFF8F0B1059009F12C0ABA
:1049C00009F59C789BF800905AF8040FB9F1170F7D
:1049D00002BFA3199B8F3B8015F020F9216A15F0C7
:1049E00071F9B9F1080F014604D1069011F092FB5C
:1049F00006993880D4F8343140469847D4F8A43129
:104A0000014608F170009847674B81461B78032BDD
:104A100002D111F07FFB38804946D4F8B830DAF87B
:104A2000F8009847DFF8989145F8040F09F10C0356
:104A300053F816100693099015F03CF8059915F0F7
:104A400041F959F8161015F035F8069B099A49F8FE
:104A5000160043F816200236062E08F1240807F146
:104A60000207AFD148E6514B29685B784C46099361
:104A70004FF47A73B3FBF1F31546C3EB431103EB29
:104A80008103DB009BB20593337806920A93454B72
:104A900009F12406B3F90680059B5B080B93059B7F
:104AA0009B4501BF0023B364C4F888303360404B9A
:104AB000EB18B3F93C00B36C0344B36415F0AEF8E3
:104AC000D4F88820571C012FC4F8887009D100231E
:104AD000BBF1010FE067A067C4F8803079D10020F6
:104AE00033E0D4F878900D9249460C9014F0E0FF32
:104AF0008246384615F092F80146504615F096F970
:104B0000494614F0D7FF0C9B01468146E0671846E2
:104B100014F0CEFF514615F0D5F8D4F8801014F0FB
:104B2000C9FFBBF1010F8246C4F88400C4F8789035
:104B3000C4F880000D9A4CD1012FD0DD104615F03D
:104B40006DF80146504615F071F911F0A3FD0A9B6E
:104B50000746032B05D111F0DDFA01230FFA80F887
:104B60000693099B73B3184615F058F8394615F0AB
:104B700047FA38B3069B13B10A4BA3F806800D48D9
:104B800007F0FEFC00220C4B5A609A60DA60B3E535
:104B900054290020DC3A00208C220020F42200203E
:104BA000180F0020801A00200C1B00207223002008
:104BB000882300203C240020142600201C210020F3
:104BC000E40F00200B9AB36C1344059A93FBF2F3A5
:104BD00033600235062D06F1040604F114047FF457
:104BE0005EAF069B13B10F4BA3F80680BBF1010F1C
:104BF00011D100220C4B1B689A621A63DA620B4BCC
:104C000093F8E43023B10A4B1B8823F4806313B973
:104C1000012004F0FFFD074AB2F8B430013BA2F8CE
:104C2000B430AFE7801A00201C230020180F0020AA
:104C3000E429002088230020AC4B5B79002B00F096
:104C40007085AB4B1B78013BDBB285F8E5302378F0
:104C5000072B40F0698505F02FF80C90A54B4FF01D
:104C60007E501B6809936B680F93D5F8E83019469E
:104C70000B9314F01DFFA04B196815F023F84FF0AB
:104C80007E510D9015F0C6F910B94FF07E530D937B
:104C90009A4B002508939A4B9A4C0A93002305934C
:104CA000059BDFF8BC929E0059F82370059A964B3D
:104CB000294653F82280404615F098F9E8B9059B3B
:104CC00009F1B80959F823903846494614F0F0FE26
:104CD000824620F00041404615F092F958B129462D
:104CE000504615F0ABF9002800F0228549464046B1
:104CF00014F0E0FE0746854BF750854BB3F8009063
:104D000019F0030F3BD0059B022B38D0099B93F879
:104D10002EB0584614F082FF7E4BF15814F0D2FFAB
:104D20008246CBF1000014F079FF804601465046E0
:104D300015F066F940B9584614F06CFF51468046AC
:104D400015F068F900B9D046059A734B33F9120093
:104D50000A9BB3F90030C01A14F060FF6F4914F0D9
:104D6000B1FF0146404614F0A3FE19F0010F0E906A
:104D700000F0E4846A4B196814F0A4FF0746694BFD
:104D800038463344D3F804B0594614F091FE94F8F1
:104D9000F8308046002B76D0079AD4F8FC30D31A2E
:104DA000614A126893426EDD099B93F84830022BEA
:104DB00002D1012005F0EEF8059B022B40F098850A
:104DC0005A4B4046D3F8009009F1004A514615F07D
:104DD00017F9002840F0AC854946404615F01AF90D
:104DE00000B9C846089B079A1D60D4F8FC30D31A56
:104DF0004F4A1268934223DC4FF07E510B9815F016
:104E0000FFF800283FD04B4BDFF818A1D3F80090F3
:104E1000DAF80400494620F0004015F0F1F890B3AC
:104E2000DAF80810484621F0004115F007F950B3B0
:104E3000DAF80C10484621F0004115F0FFF810B3E5
:104E40003D4B186810F0020019D03C4B32483C49E9
:104E50001A68B1F90CE0B0F90030A3EB0E03002B97
:104E6000B8BF5B4293420EDAB0F90230B1F90E10CE
:104E70005B1A002BB8BF5B429A4204DD002084F825
:104E8000F80005F087F82F4B0F98F15814F01AFF2F
:104E9000414614F017FF059BDFF8C890022B01462E
:104EA00046F8090006D1284A284B10681B68984725
:104EB000C9F80800089B1B680E93254B5968254BC1
:104EC000186814F0FFFE0D9914F0FCFE224BF15807
:104ED00014F0F8FE414614F0F5FE0E9914F0EAFDC8
:104EE0001E4B1090D3F800A03EE000BF72230020BC
:104EF000001A0020281A0020D82B0020681A002051
:104F00003E1A0020180F0020CC2B00200410002097
:104F1000A6290020B40F0020142D0020CDCCCC3DBC
:104F2000B42B002014260020E02B0020F82B0020BA
:104F3000DC2B0020E82B0020101B0020E42B00209D
:104F4000321A0020882B0020AC2C0020082C0020D6
:104F5000000000207C320020942B0020FC2B00203D
:104F60004C0F00205C1A00200AF10049494615F058
:104F700047F838B9109A51461046914615F04AF84C
:104F800000B9D146059B022B40F0D58494F800313E
:104F9000012B02D0192B40F0CE844FF00103A6491B
:104FA0004046109315F04AF8109B00B90346DBB257
:104FB0003BB10E9B29F0004023F0004115F020F892
:104FC00010B1089BC3F80090059B022B00F099805C
:104FD0009A4A9B4B59461B68B0589847994A9A4B36
:104FE00001461B68B0589847099B814693F83730B3
:104FF000002B00F0AB84954B1B88002B40F0A6845F
:10500000934BF158934B186814F05CFE4FF07E51AF
:10501000824614F0FFFF08B94FF07E5A8E4B50467F
:10502000196814F04FFE0146384614F04BFE49460D
:1050300014F03EFD894B8146F15814F039FD884B40
:10504000196814F0F3FE854B074646F80390099B58
:1050500093F84830002B4AD0824B1B78D80740F198
:1050600078844FF07E510B9814F0DEFFF8B194F87D
:10507000F830E3B97C4B27F00040196814F0DEFFEC
:10508000A8B17A4B28F00040196814F0D7FF70B12E
:10509000774BF058774B20F00040196814F0B0FFC0
:1050A00028B1012384F8F830079BC4F8FC3094F849
:1050B000F830E3B1079AD4F8FC30D31A6E4A12687C
:1050C000934214DA694B28F00040196814F098FFF5
:1050D00040B9674BF058674B20F00040196814F056
:1050E000ADFF20B1002084F8F80004F053FF634BBB
:1050F0000F98F15814F0E6FD394614F0E3FD604BCB
:10510000985194F80C312BB95E4BF550089B1D60FB
:105110005B4BF550059B01330593089B04330893C3
:105120000A9B02330A93059B032B7FF4B9AD564EBD
:105130003278072A05D104F0BFFD0C9BC01A534BEF
:1051400058803378012B40F00B8404F0B5FD5049B2
:10515000D4F810314D4A0968C31A93805B1A07903E
:10516000D380C4F810014B4B4B4E1B6893F82C7046
:105170004A4B1B6813F4805F00F05384394BB4F83A
:1051800016811B784046D90758BF454BF6685CBF6F
:105190001B8BA4F8143114F041FD814601463046C2
:1051A00014F038FF002800F0E6833E4BD4F81C11C1
:1051B0001868C4F82011C4F82411C4F8180114F0B8
:1051C00077FCFF23C4F8280184F82C31304614F012
:1051D0007BFF3146A4F81401484614F069FCC4F87A
:1051E0003001D4F834512946D4F8300114F01EFEB1
:1051F0004FF07E51054614F00DFF08B94FF07E5573
:105200000021284614F010FF00B90025DFF8749043
:10521000DFF898A0C4F83051DAF80010D9F800008F
:1052200014F048FC164B196814F044FC1E49099010
:1052300014F048FD3CE000BF000096420C2C00201A
:10524000002C00205C2C0020042C0020A62900202B
:10525000C00F0020B02B0020AC2B00201C10002021
:105260007C32002054290020F02B0020EC2B002061
:105270004C0F0020F42B0020E02B0020A02B00205E
:10528000741A00205C1A00200C1B0020801A0020D9
:10529000F41A0020281A0020B822002060230020E1
:1052A00034230020D83A00206F12833A681A002075
:1052B000B04B80461C6804F10046314614F0A0FE55
:1052C000002840F0CD832146404614F0A3FE00B9EB
:1052D000A046DAF80410D9F8040014F0EBFBA64B52
:1052E000596814F0E7FBA5490A9014F0EBFC8146DD
:1052F0000146304614F0A2FE30B949462046264603
:1053000014F088FE00B94E469D4B99689D4B9868F5
:1053100014F0D0FB99490B9014F0D4FC9A4B8246C0
:10532000D3F8009009F10044214614F069FE30B929
:1053300049465046544614F06DFE00B94C46934B16
:105340005B780BB904F100442FB3914B5A7912B337
:10535000904A1778FFB1187814F05CFC8146384603
:1053600014F05CFC0146484614F0ACFC8A4B07463E
:10537000188814F04FFC0146384614F057FD874951
:10538000074614F047FE00B9844F4FF07E5138466F
:1053900014F04AFE08B94FF07E574FF0000A804BD8
:1053A000D3461B78DFF8409208930023089A934273
:1053B000C0F258835146584614F07AFB794C4FF0AE
:1053C0007E51C4F8E800064614F038FE002800F0CC
:1053D000898331464FF07E5014F028FD00250746A2
:1053E00014AE089BAB4200F3748310F027FB18B196
:1053F0004FF07C53C4F8303194F92C0114F00EFCBA
:10540000D4F830310C900D93D4F82831D4F8180129
:105410000E93D4F8243100250F93634BDB7811935E
:1054200014F02CFE8146D4F8200114F027FE5F4BC7
:105430008246D3F800B0584614F020FE80465C4BFC
:105440001E6806F0100312935A4B06F480561C781F
:10545000594B04F00104B3F90670584B5B8B109361
:10546000089B9D42C0F061832CB9554B554A089961
:10547000A14200F398834B4BD3F8C821002A00F0D7
:10548000B68493F80031192B00F2D78001229A409C
:105490004D4B1340002B00F0D0804C4B474C1B88E9
:1054A00013F4807F00F09883494D286814F0E6FDDE
:1054B000ADF85000686814F0E1FDADF85200A8683E
:1054C00014F0DCFDADF854004FF47A724FF46161D2
:1054D0004048B0F9023003F5E163534393FBF1F325
:1054E000A3F5FA73ADF86830B0F9003003F5E16365
:1054F0005A4392FBF1F2324BA2F5FA723649186820
:10550000ADF86A2014F0D4FA14F0B8FD2A4A238BBF
:105510001188ADF85600C91AADF858105188C91A4B
:10552000ADF85A109188C91AADF85C10D188C91A23
:10553000ADF85E101189C91AADF860105189C91A09
:10554000ADF862109189D289C91AD31AADF86630C4
:105550000023ADF864101946204A22F813100133D5
:10556000082BFAD14FF00C0964271D4B1D4C1B78FA
:105570003CE000BF80320020741A00206F12833A92
:10558000681A00205C1A002084320020141B0020BE
:10559000AE290020B6220020A2220020713DAA3FA1
:1055A000DC3A0020180F0020C02900208C220020A7
:1055B00060230020542900207C290020342300206F
:1055C000881A00201C21002032413003A629002027
:1055D000B8220020142D00200080BB44E01A0020D7
:1055E000393100203A31002060100020AE4DC3EB6D
:1055F000C3032344DFF8BC82DFF8BCA20A930A9BF2
:10560000A34240F00B8300254FF00C096427A74EFE
:10561000DFF8A08209FB0583B6F9024093F90A007E
:10562000444394FBF7F4E8B274800EF09FFC01351C
:105630002044082D26F8020FECD19D4C9D4D236887
:1056400013F0200F30D000200EF090FC9A4E8046D0
:10565000308001200EF08AFC07467080082010F090
:10566000E7F908B3954B95F90A1093F8EE31012B41
:10567000934B40F04583484295F91620B3F9021048
:10568000B3F900304143534332206FF0310291FBB4
:10569000F0F193FBF2F293FBF0F00A44A8EB020264
:1056A0003280084438447080DFF8009200234A4674
:1056B000EE18B6F90410B2F90200B6F90660884295
:1056C00003DB86423146A8BF01460C33602B22F82B
:1056D000021FEDD17B4EB389002B40F02183774F21
:1056E00097F80031013B182B00F24A83DFE813F0F2
:1056F0003A0348034803AC034803480348039903AB
:1057000048034803480348034803B80348034803D1
:10571000480348034803AC03C90348034803B803DC
:105720003A030123FFF791BA00230C93FFF796BACF
:105730004146484614F0BCF9FFF7DCBAD4F8A8900B
:10574000D4F8AC804946404614F06EFC00B9C84617
:105750005B4BB3F90000B3F902300028B8BF4042F8
:10576000002BB8BF5B429842B8BF184614F056FAF7
:10577000554914F0A7FA554B82461B78002B57D099
:10578000534B2946D3F800B0584614F057FC002874
:1057900000F087804F4B2946D3F80090484614F01C
:1057A0004DFC00287DD008F100404B4914F08AFAE6
:1057B000594614F03BFB4FF07E5114F07BF95146F3
:1057C0008046484614F074F9494614F02FFB4FF018
:1057D0007E51814614F01EFC08B94FF07E592946CF
:1057E000484614F021FC00B9A9464146484614F049
:1057F00069FA8146394B0E98196814F063FA4FF034
:105800007E518046484614F005FC08B94FF07E5999
:105810002946484614F008FC00B9A94649464046C6
:1058200014F050FA0146384614F044F9FFF7A6BACE
:105830002B4B2C49D3F80090484614F0E1FB60B3A1
:1058400049464FF07E5014F033F9274914F03AFAE4
:1058500051468346254814F02BF90146584614F06A
:1058600031FA494614F026F9194B196814F02AFA4E
:1058700081462946484614F0CDFB90B94946164862
:1058800014F0D4FA08F100480146404614F01AFA20
:105890004FF07E5114F00EF9ABE70D4BD3F80090AA
:1058A000E7E7A946A6E700BFE6100020DE1A0020C1
:1058B000602300201C320020E01A0020180F002076
:1058C000142D002098320020CDCCCC3DC02B0020E0
:1058D000BC2B0020C42B00200000C842B82B0020A5
:1058E000C82B0020AE47813F610BB63B000034431C
:1058F000B04B1B689B077FF575AA0A9B059AB3F905
:105900000000AD4B33F91230C01A14F087F9AB4BDD
:105910000746AB49186814F0D5F90146384614F02B
:10592000D1F95946074614F0C3F88046FFF75ABA32
:10593000D046FFF757BA4FF001034FF07E51D4F82D
:10594000E800109314F070FBFFF72EBB2946FFF719
:105950006BBB94F8F830002B3FF4C9ABFFF7C2BB28
:10596000072B04D104F0A8F90790FFF7FCBB002334
:105970000793FFF7F8BBB4F8380114F04FF98146EC
:105980000146304614F050FBF0B18E4BD4F83C1178
:105990001868C4F81811C4F82411C4F8200114F0D0
:1059A00087F80123C4F8280184F82C31304614F01C
:1059B0008BFB4946A4F81401304614F079F8C4F87A
:1059C0003001D4F840510EE4B4F81431434514D8F2
:1059D0007D4BD4F81C111868C4F82011C4F81801C4
:1059E000C4F8241114F064F8FF23C4F8280184F8E3
:1059F0002C31C4F83051FFF7F4BB724BD4F83C1192
:105A00001868C4F81811C4F82001C4F8241114F05F
:105A10004FF80123C4F8280184F82C31C4F8305120
:105A2000CFE76A4B588B14F0F9F80146F06814F090
:105A30003FF8654BC4F830011968624BC4F818117F
:105A40001868C4F82411C4F8200114F031F80123B7
:105A5000D4F84451C4F8280184F82C31FFF7C3BBB3
:105A6000B04636E4D9F8041040460D9314F02AF9F4
:105A7000D9F808100C90304614F024F90C9A01461D
:105A8000104614F017F8D9F80C100C90204614F0BA
:105A900019F90C9A0146104614F00CF8394614F026
:105AA00011F959460C9014F0C9FA0C9A0D9B70B973
:105AB0001146504614F0AEFA0C9A0D9B00B992466E
:105AC00014A941F8232009F1100901336EE493462B
:105AD000F6E756F82500394614F0F4F846F82500A4
