:020000040800F2
:1000000000500020498F0108FD8F0108D5D300085A
:10001000FD8F0108FD8F0108FD8F01080000000021
:10002000000000000000000000000000FD8F01083B
:10003000FD8F010800000000FD8F010839EE000867
:10004000FD8F0108FD8F0108FD8F0108FD8F01085C
:10005000FD8F0108FD8F01088F41010899410108BA
:10006000974101089541010893410108D98800088A
:10007000C9880008B9880008A9880008998800087C
:100080008588000871880008FD8F0108FD8F010830
:10009000FD8F0108FD8F0108FD8F010891410108C6
:1000A000FD8F0108DD540108FD8F0108CD540108C2
:1000B000C1540108B1540108A1540108FD8F010881
:1000C000FD8F0108FD8F0108FD8F0108FD8F0108DC
:1000D000FD8F0108F1830008E9830008E18300082F
:1000E0008D410108FD8F0108FD8F0108000000000F
:1000F0000000000000000000000000000000000000
:0C01000000000000000000005FF808F1A3
:100110002DE9F04F0025AE4CA1B04FF48062294686
:10012000AC48257017F040F9AB4B1D6008F0C8FFD4
:1001300018B909F06DFB08F0E7FF09F0A1F80021FC
:10014000084614F06AF82378A44E43F001032370A4
:10015000002309930A930B934FF4E0130C93336835
:1001600043F480333360B36943F01003B361336801
:1001700003F400330A93099B013309930A9B1BB9CB
:10018000099BB3F5A06FF2D1336813F4003300F08C
:100190002F8302230B93924B92491A68884642F0B0
:1001A00010021A601A6822F003021A601A6842F0FC
:1001B00002021A607368736073687360736843F453
:1001C00080637360884B1A68043B22F070425A6067
:1001D000864A0A60726822F47C1272605A6842F0A1
:1001E00000425A60DA6822F40042DA609B6813F435
:1001F000004F17BF7E4B4FF4E0130B604FF480139A
:100200000C930B9B012B00F00B83022B05D10C9B55
:100210007268134343F480337360336843F0807330
:10022000336033689B01FCD5736823F0030373606C
:10023000736843F002037360736803F00C03082BC8
:10024000FAD173686B4D03F00C03042B00F0EC82C1
:10025000082B00F0EC82654B2B607368DFF8DC91B3
:10026000C3F303134B449A782B684FF0000AD34032
:100270002B60614A614B624CD3604FF6FF72B369E9
:100280000DF1800B43F00103B361736A20AFC4F832
:10029000A431736A43F080737362B36943F01C0343
:1002A000B3612BF82C2D02F1804202F601021046B8
:1002B000594603928DF856A008F060F95946514806
:1002C00008F05CF95946504808F058F910218DF8AB
:1002D0003A1002218DF83B104FF40071039A27F871
:1002E000481D10461161394608F048F947495846FB
:1002F0004A6842F000724A600CF0A7F8159B444A25
:10030000B3FBF2F3434A1360434AD36843F080736C
:10031000D360424A136843F0010313604FF47A72CA
:100320002B68C4F8A8A1B3FBF2F3013BB3F1807FC3
:10033000C4F8ACA109D23A4A2F495360F02381F89E
:1003400023300723C2F808A01360364D4FF0010A8E
:100350006B7B354A003318BF01233448D371D37304
:100360002749334ADFF8D8C0002330F802EF4EFAAD
:1003700003FB1BF0010F18BF0AFA03FB03F1010393
:100380001EBF0A60A1F804B00C31102BEFD102F5AA
:1003900080626245E8D1D8F80030144A934240F0B8
:1003A00059820122234B1A700021AB68DFF8948038
:1003B0000846C8F8003013F0E0FE0021012013F0D9
:1003C000DCFE4FF0170B00234FF0020A1A4A3BE005
:1003D00004240020182400201424002000100240CF
:1003E00000200240EC0000200410014000127A00BE
:1003F000001BB7004C03002000ED00E00005FA05EB
:10040000D0030020000C014000100140000001401A
:1004100040420F0034160020F0ED00E0001000E034
:1004200010E000E0E01B0020B4000020B8910108BB
:1004300000080140940F0020C0910108A891010814
:1004400000140140DC22002052F82300013358B18F
:10045000037280F806B080F807A01221049203937B
:1004600013F010FD049A039B032BEDD100210846E5
:1004700013F083FE0021012013F07FFEB3694022B8
:1004800043F00103B3610021C84816F08DFF4FF01F
:10049000FF33C74AC4F8F0310021C2F8033001200D
:1004A00013F0BBFED8F800301E070FD595F8C43105
:1004B000012B0BD807F08DFF95F8CDA1064628B982
:1004C0000AF1FF3ABAF1090F41F21F874FF4FA70AF
:1004D00015F041F9A0220021B64816F065FF00266C
:1004E000DFF800A30AF1A80B002356F80A005BF816
:1004F0003320D900904240F0DF8109EB010393F8EB
:10050000D0000C3616F06EFBA82EEDD14FF0040B88
:10051000D8F80060A84A06F040030493A74BDFF820
:10052000C8921A6000213022A54889F800B016F060
:100530003BFF0023594618464FF0FF0ADFF8ACE2B4
:10054000DFF87CC21EF9012F03EB0C0B03929DF820
:100550000C2003F80C20049A52B9039A1E3AD2B226
:10056000012A9FBF012001F1FF318BF800A0C9B221
:100570000C33302BE6D108B189F8001095F8182219
:10058000904B84F89C22C4F8A03202F0EF03082BB1
:100590008D4B196802D00E2A40F094810E2A41F04A
:1005A000100040F0968141F050011960874B4FEAEE
:1005B000C20EC4F8A432864B03EB0E01487889784A
:1005C00084F8A80284F8A9120C21824801FB0201D8
:1005D0004978002940F08281C6F3401184F8AA12BC
:1005E000002940F07D81C6F30056002040F2DC5C1B
:1005F000C4F8AC62784E26F810C001300828FAD151
:10060000002940F06F81173A022A09D812F0AAFB9C
:1006100094F8B03223B10123C4F8AC3284F8AA3282
:100620001C220021384616F0BFFE95F818320E2B1A
:1006300003D003F0EF03082B02D101238DF84C30D7
:1006400001200EF043F918B14088003018BF012096
:10065000D8F800308DF83E00C3F340028DF84120F9
:10066000C3F380128DF84320C3F340328DF8392054
:10067000C3F3C0328DF83C2013F4006204D095F827
:100680003A21501E424242418DF83D20C3F30042C0
:100690008DF8442003F001028DF83A20C3F3C00224
:1006A0008DF83B2094F8AA22003218BF01228DF861
:1006B0004520C3F300528DF84620B5F88620ADF8EA
:1006C0004A20B5F88820ADF8482095F87C20511EC6
:1006D00002298CBF002101218DF84210B5F87A1053
:1006E0008DF84D20ADF84E10B5F87810ADF85010DB
:1006F000D90444BFB5F88230ADF85030042A08D18F
:1007000000244FF480508DF8424008F0A7FDADF86A
:100710005040D8F800303148C3F300738DF83830BA
:1007200095F81432782280F81133002100F54570D5
:1007300016F03AFE9DF84C30BDF83A20002B14BF5D
:100740000223002302B10133254A244C02EB830328
:10075000D3F8EC300493002303931E4602F12403E4
:1007600005934FF6FF72049B33F81630934200F066
:1007700043829DF83E20DDB21B0A5FFA83FA002A0D
:1007800000F0D2800C22164902FB051292F82820B4
:10079000123A012A00F2C880032294F8153301921C
:1007A00094F814230092B2B201211EE280050020C9
:1007B000C0050020CC050020081E0020A422002037
:1007C000A8220020F41B002064230020701C0020BD
:1007D000A8A20108989E0108EC0F0020D003002079
:1007E000A8910108CC910108182800202B9E01082F
:1007F000326842F0010232600993336803F0020369
:100800000A93099B013309930A9B1BB9099BB3F512
:10081000A06FF2D133689A0701D50123BAE4FEE74D
:10082000736843F46013F7E4D8F8003014E5736894
:100830007268C3F38343D70303F1020302D4A64AC9
:10084000534309E5726812F4003FD8F8002018BF3E
:100850005208F5E7A14A93427FF4A6AD0222A1E532
:100860000021084613F089FC0021D4F8F80113F0A8
:100870007AFC782014F064FF0121002013F07DFC45
:100880000121D4F8F80113F06EFC782014F058FF21
:10089000013695F8CD319E42E2DB95F8CE31012B41
:1008A0007FF414AE07F095FD00287FF40FAE85F8B5
:1008B000CD0108F043FF09E60133042B7FF417AEA6
:1008C00000201EE621F010011960196821F0400196
:1008D0006BE6182A3FF467AE1860F6E701217DE663
:1008E0000E4682E613F832607344D3F804E084F8CD
:1008F000B062BEF1000F3FF486AE00204FF0060953
:10090000DFF8F4C1B042BFF67EAE09FB00F30EEB98
:100910000301D1F800B003EB0C0A43F80CB08B884C
:100920000130AAF80430EDE79DF8432042B10C22D3
:100930006B4902FB0512516A6A4A91423FF42CAF9F
:100940009DF8441041B10C22654802FB0502506A33
:10095000644A90423FF420AF9DF8412042B10C22FE
:100960005F4802FB050292F82820142A3FF414AFD6
:100970009DF83C2042B10C22594802FB050292F836
:100980002820112A3FF408AF9DF83D2042B10C22E7
:10099000534802FB050292F82820212A3FF4FCAEBE
:1009A000022B40F090809DF83930002B00F0208120
:1009B0009DF8453083B19DF84C306BB9A5F1080323
:1009C000012B09D80C23464A03FB05235A6A464BE0
:1009D0009A4208BF4FF0040A0C27059B07FB053716
:1009E0009DF846304BB19DF84C3033B9002970D09A
:1009F000A5F10C03012B40F25384BAF1010F7DD114
:100A0000FF230C224FF0000984F8D03384F8D1334F
:100A1000334B84F8D89302FB0535C4F8E47395F89A
:100A2000280084F88C93C4F89093C4F89493C4F885
:100A30009893C4F8CC9384F8D29384F8D39384F831
:100A4000D49313F0F9F9022280F807A0827180F89C
:100A5000089095F82C1013F015FA4A4695F82910CD
:100A6000686A0EF0D1FB52464946384614F0F4FD50
:100A70001E4B1F4AC4F8E8331E4B111FC4F8EC3359
:100A8000C4F8F093384614F02BFD202294F8163366
:100A900004EBC30383F81D2394F81833013384F85F
:100AA000183394F81533CDF8049094F81423009279
:100AB000B2B20021132013F097FB94F816330133E0
:100AC00084F8163394E0012B7FF472AF9DF83A302E
:100AD0006BE72B1F032B8EE700093D00001BB700BF
:100AE000A891010800040040002C0140553A01087B
:100AF000BC070020A13B010881060020BAF1020FCB
:100B000062D14FF01C0A9DF80C300C210AFB03FA4D
:100B100004EB0A094FF0000B89F8D93306934FF024
:100B20000103254A89F8D83301FB052589F8DAB392
:100B300095F8280089F8E2B3C9F8E47313F07CF95A
:100B40004FF001038371C371069B95F82C1001339C
:100B5000037213F097F95A4695F82910686A0EF057
:100B600053FB01225946384614F076FD134B1449C5
:100B7000C9F8E833134B0AF114020AF1100A0A44C7
:100B8000C9F8EC33C9F8F0B35144384614F0A8FC66
:100B9000402294F8163304EBC30383F81D2301228B
:100BA00094F81733013384F81733039B013303930D
:100BB00094F81533019278E7A89101080D3C0108DB
:100BC000A80700202D3A0108BAF1030F40F0648312
:100BD00094F81593B9F1050F40F2E58201210191D6
:100BE00094F81433B2B200934B46122013F0FCFA7F
:100BF00001360E2E7FF4B5AD0025CE4CCE4E94F8C6
:100C00009C123570A1F11703022B00F292834FF072
:100C1000000B04F59B6AD4F8A0325946585903EBEF
:100C2000050917F02FFF002800F07583D8F8003071
:100C3000DB0400F19A8312F029F99DF8423013B9D0
:100C4000012384F838350021022013F0E6FABB4A6C
:100C5000BB4E13781C2043F0040313703378012B30
:100C60008BBF012700270025012513F0E5F884F844
:100C70004075C4F83C0558B1112282710222C2713C
:100C80000022954202720CBF1221162113F0FAF8CD
:100C900000200EF0E9F8152384F8DE30022384F8F2
:100CA000DF300023122184F8E030A64813F05EF80C
:100CB000B4F8DC30D4F8D820A34D1B041361287E8F
:100CC00015F090FF01232A7E02F01F015209022A2B
:100CD00003FA01F300F06F83032A00F07183687D4B
:100CE00013F0AAF84FF00C080B234FF00209C37160
:100CF00080F8068080F808900746E87D13F09CF89D
:100D00000D2380F80680C37180F80890A87D13F049
:100D100093F81B2180F8068080F8078080F80890FF
:100D2000384613F0AFF8E87D13F086F8072113F08A
:100D3000A9F8A87D13F080F81B2113F0A3F8287DF3
:100D400020B113F079F8132113F09CF82A697F4B36
:100D50009A4240F03A8303F56043D96841F48051E8
:100D6000D960D96821F48051D960AB8B002B00F099
:100D7000488300200346118801F4415141F4457134
:100D80000B4303431380938B287D23F400631B04E0
:100D90001B0C93830723138213889BB243F04003F9
:100DA000138018B113F048F813F0D8F92C2013F081
:100DB00043F89F238DF8343000230390C4F8440592
:100DC00032208DF835308DF836308DF8373014F00C
:100DD000C2FCD4F8440513F058F804220DA915A854
:100DE00008F0ACF8D4F8440513F0B8F99DF8563083
:100DF0009DF855201B0243EA02439DF857201343F8
:100E0000534A93421BD0322014F0A5FCD4F8440579
:100E100013F03BF8F52008F0C9F8FF2008F0C6F8F9
:100E20008DF85400D4F8440513F098F99DF8543027
:100E3000702B04D13378022B01D103233370337824
:100E4000032B0CBF1F2002200DF0BBFC3378032BBB
:100E500000F0DA82012007F047FD4FF014083D4B07
:100E60003D4D1F68424600212846049307F4004B7D
:100E700007F4006996F800A016F096FABF0748BF7D
:100E800085F80080BBF1000F01D011236B71BAF11E
:100E9000010F84BF1523AB72B9F1000F01D02123DC
:100EA000EB73DFF8B4904FF00F0AC84600254FF0FF
:100EB000060B2A4B03F1FC0298F8000028B30692B7
:100EC0000593002712F0B8FF394680F806B080F885
:100ED00007A0077212F0D6FF98F80000069A059B4B
:100EE00012F817E07900864540F09982194491F88C
:100EF000FD10072088F80400012088F80110691C03
:100F000088F8025088F80300CDB20AF1010A5FFAAE
:100F10008AFABAF1130F08F10508CDD1104A492019
:100F20005368104F43F44043536015F05BFE20209C
:100F30001AE000BFD00300205C3B00200424002006
:100F4000940F0020A8040020C400002000300140BD
:100F500015202000DC22002014230020A891010885
:100F6000001002400800024015F03CFEB6480BF0AD
:100F7000FDFA0023179319931F93B44B022D159379
:100F8000B34B15A9169334BF002380231A934FF453
:100F900080731B934FF480631C9320231D934FF4A5
:100FA0000053384618951E930BF0C2FA012D94BFDA
:100FB000002101213B68A74A43F001033B605368CD
:100FC000013D23F4702323F4807343EA012353602B
:100FD0009168A14BEDB20B4043F4602343F0020350
:100FE0009360D36A4FF01F0E23F4700343EA055554
:100FF0004FF007080123DFF89CB2D56299F803107F
:1010000031B399F801105F1C0929FFB299F8045017
:1010100040F20B82A1F10A00D2F80CC000EB4000B4
:1010200008FA00FA2CEA0A0C05FA00F040EA0C0073
:10103000D060062B00F20682013B506B03EB83036A
:101040000EFA03F520EA05009940014351633B463F
:1010500009F10509CB45D1D17E4B9A6842F48072E3
:101060009A609A6842F001029A609A6842F0080217
:101070009A609A681507FCD49A6842F004029A6054
:10108000744B9A685007FCD49A6842F4A0029A60A4
:1010900007F09FF90546F8B92946032013F0BDF87B
:1010A0000121084613F069F82946284613F065F82F
:1010B0000525012012F04CFE002012F049FE6420AC
:1010C00014F049FB013DF4D12946284613F055F8A8
:1010D0002946012013F051F80AF028FF049B5F48CD
:1010E0001B685F4D190644BF5E4A5F4B4FF000011D
:1010F00048BF1A605D4B5422C4F8483516F054F9C5
:1011000033782320012B98BF013D14F024FB0DF10F
:1011100022020121752007F033F8504C002800F01E
:10112000AB81534B0DF123022363524B01216363C7
:101130004323002084F82C3007F022F89DF8233058
:1011400003F07E038DF82330002840F0E9819DF8FC
:10115000223003F07E03682B8DF8223040F0B282FB
:101160000223062184F8283015AA236B08469847E5
:101170009DF859309DF857209B00520002F0020262
:1011800003F0040313439DF8552002F001021343BA
:10119000DAB2002B00F08982012A40F07A82002323
:1011A00084F82930C5E19DF84DA0BDF84EE00AF164
:1011B000FF32BDF850309DF83800032A34D8DFE8FC
:1011C00002F0362D3002182100232B4D2B4A0090BF
:1011D0004A43B2FBFEF2384692B212F05BFE284B55
:1011E00043F829009DF84230C5601BB3192294F8DA
:1011F000163304EBC30383F81D2394F8162394F8E5
:101200001533013204EBC20282F814330133DBB22E
:10121000C2F8187384F815330222CBE4194D182153
:10122000D4E7194D4821D1E7184D0121CEE7184DDB
:101230000821CBE794F81633BAF1040F04EBC3038B
:101240000CBF0D220922D6E7080002404C240140C1
:101250002823002000240140FDF7F1FF980F002013
:10126000A99101081E1D0020243B0020E01C002045
:1012700081810008FD810008E93B010840420F0020
:10128000603B0020A93C0108753C0108D93B0108DE
:10129000D53C010828230020BAF1040F7FF4A8AC44
:1012A00094F814531FFA86F9072D07D9022294F8EF
:1012B0001533019200954A46FFF776BABDF84810FB
:1012C0008E4ABDF84A3092FBF1F29DF8381092B286
:1012D00000913846012112F0DDFD0A22032194F825
:1012E000163304EB8505013304EBC30383F81523A0
:1012F00094F81423C3F8187383F814230132D2B27C
:1013000084F81423C5F8B80494F8153300920191B9
:101310004A46FFF7CEBB05EB0A0799E80F0087E8BE
:101320000F00337810350133602D33707FF473ACC8
:101330007CE40C234B43724AD11812F803E0D1F835
:1013400004C086F800E0BCF1000F3FF46FAC04F578
:101350009B697545BFF66AAC2B0103EB0907634433
:101360000FCB013587E80F00F3E73678012E7FF6C3
:1013700062AC4FF07C57634B1D1D03EB061303F16A
:1013800014061035AE423FF456AC394655F80C0CF5
:1013900017F0E4F9394645F80C0C55F8100C17F025
:1013A000DDF9394645F8100C55F8080C17F0D6F958
:1013B00045F8080CE5E7544AD1680B43D3608EE446
:1013C000514A11690B43136189E4504B9A420AD187
:1013D00003F5EC33196941F480411961196921F46D
:1013E00080411961C1E44A4B9A427FF4BEAC03F5D7
:1013F000EA33196941F400411961196921F4004186
:10140000EFE701200223B6E402200DF05FFA002886
:101410003FF420AD4388002B3FF41CAD1DE50137A0
:101420000A2F7FF45DAD002163E5106901EB410CEB
:1014300008FA0CFA20EA0A0A05FA0CF040EA0A0057
:101440001061F6E50C2B0BD8073B106B03EB830305
:101450000EFA03F520EA0500994001431163F6E511
:101460000D3BD06A03EB83030EFA03F520EA050077
:1014700099400143D162EAE5264E96F84C3513BBFC
:10148000039A0399C6F8502514228A710E22CA7154
:101490000A460B721046132112F0F4FC1B4A138803
:1014A00023F040031B041B0C1380138823F0380324
:1014B0001B041B0C138013889BB243F04003138062
:1014C000012386F84C3515AA0121752006F05EFE31
:1014D0009DF85430A3F17002012A03D9AF2B01D03B
:1014E000122B26D1052384F82830432384F82C308E
:1014F000094B2363094B63631BE000BF40420F00AD
:10150000989E0108A8080020001002400038004002
:10151000003C0040D00300208D810008BD81000800
:10152000682B7FF414AE012384F828301D2384F83F
:101530002C306562002594F8283084F82250042B62
:1015400040F0C486AD4B2360AD4B07256360AD4BC7
:10155000E360AD4B6361012384F8223000232A4607
:10156000019300931946092012F03EFE002D00F071
:10157000C386A64EA64F3570A64D3B68D5F84825C4
:1015800043F0010390793B6060835388517912796D
:10159000AA46B146002A00F09B80002814BF4FF4F1
:1015A0007A737D234B434A1E85F8542563649A4819
:1015B00023689847DAF84835DB795BB10025974E08
:1015C000DAF848357019626CD9791C3513F0A0FB34
:1015D000542DF5D1924B9A7C0693022A7BD1069B1F
:1015E000DA89904B93FBF2F39BB28F4E3C220021A1
:1015F0003046059315F0D8FEDFF848E206F11405F1
:10160000BEE80F000FC59EE80300238D85E80300A8
:10161000834D864A738295F8093107925370002BE7
:101620005FD0022B5BD9082B5BD1B37C042B40F03D
:1016300053867F4B33607F4B4FF0080B7360012361
:1016400073744FF000085A46CDF80480CDF800803E
:10165000434641460A2012F0C7FDBBF1000F43D1BB
:1016600000234FF0000A744E95F81B81F360079B2E
:1016700086F808A083F80380B8F1000F06D0B8F10F
:10168000020F52D9B8F1040F00F0E0804FF00008CB
:1016900063E0022A01D1012382E503F00303032B57
:1016A000F9D0032014F061F843E7236B0DAA012160
:1016B0000C2098479DF8343013F00F03F1D0042B21
:1016C000E9D16CE5702B04BF042384F8283030E79F
:1016D00085F854256AE708F05DFB83B285E7012BA6
:1016E000A2E74FF0000BACE73B6889F801B043F08C
:1016F00002033B604FF480734B4833813368984753
:10170000059BF3629AF8AC35002BA9D0DFF838B10D
:101710000BEB0800F26A9AF8AC1508F11C0813F0FC
:10172000F7FAB8F1540FF3D19AE74FF0050B15AB68
:1017300001220A211E208DF854A007F0C7FB0028C3
:1017400055D09DF85430482B51D13C4B4FF00208F6
:1017500033603B4B7360032333724FF0000A424601
:10176000CDF804A0CDF800A0534651460C2012F04D
:101770003BFDB8F1000F40F08980254A136823F043
:101780000803136095F800310BB184F8223095F806
:1017900008310BB1244A537495F81A3103B13372EE
:1017A00095F80931012B0ABF99F80120002385F82B
:1017B000092195F81621012A02BF99F8023085F80F
:1017C0001631134695F81B21012A02BF99F8033000
:1017D00085F81B31134695F82521012A40F09880A1
:1017E00099F8053085F8253107F08EFC93E0BBF1C0
:1017F000010B9CD1B8F1010F46E700BFF38500084B
:10180000577F0008477F000890C1793DF0220020F3
:10181000D8220020D0030020980F002028090020A3
:10182000E01B002040420F0060320020F00000204A
:10183000317F0008997F0008F82200201158010824
:10184000FD800008C40F002080090020049B1B6855
:101850001A067FF51BAF274B274A1B6819780C2304
:101860004B43D118897800293FF410AFD35C012B8A
:1018700006D0224B4FF004083360214B73606CE7B5
:1018800002200DF0FFF80028F3D1FFE601213B68AC
:10189000084643F0080389F803803B6012F06DFCB2
:1018A0003368984780465146012012F066FCB8F133
:1018B000000F00F017856420069BB3F9183193FBE5
:1018C000F0F700FB173000B216F0F4FE0D4916F0E9
:1018D00045FF8046384616F0EDFE0146404616F0BC
:1018E00035FE094916F03AFF0122084BF0601A70E4
:1018F00048E700BF243B0020689E010899FF0008CC
:10190000F1FE00088988883C00002041D023002097
:10191000002B7FF469AF0021042012F07EFC01212E
:10192000C94D08462B78C94F43F002032B7012F0C3
:1019300024FC0021084612F020FC0A2605953D46AD
:10194000012012F005FA002012F002FA192013F01B
:1019500002FFD7F87836DB0302D401200DF084FAB9
:10196000192013F0F8FE013E00200DF07DFA16F06C
:10197000FF06E5D1B64F3146304612F0FEFB314648
:10198000012012F0FAFB97F8140616F093FEB14905
:1019900016F0E4FE13F086F9AE49C7F81806606940
:1019A00016F0DCFE4FF0000AC7F81C06C7F820A6A8
:1019B000C7F824A6C7F828A613F0BCFCA64B1C2227
:1019C000FF21184615F0F0FC4FF0010E0670A34EF3
:1019D000DFF88CC232683C4612F002018CF800E05D
:1019E000674608D00223837004238CF800301A2342
:1019F00080F801E0C3704FF0140E4FF017083B78E9
:101A000000F803E003F1010E5FFA8EFE03F1020C11
:101A10005FFA8CFC00F80E8012F00A0E87F800C006
:101A200013D04FF0040800F80C804FF0050803F1C4
:101A3000030C5FFA8CFC00F80C8003EB080C87F8B1
:101A400000C006270433DBB2C754049BDFF80882CA
:101A50001B68DFF80CC213F0200F07D09CF80000C1
:101A6000471C8CF80070072708F8007095F81802DA
:101A700000F0EF07082F00F0E580A0F10E09D9F182
:101A8000000747EB0907520702D48FB11A060FD59A
:101A90004FF003099CF8002008F8029002F10209B7
:101AA0008CF800904FF0180C0132D2B208F802C046
:101AB00013F0800203D0BEF10A0F00F0EE80B7B140
:101AC000002940F0E7800A214FF00E0CDFF890E18A
:101AD000614F9EF80020B954511CC9B207F801C0EB
:101AE000D11C8EF800101B210232D2B2B9540E283C
:101AF000594F5B4901D0182804D10A78501C08704E
:101B00001920B8540B204FF00F0C0A78B854501C11
:101B1000C0B202F1020E5FFA8EFE07F800C058054F
:101B200081F800E007D595F84C0220B103320A7025
:101B3000102207F80E201A0304D50A78501C0870EA
:101B40001120B854DB0504D50B785A1C0A701222F8
:101B5000FA544FF419720021424815F025FC10F098
:101B60005BFBDFF81CC1B5F884303F49C4F82CC6D4
:101B7000C1F800C0A4F83036CDF818C00023DFF853
:101B80000481DFF804C1C146E3463849DFF8FCE0D0
:101B9000374FC1F804E0DFF8F8E0364A3868C1F89A
:101BA00008E0B5F8D2111380937000F13D02049261
:101BB00084F832360FFA81FE0797DCF800702E4A5F
:101BC00007F5967728F813E042F823700133122BBB
:101BD000F3D12A4F049AD7F800C08D301CF4805FEF
:101BE00008BFB5F9DAE1A9F806E0DFF898E0137864
:101BF000A3B9937892F8038043450FD2002B7BD092
:101C0000013B03EB830303EB830303F5617392F85A
:101C100001809BB208F104082EF81830043290427B
:101C2000E5D11CF0080F79D095F8C431072B6FD897
:101C3000DFE813F06B006B0082016E006E006E0037
:101C40006E00AE0101271EE704240020E01B0020E7
:101C5000D003002035FA8E3C1C100020D822002032
:101C60003810002000330020A8320020D41B0020B0
:101C7000702F0020D8320020040A0020DC2200202F
:101C80009C1D0020AC32002058320020D5180108DD
:101C9000D1180108002A3FF416AF4FF0090E4FF09B
:101CA0000808DFF8A0C3D1499CF8002001F802E041
:101CB00002F1010E5FFA8EFE01F80E804FF013085C
:101CC00002F1020E5FFA8EFE01F80E804FF0150849
:101CD00002F1030E5FFA8EFE01F80E8002F1050E8E
:101CE0008CF800E04FF0160E0432D2B201F802E098
:101CF000002F7FF4E8AEFAE608F1010808EB880847
:101D000008EB880808F5617381E70AF0B9F828B98B
:101D1000082007F0A3FAB64AB64B5A60B64B1A68C9
:101D200042F201031A420AD044F62061B14B9004FA
:101D3000598040F1488108211970B0495960120654
:101D40002CD54FF00009DFF80083AD4B88F81190D7
:101D5000C8F80430EA3BC8F80030AA4BC3F8049036
:101D6000C3F808900EF01AF9DBF800304846C8F8BE
:101D7000203088F813900EF05FF9D8F800301A7808
:101D80000C235343A04AD35C022B40F02381012053
:101D90000EF052F90021052012F03FFA079BDFF800
:101DA000AC82D3F80090012388F800300023C8F8F3
:101DB00028A188F80130DFF898A288F8023088F866
:101DC000033088F8043088F8073088F8083088F83D
:101DD000093088F80A3088F8113088F8693488F8B2
:101DE0007C3488F86834894B4846C8F82431C8F8F0
:101DF0002C31C8F888A40EF0DBFF069B09F1D60051
:101E0000C8F89434AAF1D003C8F89C34AAF1C603E8
:101E1000C8F89834784BC8F88C041A689A4612F4BB
:101E2000806F15D010200CF02DFEC4F87C0638B160
:101E3000438813F0100003D0102B14BF02200120A0
:101E400084F8800610F0AAFD0021072012F0E5F9C1
:101E50006F4BDFF800821B78022B40F05881B8F8F6
:101E60000090B9F1000F40F05281039B039AC4F82F
:101E700084360F2393710E231321D371104682F8F9
:101E8000089011F0FFFFD4F8840612F067F9614A58
:101E90003220138823F040031B041B0C138013888B
:101EA00023F038031B041B0C138013889BB243F0F0
:101EB000400313809F238DF835908DF834308DF8D2
:101EC00036908DF8379013F046FCD4F884068DF8E0
:101ED000559011F0DAFF04220DA915A807F02EF88D
:101EE000D4F8840612F03AF99DF856309DF8552042
:101EF0001B0243EA02439DF857201343464A93428C
:101F000000F0D08100F3E280444A934200F0E9807F
:101F10000132934200F0C881A2F51A42033A93427B
:101F200000F0E1800023A8F80030A8F80230C8F8DB
:101F30000830C8F80C30EAE00A23090191FBF3F1FC
:101F40000023374AA1F5B06142F823100133122B68
:101F5000FAD1284A4020137042F6F8235380314BBF
:101F60005360314B93600CF08DFD00283FF4D0AEF0
:101F700001234FF0070C90F900002C4A8DE808105F
:101F80002B4B40210CF04EFC003018BF0120BEE668
:101F90000A22184B40201A7044F620625A80254AC3
:101FA0005A60254A9A600CF06DFD00283FF4B0AEEF
:101FB00001234FF0000E90F90000204A8DE8084000
:101FC0004FF4E133DDE7D1077FF5B9AE0C2119708D
:101FD0001B49B3E6012B7FF4DDAE02200CF052FD6D
:101FE000002843D1802007F039F9D3E61C100020E7
:101FF000D5180108D41B0020DC220020E9180108B4
:10200000081E0020E0220020689E0108000080BF1A
:10201000940F0020003800401620C20017BA20009C
:10202000683100202117010851170108391A0108E9
:10203000A0860100F9180108091901088D1A010884
:10204000D918010838100020243B00203C1600203D
:10205000241D0020F80000200133DBB2042B4FF0D8
:1020600001010BD9002388F811300FE0DFF828E3D5
:102070004946724690F805C098F811300EEB0309F6
:1020800099F81091E145E7D10029ECD198F8113089
:102090004FF00C0C1A4492F81011002290F9000035
:1020A0000192D8F80030DFF8F4E21B780CFB03E370
:1020B0005B780093A44B53F8213002210CF0B2FB63
:1020C000C8F8080000287FF462AE8BE79F4A93426D
:1020D00007D00132934200F0E7809D4A93427FF49B
:1020E00021AF802300E02023A8F800304FF4807354
:1020F000A8F80230B8F80430B8F800201B02C8F87D
:1021000008305343C8F80C30012384F88836D8F8D7
:102110000C30DBB14FF0000B4FEAD32815ABC345B1
:102120000EDA0BEB08094FEA6909194610224FEA4B
:10213000C920039313F08EFF0F28039B00F3B9808F
:1021400013F04AFF834B4FEAC8221A60DAF80010F6
:10215000814B11F4002218BF01221A704FF47A73D8
:102160007E4AA4F88A36136843F0080313607C4A59
:10217000138823F00203138040F6020319420DD0A6
:10218000784A794B1A600322784B1A700122784BF7
:102190001A700023774A1380774A13804FF00108A2
:1021A000AB680021342275483B6084F8388515F00F
:1021B000FBF80023724A734C1360734A2046136085
:1021C0000FF056FF07F0E6FD642838BF6420414653
:1021D000E06340460FF084FFAB7C4BB16B4B414654
:1021E0005B6C0220642B38BF6423E3660FF078FF3A
:1021F000AB7C022B21D133689B071ED5EB89DFF81E
:10220000A081012198FBF3F39BB2642B38BF6423B8
:102210000320C4F89C300FF063FFAB7C022B52D13B
:10222000288A98FBF0F080B2642838BF642001212E
:10223000C4F8CC0004200FF053FF012105200FF05B
:102240004FFF012106200FF04BFF40F602023B68D2
:1022500007201A4214BF012100210FF041FF012184
:1022600008200FF03DFF39680920C1F3C0110FF0BD
:1022700037FF31680A20C1F3C0010FF031FF396820
:102280000B20C1F380210FF02BFF0021082011F05B
:10229000C4FF059B059A1B7863F07F03137021B080
:1022A000BDE8F08F40231FE74FF48073A8F800309B
:1022B0001EE7002253F82210013122D10132042AF4
:1022C000F8D1C8462BE707F065FDACE7052B7FF496
:1022D00045A92F4BFFF737B9052B7FF402AA2D4BE9
:1022E000FFF7A8B902210E2011F097FF3B6823F0F9
:1022F00008033B60FFF746BA012013F036FAFFF7F8
:102300000ABB09F1010BC146DBE70121084611F0C8
:1023100034FF132011F090FD182282710222067200
:10232000C2711221C4F8F80111F0ACFD0121D4F8FA
:10233000F80111F018FF3C2013F00DFA314601208E
:1023400011F01BFFFEF7A5BAECB601081740EF002D
:102350001720C2006C2F00203428002064230020A6
:10236000960F0020101D0020A03200205C320020BB
:1023700048030020DC230020DE230020EC30002076
:10238000E83000200801002048320020980F00208B
:10239000F9870008397F0008A8910108689E0108A4
:1023A00040420F00B84B2DE9F04F1B680546B74C73
:1023B000188C95B0208016F079F9B54916F0CEF951
:1023C000B44BB54E9A7C30600796059312B92846F7
:1023D0000FF080FF059B9B7C022B08D0AF4B1B6846
:1023E0009E0704D512F070FD284610F099FDDFF825
:1023F000F892AB4BD9F800A0D3F800B09AF800805F
:102400009BF8D630A74E1A464146B6F90000049311
:1024100010F086FAA44D049B41461A4628800746D0
:10242000B6F9020010F07CFA68809AF807109BF861
:10243000D7208046B6F9040010F072FA059BB6F971
:102440000620B3F8D41140428A42A880CDF82090EB
:102450000495C0F27683B2F5FA6FA8BF4FF4FA6222
:102460004FF47A73521A5A43C1F5FA61B2FBF1F292
:10247000642592FBF5F38D495E1C31F9130031F9A7
:1024800016106FF0630606FB0323091A4B4393FBF8
:10249000F5F3049A0344D380854B1B685D0640D551
:1024A000844BB3F904000A2390FBF3F0824B1B88A2
:1024B000C01A00B216F0FEF8804916F04FF9054632
:1024C00012F0F0FB0646284612F074FB0546404623
:1024D00016F0F0F88046384616F0ECF8014607464C
:1024E000304616F03BF941468146284616F036F94B
:1024F0000146484616F028F816F00CFB049B4146AE
:102500001880304616F02AF939460646284616F055
:1025100025F90146304616F019F816F0FBFA049B2F
:102520005880674D2B88580740F10D83012100200A
:1025300011F023FE634883680BB163499847059BFC
:1025400093F8D831002B59D0604B5F4E1D78B3788B
:1025500043B907F01FFC01210246301D12F0D8FBE1
:102560000123B370208816F0A1F80146584812F0F4
:10257000A3FB16F0F5FA574B80B25B88B3FBF0F083
:10258000411C09B23184002D00F07B8300234E4CA6
:10259000DFF81481B6F922C004F1240E04F12C06F0
:1025A0003EF9132038F913700CFB02F292FBF1F2A2
:1025B00036F8135026F813707D1B2A442EF813208A
:1025C0000133042BECD160843F4A0023B2F922008E
:1025D000002840F35A83B2F9204002F12C0524323E
:1025E00032F9131035F81360414391FBF4F1711A7D
:1025F000049E26F813100133042BF1D1334B1D78C0
:10260000002D00F0EF802E4B334F1B88334E13F01C
:10261000040F334C40F03B83237AB3B10722D4F844
:10262000181104F580700EF049FE237A6BB13368FF
:10263000DA070AD5DFF8908098F834302BB90E20ED
:1026400010F04EFA012388F83430A37B23B13B68A5
:102650005B025CBF0123E3733B68DFF84C80C3F38C
:102660008052C3F30063A27323740EF09BFC0BF043
:102670006CFC22781B4B03EB42135F8917F4006F4D
:1026800000F05A8332E000BFA43200209C320020C8
:10269000BD378635E01B002020380020D8220020DE
:1026A000702F0020AC320020E42300201C280020E2
:1026B00068230020081000203411002035FA8E3CD9
:1026C000960F0020980F0020640A00203611002089
:1026D000680A0020D41B002000240020642300206E
:1026E0003C160020049901084C3B0020D04B1B688D
:1026F000580500F12183336813F0100900F0EE82D1
:10270000D4F88C34B8F9020093F80390494612F0DB
:10271000ACF900B2B8B1D4F888344042B3F84830CC
:10272000584315F0C7FF8246484615F0C3FF0146DF
:10273000C04815F009FF0146504616F0C3F80121C4
:102740000EF014FD28462073F90440F19683B84B2F
:102750001B685A0500F19183336813F0100FD4F809
:102760008C3400F01D839978B8F9000012F07DF9DF
:1027700000B2003018BF0120AF4BD87217F4005FD1
:10278000AD4C00F08183AA4B1A6812F4806240F0CD
:102790007B83AA4B1B6813F0100340F07183A84A97
:1027A000B2F9041081EAE172A2EBE172D4F88C1460
:1027B00089788A4240F36683D4F81831C4F84C31E2
:1027C000657341F2B80022789E4B03EB42139D895A
:1027D00020EA050011F02CFD284611F039FD227881
:1027E000994BDA860022994B1A70974B93F8384030
:1027F0009A46D4BB904B9649D3F88834186B15F0A1
:10280000A5FE0023CAF8C000CAF8C4004FF49672AF
:1028100021460AF1CC00CAF8B830CAF8BC30CAF870
:102820009030CAF8A030CAF8AC30CAF89430CAF870
:10283000A430CAF8B030CAF89830CAF8A830CAF83C
:10284000B430CAF83C40CAF86440CAF870408AF80C
:10285000C84014F0A9FD4FF4967221460AF5FC70A9
:1028600014F0A2FD01238AF8383012F01FFF06464B
:1028700010F046FB002840F00A830023CAF8843099
:10288000CAF88830CAF88C3030460DF0A7FD0A200F
:10289000704B694CB3F904304FF001085843C4F849
:1028A000180115F007FF6C4916F00CF86B4915F08C
:1028B00055FF054612F07EF9C4F81C01284612F0B7
:1028C000F1F944F61F62604DC4F82001D5F83833A1
:1028D00084F80480F31A9342614F40F28180C5F876
:1028E0003C33D4F88834C5F83863196BD5F8C00088
:1028F00016F0D2F80026002800F058834046D5F89C
:10290000B0300093D5F8AC30D5F8A420D5F8A0109D
:102910000EF014FED4F88834D5F8C400196B16F004
:10292000BBF8002800F049830120D5F8B420D5F881
:10293000A8100EF0CDFDD5F8B8800021404616F065
:10294000C9F8002800F04483D5F8BC30C4F82481CD
:10295000C4F828313B885B0740F13683D4F82C61FA
:102960000021304616F0B6F8002800F02A833146E0
:10297000404616F0AFF800B94646C4F82C61012372
:1029800040466372E37016F0C5F8A5F840030C23C7
:1029900095F8C860DFF8D0E003FB06539EE8070017
:1029A000013603F1CC0CF6B203F5FC73182E8CE85B
:1029B00007000EF10C0207CA83E807008ABF002354
:1029C00085F8C86085F8C830D5F8C00016F0C8F89A
:1029D000A5F84203D5F8C40016F0C2F8A5F84403E0
:1029E00012F064FE0023E1790646A5F8463311B1E2
:1029F0000123A5F8463394F809B0BBF1000F05D0C8
:102A0000B5F8463343F00203A5F84633237A2BB1D9
:102A1000B5F8463343F00403A5F84633074A136874
:102A200098072CD50F4890F805E0D4F888041DE0ED
:102A3000682300200000FA433C1600206423002095
:102A4000E423002004990108640A002036110020C4
:102A50006F12833A081000200000C84235FA8E3CFD
:102A6000960F00203C100020040B002000788645C3
:102A700022BFB5F8460340F00800A5F8460395F8D4
:102A8000400028B1B5F8460340F01000A5F8460311
:102A9000A07A28B1B5F8460340F02000A5F8460317
:102AA00023F0800010603A8812F0040240F0A28205
:102AB0006274A34BA34C1B78D3B1A34BB3F906208C
:102AC000059BB3F8D4319A4212DC059B93F8183277
:102AD000012B01D0192B03D1059A92F88A203AB91B
:102AE0000E2B05D003F0EF03082B1CBF0023A3809F
:102AF000964B974E1B6813F01003069340F05A85CF
:102B0000944B1A78944B03EB42135B89DB0502F17B
:102B10001580336893F8DA50002D00F04B858F4B09
:102B20001B689F0700F046852DB28D4B8D491F6AAB
:102B3000384615F0B1FF002800F0F884894F00F006
:102B4000FDBC0A468CE4884A1668F10707D4874A18
:102B500092F82520012A04BF43F001032B802B8823
:102B600023F43F422A80794A11680A0708D423F4E3
:102B70007C5323F001035B045B0C43F480732B80D4
:102B80007B4B7C481B8813B103689B0702D47A4BAC
:102B90001B882BB12B8823F0010343F400732B8097
:102BA000764B1B88632B81BF2B8823F0010343F4F2
:102BB00080632B8016F4804704D0714B1E4214BFF3
:102BC00001270027634BD3F8882492F839E0BEF13F
:102BD000000F21D06B4A127842B9DFF8BCE1DEF871
:102BE00000E09EF80AE0BEF1020F05D11B7A002B2F
:102BF00045D0CA4302F001022B8813F0040F05D11F
:102C0000DFF898E116EA0E0F00D007B122B123F0E9
:102C1000010343F400632B800268170707D5CE0534
:102C20005FBF2B8823F0010343F480532B80900770
:102C300007D58A055FBF2B8823F0010343F40053B7
:102C40002B8009F085FD38B92B8823F001036FEA4A
:102C500043436FEA53432B802B8813F0010F14BFBB
:102C600000220222484B1A7012F020FD474B1B68CD
:102C7000C01A0028FFF65EAC0FF00EFB5AE40122EA
:102C8000BAE7738C013B73849EE45384B6E43B68DB
:102C90009B0212D541F21002304B1B681A420CD134
:102CA000237A53B13368D4F81811D8074CBF0522E2
:102CB000072204F580700EF001FB3368D9077FF519
:102CC000B4AC33480EF0E0FBC4F8900130480EF08D
:102CD00027FBC4F894010EF0D7FAA6E42D4BB8F800
:102CE0000600B3F90020D4F88C34801A00B280EAD0
:102CF000E071DB78A1EBE071994213DDD4F8883400
:102D00000028B3F8483000FB03F0D4F89C34CBBF64
:102D10005B881B889A1AD21A90FBF2F015F0CAFC55
:102D200002210DE5207B00283FF40DAD002002219B
:102D30000EF01CFA484606E50023237304E500BFA5
:102D4000E9000020E4230020AC32002064230020AE
:102D5000702F00203C1600200499010868230020F1
:102D6000C03900209A99193F00240020D832002051
:102D7000920F0020D82200205A0A0020E0300020C4
:102D800000010800A02200206435002068350020E2
:102D9000AC17002000000020103B002000030800BA
:102DA0009E78049B3146B3F9020011F05EFE049B4D
:102DB00031460FFA80F8B3F9000011F056FE06B262
:102DC000B8F1000F01D1002E49D0D4F8883493F81F
:102DD0003A20012A41D14FF4FA7AB3F8469009FB20
:102DE00008F090FBFAF015F065FC804609FB06F050
:102DF00090FBFAF015F05EFCD4F820A1064651468F
:102E0000404615F0ABFCD4F81C9183464946304649
:102E100015F0A4FC0146584615F096FB616915F0C3
:102E200051FDD4F8001115F091FB4946C4F8340166
:102E3000404615F093FC51468046304615F08EFC16
:102E40000146404615F082FBA16915F03BFDD4F820
:102E5000041115F07BFBC4F8380128468CE4E07AB5
:102E600000283FF489AC0DA807F050FF0DA80122FF
:102E700031460EF081FA30467EE40023E3727DE4B1
:102E800015469DE41D469BE40023637399E49E4C24
:102E9000DAF89010206815F057FBDAF894108046A5
:102EA000606815F051FBDAF898100746A06815F035
:102EB0004BFB964C05462168404615F04FFC616877
:102EC0008146384615F04AFC0146484615F03EFB5F
:102ED000A1688146284615F041FC0146484615F098
:102EE00035FBA1698146404615F038FCE16983460F
:102EF000384615F033FC0146584615F027FB216A89
:102F00008346284615F02AFC0146584615F01EFB5C
:102F1000E1688346404615F021FC21698046384629
:102F200015F01CFC0146404615F010FB6169074690
:102F3000284615F013FC0146384615F007FB744B84
:102F400000F100441B88CAF8849013F0040FCAF8FB
:102F50008840CAF88CB06F4F10D16F4BD3F88834CB
:102F60005B785BB17D685846294615F0EDFA6B49F0
:102F700015F0F4FB294615F0E9FA786079685846AF
:102F800015F0E2FA664D0746C5F88C00484615F084
:102F9000C1FDA5F83003204615F0BCFDA5F83203AD
:102FA000384615F0B7FDA5F834036DE400963346B6
:102FB000D5F8A420D5F8A010AAE40022D5F8A810CE
:102FC000B7E4C4F82C81DAE4564BC4F82C31D6E4CB
:102FD0003A88544BC4F828615607C4F8243158BFC6
:102FE000C4F82C3100236372E3704FF6FF73A5F829
:102FF0004033CCE4002220786271A2714A4A13F077
:10300000100302EB4012B2F80A8028D03146404645
:1030100007F042F9404A53790BB10023537093797A
:103020000BB100239370D37A3D492BB1B1F84633ED
:1030300043F04003A1F84633137B2BB1B1F846337C
:1030400043F08003A1F84633537B002B3FF431ADAE
:10305000B1F8463343F48073A1F8463329E518F0FC
:10306000080F6BD03148D5F848230380C5F8486372
:1030700043808380074600293CD0B31A2C4A9342F0
:1030800004D9C5F84C630DF06BFDC3E7A378DBB141
:10309000D5F84C33C5F84C63A6EB0308254B98458F
:1030A00025D8D4F88834B3F8500015F003FB01217B
:1030B00000F100400EF05AF840460DF0C1FD4046C8
:1030C0000DF074FD0123A371D4F88834B4F984247D
:1030D000D4F89C14B3F9583013440A8849889342B1
:1030E00003DB99420A46A8BF1A46FA8092E70DF020
:1030F00037FDE7E7104B1B6813B19B88C38089E756
:10310000D4F89C341B88F9E7F0090020C03900206E
:10311000960F0020000000203C1600200AD7233B19
:10312000640A0020000080BF04990108E423002005
:10313000400D03003F0D0300103B002018F0010F6D
:103140000BD0D5F85033504AF31A9342C5F8506368
:1031500029D9C5F854630DF003FD18F0020F15D0FE
:10316000D4F88894D5F8603399F83A20F31AC5F862
:103170006063002A40F0858094F80BB0424A934285
:1031800040F29880C5F864630DF0C8FC18F0040F95
:103190003FF440AF64223D4BD3F84C3193FBF2F344
:1031A0003B4A138036E7A378002B4BD0D5F85473F5
:1031B000384BF71B9F42C5F854635FD8237C53B349
:1031C000D4F850910021484615F07AFC18B3D4F891
:1031D00024A10021504615F073FC002849D0BBF112
:1031E000000F46D0384615F061FA2B4915F0B6FAB3
:1031F00000230293294B02460193294B5146009329
:103200004846284B0AF03CFE0146D4F8080115F068
:103210009DF9C4F83C01D4F83C0113F0D5FE47F603
:10322000FF739842A8BF18461F4B9842B8BF184674
:10323000A5F85C0338460DF003FD38460DF0B6FCEA
:103240000123A371D4F88834D4F89C14B3F958201E
:10325000B4F984341A440B8849889A4203DB9142BA
:103260000B46A8BF1346114A1BB2D380A5F85E33A4
:1032700073E700210E480DF079FFCCE70DF070FCEC
:10328000DEE74FF0000B79E7400D03003C1600200D
:10329000721000203F0D0300BD37863500000C4240
:1032A0000000A0C0C81600205A80FFFFE4230020C1
:1032B0000000A0C1237A002B00F01C816378002B52
:1032C00000F0F380D5F86433C5F86463BBF1000FF8
:1032D00040F0E880F31A0693069A894B9A4200F26E
:1032E0000681D4F80011D4F8340115F02DF9616984
:1032F00015F034FAD4F804110746D4F8380115F063
:1033000023F9A16915F02AFA22787E4B064603EBD1
:1033100042135B89B9F84200590513D594F9693411
:10332000002B0FDD182294F97C3402FB034393F841
:103330009821012A06D1B3F8A831312B02D998423D
:1033400028BF184615F0B2F939468146384615F0BF
:1033500005FA31460546304615F000FA0146284682
:1033600015F0F4F813F06AFE4946824615F0B2FBF8
:1033700080B15146384615F0A5FA494615F0EEF9E8
:1033800051460746304615F09DFA494615F0E6F9D4
:10339000CA46064622785B4B03EB42135B895A050B
:1033A00028D5D4F81831D4F84C01C01A11F06CFBB0
:1033B00042F228339842A8BF1846534B9842B8BFF0
:1033C000184615F077F9514915F07CFA504915F077
:1033D000C5F911F067FC014615F0C0F94D490546E5
:1033E00015F05AFB00287DD14FF07E51284615F08C
:1033F00071FB08B14FF07E554946504615F062FA10
:103400004549814615F048FB00286DD14FF07E51AB
:10341000484615F05FFB08B14FF07E5949464846D3
:1034200015F09CF901464FF07E5015F08DF8D4F858
:10343000FC1015F093F901464FF07E5015F084F81A
:1034400081462946384615F089F9494615F086F92E
:1034500029460746C4F84001304615F07FF9494631
:1034600015F07CF9C4F84401384613F0ADFD47F679
:10347000FF77B842A8BF3846284E294DB042B8BFA2
:103480003046A5F86803D4F8440113F09DFDB84216
:10349000A8BF3846B042B8BF3046A5F86A030698C0
:1034A00008F0B2FB01221F4B5A71BBF1000F7FF4F1
:1034B0006DAE1C4CD4F89064B4F98004B6F9365063
:1034C00015F0F8F829460FF005FC174DB6F93460F1
:1034D0006880B4F97E0415F0EDF831460FF0FAFB80
:1034E000288053E60B4D87E7DFF82C9096E70DF028
:1034F00015FBD7E7A4F88034A4F87E3446E600BF75
:103500003F0D030004990108D8DCFFFF0000C8420A
:1035100035FA8E3CCDCC4C3D0AD7233C5A80FFFF78
:10352000640A00203C160020E42300204FF07E5166
:10353000384615F0CFFA08B14FF07E57059B394653
:103540004FF07E50B3F8748015F0BCF94FF07E5107
:1035500014F0FAFF0746284615F0ACF8494915F073
:10356000B1F90146384615F0F9F84FF07E5114F0E4
:10357000EDFF049B0546B3F90600A0EB080015F02B
:1035800099F80146284615F0E9F80546404615F039
:1035900091F80146284614F0D9FF15F0BBFA059BB7
:1035A0008045B3F8763003DC8342A8BF03469846D3
:1035B000A4F80680089B344D1A68B4F90640B5F8A3
:1035C0006E3336689C4218BF0121304B1CBFA5F8F2
:1035D0006E4319701B78002B00F0BC80069B977916
:1035E000002B00F03781002F52D0059B1089B3F8D3
:1035F000748040454CD944453FDDA0EB080015F0F0
:1036000059F88146A4EB080015F054F801464846E5
:1036100015F058F94FF07C5115F0A0F84FF07C519F
:1036200014F094FF4FF07C51044615F035FA08BBB6
:103630004FF08041204615F04DFA08B14FF080441C
:10364000C5F870434FF07E51D5F8700314F07CFF3D
:103650000446384615F02EF80A4915F033F90146AC
:10366000204615F07BF84FF07E5114F06FFFC5F83F
:10367000700311E04FF07C54E2E74FF08043C5F84F
:103680007033DFE70000C842640A0020900F00207A
:103690004FF07E53C5F870330027D5F870539C4C1B
:1036A000013E16F8019F484615F004F8994915F0B7
:1036B00009F9206096F80A800490404614F0FAFF59
:1036C0004FF07A5115F04AF860608246307D14F070
:1036D000F1FF914915F0F6F8069B8346A060049A25
:1036E000002B00F0D3801046294615F037F8294604
:1036F0002060504615F032F829466060284615F0E3
:103700002DF8594615F02AF8A060B9F1000F00F025
:10371000C880B8F1000F00F0C480D4F80080616860
:10372000404615F0CFF841468146A06815F0CAF82A
:103730000146484614F00AFF01464FF0804015F05C
:10374000C1F8E0600137032F04F16C04A9D1002215
:10375000724B1A70724B1B680493089B1B6806938C
:10376000704B1C6814F0080415D06F4B1B6813F0E5
:10377000080410D06D496E4A087802EB4012528955
:10378000150641F1E481DC0601F1E1814B7B002B60
:1037900041F0EB8102245E4E0027B0463546DFF84B
:1037A000BC9109EB8703986C14F084FFD9F81410CE
:1037B00014F0D4FF022FC8F8100077D1022C75D175
:1037C0000A205C4B5C4AB3F9043093FBF0F3108899
:1037D0001B1A9BB218B210F1B30FBCBF03F5B47043
:1037E00000B2049BB328C8BFA0F5B4701B7AC8BF51
:1037F00000B258431E2390FBF3F014F05BFF049BD0
:10380000824693F838B0CBF1000014F053FF8146A4
:10381000584614F04BFF49468346504615F03CF994
:1038200030B95946504615F055F900283CD0D946D4
:10383000079B49461B680222404811F0CBFA4049D9
:10384000814615F029F9002801F09A813C4BC5F812
:10385000EC308FE0002F3FF41BAF12899442FFF64B
:1038600017AF059BB3F876309C42BFBFA01A7843D0
:103870009B1A90FBF3F0ACBFC7F16400C0F1640089
:1038800014F018FF2F4915F01DF8F0E6022F3FF451
:103890003CAF2946104614F061FF29462060584687
:1038A00030E70023E3604DE7D146C1E7069B3B4488
:1038B000D87814F0FFFE244914F050FF01468246E8
:1038C00014F044FE8146214B33F9170014F0F2FE48
:1038D0001F4914F03BFE494614F040FF1D4914F007
:1038E000F1FF494614F030FE514614F02FFE15F05A
:1038F00011F914F0DFFE1249814615F0CDF878BBBE
:103900001549484615F0E6F860B3DFF84C9029E019
:10391000243800200000F8410020EE44900F0020E1
:10392000702F0020D8220020642300203C160020A5
:1039300004990108081000207210002028110020AE
:103940000000E1C40000C84200002041E423002040
:103950000000FA4300007A440000E144980F002080
:10396000DFF814930137032FC8F8149008F16C089E
:103970007FF415AFB14F3B6899074CD0059BB3F866
:10398000D221AF4BB3F90200B3F90030801A9B1A71
:1039900080EAE071A1EBE07183EAE372A2EBE372EB
:1039A000B1F5FA7FA8BF4FF4FA71B2F5FA7FA8BF5C
:1039B0004FF4FA729142B8BF1146084614F07AFEED
:1039C000A04914F07FFF049B8046D87E6428A8BFDE
:1039D000642014F06FFE9C4914F074FF8146014688
:1039E000404615F063F8002800F0928240464946B0
:1039F00014F068FF80460023944A06990498CDF895
:103A000000800FF0C5F8CDF800800123904A069998
:103A100004980FF0BDF83F68BA0419D5022C17D0EE
:103A2000D5F8EC400021204615F036F8002800F0CB
:103A3000728204F100404FF0804115F04BF820B93C
:103A4000844B1B885B0700F168820023C5F818319E
:103A5000380417D500230D930E93D5F8EC300DA83C
:103A60000F9311F00FFC0D99686914F06FFD0E991A
:103A70006861D5F8800014F069FD0F9BC5F88000DF
:103A8000C5F8EC3000254FF00009079BD3F8008003
:103A9000022D049B01F05580186B322828D914F0B0
:103AA00005FE49467769044615F014F8002800F031
:103AB0005D824146204614F051FED6F850B00146D2
:103AC0008246584614F040FD04460146384614F03C
:103AD000E3FF50B95946504614F038FD04460146FC
:103AE000384614F0F7FF00B93C463465336D736116
:103AF0000135032D06F16C06CAD10026049B564CF5
:103B00001433089354F8501C54F84C0C14F01CFD5A
:103B100054F8601C079014F021FE022E81461ED13D
:103B20004E4B1B78032B0FD9049B5D8C65B114F0B1
:103B3000F1FF6B42984203DBA8420346A8BF2B4625
:103B4000184614F0B7FD8146049B93F8242032B147
:103B5000434B49461B68434811F03CF98146089A9B
:103B600012F8013B0892002B00F0118214F82C2C63
:103B700054F8341C013A9200081D54F8505C13F0BC
:103B8000AFFB54F8348C0027C8F80050002514F817
:103B90002BAC5545C0F2EC81314B54F8580C1D68E4
:103BA00000F10040294614F08DFE394614F0D6FD90
:103BB000049B07469A7F2AB101462B46204611F006
:103BC00009F907462849384614F066FF002840F0F6
:103BD000E0812649384614F07DFF00B1234F54F8A8
:103BE00028BC3946484614F0B1FC594614F0AEFCE6
:103BF0001F49804614F050FF002840F0CC811D4939
:103C0000404614F067FF002800F0C781194B069367
:103C1000049B022E0CBF188DD88C14F04BFD54F869
:103C20004C3C054600211846059314F035FF00284A
:103C300000F0B681059B03F100401FE068230020DF
:103C4000AC3200200000FA430000C84224380020B3
:103C500090380020960F0020843800205C3B002024
:103C60002038002050390020000096C30000964301
:103C700000007AC400007A440000E1C4294614F030
:103C800021FE01464FF07E5014F05EFC00210546F7
:103C900014F002FF002840F0AF814FF07E5128461B
:103CA00014F018FF08B14FF07E55BE4B54F85C1C61
:103CB000D3F800A0079814F051FD294614F04EFDEA
:103CC000514614F04BFD41460546069814F03CFC65
:103CD00054F8541C14F042FD514614F03FFD0146C7
:103CE000284614F033FC594614F030FCAE4B8046A5
:103CF0001B6844F8280C13F0200F0793AB4D04D138
:103D000095F87433002B00F07B8154F824AC4046C6
:103D10000AF1004B594614F0BFFE38B951464046EF
:103D200014F0D8FE002800F06981D34644F828BC7E
:103D3000079BD9061DD5049BB3F83AB0BBF1000F21
:103D400017D0CBF1000014F0B5FC54F8288C824653
:103D50000146404614F0A0FE48B9584614F0A6FCAF
:103D600082460146404614F0B5FE00B9C24644F80A
:103D700028AC069814F0CEFEDFF870826C3428F878
:103D80001600484614F0C6FE08F1060A4AF8260056
:103D900054F8940C14F0BEFE08F1120949F82600FC
:103DA000384614F0B7FE08F11E0949F826000598B8
:103DB00014F0B0FE08F12A0848F826000136032E58
:103DC0007FF4A0AE7A4B7B4E1C78032C17D9336856
:103DD0005888B0F5FA7F12D2774BB5F97A73B3F9F8
:103DE0000430424283EAE371A1EBE371531A9F422C
:103DF00003DB4318BB42A8BF3B46A5F87A33002734
:103E00003368B9463E46DFF8E88104930DF1340B80
:103E1000A145C0F2FE80694BF01B1A680FFA80FBC7
:103E200012F4805F0493644ADFF8C89100F0478180
:103E30006349B2F90660098811F0040F614908BFAF
:103E400008680A68604908BFC08A0F6808BFA5F8FB
:103E5000AC03D28AF888111A8E4200F31281D9F885
:103E60000010B7F90020B1F90070A5F8AC63A2EB1F
:103E700007080FFA88F8C34540F33A81012240460B
:103E800085F8742314F016FC0546584614F012FC0D
:103E90000146284614F016FD4FF0000B82460DAA8D
:103EA0005C4500F315814949284614F057FC4FF052
:103EB000020A4FF07C5114F051FC98FBFAFA0546C7
:103EC00007EB0A0014F0F6FB294614F03DFB14F052
:103ED00021FE0FFA80F808EB0A0014F0EBFB2946EC
:103EE00014F034FB14F016FE354A0FFA80FA1288EB
:103EF00012F0040240F03F8113463549354A9C4296
:103F000040F3608131F8130022F813000133F6E723
:103F10004FF07E586FE520468DE5D5F8E810204635
:103F200014F012FB1F4B196814F018FCD5F8181187
:103F300014F00CFB2849044614F0AEFDA0B9274943
:103F4000204614F0C7FD00B1244C049BC5F818416D
:103F5000187A14F0AFFB224914F0B4FC214614F097
:103F6000FDFBC5F8EC0073E51B4CEEE73765BDE5DE
:103F700054F8303C58F8251053F8250014F0EEFBA7
:103F80000146384614F0E2FA0135074601E60027FB
:103F900025E6144F23E6144B39E6CDF8188037E6B2
:103FA00005986BE62038002064230020640A002076
:103FB0005C3B00200C1B0020E4230020DC220020BE
:103FC000960F0020101B002068390020C3F5A83E82
:103FD000503B0020FC0F0020000034C2000034429F
:103FE0000000A042000096C300007AC4DA0D002051
:103FF000A80800206C390020002556E6C34695E647
:10400000002114F049FD08B108F1004844F8248C5F
:104010008EE6B5F9780314F04DFBD8F8081014F0CB
:104020009DFB8246B5F9760314F044FBD8F80410E2
:1040300014F094FB0146504614F088FA049B824623
:1040400093F90130B5F97A035B42584314F032FB1F
:10405000D8F80C1014F082FB0146504614F076FAA2
:1040600014F058FD00B2B0422BF8190003DC87426F
:10407000A8BF0746304609F1010908F110080646B5
:10408000C6E60244964206DBD9F80020B7F9027072
:10409000B2F90220E9E6B5F9AC239142A7BFB7F91E
:1040A0000060D9F80020D9F80020B7F90260ABBF52
:1040B000B2F90070B2F9022032463746D7E6B2F9BB
:1040C0000660D9F80020B2F90070B2F90220CEE6FD
:1040D00032F91B00059214F0EDFA514614F03EFB44
:1040E00014F018FD059A22F81B000BF1010BD7E61E
:1040F0000021404685F87413059214F0DBFABA49A2
:1041000014F02CFB4FF0020A4FF07C5114F026FB08
:104110009BFBFAF598FBFAFA834607EB0A0014F0CA
:10412000C9FA594614F010FA8046781914F0C2FA08
:1041300001460746404614F0CDFC059A00B94746B3
:104140003846059214F0E6FC0FFA80F808EB0A00F6
:1041500014F0B0FA594614F0F9F9059A0746501BC5
:1041600014F0A8FA05460146384614F095FC00B94B
:104170003D462846B6E64FF0000B9C4A9C49D37852
:10418000D9F800500693049BD1F800901A6861009A
:1041900002F4805302F010020892964A0793964B5D
:1041A000B2F90620B3F9AC330592944A0493944BC8
:1041B00012681B68934F02F08002099109995945D2
:1041C00040F04C81904B1B78002B00F09A808F4B75
:1041D0008F481B68874CB3F84C2193F84E11036845
:1041E000049213F4807F8B4D00F086818A4B1A88ED
:1041F000ADF834205A889B88ADF83620ADF83830B9
:104200004FF47A724FF46166844FB7F9023003F5C8
:10421000E163534393FBF6F3A3F5FA73ADF84C3027
:10422000B7F9003003F5E1635A4392FBF6F27C4B99
:10423000A2F5FA721B88ADF84E20A3F2DC53ADF85C
:104240003A302B682288DB8AD21AADF83C2062888B
:10425000D21AADF83E20A288D21AADF84020E288EA
:10426000D21AADF842202289D21AADF844206289D0
:10427000D21AADF84620A289D21AADF84820E289B8
:10428000D31AADF84A3000231C46664A22F8134080
:104290000133082BFAD1644B0129D3F8008003685D
:1042A0004FF0060203F48043079314BF01234FF03D
:1042B000FF334FF0640C08935C4B5D491B785D48FD
:1042C00002FB0313DFF85CA10993099B8B4240F0CA
:1042D0002E8100254FF00E096427574E09FB0583F8
:1042E000B6F9024093F90600444394FBF7F4E8B2B0
:1042F00074800EF06FFD01352044082D26F8020F62
:10430000ECD14E4E4E4F336813F0200F32D00020C8
:104310000EF060FD434C0546208001200EF05AFD52
:104320003B6860801B0625D5464B3C491B681B78C3
:10433000012B3D4B40F07581D3F800C04FF0320E99
:104340009CF906305A42B1F90230B1F900105343DA
:104350009CF9142093FBFEF351436FF0310291FB63
:10436000F2F291FBFEF19BB21A44AA1A22800B448E
:10437000184460803B68204C13F0006F94F8CE33F3
:1043800000F0C581012B00F08581C0F05F81022B18
:1043900000F0B4812C4B1B68002B40F0DB812B4BD1
:1043A0001B780BB10EF030FD294B93F80090B9F15A
:1043B000000F40F0BD823368190340F1B98211F05B
:1043C00075F9244D80462B78033B052B00F27F8244
:1043D000214B93F87236002B00F06582012B00F020
:1043E0008682484663E200BFC3F5A83ED83200206B
:1043F00068390020AC320020640A002064230020C9
:10440000101B0020FA0F00207A060020702F0020D9
:10441000682300201C1B0020E4230020081000203B
:10442000FC0F0020EC0F0020742F002080060020DD
:1044300081060020120E0020EA0F0020DC2200205E
:1044400000240020181B00207C0600200809002002
:10445000682F002034280020E01B00200A933046FB
:104460000DAB0B9233F80B4014F024F9B14B53F819
:104470003B1014F073F914F04DFB404541460A9B84
:104480000B9A03DB50450146A8BF51460C440699E0
:1044900024B227F8024F11B1A98868880BE0079968
:1044A000B1B1B9F80600D98A091A049888420CDC1F
:1044B0002988B9F800008C4203DBA0420146A8BF5E
:1044C000214639800BF1020B78E6B9F80210E4E7D7
:1044D000298868888C4203DBA0420146A8BF214698
:1044E000398008990029EDD0198B0598884201DBA5
:1044F000002AE7D0A988E4E78F4BB3F87623ADF81C
:104500003420B3F87823B3F97A33ADF836208B4AE8
:10451000ADF838301268D2047FF572AE2A68B4F96B
:104520000660D28A9642BFF66BAE5B4266E60E2309
:104530000F7891F9054003FB0789B9F90220B9F911
:10454000003091F801E0D21A91F9043092B253434D
:1045500093FBFCF34FEA520BA3EB0B030694CC78CE
:104560001BB205934FEA4E06002C3FD114AC2644F3
:1045700036F81C4C0480079C74B1FC1E012C0BD82F
:10458000042F14BF01244FF0FF34049D089E6C4398
:10459000058806FB045404800123D9F80A4003FA75
:1045A0000EFE14EA0E0FB0F9006091F9024008BF48
:1045B0001D4604FB06F494FBFCF4059B18BF4FF06A
:1045C000FF359C4209DB069B5A4392FBFCF2A2EBAF
:1045D0000B031BB2A342A8BF23463AF817200230B0
:1045E00005FB032306312AF817306EE614AB1E4490
:1045F000B0F9005036F91C6CB54208DA2C44A542DB
:1046000003DCA6423546A8BF25460580B3E7B2DDE8
:104610002C1BB44203DBA542A8BF25462E460680CC
:10462000A9E71B68B1F9022093F906E002FB0EF23C
:104630004FF0320E92FBFEF22A44228093F91420AE
:10464000B1F90030534393FBFEF391E63C4B1B88DA
:104650005D077FF59FAE3B4B4FF00E0CD3F800E0AB
:104660000022022304F5747004F578710CFB03E555
:10467000B5F9045041F8232020F813500133062BDC
:10468000F4D1314BC4F804241B68C4F8003401236E
:1046900084F8CE332A4B1B88580748D52B4A02236F
:1046A0009646D4F80404DFF8A8C00130C4F8040426
:1046B00052F823503CF91310294442F823100133D7
:1046C000062BF5D1204BD4F800241B689B1AB3F5B8
:1046D0007A7F7FF65FAE1B4B4FF00E0C1D680223F6
:1046E0005EF823200CFB035192FBF0F20133062B02
:1046F0008A80F5D1022384F8CE334BE6104B1B8819
:1047000059073FF547AE05F019F80323F3E7022BED
:104710000DD14FF00E0E0B4A04F5747015680EFBA8
:10472000035230F813100133062B9180F7D1002388
:10473000E1E700BFA8080020640A0020DC22002076
:10474000960F0020742F002058320020440E0020C5
:10475000EC0F0020BA4B1A68984692F90420002A00
:1047600066D1B84BB84A1B6803F17005B2F9020074
:10477000B3F90010B3F902E0884203DB86457146C5
:10478000A8BF01460E339D4222F8021FEED1AF4B67
:104790001B78012B01D0192B74D1AD4B1B885A0704
:1047A00070D4D8F8003093F80080B8FA88F84FEA4F
:1047B0005818A84B1D7885B1A74B1D786DB14FF0E7
:1047C0000009A64BDFF8B4B293F800A0A44B0AEBA3
:1047D000090219784D46914257DA33689B060FD586
:1047E000DFF89892E8B205F10108B9F800100FF06F
:1047F000A3FAB9F802105FFA88F002350FF09CFABC
:104800003368D8027FF5CBAD4FF00008DFF8709227
:10481000EDB205EB080039F8021FC0B20FF08CFAB8
:10482000B8F10D0F08F101033FF4B9AD9846F0E778
:1048300094F80854DFF84C9285B9DFF84CA2D8F808
:10484000003009EB0500DAF8442059881C3510F0D7
:104850005FFAE02DF3D1012384F808340025DFF856
:10486000E8A1BAF9020013F025FF014609EB0500A3
:1048700010F022FA14F04EF91C35E02D2AF8020F40
:10488000EFD16EE74FF0000893E75FFA89F0B8F1D7
:10489000000F05D000210FF04FFA09F1010995E74B
:1048A0003BF81210F7E7D4F8EC040AF086FCD4F8D1
:1048B000F02494F8F4341344B3F5807FA8BF4FF488
:1048C00080738342D4BFC4F8F034C4F8F0042B786A
:1048D000023B092B27D8DFE813F00F001B00530021
:1048E00075008A00A100D900E9000901130111F047
:1048F00091FAC0F17F00DAE70023C4F8F034C4F87D
:10490000F834584B1B68C4F8FC3403232B700AE0BE
:10491000544B1A68D4F8FC346433934203D24020D9
:1049200009F0A8FB38B109F0D1FB08B101232B70C5
:1049300015B0BDE8F08F4C4F4026B846D4F8F83497
:10494000F85C78B111F030FFD4F8F034013E03F197
:10495000FF33C4F8F034D4F8F83403F10103C4F899
:10496000F834EBD1D4F8F83418F80330002BDAD14E
:10497000C4F8F8344FF0FF33C4F8FC340423C5E71F
:104980003A4A5021A2F10C0301934323029200936F
:104990004920A2F10A03163A07F038F80028C2D1DC
:1049A00033684FF0FF3213F0800305D0C4F8F804E9
:1049B000C4F8FC240523A9E7C4F8F834C4F8FC249F
:1049C0000723A3E7022300210093294B02910191C1
:1049D000A3F10802482007F019F80028A3D14FF0EE
:1049E000FF33C4F8F804C4F8FC3406238EE7214AE8
:1049F0000021A2F10C0301930B23029200934720A4
:104A0000A2F10803143A07F001F800288BD14FF007
:104A1000FF33C4F8F804C4F8FC34D1E705230021BF
:104A20000093154B02910191A3F10802532006F067
:104A3000EDFF00287FF477AFC4F8F804082365E79A
:104A4000141B0020742F0020EA0F00206C060020A9
:104A5000960F00207A0600208006002078060020AD
:104A600079060020583200202C930108A2930108F7
:104A7000B8960108D49601084C970108EC0F002065
:104A8000B2320020700E0020980F002006F054FD76
:104A900000283FF448AF09F02FFB00283FF443AF54
:104AA0004FF48053A4F800350A232FE73B689A039C
:104AB00019D5B4F80235B3B9D4F80465452011F01E
:104AC00073FE0E2011F070FE304611F026FF4046B6
:104AD00011F023FF4FF48053A4F800350A232B7004
:104AE000404606F031F906F009FD1CE794F8083558
:104AF000002BF5D03B689B03F2D409232B70F2E71F
:104B0000264B1A68D4F8FC34C833934211D2244B94
:104B100093F872665EB9D4F8EC0409F06FFE94F86D
:104B20000935C4F8EC64022B01D10DF075FB0123AB
:104B3000ECE609F0E1FA0028E9D1F4E66425FDF796
:104B4000F4BFD86A32287EF6D8AFFEF7A8BF154B5F
:104B5000B3F9042082EAE273A3EBE2730E2B04DCC8
:104B6000114B1B6858073EF515AE0A220F4B012466
:104B7000B3F9043093FBF2F30D4A1380FEF70BBE3A
:104B8000DFF830A04846514613F0A4FF00283EF459
:104B9000E9AEC8F814A0FEF7EDBE00BF5832002001
:104BA000E01B0020E42300206823002008100020E0
:104BB000721000200000E1442DE9F04FB24BAFB07D
:104BC0001E780093002E00F0C780B04B18680028B4
:104BD0006CD00FF0E2FADFF8ECA2AD4CDAF800008E
:104BE0000AF0EEFA002861D0DAF800000AF0E2FAE2
:104BF0000928A84D01D03F284FD14FF00008C146E9
:104C000046462F68DFF8C0B208EB0B0347B13A46BF
:104C100058F80B102046019312F058FD019B08B97B
:104C20006EB3994608F10808B8F1F00FECD196B1CF
:104C3000D6F800E0D9F800C02B681EF803001CF875
:104C40000310814207D15A1CE1B92D2B1AD820201C
:104C50002A60E054A1542B680BB14E4507D08E4812
:104C600011F0CAFB4E4510D909F092FD00272B68C0
:104C70009F42B3D2E05D11F079FA0137F7E71E46A3
:104C80009946CFE7E0542A60D6E756F8080B11F0B2
:104C9000B3FB092011F06AFAE4E72B68002B41F01E
:104CA0006581042805D17A480AF004FC2FB0BDE8DC
:104CB000F08F0C2841F07E81784811F09DFB09F0BF
:104CC00067FD8BE701220B4601F063B9591E605C5A
:104CD0002028F7D002B12B600026E654704BDFF895
:104CE000E881D3F800B056F8081006EB080908462A
:104CF000019112F0BDFC019907460246204612F0D0
:104D0000E5FC20B9E35D5B445B785B0706D00836C1
:104D1000F02EE8D1634811F06FFB07E0624B994534
:104D2000F8D2781CD9F8043020449847002301F0C9
:104D300034B92F2B3FF652AFA0F12002D2B25E2A37
:104D40003FF64CAF13B920283FF448AF5A1C2A60F5
:104D5000E05411F00BFA41E7544B554CB3F8009076
:104D600009F00403009354F8093C002B41F0CA8079
:104D70000136032E04F1CC04F5D197E7012B06D1BF
:104D80004D2808BF022318BF002301F0D1B8022B21
:104D900003D13C2808BF0323F5E7032B0BD10023E5
:104DA000C0289FBF04F8053C04F8040C04F8030C69
:104DB000042301F0BDB8042B09D114F8033C04F816
:104DC000020C5F4004F8037C052301F0B1B8052B09
:104DD00013D114F8051C14F8043C14F8032C8B426E
:104DE0004AD94B1C04F8053CCC23424004F8032C60
:104DF000304A03FB06230B44587214F8013C062B7F
:104E000041F081802C4B05AF93E8070087E807004D
:104E1000002214F8043C14F8028C23440993ADF8E2
:104E20002A200FFA88F30492394604AA40460894CF
:104E3000ADF82830ADF81C3001F0D4F80546002854
:104E400040F0C880B8F1760F40F0D780089B5A1C1C
:104E500008921F78002F69D1184B1B68D80740F1C2
:104E6000BB804FF0A5083D46BA46BB46144B93E8BD
:104E700006024FF0040E82E0824202D1062301F0C6
:104E800057B8002301F054B8682F0020483B002099
:104E9000342F0020642F0020D2BC0108D7BC0108A9
:104EA00060030020E2BC010834BA0108960F00201C
:104EB00009330020003300206C9701086423002090
:104EC00058230020203B002044B90108009B002B00
:104ED00041F0198023281DD10121A54B54F8092C3C
:104EE0001970A44BA4491A60A44BA5481A609A6093
:104EF0009DF8002059605A7310221A73A14A043396
:104F0000136011F079FA09F043FC9F4A138843F0CB
:104F1000020313809D4B1B681B78BB427FF46DAF6F
:104F20009B4B9C4A1A609C4BDD6066E7FF2F0BD1C0
:104F30000EA99A4804F08AF80EA991E806024FF0EB
:104F4000A508AA46AB4694E7791ECBB21D2B4CD8D8
:104F5000934A92F969349F4247DC18234B4303F587
:104F6000CC739818B0F910B0B0F912A0B0F9145081
:104F700090F81680011D13F802E091E806020598EA
:104F80000192431C0593077005982EAF431C47F808
:104F9000A43D80F800E038460FF0CDF9019A38467C
:104FA00011460FF0C8F9494638460FF0C4F91FFA08
:104FB0008BF138460FF0D3F91FFA8AF138460FF01B
:104FC000CEF9A9B238460FF0CAF9059B5A1C0592D2
:104FD00083F80080012357E04FF0A5083D46BA460C
:104FE000BB46B9463A46394643E74FF0A508AA46BC
:104FF000AB46A9462A4629463BE7B8F1470F22D1DE
:1050000008A804F0D5FE8046014638460FF093F913
:10501000644B0EAFDD6808F18003AB4294BF80257E
:10502000A5EB080510F0D8FF2A463946404611F096
:1050300011F800238342CDDA059AF95C551C0595D9
:1050400001331170F6E7089B099FB8F15D0FA7EBDC
:10505000030700F0418500F2FA81B8F1390F00F042
:10506000B08600F24581B8F1290F00F0C28600F247
:105070009F80B8F1230F00F0858361D8B8F1070F46
:1050800000F047854FF0FF33ADF81E30002B00F0E5
:105090002987059B54F8090C0693434B0593036835
:1050A0001B6A03B1984724228DF838204D22059BB6
:1050B000069F8DF83920FF1ABDF91E20FF2F3B46B1
:1050C000A8BFFF23511C14BF3E2221228DF83B3084
:1050D000BDF81C308DF83A200EA9052254F8090CB1
:1050E0008DF83C300AF072F89DF83C509DF83B304A
:1050F000FE2F85EA030540F3E786F9B254F8090C60
:105100004FEA27280AF05FF85FFA88F154F8090C93
:105110000AF059F87D406DB285EA0805EDB23A46CD
:10512000059954F8090C0AF051F805990A46BB1A7A
:105130000B44002B40F3CB8612F8013B5D40F6E7B1
:10514000B8F1250F00F03286B8F1270F9AD108A8E0
:1051500004F044FE154DA5F8F00008A804F03EFE4A
:10516000A5F8F20008A804F039FEA5F8F40031E72C
:10517000682F0020203B002007F20008700F00205D
:1051800002BD0108483B0020960F0020A422002009
:10519000F04F0020EFBEADDE00ED00E03C17002038
:1051A0003C160020F80000201C3C0020E01B0020E2
:1051B000B8F1330F00F061865AD8B8F12B0F00F028
:1051C0003086B8F12D0F7FF45DAF5A1C2EAD45F837
:1051D000982D1B78DFF81884284688F8C43104F02D
:1051E000FDFDA8F8D601284604F0F8FDA8F8D20184
:1051F000284604F0F3FD089BA8F8D4015A1C089235
:105200001B78082F88F8CD317FF6E4AE284604F0ED
:10521000E5FDA8F8DA01284604F0E0FD0C2FA8F817
:10522000DC017FF6D7AE28460FF076F828460FF05F
:1052300073F8284604F0D2FD102F7FF6CBAE089B02
:10524000112F03F1010208921B7888F8C6313FF450
:10525000C1AE284604F0ACFD152FC8F8C8017FF692
:10526000B9AE089B5A1C08921B7888F8CC31B1E67D
:10527000B8F1350F00F0A182B8F1370F7FF402AF1B
:105280000723B7FBF3F3C3EBC302BF1A7FF4FAAEF5
:10529000DDB2FBB2AB423FF49DAE089B01375A1C16
:1052A000089293F90080404609F010FB82460028DE
:1052B0003FF4E8AE80F8008008A804F08FFD089A5B
:1052C000AAF80200531C0893134613F8021B089314
:1052D0008AF8041053788AF80530D31C0893937821
:1052E0008AF80730131D0893D3788AF80630D0E780
:1052F000B8F1480F00F0908441D8B8F13E0F00F0AB
:105300000F8204D8B8F13C0F3FF464AEBAE6B8F1AE
:10531000410F00F0BA85B8F1430F7FF4B3AE2EAF62
:105320005A1C47F8982DB24D1B78384685F818322C
:105330000023AB6004F03CFDAB681843089BA860F9
:105340005A1C08921B78384685F8C43104F046FD93
:10535000A5F8F000384604F041FDA5F8F200384603
:1053600004F03CFDA5F8F400384604F037FDA5F83C
:105370003601384604F032FDA5F838012AE6B8F1C6
:105380004E0F00F0568535D8B8F14A0F00F0D581A0
:10539000B8F14C0F7FF476AE5A1C08921A46944D21
:1053A00012F8021B0DF1B80848F8982D85F81C1268
:1053B0005B78404685F81E3204F010FD089BA5F886
:1053C00020025A1C08921B78404685F8223204F0CD
:1053D00005FD089BA5F824025A1C08921A78082F8C
:1053E00085F826227FF6F6AD9A1C08925B7885F840
:1053F0001D32EFE5B8F1510F00F0F683B8F15B0F05
:105400007FF440AE5A1C2EAD45F8982D784F1B788E
:10541000284687F805310EF07FFF28460EF07CFF06
:10542000089B28465A1C08921B7887F87C3004F0A9
:10543000D5FCA7F87A00284604F0D0FC089BA7F812
:1054400088005A1C08921B7887F80431C2E5B8F12D
:10545000D10F00F0EF8300F2A980B8F1CA0F00F07D
:1054600073817CD8B8F1610F00F0908338D8B8F11F
:105470005F0F7FF407AE5F4F08A83D6804F0AEFCF5
:10548000E88408A83D6804F0A9FC288508A83D68C0
:1054900004F0A4FC688408A80EF03EFF08A80EF0F3
:1054A0003BFF08A80EF038FF08A80EF035FF08A84B
:1054B0000EF032FF08A80EF02FFF08A80EF02CFF08
:1054C00008A8D7F800800A2504F088FC6843C8F8CB
:1054D000300008A83F6804F081FC6843F86279E571
:1054E000B8F1C80F3FF476ADB8F1C90F7FF4CAAD7B
:1054F0005A1C08921978404A002900F097831168D5
:1055000041F002013D4D11602A782EAF02F0F90200
:105510006FF304122A709A1C47F8982D5B7838466E
:105520006B7104F045FCA860384604F041FCE8606B
:10553000384604F053FC2861384604F04FFC002341
:105540006B83AB83EB8364232D4AAB84EB841368BA
:10555000288443F04003136004F04CFC3AE5B8F1B2
:10556000CE0F00F02C8311D8B8F1CC0F00F04F8192
:10557000B8F1CD0F7FF486AD224B1B885B073FF55A
:1055800029AD4FF4C872204B5A8423E5B8F1CF0FF0
:1055900000F09881B8F1D00F7FF474AD194B1B88DF
:1055A0005A073FF517AD04F033F9AEE0B8F1D90F63
:1055B00000F054822CD8B8F1D30F00F0AB80C0F0CB
:1055C0009480B8F1D40F00F0DA81B8F1D60F7FF4EF
:1055D00059AD00250D4F08A804F000FC052D00B2C0
:1055E000D8BF27F815000135082DF4D1F2E400BF2B
:1055F000E01B0020702F0020642300203C100020BE
:10560000D8220020960F0020700F0020503B002071
:10561000B8F1DC0F00F04D825AD8B8F1DA0F00F083
:105620003482B8F1DB0F7FF42DAD17229E4B0021A1
:105630001B6828271A755A7555229A702D221A73DD
:1056400041221A7178229A73B4225A7105221A746F
:1056500008229A761422DA714B22DA763C221E2531
:1056600032204FF00A0C4FF00F0E4FF064081A7200
:1056700083F82020C82299755973D9751F709D72BF
:105680005F70DD72D87083F818C083F80FE083F87C
:10569000198083F806C083F811E083F80980D87474
:1056A00083F81DC083F821E09F7783F82450DA84C3
:1056B00042F21072DA624FF4967219635A845A21D8
:1056C0009A86DA86A522188583F838105A8781E4ED
:1056D000B8F1F20F00F09681B8F1FA0F7FF4D2AC76
:1056E000724B1B885D0710D5CCE4704A128812F00B
:1056F00004027FF46FAC591C089119786C4B022995
:1057000083F8501601D983F8502603F0FDFC03F00E
:10571000B7FD5FE408A804F061FB664B188059E40C
:105720005A1C08921A46624912F8020B81F81702B5
:1057300008925B7881F816324CE408A804F04EFB1E
:105740005B4BA3F8020145E4574B1868431E00F178
:105750000905089A511C0891114611F8027B03F8BB
:10576000017F08915178AB42997202F103010891CF
:1057700092781A75EDD101254F4B83F820500BF02C
:1057800017FB27E45A1C08921D78132D3FF67AACBC
:10579000454A4FF00C0E11689A1C089200225F785F
:1057A000DFF818C10EFB02C090F80880B84500F081
:1057B000C38301321D2AF5D164E45A1C08921A7879
:1057C0000B2A3FF65FAC38490868991C0891597854
:1057D00003293FF657AC062505FB020282F8931019
:1057E000D91C0891997882F88E10191D0891D978E2
:1057F00082F88F10197982F89010597982F89110F7
:10580000D91D9B79089182F89230FFF7E3BB092FED
:105810007FF638AC08A80EF07FFD0021089BDFF86A
:10582000A0805A1C0892D8F800501B782B70089A58
:10583000022902F10103089313782BD1B42BA8BFDE
:10584000B423022BB8BF02236B7101310329EED1BF
:10585000931C0893537808A8642BA8BF6423AB71EA
:10586000D31C089393786B70131D0893D378AB7097
:1058700004F0B4FA0A2F288106D0089BD8F800203B
:10588000591C08911B78D37101230B4A82F82030F0
:10589000FFF7FABBB42BA8BFB423062BB8BF06236F
:1058A0006818C370D1E700BF702F0020960F00204A
:1058B000E01B002072100020700F0020A897010844
:1058C0004C3B002008A804F089FA6FF4AF6143183C
:1058D000C14D9BB2C62B98BFA5F8D20108A804F011
:1058E0007DFAA5F8740008A804F078FAA5F8760007
:1058F00008A804F073FAA5F8780008A804F06EFA76
:10590000089BA5F820025A1C08921B7808A885F865
:105910003E310EF001FD089B08A85A1C08921A4659
:1059200012F8021B85F83F1108925A7885F83B213E
:10593000DA1C08929B7885F8CF310EF0EDFC08A8B0
:1059400004F04CFA089B00EB80005A1C08921A469F
:105950004000A5F8180112F8021B089285F83011D2
:105960005A7885F83421DA1C08929A7885F8332120
:105970001A1D0892DB7885F83531FFF72BBB0F2F06
:105980007FF480AB5A1C08921D78072D3FF67AAB46
:10599000924F08A8D7F8008004F020FA0E235D4348
:1059A000A844A8F8DB0008A8D7F8008004F016FA8D
:1059B000A844A8F8DD0008A8D7F8008004F00EFA83
:1059C000089A3B68A8441D441346511CA8F8DF0000
:1059D000089113F8021B08A8089385F8E110537882
:1059E00085F8E230D31C0893937885F8E330131DD3
:1059F0000893D37885F8E43004F0DAF9C5F8E500C7
:105A0000FFF7E8BA5A1C08921A780F2A3FF63AAB09
:105A100006257148991C05FB0202089159782EA8A9
:105A200082F89010D91C0891997882F89110191D6C
:105A30000891D97882F89210197982F893105979DF
:105A400082F89410D91D9B7940F8981D82F8953002
:105A50000EF062FC0DF086F9FFF7BCBA08A804F05E
:105A6000BDF95D4DA5F87E0008A804F0B7F9A5F8CA
:105A7000800008A804F0B2F9A5F8820008A804F094
:105A8000ADF9A5F88400FFF7A5BA591C089119468D
:105A9000524A11F8020B1268089182F8D600597820
:105AA00082F8D710D91C08919B7882F8D930FFF77B
:105AB00091BA19465A1C089211F8020B464A0891ED
:105AC00082F80001597882F80811D91C08919B7856
:105AD00082F81A31FFF77EBA5A1C2EAD3F4F45F8B7
