:020000040800F2
:1000000000500020597201080D7301080194000886
:100010000D7301080D7301080D7301080000000045
:100020000000000000000000000000000D73010847
:100030000D730108000000000D730108EDD60008E3
:100040000D7301080D7301080D7301080D7301088C
:100050000D7301080D73010897060108A106010838
:100060009F0601089D0601089B06010865680008B7
:1000700055680008456800083568000825680008CC
:1000800011680008FD6700080D7301080D73010871
:100090000D7301080D7301080D730108990601081D
:1000A0000D7301087D2301080D7301086D230108FC
:1000B0006123010851230108412301080D73010840
:1000C0000D7301080D7301080D7301080D7301080C
:1000D0000D730108B1640008A9640008A164000858
:1000E000950601080D7301080D730108000000005A
:1000F0000000000000000000000000000000000000
:0C01000000000000000000005FF808F1A3
:10011000B84B2DE9F04F1B680546B74C188C97B0CB
:10012000208016F04BFCB54916F0A0FCB44BB54E40
:100130009A7C30600896069312B9284613F0E8FAC4
:10014000069B9B7C022B08D0AF4B1B689E0704D5F7
:1001500011F00AFE28460EF0FBFCDFF8F892AB4BDC
:10016000D9F800A0D3F800B09AF800809BF8D630F8
:10017000A74E1A464146B6F90000059313F0ECFD70
:10018000A44D059B41461A4628800746B6F9020051
:1001900013F0E2FD68809AF807109BF8D72080469C
:1001A000B6F9040013F0D8FD069BB6F90620B3F8A3
:1001B000D41140428A42A880CDF824900595C0F21F
:1001C0007683B2F5FA6FA8BF4FF4FA624FF47A73F0
:1001D000521A5A43C1F5FA61B2FBF1F2642592FB5F
:1001E000F5F38D495E1C31F9130031F916106FF0EB
:1001F000630606FB0323091A4B4393FBF5F3059AA9
:100200000344D380854B1B685D0640D5844BB3F90E
:1002100004000A2390FBF3F0824B1B88C01A00B243
:1002200016F0D0FB804916F021FC054611F08AFC3F
:100230000646284611F00EFC0546404616F0C2FB65
:100240008046384616F0BEFB01460746304616F09B
:100250000DFC41468146284616F008FC01464846FA
:1002600016F0FAFA16F0DEFD059B4146188030467E
:1002700016F0FCFB39460646284616F0F7FB014609
:10028000304616F0EBFA16F0CDFD059B5880674D11
:100290002B88580740F10D830121002010F0F1F95F
:1002A000634883680BB163499847069B93F8D8313C
:1002B000002B59D0604B5F4E1D78B37843B907F0DF
:1002C00033FD01210246301D11F072FC0123B37091
:1002D000208816F073FB0146584811F03DFC16F0DB
:1002E000C7FD574B80B25B88B3FBF0F0411C09B2ED
:1002F0003184002D00F07B8300234E4CDFF8148105
:10030000B6F922C004F1240E04F12C063EF91320A4
:1003100038F913700CFB02F292FBF1F236F813502D
:1003200026F813707D1B2A442EF813200133042B6A
:10033000ECD160843F4A0023B2F92200002840F348
:100340005A83B2F9204002F12C05243232F91310FD
:1003500035F81360414391FBF4F1711A059E26F8BC
:1003600013100133042BF1D1334B1D78002D00F015
:10037000EF802E4B334F1B88334E13F0040F334C5A
:1003800040F03B83237AB3B10722D4F8181104F567
:1003900080700DF0F3FE237A6BB13368DA070AD56B
:1003A000DFF8908098F834302BB90E200EF0B0F9B9
:1003B000012388F83430A37B23B13B685B025CBF28
:1003C0000123E3733B68DFF84C80C3F38052C3F32F
:1003D0000063A27323740DF045FD0EF0E8F8227857
:1003E0001B4B03EB42135F8917F4006F00F05A8335
:1003F00032E000BF5421002072390020BD3786351D
:10040000A0160020542B00209C1D002070220020EC
:100410005C210020A01F0020C4310020281F0020E4
:100420000A0B0020800C002035FA8E3CEC0A0020DC
:10043000381D0020C8030020820C0020CC030020BF
:1004400094160020B81F0020241F002088110020CF
:1004500038980108CC380020D04B1B68580500F1B3
:100460002183336813F0100900F0EE82D4F88C3445
:10047000B8F9020093F80390494611F046FA00B229
:10048000B8B1D4F888344042B3F84830584316F035
:1004900099FA8246484616F095FA0146C04816F089
:1004A000DBF90146504616F095FB01210DF0BEFD2B
:1004B00028462073F90440F19683B84B1B685A050F
:1004C00000F19183336813F0100FD4F88C3400F0EE
:1004D0001D839978B8F9000011F017FA00B20030C6
:1004E00018BF0120AF4BD87217F4005FAD4C00F07D
:1004F0008183AA4B1A6812F4806240F07B83AA4B76
:100500001B6813F0100340F07183A84AB2F904107D
:1005100081EAE172A2EBE172D4F88C1489788A4204
:1005200040F36683D4F81831C4F84C31657341F256
:10053000B80022789E4B03EB42139D8920EA050008
:1005400010F0FAF8284610F007F92278994BDA866D
:100550000022994B1A70974B93F838409A46D4BBB7
:10056000904B9649D3F88834186B16F077F900232E
:10057000CAF8C000CAF8C4004FF4967221460AF1C6
:10058000CC00CAF8B830CAF8BC30CAF89030CAF803
:10059000A030CAF8AC30CAF89430CAF8A430CAF80F
:1005A000B030CAF89830CAF8A830CAF8B430CAF8DF
:1005B0003C40CAF86440CAF870408AF8C84015F058
:1005C0007BF84FF4967221460AF5FC7015F074F82A
:1005D00001238AF8383011F0BDFF06460EF0A8FA64
:1005E000002840F00A830023CAF88430CAF8883013
:1005F000CAF88C30304612F059F80A20704B694C1A
:10060000B3F904304FF001085843C4F8180116F04C
:10061000D9F96C4916F0DEFA6B4916F027FA05464F
:1006200011F018FAC4F81C01284611F08BFA44F6B0
:100630001F62604DC4F82001D5F8383384F8048077
:10064000F31A9342614F40F28180C5F83C33D4F8ED
:100650008834C5F83863196BD5F8C00016F0A4FBD0
:100660000026002800F058834046D5F8B0300093AB
:10067000D5F8AC30D5F8A420D5F8A0100DF0BEFE0A
:10068000D4F88834D5F8C400196B16F08DFB002817
:1006900000F049830120D5F8B420D5F8A8100DF05A
:1006A00077FED5F8B8800021404616F09BFB002865
:1006B00000F04483D5F8BC30C4F82481C4F8283154
:1006C0003B885B0740F13683D4F82C61002130462B
:1006D00016F088FB002800F02A833146404616F0C9
:1006E00081FB00B94646C4F82C6101234046637281
:1006F000E37016F097FBA5F840030C2395F8C8604B
:10070000DFF8D0E003FB06539EE80700013603F153
:10071000CC0CF6B203F5FC73182E8CE807000EF132
:100720000C0207CA83E807008ABF002385F8C86067
:1007300085F8C830D5F8C00016F09AFBA5F842033A
:10074000D5F8C40016F094FBA5F8440311F002FF9D
:100750000023E1790646A5F8463311B10123A5F837
:10076000463394F809B0BBF1000F05D0B5F8463315
:1007700043F00203A5F84633237A2BB1B5F846338C
:1007800043F00403A5F84633074A136898072CD5AD
:100790000F4890F805E0D4F888041DE0281F0020D9
:1007A0000000FA4388110020241F0020A01F002011
:1007B00038980108C8030020820C00206F12833A89
:1007C0000A0B00200000C84235FA8E3CEC0A0020DB
:1007D0003C0B0020680400200078864522BFB5F855
:1007E000460340F00800A5F8460395F8400028B1FC
:1007F000B5F8460340F01000A5F84603A07A28B1EA
:10080000B5F8460340F02000A5F8460323F0800029
:1008100010603A8812F0040240F0A2826274A34B86
:10082000A34C1B78D3B1A34BB3F90620069BB3F8B6
:10083000D4319A4212DC069B93F81832012B01D076
:10084000192B03D1069A92F88A203AB90E2B05D0BB
:1008500003F0EF03082B1CBF0023A380964B974E99
:100860001B6813F01003079340F05A85944B1A78D5
:10087000944B03EB42135B89DB0501F1F787336887
:1008800093F8DA50002D00F04B858F4B1B689F07C3
:1008900000F046852DB28D4B8D491F6A384616F003
:1008A00083FA002800F0F884894F00F0FDBC0A4666
:1008B0008CE4884A1668F10707D4874A92F8252005
:1008C000012A04BF43F001032B802B8823F43F420D
:1008D0002A80794A11680A0708D423F47C5323F04C
:1008E00001035B045B0C43F480732B807B4B7C48DF
:1008F0001B8813B103689B0702D47A4B1B882BB16A
:100900002B8823F0010343F400732B80764B1B8864
:10091000632B81BF2B8823F0010343F480632B807A
:1009200016F4804704D0714B1E4214BF01270027E4
:10093000634BD3F8882492F839E0BEF1000F21D040
:100940006B4A127842B9DFF8BCE1DEF800E09EF8AD
:100950000AE0BEF1020F05D11B7A002B45D0CA4335
:1009600002F001022B8813F0040F05D1DFF898E1A3
:1009700016EA0E0F00D007B122B123F0010343F4B1
:1009800000632B800268170707D5CE055FBF2B8851
:1009900023F0010343F480532B80900707D58A0589
:1009A0005FBF2B8823F0010343F400532B8009F031
:1009B000EDF938B92B8823F001036FEA43436FEA5E
:1009C00053432B802B8813F0010F14BF0022022207
:1009D000484B1A7011F0BEFD474B1B68C01A002827
:1009E000FFF65EAC14F03CF95AE40122BAE7738CCE
:1009F000013B73849EE45384B6E43B689B0212D5AA
:100A000041F21002304B1B681A420CD1237A53B1C9
:100A10003368D4F81811D8074CBF0522072204F513
:100A200080700DF0ABFB3368D9077FF5B4AC334869
:100A30000DF08AFCC4F8900130480DF0D1FBC4F8E9
:100A400094010DF081FBA6E42D4BB8F80600B3F934
:100A50000020D4F88C34801A00B280EAE071DB7890
:100A6000A1EBE071994213DDD4F888340028B3F883
:100A7000483000FB03F0D4F89C34CBBF5B881B8864
:100A80009A1AD21A90FBF2F015F09CFF02210DE5A4
:100A9000207B00283FF40DAD002002210DF0C6FAA6
:100AA000484606E50023237304E500BFF700002055
:100AB000A01F00205C210020241F002070220020A5
:100AC0008811002038980108281F00207C2D002064
:100AD0009A99193FB81F00208C210020EA0A0020B3
:100AE0009C1D00200E2D0020C41F002000010800C6
:100AF000001F0020DC3B0020E03B0020F81200201B
:100B00000000002028340020000308009E78059B88
:100B10003146B3F9020010F0F8FE059B31460FFA9A
:100B200080F8B3F9000010F0F0FE06B2B8F1000F43
:100B300001D1002E49D0D4F8883493F83A20012A04
:100B400041D14FF4FA7AB3F8469009FB08F090FBD4
:100B5000FAF015F037FF804609FB06F090FBFAF03B
:100B600015F030FFD4F820A106465146404615F056
:100B70007DFFD4F81C9183464946304615F076FF38
:100B80000146584615F068FE616916F023F8D4F85E
:100B9000001115F063FE4946C4F83401404615F0D3
:100BA00065FF51468046304615F060FF01464046DD
:100BB00015F054FEA16916F00DF8D4F8041115F0E3
:100BC0004DFEC4F8380128468CE4E07A00283FF452
:100BD00089AC0FA80BF066FC0FA8012231460DF07E
:100BE0002BFB30467EE40023E3727DE415469DE452
:100BF0001D469BE40023637399E49E4CDAF8901041
:100C0000206815F029FEDAF894108046606815F027
:100C100023FEDAF898100746A06815F01DFE964CE2
:100C200005462168404615F021FF61688146384637
:100C300015F01CFF0146484615F010FEA1688146DC
:100C4000284615F013FF0146484615F007FEA16936
:100C50008146404615F00AFFE1698346384615F0A3
:100C600005FF0146584615F0F9FD216A83462846DE
:100C700015F0FCFE0146584615F0F0FDE16883468C
:100C8000404615F0F3FE21698046384615F0EEFE29
:100C90000146404615F0E2FD61690746284615F019
:100CA000E5FE0146384615F0D9FD744B00F10044CD
:100CB0001B88CAF8849013F0040FCAF88840CAF859
:100CC0008CB06F4F10D16F4BD3F888345B785BB129
:100CD0007D685846294615F0BFFD6B4915F0C6FEE4
:100CE000294615F0BBFD78607968584615F0B4FDCB
:100CF000664D0746C5F88C00484616F093F8A5F8EF
:100D00003003204616F08EF8A5F83203384616F068
:100D100089F8A5F834036DE400963346D5F8A4208D
:100D2000D5F8A010AAE40022D5F8A810B7E4C4F8BA
:100D30002C81DAE4564BC4F82C31D6E43A88544B73
:100D4000C4F828615607C4F8243158BFC4F82C31C0
:100D500000236372E3704FF6FF73A5F84033CCE4D1
:100D6000002220786271A2714A4A13F0100302EB4C
:100D70004012B2F80A8028D0314640460AF064FE9C
:100D8000404A53790BB10023537093790BB1002380
:100D90009370D37A3D492BB1B1F8463343F0400309
:100DA000A1F84633137B2BB1B1F8463343F08003EF
:100DB000A1F84633537B002B3FF431ADB1F84633F5
:100DC00043F48073A1F8463329E518F0080F6BD07F
:100DD0003148D5F848230380C5F8486343808380B1
:100DE000074600293CD0B31A2C4A934204D9C5F8CF
:100DF0004C630BF097FBC3E7A378DBB1D5F84C331A
:100E0000C5F84C63A6EB0308254B984525D8D4F8C4
:100E10008834B3F8500015F0D5FD012100F10040F1
:100E20000DF004F940460BF0EFFB40460BF0A2FB3F
:100E30000123A371D4F88834B4F98424D4F89C1421
:100E4000B3F9583013440A884988934203DB994226
:100E50000A46A8BF1A46FA8092E70BF063FBE7E761
:100E6000104B1B6813B19B88C38089E7D4F89C346E
:100E70001B88F9E7442D00207C2D0020EC0A00207F
:100E800000000020881100200AD7233BC80300205F
:100E9000000080BF38980108A01F0020400D03000B
:100EA0003F0D03002834002018F0010F0BD0D5F8B7
:100EB0005033504AF31A9342C5F8506329D9C5F804
:100EC00054630BF02FFB18F0020F15D0D4F8889460
:100ED000D5F8603399F83A20F31AC5F86063002A10
:100EE00040F0858094F80BB0424A934240F29880DB
:100EF000C5F864630BF0F4FA18F0040F3FF440AF48
:100F000064223D4BD3F84C3193FBF2F33B4A138000
:100F100036E7A378002B4BD0D5F85473384BF71B2A
:100F20009F42C5F854635FD8237C53B3D4F85091E3
:100F30000021484615F04CFF18B3D4F824A1002135
:100F4000504615F045FF002849D0BBF1000F46D0B0
:100F5000384615F033FD2B4915F088FD0023029328
:100F6000294B02460193294B514600934846284B92
:100F70000DF0B8FA0146D4F8080115F06FFCC4F87A
:100F80003C01D4F83C0114F0A7F947F6FF739842EE
:100F9000A8BF18461F4B9842B8BF1846A5F85C0377
:100FA00038460BF031FB38460BF0E4FA0123A3710D
:100FB000D4F88834D4F89C14B3F95820B4F98434A4
:100FC0001A440B8849889A4203DB91420B46A8BF1A
:100FD0001346114A1BB2D380A5F85E3373E7002194
:100FE0000E480DF023F8CCE70BF09CFADEE74FF04B
:100FF000000B79E7400D030088110020720B0020E0
:101000003F0D0300BD37863500000C420000A0C034
:10101000141200205A80FFFFA01F00200000A0C172
:10102000237A002B00F01C816378002B00F0F38002
:10103000D5F86433C5F86463BBF1000F40F0E88075
:10104000F31A0793079A894B9A4200F20681D4F863
:101050000011D4F8340115F0FFFB616915F006FDAD
:10106000D4F804110746D4F8380115F0F5FBA1694E
:1010700015F0FCFC22787E4B064603EB42135B899D
:10108000B9F84200590513D594F96934002B0FDDE6
:10109000182294F97C3402FB034393F89821012A27
:1010A00006D1B3F8A831312B02D9984228BF18468F
:1010B00015F084FC39468146384615F0D7FC314698
:1010C0000546304615F0D2FC0146284615F0C6FB11
:1010D00014F03CF94946824615F084FE80B1514631
:1010E000384615F077FD494615F0C0FC51460746D5
:1010F000304615F06FFD494615F0B8FCCA46064665
:1011000022785B4B03EB42135B895A0528D5D4F850
:101110001831D4F84C01C01A10F006FC42F2283302
:101120009842A8BF1846534B9842B8BF184615F0CE
:1011300049FC514915F04EFD504915F097FC10F04F
:1011400001FD014615F092FC4D49054615F02CFEB7
:1011500000287DD14FF07E51284615F043FE08B19E
:101160004FF07E554946504615F034FD45498146BD
:1011700015F01AFE00286DD14FF07E51484615F04B
:1011800031FE08B14FF07E594946484615F06EFCD5
:1011900001464FF07E5015F05FFBD4F8FC1015F0BF
:1011A00065FC01464FF07E5015F056FB81462946FE
:1011B000384615F05BFC494615F058FC29460746B1
:1011C000C4F84001304615F051FC494615F04EFC7C
:1011D000C4F84401384614F07FF847F6FF77B84268
:1011E000A8BF3846284E294DB042B8BF3046A5F8B2
:1011F0006803D4F8440114F06FF8B842A8BF384629
:10120000B042B8BF3046A5F86A03079806F0F6FD6D
:1012100001221F4B5A71BBF1000F7FF46DAE1C4CC5
:10122000D4F89064B4F98004B6F9365015F0CAFBCE
:1012300029460DF067FB174DB6F934606880B4F9A4
:101240007E0415F0BFFB31460DF05CFB288053E6B1
:101250000B4D87E7DFF82C9096E70BF041F9D7E7C5
:10126000A4F88034A4F87E3446E600BF3F0D0300A6
:1012700038980108D8DCFFFF0000C84235FA8E3CE0
:10128000CDCC4C3D0AD7233C5A80FFFFC803002039
:1012900088110020A01F00204FF07E51384615F025
:1012A000A1FD08B14FF07E57069B39464FF07E50A6
:1012B000B3F8748015F08EFC4FF07E5115F0CCFA27
:1012C0000746284615F07EFB494915F083FC014688
:1012D000384615F0CBFB4FF07E5115F0BFFA059B59
:1012E0000546B3F90600A0EB080015F06BFB0146BC
:1012F000284615F0BBFB0546404615F063FB01464A
:10130000284615F0ABFA15F08DFD069B8045B3F825
:10131000763003DC8342A8BF03469846A4F80680D3
:10132000099B344D1A68B4F90640B5F86E33366837
:101330009C4218BF0121304B1CBFA5F86E431970A9
:101340001B78002B00F0BC80079B9779002B00F0E6
:101350003781002F52D0069B1089B3F87480404526
:101360004CD944453FDDA0EB080015F02BFB81462E
:10137000A4EB080015F026FB0146484615F02AFCB0
:101380004FF07C5115F072FB4FF07C5115F066FA6E
:101390004FF07C51044615F007FD08BB4FF080412B
:1013A000204615F01FFD08B14FF08044C5F870438A
:1013B0004FF07E51D5F8700315F04EFA04463846CA
:1013C00015F000FB0A4915F005FC0146204615F012
:1013D0004DFB4FF07E5115F041FAC5F8700311E056
:1013E0004FF07C54E2E74FF08043C5F87033DFE7FD
:1013F0000000C842C8030020E80A00204FF07E53D6
:10140000C5F870330027D5F870539C4C013E16F890
:10141000019F484615F0D6FA994915F0DBFB20608C
:1014200096F80A800590404615F0CCFA4FF07A51B4
:1014300015F01CFB60608246307D15F0C3FA9149BF
:1014400015F0C8FB079B8346A060059A002B00F0AF
:10145000D3801046294615F009FB294620605046E6
:1014600015F004FB29466060284615F0FFFA59463E
:1014700015F0FCFAA060B9F1000F00F0C880B8F1D7
:10148000000F00F0C480D4F800806168404615F079
:10149000A1FB41468146A06815F09CFB01464846E9
:1014A00015F0DCF901464FF0804015F093FBE06049
:1014B0000137032F04F16C04A9D10022724B1A707A
:1014C000724B1B680593099B1B680793704B1C6844
:1014D00014F0080415D06F4B1B6813F0080410D0EB
:1014E0006D496E4A087802EB40125289150641F1A7
:1014F000C681DC0601F1C3814B7B002B41F0CD811D
:1015000002245E4E0027B0463546DFF8BC9109EB59
:101510008703986C15F056FAD9F8141015F0A6FA4E
:10152000022FC8F8100077D1022C75D10A205C4B2D
:101530005C4AB3F9043093FBF0F310881B1A9BB29A
:1015400018B210F1B30FBCBF03F5B47000B2059B25
:10155000B328C8BFA0F5B4701B7AC8BF00B2584307
:101560001E2390FBF3F015F02DFA059B824693F8AD
:1015700038B0CBF1000015F025FA8146584615F039
:101580001DFA49468346504615F00EFC30B95946BF
:10159000504615F027FC00283CD0D946089B494608
:1015A0001B680222404810F065FB4049814615F057
:1015B000FBFB002801F07C813C4BC5F8EC308FE050
:1015C000002F3FF41BAF12899442FFF617AF069B22
:1015D000B3F876309C42BFBFA01A78439B1A90FBA9
:1015E000F3F0ACBFC7F16400C0F1640015F0EAF994
:1015F0002F4915F0EFFAF0E6022F3FF43CAF2946F1
:10160000104615F033FA29462060584630E700238B
:10161000E3604DE7D146C1E7079B3B44D87815F01E
:10162000D1F9244915F022FA0146824615F016F93F
:101630008146214B33F9170015F0C4F91F4915F005
:101640000DF9494615F012FA1D4915F0C3FA49463D
:1016500015F002F9514615F001F915F0E3FB15F00C
:10166000B1F91249814615F09FFB78BB15494846F0
:1016700015F0B8FB60B3DFF84C9029E0582B002040
:101680000000F8410020EE44E80A0020702200200B
:101690009C1D0020241F002088110020389801087C
:1016A0000A0B0020720B0020740C00200000E1C423
:1016B0000000C84200002041A01F00200000FA43A3
:1016C00000007A440000E144381D0020DFF8149344
:1016D0000137032FC8F8149008F16C087FF415AF98
:1016E000B14F3B6899074CD0069BB3F8D221AF4B62
:1016F000B3F90200B3F90030801A9B1A80EAE07156
:10170000A1EBE07183EAE372A2EBE372B1F5FA7F39
:10171000A8BF4FF4FA71B2F5FA7FA8BF4FF4FA727E
:101720009142B8BF1146084615F04CF9A04915F092
:1017300051FA059B8046D87E6428A8BF642015F026
:1017400041F99C4915F046FA81460146404615F09C
:1017500035FB002800F092824046494615F03AFADF
:1017600080460023944A07990598CDF800800DF033
:1017700027F8CDF800800123904A079905980DF0CD
:101780001FF83F68BA0419D5022C17D0D5F8EC40E1
:101790000021204615F008FB002800F0728204F1B9
:1017A00000404FF0804115F01DFB20B9844B1B8891
:1017B0005B0700F168820023C5F81831380417D59B
:1017C00000230F931093D5F8EC300FA8119310F06D
:1017D000A9FC0F99686915F041F810996861D5F86E
:1017E000800015F03BF8119BC5F88000C5F8EC307F
:1017F00000254FF00009089BD3F80080022D059BBF
:1018000001F03780186B322828D915F0D7F84946EF
:101810007769044615F0E6FA002800F05D8241463B
:10182000204615F023F9D6F850B0014682465846B6
:1018300015F012F804460146384615F0B5FA50B9CD
:101840005946504615F00AF804460146384615F048
:10185000C9FA00B93C463465336D73610135032D17
:1018600006F16C06CAD10026059B564C1433099329
:1018700054F8501C54F84C0C14F0EEFF54F8601C53
:10188000089015F0F3F8022E81461ED14E4B1B78BE
:10189000032B0FD9059B5D8C65B115F0C3FA6B4224
:1018A000984203DBA8420346A8BF2B46184615F012
:1018B00089F88146059B93F8242032B1434B494671
:1018C0001B68434810F0D6F98146099A12F8013B8B
:1018D0000992002B00F0118214F82C2C54F8341CBF
:1018E000013A9200081D54F8505C13F081FE54F840
:1018F000348C0027C8F80050002514F82BAC55454F
:10190000C0F2EC81314B54F8580C1D6800F10040D6
:10191000294615F05FF9394615F0A8F8059B0746EA
:101920009A7F2AB101462B46204610F0A3F90746BC
:101930002849384615F038FA002840F0E081264959
:10194000384615F04FFA00B1234F54F828BC3946F9
:10195000484614F083FF594614F080FF1F49804623
:1019600015F022FA002840F0CC811D49404615F0C0
:1019700039FA002800F0C781194B0793059B022E06
:101980000CBF188DD88C15F01DF854F84C3C05464A
:1019900000211846069315F007FA002800F0B681DA
:1019A000069B03F100401FE0281F00205C2100205F
:1019B0000000FA430000C842582B0020C42B00202E
:1019C000EC0A0020B82B0020DC380020542B00202B
:1019D000842C0020000096C30000964300007AC4C7
:1019E00000007A440000E1C4294615F0F3F80146EE
:1019F0004FF07E5014F030FF0021054615F0D4F969
:101A0000002840F0AF814FF07E51284615F0EAF9EA
:101A100008B14FF07E55BE4B54F85C1CD3F800A0C3
:101A2000089815F023F8294615F020F8514615F0CE
:101A30001DF841460546079814F00EFF54F8541C53
:101A400015F014F8514615F011F80146284614F027
:101A500005FF594614F002FFAE4B80461B6844F860
:101A6000280C13F0200F0893AB4D04D195F8743374
:101A7000002B00F07B8154F824AC40460AF1004B67
:101A8000594615F091F938B95146404615F0AAF972
:101A9000002800F06981D34644F828BC089BD90689
:101AA0001DD5059BB3F83AB0BBF1000F17D0CBF1B1
:101AB000000014F087FF54F8288C82460146404607
:101AC00015F072F948B9584614F078FF824601467D
:101AD000404615F087F900B9C24644F828AC07988B
:101AE00015F0A0F9DFF870826C3428F8160048462B
:101AF00015F098F908F1060A4AF8260054F8940CF3
:101B000015F090F908F1120949F82600384615F049
:101B100089F908F11E0949F82600069815F082F99E
:101B200008F12A0848F826000136032E7FF4A0AEFB
:101B30007A4B7B4E1C78032C17D933685888B0F544
:101B4000FA7F12D2774BB5F97A73B3F90430424277
:101B500083EAE371A1EBE371531A9F4203DB43185D
:101B6000BB42A8BF3B46A5F87A3300273368B94685
:101B70003E46DFF8E88105930DF13C0BA145C0F22C
:101B8000FE80694BF01B1A680FFA80FB12F4805F2D
:101B90000593644ADFF8C89100F047816349B2F9C0
:101BA0000660098811F0040F614908BF08680A68D7
:101BB000604908BFC08A0F6808BFA5F80C04D28A24
:101BC000F888111A8E4200F31281D9F80010B7F983
:101BD0000020B1F90070A5F80C64A2EB07080FFA19
:101BE00088F8C34540F33A810122404685F87423C2
:101BF00014F0E8FE0546584614F0E4FE0146284677
:101C000014F0E8FF4FF0000B82460FAA5C4500F38A
:101C100015814949284614F029FF4FF0020A4FF078
:101C20007C5114F023FF98FBFAFA054607EB0A00F3
:101C300014F0C8FE294614F00FFE15F0F3F80FFA61
:101C400080F808EB0A0014F0BDFE294614F006FEE9
:101C500015F0E8F8354A0FFA80FB128812F00402FA
:101C600040F03F8113463549354A9C4240F3638139
:101C700031F8130022F813000133F6E74FF07E58D5
:101C80006FE520468DE5D5F8E810204614F0E4FD18
:101C90001F4B196814F0EAFED5F8181114F0DEFD98
:101CA0002849044615F080F8A0B92749204615F0C8
:101CB00099F800B1244C059BC5F81841187A14F026
:101CC00081FE224914F086FF214614F0CFFEC5F8AC
:101CD000EC0073E51B4CEEE73765BDE554F8303C8E
:101CE00058F8251053F8250014F0C0FE0146384678
:101CF00014F0B4FD0135074601E6002725E6144F30
:101D000023E6144B39E6CDF81C8037E606986BE6DF
:101D1000542B0020241F0020C8030020DC380020A2
:101D20005C160020A01F0020A81E0020EC0A002046
:101D300060160020042D0020C3F5A83ED0380020F6
:101D4000FE0A0020000034C2000034420000A0421D
:101D5000000096C300007AC43E07002074070020EC
:101D6000082D0020002556E6C34695E6002115F013
:101D70001BF808B108F1004844F8248C8EE6B5F948
:101D8000780314F01FFED8F8081014F06FFE824696
:101D9000B5F9760314F016FED8F8041014F066FEB8
:101DA0000146504614F05AFD059B824693F90130D6
:101DB000B5F97A035B42584314F004FED8F80C10CE
:101DC00014F054FE0146504614F048FD15F02AF870
:101DD00000B2B0422BF8190003DC8742A8BF0746C7
:101DE000304609F1010908F110080646C6E602442A
:101DF000964206DBD9F80020B7F90270B2F902204A
:101E0000E9E6B5F90C249142A7BFB7F90060D9F80B
:101E10000020D9F80020B7F90260ABBFB2F900701A
:101E2000B2F9022032463746D7E6B2F90660D9F851
:101E30000020B2F90070B2F90220CEE632F91B00A0
:101E4000069214F0BFFD514614F010FE14F0EAFFA4
:101E5000069A22F81B000BF1010BD7E60021404641
:101E600085F87413069214F0ADFDBC4914F0FEFD24
:101E70004FF0020A4FF07C5114F0F8FD9BFBFAF58D
:101E800098FBFAFA834607EB0A0014F09BFD5946CB
:101E900014F0E2FC8046781914F094FD01460746E0
:101EA000404614F09FFF069A00B94746384606920E
:101EB00014F0B8FF0FFA80F808EB0A0014F082FD66
:101EC000594614F0CBFC069A0746501B14F07AFDD5
:101ED00005460146384614F067FF00B93D462846DE
:101EE000B6E6D9F800504FF000099D4A9D49D378D5
:101EF0009D480793059BD0F800A01A68600002F483
:101F0000805302F010020992984A0893B2F9062011
:101F1000B1F90C340692964A0593964B126801F576
:101F20006B711B68944F02F080020A900B910A9922
:101F3000494540F047818B4B93F80E24002A00F06E
:101F40009A808E4A8E481268884CB2F84C118D4D9A
:101F5000059192F84E11026812F4807F00F08081A2
:101F6000894B1A88ADF83C205A889B88ADF83E20F2
:101F7000ADF840304FF47A724FF46166834FB7F991
:101F8000023003F5E163534393FBF6F3A3F5FA73D1
:101F9000ADF85430B7F9003003F5E1635A4392FBD2
:101FA000F6F27B4BA2F5FA721B88ADF85620A3F22D
:101FB000DC53ADF842302B682288DB8AD21AADF8A8
:101FC00044206288D21AADF84620A288D21AADF811
:101FD0004820E288D21AADF84A202289D21AADF8F8
:101FE0004C206289D21AADF84E20A289D21AADF8DF
:101FF0005020E289D31AADF8523000231C46654ABE
:1020000022F813400133082BFAD1634B0129D3F88E
:10201000008003684FF0060203F48043089314BF66
:1020200001234FF0FF334FF0640C09935B4B5C4985
:102030001B785C4802FB0313DFF858A10A930A9B44
:102040008B4240F0278100254FF00E096427564E41
:1020500009FB0583B6F9024093F90600444394FB5B
:10206000F7F4E8B274800CF0CDFC01352044082D63
:1020700026F8020FECD14D4E4D4F336813F0200F70
:1020800032D000200CF0BEFC424C054620800120DE
:102090000CF0B8FC3B6860801B0625D5454B3B49DE
:1020A0001B681B78012B3C4B40F06E81D3F800C0BD
:1020B0004FF0320E9CF906305A42B1F90230B1F9B4
:1020C000001053439CF9142093FBFEF351436FF02F
:1020D000310291FBF2F291FBFEF19BB21A44AA1A73
:1020E00022800B44184460803B681E4C13F0006F44
:1020F00094F8303400F0BE81012B00F07E81C0F0F6
:102100005881022B00F0AD81D4F86C34002B40F0E4
:10211000C38194F870340BB10CF08EFC264B93F80D
:102120000090B9F1000F40F0C1823368190340F10B
:10213000BD8210F00FFA214D80462B78033B052B12
:1021400000F283821E4B93F87236002B00F06982F6
:10215000012B00F08A82484667E200BFC3F5A83E23
:102160008C210020C8030020042D00205C210020C9
:10217000241F002060160020FC0A0020702200208E
:10218000281F00206C160020A01F00200A0B002032
:10219000FE0A0020EE0A0020742200209C2C002061
:1021A0009F2C0020D8070020EC0A0020A81E002049
:1021B000B81F00206816002068220020DC310020B3
:1021C000A01600200C9330460FAB0D9233F8094057
:1021D00014F0F8FB0B9B53F8391014F047FC14F083
:1021E00021FE404541460C9B0D9A03DB58450146B4
:1021F000A8BF59460C44079924B227F8024F11B1E1
:10220000A98868880BE00899B1B1BAF80600D98AA4
:10221000091A059888420CDC2988BAF800008C421B
:1022200003DBA0420146A8BF2146398009F102091B
:102230007DE6BAF80210E4E7298868888C4203DB5F
:10224000A0420146A8BF2146398009990029EDD056
:10225000198B0698884201DB002AE7D0A988E4E7B9
:10226000B3F87623ADF83C20B3F87823B3F97A338A
:10227000ADF83E20C14AADF840301268D2047FF577
:1022800079AE2A68B4F90660D28A9642BFF672AE79
:102290005B426DE60E230F7891F9054003FB078939
:1022A000B9F90220B9F9003091F801E0D21A91F998
:1022B000043092B2534393FBFCF34FEA520BA3EB6F
:1022C0000B030794CC781BB206934FEA4E06002C02
:1022D0003FD116AC264436F81C4C0480089C74B1DF
:1022E000FC1E012C0BD8042F14BF01244FF0FF3427
:1022F000059D099E6C43058806FB04540480012358
:10230000D9F80A4003FA0EFE14EA0E0FB0F9006085
:1023100091F9024008BF1D4604FB06F494FBFCF44F
:10232000069B18BF4FF0FF359C4209DB079B5A43C1
:1023300092FBFCF2A2EB0B031BB2A342A8BF234605
:102340003AF81720023005FB032306312AF817302C
:1023500075E616AB1E44B0F9005036F91C6CB54258
:1023600008DA2C44A54203DCA6423546A8BF254620
:102370000580B3E7B2DD2C1BB44203DBA542A8BF46
:1023800025462E460680A9E71B68B1F9022093F97D
:1023900006E002FB0EF24FF0320E92FBFEF22A44F0
:1023A000228093F91420B1F90030534393FBFEF3DC
:1023B00098E6734B1B885D077FF5A6AE714B4FF017
:1023C0000E0CD3F800E00022022304F2324004F2A3
:1023D00044410CFB03E5B5F9045041F8232020F8F3
:1023E00013500133062BF4D1674BC4F868241B68E3
:1023F000C4F86434012384F83034614B1B885807D7
:1024000048D5624A02239646D4F86804DFF894C19E
:102410000130C4F8680452F823503CF913102944E1
:1024200042F823100133062BF5D1574BD4F864241E
:102430001B689B1AB3F57A7F7FF666AE514B4FF05F
:102440000E0C1D6802235EF823200CFB035192FB47
:10245000F0F20133062B8A80F5D1022384F8303460
:1024600052E6474B1B8859073FF54EAE05F030F951
:102470000323F3E7022B0DD14FF00E0E414A04F275
:10248000324015680EFB035230F813100133062B4F
:102490009180F7D10023E1E73D4B1A68984692F905
:1024A0000420002A40F08280364B3A4A1B6803F130
:1024B0007005B2F90200B3F90010B3F902E08842E6
:1024C00003DB86457146A8BF01460E339D4222F8C4
:1024D000021FEED194F85435012B02D0192B40F095
:1024E0008F80274B1B885A0700F18A80D8F800306C
:1024F00093F80080B8FA88F84FEA581894F80E5408
:1025000085B1254B1D786DB14FF00009234BDFF8E5
:1025100094B093F800A0224B0AEB090219784D46BB
:10252000914270DA33689B060FD5DFF87890E8B2F5
:1025300005F10108B9F800100DF07AFEB9F80210A3
:102540005FFA88F002350DF073FE3368D8027FF52C
:10255000E0AD4FF00008DFF85090EDB205EB080059
:1025600039F8021FC0B20DF063FEB8F10D0F08F18B
:1025700001033FF4CEAD9846F0E700BFA81E00204F
:10258000EC0A002074220020882100200C08002082
:1025900064160020EC0A00209C2C00209D2C0020BA
:1025A0009E2C0020EE0A00206221002094F8715435
:1025B000DFF8449385B9DFF844A3D8F8003009EB7D
:1025C0000500DAF8442059881C350FF0F1FAE02DA7
:1025D000F3D1012384F871340025DFF824A3BAF97C
:1025E000020014F0EFF9014609EB05000FF0B4FA10
:1025F00014F018FC1C35E02D2AF8020FEFD153E738
:102600004FF000087AE75FFA89F0B8F1000F05D0C3
:1026100000210DF00DFE09F101097CE73BF81210D5
:10262000F7E7D4F858050BF030FAD4F85C2594F8A5
:1026300060351344B3F5807FA8BF4FF480738342A5
:10264000D4BFC4F85C35C4F85C052B78023B092B79
:1026500027D8DFE813F00F001B00530075008A0035
:10266000A100B300C300E300ED0009F031F8C0F1B0
:102670007F00DAE70023C4F85C35C4F86435934B77
:102680001B68C4F8683503232B700AE08F4B1A6867
:10269000D4F868356433934203D2402008F0F8F947
:1026A00038B108F021FA08B101232B7017B0BDE84A
:1026B000F08F874F4026B846D4F86435F85C78B17F
:1026C0000EF0DCF8D4F85C35013E03F1FF33C4F8BA
:1026D0005C35D4F8643503F10103C4F86435EBD1FB
:1026E000D4F8643518F80330002BDAD1C4F8643517
:1026F0004FF0FF33C4F868350423C5E7754A50210D
:10270000A2F10C0301934323029200934920A2F10A
:102710000A03163A08F01EFD0028C2D133684FF0B4
:10272000FF3213F0800305D0C4F86405C4F86825AF
:102730000523A9E7C4F86435C4F868250723A3E78F
:10274000022300210093644B02910191A3F108023E
:10275000482008F0FFFC0028A3D14FF0FF33C4F855
:102760006405C4F8683506238EE75C4A0021A2F1AF
:102770000C0301930B23029200934720A2F108035C
:10278000143A08F0E7FC00288BD14FF0FF33C4F86F
:102790006405C4F86835D1E7052300210093504B48
:1027A00002910191A3F10802532008F0D3FC002804
:1027B0007FF477AFC4F86405082365E708F060FA92
:1027C00000283FF46EAF08F0A5F900283FF469AF88
:1027D0004FF48053A4F86C350A2355E73B689A03FD
:1027E00019D5B4F86E35B3B9D4F8706545200EF03C
:1027F00045F80E200EF042F8304608F02DFA40461B
:1028000008F02AFA4FF48053A4F86C350A232B7091
:1028100040460EF083F80EF05BFC42E794F8743506
:10282000002BF5D03B689B03F2D409232B70F2E711
:10283000264B1A68D4F86835C833934211D2294B15
:1028400093F872665EB9D4F858050DF055F994F80E
:102850007535C4F85865022B01D112F0C3F9012374
:1028600012E708F057F90028E9D11AE76425FEF7C6
:1028700012B8D86A32287EF6F6AFFEF7C6BF1A4BFA
:10288000B3F9042082EAE273A3EBE2730E2B04DCBB
:10289000164B1B6858073EF533AE0A22144B012431
:1028A000B3F9043093FBF2F3124A1380FEF729BE0A
:1028B000DFF850A04846514614F094FA00283EF440
:1028C00007AFC8F814A0FEF70BBF00BF8821002097
:1028D000F0900108669101087C9401089894010821
:1028E00010950108A0160020A01F0020281F00201E
:1028F0000A0B0020720B00203C080020381D00202D
:10290000EC0A00200000E1442DE9F04FB24BAFB0DB
:102910001E780093002E00F0C780B04B1868002886
:102920006CD00DF0BEFEDFF8ECA2AD4CDAF8000082
:102930000BF0AEF8002861D0DAF800000BF0A2F836
:102940000928A84D01D03F284FD14FF00008C146BB
:1029500046462F68DFF8C0B208EB0B0347B13A4692
:1029600058F80B102046019313F038F8019B08B972
:102970006EB3994608F10808B8F1F00FECD196B1A2
:10298000D6F800E0D9F800C02B681EF803001CF848
:102990000310814207D15A1CE1B92D2B1AD82020EF
:1029A0002A60E054A1542B680BB14E4507D08E48E5
:1029B00011F0A8FB4E4510D90DF068F800272B68E0
:1029C0009F42B3D2E05D11F057FA0137F7E71E4698
:1029D0009946CFE7E0542A60D6E756F8080B11F085
:1029E00091FB092011F048FAE4E72B68002B41F035
:1029F0006581042805D17A4809F046FF2FB0BDE86B
:102A0000F08F0C2841F07E81784811F07BFB0DF0AF
:102A10003DF88BE701220B4601F063B9591E605C5B
:102A20002028F7D002B12B600026E654704BDFF867
:102A3000E881D3F800B056F8081006EB08090846FC
:102A4000019112F09DFF019907460246204612F0BF
:102A5000C5FF20B9E35D5B445B785B0706D00836B1
:102A6000F02EE8D1634811F04DFB07E0624B994529
:102A7000F8D2781CD9F8043020449847002301F09C
:102A800034B92F2B3FF652AFA0F12002D2B25E2A0A
:102A90003FF64CAF13B920283FF448AF5A1C2A60C8
:102AA000E05411F0E9F941E7544B554CB3F800906C
:102AB00009F00403009354F8093C002B41F0CA804C
:102AC0000136032E04F1CC04F5D197E7012B06D192
:102AD0004D2808BF022318BF002301F0D1B8022BF4
:102AE00003D13C2808BF0323F5E7032B0BD10023B8
:102AF000C0289FBF04F8053C04F8040C04F8030C3C
:102B0000042301F0BDB8042B09D114F8033C04F8E8
:102B1000020C5F4004F8037C052301F0B1B8052BDB
:102B200013D114F8051C14F8043C14F8032C8B4240
:102B30004AD94B1C04F8053CCC23424004F8032C32
:102B4000304A03FB06230B44587214F8013C062B51
:102B500041F081802C4B05AF93E8070087E8070020
:102B6000002214F8043C14F8028C23440993ADF8B5
:102B70002A200FFA88F30492394604AA40460894A2
:102B8000ADF82830ADF81C3001F0D4F80546002827
:102B900040F0C880B8F1760F40F0D780089B5A1CEF
:102BA00008921F78002F69D1184B1B68D80740F195
:102BB000BB804FF0A5083D46BA46BB46144B93E890
:102BC00006024FF0040E82E0824202D1062301F099
:102BD00057B8002301F054B868220020C8380020FC
:102BE00034220020642200201ABC01081FBC010806
:102BF0005C0300202ABC0108E0A40108EC0A0020C4
:102C00008139002078390020A0960108241F002077
:102C1000181F0020C4380020F0A30108009B002BDF
:102C200041F0198023281DD10121A54B54F8092C0E
:102C30001970A44BA4491A60A44BA5481A609A6065
:102C40009DF8002059605A7310221A73A14A043368
:102C5000136011F057FA0CF019FF9F4A138843F0E4
:102C6000020313809D4B1B681B78BB427FF46DAF42
:102C70009B4B9C4A1A609C4BDD6066E7FF2F0BD193
:102C80000EA99A4804F0A8F90EA991E806024FF09F
:102C9000A508AA46AB4694E7791ECBB21D2B4CD8AB
:102CA000934A92F969349F4247DC18234B4303F55A
:102CB000CC739818B0F910B0B0F912A0B0F9145054
:102CC00090F81680011D13F802E091E806020598BD
:102CD0000192431C0593077005982EAF431C47F8DB
:102CE000A43D80F800E038460EF075FA019A3846A7
:102CF00011460EF070FA494638460EF06CFA1FFA8B
:102D00008BF138460EF07BFA1FFA8AF138460EF046
:102D100076FAA9B238460EF072FA059B5A1C059253
:102D200083F80080012357E04FF0A5083D46BA46DE
:102D3000BB46B9463A46394643E74FF0A508AA468E
:102D4000AB46A9462A4629463BE7B8F1470F22D1B0
:102D500008A804F0F7FF8046014638460EF03BFA1B
:102D6000644B0EAFDD6808F18003AB4294BF802551
:102D7000A5EB080508F08EFD2A463946404608F0C6
:102D8000C7FD00238342CDDA059AF95C551C0595F1
:102D900001331170F6E7089B099FB8F15D0FA7EBAF
:102DA000030700F0418500F2FA81B8F1390F00F015
:102DB000B08600F24581B8F1290F00F0C28600F21A
:102DC0009F80B8F1230F00F0858361D8B8F1070F19
:102DD00000F047854FF0FF33ADF81E30002B00F0B8
:102DE0002987059B54F8090C0693434B0593036808
:102DF0001B6A03B1984724228DF838204D22059B89
:102E0000069F8DF83920FF1ABDF91E20FF2F3B4683
:102E1000A8BFFF23511C14BF3E2221228DF83B3056
:102E2000BDF81C308DF83A200EA9052254F8090C83
:102E30008DF83C300AF032FE9DF83C509DF83B3056
:102E4000FE2F85EA030540F3E786F9B254F8090C32
:102E50004FEA27280AF01FFE5FFA88F154F8090CA0
:102E60000AF019FE7D406DB285EA0805EDB23A46DA
:102E7000059954F8090C0AF011FE05990A46BB1A87
:102E80000B44002B40F3CB8612F8013B5D40F6E784
:102E9000B8F1250F00F03286B8F1270F9AD108A8B3
:102EA00004F066FF154DA5F8F00008A804F060FFD7
:102EB000A5F8F20008A804F05BFFA5F8F40031E7DC
:102EC00068220020C4380020D7DA0008C80A002091
:102ED0004ABC0108C8380020EC0A0020D820002095
:102EE000F04F0020EFBEADDE00ED00E088120020C4
:102EF000881100203C030020083C0020A016002080
:102F0000B8F1330F00F061865AD8B8F12B0F00F0FA
:102F10003086B8F12D0F7FF45DAF5A1C2EAD45F809
:102F2000982D1B78DFF81884284688F8C43104F0FF
:102F30001FFFA8F8D601284604F01AFFA8F8D2010E
:102F4000284604F015FF089BA8F8D4015A1C0892E3
:102F50001B78082F88F8CD317FF6E4AE284604F0C0
:102F600007FFA8F8DA01284604F002FF0C2FA8F8A2
:102F7000DC017FF6D7AE28460EF01EF928460EF08B
:102F80001BF9284604F0F4FE102F7FF6CBAE089B09
:102F9000112F03F1010208921B7888F8C6313FF423
:102FA000C1AE284604F0CEFE152FC8F8C8017FF642
:102FB000B9AE089B5A1C08921B7888F8CC31B1E650
:102FC000B8F1350F00F0A182B8F1370F7FF402AFEE
:102FD0000723B7FBF3F3C3EBC302BF1A7FF4FAAEC8
:102FE000DDB2FBB2AB423FF49DAE089B01375A1CE9
:102FF000089293F9008040460CF0E6FD82460028D6
:103000003FF4E8AE80F8008008A804F0B1FE089A0A
:10301000AAF80200531C0893134613F8021B0893E6
:103020008AF8041053788AF80530D31C08939378F3
:103030008AF80730131D0893D3788AF80630D0E752
:10304000B8F1480F00F0908441D8B8F13E0F00F07D
:103050000F8204D8B8F13C0F3FF464AEBAE6B8F181
:10306000410F00F0BA85B8F1430F7FF4B3AE2EAF35
:103070005A1C47F8982DB24D1B78384685F81832FF
:103080000023AB6004F05EFEAB681843089BA860A9
:103090005A1C08921B78384685F8C43104F068FE43
:1030A000A5F8F000384604F063FEA5F8F2003846B3
:1030B00004F05EFEA5F8F400384604F059FEA5F8C9
:1030C0003601384604F054FEA5F838012AE6B8F176
:1030D0004E0F00F0568535D8B8F14A0F00F0D58173
:1030E000B8F14C0F7FF476AE5A1C08921A46944DF4
:1030F00012F8021B0DF1B80848F8982D85F81C123B
:103100005B78404685F81E3204F032FE089BA5F835
:1031100020025A1C08921B78404685F8223204F09F
:1031200027FE089BA5F824025A1C08921A78082F3B
:1031300085F826227FF6F6AD9A1C08925B7885F812
:103140001D32EFE5B8F1510F00F0F683B8F15B0FD7
:103150007FF440AE5A1C2EAD45F8982D784F1B7861
:10316000284687F805310EF027F828460EF024F897
:10317000089B28465A1C08921B7887F87C3004F07C
:10318000F7FDA7F87A00284604F0F2FD089BA7F89F
:1031900088005A1C08921B7887F80431C2E5B8F100
:1031A000D10F00F0EF8300F2A980B8F1CA0F00F050
:1031B00073817CD8B8F1610F00F0908338D8B8F1F2
:1031C0005F0F7FF407AE5F4F08A83D6804F0D0FDA5
:1031D000E88408A83D6804F0CBFD288508A83D6870
:1031E00004F0C6FD688408A80DF0E6FF08A80DF0FD
:1031F000E3FF08A80DF0E0FF08A80DF0DDFF08A828
:103200000DF0DAFF08A80DF0D7FF08A80DF0D4FFE5
:1032100008A8D7F800800A2504F0AAFD6843C8F87A
:10322000300008A83F6804F0A3FD6843F86279E520
:10323000B8F1C80F3FF476ADB8F1C90F7FF4CAAD4D
:103240005A1C08921978404A002900F097831168A7
:1032500041F002013D4D11602A782EAF02F0F902D3
:103260006FF304122A709A1C47F8982D5B78384641
:103270006B7104F067FDA860384604F063FDE860F8
:10328000384604F075FD2861384604F071FD0023CE
:103290006B83AB83EB8364232D4AAB84EB8413688D
:1032A000288443F0400313600FF050FD3AE5B8F175
:1032B000CE0F00F02C8311D8B8F1CC0F00F04F8165
:1032C000B8F1CD0F7FF486AD224B1B885B073FF52D
:1032D00029AD4FF4C872204B5A8423E5B8F1CF0FC3
:1032E00000F09881B8F1D00F7FF474AD194B1B88B2
:1032F0005A073FF517AD04F055FAAEE0B8F1D90F13
:1033000000F054822CD8B8F1D30F00F0AB80C0F09D
:103310009480B8F1D40F00F0DA81B8F1D60F7FF4C1
:1033200059AD00250D4F08A804F022FD052D00B26F
:10333000D8BF27F815000135082DF4D1F2E400BFFD
:10334000A016002070220020241F00203C0B00202B
:103350009C1D0020EC0A0020C80A0020D038002064
:10336000B8F1DC0F00F04D825AD8B8F1DA0F00F056
:103370003482B8F1DB0F7FF42DAD17229E4B002174
:103380001B6828271A755A7555229A702D221A73B0
:1033900041221A7178229A73B4225A7105221A7442
:1033A00008229A761422DA714B22DA763C221E2504
:1033B00032204FF00A0C4FF00F0E4FF064081A72D3
:1033C00083F82020C82299755973D9751F709D7292
:1033D0005F70DD72D87083F818C083F80FE083F84F
:1033E000198083F806C083F811E083F80980D87447
:1033F00083F81DC083F821E09F7783F82450DA8496
:1034000042F21072DA624FF4967219635A845A21AA
:103410009A86DA86A522188583F838105A8781E4BF
:10342000B8F1F20F00F09681B8F1FA0F7FF4D2AC48
:10343000724B1B885D0710D5CCE4704A128812F0DD
:1034400004027FF46FAC591C089119786C4B022967
:1034500083F8501601D983F8502603F01BFE03F0C1
:10346000D5FE5FE408A804F083FC664B188059E49D
:103470005A1C08921A46624912F8020B81F8170288
:1034800008925B7881F816324CE408A804F070FCCE
:103490005B4BA3F8020145E4574B1868431E00F14B
:1034A0000905089A511C0891114611F8027B03F88E
:1034B000017F08915178AB42997202F103010891A2
:1034C00092781A75EDD101254F4B83F820500AF000
:1034D000D1FB27E45A1C08921D78132D3FF67AACD5
:1034E000454A4FF00C0E11689A1C089200225F7832
:1034F000DFF818C10EFB02C090F80880B84500F054
:10350000C38301321D2AF5D164E45A1C08921A784B
:103510000B2A3FF65FAC38490868991C0891597826
:1035200003293FF657AC062505FB020282F89310EB
:10353000D91C0891997882F88E10191D0891D978B4
:1035400082F88F10197982F89010597982F89110C9
:10355000D91D9B79089182F89230FFF7E3BB092FC0
:103560007FF638AC08A80DF027FE0021089BDFF895
:10357000A0805A1C0892D8F800501B782B70089A2B
:10358000022902F10103089313782BD1B42BA8BFB1
:10359000B423022BB8BF02236B7101310329EED192
:1035A000931C0893537808A8642BA8BF6423AB71BD
:1035B000D31C089393786B70131D0893D378AB706A
:1035C00004F0D6FB0A2F288106D0089BD8F80020EB
:1035D000591C08911B78D37101230B4A82F82030C3
:1035E000FFF7FABBB42BA8BFB423062BB8BF062342
:1035F0006818C370D1E700BF70220020EC0A0020D9
:10360000A0160020720B0020C80A0020DC960108DA
:10361000CC38002008A804F0ABFB6FF4AF6143186E
:10362000C14D9BB2C62B98BFA5F8D20108A804F0E3
:103630009FFBA5F8740008A804F09AFBA5F8760093
:1036400008A804F095FBA5F8780008A804F090FB02
:10365000089BA5F820025A1C08921B7808A885F838
:103660003E310DF0A9FD089B08A85A1C08921A4685
:1036700012F8021B85F83F1108925A7885F83B2111
:10368000DA1C08929B7885F8CF310DF095FD08A8DB
:1036900004F06EFB089B00EB80005A1C08921A464F
:1036A0004000A5F8180112F8021B089285F83011A5
:1036B0005A7885F83421DA1C08929A7885F83321F3
:1036C0001A1D0892DB7885F83531FFF72BBB0F2FD9
:1036D0007FF480AB5A1C08921D78072D3FF67AAB19
:1036E000924F08A8D7F8008004F042FB0E235D43F8
:1036F000A844A8F8DB0008A8D7F8008004F038FB3D
:10370000A844A8F8DD0008A8D7F8008004F030FB32
:10371000089A3B68A8441D441346511CA8F8DF00D2
:10372000089113F8021B08A8089385F8E110537854
:1037300085F8E230D31C0893937885F8E330131DA5
:103740000893D37885F8E43004F0FCFAC5F8E50076
:10375000FFF7E8BA5A1C08921A780F2A3FF63AABDC
:1037600006257148991C05FB0202089159782EA87C
:1037700082F89010D91C0891997882F89110191D3F
:103780000891D97882F89210197982F893105979B2
:1037900082F89410D91D9B7940F8981D82F89530D5
:1037A0000DF00AFD0BF0F6F8FFF7BCBA08A804F01C
:1037B000DFFA5D4DA5F87E0008A804F0D9FAA5F857
:1037C000800008A804F0D4FAA5F8820008A804F044
:1037D000CFFAA5F88400FFF7A5BA591C089119463D
:1037E000524A11F8020B1268089182F8D6005978F3
:1037F00082F8D710D91C08919B7882F8D930FFF74E
:1038000091BA19465A1C089211F8020B464A0891BF
:1038100082F80001597882F80811D91C08919B7828
:1038200082F81A31FFF77EBA5A1C2EAD3F4F45F889
:10383000982DD7F800801B78284688F8203004F0AF
:1038400097FAFF28A8BFFF2088F81E0028463F6887
:1038500004F08EFAFF28A8BFFF2087F82400FFF7A6
:1038600061BA2EAD5A1C45F8982D2F4F1B7828466B
:10387000BB7404F07DFAF881284604F079FA089BBD
:10388000DFF8A880591C08913882D8F800201B78EE
:10389000284682F838300DF08FFC284604F068FA8C
:1038A000089BA7F81A025A1C08921A4612F8021B23
:1038B000284687F806110892D8F800105B7881F83E
:1038C00021300DF079FC28460DF076FC28460DF0ED
:1038D00073FC28460DF070FCFFF724BA5A1C0892BE
:1038E0001A46114912F8020B2EAD089281F809010F
:1038F0005A7881F81621DA1C08929A7881F81B21EF
:103900001A1D45F8982DDB7881F82531DEE7084B44
:103910001B885F073FF506AA064A136843F00403B5
:103920001360FFF7FFB900BFA0160020702200202F
:10393000EC0A0020241F0020B04A1278012A00F26D
:103940005A8119465A1C089211F8020BAC4A089188
:1039500082F87206597882F87016D91C08919B7803
:1039600082F87136FFF7DEB907F0FEFFA54B1D7038
:10397000A54B1D70A54B1D60FFF7D4B9116821F050
:10398000020167E45A1C08921A4612F8027B2EAD17
:1039900045F8982D284693F801A004F0D3F9039038
:1039A000284604F0CFF90290284604F0CBF981466E
:1039B000284604F0DDF980460FFA80FB284604F023
:1039C000D7F903B22846019304F0D2F90FFA80FE2A
:1039D00008980399451C029A089590F800C00B912D
:1039E0000C92CDF83490D7B989480088400747D564
:1039F0008848057A002D43D090F85C51002D3FD0C7
:103A0000807B00283CD00EA90BA8012204F0BCF951
:103A1000072200210EA80AF0B1FBFFF783B9FF2FA0
:103A20002ED1BAF1010F2BD179480088430727D551
:103A30007848057A25B390F85C510DB3857BFDB1CC
:103A4000007800F0FD0005281AD101220EA90BA86C
:103A500004F09AF9B9F1000F14BF03220122642186
:103A600008F1FF381FFA88F8B8F5B37F98BF42F025
:103A7000040201FB0BF10EA80AF0DEFBFFF752B9BE
:103A800007F1FF385FFA88F01D283FF64BA9604820
:103A9000008845073FF546A9BAF1010F03D0BAF1F6
:103AA000040F7FF43FA95B4B93F96904013087420F
:103AB000184602D0012F7FF435A9182505FB08F51B
:103AC00005F5CC75284403F805A08260BDF80420F4
:103AD00080F816C04160C0F80C90A0F810B0428287
:103AE000A0F814E0ACF1A500D0F1000C4CEB000CF8
:103AF00083F8697483F868C4FFF714B90023404D54
:103B000008A8AB6004F01EF9AB681843A860FFF783
:103B100009B919465A1C089211F8020B384A089143
:103B200082F83001597882F83411D91C08919978BB
:103B300082F83311191D0891DB7882F83531FFF7CF
:103B4000F1B808A804F014F92D4DA5F8360108A81D
:103B500004F00EF9089BA5F838015A1C08921B784E
:103B600008A885F83A3104F003F9A5F83C01FFF7FD
:103B7000D9B85A1C08921A78214B83F81822FFF7FB
:103B8000D1B85A1C08921A78112A3FF623A9991C19
:103B90002EA840F8981D1A4D5B78EC3205EB4205D3
:103BA000AB7104F0E5F840F6CA039842A8BF184686
:103BB00040F2EE239842B8BF18461923A0F2EE2037
:103BC00090FBF3F0E871FFF7ADB85A1C08921A7831
:103BD0000B4B83F8CF21FFF7A5B800230848089ABC
:103BE000511C089111781A180133082B82F8BC1166
:103BF000F5D1FFF797B80023FFF7EEB8DC310020CE
:103C0000A0160020692200206A2200206C220020D9
:103C1000EC0A002088110020002F3FF728A954F853
:103C2000090C294609F037FF54F8090C03685B6A50
:103C300003B198470023049D04F8013C002D3EF495
:103C40003FAF54F8090C0BF02FFF54F8090CA847AC
:103C5000FEF736BF344D54F8090C09F019FF00285F
:103C60003EF42EAF54F8090C09F00CFF14F8013C97
:103C70000746002B7EF42AAF24287EF4CFAF012321
:103C800004F8013CFEF761BF027801EB850585F879
:103C90003D20DA1C08929A7801F13D0085F83E201B
:103CA0001A1D0892DA7885F83F205A1D1B79089270
:103CB00085F8403004F0C4FDFFF734B80C283EF41A
:103CC000A3AE0A2801D00D2821D1184810F01AFA05
:103CD0002321204611F082FD08B1001B286000223C
:103CE0002B68002B7EF49AAE02B12B6030220021AB
:103CF000204611F0E1FC009B1B78002B7EF487AE80
:103D0000FEF77CBE7F287EF4BFAEFEF70FBE7F2895
:103D10007EF4B7AE0022013B05482B60E25410F060
:103D2000F1F9FEF703BE00BF0400FA0566CC0108F6
:103D300046BC01085C282DE9F8430C4600F0F286E9
:103D400000F2F180382800F0C48578D8242800F0EB
:103D5000BD854ED8042800F0A6820AD8022800F0BB
:103D60008C8200F29082012800F077820020BDE86A
:103D7000F883062800F00087C0F0A0822228F5D141
:103D800000210C27C948CA4D00F1300600222B68DB
:103D900003EB810E9EF83DC007FB02F313F806808B
:103DA000E04500F0508701321D2AF5D1002322683A
:103DB000013102F1010CC4F800C0137023689EF8B1
:103DC0003E2003F1010CC4F800C01A7023689EF86D
:103DD0003F2003F1010CC4F800C01A7023689EF85C
:103DE0004020142903F1010EC4F800E01A70CDD16F
:103DF000B5E22C2800F09B8515D8282800F07F8597
:103E00002A2800F090852628B0D1AA4D2046B5F882
:103E1000F0100DF0F4F9B5F8F21020460DF0EFF9BE
:103E2000B5F8F41046E2342800F01E84362800F07D
:103E3000F58532289AD19F4B93F8CF21F4E246289A
:103E400000F0FE853DD8402800F0D78509D83B28F2
:103E500000F004843D2800F0C6833A2886D1002172
:103E60004BE2442800F0E38600F2158642287FF4F6
:103E70007DAF904D0B6895F81822591C21601A707F
:103E8000A96820460DF0A7F9236895F8C421591CAC
:103E900021601A70B5F8F01020460DF0B0F9B5F8B1
:103EA000F21020460DF0ABF9B5F8F41020460DF0F5
:103EB000A6F9B5F8361120460DF0A1F9B5F838117C
:103EC000F8E14F2800F0CF850CD84B2800F06F8523
:103ED0004D2800F0A68149287FF448AF754BB3F810
:103EE0000211E7E1542800F0D1855A2800F0F4854A
:103EF00050287FF43BAF01200B685A1C0A601870F1
:103F00006C4B226893F872161518256011702268A0
:103F100093F8701615182560117093F871262368B0
:103F200019182160A6E1722800F0E48300F2A38052
:103F3000692800F0688163D8652800F05B824BD85F
:103F4000602800F05486642800F0C5815E287FF464
:103F50000DAF574D20462B680A27D98C0DF04FF92D
:103F60002B682046198D0DF04AF92B682046598C94
:103F70000DF045F923684FF6FF765A1C22600022A7
:103F80001A7023682046591C21601A702368591C36
:103F900021601A702368591C21601A702368591C0B
:103FA00021601A702368591C21601A702368591CFB
:103FB00021601A702B68196BB1FBF7F1B142A8BFF1
:103FC000314689B20DF01BF92B68D96AB1FBF7F1C4
:103FD000B142A8BF31462AE0672800F0518240F282
:103FE00026820025344E052D8CBF002136F9151090
:103FF000204689B201350DF002F9082DF3D1AEE16A
:104000006D2800F0B68214D86B282C4D00F0FD838B
:1040100040F2D283E98B20460DF0F1F8298C20463E
:104020000DF0EDF80A23B5F9221091FBF3F189B2F6
:1040300040E16F2800F0E182C0F0AA8270287FF48E
:1040400095AE00221A490B68985C23685D1C2560B8
:1040500018700B681344987A23685D1C25601870EB
:104060000B681344187D236801325D1C0A2A256001
:104070001870E8D173E17D2800F0138538D87728CF
:1040800000F08A801ED8742800F0A280C0F08B83D4
:1040900075287FF46BAE0A4A12F8013F002B00F03E
:1040A0005E812168481C20600B70F5E7AC96010822
:1040B00070220020A0160020FE0A0020EC0A00203A
:1040C000AB960108792800F0B383C0F0DC817C282E
:1040D0007FF44CAEB64D2046B5F87E100DF08FF84B
:1040E000B5F8801020460DF08AF8B5F88210E1E0AE
:1040F000A02800F0DE8318D8962800F03381972896
:1041000000F0FF807E287FF431AEA94B226893F83F
:104110000011501C20601170226893F80811501C87
:104120002060117093F81A217EE1A62800F0A28386
:1041300024D8A4287FF41AAE01200B685A1C0A6008
:1041400018700B681A180A6000221A700B68191888
:10415000216064211A70974B2568B3F878202E18D7
:10416000B2FBF1F226602A70B3F878302268B3FB14
:10417000F1F3111821601370BDE8F883F12800F005
:10418000C881FE287FF4F2AD0425002120460DF001
:1041900036F8013DF9D1E2E000214FF00C0C854DDD
:1041A000854805F1300700F1300E95F84C30994202
:1041B00080F2D5800022CE5D0CFB02F313F80E8056
:1041C000B04500F0518501321D2AF5D10131ECE7EF
:1041D0000026794FDFF8DC8107F1300998F84C3080
:1041E0009E4280F2BC8000220C20744BF15C00FBEC
:1041F00002F313F809508D4200F02A8501321D2A7E
:10420000F5D10136EAE700256D4E6E4F33789D42B9
:1042100080F2A58037F8151020460CF0F0FF01352C
:10422000F4E70026684D664F3B7802359E4280F2E7
:104230009680236815F8022C591C21601A7015F815
:10424000011C204601EB810101EB810101F2EE210D
:1042500089B20CF0D4FF0136E6E70B685A1C0A60FD
:1042600000221A700B685A1C0A6018700B685A1CDE
:104270000A6017221A70BDE8F883042253492046C9
:104280000CF09FFF6BE001200B685A1C0A6018704D
:104290000B681A180A6005221A700B681A180A604F
:1042A0001870BDE8F8830246494920460CF089FFA2
:1042B000484B197820460CF0A2FF50E00B224649EB
:1042C00020460CF07EFF0822444920460CF079FF7E
:1042D00008224349D3E70B685A1C0A60E7221A7088
:1042E000334B93F818220B68591C21601A7023680D
:1042F0003C495A1C226000221A7020460CF06BFFC9
:104300002DE005F043FD0125236800265A1C22609C
:10431000187023685A1C22601D7005F003FD236885
:104320005A192260187005F01BFD23685A19226083
:10433000187023685A1922601E7005F0D9FC236892
:104340005A192260187023685A1922601E70236857
:104350005A1922601E7023685A1922601E700120AB
:10436000BDE8F883204B204619880CF048FF1F4B0E
:104370002046198889B20CF042FF04F071FF014613
:1043800020460CF03CFF04F099FF014620460CF05B
:1043900022FF074B204693F850262368591C2160C2
:1043A0001A70134B19880CF02AFF024B198881E709
:1043B000A0160020EC0A0020AC9601081C0B00207F
:1043C000941600205C2100207E18002082BC010889
:1043D00087BC01088C1D00208CBC010898BC01081A
:1043E00049BC01083C000080723900207C1100208B
:1043F000C41F0020B34B204619880CF000FFB24BBD
:104400002046198889B20CF0FAFE04F029FF014613
:1044100020460CF0F4FE04F051FF014620460CF05B
:10442000DAFEAA4B93F850262368591C78E3A84E6D
:1044300000253289B2F5806F94BF012708277319D0
:10444000196B204691FBF7F1043589B20CF0D7FEC9
:104450000C2DF4D100259F4EAB19B3F8481020461F
:1044600004350CF0CCFE0C2DF6D100259A4EAB197C
:10447000198A204604350CF0C2FE0C2DF7D16EE7E8
:1044800010229649FBE600274FF00E08944E08FBD9
:1044900007F5336820462B44B3F8DB100CF0AFFE71
:1044A000336820462B44B3F8DD100CF0A8FE3368C7
:1044B00020462B44B3F8DF100CF0A1FE33682046F1
:1044C0002B4493F8E12023680137591C21601A70AE
:1044D00033682B4493F8E2202368591C21601A703A
:1044E00033682B4493F8E3202368591C21601A7029
:1044F00033682B4493F8E4202368591C21601A7018
:1045000033681D44D5F8E5100CF065FE082FBED1C8
:1045100025E700206D4B03F16001226893F890506D
:10452000561C26601570226893F89150561C266020
:104530001570226893F89250561C266015702268F8
:1045400093F89350561C26601570226893F8945087
:10455000561C26601570226893F89550561C2660EC
:10456000157022680633551C8B4225601070D4D11B
:10457000F5E65C4DD5F8080110F0AEFE0146204688
:104580000CF029FED5F8140110F0A6FE81B291E6D8
:10459000554B4FF6FF761B880A68FF2BA8BFFF23F9
:1045A000511C524D21601370696A2046B142A8BF68
:1045B000314621EAE17189B20CF021FE298D2046B5
:1045C0000CF01DFE414B93F83B3143B10A21EB6ADD
:1045D0005943B142A8BF314621EAE17127E5E96AB2
:1045E00001F30F0123E5394B226893F81712501C91
:1045F0002060117093F8162216E70B683C4D5A1C88
:104600000A6064221A702B681A780B68591C2160A2
:104610001A7000232A681A44D17822680133501C8A
:10462000032B20601170F5D12B6820469A792368FE
:10463000591C21601A702B685A782368591C216014
:104640001A702B689A782368591C21601A702B689D
:1046500019890CF0D4FD2B68DA79E5E60B685A1C51
:104660000A6002221A707AE6002106251C4E326882
:10467000236805FB012292F893005F1C27601870E5
:10468000236892F88E005F1C27601870236892F8E8
:104690008F005F1C27601870236892F890005F1CE1
:1046A00027601870236892F891005F1C27601870CB
:1046B000236892F892200131581C0C2920601A704E
:1046C000D5D14CE6723900207C110020A0160020C4
:1046D000F81D0020381D0020341E0020EE0A0020A6
:1046E00070220020881100204C210020EC0A0020BC
:1046F000CC380020C24D2046B5F8D2110CF07FFD19
:10470000B5F8741020460CF07AFDB5F87610204606
:104710000CF075FDB5F8781020460CF070FDB5F87A
:10472000201220460CF06BFD236895F83E21591CA1
:1047300021601A7023685A1C226000221A702368B4
:1047400095F83F11581C20601970236895F83B11AB
:10475000581C20601970236895F8CF11581C2060F0
:10476000197023682046591C21601A700A23B5F974
:10477000181191FBF3F189B20CF041FD236895F813
:104780003021591C21601A70236895F83421591C76
:1047900021601A70236895F83321591C21601A7022
:1047A00095F8352140E601232268511C21601370E1
:1047B0000133092BF8D1D2E50B6895F85420591C28
:1047C00021601A70236895F85520591C21601A70D1
:1047D000A96D20460CF0FFFCE96D20460CF0FBFCB7
:1047E0006423296E204691FBF3F189B20CF007FD9A
:1047F000B5F8701020460CF002FDB5F87210204696
:104800000CF0FDFCB5F8781054E5B5F87C102046A6
:104810000CF0F5FCB5F87E1020460CF0F0FC95F895
:10482000503003F001032268511C2160137096E59B
:10483000744A236892F88010581C2060197023680D
:1048400092F88110581C20601970236892F8851026
:10485000581C20601970236892F88410581C20603E
:104860001970236892F88210581C20601970B2F8F1
:1048700086101FE5644D204629880CF0C0FC69684D
:1048800020460CF0A8FCA96820460CF0A4FCE968BE
:104890005C4D20460CF09FFCB5F8781020460CF0DB
:1048A000AEFCB5F8741020460CF0A9FCB5F87610F3
:1048B00000E5564B204619680CF08DFC544B204601
:1048C00019680CF088FC534B196816E54C4B996835
:1048D00013E54B4B226893F83011501C2060117087
:1048E000226893F83411501C20601170226893F8EC
:1048F0003311501C2060117093F8352194E5404D20
:104900002046B5F836110CF07AFCB5F8381120467F
:104910000CF075FC236895F83A21591C21601A7037
:10492000B5F83C11C6E4364B93F818227CE5344DBB
:104930000B6895F8C421591C21601A70B5F8D6117E
:1049400020460CF05CFCB5F8D21120460CF057FC68
:10495000B5F8D41120460CF052FC236895F8CD210F
:10496000591C21601A70B5F8DA1120460CF047FC8A
:10497000B5F8DC1120460CF042FC002123682046EB
:104980005A1C2260197023685A1C226019700CF09E
:1049900036FC236895F8C621591C21601A70D5F899
:1049A000C81120460CF017FC95F8CC213CE5144DBD
:1049B0000B6895F81C22591C21601A70236895F821
:1049C0001E22591C21601A70B5F8201220460CF0E6
:1049D00016FC236895F82222591C21601A70B5F83C
:1049E000241220460CF00BFC236895F82622591C53
:1049F00021601A7095F81D2216E5082206493EE44A
:104A0000A0160020EC0A00200C210020E8F7FF1F70
:104A1000ECF7FF1FF0F7FF1F5C180020A84DA94F0F
:104A200005F12006002395F92A22D957914200F07A
:104A300024810C33302BF8D10835AE42F2D18EE40C
:104A400006F056FE2368A04D5A1C22601870298873
:104A500020460CF0C0FBE96820460CF0BCFB06F0D9
:104A600027FE014649E400250B685A1C0A601D70A8
:104A70000B685A1C0A601D700B685A1C0A601D7076
:104A8000002120460CF0A7FBFFF7E9B90B685A1C80
:104A90000A600022E6E50B228C4920460CF091FBCF
:104AA000EEE78B4B1A6892F8D6102268501C2060F3
:104AB00011701A6892F8D7102268501C206011708B
:104AC0001B6893F8D9202368591C21601A707C4B0D
:104AD000B3F88410FFF7EEBB0125794E0B6896F80A
:104AE0000521591C21601A70236820465A1C226037
:104AF0001D7023685A1922601D70236896F87C2067
:104B0000591921601A70B6F87A100CF078FBB6F8D3
:104B1000881020460CF073FB236896F8042159197D
:104B200021609FE56A4D20462B6893F820200B6892
:104B3000591C21601A702B68997F0CF060FB2B6860
:104B4000204693F824100CF05AFB012120460CF06B
:104B500056FB012120460CF052FB012120460CF0AF
:104B60004EFB012120460CF04AFB012120460CF0AF
:104B700046FB0121FFF79EBB514D0B68AA7C591CD7
:104B800021601A70E9892046514E0CF038FB298AC1
:104B900020460CF034FB3368204693F83820236815
:104BA000591C21601A7023685A1C226002221A7054
:104BB000B5F81A120CF023FB236895F80621591C4E
:104BC00021601A70336893F821202368591C2160F2
:104BD0001A702268531C2360002313702268511C32
:104BE000216013702268511C216013701BE6344B46
:104BF000226893F80911501C20601170226893F804
:104C00001611501C20601170226893F81B11501C63
:104C10002060117093F825212368591C21601A70B7
:104C200023685A1C226000221A70FFF7FDBB294B33
:104C30001B885B073FF593AB002A3FF490AB264BF4
:104C40001360FFF78CBB034493F83830FFF7AFB81D
:104C50003B445D6B284610F093FE294602462046F1
:104C60000CF0AFFAFFF7CDBA034493F8382023686D
:104C70005E1C26601A70FFF7A9BA23682046591CEB
:104C800021601A70B5F82C120CF0B9FA236895F867
:104C90002E22591C21601A70236895F82F22591C66
:104CA00021601A70236895F83122591C21601A700E
:104CB000236895F83022591C21601A70BCE600BFA9
:104CC000A0160020DC2000203C0300208CBC010842
:104CD00070220020EC0A0020298900082DE9F04FFD
:104CE000A34BA44A00F59C4A1C780AF1200A97B00D
:104CF0000746C2F800A09046002C65D19E4D9F4EFD
:104D0000A94695F800B05C45C0F2D28042F201029B
:104D10009B4B9C491B68096813400291059306D080
:104D200098F8293088F82830974B5A781A7098F8F4
:104D300028501DB1944B1D7885F001050F2388F88C
:104D40002A308E4B00241B68DFF86492039398F896
:104D50002B30A9F1040601930323019AB2FBF3F36C
:104D600003EB4303D31ADBB25B0009F17002069335
:104D7000049209F128035C45C0F2C5807D4C814A4C
:104D800094F82A300F2B0CBF0123002384F8D6306F
:104D90007E4B40F034817E490968480304D5784948
:104DA0000968C90500F12B8112681969DA60521A85
:104DB00099688A4202D9012283F8252094F82B3081
:104DC000013384F82B3005E0724A1268904201D911
:104DD000013C1C706A4B1A689B4612F4805F05D038
:104DE0006B4B1B68DB0701D40EF074FF634B1C6830
:104DF000E07C002800F01E81674A637D013832F9AB
:104E000010001BB1C0F53B60083000B2A0F57A700D
:104E1000B0F57A7FA8BF4FF47A7020EAE07011F005
:104E2000D1FD5E4911F0D6FE5D4911F01FFE12F072
:104E30001FF85C4B1880DBF80030DFF878A113F422
:104E4000807F00F07B81584BDFF840919F4205D96D
:104E500099F8022012B9012289F8022099F802205B
:104E6000002A00F06B814A49BAF8002099F82540E1
:104E7000086802F004030193012C00F480230293DC
:104E8000039100F00E8112F0080F0CBF00260226DD
:104E90003C4D464F99F82420062A00F24B81DFE86A
:104EA00012F00201EA0104024A026A027A0298023E
:104EB000072CD6BF3368E1B2195D2846D9F8043013
:104EC0009847032C1ADC3268A3004633D118D25A13
:104ED0004B8898B1811A4FF47A7048439B1A90FB23
:104EE000F3F040F2EE2300F57A709842B8BF18460E
:104EF00040F6CA039842A8BF184680B22C4B23F84C
:104F000014000134FDE66100CDB139F91400039AB3
:104F100080B2D28B824203D8039A128C824220D272
:104F200053F82420029882420BD91B4A505A059A02
:104F3000002A41D1184A22F8140001341BE7284600
:104F4000E5E7E0B2079305F06FF8032C079BEEDC72
:104F5000012296F82A10A24021EA020286F82A20AD
:104F6000E5E7029A02F5967243F82420DFE700BFD6
:104F700084210020740B002094160020582100206A
:104F8000A81E002088210020080000208C2100207D
:104F9000B81F0020802100205C21002000007A44FE
:104FA00000C07F44140B0020404B4C0028340020EC
:104FB000780B0020EC0A0020062202FB04FC049976
:104FC000069A96F8BCE061448852BEF1000F06D103
:104FD000019A022AAED94FF0010286F8BC20049A49
:104FE000488832F80C2010448A881044B44A00B231
:104FF00022F81400032290FBF2F080B29AE701201D
:10500000B049126848700870D9681A61521A596814
:1050100000258A4288BF0022AB4E88BF83F8252036
:105020005D45BFF6CBAEE8B204F0FEFF26F81500F2
:105030000135F5E7DBF800301D047FF5FCAEA34A2F
:10504000D2F8D830FB1A002BFFF6F5AEA04BC2F811
:10505000D8A0D9799F4B33F81110237D89B291FBE9
:10506000F3F192F8DC30013303F00F0382F8DC3007
:10507000134483F8DD100346DD32995C01330844A4
:10508000102B00B2F9D190FBF3F000B2002806DB40
:105090006428A8BF642011F095FC8F49C2E6002067
:1050A000F9E70026F4E6019B002B38D0B8F8EE10A3
:1050B000D8F8F0000AF0F3FE012807D164203A681E
:1050C0002968128900FB0212C9F81420029B63B1FF
:1050D0003A6892794AB10DF013F9042289F8242034
:1050E0004FF47A72C9F82020D4E6012C22D03A6815
:1050F000128922B12A68D9F81410914203D3774A51
:105100001268110607D50DF0FBF8042289F8242057
:1051100040F6B832E6E7012289F82420BAE6029B7D
:105120004FF48060002B00F0A3800BF015FB0022F1
:10513000C9F8142016B1304609F0EAFA684CB4F800
:10514000841004F5DE700AF0AAFEBAF8003001906F
:1051500013F0040FA14623D0DBF80030DD061FD585
:105160005E4B1B68DC061BD45E4B584C1B78002B37
:1051700000F0538199F81732002840F03C81002B51
:1051800000F04E81584B1A68D4F8F4309B1A002B6B
:1051900080F246810EF09EFD9DF8043084F8F830D0
:1051A0000022134699F8161299F81552B9F8D461ED
:1051B000B9F8D671444830F912409B08B442C4BFD4
:1051C00063F07F03DBB20132BC42B8BF43F040035F
:1051D000042AF0D13D4C94F8F9209A4240F0258100
:1051E00094F8FA20F92A02D8013284F8FA203D4EC8
:1051F00084F8F930327872B93C4B1B68D80740F11B
:105200001681019B84F8FB202BB9BAF80030D9072E
:1052100001D50EF0B5FB94F8FA30142B40F0FF8363
:105220003378B3B194F8F9305F2B12D12B4B1B6854
:10523000DA0606D5DBF80030DB0602D5002D40F09B
:10524000EE83BAF8003013F0040700F016810EF078
:1052500041FDBAF800305F0700F1E18394F8F930BE
:10526000572B40F010814FF47A72214B1A80D6E30D
:105270000BF062FA5BE7012C01D106224CE73A6899
:10528000927A012A3FF43FAF022A02D00DF038F89B
:1052900000E604920DF034F801201649487408F035
:1052A000E1FD09F084F9049A36E7012C114A23D173
:1052B0000021517408F0D6FD09F079F9DDE700BF4F
:1052C000320C0020080000205C210020740B00201C
:1052D00020210020342100200000C842241F00208B
:1052E000A0160020F700002088210020B81F002011
:1052F0000E2D002088110020019B517C002B18BF2F
:10530000032691B11278824901EB4211498901F4D7
:10531000027151B11F2A04D87E4B23FA02F2D20740
:1053200003D4019B002B7FF405AF47F23052C9F83C
:1053300020200422F0E6012C08BF0622019B08BFB2
:1053400089F824205BB10326D8F8F020B2F91610B2
:10535000714A11805180918039688988D1802A688A
:10536000D9F818109142E0D3019B002BDDD0012C1D
:105370003FF490ADDEE6BAF8002042F00202AAF84F
:1053800000200EF0A7FC2968D9F820200A44C9F8AB
:105390001C200522C0E6012C14D12A68D9F81C1063
:1053A0009142BFF4C7AE5D4A127822B9039B1A68D6
:1053B000D3073FF5BFAEBAF8002022F00202AAF8E8
:1053C00000205AE72968D9F820200A44C9F81C208F
:1053D000B0E664203A682968128900FB0212C9F815
:1053E000142000224FF4806089F8242089F80320DB
:1053F0000BF0A2F94EE53BB14FF47A71484A1268BE
:1054000001FB0323C4F8F43094F8F830002B3FF488
:10541000C7AE09F061F90023C0E6019B002BF3D170
:10542000102009F075F90123B8E60022DDE6BAF88C
:10543000002052071DD55F0303D5DBF80030D805E7
:1054400017D494F82830A3B1364BDB788BB994F895
:10545000FB300133DBB2032B84F8FB307FF6DBAE8D
:1054600011B10EF037FCD6E6019B002B7FF4D3AED2
:10547000F7E7002384F8FB30CDE60B2009F048F96C
:1054800084F8FA70E5E65D2B00F091825B2B00F06A
:105490009B825E2B40F0A882032089E294F8F930C9
:1054A0006F2B00F0BA8294F8F930972B03D14FF4A8
:1054B000C8721D4BDAE6A72B05D11C4A136843F0CE
:1054C00004031360ABE2BB2B08D16FF00101002095
:1054D00002F008F90A2384F8FA30A0E2B72B01D1D0
:1054E0000221F4E7BE2B03D100216FF00100EFE7AA
:1054F000BD2B40F0948200210220E9E717F803E079
:10550000BEF1000F00F0D4820CFA03F0CEE200BF2F
:1055100038980108002020805C210020F70000203E
:10552000882100208C210020EA0A0020241F00206E
:10553000DFF8DC8206F18E05D6366A78AB789A42BF
:1055400022D2691C28780AF077FCE8B1EB78AE4AE1
:10555000013B03EB430313440C22697995F804C023
:1055600002FB01FE08EB0E00426893420CD0436040
:10557000012303FA01F194F8FC3008F80EC023EA85
:105580000101876084F8FC100635AE42D5D10026B3
:105590009E4B9F4F1D689F4B1B68029394F82830C9
:1055A00003937A68002A65D01478002C62D0BB6817
:1055B0000299CB1A002B0DDB01F5FA73BB600123B6
:1055C00003FA06F1944B93F8FC3023EA0103924965
:1055D00081F8FC30039B002B4CD03B78517804338E
:1055E000DBB2002940F022818C4931F91310B9F85F
:1055F000D23103F1C800814226DD92F80280864B49
:1056000093F8FC203241D20734D4B8F1000FCCBF5C
:105610000220012009F0BCF8A21E122A3BD8DFE8C4
:1056200012F02F004400540073007E009900B40073
:10563000CF00DB00E7003A00540066007E009900CE
:10564000B4008D00A800C300C83B994203DA9178EA
:10565000C1F10008D3E7012303FA06F26E4B93F879
:10566000FC3023EA02036C4A82F8FC30029B03F50B
:10567000FA73BB600136042E07F10C0791D121E2C9
:105680002978022041446429A8BF642121EAE171FC
:1056900029700AF021FC01235F4AB34092F8FC20F4
:1056A00013435D4A82F8FC30E4E7AC785C4B444439
:1056B000642CA8BF642424EAE474AC7019682846FA
:1056C0000AF066FB21460320E3E729790D204144D7
:1056D000B429A8BFB4210629B8BF062129710AF050
:1056E000FBFB0D2C03D101224E4B1A70D3E7E97856
:1056F0000E204144B429A8BFB4210629B8BF062111
:10570000E9700AF0E9FBEEE7697905204144B42924
:10571000A8BFB4210229B8BF02216971F1E7424A4A
:105720000F20126851784144C829A8BFC82121EA36
:10573000E17151700AF0D0FB0F2CD4D03A4A1220FC
:10574000126811784144C829A8BFC82121EAE17133
:105750001170D6E7344A10201268D17A4144C82922
:10576000A8BFC82121EAE171D1720AF0B5FB102C63
:10577000B9D02D4A13201268917A4144C829A8BF94
:10578000C82121EAE1719172BBE7274A1120126812
:10579000517D4144C829A8BFC82121EAE171517552
:1057A0000AF09AFB112C9ED01F4A14201268117D1A
:1057B0004144C829A8BFC82121EAE1711175A0E7B9
:1057C000194A0920126891784144C829A8BFC82104
:1057D00021EAE171917094E7134A0A201268117B63
:1057E0004144C829A8BFC82121EAE171117388E7A3
:1057F0000D4A0B201268917D4144C829A8BFC821D9
:1058000021EAE17191757CE7B89C0108CC38002051
:105810002816002088210020740B00205C21002025
:10582000F81E0020E80A0020FC1E002001297FF459
:1058300032AF0C2C7FF42FAF64494FF4966031F9EE
:10584000133040F633018B42A8BF0B469278B3F574
:10585000617FB8BF4FF4617390FBF2F0A3F5617301
:1058600093FBF0F35A4ADBB212789A423FF413AF3B
:10587000032B94BF1A4602220A210493544B1A7038
:1058800001FB0292534902F252620A6001F0B4FC39
:10589000049B204619460AF01FFB049B581CC0B20B
:1058A00008F076FFF7E601200AF046FF012728E11D
:1058B000002726E102200AF03FFF32E14FF40050BA
:1058C0000AF03AFF40E14FF480400AF035FF4BE127
:1058D0004FF400400AF030FF51E104200AF02CFFA1
:1058E00067E140200AF028FF6DE14FF480700AF074
:1058F00023FF81E1019A384B002A40F09081226811
:10590000D50243D5354AD278002A3FD12F49B9F87C
:10591000D221B1F9025002F11800A842C0F27781F9
:10592000183A9542C0F27381B1F900108842C0F272
:105930006E818A4200F36B811A6842F020021A607D
:1059400099F8183203F0EF02082A01D00E2B02D189
:1059500040200AF0F1FEDBF8003059050FD599F828
:105960004C32C3B9BAF8003013F0040F1AD0002239
:105970001B4B1A704FF44F7003F01EFF78B90122D1
:10598000184B83F80E2117B0BDE8F08F1A6822F08B
:1059900020021A6038E1236813F4803FE6E70FF035
:1059A0000BF9E7E70DF0C2FD0FF01CF9E7E7012066
:1059B000C5B26B1E89F8503601F06CFB01F026FC75
:1059C000284608F0E5FE2AE00220F1E75C210020ED
:1059D00074390020CC380020241F00208C210020A6
:1059E000D5200020740B0020562B01D101F070FE51
:1059F0003378002B3FF457AD8B4B1B68D8067FF5EF
:105A00004DADDBF80030D9067FF548AD002D3FF4F1
:105A100045AD019B002B3FF446AD0DF0B1FF834B2C
:105A20001C221E68002108A896F88D500FF044FE35
:105A30001C2200210FA80FF03FFE06F18F0306F194
:105A40003F07029317F8028C16AB984418F8383CBD
:105A50003A78013308F8383C7B789A420AD23946C2
:105A600017F8010C0AF0E8F920B118F81C3C0133D2
:105A700008F81C3C029B04379F42E3D100234FF0FF
:105A8000010C18461A466A490FAF0B600DF1200E43
:105A90001EF803E0BEF1000F0AD0012D7FF42EADF9
:105AA00017F80380F04503D105FA03F00243012003
:105AB00001331C2BEAD100B10A605E4B1F78002F26
:105AC0003FF436AD5A4C5C4E23685C4D13F0020F28
:105AD0000BD1DBF80030DB0502D5594BDB7823B95D
